:020000040800F2
:106000000090002031D00008816A0008916A0008E1
:106010000000000000000000000000000000000080
:10602000000000000000000000000000A16A00085D
:106030000000000000000000A36A0008A56A000834
:1060400081D0000881D0000881D0000881D00008EC
:1060500081D0000881D00008AD6A0008B76A000846
:1060600081D00008C56A0008D56A0008ED6A0008FA
:1060700081D0000881D0000881D0000881D00008BC
:1060800081D0000881D0000881D0000881D00008AC
:1060900081D0000881D0000881D0000881D000089C
:1060A00081D0000881D0000881D0000881D000088C
:0C60B00081D0000881D0000881D00008D9
:1060BC0010B5064C2378002B07D1054B002B02D0D2
:1060CC00044800E000BF0123237010BD50010020E4
:1060DC000000000094E80008044B10B5002B03D01E
:1060EC000349044800E000BF10BDC046000000009A
:1060FC005401002094E800080023C25C0133002AFC
:10610C00FBD1581E7047000003B47146490840008B
:10611C004900095E49008E4403BC704700224308C5
:10612C008B4274D303098B425FD3030A8B4244D353
:10613C00030B8B4228D3030C8B420DD3FF22090295
:10614C0012BA030C8B4202D31212090265D0030B54
:10615C008B4219D300E0090AC30B8B4201D3CB034A
:10616C00C01A5241830B8B4201D38B03C01A52418C
:10617C00430B8B4201D34B03C01A5241030B8B428E
:10618C0001D30B03C01A5241C30A8B4201D3CB0279
:10619C00C01A5241830A8B4201D38B02C01A52415E
:1061AC00430A8B4201D34B02C01A5241030A8B4261
:1061BC0001D30B02C01A5241CDD2C3098B4201D379
:1061CC00CB01C01A524183098B4201D38B01C01AF7
:1061DC00524143098B4201D34B01C01A524103096E
:1061EC008B4201D30B01C01A5241C3088B4201D31D
:1061FC00CB00C01A524183088B4201D38B00C01ACA
:10620C00524143088B4201D34B00C01A5241411AF0
:10621C0000D20146524110467047FFE701B50020FD
:10622C0000F0F0F802BDC0460029F7D076E77047C1
:10623C0003460B437FD4002243088B4274D30309DB
:10624C008B425FD3030A8B4244D3030B8B4228D37C
:10625C00030C8B420DD3FF22090212BA030C8B42A2
:10626C0002D31212090265D0030B8B4219D300E042
:10627C00090AC30B8B4201D3CB03C01A5241830BC7
:10628C008B4201D38B03C01A5241430B8B4201D377
:10629C004B03C01A5241030B8B4201D30B03C01AA0
:1062AC005241C30A8B4201D3CB02C01A5241830A1A
:1062BC008B4201D38B02C01A5241430A8B4201D349
:1062CC004B02C01A5241030A8B4201D30B02C01A73
:1062DC005241CDD2C3098B4201D3CB01C01A5241DA
:1062EC0083098B4201D38B01C01A524143098B4263
:1062FC0001D34B01C01A524103098B4201D30B014C
:10630C00C01A5241C3088B4201D3CB00C01A524170
:10631C0083088B4201D38B00C01A524143088B4235
:10632C0001D34B00C01A5241411A00D201465241CE
:10633C00104670475DE0CA0F00D04942031000D3ED
:10634C004042534000229C4603098B422DD3030A42
:10635C008B4212D3FC22890112BA030A8B420CD352
:10636C00890192118B4208D3890192118B4204D37B
:10637C0089013AD0921100E08909C3098B4201D3FB
:10638C00CB01C01A524183098B4201D38B01C01A35
:10639C00524143098B4201D34B01C01A52410309AC
:1063AC008B4201D30B01C01A5241C3088B4201D35B
:1063BC00CB00C01A524183088B4201D38B00C01A08
:1063CC005241D9D243088B4201D34B00C01A5241DF
:1063DC00411A00D20146634652415B10104601D36C
:1063EC004042002B00D54942704763465B1000D3F6
:1063FC00404201B5002000F005F802BD0029F8D09C
:10640C0016E770477047C046002B11D1002A0FD1F8
:10641C00002900D1002802D00021C943080007B48C
:10642C00024802A14018029003BDC046D9FFFFFFED
:10643C0003B4684601B5029800F034F8019B9E46FF
:10644C0002B00CBC7047C046F0B5CE46474680B58E
:10645C00070099463B0C9C4613041B0C1D000E00B8
:10646C0061460004140C000C45434B4360436143EC
:10647C00C0182C0C20188C46834203D980235B0255
:10648C009846C444494679437243030C63442D0433
:10649C002D0CC918000440198918C0BCB946B04667
:1064AC00F0BDC046F0B557464E464546DE46E0B513
:1064BC0004000D009246994683B08B4230D82DD003
:1064CC004946504600F0BAF829000600200000F0BA
:1064DC00B5F8331A9846203B9B4633D45A4653465C
:1064EC00934042461F00534693401E00AF423AD899
:1064FC00AF4200D178E05B46A41BBD41002B00DA13
:10650C0075E0002200230092019301235A46934028
:10651C000193012342469340009328E08242CFD955
:10652C0000220023009201930C9B002B01D01C60D5
:10653C005D600098019903B0F0BCBB46B246A94619
:10654C00A046F0BD424620239B1A5246DA404146F3
:10655C0013004A468A40170042461F435346934055
:10656C001E00AF42C4D9002200230092019343467F
:10657C00002BD9D0FB0772081A4346467B080EE065
:10658C00AB4201D1A2420CD8A41A9D41012024197E
:10659C006D410021013E24184D41002E06D0AB4226
:1065AC00EED9013E24196D41002EF8D100980199C5
:1065BC005B4600196941002B24DB2B005A464446EC
:1065CC00D3402A00E2401C005B461500002B2ADB5E
:1065DC0026009E40330026004746BE403200801AFB
:1065EC009941009001919FE7A342BCD883E74246B2
:1065FC00202300219B1A0022009101920122DA40F3
:10660C00019286E7424620239B1A2A0046469A406E
:10661C002300F340444613432A00E2401C005B462F
:10662C001500002BD4DA42462F0020232600974079
:10663C009B1ADE403B003343CDE7C04610B5002922
:10664C0003D100F007F8203002E0080000F002F857
:10665C0010BDC0461C2101231B04984201D3000C21
:10666C0010391B0A984201D3000A08391B099842B9
:10667C0001D30009043902A2105C40187047C046CF
:10668C0004030202010101010000000000000000EF
:10669C00F0B5DE4657464E464546E0B58BB0142263
:1066AC00002105A806F01BFD564B596B0422114323
:1066BC005963596B0A400192019A5A6B0221884620
:1066CC000A435A635A6B0A400292029A5A6B01248B
:1066DC0022435A635A6B22400392039A5A6B063137
:1066EC008A460A435A635B6B0B400493049B8025D8
:1066FC00AD01454B9B4600222900180001F009FE14
:10670C0080277F0100223900404801F002FEA026BC
:10671C00F605012281210902300001F0FAFD002268
:10672C003900300001F0F5FD394B99460022062165
:10673C00180001F0EEFD05950694002507950895C7
:10674C0005A9584601F022FD0597112306930794DD
:10675C00089505A92D4801F019FD81231B0205930D
:10676C00069407954346089305A9300001F00EFDE9
:10677C0080239B000593434606930795089409953F
:10678C0005A9300001F002FD80231B010593842331
:10679C009B0398460693079405A9300001F0F6FC7C
:1067AC00059706940795089505A9300001F0EEFCB5
:1067BC000623059306940795089505A9484601F00C
:1067CC00E5FC5346059343460693079405A94846B2
:1067DC0001F0DCFC00220221062001F043FF062020
:1067EC0001F070FF00220221072001F03BFF07207F
:1067FC0001F068FF0BB0F0BCBB46B246A946A04600
:10680C00F0BDC046001002400008005000040050CB
:10681C00000C005000B583B0114A916B0123194351
:10682C009163926B13400193019B0022022109207A
:10683C0001F018FF092001F045FF002202210A2077
:10684C0001F010FF0A2001F03DFF002202210B2075
:10685C0001F008FF0B2001F035FF03B000BDC0466E
:10686C000010024072B6FEE710B51048104B0360E2
:10687C0082235B00436000238360E022D200C2606D
:10688C0003614361802292008261F93AFF3AC2614E
:10689C000362436283620721C1620363426302F0B5
:1068AC0023F9002800D110BDFFF7DCFF30030020D6
:1068BC000030014010B51748174B0360E1235B0211
:1068CC00436000238360C36003610C2242618361D7
:1068DC00C36103624362836203F034FA002811D16E
:1068EC0000210C4803F0B4FA00280DD1002109480E
:1068FC0003F0D4FA002809D1064803F089FA0028DD
:10690C0006D110BDFFF7AEFFFFF7ACFFFFF7AAFFF4
:10691C00FFF7A8FFF80300200038014010B512481B
:10692C00124B0360124B4360002383600122C26050
:10693C00036143618361C361036200F0E3FB0028E0
:10694C000CD10021084800F0E7FD002808D10021F7
:10695C00054800F00DFE002804D110BDFFF782FFA2
:10696C00FFF780FFFFF77EFFDC020020005800409D
:10697C003D32F04010B51048104B036082235B0091
:10698C00436000238360E022D200C2600361436154
:10699C00802292008261F93AFF3AC261036243623B
:1069AC0083620721C1620363426302F09DF80028F1
:1069BC0000D110BDFFF756FF9403002000380040B3
:1069CC0000B593B03822002104A806F088FB1022F1
:1069DC000021684606F083FB8020800001F018FE41
:1069EC000223049380225200079200220892402135
:1069FC0009910B930C930D9206330E9380239B02FB
:106A0C000F9380239B04109380239B05119304A860
:106A1C0000F0D8FD002815D107230093053B019306
:106A2C000023029303930221684601F0AFF800287B
:106A3C000AD18022A0219205C904002001F01EF881
:106A4C0013B000BDFFF70EFFFFF70CFF10B501F000
:106A5C008DFEFFF7B5FFFFF71BFEFFF7DBFEFFF721
:106A6C0003FFFFF727FFFFF759FFFFF783FF05F041
:106A7C00BBFAFEE710B5024806F0C6FBFEE7C046BF
:106A8C00E8E8000810B5024806F0BEFBFEE7C04679
:106A9C00F4E800087047704710B501F07BFE10BD9C
:106AAC0010B5082001F03CFC10BD10B58020000191
:106ABC0001F036FC10BD000010B5024801F042FD9B
:106ACC0010BDC046C801002010B5034801F03AFDC6
:106ADC00024801F037FD10BD800200206C0100203F
:106AEC0010B5024801F02EFD10BDC0462402002056
:106AFC0000B583B0114B196C012211431964196C48
:106B0C000A400092009ADA6B802149050A43DA6345
:106B1C00DB6B0B400193019B0520002202214042BC
:106B2C0001F0A0FD022000220221404201F09AFD5A
:106B3C00C020C00001F052FE03B000BD00100240A6
:106B4C0010B588B004001422002103A806F0C7FA7F
:106B5C002268124B9A4201D008B010BD104C626BE7
:106B6C0002231A436263626B13400193019BC0239F
:106B7C001B01039312230493113B059305330793D5
:106B8C0003A9084801F002FBE26B8021C9030A4308
:106B9C00E263E36B0B400293029BDDE7005800407D
:106BAC00001002400004005030B58BB004001422D9
:106BBC00002105A806F093FA2368514A934204D0A9
:106BCC00504A93424DD00BB030BD4F4B1A6C8025C0
:106BDC006D012A431A641A6C2A400192019A596B6E
:106BEC000222114359635B6B13400293029B3823BF
:106BFC0005930692089205A9444801F0C7FA444847
:106C0C00444B036011234360013B83600023C3604A
:106C1C008022026143618361C361056201F0ECFB78
:106C2C00002818D13A4B63659C623B483B4B036090
:106C3C001023436000238360C360802202614361A0
:106C4C008361C361036201F0D7FB002806D1324B8C
:106C5C00A3659C62B7E7FFF705FEE3E7FFF702FECB
:106C6C00F5E7294BD96B8020C0010143D963DA6B5E
:106C7C0002400392039A596B0222114359635B6BD6
:106C8C0013400493049BE0231B0205930692089285
:106C9C0005A91E4801F07AFA2148224B0360132300
:106CAC004360033B83600023C36080220261436125
:106CBC008361C36180235B01036201F09DFB0028AB
:106CCC0018D1174B63659C621748184B036012234D
:106CDC00436000238360C36080220261436183614F
:106CEC00C361036201F088FB002806D10E4BA3653B
:106CFC009C6268E7FFF7B6FDE3E7FFF7B3FDF5E746
:106D0C0000300140003800400010024000040050E8
:106D1C00C8010020080002406C0100203000024035
:106D2C00800200201C00024024020020440002408B
:106D3C0010B594B00400142200210FA806F0CFF96E
:106D4C003422002102A806F0CAF92268174B9A4295
:106D5C0001D014B010BD0123029302A800F0F6FF7D
:106D6C0000281FD1124B196C8020C00101431964FB
:106D7C001A6C02400092009A596B0222114359631B
:106D8C005B6B1A400192019B40230F932E3B109397
:106D9C00113B11930023129313930FA9054801F093
:106DAC00F5F9D6E7FFF75EFDDCE7C0460038014099
:106DBC00001002400004005003689A69920701D544
:106DCC0000229A6203689A69D20703D49A69012156
:106DDC000A439A617047000010B58905890D1204A9
:106DEC0011431943029B194349004908046862681E
:106DFC005B0D8020C0000340024803439A431143BB
:106E0C00616010BDFF63FF03F0B5C64600B504001A
:106E1C000D00170001688B69102216001E401A42E3
:106E2C0000D175E01023CB6100239846002623681F
:106E3C009869820631D4002E2FD16B1CF7D001F04B
:106E4C00B5FCC01BA84201D8002DF0D121684B68BD
:106E5C008022D20113404222A25CD2B28869000483
:106E6C0003D5002B01D1202A0ED123689B699B06E8
:106E7C00DDD401F09BFCC01B1928F6D92023424617
:106E8C001A4390460126D2E74A688023DB0113435C
:106E9C004B6001F08BFC0700E7E7002E01D12022AC
:106EAC00DA610426434633431E00012522689369A8
:106EBC00D90504D501210E43FF31D16101255A05B5
:106ECC0006D50822164322688021C900D16101250C
:106EDC009B051FD502231E43236880229200DA6192
:106EEC0001252000FFF768FF226853680B490B400F
:106EFC005360636C1E43666441232022E2540023DA
:106F0C002232A354023AA354280080BCB846F0BDE8
:106F1C000025CBE7002DF7D0E3E7C04600E800FEE4
:106F2C0070B504000D00160023689B699B071CD4E8
:106F3C00320029002000FFF767FF002817D16B1CD7
:106F4C00F2D001F033FC801BA84201D8002DEBD10C
:106F5C00636C2022134363644123E25400232232E6
:106F6C00A354023AA354012000E0002070BD01207C
:106F7C00FCE7F0B5C64600B507000D0090461E00B4
:106F8C003B689C692C40641B63425C41444516D1B0
:106F9C00731CF5D001F00AFC069BC01AB04201D854
:106FAC00002EEDD17B6C202213437B644123FA54D9
:106FBC0000232232BB54023ABB54012000E00020D3
:106FCC0080BCB846F0BD000070B582B0040015005E
:106FDC001E008023F2B2194800905B042000FFF7DA
:106FEC00FBFE079A06992000FFF79AFF00281ED196
:106FFC00012E0ED12368EDB29D62079B0093069B78
:10700C00002280212000FFF7B4FF002813D102B02A
:10701C0070BD23682A0A9A62079A06992000FFF726
:10702C007FFF002805D12368EDB29D62E5E70120C2
:10703C00EDE70120EBE70120E9E7C04600200080E6
:10704C0070B582B0040015001E00DAB2184B009324
:10705C000023FFF7C1FE079A06992000FFF760FF97
:10706C0000281ED1012E0ED12368EDB29D62079B24
:10707C000093069B002240212000FFF77AFF002896
:10708C0013D102B070BD23682A0A9A62079A069936
:10709C002000FFF745FF002805D12368EDB29D6263
:1070AC00E5E70120EDE70120EBE70120E9E7C04629
:1070BC000020008070B505000C0016002B689B6941
:1070CC009B061AD4320021002800FFF79DFE0028F1
:1070DC0015D101F06BFB801BA04201D8002CEDD127
:1070EC006B6C202213436B644123EA54002322323D
:1070FC00AB54023AAB54012070BD0020FCE70120D8
:10710C00FAE7000010B5041E59D04123C35C002BD4
:10711C0043D041232422E2542268136801218B437B
:10712C0013602268274B61680B40136122689368D7
:10713C0025490B409360E368012B34D022688423EB
:10714C001B02A1680B439360E368022B32D02268C8
:10715C0051681E4B0B4353602268D3681A490B408D
:10716C00D360236962691343A26912022168134335
:10717C00CB602268E369216A0B43136022681368B1
:10718C0001210B4313600023636441221F31A1547E
:10719C0023630132A354002010BD40330022C2549B
:1071AC00FFF7CEFCB5E7226880231B02A1680B43D6
:1071BC009360C9E72368802212015A60C7E7012057
:1071CC00EAE7C046FFFFFFF0FF7FFFFF00800002F1
:1071DC00F0B587B004000391049205930CAB20CB5F
:1071EC001F884123C35C202B00D0B3E0002D18D0A6
:1071FC00002F16D04023C35C012B00D1ADE04023FF
:10720C000122C25401F0D2FA060080210090192309
:10721C00012209022000FFF7ACFE002806D0012055
:10722C0099E080239B006364012094E04123212298
:10723C00E25401331F32E2540023636465626785B4
:10724C00636301960E9B0093059B049A039920009F
:10725C00FFF7BAFE00280FD1638D9BB2FF2B10D91C
:10726C00FF2323857F3B002200925B04FF320399AE
:10727C002000FFF7B1FD21E040230022E254012061
:10728C0069E0628D92B222858023D2B200210091F6
:10729C009B0403992000FFF79FFD0FE0628D92B2D3
:1072AC0022858023D2B2002100919B0403992000F7
:1072BC00FFF792FD638D9BB2002B34D032000E99F8
:1072CC002000FFF72DFE002849D12368626A12784E
:1072DC009A62636A01336362638D013B9BB263857F
:1072EC00238D013B9BB22385628D92B2002AE1D0A3
:1072FC00002BDFD100960E9B002280212000FFF78F
:10730C0038FE00282DD1638D9BB2FF2BC6D9FF23ED
:10731C0023857F3B002200925B04FF3203992000FF
:10732C00FFF75AFDC6E732000E992000FFF7C2FEA8
:10733C00002818D123682022DA6121684B680B4D94
:10734C002B404B604123E25400232232A354023AD7
:10735C00A35400E0022007B0F0BD0220FBE701209F
:10736C00F9E70120F7E70120F5E7C04600E800FE49
:10737C00F0B587B004000391049205930CAB20CBBD
:10738C001F884123C35C202B00D0B5E0002D18D002
:10739C00002F16D04023C35C012B00D1AFE040235B
:1073AC000122C25401F002FA060080210090192338
:1073BC00012209022000FFF7DCFD002806D0012085
:1073CC009BE080239B006364012096E041232222F2
:1073DC00E25401331E32E254002363646562678514
:1073EC00636301960E9B0093059B049A03992000FE
:1073FC00FFF726FE00280FD1638D9BB2FF2B10D90F
:10740C00FF2323857F3B424A00925B04FF220399B2
:10741C002000FFF7E1FC21E040230022E254012090
:10742C006BE0628D92B222858023D2B238490091F2
:10743C009B0403992000FFF7CFFC0FE0628D92B202
:10744C0022858023D2B2002100919B040399200055
:10745C00FFF7C2FC638D9BB2002B36D000960E9BBF
:10746C00002204212000FFF784FD002849D1236865
:10747C005B6A626A1370636A01336362238D013B3A
:10748C009BB22385628D013A92B26285628D92B273
:10749C00002ADFD0002BDDD100960E9B002280212C
:1074AC002000FFF766FD00282DD1638D9BB2FF2BCA
:1074BC00C4D9FF2323857F3B002200925B04FF325B
:1074CC0003992000FFF788FCC4E732000E992000D6
:1074DC00FFF7F0FD002818D123682022DA6121681B
:1074EC004B680C4D2B404B604123E254002322325D
:1074FC00A354023AA35400E0022007B0F0BD0220CE
:10750C00FBE70120F9E70120F7E70120F5E7C0468A
:10751C000024008000E800FEF0B54123C35C202B62
:10752C0020D12033C35C012B1ED0402401220255F4
:10753C00412524234355066833689343336006681A
:10754C0033680A4F3B403360066833681943316037
:10755C0001680B6813430B6020234355002303552C
:10756C000020F0BD0220FCE70220FAE7FFEFFFFF4E
:10757C00F0B54123C35C202B1ED12033C35C012BFF
:10758C001CD0402401220255412524234355066872
:10759C0033689343336006683368094F3B400902F4
:1075AC001943316001680B6813430B60202343556A
:1075BC00002303550020F0BD0220FCE70220FAE76F
:1075CC00FFF0FFFF70B582B0041E00D131E20368FA
:1075DC00DB0739D5C14A916838230B40D1680322A7
:1075EC000A40102B26D0082B26D06368802252022A
:1075FC0093427FD0A022D202934200D181E0B74BBC
:10760C001A68B7490A401A601A68B6490A401A60E3
:10761C006368002B00D180E001F0C8F80500AF4B87
:10762C001B689B0310D401F0C1F8401B6428F6D9E9
:10763C000320FFE1032AD6D1A84B1B689B0303D57B
:10764C006368002B00D1F7E123689B0731D5A34A6F
:10765C00936838210B40D16803220A40102B6AD062
:10766C00002B6BD19D4A1268520503D5E268002AA3
:10767C0000D1E3E1994842689B490A4061690902DB
:10768C000A434260002B0DD1036898490B402169D5
:10769C000B4303600368DB0A07221A40944BD34068
:1076AC00944A1360944B186801F034F8002800D009
:1076BC00C6E123681B0700D481E0884B9A68382305
:1076CC001340182B73D0A369002B00D1B4E0834A6C
:1076DC00136E01210B43136601F068F805007F4B14
:1076EC001B6E9B076BD401F061F8401B0228F6D986
:1076FC0003209FE1794A116880235B020B431360DE
:10770C0086E7764B19688022D2020A431A60196800
:10771C00802252020A431A607AE701F047F805000A
:10772C006E4B1B689B038FD501F040F8401B6428FF
:10773C00F6D903207EE1022A92D193E7E368002B6D
:10774C0022D0664A136869490B4021690B431360C8
:10775C00116880235B000B43136001F027F80500D0
:10776C005E4B1B685B0506D401F020F8401B022819
:10777C00F6D903205EE159494B685B4A13406269B4
:10778C00120213434B6094E7544A13685B490B4055
:10779C00136001F00BF80500504B1B685B0588D596
:1077AC0001F004F8401B0228F6D9032042E14B4BB0
:1077BC001B6E9B0703D5A369002B00D142E1236804
:1077CC005B0700D4A2E0454B9A6838231340202B6A
:1077DC0045D0424BDB6BDB004AD4404AD16B802056
:1077EC0040050143D163D36B03400193019B0125F9
:1077FC00434B1B68DB053DD5A368012B4ED0052BF5
:10780C0052D0364BDA6D01218A43DA65DA6D0331D9
:10781C008A43DA65A368002B50D000F0C7FF06003E
:10782C002E4BDB6D9B076FD400F0C0FF801B354BDC
:10783C009842F5D90320FDE0284A136E01218B43B1
:10784C00136600F0B3FF0500244B1B6E9B07B6D5E7
:10785C0000F0ACFF401B0228F6D90320EAE01F4BD6
:10786C00DB6D9B0752D5A368002B4FD10120E1E0C3
:10787C000025BDE7224A116880235B000B4313608F
:10788C0000F094FF06001E4B1B68DB05B4D400F01F
:10789C008DFF801B0228F6D90320CBE00F4AD36D55
:1078AC0001210B43D365B5E70C4BDA6D04210A4378
:1078BC00DA65DA6D03390A43DA65ABE700F076FF77
:1078CC000600064BDB6D9B071ED500F06FFF801B7F
:1078DC000C4B9842F5D90320ACE0C0460010024096
:1078EC00FFFFFEFFFFFFFBFFFF80FFFFFFC7FFFF58
:1078FC000024F4000800002004000020FFFEFFFF1D
:10790C000070004088130000012D1ED0E369002B8D
:10791C0000D199E0544A916838220A40102A60D06C
:10792C00022B18D0504A136850490B40136000F0DA
:10793C003DFF04004C4B1B689B014BD500F036FF00
:10794C00001B0228F6D9032074E0474AD36B484940
:10795C000B40D363DAE7444A136844490B40136085
:10796C0000F024FF0500404B1B689B0106D500F07E
:10797C001DFF401B0228F6D903205BE03A4AD3686E
:10798C003C491940236A606A0343A06A000203431E
:10799C00E06A0343206B0343606B03430B43D360E8
:1079AC00116880235B040B431360D16880235B0553
:1079BC000B43D36000F0FAFE04002B4B1B689B01B9
:1079CC0006D400F0F3FE001B0228F6D9032031E0A8
:1079DC0000202FE0244AD36827490B40D3600020B5
:1079EC0028E0012B32D0204BDA6803231340216AA4
:1079FC008B422DD170231340616A8B422AD1FE2118
:107A0C00C9011140A36A1B02994225D1F8239B039B
:107A1C001340E16A8B4221D1E0231B051340216BFB
:107A2C008B421DD1520F5207636B9A421AD1002020
:107A3C0000E0012002B070BD0120FBE70120F9E756
:107A4C000120F7E70120F5E70020F3E70120F1E73B
:107A5C000120EFE70120EDE70120EBE70120E9E74A
:107A6C000120E7E70120E5E700100240FFFFFFFEE1
:107A7C00FFFFFFEF8C80C111FCFFFEEE70B586B0EE
:107A8C000C0015000223029301330493002303938B
:107A9C00002801D006B070BD0C4E726B01331A4336
:107AAC007263726B13400093009B80235B00019305
:107ABC0000230593A03001A9C00500F067FBB26854
:107ACC0003490A402C431443B460E3E7001002401E
:107ADC00FFFFFF8810B52A4B9B6838221A4207D14A
:107AEC00274B1A68D20A072313402648D84010BDEA
:107AFC00234B9A6838231340082B3BD0204B9A68B1
:107B0C0038231340102B0DD01D4B9A68382313408B
:107B1C00202B31D01A4B9A6838231340182B26D0BF
:107B2C000020E4E7164AD1680D3B0B40D2681209DD
:107B3C00072111400131032B0FD01248FEF7EEFA4A
:107B4C000F4BDA68120A7F23134058430C4BD96849
:107B5C00490F0131FEF7E2FAC9E70B48FEF7DEFAEE
:107B6C00074BDA68120A7F2313405843EEE7FA20DA
:107B7C00C001BCE70448BAE780200002B7E7C04662
:107B8C00001002400024F40000127A0070B50400CA
:107B9C000D00002800D1AAE0574B1A6807231340A8
:107BAC008B4221D323689A070ED55B0705D5534A20
:107BBC009168E023DB010B439360504A9368504972
:107BCC000B40A1680B4393602368DB0754D56368B3
:107BDC00012B20D0022B3BD0002B3FD1474A1268FF
:107BEC0052051CD401206AE0434A136807218B43D9
:107BFC002B43136000F0DAFD06003F4B1A68072395
:107C0C001340AB42CED000F0D1FD801B3D4A9042D8
:107C1C00F3D9032053E0394A1268920369D53749E6
:107C2C008A680720824313438B6000F0BFFD060077
:107C3C00324B9B6838221A406368DB009A421BD097
:107C4C0000F0B4FD801B2F4B9842F1D9032036E095
:107C5C002A4A12689201E2D4012030E0032B05D0AD
:107C6C00264AD26D9207DAD4012028E0234A126EFC
:107C7C009207D4D4012022E01F4B1A68072313402B
:107C8C00AB421DD823685B0706D51C4A93681E4976
:107C9C000B40E1680B439360FFF71CFF174B9A688E
:107CAC00120A0F2313409B00184A9A581F231340A3
:107CBC00D840174B1860174B186800F02BFD70BD9F
:107CCC000D4A136807218B432B43136000F06EFDA4
:107CDC000600094B1A6807231340AB42D2D000F0C0
:107CEC0065FD801B074B9842F3D90320E7E7012081
:107CFC00E5E70120E3E7C046002002400010024007
:107D0C00FFF0FFFF88130000FF8FFFFF30E9000832
:107D1C000800002004000020014B18687047C04682
:107D2C000800002010B5FFF7F7FF064B9A68120BFE
:107D3C00072313409B00044A9A581F231340D84032
:107D4C0010BDC0460010024070E90008F0B583B0C9
:107D5C00040003689B0362D5814BDB6BDB001ED4F4
:107D6C007F4AD16B802040050143D163D36B034024
:107D7C000193019B01267B4A116880235B000B4316
:107D8C00136000F013FD0500764B1B68DB0508D46F
:107D9C0000F00CFD401B0228F6D9032502E000265A
:107DAC00E9E70025002D23D16D4BD96DC02292003F
:107DBC000B001340114210D0226B9A420DD0684A2E
:107DCC00D36D69490B40D06D802149020143D165C7
:107DDC00D16D66480140D165D365DB0710D4002D09
:107DEC0006D15F4AD36D60490B40216B0B43D365C1
:107DFC00012E15D15A4AD36B5D490B40D3630FE06A
:107E0C0000F0D4FC0700564BDB6D9B07E7D400F069
:107E1C00CDFCC01B574B9842F5D90325DFE7002555
:107E2C002368DB0706D54E4A536D03218B436168EB
:107E3C000B43536523689B0706D5494A536D0C21A8
:107E4C008B43A1680B4353652368DB0606D5444A74
:107E5C00536D49490B40E1680B43536523689B05FF
:107E6C0006D53F4A536D45490B40A1690B435365F9
:107E7C0023685B0506D53A4A536D41490B40E169CD
:107E8C000B43536523689B0606D5354A536D3D4914
:107E9C000B4021690B43536523685B040BD5304AB7
:107EAC00536D9B009B08216A0B4353658023DB05B4
:107EBC00226A9A4239D023681B0306D5284A536D8F
:107ECC0040218B43616A0B43536523689B020BD59E
:107EDC00234A536D2C490B40A16A0B4353658023F5
:107EEC00DB03A26A9A4227D023685B020BD51C4A9B
:107EFC00536D26490B40E16A0B43536580235B04A9
:107F0C00E26A9A421FD023681B050BD5144A536DA5
:107F1C001F490B4061690B43536562698023DB0188
:107F2C009A4215D0280003B0F0BD0D4AD1688023C9
:107F3C005B020B43D360BEE7094AD16880235B0424
:107F4C000B43D360D0E7064AD1680B43D360DAE722
:107F5C00034AD16880235B020B43D360E2E7C0463F
:107F6C000010024000700040FFFCFFFFFFFFFEFF0F
:107F7C00FFFFFFEF88130000FFF3FFFFFFFFF3FF8E
:107F8C00FFFFCFFFFFCFFFFFFFFFBFFFFFFFFFFE96
:107F9C00FF3FFFFF30B5054C616901252943616145
:107FAC000260BFF36F8F436030BDC04600200240BB
:107FBC00084B5B69002B01DB00207047054B064A20
:107FCC009A60064A9A605B69002B01DB0020F4E79B
:107FDC000120F2E70020024023016745AB89EFCD79
:107FEC00064B5969802212060A435A615B69002BC1
:107FFC0001DB012070470020FCE7C0460020024056
:10800C0070B5050000F0D2FB4419134B1B69DB0360
:10801C0005D500F0CBFBA042F7D3032070BD0E4971
:10802C000A690E4B14001C400D4808611A4203D01B
:10803C000C4B5C600120F1E700F0B8FB4519064BD6
:10804C001B695B0305D500F0B1FBA842F7D30320F5
:10805C00E4E70020E2E7C04600200240FAC300003B
:10806C00FBC300008C040020F8B507000C001500C1
:10807C001E00144B1B78012B22D0124B01221A70BC
:10808C0000225A60FA208000FFF7BAFF00280DD1B9
:10809C00012F0FD02900200006F002FCFA208000EE
:1080AC00FFF7AEFF084A5369BB435361054B0022EF
:1080BC001A70F8BD2A0033002000FFF76BFFEDE7C4
:1080CC000220F6E78C04002000200240034A53698A
:1080DC000343802040021843506170470020024047
:1080EC00044A536904480340C9001943034B19431C
:1080FC00516170470020024007E0FFFF02000100C1
:10810C0070B504000E001F4B1B78012B37D01D4B94
:10811C0001221A7000225A60FA208000FFF770FFCB
:10812C00002828D1042363602368042B15D0012375
:10813C005B423360A568A368E26894466344AB4233
:10814C0014D929006068FFF7CBFFFA208000FFF7F5
:10815C0057FF002809D10135EDE70430FFF7B6FFD2
:10816C00FA208000FFF74CFF05E03560064A5369A2
:10817C0002218B435361034B00221A7070BD022005
:10818C00FCE7C0468C04002000200240F0B5002320
:10819C005AE084685F000326BE40B4432600CC68D6
:1081AC00BC4034438460446894434A6816090122F5
:1081BC0032409A402243426056E0DC080834A40066
:1081CC00265805321A4092000F279740BE430F697C
:1081DC0097403A00324322505AE0032600E0002632
:1081EC00A64034003C43434E1832920094513468FC
:1081FC00EA432600AE434F68FF0201D52C4326000C
:10820C003C4C26606468260016404F68BF0201D5BE
:10821C002C432600374C66608426A4592600164051
:10822C004F68BF0301D52C432600324C8427E651FE
:10823C008026A45922404E68F60301D52A00224319
:10824C002C4D80242A5101330C682200DA404FD087
:10825C0001229A40250015401442F4D003244E68A4
:10826C003440013C012C94D903224C682240032A4F
:10827C0009D0C2685E000324B440A24314008A688B
:10828C00B2402243C26003224C682240022A94D09E
:10829C0004685E0003221700B740BC434F683A40A5
:1082AC00B24022430260C02292024C681442CAD0EF
:1082BC009A0814001834A4000E4EA75903241C402D
:1082CC00E4000F26A640B743A026F605B04286D0A0
:1082DC00094EB04208D0094EB04207D0084EB04209
:1082EC0000D17AE705267BE7012679E7022677E7B6
:1082FC00F0BDC046001802400004005000080050B9
:10830C00000C005003690B4201D001207047002083
:10831C00FCE7002A01D0816170478162FCE770475D
:10832C0010B50400094BDB68184204D1074B1B69DC
:10833C00234205D110BD054BD860FFF7F0FFF5E7E0
:10834C00024B1C61200003F09FFEF3E70018024073
:10835C00F0B5846CC56C6560046D002C02D0446D66
:10836C00856D65600B4F7C681C26056C2E400125C5
:10837C00B5402C437C60046863608368102B04D088
:10838C00036899600368DA60F0BD03689A6003685B
:10839C00D960F9E70000024010B50400036C9B089B
:1083AC00094A944663449B004364FF2023681840A9
:1083BC0008381421FDF7B2FE044BA3641F231840A8
:1083CC001E3B8340E36410BD008200108008024015
:1083DC003F2342681340064A9A1892000265054AE8
:1083EC004265013B03221A40012393408365704789
:1083FC003F8200104009024070B5041E4DD0056844
:10840C00274BE8181421FDF789FE800020642523F2
:10841C000222E2542B68234A13402B6021680A681D
:10842C00A368E06803432069034360690343A069C0
:10843C000343E0690343206A034313430B602000AA
:10844C00FFF7AAFF8023DB01A2689A4218D0626C66
:10845C003F2361680B401360A36CE26C5A60636845
:10846C00013B032B0FD9002323656365A365002310
:10847C00E36325220121A154013AA354002070BDCD
:10848C0000236360E3E72000FFF7A2FF236D0022C7
:10849C001A60636DA26D5A60E9E70120EFE7C046F0
:1084AC00F8FFFDBF0F80FFFF70B504002420205C97
:1084BC00012845D02420012525540130205C0128B9
:1084CC0006D08023E3635C3B0022E254012070BDA4
:1084DC002430013525540020E063256828680126E6
:1084EC00B04328602000FFF733FF236B002B1CD018
:1084FC00226813680E210B431360636C1A68D20355
:10850C0004D51968802252000A431A60236D002B8F
:10851C0004D01968802252000A431A60226813683A
:10852C0001210B4313600020D1E72268136804215A
:10853C008B4313602268136806310B431360DCE72E
:10854C000220C4E770B5314B1968046825681C23F8
:10855C00026C134004229A40114216D06A0714D5BB
:10856C0023689B0603D42368042293432360274C7F
:10857C0063681C21026C114004228A40134363601F
:10858C00036B002B00D0984770BD02229A40114219
:10859C001CD0AA071AD523689B0606D423680A2286
:1085AC00934323602523093AC254184C63681C2159
:1085BC00026C114002228A40134363602423002280
:1085CC00C254C36A002BDFD09847DDE708229A40DB
:1085DC001142D9D02B07D7D523680E2293432360A1
:1085EC000A4C62681C21036C194001231D008D404C
:1085FC002A436260C3632522835423330022C2546E
:10860C00436B002BC0D09847BEE7C0460000024029
:10861C0010B5104A136810490B40034313608023B4
:10862C009B00984201D0002010BD0C4B1B685800D9
:10863C00C01840000A49FDF771FD0130054B5B691C
:10864C005B0503D5002803D00138F7E70020EBE7E2
:10865C000320E9E700700040FFF9FFFF080000204D
:10866C0040420F0070B5002811DB8308134EC03355
:10867C009B009D5903242040C000FF22140084401D
:10868C00A54389010A4082402A439A5170BD0F23A9
:10869C000340083B9B0806339B00094A94466344FD
:1086AC005C6803221040C000FC3215008540AC43CE
:1086BC0089010A40824022435A60E7E700E100E06A
:1086CC0000ED00E0002805DB1F2318401E3B834013
:1086DC00014A13607047C04600E100E00138802376
:1086EC005B0498420FD2094A50600948036A1B0286
:1086FC001B0AC02109060B43036200239360073356
:10870C001360002070470120FCE7C04610E000E039
:10871C0000ED00E010B50400114B1978002901D1CF
:10872C00012010BDFA208000FDF7F8FC01000D4B74
:10873C001868FDF7F3FCFFF7D1FF00280DD1032CCF
:10874C0001D90120EDE70130002221004042FFF762
:10875C0089FF054B1C600020E3E70120E1E7C046E0
:10876C0000000020080000200400002010B5084A7A
:10877C00116880235B000B4313600220FFF7CAFFD4
:10878C00041E02D00124200010BDFEF7B1F9FAE757
:10879C0000200240034B1B78034A11685B181360DE
:1087AC007047C04600000020A8040020014B186848
:1087BC007047C046A804002070B50400FFF7F6FF10
:1087CC000500631C02D0044B1B78E418FFF7EEFF86
:1087DC00401BA042FAD370BD00000020034A13686E
:1087EC0003490B40034313607047C046000001402F
:1087FC00FFF9FFFFF0B5D6464F464646C0B582B0EE
:10880C0006000D0090461F00FFF7D0FF0A9B181AB8
:10881C008146B944FFF7CAFF82462E4B1B685B01A9
:10882C001B0D4A465343019333689C682C40641BD0
:10883C0063425C41444545D07B1CF5D0FFF7B6FF45
:10884C005346C01A48450BD24B46002B08D0019A10
:10885C00002A00D04A46019B013B01939146E3E775
:10886C0032685368E0218B43536082235B0072684B
:10887C009A420CD080239B01B26A9A4216D05D2397
:10888C000122F254013B0022F25403201BE0B36896
:10889C0080221202934203D08022D2009342E9D16B
:1088AC003268136840218B431360E3E73268136826
:1088BC0009490B4013603268116880239B010B43FC
:1088CC001360DCE7002002B0E0BCBA46B146A84613
:1088DC00F0BDC04608000020FFDFFFFFF0B5DE460C
:1088EC0057464E464546E0B583B007000D001600CE
:1088FC0098466B460022DA70FFF758FF0C9B181A4B
:10890C0040448146FFF752FF82463B689B46364BFC
:10891C001A6893009A18D3009B1A1B0D4A465343AE
:10892C00019302E04346013311D13B689C682C4013
:10893C00B44250D0C023DB009D42F3D1002EF1D1C4
:10894C005B461B7BDBB26A46D370D378EAE7FFF752
:10895C002DFF5346C01A48450BD24B46002B08D06E
:10896C00019A002A00D04A46019B013B0193914693
:10897C00DBE73A685368E0218B43536082235B004A
:10898C007A689A420CD080239B01BA6A9A4216D01C
:10899C005D230122FA54013B0022FA5403201BE010
:1089AC00BB6880221202934203D08022D2009342F1
:1089BC00E9D13A68136840218B431360E3E73A68C6
:1089CC0013680A490B4013603A68116880239B01B5
:1089DC000B431360DCE7002003B0F0BCBB46B2468F
:1089EC00A946A046F0BDC04608000020FFDFFFFFEF
:1089FC0070B582B004000D001600C02100922B004F
:108A0C0000224901FFF76AFF002818D100962B00BD
:108A1C00002280212000FFF7EDFE002816D1C02196
:108A2C0000962B000022C9002000FFF757FF0028FA
:108A3C000AD0236E202213432366032004E0236E06
:108A4C00202213432366032002B070BD236E202224
:108A5C00134323660320F7E770B582B004000D00C2
:108A6C00160082235B0042689A420FD000962B00BE
:108A7C00002280212000FFF7BDFE002815D18223A3
:108A8C005B0062689A4216D002B070BD8368802287
:108A9C001202934203D08022D2009342E6D1226884
:108AAC00136840218B431360E0E7236E20221343AD
:108ABC0023660320E8E7A36880221202934203D0C6
:108ACC008022D2009342DFD1C02100962B000022DD
:108ADC00C9002000FFF702FF0028D5D0236E20220A
:108AEC00134323660320CFE770B5041E00D178E052
:108AFC00436A002B07D10533FF3342689A4205D0F5
:108B0C000023C36102E00023036143610023A362DD
:108B1C005D33E35C002B5AD05D230222E2542268C1
:108B2C00136840218B431360E368E022D200934228
:108B3C0054D90022F02109018B4205D0E021C90053
:108B4C008B4201D00023A36282235B0061680B403F
:108B5C0084210902A06801400B43022120690140D5
:108B6C000B43012160690840034380208000A56904
:108B7C00284003433820E569284003438020256AB8
:108B8C002840034380208001A56A284003432068C5
:108B9C000360608B042303401020656A2840034364
:108BAC000820656B28400343F0200001E56828404D
:108BBC0003432068134343602268D3690A48034087
:108BCC00D361002323665D33E154002070BD5C3318
:108BDC000022E2542000FDF7E7FF9DE780225201BE
:108BEC00A8E70120F2E7C046FFF7FFFFF0B5CE463D
:108BFC0000B584B00400019191461D005C23C35C58
:108C0C00012B00D1C9E05C230122C254FFF7CEFD39
:108C1C0006005D23E35CDFB2012B00D0A9E00199D3
:108C2C00002900D1A6E04B46002B00D1A2E05D2329
:108C3C000322E25400232366A1634A46A287E287FB
:108C4C0023644422A3520232A3522365E36480239B
:108C5C001B02A2689A421ED023681A68520603D4DB
:108C6C001A6840210A431A60E023DB00E2689A424A
:108C7C0039D96368002B02D04B46012B20D12368D5
:108C8C00A26B1288DA60A36B0233A363E38F013B00
:108C9C009BB2E38714E02268136840218B43136076
:108CAC00226811688023DB010B431360D4E7FFF7C4
:108CBC007DFD801BA84201D36B1C66D1002D66D0B4
:108CCC00E18F89B200293CD023689A689207EED5CF
:108CDC00A26B1288DA60A36B0233A363E38F013BB0
:108CEC009BB2E387ECE76368002B02D04B46012B69
:108CFC0014D1A36B1B7822681373A36B0133A3638A
:108D0C00E38F013B9BB2E38708E0FFF74FFD801B2D
:108D1C00A84201D36B1C3CD1002D3CD0E18F89B211
:108D2C0000290ED023689A689207EED5A26B1278B0
:108D3C001A73A36B0133A363E38F013B9BB2E387ED
:108D4C00ECE7320029002000FFF752FE002801D08A
:108D5C0020232366A368002B06D103932368DA68CB
:108D6C0003929B680393039B236E002B02D1002775
:108D7C0000E002275D230122E254013B0022E25471
:108D8C00380004B080BCB946F0BD0327F2E70327D6
:108D9C00F0E70327EEE70327ECE70227F0E70000F4
:108DAC00F0B583B00400009101921E00089D5C2375
:108DBC00C35C012B00D116E15C230122C254FFF7E6
:108DCC00F5FC07005D23E35CD9B26268012B0BD084
:108DDC0082235B009A4200D0ECE0A368002B00D009
:108DEC00F1E0042900D0F0E0009B002B00D1EEE074
:108DFC00019B002B00D1ECE0002E00D1EBE05D23B9
:108E0C00E35C042B02D05D230522E254002323668D
:108E1C00019A22644622A652023AA652009AA263F2
:108E2C00E687A687E3642365E023DB00E2689A42C9
:108E3C0023D9226853686D490B40536023681A6824
:108E4C00520603D41A6840210A431A60E023DB005F
:108E5C00E2689A4254D96368002B01D0012E0AD1E2
:108E6C002368A26B1288DA60A36B0233A363E38FCF
:108E7C00013B9BB2E38701262EE0226851688023D8
:108E8C005B010B435360D9E7A26B1288DA60A36BCA
:108E9C000233A363E38F013B9BB2E3870026236875
:108EAC009A68D20710D54622A25A92B2002A0BD049
:108EBC00DB68226C1380236C023323644622A35A92
:108ECC00013B9BB2A3520126FFF770FCC01BA842CA
:108EDC0002D36B1C00D080E0E38F9BB2002B04D13B
:108EEC004633E35A9BB2002B59D023689A689207F9
:108EFC00D5D5E28F92B2002AD1D0012ECFD1C3E7C3
:108F0C006368002B01D0012E0AD1A36B1B78226859
:108F1C001373A36B0133A363E38F013B9BB2E38712
:108F2C0001261DE023689A68D20710D54622A25A62
:108F3C0092B2002A0BD01B7B226C1370236C013372
:108F4C0023644622A35A013B9BB2A3520126FFF78E
:108F5C002DFCC01BA84201D36B1C40D1002D40D06E
:108F6C00E38F9BB2002B04D14633E35A9BB2002B08
:108F7C0015D023689A689207D4D5E28F92B2002A52
:108F8C00D0D0012ECED1A26B12781A73A36B013301
:108F9C00A363E38F013B9BB2E3870026C2E73A0051
:108FAC0029002000FFF724FD002804D0202323668D
:108FBC00012000E002205D230122E254013B00224B
:108FCC00E25403B0F0BD0220F5E70220F3E70120E4
:108FDC00F1E70120EFE70120EDE70320EBE70320A9
:108FEC00E9E70320E7E70220EBE7C046FFEFFFFFCE
:108FFC00F0B5C64600B584B00400039190461D0040
:10900C0082235B0042689A4245D05C23E35C012BCF
:10901C0000D1BDE05C230122E254FFF7C7FB07003F
:10902C005D23E35CDEB2012B00D09DE003990029A7
:10903C0000D19AE04346002B00D196E05D23042238
:10904C00E25400232366216440324146A15202328D
:10905C00A152A363A387E387E3642365E023DB00CA
:10906C00E2689A4224D9226853684A490B405360FB
:10907C0080231B02A2689A4221D023681A685206E8
:10908C0003D41A6840210A431A60E023DB00E2682B
:10909C009A4228D945E08368002BB6D15D3304226F
:1090AC00C254009543460A00FFF77AFE060062E0C0
:1090BC002268516880235B010B435360D8E7226818
:1090CC00136840218B4313602268136832490B40AC
:1090DC001360D2E7FFF76AFBC01BA84201D36B1CDD
:1090EC004ED1002D4ED04623E15A89B200292DD005
:1090FC0023689A68D207EDD51B7B226C1370236C06
:10910C00013323644622A35A013B9BB2A352EAE7E4
:10911C00FFF74CFBC01BA84201D36B1C34D1002DB4
:10912C0034D04623E15A89B200290FD023689A68BB
:10913C00D207EDD5DB68226C1380236C02332364D9
:10914C004622A35A013B9BB2A352EAE73A002900FC
:10915C002000FFF781FC002801D020232366236E1A
:10916C00002B02D1002600E002265D230122E254EE
:10917C00013B0022E254300004B080BCB846F0BD84
:10918C000326F2E70326F0E70326EEE70326ECE7D7
:10919C000226F0E7FFEFFFFFFFBFFFFF70B50400F3
:1091AC005C23C35C012B00D189E05C230120E054DB
:1091BC000133E35CDDB2012B7BD100297AD0002A8C
:1091CC0078D05C330230E05400232366A163A2877D
:1091DC00E28723642365E3644422A3520232A35240
:1091EC0080231B02A2689A4239D0636D354A1A63F8
:1091FC00636D354ADA62636D344A5A63636D0022DB
:10920C009A632268536832490B405360E023DB00B9
:10921C00E2689A4205D8636D9A698023DB009A4212
:10922C0029D022680C32E38F9BB2A16B606DFFF7E3
:10923C003BF9002835D123681A68520603D41A6802
:10924C0040210A431A602268536820210B43536063
:10925C00226853681E390B43536005002AE02268CC
:10926C00136840218B431360226811688023DB0153
:10927C000B431360B9E7E38FDB0707D4226853680D
:10928C000B405360E38F5B08E387CAE722685168A1
:10929C008023DB010B435360E38F5B080133E387CF
:1092AC00BFE7236E1022134323665D230F3AE2546B
:1092BC0000E002255C230022E254280070BD022548
:1092CC00FBE7C04693960008D7960008B5960008B1
:1092DC00FFBFFFFF70B504005C20205C012800D1AB
:1092EC00F5E05C20012525540130205CC6B2656890
:1092FC0001280BD082204000854200D0D8E0A06825
:10930C00002800D0D9E0042E00D0D8E0002900D1EC
:10931C00D7E0002A00D1D6E0002B00D1D5E05D20AB
:10932C00205C042802D05D200525255400202066F1
:10933C00A163A387E38722644422A3520232A3527F
:10934C00E06420652268536862490B405360E02357
:10935C00DB00E2689A4228D9226853685E490B40C8
:10936C0053605D23E35C042B67D0A36D5B4A1A63E7
:10937C00A36D5B4ADA62A36D5A4A5A63A36D00224D
:10938C009A6321680C314623E35A9BB2226CA06D80
:10939C00FFF78AF8002857D0236E10221343236658
:1093AC005D230F3AE254012083E022685168802348
:1093BC005B010B435360636D9A698023DB009A4217
:1093CC0018D0A36D9A698023DB009A42C9D1226818
:1093DC00536841490B4053604623E35ADB0720D4C2
:1093EC002268536840490B4053604622A35A5B08DD
:1093FC00A352B6E7A38FDB0708D4226853683B4916
:10940C000B405360E38F5B08E387DAE7226851680F
:10941C008023DB010B435360E38F5B080133E3874D
:10942C00CFE72268516880239B010B43536046228F
:10943C00A35A5B080133A35293E7A36D2C4A1A631A
:10944C00A36D2C4ADA6296E72268536801210B431C
:10945C005360626D00231363626DD362626D53635C
:10946C00626D936322680C32E38F9BB2A16B606DCB
:10947C00FFF71AF8002812D123681A68520603D491
:10948C001A6840210A431A602268536820210B4352
:10949C005360226853681E390B43536009E0236EF6
:1094AC001022134323665D230F3AE254012000E09F
:1094BC0002205C230022E25470BD0220F9E7022056
:1094CC00F7E70120F5E70120F3E70120F1E702209F
:1094DC00F2E7C046FF9FFFFFFFEFFFFFAB960008D0
:1094EC00C1970008B5960008FFDFFFFFFFBFFFFF25
:1094FC009F9600084B97000870B504008368002BFA
:10950C0004D182204000656885425ED05C20205CDE
:10951C00012800D1A8E05C20012525540130255CF0
:10952C00EEB2012D00D099E0002900D197E0002A7D
:10953C0000D194E003352554002020662164442199
:10954C00625202316252E0642065A087E08780227B
:10955C001202934244D02268536844490B40536032
:10956C00E023DB00E2689A4245D9226853684049FF
:10957C000B405360A36D3F4A1A63A36D3E4ADA62F7
:10958C00A36D3E4A5A63A36D00229A6321680C3185
:10959C004623E35A9BB2226CA06DFEF785FF002890
:1095AC0054D123681A68520603D41A6840210A431E
:1095BC001A602268536820210B4353602268536859
:1095CC001F390B435360060049E05D330138FF3807
:1095DC00E05413000A002000FFF77CFE060041E077
:1095EC002268136806398B43136022681368244978
:1095FC000B401360AFE72268516880235B010B437B
:10960C005360A36D9A698023DB009A42B2D1226821
:10961C00536817490B4053604623E35ADB0709D4C0
:10962C002268536811490B4053604622A35A5B08C9
:10963C00A3529FE72268516880239B010B43536020
:10964C004622A35A5B080133A35293E7236E1022E0
:10965C00134323665D230F3AE25400E002265C2399
:10966C000022E254300070BD0226FBE7FFDFFFFF53
:10967C00FFEFFFFF9F9600084B970008B596000878
:10968C00FFBFFFFF704710B5806AFFF7FBFF10BDEF
:10969C00704710B5806AFFF7FBFF10BD704710B51F
:1096AC00806AFFF7FBFF10BD10B5806A0268536833
:1096BC0003218B435360036E1022134303665D2317
:1096CC000F3AC25402F030FD10BD30B583B0050026
:1096DC00846AFFF76BF802002B681B689B0625D485
:1096EC0021684B68202083434B6021684B681E38EF
:1096FC0083434B6064212000FFF77AF9002803D0E4
:10970C00236E202213432366A368002B06D10193FA
:10971C002368DA6801929B680193019B0023E3871D
:10972C005D330122E254236E002B04D1200002F0A1
:10973C00E9FC03B030BD200002F0F6FCF9E770B58F
:10974C000500846AFFF732F802002B681B689B0641
:10975C0022D421684B68202083434B60A368002BE4
:10976C0004D10533FF336168994219D021684B68E5
:10977C00012083434B6064212000FFF76DF9002822
:10978C0001D02023236646230022E25217330132F4
:10979C00E254236E002B09D1200002F0A1FC70BD15
:1097AC0021684B681D3883434B60E4E7200002F0CE
:1097BC00BBFCF4E770B50500846AFEF7F7FF020006
:1097CC002B681B689B061DD421684B6820208343A3
:1097DC004B6064212000FFF70BF9002803D0236EA7
:1097EC002022134323662268536803218B43536062
:1097FC000023E3874622A3525D33453AE254236E9D
:10980C00002B03D1200002F059FC70BD200002F0A7
:10981C008BFCFAE7F8B5040001688368026913430E
:10982C0042691343C26913430A68AA4802401343AE
:10983C000B6022685368A8490B40E1680B435360E6
:10984C00A1692268A54B9A4201D0236A19439368F7
:10985C00A34803400B4393602268D36A0F218B43C8
:10986C00616A0B43D36222689E4B9A420ED09E4B88
:10987C009A4248D09D4B9A4200D17BE09C4B9A4235
:10988C007AD0964B9A424FD010230BE0994B596DDE
:10989C0003230B40022B5FD031D8002B5ED0012B61
:1098AC005ED103338D498A4270D0E0698022120266
:1098BC00904200D1B4E0042B00D1FDE000D9E5E0EA
:1098CC00002B00D1F1E0022B00D0DDE08A48636A66
:1098DC005B008A4A995AFCF721FC63685B08C01844
:1098EC006168FCF71BFC0200103A854B9A4200D9C8
:1098FC00EDE023680004000CD8600020CCE0032BC2
:10990C0030D10533CEE77B4B596D0C230B40082B24
:10991C002AD005D8002B29D0042BC3D01023C1E7A3
:10992C000C2B25D1043BBDE7724B5B6DC0210901AB
:10993C000B40802109018B4220D007D8002B1FD06F
:10994C008021C9008B421DD10423ABE7C021090142
:10995C008B4219D10823A5E70223A3E70023A1E733
:10996C0010239FE710239DE702239BE7002399E731
:10997C00102397E7002395E7002393E7022391E751
:10998C0000238FE710238DE710238BE7042B43D0A4
:10999C0034D8002B39D0022B2ED1574D636A5B0083
:1099AC00564A9F5A39002800FCF7B8FB66687300CA
:1099BC009B19834200D982E03303834200D280E0BA
:1099CC003A00002328000021FCF71EFD050E0B02B7
:1099DC002B430202700800218018594132000023E9
:1099EC00FCF712FD474BC218474B9A4200D96AE06C
:1099FC002368D86000204FE001204DE0082B02D1F5
:109A0C0080252D02CAE7012046E0FEF78BF9050000
:109A1C00002DC3D100203FE0FEF75CF80500F7E70E
:109A2C00042B2ED023D8002B25D0022B1DD132484D
:109A3C00636A5B00314A995AFCF770FB400063681B
:109A4C005B08C0186168FCF769FB0200103A2C4BEC
:109A5C009A423AD882B20F239A434008083B1840E6
:109A6C0010432368D860002016E0012014E0082B76
:109A7C00DED0012010E0FEF755F90028D8D10020E7
:109A8C000AE0FEF727F8F8E7012005E0082B02D1E1
:109A9C00802000021BE7012001236A22A352023A14
:109AAC00A35200236367A367F8BDFEF73BF90028B8
:109ABC0000D00CE70020EFE7FEF70CF8F7E70120E9
:109ACC00EAE70120E8E70120E6E70120E4E70120CE
:109ADC00E2E7C046F369FFCFFFCFFFFF00800040F5
:109AEC00FFF4FF11003801400044004000480040E2
:109AFC00004C0040001002400024F40008E900086B
:109B0C00EFFF000000FDFFFFFFFC0F00836ADB0787
:109B1C0006D5026853682C490B40C16A0B4353604D
:109B2C00836A9B0706D50268536828490B40016B72
:109B3C000B435360836A5B0706D50268536824495C
:109B4C000B40416B0B435360836A1B0706D50268BD
:109B5C00536820490B40816B0B435360836ADB06CF
:109B6C0006D5026893681C490B40C16B0B4393608C
:109B7C00836A9B0606D50268936818490B40016CF2
:109B8C000B439360836A5B060BD5026853681449D8
:109B9C000B40416C0B43536080235B03426C9A4235
:109BAC000AD0836A1B0606D5026853680D490B4020
:109BBC00C16C0B4353607047026853680A490B40F1
:109BCC00816C0B435360ECE7FFFFFDFFFFFFFEFFD3
:109BDC00FFFFFBFFFF7FFFFFFFEFFFFFFFDFFFFF3D
:109BEC00FFFFEFFFFFFFF7FFFFFF9FFFF8B5CE462C
:109BFC00474680B506000D0017009946089B98460D
:109C0C003368DC692C40641B63425C41BC4257D115
:109C1C0043460133F4D0FEF7C9FD4B46C01A40450C
:109C2C002ED84346002B2BD033681A685207E7D541
:109C3C00DA691205E4D5802212011A62EFF3108062
:109C4C00012282F3108831680B68204C23400B6092
:109C5C0080F31088EFF3108082F3108831688B68E2
:109C6C0093438B6080F3108820238732B3500432E7
:109C7C00B3500432B35064330022F254032020E07A
:109C8C00EFF31080012282F3108831680B680F4CBF
:109C9C0023400B6080F31088EFF3108082F3108860
:109CAC0031688B6893438B6080F310882023873254
:109CBC00B3500432B35064330022F254032000E05A
:109CCC000020C0BCB946B046F8BDC0465FFEFFFFE1
:109CDC0030B583B0040090230022C250FEF766FD1D
:109CEC00050022681268130710D423681B685B07F1
:109CFC0019D420238822A3500432A3500023E366F6
:109D0C002367083AA354002003B030BD80210C4BCC
:109D1C0000930300002289032000FFF767FF00284F
:109D2C00E3D00320F0E78021054B00932B000022A9
:109D3C00C9032000FFF75AFF0028DAD00320E3E71D
:109D4C00FFFFFF0110B5041E35D08823C358002B2C
:109D5C0027D088232422E2502268136801218B43E8
:109D6C0013602000FFF756FD012819D0A36A002BC1
:109D7C001DD12268536811490B40536022689368C7
:109D8C0022218B439360226893681A390B439360AA
:109D9C002268136807390B4313602000FFF798FF04
:109DAC0010BD84330022C254FCF7C2FFD1E720005F
:109DBC00FFF7ACFEDDE70120F2E7C046FFB7FFFF7F
:109DCC00F8B50400436E002B05D101336A2283528F
:109DDC00023A8352F8BD026895686D0E07231D4048
:109DEC009268520F1340084FF85CC000074EF15CAC
:109DFC00FCF71EFA6A23E052785DC000715DFCF737
:109E0C0017FA6823E052E5E728E9000820E9000882
:109E1C0070B58423C35C012B15D084240126065510
:109E2C00882524234351026813681168B1431160DB
:109E3C00064A13400022426601680B6020234351FE
:109E4C000255002070BD0220FCE7C046FFFFFFDF7B
:109E5C00F8B504000A008423C35C012B1BD08425B5
:109E6C000120605588262423A35123681F68196894
:109E7C008143196020688368DB00D9081143816035
:109E8C002000FFF79DFF23681F602023A3510023B0
:109E9C0063550020F8BD0220FCE70000F8B5040073
:109EAC000B008422825C012A1BD084250120605582
:109EBC0088262422A25122681768116881431160F8
:109ECC002268916808480140194391602000FFF70F
:109EDC0077FF23681F602023A351002363550020C4
:109EEC00F8BD0220FCE7C046FFFFFFF1014B024A20
:109EFC009A60704700ED00E000600008F8B5CE46AF
:109F0C00474680B50600002398460AE043460233D4
:109F1C00DB009F596BE0554801F040F801239C464B
:109F2C00E0444346002BF1DDC0BCB946B046F8BD59
:109F3C00201D290000F0AAFA00281CD1A98A3000A3
:109F4C0000F00FFA002802D0037E002B09D03068F5
:109F5C00EFF3108972B6290001F013F889F3108819
:109F6C0043E00C30EFF3108972B6290001F009F8C8
:109F7C0089F3108839E03068EFF3108972B6290044
:109F8C0000F0FFFF89F310882FE0A98A300000F061
:109F9C00E8F9002802D0037E002B09D03068EFF3DB
:109FAC00108972B6290000F0ECFF89F310881CE0D0
:109FBC000C30EFF3108972B6290000F0E2FF89F340
:109FCC00108812E03068EFF3108972B6290000F0A7
:109FDC00D8FF89F3108808E03068EFF3108972B667
:109FEC00290000F0CEFF89F31088002C38D133689B
:109FFC009B68002B00D18EE738007B689847041EC5
:10A00C0000D18BE73068EFF3108972B600F0AAFF2D
:10A01C00050089F310881722002103F060F84346ED
:10A02C000233DB00F3181B79AB71E2790723E3569B
:10A03C00002B00DB7CE75306CED4201D290000F05A
:10A04C00BDFB0028BED1AB7A1B079ED53068EFF361
:10A05C00108972B6290000F094FF89F31088C4E7C8
:10A06C0021003800BB689847C1E7C04690E900085A
:10A07C00F0B5CE46474680B583B080460E0000232F
:10A08C0001930025994601277F4228E0002D08D135
:10A09C0004234A461A43914603E001234A461A43D5
:10A0AC009146484603B0C0BCB946B046F0BD011D50
:10A0BC00300000F0B3F90700002F28D02068836827
:10A0CC002900984702234A461A439146019A551C87
:10A0DC00337C0F218B43F02BE3D1002AE1DB01AB66
:10A0EC002A003100404600F0D0F8041ECED00068A3
:10A0FC0003689847051ED0D0B37A002BD7D05B06E7
:10A10C00DAD4011D300000F0B7FA0700D4E720685C
:10A11C00C36829009847D9E770B506000C000B7C82
:10A12C00002B07D05A0609D50F229343F02B05D0EC
:10A13C00022508E0FFF79CFF050004E02100300039
:10A14C00FFF796FF050080235B422B436372237A53
:10A15C00DB0701D5280070BD3068EFF3108672B6AE
:10A16C00210000F00EFF86F31088F3E710B58B7D0D
:10A17C00002B03D01723CB56002B05DB0389CB8197
:10A18C004068FFF7C9FF10BD0B7C1A07F6D50822F3
:10A19C0093430B74F2E710B54369002B08D00C30D5
:10A1AC00EFF3108472B600F0DDFE84F3108810BD5E
:10A1BC000020FCE710B500F0DDF810BD30B5002430
:10A1CC00002C02DD0120404230BDA51CED002D58B5
:10A1DC00002D01D00134F3E70234E40021500019C2
:10A1EC00027143710020EFE770B504000D003822B6
:10A1FC00002102F074FF256070BDF8B505000F005A
:10A20C001E1E02D001235B4233600024002C03DDB0
:10A21C00002A27D10020F8BDA31CDB005B59002BC2
:10A22C0005D0A31CDB00EB181B79BB4201D0013419
:10A23C00ECE70234E0002818EDE7A31D9B00595908
:10A24C000B0CBB4201D001340DE0090AC9B200234A
:10A25C0000222800FFF7D1FF0028F4D0002EDAD01E
:10A26C003460D8E70024002CE7DD002E01D0002359
:10A27C003360AB69190AC9B2002300222800FFF72A
:10A28C00BCFFC8E7012040427047F0B583B0060020
:10A29C000C0017001D00097C0F239943F02901D0F5
:10A2AC00A0292BD1A0293DD0637C1B02A17C194392
:10A2BC003A003000FFF7E6FF002D00D028600028A0
:10A2CC0049DB00284BDAB369190AC9B20023002212
:10A2DC003000FFF792FF051E0DD01022A256082366
:10A2EC001A40883B1343A3720379E37243792373B7
:10A2FC002371A37C6371280003B0F0BD617C002343
:10A30C000022FFF77AFF051EF5D020000A3021004D
:10A31C001031032202F0DAFE6B7923732371A37CD4
:10A32C006371E8E7617C01AB01223000FFF765FF48
:10A33C00051EE0D0237CA3720379E3724379237367
:10A34C002371019B002B04DB06339B00F35C6371D0
:10A35C00D1E7A37CFBE7002FB3D00025CBE700258A
:10A36C00C9E7406800E00068002802D003898B42EE
:10A37C00F9D1704770B50400456801892800FFF7D2
:10A38C00F0FF002805D1281D210000F0FAFD002067
:10A39C0070BD01204042FBE770B50B000100173186
:10A3AC00847D027C002A2BD1C2891B4DAA4218D075
:10A3BC00868A194DAE4226D1174DAA4226D0002CC2
:10A3CC0005D0C27D1F251600AE43802E0DD0402235
:10A3DC001A70FC2C1DD8581C220002F077FE601C51
:10A3EC0070BD858A3F2DE7D9E2E752B21F210A40A2
:10A3FC0060210A431A70013CE4B201001831E8E70D
:10A40C0001204042ECE701204042E9E701204042B4
:10A41C00E6E701204042E3E7CDCD000010B50C008B
:10A42C00037B0B70837C4B700331FFF7B5FF002867
:10A43C0001DBA070002010BDF8B506000F00100065
:10A44C0017300023F356002B18DB002595729479F6
:10A45C00D4721574547411791173537993747B1EDF
:10A46C00937533785B060CD4074BD3813378938286
:10A47C00711C7A1E02F02AFE0020F8BD0120404219
:10A48C00FBE701204042F8E7CDCDFFFF10B50A00F5
:10A49C0003780B7143784B7181780330FFF7CCFF55
:10A4AC0010BD0000072831D880001A4B1B589F465E
:10A4BC0000230B70013313700020704700230B70C6
:10A4CC00023313700020F8E701230B700023137084
:10A4DC000020F2E702230B70002313700020ECE73E
:10A4EC0001230B7013700020E7E701230B7001337D
:10A4FC0013700020E1E702230B70013B1370002066
:10A50C00DBE702230B7013700020D6E701204042DA
:10A51C00D3E7C046A4E9000810B51C001C4B9842B8
:10A52C0004D0FF2815D80123137001E00023137009
:10A53C00174B994210D0FF2913D80123237013789D
:10A54C001B0122781343222B1CD89B00114AD35891
:10A55C009F4602231370EBE79842ECD00023237044
:10A56C00EDE702232370EAE7002000E0022010BD93
:10A57C000320FCE70420FAE70520F8E70620F6E7BD
:10A58C000720F4E701204042F1E70120EFE7C04645
:10A59C00CDCD0000C4E90008F0B583B005000C0077
:10A5AC004E1C837A0F229343A02B56D000222B7C77
:10A5BC000F218B43F03B59424B411343190180222D
:10A5CC0052420A43227002221A4204D0EA7A627082
:10A5DC00E61C2A7BA270002B04D06B7C3370AB7C06
:10A5EC00737002362B7C1B0706D523780822134385
:10A5FC002370EB79337001366B46DF1DA98AE8892D
:10A60C0006333A00FFF788FF2378034323703B7827
:10A61C00002B02D0EB89337001366B4607331B7865
:10A62C00022B1CD06B4606331B78002B02D0AB8A56
:10A63C00337001366B4606331B78022B14D0341B57
:10A64C00AA7DA318FD2B14DC29001731300002F071
:10A65C003DFDA87D201803B0F0BD0D3AA7E7EB89AE
:10A66C001B0A33700136DDE7AB8A1B0A33700136E7
:10A67C00E5E701204042EEE710B50C0003790B70C2
:10A68C0043794B700331FFF787FF002801DBA07083
:10A69C00002010BDF0B5CE46474680B583B005000E
:10A6AC008946140001302B783F221F009743802FDE
:10A6BC0000D07EE0373A1A401B09032119408C4622
:10A6CC009E0746D5002A42D0A820A0726878E07276
:10A6DC00E81CA9782173614600294AD0DB0743D5D1
:10A6EC0010235B42002A42D008210B4323740378C9
:10A6FC006374871C4378A374002A02D03B78E371FF
:10A70C0001372B786A46D61D0720184006323100D7
:10A71C00FFF7C8FE3278002A35D1274BE3813B0086
:10A72C006A4606321278002A38D1234AA2821900CE
:10A73C004D1B4B465D1BEAB2A2752000173002F090
:10A74C00C5FC002003B0C0BCB946B046F0BDA0208B
:10A75C00BBE7002A06D08826A672A179E17221797E
:10A76C002173B8E73E00F7E760235B42BAE70021AC
:10A77C00BBE7002A00D088272774A3796374637918
:10A78C00A3740700B8E77B1C3978E181022AC7D192
:10A79C007A7812021143E1810133C1E7591C187810
:10A7AC00A082022AC4D15B781B021843A08201311B
:10A7BC00BEE701204042C5E7CDCDFFFF10B50A0032
:10A7CC0003780B7143784B7181780330FFF762FF8C
:10A7DC0010BD10B58069EFF3108472B600F0C2FBA7
:10A7EC0084F3108810BD10B51C30EFF3108472B6D2
:10A7FC0000F0B8FB84F3108810BD10B58069EFF33E
:10A80C00108472B600F0BDFB84F3108810BD10B537
:10A81C000400C37D002B02D1837D012B03D0A37DCB
:10A82C00022B00D010BD0323A3753B331022E2543E
:10A83C00236E5B68998818680022FDF76AFD236E09
:10A84C0021003E31186802230A00FEF743FDE9E7B8
:10A85C00F0B583B004006B46FF22DA710123C37597
:10A86C00A37D012BFCD8256E6B469F1D99716B68DF
:10A87C00998818680022FDF74CFD012676423300BA
:10A88C00012239002868FEF7B1F93300012269462C
:10A89C0007312868FEF7ACFB6B68998818680122B1
:10A8AC00FDF737FD0023E375A36E99881868FDF753
:10A8BC0029FD002803D06B46D87903B0F0BDEFF327
:10A8CC00108572B62000FFF7A2FF85F31088F2E71F
:10A8DC00F0B585B0040008006B46DA710123E3750E
:10A8EC00A37D012BFCD8256E8021494201430F2703
:10A8FC006F4439706B68998818680022FDF709FD60
:10A90C00012676423300012239002868FEF76EF9E1
:10A91C0033000122694607312868FEF767F96B6836
:10A92C00998818680122FDF7F4FC0023E375A36EE7
:10A93C0099881868FDF7E6FC002801D005B0F0BD39
:10A94C00EFF3108572B62000FFF761FF85F31088D6
:10A95C00F4E70000F0B5C64600B582B006000F0063
:10A96C009046194B1D6848084019FBF7D7FB84B279
:10A97C00013CA4B24346580828184146FBF7CEFBCD
:10A98C0085B2013DADB2E2B20C213000FFF7A0FF61
:10A99C00220A0D213000FFF79BFFEAB20E21300096
:10A9AC00FFF796FF2A0A0F213000FFF791FF31695C
:10A9BC000195009443463A00044800F0EFFA02B0C7
:10A9CC0080BCB846F0BDC0469400002050EA000898
:10A9DC00F0B5C64600B506000D0090461F00069C5B
:10A9EC000369002B29D0280000F0BCFA7063B56114
:10A9FC00654B3360654B7360654BB360654BF360BF
:10AA0C0037667466079BB3663169634800F0C6FA13
:10AA1C00002C0FD0A18800222068FDF77AFC0220C0
:10AA2C00FDF7CAFEA18820680122FDF772FC022006
:10AA3C00FDF7C2FE0027FF250EE0584B0361D2E75D
:10AA4C007B1CDBB20A2F14D81F002C0000E000275F
:10AA5C00002000F03FFB250000213000FFF7F8FE3E
:10AA6C0004000138C0B2FD28F1D8A542E8D0002777
:10AA7C00EEE72A0031694A4800F090FA3575002358
:10AA8C000D22AA425B4173750F2D65D8022130004F
:10AA9C00FFF7DEFE40B20E2202400120024352B20A
:10AAAC0043469B7B012B00D16BE010231A43022100
:10AABC003000FFF70DFF43461A780B213000FFF7EB
:10AACC0007FF43461A7B1A213000FFF701FF43466C
:10AADC005A7B1B213000FFF7FBFE43461A7C0521F5
:10AAEC003000FFF7F5FE43461A8A120A06213000A1
:10AAFC00FFF7EEFE43469A7C07213000FFF7E8FE95
:10AB0C0043465A8A120A08213000FFF7E1FE4346F9
:10AB1C001A7D09213000FFF7DBFE43469A6859681D
:10AB2C003000FFF717FF3F2216213000FFF7D0FE51
:10AB3C00346910213000FFF78BFE02002100194808
:10AB4C0000F02CFADA2211213000FFF7C1FE0123AC
:10AB5C00B37580BCB846F0BD733201213000FFF7ED
:10AB6C00B7FE346900213000FFF772FE02002100AD
:10AB7C000D4800F013FA102235213000FFF7A8FE23
:10AB8C0084E71F3392E7C046DFA70008F3A700084D
:10AB9C0007A80008B9AB000880EA000878EA0008AA
:10ABAC0090EA0008D0EA0008A8EA000870B5040092
:10ABBC00EFF3108572B6436C01334364283000F018
:10ABCC00E0F9A37D012B02D085F3108870BD200025
:10ABDC00FFF71DFEF8E7000070B50400837D032B22
:10ABEC0017D0062B00D128E1082B00D125E1092B29
:10ABFC0000D122E1042B00D13BE1A37D052B00D138
:10AC0C0048E1072B00D183E12169C04800F0C6F967
:10AC1C002EE13C33C55C036E5B6899881868012291
:10AC2C00FDF777FB082213002B402A4203D0A36CBC
:10AC3C000133A3640423EA0605D508221343DBB2CF
:10AC4C00E26C0132E2646A0705D520221343DBB2C1
:10AC5C00226D01322265002B02D0627D002A2DD19B
:10AC6C006A0605D504221343DBB2626D01326265BC
:10AC7C006AB2002A38DB002B02D0627D002A3AD15E
:10AC8C00AB074ED43C23E35C002B00D192E0AA0628
:10AC9C005CD43D22A25C002A72D0002B00D1CAE009
:10ACAC000223A375A36E99881868FDF72BFB002867
:10ACBC0000D0DDE02000FFF7AAFDD9E00622A27546
:10ACCC0038329621A1540132A354236E5B689988C3
:10ACDC0018680022FDF71DFB236E21003E31186819
:10ACEC000222FEF75BFAC3E008221343DBB2A26D2B
:10ACFC000132A265BFE70822A27536329721A15412
:10AD0C000132A354236E5B68998818680022FDF702
:10AD1C0000FB236E21003E3118680222FEF73EFA3A
:10AD2C00A6E00423A375636BDD1C1422DA70236E7A
:10AD3C005B68998818680022FDF7EBFA236E186897
:10AD4C0004232A002900FEF7C5FA91E03C230022D7
:10AD5C00E254343BA37536339732E2540133943AC0
:10AD6C00E254236E5B68998818680022FDF7D1FACB
:10AD7C00236E21003E3118680222FEF70FFA77E0AD
:10AD8C003D230132E254343BA37535339032E25407
:10AD9C0001336932E254236E5B689988186800228B
:10ADAC00FDF7B7FA236E21003E3118680222FEF738
:10ADBC00F5F95DE0A26A002A1ED13D22A25C002AB0
:10ADCC0000D16AE73D230022E254343BA3753533AE
:10ADDC009132E25401334932E254236E5B68998814
:10ADEC0018680022FDF795FA236E21003E31186891
:10ADFC000222FEF7D3F93BE020002830EFF3108657
:10AE0C0072B600F0AFF8050086F31088A063C61C7C
:10AE1C009523C3708E3BA375236E5B689988186865
:10AE2C000022FDF776FA236EAA79043218683100F5
:10AE3C00FEF7B4F91CE0012333E7236E5B689988B5
:10AE4C0018680122FDF765FA0323A3753B33102222
:10AE5C00E254236E5B68998818680022FDF759FA52
:10AE6C00236E21003E31186802230A00FEF732FAE5
:10AE7C0070BD01338375416B8A79002A00D1BCE621
:10AE8C00036E0731FD2A00DDFD2292B21868FEF731
:10AE9C0033FBEDE7236E5B68998818680122FDF798
:10AEAC0038FAA069EFF3108672B600F05BF8050073
:10AEBC0086F31088002824D020001C30616BEFF33F
:10AECC00108672B600F05DF886F310886563236C0B
:10AEDC00013323640623A37538339622E2540133DD
:10AEEC00933AE254236E5B68998818680022FDF748
:10AEFC0010FA236E21003E3118680222FEF74EF93B
:10AF0C00B6E7E36D0133E365E4E7C046E4EA000825
:10AF1C00236E5B68998818680122FDF7FAF9A0691D
:10AF2C00A16BEFF3108572B600F02BF885F3108847
:10AF3C000023A3633C330122E254393BA3753B331A
:10AF4C000F32E254236E5B68998818680022FDF773
:10AF5C00E0F9236E21003E31186802230A00FEF747
:10AF6C00B9F985E703008268002A08D000680168F7
:10AF7C001960013A9A60002A00D15A60704700208B
:10AF8C00FCE783685A1C8260002B05D0436819606B
:10AF9C00416000230B6070470160F9E70FB430B5D6
:10AFAC0083B03D4B1B68002B42D01B78002B3FD04D
:10AFBC003A4B5B681B689B68002B3ED0EFF3108309
:10AFCC0072B6364A526812689268022A3AD9344AE2
:10AFDC001468002C3DD00021116083F3108807AB5E
:10AFEC000193A27DA221891A200017308018069A9D
:10AFFC0002F002FAA37DA122D21A904200DD1000C9
:10B00C001818A075EFF3108572B6A27D531EE318C5
:10B01C00DB7D0A2B05D0A12A03D0214B1B68002B0A
:10B02C0036D021001F48FFF7ACFF85F3108804E0F1
:10B03C0007A90191069802F09DF903B030BC08BC39
:10B04C0004B0184718490A6801320A6083F3108863
:10B05C00F3E783F31088114B5B681868EFF31085E6
:10B06C0072B6FFF77FFF040085F310880028E4D048
:10B07C001722002102F033F84023E3753F3BA37500
:10B08C000A4B196820001030062202F01FF8A6E7C0
:10B09C00034B1C60C9E7C046B00400200C00002024
:10B0AC00CC040020BC040020B4040020AC0400201C
:10B0BC0010B5054B58600548016005490A60180039
:10B0CC00FFF778F810BDC0460C000020AC0400203F
:10B0DC00B0040020F8B50500224B1968224B1A6801
:10B0EC00914227D0214B5B681B689B68022B21D9AE
:10B0FC001F48FFF753FF1C4B1A681A4B1A6019E0D4
:10B10C00EFF3108472B61B48FFF72CFF84F3108802
:10B11C00194B186012E0184C216800260E72134B64
:10B12C005B681868EFF3108772B6FFF72AFF87F396
:10B13C0010882660104B1B68002BE1D00E4B196851
:10B14C0000290DD0094B5B681B69002B08D001242A
:10B15C000C720648FFF70AF80442DCD0002DE9D146
:10B16C00F8BDC046B8040020B40400200C00002038
:10B17C0004EB0008BC040020C804002070B50D00CE
:10B18C001400013801280ED890B20021884210D941
:10B19C00094B1B681B68DA691206F9D56A5C9A625E
:10B1AC00013189B2F2E701F067FF09230360012442
:10B1BC006442200070BDC04698000020F8B5364BA4
:10B1CC001E88364B1F88364C6C220021200001F063
:10B1DC0086FF344B23800423FF336380053B2373AA
:10B1EC00E1235B022361636101235B4223831533FB
:10B1FC00A383B433E383A83B0122E2542A4D2000FD
:10B20C0026300232290001F061FF092363852300F7
:10B21C002C332A88A285AA789A7010232386A0231F
:10B22C009B006386A03BA3869D3BFF3B3222E252F0
:10B23C001E4B9E4207D01D4B9E4211D0184B1B79C2
:10B24C00002B22D1F8BD0423FF339F42F3D1144CC1
:10B25C002D321149200001F039FF01232371EDE754
:10B26C003F0A012FEAD10E490B480B00020031CAEC
:10B27C0031C331CA31C331CA31C311CA11C302231C
:10B28C000B710423FF334B80D8E7054803220021C0
:10B29C00053001F024FFD5E700F8010802F8010899
:10B2AC00D0040020CDCDFFFFE4E80008CDCD000098
:10B2BC0070B58AB005000E0001235B420993154B53
:10B2CC0003400222059202320692D90A07919B1979
:10B2DC00DA0A521A08925B0501D001320892FCF787
:10B2EC0067FE041E10D0FCF77BFE0443079B029400
:10B2FC00099A0192089A0092320029000648FFF739
:10B30C004DFE20000AB070BD09A905A8FCF7F8FE97
:10B31C000400E8E7FFFFFFF71CEB0008F0B5C6469A
:10B32C0000B5070090460731CD08FCF741FE04003C
:10B33C00002609E0F300F91843441A685B68012001
:10B34C00FCF792FE04000136002C01D1AE42F1DB79
:10B35C00FCF746FE204380BCB846F0BD10B58021FA
:10B36C0009010E48FFF7A4FFC0B200280DD10C4A0A
:10B37C005F210A48FFF7D2FFC0B2002809D15F2134
:10B38C000848FFF70BFE002010BD0748FFF706FE2C
:10B39C00EDE70648FFF702FE0120F5E700F801088B
:10B3AC00D004002070EB000850EB00089CEB000868
:10B3BC00F0B5C64600B582B00120FFF78BFE84487D
:10B3CC00FFF7ECFD0120FFF785FE824C824B0093CA
:10B3DC002300022202218148FFF7E0FD804E814BC1
:10B3EC0000933300012204217F48FFF7D7FD012091
:10B3FC00FFF770FE7D4F7E4B00933B000122052131
:10B40C007C48FFF7CBFD7C4B00933B0001220721CE
:10B41C007A48FFF7C3FD7A4D2800FFF7BFFD0120E6
:10B42C00FFF758FE774B0093330001220C2176482E
:10B43C00FFF7B4FD754B9846754B009343460422B9
:10B44C0010217448FFF7AAFD0120FFF743FE724B51
:10B45C0000934346042214217048FFF79FFD704B64
:10B46C009846704B00934346022218216E48FFF712
:10B47C0095FD0120FFF72EFE6C4B0093330001224B
:10B48C001A216B48FFF78AFD6A4B009323000222B6
:10B49C001C216948FFF782FD0120FFF71BFE674B5B
:10B4AC000093230002221E216548FFF777FD654BB0
:10B4BC0000933300012220216348FFF76FFD63489E
:10B4CC00FFF76CFD0120FFF705FE614B00933B007D
:10B4DC00012224215F48FFF761FD5F4B0093434637
:10B4EC00032226215D48FFF759FD5D4B0093230095
:10B4FC0002222A215B48FFF751FD2800FFF74EFD81
:10B50C000120FFF7E7FD584B0093434603222C2103
:10B51C005648FFF743FD564B00932300022230217F
:10B52C005448FFF73BFD2800FFF738FD0120FFF7DB
:10B53C00D1FD514B00932300022232214F48FFF7DB
:10B54C002DFD4F4B00932300022234214D48FFF771
:10B55C0025FD2800FFF722FD0120FFF7BBFD4A4B1C
:10B56C0000933B00012242214848FFF717FD484B4E
:10B57C0000932300022244214648FFF70FFD464B5F
:10B58C0000933300012246214448FFF707FD2800B1
:10B59C00FFF704FD0120FFF79DFD414B00933300A5
:10B5AC0001225F213F48FFF7F9FC3F4B00933B0022
:10B5BC00012269213D48FFF7F1FC2800FFF7EEFC62
:10B5CC000120FFF787FD02B080BCB846F0BDC04635
:10B5DC00BCEB0008D0EB000808EC0008D4EB00082A
:10B5EC0018EC000850EC00081CEC00088CEC00086F
:10B5FC00C4EC000890EC00080CED0008D8EC000836
:10B60C0034ED000870ED00083CED000890ED0008EA
:10B61C00CCED000894ED000824EE0008ECED0008D9
:10B62C0048EE000888EE00084CEE0008D4EE000846
:10B63C009CEE000834EF0008F4EE00088CEF0008D4
:10B64C004CEF0008E8EF0008ACEF000800F0000831
:10B65C0038F0000808F00008A4F000086CF00008AE
:10B66C0000F10008C8F0000858F1000820F10008AB
:10B67C00ACF1000874F10008F4F10008C4F1000802
:10B68C0034F2000804F2000874F2000844F20008D6
:10B69C00C8F2000894F2000804F30008D8F200087D
:10B6AC0038F3000808F30008A0F3000870F3000852
:10B6BC0030B587B001AA0F4B32CB32C211001A68D9
:10B6CC000A601B790B7100230DE00B4A9A18157850
:10B6DC0029095A0001AC615C81540F2129400132C7
:10B6EC00615C815401330B2BEFDD0023037607B033
:10B6FC0030BDC04624F400089075FF1FF0B5DE463F
:10B70C0057464E464546E0B585B081460E009346F9
:10B71C009846002B0CD02D4F4346002B0AD02C4BB7
:10B72C001B689A460024002303935346029327E098
:10B73C00284FF1E7284B1B689A46F3E763001B1967
:10B74C009B00FB185B6826E0019268468088B44633
:10B75C00DC44E24503DC614502DD614600E011009A
:10B76C008DB2A8420BD0801A80B2019D491BC9B280
:10B77C004546002D20D0921B42449847039001343B
:10B78C00029B9C421ADA4B46002BD7D063001B1944
:10B79C009B00FB189B68002BF1D0620012199200E1
:10B7AC00B918BA5A9246498851189642CCD3019688
:10B7BC008E42CADD0191C8E74246DEE7039805B028
:10B7CC00F0BCBB46B246A946A046F0BD30000020F6
:10B7DC003C0000203C0500203C05002070B5084DC5
:10B7EC002800FFF765FF074C074B2A00074920008C
:10B7FC0001F082FD21000648FFF7D0FB70BDC0466A
:10B80C00400500205C05002038F4000840F40008D6
:10B81C0058F40008F0B5DE4657464E464546E0B5AE
:10B82C0085B04E48FEF7B7FC041E10D0C38A012B1E
:10B83C0014D0837D042B02D9C37D102B2BD0484808
:10B84C00FFF7ACFB474B18682100FFF79AFB05B0DC
:10B85C00F0BCBB46B246A946A046F0BD7F33C375CB
:10B86C00414D1830290001F067FD2800FAF744FC1F
:10B87C000130A0752000103021000A31062201F0A1
:10B88C0025FC21003548FEF771FC384A11797F23DD
:10B89C000B401371DBE7038B994601F0EFFC0500BD
:10B8AC0049463348FAF7C4FC01002800FAF7C0FCFB
:10B8BC00A37EE27E90462D4A177BA27DA218002122
:10B8CC00D1751C229246A24405042D0C1E00BB46C9
:10B8DC00524602920197424600924A462900254858
:10B8EC00FFF75CFBBE4204D84646B84500D93E1C67
:10B8FC00F6B2B34506D01D4A117980235B420B4347
:10B90C0013719CE75146184801F01EFD0028F2D037
:10B91C00FCF74CFF0600FCF749FF801BA842FAD34A
:10B92C008023E375104D20001830290001F004FD30
:10B93C002800FAF7E1FB0130A0752000103021003F
:10B94C000A31062201F0C2FB21000448FEF70EFC6E
:10B95C00064A11797F230B40137178E740000020D1
:10B96C00A4F40008F40500205C050020D00400209D
:10B97C00FFFFFF7F68F40008F0B5CE46474680B560
:10B98C0083B06848FEF707FC041E30D0664B1B7969
:10B99C005BB2002B30DBC38A042B37D0C27D202A4C
:10B9AC005ED082225200934200D0B1E0278BA57E5C
:10B9BC00FB2D00DDFB25EEB2200018305B49791819
:10B9CC002A0001F083FB2A0039005948FFF7E6FAF8
:10B9DC008023E3750136A6752000103021000A3152
:10B9EC00062201F073FB21004E48FEF7BFFB03B0AB
:10B9FC00C0BCB946B046F0BD817D4E48FFF7CEFACB
:10BA0C004D4B18682100FFF7BCFAF0E7038B984602
:10BA1C00857EFB2D00DDFB25EFB200233A0041466D
:10BA2C000020FFF76BFE061E0BD02A004146434850
:10BA3C00FFF7B4FA802040420643E6750137A7753C
:10BA4C00CAE7200018302A003749414401F03EFB78
:10BA5C0000233A0041460120FFF750FE0600E4E7C0
:10BA6C00877D032F9DD9058B033FFFB21A23984680
:10BA7C008044EFF3108972B643463A002900002047
:10BA8C00FFF73CFE061E39D089F3108833003A00CC
:10BA9C0029002B48FFF782FA0123A375802040422E
:10BAAC000643E67598E701926B469B88E81982423B
:10BABC0003DC0A00814200DD020091B28B420BD004
:10BACC00019B1804000C411B41441204120C121A65
