:020000040800F2
:10600000009000207DBD0008616A0008716A0008E8
:106010000000000000000000000000000000000080
:10602000000000000000000000000000816A00087D
:106030000000000000000000836A0008856A000874
:10604000CDBD0008CDBD0008CDBD0008CDBD000808
:10605000CDBD000849B70008CDBD0008CDBD000882
:10606000CDBD0008CDBD0008CDBD0008CDBD0008E8
:10607000CDBD0008CDBD0008CDBD0008CDBD0008D8
:10608000CDBD0008CDBD0008CDBD0008CDBD0008C8
:10609000CDBD0008CDBD0008CDBD0008CDBD0008B8
:1060A000CDBD0008CDBD0008CDBD0008CDBD0008A8
:0C60B000CDBD0008CDBD0008CDBD00082E
:1060BC0010B5064C2378002B07D1054B002B02D0D2
:1060CC00044800E000BF0123237010BD280100200C
:1060DC00000000001CD50008044B10B5002B03D0A9
:1060EC000349044800E000BF10BDC046000000009A
:1060FC002C0100201CD500080023C25C0133002AAF
:10610C00FBD1581E7047000003B47146490840008B
:10611C004900095E49008E4403BC704700224308C5
:10612C008B4274D303098B425FD3030A8B4244D353
:10613C00030B8B4228D3030C8B420DD3FF22090295
:10614C0012BA030C8B4202D31212090265D0030B54
:10615C008B4219D300E0090AC30B8B4201D3CB034A
:10616C00C01A5241830B8B4201D38B03C01A52418C
:10617C00430B8B4201D34B03C01A5241030B8B428E
:10618C0001D30B03C01A5241C30A8B4201D3CB0279
:10619C00C01A5241830A8B4201D38B02C01A52415E
:1061AC00430A8B4201D34B02C01A5241030A8B4261
:1061BC0001D30B02C01A5241CDD2C3098B4201D379
:1061CC00CB01C01A524183098B4201D38B01C01AF7
:1061DC00524143098B4201D34B01C01A524103096E
:1061EC008B4201D30B01C01A5241C3088B4201D31D
:1061FC00CB00C01A524183088B4201D38B00C01ACA
:10620C00524143088B4201D34B00C01A5241411AF0
:10621C0000D20146524110467047FFE701B50020FD
:10622C0000F0F0F802BDC0460029F7D076E77047C1
:10623C0003460B437FD4002243088B4274D30309DB
:10624C008B425FD3030A8B4244D3030B8B4228D37C
:10625C00030C8B420DD3FF22090212BA030C8B42A2
:10626C0002D31212090265D0030B8B4219D300E042
:10627C00090AC30B8B4201D3CB03C01A5241830BC7
:10628C008B4201D38B03C01A5241430B8B4201D377
:10629C004B03C01A5241030B8B4201D30B03C01AA0
:1062AC005241C30A8B4201D3CB02C01A5241830A1A
:1062BC008B4201D38B02C01A5241430A8B4201D349
:1062CC004B02C01A5241030A8B4201D30B02C01A73
:1062DC005241CDD2C3098B4201D3CB01C01A5241DA
:1062EC0083098B4201D38B01C01A524143098B4263
:1062FC0001D34B01C01A524103098B4201D30B014C
:10630C00C01A5241C3088B4201D3CB00C01A524170
:10631C0083088B4201D38B00C01A524143088B4235
:10632C0001D34B00C01A5241411A00D201465241CE
:10633C00104670475DE0CA0F00D04942031000D3ED
:10634C004042534000229C4603098B422DD3030A42
:10635C008B4212D3FC22890112BA030A8B420CD352
:10636C00890192118B4208D3890192118B4204D37B
:10637C0089013AD0921100E08909C3098B4201D3FB
:10638C00CB01C01A524183098B4201D38B01C01A35
:10639C00524143098B4201D34B01C01A52410309AC
:1063AC008B4201D30B01C01A5241C3088B4201D35B
:1063BC00CB00C01A524183088B4201D38B00C01A08
:1063CC005241D9D243088B4201D34B00C01A5241DF
:1063DC00411A00D20146634652415B10104601D36C
:1063EC004042002B00D54942704763465B1000D3F6
:1063FC00404201B5002000F005F802BD0029F8D09C
:10640C0016E770477047C046002B11D1002A0FD1F8
:10641C00002900D1002802D00021C943080007B48C
:10642C00024802A14018029003BDC046D9FFFFFFED
:10643C0003B4684601B5029800F034F8019B9E46FF
:10644C0002B00CBC7047C046F0B5CE46474680B58E
:10645C00070099463B0C9C4613041B0C1D000E00B8
:10646C0061460004140C000C45434B4360436143EC
:10647C00C0182C0C20188C46834203D980235B0255
:10648C009846C444494679437243030C63442D0433
:10649C002D0CC918000440198918C0BCB946B04667
:1064AC00F0BDC046F0B557464E464546DE46E0B513
:1064BC0004000D009246994683B08B4230D82DD003
:1064CC004946504600F0BAF829000600200000F0BA
:1064DC00B5F8331A9846203B9B4633D45A4653465C
:1064EC00934042461F00534693401E00AF423AD899
:1064FC00AF4200D178E05B46A41BBD41002B00DA13
:10650C0075E0002200230092019301235A46934028
:10651C000193012342469340009328E08242CFD955
:10652C0000220023009201930C9B002B01D01C60D5
:10653C005D600098019903B0F0BCBB46B246A94619
:10654C00A046F0BD424620239B1A5246DA404146F3
:10655C0013004A468A40170042461F435346934055
:10656C001E00AF42C4D9002200230092019343467F
:10657C00002BD9D0FB0772081A4346467B080EE065
:10658C00AB4201D1A2420CD8A41A9D41012024197E
:10659C006D410021013E24184D41002E06D0AB4226
:1065AC00EED9013E24196D41002EF8D100980199C5
:1065BC005B4600196941002B24DB2B005A464446EC
:1065CC00D3402A00E2401C005B461500002B2ADB5E
:1065DC0026009E40330026004746BE403200801AFB
:1065EC009941009001919FE7A342BCD883E74246B2
:1065FC00202300219B1A0022009101920122DA40F3
:10660C00019286E7424620239B1A2A0046469A406E
:10661C002300F340444613432A00E2401C005B462F
:10662C001500002BD4DA42462F0020232600974079
:10663C009B1ADE403B003343CDE7C04610B5002922
:10664C0003D100F007F8203002E0080000F002F857
:10665C0010BDC0461C2101231B04984201D3000C21
:10666C0010391B0A984201D3000A08391B099842B9
:10667C0001D30009043902A2105C40187047C046CF
:10668C0004030202010101010000000000000000EF
:10669C0082B0054A916B012319439163926B1340AD
:1066AC000193019B02B0704700100240F0B5DE462A
:1066BC0057464E464546E0B58BB01422002105A83E
:1066CC0005F0B3FB564B596B042211435963596BBC
:1066DC000A400192019A5A6B01252A435A635A6B5C
:1066EC002A400292029A5A6B022632435A635A6B20
:1066FC0032400392039A5A6B08218A460A435A6322
:10670C005B6B0B400493049B7931464F002289014B
:10671C00380001F0B7FDA023DB059846012281214A
:10672C000902180001F0AEFD01228021380001F0B1
:10673C00A9FD3D4B994600220621180001F0A2FD4F
:10674C0080239B010593069500240794089405A9C2
:10675C00380001F0DBFCFF2305930694079405A990
:10676C00404601F0D3FC059588235B030693079400
:10677C002E4B9B4605A9180001F0C8FC0623059377
:10678C000694079405A9584601F0C0FC80235B01D0
:10679C0005930694079505A9584601F0B7FC81228C
:1067AC001202059206950794089605A9404601F039
:1067BC00ADFC80239B0005930696079408960994DC
:1067CC0005A9404601F0A2FC402305932F3B0693FC
:1067DC000795089405A9380001F098FC80230593CF
:1067EC0006950794089605A9380001F08FFC06233E
:1067FC00059306950794089405A9484601F086FC74
:10680C00534605930694079505A9484601F07EFC6E
:10681C000BB0F0BCBB46B246A946A046F0BDC04684
:10682C000010024000080050000C00500004005002
:10683C0072B6FEE710B51048104B036082235B0064
:10684C00436000238360E022D200C2600361436195
:10685C00802292008261F93AFF3AC261036243627C
:10686C0083620721C1620363426302F005F80028CA
:10687C0000D110BDFFF7DCFF5002002000300140BA
:10688C0010B51748174B0360E1235B0243600023EC
:10689C008360C36003610C2242618361C361036244
:1068AC004362836202F026FE002811D100210C48BD
:1068BC0002F0A6FE00280DD10021094802F0C6FE08
:1068CC00002809D1064802F07BFE002806D110BD35
:1068DC00FFF7AEFFFFF7ACFFFFF7AAFFFFF7A8FF2C
:1068EC00180300200038014010B51248124B036009
:1068FC00124B4360002383600122C2600361436139
:10690C008361C361036200F0A5FB00280CD1002158
:10691C00084800F0B1FD002808D10021054800F01E
:10692C00D7FD002804D110BDFFF782FFFFF780FFD1
:10693C00FFF77EFFFC01002000580040B23B61C015
:10694C0010B51048104B036082235B00436000239A
:10695C008360E022D200C260036143618022920016
:10696C008261F93AFF3AC261036243628362072192
:10697C00C1620363426301F07FFF002800D110BDA8
:10698C00FFF756FFB40200200038004000B593B06A
:10699C003822002104A805F048FA1022002168468C
:1069AC0005F043FA8020800001F0FAFC02230493E6
:1069BC0080225200079200220892402109910B93E9
:1069CC000C930D9206330E9380239B020F9380231E
:1069DC009B04109380239B05119304A800F0A2FD47
:1069EC0000281CD107230093053B0193002302933D
:1069FC0003930221684601F083F8002811D10A4A5A
:106A0C00D16880235B050B43D3608022A0218020BA
:106A1C009205C904800000F0E1FF13B000BDFFF740
:106A2C0007FFFFF705FFC0460010024010B501F04C
:106A3C0065FDFFF7ABFFFFF739FEFFF729FEFFF708
:106A4C00F9FEFFF71DFFFFF74FFFFFF779FF04F08B
:106A5C0063FBFEE710B5024805F062FAFEE7C0469C
:106A6C0070D5000810B5024805F05AFAFEE7C0468A
:106A7C007CD500087047704710B501F053FD10BD70
:106A8C0000B583B00B4B196C012211431964196CBE
:106A9C000A400092009ADA6B802149050A43DA63B6
:106AAC00DB6B0B400193019BC020C00001F05EFD2D
:106ABC0003B000BD0010024010B588B004001422D1
:106ACC00002103A805F0B1F92268124B9A4201D0BB
:106ADC0008B010BD104C626B02231A436263626BE8
:106AEC0013400193019BC0231B01039312230493B6
:106AFC00113B05930533079303A9084801F006FBE6
:106B0C00E26B8021C9030A43E263E36B0B400293FF
:106B1C00029BDDE7005800400010024000040050CA
:106B2C0030B58BB004001422002105A805F07DF9C6
:106B3C002368394A934204D0384A934235D00BB07B
:106B4C0030BD374B1A6C80256D012A431A641A6CC0
:106B5C002A400192019A596B0222114359635B6BD3
:106B6C0013400293029B382305930692089205A9C1
:106B7C002C4801F0CBFA2C482C4B036011234360BA
:106B8C00013B83600023C360802202614361836107
:106B9C00C361056201F0ACFB002803D1224B636595
:106BAC009C62CCE7FFF744FEF8E71D4BD96B8020C5
:106BBC00C0010143D963DA6B02400392039A596B0B
:106BCC000222114359635B6B13400493049BE02333
:106BDC001B020593069205A9124801F097FA144876
:106BEC00144B036013234360033B83600023C36097
:106BFC008022026143618361C36180235B01036274
:106C0C0001F076FB002803D1094B63659C6296E783
:106C1C00FFF70EFEF8E7C046003001400038004098
:106C2C000010024000040050440100200800024003
:106C3C00A00100201C00024010B594B004001422E6
:106C4C0000210FA805F0F1F83422002102A805F06C
:106C5C00ECF82268174B9A4201D014B010BD0123F6
:106C6C00029302A801F02CF800281FD1124B196CCA
:106C7C008020C001014319641A6C02400092009AF2
:106C8C00596B0222114359635B6B1A400192019BB1
:106C9C0040230F932E3B1093113B1193002312931F
:106CAC0013930FA9054801F031FAD6E7FFF7C0FDA1
:106CBC00DCE7C046003801400010024000040050E0
:106CCC0003689A69920701D500229A6203689A694F
:106CDC00D20703D49A6901210A439A6170470000D4
:106CEC0010B58905890D120411431943029B1943F0
:106CFC0049004908046862685B0D8020C0000340AD
:106D0C00024803439A431143616010BDFF63FF03C4
:106D1C00F0B5C64600B504000D00170001688B697C
:106D2C00102216001E401A4200D175E01023CB61D0
:106D3C0000239846002623689869820631D4002ED9
:106D4C002FD16B1CF7D001F0F9FBC01BA84201D866
:106D5C00002DF0D121684B688022D20113404222D1
:106D6C00A25CD2B28869000403D5002B01D1202A81
:106D7C000ED123689B699B06DDD401F0DFFBC01BA1
:106D8C001928F6D9202342461A4390460126D2E709
:106D9C004A688023DB0113434B6001F0CFFB0700F3
:106DAC00E7E7002E01D12022DA6104264346334363
:106DBC001E00012522689369D90504D501210E43D3
:106DCC00FF31D16101255A0506D5082216432268E8
:106DDC008021C900D16101259B051FD502231E43CB
:106DEC00236880229200DA6101252000FFF768FFFA
:106DFC00226853680B490B405360636C1E436664F6
:106E0C0041232022E25400232232A354023AA354F9
:106E1C00280080BCB846F0BD0025CBE7002DF7D08C
:106E2C00E3E7C04600E800FE70B504000D00160054
:106E3C0023689B699B0720D4320029002000FFF7B0
:106E4C0067FF00281BD16B1CF2D001F077FB801B75
:106E5C00A84201D8002DEBD123689B699B07E7D48E
:106E6C00636C2022134363644123E25400232232D7
:106E7C00A354023AA354012000E0002070BD01206D
:106E8C00FCE7F0B5D6464F4680B583B007000D0041
:106E9C00160099460A9B9A463B689C692C40641BD9
:106EAC0063425C410196B44228D1524649463800AF
:106EBC00FFF72EFF002827D14B460133ECD001F011
:106ECC003DFB5346C01A484502D84B46002BE3D134
:106EDC003B689B692B405B1B5A425341019A93427E
:106EEC00DAD17B6C202213437B644123FA540023B8
:106EFC002232BB54023ABB54012000E0002003B004
:106F0C00C0BCBA46B146F0BD0120F8E770B582B0FE
:106F1C00040015001E008023F2B2194800905B0497
:106F2C002000FFF7DDFE079A06992000FFF77CFF93
:106F3C0000281ED1012E0ED12368EDB29D62079B55
:106F4C000093069B002280212000FFF79AFF002867
:106F5C0013D102B070BD23682A0A9A62079A069967
:106F6C002000FFF761FF002805D12368EDB29D6278
:106F7C00E5E70120EDE70120EBE70120E9E7C0465A
:106F8C000020008070B582B0040015001E00DAB23B
:106F9C00184B00930023FFF7A3FE079A06992000D5
:106FAC00FFF742FF00281ED1012E0ED12368EDB24F
:106FBC009D62079B0093069B002240212000FFF757
:106FCC0060FF002813D102B070BD23682A0A9A62B0
:106FDC00079A06992000FFF727FF002805D12368A0
:106FEC00EDB29D62E5E70120EDE70120EBE7012022
:106FFC00E9E7C0460020008070B504000D001600C3
:10700C0003E023689B699B0612D523689B699B064A
:10701C001BD4320029002000FFF77AFE002816D17D
:10702C0001F08CFA801BA842EBD8002DEDD1E8E7DB
:10703C00636C2022134363644123E2540023223205
:10704C00A354023AA354012000E0002070BD01209B
:10705C00FCE7000010B5041E60D04123C35C002B7C
:10706C0048D041232422E2542268136801218B4327
:10707C00136022682A4B61680B4013612268936885
:10708C0028490B409360E368012B39D02268842394
:10709C001B02A1680B439360E368022B37D0226874
:1070AC00536821490B405360226851681F4B0B43B6
:1070BC0053602268D3681B490B40D3602369626913
:1070CC001343A269120221681343CB602268E3695F
:1070DC00216A0B4313602268136801210B43136070
:1070EC000023636441221F31A15423630132A35452
:1070FC00002010BD40330022C254FFF7DDFCB0E786
:10710C00226880231B02A1680B439360C4E72268AA
:10711C00516880231B010B435360C5E70120E8E74E
:10712C00FFFFFFF0FF7FFFFFFFF7FFFF0080000274
:10713C00F0B587B004000391049205930CAB20CBFF
:10714C001F884123C35C202B00D0B3E0002D18D046
:10715C00002F16D04023C35C012B00D1ADE040239F
:10716C000122C25401F0EAF9060080210090192393
:10717C00012209022000FFF784FE002806D001201E
:10718C0099E080239B006364012094E04123212239
:10719C00E25401331F32E254002363646562678555
:1071AC00636301960E9B0093059B049A0399200040
:1071BC00FFF7ACFE00280FD1638D9BB2FF2B10D9CB
:1071CC00FF2323857F3B002200925B04FF3203994F
:1071DC002000FFF785FD21E040230022E25401202E
:1071EC0069E0628D92B222858023D2B20021009197
:1071FC009B0403992000FFF773FD0FE0628D92B2A0
:10720C0022858023D2B2002100919B040399200097
:10721C00FFF766FD638D9BB2002B34D032000E99C4
:10722C002000FFF701FE002849D12368626A12781A
:10723C009A62636A01336362638D013B9BB263851F
:10724C00238D013B9BB22385628D92B2002AE1D043
:10725C00002BDFD100960E9B002280212000FFF72F
:10726C0010FE00282DD1638D9BB2FF2BC6D9FF23B6
:10727C0023857F3B002200925B04FF3203992000A0
:10728C00FFF72EFDC6E732000E992000FFF7B4FE83
:10729C00002818D123682022DA6121684B680B4D35
:1072AC002B404B604123E25400232232A354023A78
:1072BC00A35400E0022007B0F0BD0220FBE7012040
:1072CC00F9E70120F7E70120F5E7C04600E800FEEA
:1072DC00F0B587B004000391049205930CAB20CB5E
:1072EC001F884123C35C202B00D0B5E0002D18D0A3
:1072FC00002F16D04023C35C012B00D1AFE04023FC
:10730C000122C25401F01AF90600802100901923C1
:10731C00012209022000FFF7B4FD002806D001204D
:10732C009BE080239B006364012096E04123222292
:10733C00E25401331E32E2540023636465626785B4
:10734C00636301960E9B0093059B049A039920009E
:10735C00FFF718FE00280FD1638D9BB2FF2B10D9BD
:10736C00FF2323857F3B424A00925B04FF22039953
:10737C002000FFF7B5FC21E040230022E25401205D
:10738C006BE0628D92B222858023D2B23849009193
:10739C009B0403992000FFF7A3FC0FE0628D92B2CF
:1073AC0022858023D2B2002100919B0403992000F6
:1073BC00FFF796FC638D9BB2002B36D000960E9B8C
:1073CC00002204212000FFF75CFD002849D123682E
:1073DC005B6A626A1370636A01336362238D013BDB
:1073EC009BB22385628D013A92B26285628D92B214
:1073FC00002ADFD0002BDDD100960E9B00228021CD
:10740C002000FFF73EFD00282DD1638D9BB2FF2B92
:10741C00C4D9FF2323857F3B002200925B04FF32FB
:10742C0003992000FFF75CFCC4E732000E992000A2
:10743C00FFF7E2FD002818D123682022DA612168C9
:10744C004B680C4D2B404B604123E25400232232FD
:10745C00A354023AA35400E0022007B0F0BD02206E
:10746C00FBE70120F9E70120F7E70120F5E7C0462B
:10747C000024008000E800FEF0B54123C35C202B03
:10748C0020D12033C35C012B1ED040240122025595
:10749C0041252423435506683368934333600668BB
:1074AC0033680A4F3B4033600668336819433160D8
:1074BC0001680B6813430B602023435500230355CD
:1074CC000020F0BD0220FCE70220FAE7FFEFFFFFEF
:1074DC00F0B54123C35C202B1ED12033C35C012BA0
:1074EC001CD0402401220255412524234355066813
:1074FC0033689343336006683368094F3B40090295
:10750C001943316001680B6813430B60202343550A
:10751C00002303550020F0BD0220FCE70220FAE70F
:10752C00FFF0FFFF70B582B0041E00D131E203689A
:10753C00DB0739D5C14A916838230B40D168032247
:10754C000A40102B26D0082B26D0636880225202CA
:10755C0093427FD0A022D202934200D181E0B74B5C
:10756C001A68B7490A401A601A68B6490A401A6084
:10757C006368002B00D180E000F0E0FF0500AF4B0A
:10758C001B689B0310D400F0D9FF401B6428F6D96C
:10759C000320FFE1032AD6D1A84B1B689B0303D51C
:1075AC006368002B00D1F7E123689B0731D5A34A10
:1075BC00936838210B40D16803220A40102B6AD003
:1075CC00002B6BD19D4A1268520503D5E268002A44
:1075DC0000D1E3E1994842689B490A40616909027C
:1075EC000A434260002B0DD1036898490B40216976
:1075FC000B4303600368DB0A07221A40944BD34009
:10760C00944A1360944B186800F04CFF002800D08B
:10761C00C6E123681B0700D481E0884B9A683823A5
:10762C001340182B73D0A369002B00D1B4E0834A0C
:10763C00136E01210B43136600F080FF05007F4B96
:10764C001B6E9B076BD400F079FF401B0228F6D908
:10765C0003209FE1794A116880235B020B4313607E
:10766C0086E7764B19688022D2020A431A601968A1
:10767C00802252020A431A607AE700F05FFF05008D
:10768C006E4B1B689B038FD500F058FF401B642882
:10769C00F6D903207EE1022A92D193E7E368002B0E
:1076AC0022D0664A136869490B4021690B43136069
:1076BC00116880235B000B43136000F03FFF050053
:1076CC005E4B1B685B0506D400F038FF401B02289C
:1076DC00F6D903205EE159494B685B4A1340626955
:1076EC00120213434B6094E7544A13685B490B40F6
:1076FC00136000F023FF0500504B1B685B0588D519
:10770C0000F01CFF401B0228F6D9032042E14B4B32
:10771C001B6E9B0703D5A369002B00D142E12368A4
:10772C005B0700D4A2E0454B9A6838231340202B0A
:10773C0045D0424BDB6BDB004AD4404AD16B8020F6
:10774C0040050143D163D36B03400193019B012599
:10775C00434B1B68DB053DD5A368012B4ED0052B95
:10776C0052D0364BDA6D01218A43DA65DA6D03317A
:10777C008A43DA65A368002B50D000F0DFFE0600C8
:10778C002E4BDB6D9B076FD400F0D8FE801B354B66
:10779C009842F5D90320FDE0284A136E01218B4352
:1077AC00136600F0CBFE0500244B1B6E9B07B6D571
:1077BC0000F0C4FE401B0228F6D90320EAE01F4B60
:1077CC00DB6D9B0752D5A368002B4FD10120E1E064
:1077DC000025BDE7224A116880235B000B43136030
:1077EC0000F0ACFE06001E4B1B68DB05B4D400F0A9
:1077FC00A5FE801B0228F6D90320CBE00F4AD36DDF
:10780C0001210B43D365B5E70C4BDA6D04210A4318
:10781C00DA65DA6D03390A43DA65ABE700F08EFE00
:10782C000600064BDB6D9B071ED500F087FE801B08
:10783C000C4B9842F5D90320ACE0C0460010024036
:10784C00FFFFFEFFFFFFFBFFFF80FFFFFFC7FFFFF8
:10785C000024F4000800002004000020FFFEFFFFBD
:10786C000070004088130000012D1ED0E369002B2E
:10787C0000D199E0544A916838220A40102A60D00D
:10788C00022B18D0504A136850490B40136000F07B
:10789C0055FE04004C4B1B689B014BD500F04EFE73
:1078AC00001B0228F6D9032074E0474AD36B4849E1
:1078BC000B40D363DAE7444A136844490B40136026
:1078CC0000F03CFE0500404B1B689B0106D500F008
:1078DC0035FE401B0228F6D903205BE03A4AD368F8
:1078EC003C491940236A606A0343A06A00020343BF
:1078FC00E06A0343206B0343606B03430B43D36089
:10790C00116880235B040B431360D16880235B05F3
:10791C000B43D36000F012FE04002B4B1B689B0141
:10792C0006D400F00BFE001B0228F6D9032031E030
:10793C0000202FE0244AD36827490B40D360002055
:10794C0028E0012B32D0204BDA6803231340216A44
:10795C008B422DD170231340616A8B422AD1FE21B8
:10796C00C9011140A36A1B02994225D1F8239B033C
:10797C001340E16A8B4221D1E0231B051340216B9C
:10798C008B421DD1520F5207636B9A421AD10020C1
:10799C0000E0012002B070BD0120FBE70120F9E7F7
:1079AC000120F7E70120F5E70020F3E70120F1E7DC
:1079BC000120EFE70120EDE70120EBE70120E9E7EB
:1079CC000120E7E70120E5E700100240FFFFFFFE82
:1079DC00FFFFFFEF8C80C111FCFFFEEEF0B589B00C
:1079EC0003000C0001920222049201320692002242
:1079FC000592802676050640010C0F320A40A02124
:107A0C004903501880020E4D696B012797403A00CC
:107A1C000A436A631A04120C03921B0DFF221340D3
:107A2C00079303A900F072FB002E06D1AB68054A40
:107A3C001340019A14431C43AC6009B0F0BDC0461E
:107A4C0000100240FFFFFF8810B52A4B9B683822BC
:107A5C001A4207D1274B1A68D20A0723134026482B
:107A6C00D84010BD234B9A6838231340082B3BD0C9
:107A7C00204B9A6838231340102B0DD01D4B9A685D
:107A8C0038231340202B31D01A4B9A6838231340DB
:107A9C00182B26D00020E4E7164AD1680D3B0B408A
:107AAC00D2681209072111400131032B0FD0124863
:107ABC00FEF734FB0F4BDA68120A7F23134058434E
:107ACC000C4BD968490F0131FEF728FBC9E70B486D
:107ADC00FEF724FB074BDA68120A7F231340584346
:107AEC00EEE7FA20C001BCE70448BAE780200002A8
:107AFC00B7E7C046001002400024F40000127A00E0
:107B0C0070B504000D00002800D1AAE0574B1A688C
:107B1C00072313408B4221D323689A070ED55B07AA
:107B2C0005D5534A9168E023DB010B439360504A1F
:107B3C00936850490B40A1680B4393602368DB07A3
:107B4C0054D56368012B20D0022B3BD0002B3FD1A6
:107B5C00474A126852051CD401206AE0434A136854
:107B6C0007218B432B43136000F0E8FC06003F4BCE
:107B7C001A6807231340AB42CED000F0DFFC801B09
:107B8C003D4A9042F3D9032053E0394A12689203DC
:107B9C0069D537498A680720824313438B6000F00C
:107BAC00CDFC0600324B9B6838221A406368DB0020
:107BBC009A421BD000F0C2FC801B2F4B9842F1D98B
:107BCC00032036E02A4A12689201E2D4012030E008
:107BDC00032B05D0264AD26D9207DAD4012028E077
:107BEC00234A126E9207D4D4012022E01F4B1A684C
:107BFC0007231340AB421DD823685B0706D51C4AEC
:107C0C0093681E490B40E1680B439360FFF71CFF20
:107C1C00174B9A68120A0F2313409B00184A9A5864
:107C2C001F231340D840174B1860174B186800F0EF
:107C3C0039FC70BD0D4A136807218B432B4313602D
:107C4C0000F07CFC0600094B1A6807231340AB427A
:107C5C00D2D000F073FC801B074B9842F3D9032061
:107C6C00E7E70120E5E70120E3E7C04600200240FA
:107C7C0000100240FFF0FFFF88130000FF8FFFFF92
:107C8C00B8D500080800002004000020014B18683B
:107C9C007047C0460800002010B5FFF7F7FF064BF1
:107CAC009A68120B072313409B00044A9A581F230F
:107CBC001340D84010BDC04600100240F8D5000853
:107CCC00F0B583B0040003689B0362D5814BDB6B7A
:107CDC00DB001ED47F4AD16B802040050143D16369
:107CEC00D36B03400193019B01267B4A11688023CF
:107CFC005B000B43136000F021FC0500764B1B6806
:107D0C00DB0508D400F01AFC401B0228F6D9032529
:107D1C0002E00026E9E70025002D23D16D4BD96D3B
:107D2C00C02292000B001340114210D0226B9A42D9
:107D3C000DD0684AD36D69490B40D06D8021490242
:107D4C000143D165D16D66480140D165D365DB0730
:107D5C0010D4002D06D15F4AD36D60490B40216BC6
:107D6C000B43D365012E15D15A4AD36B5D490B4099
:107D7C00D3630FE000F0E2FB0700564BDB6D9B0773
:107D8C00E7D400F0DBFBC01B574B9842F5D9032519
:107D9C00DFE700252368DB0706D54E4A536D032128
:107DAC008B4361680B43536523689B0706D5494A8F
:107DBC00536D0C218B43A1680B4353652368DB0681
:107DCC0006D5444A536D49490B40E1680B43536552
:107DDC0023689B0506D53F4A536D45490B40A16965
:107DEC000B43536523685B0506D53A4A536D4149ED
:107DFC000B40E1690B43536523689B0606D5354A56
:107E0C00536D3D490B4021690B43536523685B045B
:107E1C000BD5304A536D9B009B08216A0B4353656D
:107E2C008023DB05226A9A4239D023681B0306D5CE
:107E3C00284A536D40218B43616A0B435365236879
:107E4C009B020BD5234A536D2C490B40A16A0B4363
:107E5C0053658023DB03A26A9A4227D023685B0216
:107E6C000BD51C4A536D26490B40E16A0B435365F5
:107E7C0080235B04E26A9A421FD023681B050BD552
:107E8C00144A536D1F490B4061690B43536562697A
:107E9C008023DB019A4215D0280003B0F0BD0D4AB7
:107EAC00D16880235B020B43D360BEE7094AD168DB
:107EBC0080235B040B43D360D0E7064AD1680B43A5
:107ECC00D360DAE7034AD16880235B020B43D360AB
:107EDC00E2E7C0460010024000700040FFFCFFFFCC
:107EEC00FFFFFEFFFFFFFFEF88130000FFF3FFFF14
:107EFC00FFFFF3FFFFFFCFFFFFCFFFFFFFFFBFFF32
:107F0C00FFFFFFFEFF3FFFFF30B5054C6169012508
:107F1C00294361610260BFF36F8F436030BDC0467F
:107F2C0000200240084B5B69002B01DB00207047EE
:107F3C00054B064A9A60064A9A605B69002B01DB86
:107F4C000020F4E70120F2E70020024023016745FE
:107F5C00AB89EFCD70B5040000F0F0FA0500144BBE
:107F6C001B69DB0308D5631CF9D000F0E7FA401B52
:107F7C00A042F4D303201AE00D490A690D4B1600F8
:107F8C001E400D4808611A420CD1094B1B695B035A
:107F9C000CD5631CF9D000F0D1FA401BA042F4D3ED
:107FAC00032004E0054B5E60012000E0002070BD62
:107FBC0000200240FAC30000FBC30000AC03002009
:107FCC00F8B507000C0015001E00144B1B78012B94
:107FDC0022D0124B01221A7000225A60FA20800023
:107FEC00FFF7B8FF00280DD1012F0FD0290020007A
:107FFC0005F09AFAFA208000FFF7ACFF084A5369A3
:10800C00BB435361054B00221A70F8BD2A003300A4
:10801C002000FFF779FFEDE70220F6E7AC03002024
:10802C000020024010B5FA208000FFF793FF064BAA
:10803C005969802212060A435A615B69002B01DBE5
:10804C00012010BD0020FCE700200240034A5369C8
:10805C0003438020400218435061704700200240C7
:10806C00044A536904480340C9001943034B19439C
:10807C00516170470020024007E0FFFF0200010041
:10808C0070B504000E001F4B1B78012B37D01D4B15
:10809C0001221A7000225A60FA208000FFF75AFF62
:1080AC00002828D1042363602368042B15D00123F6
:1080BC005B423360A568A368E26894466344AB42B4
:1080CC0014D929006068FFF7CBFFFA208000FFF776
:1080DC0041FF002809D10135EDE70430FFF7B6FF69
:1080EC00FA208000FFF736FF05E03560064A536939
:1080FC0002218B435361034B00221A7070BD022086
:10810C00FCE7C046AC03002000200240F0B5002381
:10811C005AE084685F000326BE40B4432600CC6856
:10812C00BC4034438460446894434A681609012275
:10813C0032409A402243426056E0DC080834A400E6
:10814C00265805321A4092000F279740BE430F69FC
:10815C0097403A00324322505AE0032600E00026B2
:10816C00A64034003C43434E18329200945134687C
:10817C00EA432600AE434F68FF0201D52C4326008C
:10818C003C4C26606468260016404F68BF0201D53F
:10819C002C432600374C66608426A45926001640D2
:1081AC004F68BF0301D52C432600324C8427E6517F
:1081BC008026A45922404E68F60301D52A0022439A
:1081CC002C4D80242A5101330C682200DA404FD008
:1081DC0001229A40250015401442F4D003244E6825
:1081EC003440013C012C94D903224C682240032AD0
:1081FC0009D0C2685E000324B440A24314008A680C
:10820C00B2402243C26003224C682240022A94D01E
:10821C0004685E0003221700B740BC434F683A4025
:10822C00B24022430260C02292024C681442CAD06F
:10823C009A0814001834A4000E4EA75903241C40AD
:10824C00E4000F26A640B743A026F605B04286D020
:10825C00094EB04208D0094EB04207D0084EB04289
:10826C0000D17AE705267BE7012679E7022677E736
:10827C00F0BDC04600180240000400500008005039
:10828C00000C0050002A01D0816170478162FCE72C
:10829C0010B50400036C9B08094A944663449B0088
:1082AC004364FF202368184008381421FDF736FF7B
:1082BC00044BA3641F2318401E3B8340E36410BD92
:1082CC0000820010800802403F2342681340064A97
:1082DC009A1892000265054A4265013B03221A4036
:1082EC0001239340836570473F8200104009024090
:1082FC0070B5041E4DD00568274BE8181421FDF706
:10830C000DFF8000206425230222E2542B68234AAF
:10831C0013402B6021680A68A368E0680343206956
:10832C00034360690343A0690343E0690343206A84
:10833C00034313430B602000FFF7AAFF8023DB01EC
:10834C00A2689A4218D0626C3F2361680B4013609C
:10835C00A36CE26C5A606368013B032B0FD90023BA
:10836C0023656365A3650023E36325220121A154E2
:10837C00013AA354002070BD00236360E3E72000A2
:10838C00FFF7A2FF236D00221A60636DA26D5A6085
:10839C00E9E70120EFE7C046F8FFFDBF0F80FFFFC4
:1083AC0010B5104A136810490B4003431360802327
:1083BC009B00984201D0002010BD0C4B1B6858004C
:1083CC00C01840000A49FDF7A9FE0130054B5B6956
:1083DC005B0503D5002803D00138F7E70020EBE755
:1083EC000320E9E700700040FFF9FFFF08000020C0
:1083FC0040420F0070B5002811DB8308134EC033C8
:10840C009B009D5903242040C000FF22140084408F
:10841C00A54389010A4082402A439A5170BD0F231B
:10842C000340083B9B0806339B00094A944663446F
:10843C005C6803221040C000FC3215008540AC4340
:10844C0089010A40824022435A60E7E700E100E0DC
:10845C0000ED00E0002805DB1F2318401E3B834085
:10846C00014A13607047C04600E100E001388023E8
:10847C005B0498420FD2094A50600948036A1B02F8
:10848C001B0AC02109060B430362002393600733C8
:10849C001360002070470120FCE7C04610E000E0AC
:1084AC0000ED00E010B50400114B1978002901D142
:1084BC00012010BDFA208000FDF730FE01000D4BAD
:1084CC001868FDF72BFEFFF7D1FF00280DD1032C08
:1084DC0001D90120EDE70130002221004042FFF7D5
:1084EC0089FF054B1C600020E3E70120E1E7C04653
:1084FC0000000020080000200400002010B5084AED
:10850C00116880235B000B4313600220FFF7CAFF46
:10851C00041E02D00124200010BDFEF7B1FAFAE7C8
:10852C0000200240034B1B78034A11685B18136050
:10853C007047C04600000020C8030020014B18689B
:10854C007047C046C803002070B50400FFF7F6FF63
:10855C000500631C02D0044B1B78E418FFF7EEFFF8
:10856C00401BA042FAD370BD00000020034A1368E0
:10857C0003490B40034313607047C04600000140A1
:10858C00FFF9FFFFF0B5D6464F464646C0B582B060
:10859C0006000D0090461F00FFF7D0FF0A9B181A2B
:1085AC008146B944FFF7CAFF82462E4B1B685B011C
:1085BC001B0D4A465343019333689C682C40641B43
:1085CC0063425C41444545D07B1CF5D0FFF7B6FFB8
:1085DC005346C01A48450BD24B46002B08D0019A83
:1085EC00002A00D04A46019B013B01939146E3E7E8
:1085FC0032685368E0218B43536082235B007268BE
:10860C009A420CD080239B01B26A9A4216D05D2309
:10861C000122F254013B0022F25403201BE0B36808
:10862C0080221202934203D08022D2009342E9D1DD
:10863C003268136840218B431360E3E73268136898
:10864C0009490B4013603268116880239B010B436E
:10865C001360DCE7002002B0E0BCBA46B146A84685
:10866C00F0BDC04608000020FFDFFFFFF0B5DE467E
:10867C0057464E464546E0B583B007000D00160040
:10868C0098466B460022DA70FFF758FF0C9B181ABD
:10869C0040448146FFF752FF82463B689B46364B6F
:1086AC001A6893009A18D3009B1A1B0D4A46534321
:1086BC00019302E04346013311D13B689C682C4086
:1086CC00B44250D0C023DB009D42F3D1002EF1D137
:1086DC005B461B7BDBB26A46D370D378EAE7FFF7C5
:1086EC002DFF5346C01A48450BD24B46002B08D0E1
:1086FC00019A002A00D04A46019B013B0193914606
:10870C00DBE73A685368E0218B43536082235B00BC
:10871C007A689A420CD080239B01BA6A9A4216D08E
:10872C005D230122FA54013B0022FA5403201BE082
:10873C00BB6880221202934203D08022D200934263
:10874C00E9D13A68136840218B431360E3E73A6838
:10875C0013680A490B4013603A68116880239B0127
:10876C000B431360DCE7002003B0F0BCBB46B24601
:10877C00A946A046F0BDC04608000020FFDFFFFF61
:10878C0070B582B004000D001600C02100922B00C1
:10879C0000224901FFF76AFF002818D100962B0030
:1087AC00002280212000FFF7EDFE002816D1C02109
:1087BC0000962B000022C9002000FFF757FF00286D
:1087CC000AD0236E202213432366032004E0236E79
:1087DC00202213432366032002B070BD236E202297
:1087EC00134323660320F7E770B582B004000D0035
:1087FC00160082235B0042689A420FD000962B0031
:10880C00002280212000FFF7BDFE002815D1822315
:10881C005B0062689A4216D002B070BD83688022F9
:10882C001202934203D08022D2009342E6D12268F6
:10883C00136840218B431360E0E7236E202213431F
:10884C0023660320E8E7A36880221202934203D038
:10885C008022D2009342DFD1C02100962B0000224F
:10886C00C9002000FFF702FF0028D5D0236E20227C
:10887C00134323660320CFE770B5041E00D178E0C4
:10888C00436A002B07D10533FF3342689A4205D067
:10889C000023C36102E00023036143610023A36250
:1088AC005D33E35C002B5AD05D230222E254226834
:1088BC00136840218B431360E368E022D20093429B
:1088CC0054D90022F02109018B4205D0E021C900C6
:1088DC008B4201D00023A36282235B0061680B40B2
:1088EC0084210902A06801400B4302212069014048
:1088FC000B43012160690840034380208000A56977
:10890C00284003433820E569284003438020256A2A
:10891C002840034380208001A56A28400343206837
:10892C000360608B042303401020656A28400343D6
:10893C000820656B28400343F0200001E5682840BF
:10894C0003432068134343602268D3690A480340F9
:10895C00D361002323665D33E154002070BD5C338A
:10896C000022E2542000FEF7DBF89DE78022520142
:10897C00A8E70120F2E7C046FFF7FFFFF0B5CE46AF
:10898C0000B584B00400019191461D005C23C35CCA
:10899C00012B00D1CBE05C230122C254FFF7CEFDAA
:1089AC0006005D23E35CDFB2012B00D0B6E0019939
:1089BC00002900D1B3E04B46002B00D1AFE05D2382
:1089CC000322E25400232366A1634A46A287E2876E
:1089DC0023644422A3520232A3522365E36480230E
:1089EC001B02A2689A421ED023681A68520603D44E
:1089FC001A6840210A431A60E023DB00E2689A42BD
:108A0C003ED96368002B02D04B46012B20D1236842
:108A1C00A26B1288DA60A36B0233A363E38F013B72
:108A2C009BB2E38714E02268136840218B431360E8
:108A3C00226811688023DB010B431360D4E7FFF736
:108A4C007DFD801BA84201D36B1C14D1002D12D0CC
:108A5C00E18F89B2002946D023689A689207EED537
:108A6C00A26B1288DA60A36B0233A363E38F013B22
:108A7C009BB2E387ECE75D230122E25403274EE02F
:108A8C006368002B02D04B46012B14D1A36B1B78CF
:108A9C0022681373A36B0133A363E38F013B9BB277
:108AAC00E38708E0FFF74AFD801BA84201D36B1C4B
:108ABC0014D1002D12D0E18F89B2002913D0236874
:108ACC009A689207EED5A26B12781A73A36B0133D6
:108ADC00A363E38F013B9BB2E387ECE75D230122A9
:108AEC00E25403271BE0320029002000FFF748FE68
:108AFC00002801D020232366A368002B06D1039302
:108B0C002368DA6803929B680393039B236E002B04
:108B1C0005D15D330122E254002700E002275C23DB
:108B2C000022E254380004B080BCB946F0BD0227E4
:108B3C00F8E70000F0B583B00400009101921E002C
:108B4C00089D5C23C35C012B00D11EE15C23012238
:108B5C00C254FFF7F3FC07005D23E35CD9B26268F3
:108B6C00012B0BD082235B009A4200D0FBE0A36860
:108B7C00002B00D0FDE0042900D0FCE0009B002B72
:108B8C0000D1FAE0019B002B00D1F8E0002E00D1BF
:108B9C00F7E05D23E35C042B02D05D230522E25455
:108BAC0000232366019A22644622A652023AA65258
:108BBC00009AA263E687A687E3642365E023DB00C3
:108BCC00E2689A4223D92268536871490B4053607A
:108BDC0023681A68520603D41A6840210A431A60A3
:108BEC00E023DB00E2689A4258D96368002B01D07D
:108BFC00012E0AD12368A26B1288DA60A36B0233B0
:108C0C00A363E38F013B9BB2E38701262DE022682F
:108C1C00516880235B010B435360D9E7A26B128828
:108C2C00DA60A36B0233A363E38F013B9BB2E38750
:108C3C00002623689A68D20710D54622A25A92B20F
:108C4C00002A0BD0DB68226C1380236C0233236464
:108C5C004622A35A013B9BB2A3520126FFF76EFC9E
:108C6C00C01BA84201D36B1C13D1E38F9BB2002B0A
:108C7C0004D14633E35A9BB2002B63D023689A6825
:108C8C009207D6D5E28F92B2002AD2D0012ED0D143
:108C9C00C4E75D230122E254032065E06368002BE6
:108CAC0001D0012E0AD1A36B1B7822681373A36B1E
:108CBC000133A363E38F013B9BB2E38701261DE0E5
:108CCC0023689A68D20710D54622A25A92B2002A7B
:108CDC000BD01B7B226C1370236C01332364462254
:108CEC00A35A013B9BB2A3520126FFF727FCC01BE2
:108CFC00A84201D36B1C20D1002D1ED0E38F9BB258
:108D0C00002B04D14633E35A9BB2002B1AD02368B4
:108D1C009A689207D4D5E28F92B2002AD0D0012E55
:108D2C00CED1A26B12781A73A36B0133A363E38FBA
:108D3C00013B9BB2E3870026C2E75D230122E2548C
:108D4C00032011E03A0029002000FFF719FD00284C
:108D5C0002D0202323660120236E002B13D15D3318
:108D6C000122E25400E002205C230022E25403B012
:108D7C00F0BD0220F8E70220F6E70120F4E701201D
:108D8C00F2E70120F0E70120EEE70220EFE7C04612
:108D9C00FFEFFFFFF0B5CE4600B584B004000391A1
:108DAC0016001D005D23C35CDFB2012B00D0BAE0BE
:108DBC000433FF3342689A423DD05C23E35C012BC1
:108DCC0000D1B9E05C230122E254FFF7B7FB8146E6
:108DDC000399002900D1A7E0002E00D1A4E05D2367
:108DEC000422E2540023236621644032A65202324C
:108DFC00A652A363A387E387E3642365E023DB0028
:108E0C00E2689A4224D9226853684C490B4053605B
:108E1C0080231B02A2689A4221D023681A6852064A
:108E2C0003D41A6840210A431A60E023DB00E2688D
:108E3C009A4229D94CE08368002BBED15D330422C1
:108E4C00C254009533000A00FFF774FE07006EE071
:108E5C002268516880235B010B435360D8E722687A
:108E6C00136840218B4313602268136834490B400C
:108E7C001360D2E7FFF762FB4B46C01AA84201D33E
:108E8C006B1C16D1002D14D04623E35A9BB2002B39
:108E9C0038D023689A68D207ECD51B7B226C1370F0
:108EAC00236C013323644622A35A013B9BB2A35289
:108EBC00EAE75D230122E254032735E0FFF73EFB8E
:108ECC004B46C01AA84201D36B1C16D1002D14D0EE
:108EDC004623E25A92B2002A14D023689A68D20729
:108EEC00ECD5DB68226C1380236C0233236446229E
:108EFC00A35A013B9BB2A352EAE75D230122E25441
:108F0C00032711E04A4629002000FFF76DFC0028DA
:108F1C0001D020232366236E002B05D15D33012263
:108F2C00E254002700E002275C230022E2543800C0
:108F3C0004B080BCB946F0BD0227F8E7FFEFFFFF95
:108F4C00FFBFFFFF30B5EFF31084012282F31088CE
:108F5C0001680B68124D2B400B6084F31088EFF303
:108F6C00108182F31088026893680E4C2340936042
:108F7C0081F31088C36E012B06D08C232022C250A3
:108F8C000023C366436730BDEFF3108183F3108871
:108F9C00026813681024A343136081F31088ECE774
:108FAC00DFFEFFFFFEFFFFEFF8B5040001688368EA
:108FBC000269134342691343C26913430A68AA48FE
:108FCC00024013430B6022685368A8490B40E168C8
:108FDC000B435360A1692268A54B9A4201D0236AC6
:108FEC0019439368A34803400B4393602268D36AE8
:108FFC000F218B43616A0B43D36222689E4B9A42CA
:10900C000ED09E4B9A4248D09D4B9A4200D17BE0A9
:10901C009C4B9A427AD0964B9A424FD010230BE03D
:10902C00994B596D03230B40022B5FD031D8002B89
:10903C005ED0012B5ED103338D498A4270D0E0693A
:10904C0080221202904200D1B4E0042B00D1FDE04A
:10905C0000D9E5E0002B00D1F1E0022B00D0DDE0DF
:10906C008A48636A5B008A4A995AFDF757F8636825
:10907C005B08C0186168FDF751F80200103A854B87
:10908C009A4200D9EDE023680004000CD86000205F
:10909C00CCE0032B30D10533CEE77B4B596D0C2341
:1090AC000B40082B2AD005D8002B29D0042BC3D079
:1090BC001023C1E70C2B25D1043BBDE7724B5B6D34
:1090CC00C02109010B40802109018B4220D007D817
:1090DC00002B1FD08021C9008B421DD10423ABE78C
:1090EC00C02109018B4219D10823A5E70223A3E76C
:1090FC000023A1E710239FE710239DE702239BE7A2
:10910C00002399E7102397E7002395E7002393E7C3
:10911C00022391E700238FE710238DE710238BE7C1
:10912C00042B43D034D8002B39D0022B2ED1574DE1
:10913C00636A5B00564A9F5A39002800FCF7EEFF21
:10914C00666873009B19834200D982E03303834223
:10915C0000D280E03A00002328000021FDF754F9EA
:10916C00050E0B022B430202700800218018594196
:10917C0032000023FDF748F9474BC218474B9A427F
:10918C0000D96AE02368D86000204FE001204DE050
:10919C00082B02D180252D02CAE7012046E0FEF7FC
:1091AC007BFD0500002DC3D100203FE0FEF74CFCF9
:1091BC000500F7E7042B2ED023D8002B25D0022B4B
:1091CC001DD13248636A5B00314A995AFCF7A6FFFD
:1091DC00400063685B08C0186168FCF79FFF0200E1
:1091EC00103A2C4B9A423AD882B20F239A43400839
:1091FC00083B184010432368D860002016E001207B
:10920C0014E0082BDED0012010E0FEF745FD00280D
:10921C00D8D100200AE0FEF717FCF8E7012005E0A2
:10922C00082B02D1802000021BE7012001236A22B7
:10923C00A352023AA35200236367A367F8BDFEF75B
:10924C002BFD002800D00CE70020EFE7FEF7FCFB1D
:10925C00F7E70120EAE70120E8E70120E6E7012033
:10926C00E4E70120E2E7C046F369FFCFFFCFFFFF41
:10927C0000800040FFF4FF11003801400044004022
:10928C0000480040004C0040001002400024F40054
:10929C0090D50008EFFF000000FDFFFFFFFC0F0062
:1092AC00836A1B0706D5026853682C490B40816BF7
:1092BC000B435360836ADB0706D502685368284961
:1092CC000B40C16A0B435360836A9B0706D5026847
:1092DC00536824490B40016B0B435360836A5B0753
:1092EC0006D50268536820490B40416B0B43536011
:1092FC00836ADB0606D5026893681C490B40C16B78
:10930C000B439360836A9B0606D5026893681849E1
:10931C000B40016C0B439360836A5B060BD50268B0
:10932C00536814490B40416C0B43536080235B031F
:10933C00426C9A420AD0836A1B0606D502685368AF
:10934C000D490B40C16C0B43536070470268536866
:10935C000A490B40816C0B435360ECE7FF7FFFFF26
:10936C00FFFFFDFFFFFFFEFFFFFFFBFFFFEFFFFF18
:10937C00FFDFFFFFFFFFEFFFFFFFF7FFFFFF9FFF89
:10938C00F8B5CE46474680B506000D001700994645
:10939C00089B98463368DC692C40641B63425C4133
:1093AC00BC4233D143460133F4D0FFF7C7F84B46E8
:1093BC00C01A40452FD84346002B2ED033681A686C
:1093CC005207E7D5802DE5D0402DE3D0DA6912079E
:1093DC0010D4DA691205DDD5802212011A62300030
:1093EC00FFF7B0FD90232022F2500C3B0022F254E8
:1093FC0003200CE008241C623000FFF7A3FD90232F
:10940C00F4500C3B0022F254012000E00020C0BCC0
:10941C00B946B046F8BD0320F9E70320F7E7000092
:10942C0030B583B0040090230022C250FFF786F8B9
:10943C00050022681268130710D423681B685B07A9
:10944C002BD420238822A3500432A3500023E3669C
:10945C002367083AA354002003B030BD8021234B6E
:10946C0000930300002289032000FFF789FF0028E6
:10947C00E3D0EFF31081012383F310882268136883
:10948C0080208343136081F3108888232022E250CC
:10949C00043B0022E2547D38DEE78021134B00931D
:1094AC002B000022C9032000FFF76AFF0028C8D058
:1094BC00EFF31080012282F3108821680B680C4DA9
:1094CC002B400B6080F31088EFF3108082F3108830
:1094DC0021688B6893438B6080F310888C231F3238
:1094EC00E250083B0022E2540320B5E7FFFFFF01E6
:1094FC00DFFEFFFF10B5041E35D08823C358002BA8
:10950C0027D088232422E2502268136801218B4340
:10951C001360A36A002B22D12000FFF745FD012820
:10952C0016D02268536811490B4053602268936827
:10953C0022218B439360226893681A390B43936002
:10954C002268136807390B4313602000FFF768FF8C
:10955C0010BD84330022C254FDF76EFBD1E720000E
:10956C00FFF79EFED8E70120F2E7C046FFB7FFFFEA
:10957C00F8B50400436E002B05D101336A228352E7
:10958C00023A8352F8BD026895686D0E07231D40A0
:10959C009268520F1340084FF85CC000074EF15C04
:1095AC00FCF746FE6A23E052785DC000715DFCF763
:1095BC003FFE6823E052E5E7B0D50008A8D50008C7
:1095CC0070B58423C35C012B15D084240126065569
:1095DC00882524234351026813681168B143116034
:1095EC00064A13400022426601680B602023435157
:1095FC000255002070BD0220FCE7C046FFFFFFDFD4
:10960C00F8B504000A008423C35C012B1BD084250D
:10961C000120605588262423A35123681F681968EC
:10962C008143196020688368DB00D908114381608D
:10963C002000FFF79DFF23681F602023A351002308
:10964C0063550020F8BD0220FCE70000F8B50400CB
:10965C000B008422825C012A1BD0842501206055DA
:10966C0088262422A2512268176811688143116050
:10967C002268916808480140194391602000FFF767
:10968C0077FF23681F602023A3510023635500201C
:10969C00F8BD0220FCE7C046FFFFFFF1014B024A78
:1096AC009A60704700ED00E00060000810B5030000
:1096BC000C4A0D49521A0D490968002907D00B496B
:1096CC000868C318934206D8084A136010BD0749AE
:1096DC0007480860F3E702F075FB0C2303600120D8
:1096EC004042F3E70090002000040000CC0300206F
:1096FC00C07B00200120704710B502F063FB1623DD
:10970C0003600120404210BD10B501214942FFF712
:10971C00F3FFFEE770B50C001600002504E000E036
:10972C0000BF207001350134B542F8DB300070BD4C
:10973C0001204042704780239B014B600020704702
:10974C000120704700207047406800E00068002846
:10975C0002D003898B42F9D1704770B5040045687B
:10976C0001892800FFF7F0FF002805D1281D2100F2
:10977C0000F09DFD002070BD01204042FBE703007E
:10978C0010300A7CF02A08D08A721A7DCA725B7D6E
:10979C000B730B718B7C4B717047703AF4E70000C4
:1097AC00F0B5C64600B50600002398460AE04346CD
:1097BC000233DB009F5918E0324800F085FD01238D
:1097CC009C46E0444346002BF1DD80BCB846F0BD1E
:1097DC000C30210000F06BFD03E02100306800F03C
:1097EC0066FD29003800BB68984733689B68002BDE
:1097FC00E2D038007B689847051EE0D0306800F056
:10980C0047FD04001722002102F00FFB43460233F0
:10981C00DB00F3181B79A3710723EB56002B13DB2A
:10982C00281D210000F044F90028D6D1A18A30006F
:10983C00FFF78AFF002802D0037E002BC8D021003E
:10984C00306800F034FDCCE7281D210000F074FADC
:10985C00002812D1A18A3000FFF776FF002802D031
:10986C00037E002B04D02100306800F020FDB8E707
:10987C000C30210000F01BFDB3E72100306800F034
:10988C0016FDAEE718D6000870B50D00FFF777FF90
:10989C00041E20D0006803689847061E1DD0AB7AC2
:1098AC00002B0CD1011D280000F0C4F80500002D80
:1098BC000BD12068C36831009847280070BD011D8A
:1098CC00280000F0AEF90500F1E72068836831004C
:1098DC0098470225F1E70425EFE70125EDE770B580
:1098EC0006000C000B7C102B0BD0FFF7CDFF0500F6
:1098FC0080235B4203432372E379DB071CD52800EA
:10990C0070BD898AFFF720FF051E02D0037E002B55
:10991C0005D03068210000F0CAFC0025EFE72000DC
:10992C000A3021001031032202F076FA28000C30A4
:10993C00210000F0BCFCF0E73068210000F0B7FC1F
:10994C00DDE710B50389CB814068FFF7C8FF10BD78
:10995C0010B54369002B03D00C3000F099FC10BDFE
:10996C000020FCE710B5FFF7F8FE10BD30B5002461
:10997C00002C02DD0120404230BDA51CED002D580D
:10998C00002D01D00134F3E70234E400215000191A
:10999C00027143710020EFE770B504000D0018222E
:1099AC00002102F042FA256070BD000070B50B007A
:1099BC00847D027C002A28D1C2891D498A4220D08C
:1099CC00858A1B498D4223D119498A4223D0002C08
:1099DC0024D0C27D3F2115008D43802D21D151B261
:1099EC003F220A4040210A431A70013CE4B20100B4
:1099FC001831FC2C18D8581C220002F00DFA601CEF
:109A0C0070BD818A3F29DFD9DAE701204042F7E7B0
:109A1C0001204042F4E701204042F1E7012040429E
:109A2C00EEE701204042EBE701204042E8E7C04668
:109A3C00CDCD000010B50C00037B0B70837C4B70FC
:109A4C000331FFF7B3FF002801DBA070002010BD2D
:109A5C00F8B506000F00100017300023F356002B4A
:109A6C001ADB002595729479D4721574547411799B
:109A7C001173537993747B1E937533785B060ED4F4
:109A8C000A4BD38133789382FD2F0BD8711C7A1E2D
:109A9C0002F0C2F90020F8BD01204042FBE7012092
:109AAC004042F8E701204042F5E7C046CDCDFFFF2C
:109ABC0010B50A0003780B7143784B718178033031
:109ACC00FFF7C6FF10BD02280CD004280FD00028C9
:109ADC0003D002230B70137003E000230B700133CF
:109AEC001370704701230B7000231370F9E70123E7
:109AFC000B701370F5E7000010B51C00164B984264
:109B0C0004D0FF2817D80123137001E00023137031
:109B1C00114B994212D0FF2915D8012323701378C9
:109B2C001B0122781343102B12D0112B12D0012BB6
:109B3C000CD0062010BD02231370E9E79842EAD03E
:109B4C0000232370EBE702232370E8E70020F1E702
:109B5C000220EFE70420EDE7CDCD0000F0B583B097
:109B6C0005000C004E1C837AA02B47D000232A7CC6
:109B7C00F02A45D01901802252420A4322709A07DA
:109B8C0004D5EA7A6270E61C2A7BA270002B04D002
:109B9C006B7C3370AB7C737002366B46DF1DA98A0D
:109BAC00E88906333A00FFF7A7FF237803432370B5
:109BBC003B78002B02D0EB89337001366B460733B0
:109BCC001B78022B20D06B4606331B78002B02D05F
:109BDC00AB8A337001366B4606331B78022B18D0D8
:109BEC00341BAA7DA318FD2B18DC2900173130007B
:109BFC0002F012F9A87D201803B0F0BD0223B6E7DD
:109C0C0001221343DBB2B5E7EB891B0A3370013633
:109C1C00D9E7AB8A1B0A33700136E1E701204042D9
:109C2C00EAE710B50C0003790B7043794B700331E4
:109C3C00FFF794FF002801DBA070002010BD00008E
:109C4C00F0B5C64600B582B0050088461400411C2C
:109C5C0003783722180090430200802864D11B0936
:109C6C007D3A1A40980738D5A021A1726978E17223
:109C7C00E91CAF782773002A38D0DB0734D5F023E2
:109C8C0023740B7863748E1C4B78A3742B786A4600
:109C9C00D71D0620184006323900FFF714FF3A781A
:109CAC00002A2BD1234BE38133006A46063212780B
:109CBC00002A2ED11F4AA28219004D1B43465D1B60
:109CCC00EAB2A275FC2A32D82000173002F0A4F8B0
:109CDC00002002B080BCB846F0BD8020A072A779ED
:109CEC00E77227792773C6E7A023C9E7802323747B
:109CFC00A37963746379A3740E00C7E7731C31787E
:109D0C00E181022AD1D1727812021143E18101332F
:109D1C00CBE7591C1878A082022ACED15B781B02A3
:109D2C001843A0820131C8E701204042D1E701204D
:109D3C004042CEE7CDCDFFFF10B50A0003780B7182
:109D4C0043784B7181780330FFF77AFF10BDF0B583
:109D5C00C64600B582B0856B0B1D98468C790334D2
:109D6C006B46DF1D95233B706B6899881868002241
:109D7C00FEF788FA01267642330001223900286862
:109D8C00FEF7FCFDA2B2330041462868FEF7F6FD53
:109D9C006B68998818680122FEF774FA02B080BCCF
:109DAC00B846F0BD10B5806900F072FA10BD10B560
:109DBC001C3000F06DFA10BD10B5806900F077FA18
:109DCC0010BD10B5283000F072FA10BDF0B5CE46BB
:109DDC00474680B583B006000C00856B0B1D994679
:109DEC0007236B4498461423424613706B6899887A
:109DFC0018680022FEF746FA01277F423B00012239
:109E0C0041462868FEF7BAFD3B0003224946286804
:109E1C00FEF7C0FF6B68998818680122FEF732FACA
:109E2C00A579FD2D24D8B66BE31D98466B46DC1D39
:109E3C00142323707368998818680022FEF722FA9D
:109E4C003B00012221003068FEF798FDAAB23B00CE
:109E5C0041463068FEF79EFF7368998818680122A6
:109E6C00FEF710FA002003B0C0BCB946B046F0BDF6
:109E7C0001204042F7E770B582B0FF236A46D371E8
:109E8C00846B961D91716368998818680022FEF79F
:109E9C00F9F901256D422B00012231002068FEF7F3
:109EAC006DFD2B000122694607312068FEF772FF19
:109EBC006368998818680122FEF7E4F96B46D87933
:109ECC0002B070BDF0B585B06B46DD1DDA71846BE8
:109EDC0080235B420B430F276F443B706368998868
:109EEC0018680022FEF7CEF90126764233000122D3
:109EFC0039002068FEF742FD33000122290020685A
:109F0C00FEF73CFD6368998818680122FEF7BAF9E0
:109F1C0005B0F0BDF0B5C64600B582B006000F0026
:109F2C009046194B1D6848084019FCF7F7F884B2A5
:109F3C00013CA4B24346580828184146FCF7EEF8F9
:109F4C0085B2013DADB2E2B20C213000FFF7BAFF91
:109F5C00220A0D213000FFF7B5FFEAB20E213000C6
:109F6C00FFF7B0FF2A0A0F213000FFF7ABFF316972
:109F7C000195009443463A00044800F0A5F902B05C
:109F8C0080BCB846F0BDC046940000202CD600081A
:109F9C00F0B5C64600B506009046069C0269002A3C
:109FAC0023D0B161604A3260604A7260604AB2602C
:109FBC00604AF260B363F46331695F4800F084F97E
:109FCC00002C0FD0A18800222068FEF75BF902203C
:109FDC00FEF7BAFAA18820680122FEF753F9022095
:109FEC00FEF7B2FA0027FF250EE0544A0261D8E7CB
:109FFC007B1CDBB20A2F14D81F002C0000E00027BA
:10A00C00002000F0F7F9250000213000FFF733FFA6
:10A01C0004000138C0B2FD28F1D8A542E8D00027D1
:10A02C00EEE72A003169464800F04EF935750023F9
:10A03C000D22AA425B4173750F2D5DD802213000B1
:10A04C00FFF719FF40B20E2202400120024352B228
:10A05C0043469B7B012B64D010231A430221300012
:10A06C00FFF730FF43461A780B213000FFF72AFF29
:10A07C0043461A7B1A213000FFF724FF43465A7BD4
:10A08C001B213000FFF71EFF43461A7C05213000D0
:10A09C00FFF718FF43461A8A120A06213000FFF711
:10A0AC0011FF43469A7C07213000FFF70BFF434614
:10A0BC005A8A120A08213000FFF704FF43461A7D22
:10A0CC0009213000FFF7FEFE43469A6859683000BC
:10A0DC00FFF720FF3F2216213000FFF7F3FE346913
:10A0EC0010213000FFF7C7FE02002100154800F0D8
:10A0FC00EBF880BCB846F0BD733201213000FFF79D
:10A10C00E1FE346900213000FFF7B5FE02002100AA
:10A11C000D4800F0D9F8102235213000FFF7D2FE9F
:10A12C008CE71F3399E7C046B19D0008BB9D000822
:10A13C00C59D0008CF9D00085CD6000854D60008C9
:10A14C006CD60008ACD6000884D60008F8B504001C
:10A15C001021FFF790FE0500030721D4EB062CD449
:10A16C006B0637D42B0642D4AB074DD43423E35CB7
:10A17C00002B74D1A36A002B73D02000283000F080
:10A18C0087F8060001002000FFF7E1FDAB0660D464
:10A19C0034230122E254A069310000F088F860E019
:10A1AC002169354800F090F8637D002BD6D004224D
:10A1BC0016212000FFF786FED0E721692F4800F01A
:10A1CC0083F8637D002BCBD0082216212000FFF7EB
:10A1DC0079FEC5E721692A4800F076F8637D002BEB
:10A1EC00C0D0042217212000FFF76CFEBAE72169CA
:10A1FC00244800F069F8637D002BB5D008221721A4
:10A20C002000FFF75FFEAFE7A06900F041F8061EE3
:10A21C001AD001002000FFF7D9FD070003221621F8
:10A22C002000FFF74FFE002F08D02169164800F0E0
:10A23C004BF83100A06900F03AF897E720001C3089
:10A24C00310000F034F891E72169104800F03CF837
:10A25C008CE7032217212000FFF734FE9BE7AB06A7
:10A26C0000D4F8BD032217212000FFF72BFE342366
:10A27C000022E254F5E7C046C0D60008DCD6000840
:10A28C00F8D6000810D700082CD7000848D70008CB
:10A29C0003008268002A08D0006801681960013A3E
:10A2AC009A60002A00D15A6070470020FCE783684E
:10A2BC005A1C8260002B05D0436819604160002352
:10A2CC000B6070470160F9E70FB430B583B03A4BBF
:10A2DC001B68002B42D01B78002B3FD0374B5B68A0
:10A2EC001B689B68002B3ED0EFF3108372B6334A89
:10A2FC00526812689268022A3AD9314A1468002CC2
:10A30C003DD00021116083F3108807AB0193A27D2F
:10A31C00A221891A200017308018069A01F0F8FE45
:10A32C00A37DA122D21A904200DD10001818A0754E
:10A33C00EFF3108572B6A27D531EE318DB7D0A2B5A
:10A34C0005D0A12A03D01E4B1B68002B30D0210056
:10A35C001C48FFF7ACFF85F3108804E007A90191B6
:10A36C00069801F093FE03B030BC08BC04B018474B
:10A37C0015490A6801320A6083F31088F3E783F306
:10A38C0010880E4B5B681868FFF782FF041EEAD03A
:10A39C001722002101F049FD4023E3753F3BA375D3
:10A3AC000A4B196820001030062201F035FDACE78D
:10A3BC00034B1C60CFE7C046D40300200C000020E8
:10A3CC00F0030020E0030020D8030020D00300207D
:10A3DC0010B5054B58600548016005490A60180026
:10A3EC00FFF7C0FA10BDC0460C000020D0030020BF
:10A3FC00D403002070B505001D4B19681D4B1A685D
:10A40C0091421ED01C4B5B681B689B68022B18D9B1
:10A41C001A48FFF759FF174B1A68154B1A6010E0D2
:10A42C001748FFF735FF174B18600EE0154C002648
:10A43C002368DE71104B5B6818682168FFF737FFE3
:10A44C002660104B1B68002BEAD00E4B19680029B4
:10A45C000DD0094B5B681B69002B08D00124CC7113
:10A46C000548FFF76EFA0442E0D0002DE9D170BD2B
:10A47C00DC030020D80300200C00002068D7000863
:10A48C00E0030020EC03002070B50D00140001382F
:10A49C0001280ED890B20021884210D9094B1B68B4
:10A4AC001B68DA691206F9D56A5C9A62013189B2C5
:10A4BC00F2E701F087FC09230360012464422000C9
:10A4CC0070BDC04698000020F8B5364B1E88364B40
:10A4DC001F88364C6C220021200001F0A6FC344B66
:10A4EC0023800423FF336380053B2373E1235B024A
:10A4FC002361636101235B4223831533A383B4334C
:10A50C00E383A83B0122E2542A4D2000263002327C
:10A51C00290001F081FC0923638523002C332A8850
:10A52C00A285AA789A7010232386A0239B006386A9
:10A53C00A03BA3869D3BFF3B3222E2521E4B9E4228
:10A54C0007D01D4B9E4211D0184B1B79002B22D1EA
:10A55C00F8BD0423FF339F42F3D1144C2D32114923
:10A56C00200001F059FC01232371EDE73F0A012F74
:10A57C00EAD10E490B480B00020031CA31C331CA73
:10A58C0031C331CA31C311CA11C302230B71042365
:10A59C00FF334B80D8E7054803220021053001F03A
:10A5AC0044FCD5E700F8010802F80108F403002088
:10A5BC00CDCDFFFF6CD50008CDCD000070B58AB0B5
:10A5CC0005000E0001235B420993154B0340022248
:10A5DC00059202320692D90A07919B19DA0A521A8D
:10A5EC0008925B0501D001320892FDF79BFC041E1A
:10A5FC0010D0FDF717FD0443079B0294099A0192B2
:10A60C00089A0092320029000648FFF75DFE2000F0
:10A61C000AB070BD09A905A8FDF732FD0400E8E7F2
:10A62C00FFFFFFF780D70008F0B5C64600B507005E
:10A63C0090460731CD08FDF775FC0400002609E0B3
:10A64C00F300F91843441A685B680120FDF7B8FC65
:10A65C0004000136002C01D1AE42F1DBFDF7E2FC27
:10A66C00204380BCB846F0BD10B5802109010E48CE
:10A67C00FFF7A4FFC0B200280DD10C4A5F210A4895
:10A68C00FFF7D2FFC0B2002809D15F210848FFF7BD
:10A69C001BFE002010BD0748FFF716FEEDE706482D
:10A6AC00FFF712FE0120F5E700F80108F403002083
:10A6BC00D4D70008B4D7000800D80008F0B5C646B7
:10A6CC0000B582B00120FFF795FE8448FFF7FCFD32
:10A6DC000120FFF78FFE824C824B00932300022255
:10A6EC0002218148FFF7F0FD804E814B009333002F
:10A6FC00012204217F48FFF7E7FD0120FFF77AFED6
:10A70C007D4F7E4B00933B00012205217C48FFF7D7
:10A71C00DBFD7C4B00933B00012207217A48FFF7BD
:10A72C00D3FD7A4D2800FFF7CFFD0120FFF762FE25
:10A73C00774B0093330001220C217648FFF7C4FDC0
:10A74C00754B9846754B0093434604221021744870
:10A75C00FFF7BAFD0120FFF74DFE724B0093434605
:10A76C00042214217048FFF7AFFD704B9846704BD4
:10A77C0000934346022218216E48FFF7A5FD0120E5
:10A78C00FFF738FE6C4B0093330001221A216B4803
:10A79C00FFF79AFD6A4B0093230002221C216948A3
:10A7AC00FFF792FD0120FFF725FE674B0093230076
:10A7BC0002221E216548FFF787FD654B009333008D
:10A7CC00012220216348FFF77FFD6348FFF77CFDE2
:10A7DC000120FFF70FFE614B00933B000122242167
:10A7EC005F48FFF771FD5F4B009343460322262120
:10A7FC005D48FFF769FD5D4B0093230002222A217F
:10A80C005B48FFF761FD2800FFF75EFD0120FFF7B5
:10A81C00F1FD584B0093434603222C215648FFF779
:10A82C0053FD564B00932300022230215448FFF76E
:10A83C004BFD2800FFF748FD0120FFF7DBFD514BD6
:10A84C0000932300022232214F48FFF73DFD4F4B6E
:10A85C0000932300022234214D48FFF735FD2800D8
:10A86C00FFF732FD0120FFF7C5FD4A4B00933B007B
:10A87C00012242214848FFF727FD484B0093230053
:10A88C00022244214648FFF71FFD464B009333003C
:10A89C00012246214448FFF717FD2800FFF714FD5D
:10A8AC000120FFF7A7FD414B0093330001225F21EC
:10A8BC003F48FFF709FD3F4B00933B000122692104
:10A8CC003D48FFF701FD2800FFF7FEFC0120FFF7D4
:10A8DC0091FD02B080BCB846F0BDC04620D800083F
:10A8EC0034D800086CD8000838D800087CD8000888
:10A8FC00B4D8000880D80008F0D8000828D900087F
:10A90C00F4D8000870D900083CD9000898D9000880
:10A91C00D4D90008A0D90008F4D9000830DA00080E
:10A92C00F8D9000888DA000850DA0008ACDA000818
:10A93C00ECDA0008B0DA000838DB000800DB0008AD
:10A94C0098DB000858DB0008F0DB0008B0DB0008DF
:10A95C004CDC000810DC000864DC00089CDC0008FF
:10A96C006CDC000808DD0008D0DC000864DD0008A1
:10A97C002CDD0008BCDD000884DD000810DE0008BA
:10A98C00D8DD000858DE000828DE000898DE000834
:10A99C0068DE0008D8DE0008A8DE00082CDF0008FE
:10A9AC00F8DE000868DF00083CDF00089CDF0008C8
:10A9BC006CDF000804E00008D4DF000830B587B075
:10A9CC0001AA0F4B32CB32C211001A680A601B79F4
:10A9DC000B7100230DE00B4A9A18157829095A00BF
:10A9EC0001AC615C81540F2129400132615C8154BE
:10A9FC0001330B2BEFDD0023037607B030BDC046CF
:10AA0C0088E000089075FF1FF0B5DE4657464E46AD
:10AA1C004546E0B585B081460E0093469846002B1E
:10AA2C000CD02D4F4346002B0AD02C4B1B689A465A
:10AA3C000024002303935346029327E0284FF1E7A9
:10AA4C00284B1B689A46F3E763001B199B00FB1805
:10AA5C005B6826E0019268468088B446DC44E24597
:10AA6C0003DC614502DD614600E011008DB2A842B5
:10AA7C000BD0801A80B2019D491BC9B24546002DEE
:10AA8C0020D0921B4244984703900134029B9C4275
:10AA9C001ADA4B46002BD7D063001B199B00FB180E
:10AAAC009B68002BF1D0620012199200B918BA5AA7
:10AABC009246498851189642CCD301968E42CADDF3
:10AACC000191C8E74246DEE7039805B0F0BCBB46EF
:10AADC00B246A946A046F0BD300000203C00002044
:10AAEC00600400206004002070B5084D2800FFF7BA
:10AAFC0065FF074C074B2A000749200001F088FA34
:10AB0C0021000648FFF7E0FB70BDC046640400203E
:10AB1C00800400209CE00008A4E00008BCE00008D1
:10AB2C00F0B5DE4657464E464546E0B585B04E4834
:10AB3C00FEF70EFF041E10D0C38A012B14D0837DA8
:10AB4C00042B02D9C37D102B2BD04848FFF7BCFB3C
:10AB5C00474B18682100FFF7AAFB05B0F0BCBB46B9
:10AB6C00B246A946A046F0BD7F33C375414D18309F
:10AB7C00290001F06DFA2800FBF7BEFA0130A07530
:10AB8C002000103021000A31062201F045F9210085
:10AB9C003548FEF7D6FE384A11797F230B401371E6
:10ABAC00DBE7038B994601F0F5F90500494633487C
:10ABBC00FBF73EFB01002800FBF73AFBA37EE27E8D
:10ABCC0090462D4A177BA27DA2180021D1751C221C
:10ABDC009246A24405042D0C1E00BB46524602921E
:10ABEC000197424600924A4629002548FFF76CFB24
:10ABFC00BE4204D84646B84500D93E1CF6B2B34511
:10AC0C0006D01D4A117980235B420B4313719CE7DC
:10AC1C005146184801F024FA0028F2D0FDF78EFCBA
:10AC2C000600FDF78BFC801BA842FAD38023E3754A
:10AC3C00104D20001830290001F00AFA2800FBF70B
:10AC4C005BFA0130A0752000103021000A31062279
:10AC5C0001F0E2F821000448FEF773FE064A117970
:10AC6C007F230B40137178E74000002008E10008B7
:10AC7C00E404002080040020F4030020FFFFFF7F89
:10AC8C00CCE00008F0B5CE46474680B583B06848A6
:10AC9C00FEF75EFE041E30D0664B1B795BB2002BB8
:10ACAC0030DBC38A042B37D0C27D202A5ED08222AF
:10ACBC005200934200D0B1E0278BA57EFB2D00DD26
:10ACCC00FB25EEB2200018305B4979182A0001F000
:10ACDC00A3F82A0039005948FFF7F6FA8023E375E8
:10ACEC000136A6752000103021000A31062201F031
:10ACFC0093F821004E48FEF724FE03B0C0BCB946C1
:10AD0C00B046F0BD817D4E48FFF7DEFA4D4B18681A
:10AD1C002100FFF7CCFAF0E7038B9846857EFB2DDC
:10AD2C0000DDFB25EFB200233A0041460020FFF77F
:10AD3C006BFE061E0BD02A0041464348FFF7C4FAAF
:10AD4C00802040420643E6750137A775CAE720000C
:10AD5C0018302A003749414401F05EF800233A00CC
:10AD6C0041460120FFF750FE0600E4E7877D032FE4
:10AD7C009DD9058B033FFFB21A2398468044EFF30D
:10AD8C00108972B643463A0029000020FFF73CFEBA
:10AD9C00061E39D089F3108833003A0029002B485D
:10ADAC00FFF792FA0123A375802040420643E67513
:10ADBC0098E701926B469B88E819824203DC0A00F3
:10ADCC00814200DD020091B28B420BD0019B180432
:10ADDC00000C411B41441204120C121A154BC018E2
:10ADEC0001F01AF801361A4B1B68B3420EDDB300A2
:10ADFC00184A9918D25A498851189542D9D30195B5
:10AE0C008D42D7DD0191D5E70026ECE743463A00A9
:10AE1C0029000120FFF7F8FD0600BBE7A17D0E48D5
:10AE2C00FFF752FA074B18682100FFF740FA64E766
:10AE3C005C000020F40300201CE0000874E1000812
:10AE4C001CE10008E404002038E1000850E100088F
:10AE5C002C0000202800002090E10008F8B52C48B8
:10AE6C00FEF776FD041E50D0C38A2A4A934211D0B5
:10AE7C00062B1CD0C37D202B02D1817D05292CD81B
:10AE8C00A17D2548FFF720FA244B18682100FFF715
:10AE9C000EFA3AE0C1698069FFF790FB0123A375B4
:10AEAC00002802D17F33E37524E08123FBE7876917
:10AEBC00057FFB2D00DDFB25EEB2200018302A00AB
:10AECC00390000F0A9FF2A0039001548FFF7FCF9FA
:10AEDC008023E3750136A6750CE00539C9B2020072
:10AEEC001C328069FFF7A0FB0123A37500280DD14C
:10AEFC007F33E3752000103021000A31062200F068
:10AF0C008BFF21000248FEF71CFDF8BD8123F0E702
:10AF1C0078000020092F0000C4E10008E4040020A0
:10AF2C00ACE1000810B50C48FEF71CFD0B48FEF711
:10AF3C0019FD0B48FEF716FDFFF7D6FD094B1C68F3
:10AF4C00094B18682418094B18682418FDF7F6FAF1
:10AF5C00201800F0EFFF10BD5C00002078000020EE
:10AF6C00400000209075FF1F9475FF1F9875FF1F00
:10AF7C0010B50F4BDB79002B0AD10D4B5B79002BF5
:10AF8C000CD1FFF7CDFDFFF77DFEFFF767FF10BD7E
:10AF9C00074B0022DA71FFF767FBEEE7BFF34F8F29
:10AFAC00044B054ADA60BFF34F8FC046FDE7C0463D
:10AFBC00F403002000ED00E00400FA0510B582B0A7
:10AFCC0043494448FEF7E8FC002408E0A1010919B4
:10AFDC008900414BC9184148FFF769F901346D2CC0
:10AFEC00F4DD00240AE021010919890009198900FE
:10AFFC003B4BC9183648FFF75AF90134052CF2DDE2
:10B00C00384C00230093384B384A34492000FEF763
:10B01C00BFFF217D0F294DD9324C02223221200055
:10B02C00FEF750FF32212000FEF725FF01003048CB
:10B03C00FFF74AF9492230212000FEF743FF302167
:10B04C002000FEF718FF01002A48FFF73DF93321D5
:10B05C002000FEF710FF01002748FFF735F91022FA
:10B06C0033212000FEF72EFF36212000FEF703FFD0
:10B07C0001002248FFF728F9012211002000FEF7F9
:10B08C0021FF36212000FEF7F6FE01001C48FFF7D9
:10B09C001BF900212000FEF7EEFE01001948FFF716
:10B0AC0013F9194A137B127A0E490A48FEF75EFC13
:10B0BC0002B010BD1548FFF707F9154B154A1A6079
:10B0CC00114B5A6919690748FEF724FFE9E7C04696
:10B0DC00387B0020E4040020FC040020B474002021
:10B0EC00C0740020447B0020B40000200004002029
:10B0FC00E0E10008F0E1000804E2000818E20008B2
:10B10C0030E2000858E20008F40300207CE200085A
:10B11C0094000020005A620270B52D4C0134FF34AB
:10B12C002C4B998818680122FDF7ACF82A4B9988AA
:10B13C0018680122FDF7A6F8284800F0F1FE284A0D
:10B14C00284B22606360FFF7BFF9274DA91C2A002A
:10B15C002648FFF73DF9FFF731FF0120FFF74AF9C9
:10B16C00FFF7E0FE243D2B79002B2ED020492148FF
:10B17C00FFF7AAF8FFF7A2FA00F064F8154B9988CC
:10B18C0018680022FDF77EF800F0CAF81A48FEF79E
:10B19C00DDFF1648FEF704FBFFF7EAFE174A6923AA
:10B1AC00D25C802189011648FDF76CF80020FFF76E
:10B1BC0021F962680A4B2168994202D1094B9A42E3
:10B1CC00E2D0104800F0ACFEFEE70F49CFE7C046D6
:10B1DC00C07B0020A40000209C000020C4E20008DA
:10B1EC0034341212CDCDABAB18040020E404002093
:10B1FC00B4E20008E0E20008447B0020F4030020E5
:10B20C0000080050F4E20008A8E2000870B50B4AF0
:10B21C004223D35C002B01D1002070BD14004426C6
:10B22C00915B4625525D0648FFF74EF8A05B00F097
:10B23C00FFFA605D00F036FBEEE7C046F403002039
:10B24C0004E30008F8B5DE4657464E464546E0B5E1
:10B25C0000F0CAFC202211212848FEF733FE284BAF
:10B26C009B461800FFF714F8264D2860264B9A468B
:10B27C001860264C237B03712E239946E35C4371A3
:10B28C00032383718022C271238E03724021417289
:10B29C000A301F4EB04630601E4F00263E702E60A6
:10B2AC005846FEF7F5FF286053465860237B037120
:10B2BC004B46E35C4371032383718022C271238E5E
:10B2CC000372402141720A30434658607E702E60F2
:10B2DC0000223F390520FDF78DF80F4B0122DA6073
:10B2EC000E4AC0235B002021D1500520FDF7B2F897
:10B2FC00F0BCBB46B246A946A046F8BD447B002034
:10B30C00B4740020947B0020887B0020F403002080
:10B31C009C7B0020987B00200018024000E100E09C
:10B32C00F8B5954B1A6904231340944A1268002A05
:10B33C0003D0002B26D0002400E000248F4A136099
:10B34C008F4B1B78002B00D0D1E08E4A53701370BA
:10B35C008D4A1370002C00D1C9E08C4A5F33D35C4A
:10B36C00002B00D1C3E08A48FEF7AEFF874A5F236B
:10B37C00D35CFF2B02D05F230021D154804B0122E0
:10B38C001A70B4E00124D9E78248FEF781FF824BA2
:10B39C001860B5E07A4B1B78002B00D1B5E0784BE8
:10B3AC0000221A707D4B01321A707D48FEF78CFF1B
:10B3BC00ABE07A4B01221A70714B00221A7079485B
:10B3CC00FEF782FFAEE0784C980001598D79521946
:10B3DC008A71714D2A6802516C4C267B16712E268F
:10B3EC00A65D5671032696717D36D671248E147225
:10B3FC00402454720A326D4C025100226148C254EE
:10B40C002A605F4B1B78012B16D020255E480278F2
:10B41C00541C04700F2313402B434A7A13434B7272
:10B42C006348FEF744FF564B1B78012B00D083E09A
:10B43C00534B02221A707FE01025E7E75C48FEF7B9
:10B44C0027FF0100A023DB05802212029A62594AD1
:10B45C009523106803735848046823680125AB438F
:10B46C0023608C79036803345C6014680C349C6032
:10B47C00081DD860186828431860126853680220A9
:10B48C00034353604C4B1B685B68002BFAD19368E9
:10B49C001B06FCD4A023DB05802212029A61474ACA
:10B4AC0034230120D0543B48FEF701FF4DE0A0238C
:10B4BC00DB05802212029A623E4B1B6897221A739C
:10B4CC009A689207FCD503221A739A681206FCD468
:10B4DC00A023DB05802212029A61384A3423002112
:10B4EC00D1543BE00024254A1360002C6CD1244B32
:10B4FC001B78002B68D0284B1B68002B00D143E72E
:10B50C00254B1B68002B00D144E71D4B1B78002BEF
:10B51C005AD01C4B1B78F62B04D91A4B5B78F62BA4
:10B52C0000D946E7264B1B7801225340DBB2154A63
:10B53C00D25CF62A00D946E7204A3423D35C002B90
:10B54C0003D1936A002B00D078E71C4A3423D35CD8
:10B55C00002B03D01B4B1B691B07A8D5064B1A6984
:10B56C0004231340054A1268002ABBD0002B01D0DB
:10B57C000024B8E70124B6E700040050A87B0020A3
:10B58C00A57B0020987B0020907B0020F4030020FA
:10B59C0030E30008B4740020947B0020847B0020EE
:10B5AC0040E3000854E30008887B00209C7B0020CB
:10B5BC006C7B00205002002044010020447B0020C2
:10B5CC00A47B0020000C00504F4B1B68002B00D1BB
:10B5DC0071E04D4B1B68002B00D172E04A4B1B688D
:10B5EC00002B3CD0494B1B78002B38D0002C36D08C
:10B5FC00474E3278474C93001959474D28780F2302
:10B60C000340487A0343302003434B72434FBB5CE7
:10B61C008A799B188B714248C368984730783A49AD
:10B62C000B68860033513F4A147B1C712E24145D29
:10B63C005C7103249C717D34DC71128E1A72402271
:10B64C005A720A33384AB35000243C540C603748C1
:10B65C00FEF73AFE2D4B1C707C703C702C702A4B04
:10B66C001B68002B3CD0284B1B68002B3ED0264B74
:10B67C00196800291ED02E4B1B78002B1AD00024E1
:10B68C002B4B1C70274B1A7B0A712E229A5C4A7129
:10B69C0003228A717D32CA711B8E0B721E4B1A7873
:10B6AC000F231340402213434B721D48C368984725
:10B6BC00154B1C60F8BD1F48FEF7EAFD124B1860D5
:10B6CC0087E7124B1B78002B00D187E70F4B00222A
:10B6DC001A70174B01321A701748FEF7F5FD7DE70B
:10B6EC001448FEF7D5FD084B1860BCE7074B1B78D8
:10B6FC00002BBCD0054B00221A700D4B01321A7076
:10B70C000D48FEF7E1FDB2E7947B0020A57B0020FD
:10B71C00A47B0020887B0020907B0020987B00205D
:10B72C00447B0020F40300209C7B002064E3000891
:10B73C00847B0020B474002040E30008012170B524
:10B74C00104A114BD1601B78002B1AD00F4C1048AB
:10B75C002278835CF62B14D80E4D05312D692940C7
:10B76C0006290ED19A31C9050D690B4996007158FD
:10B77C00CD540133DBB28354F72B02D101235A4051
:10B78C00227070BD00180240A57B0020A47B002015
:10B79C00987B0020000400509C7B002010B586B0E4
:10B7AC0017236B441A700A00017900680124644263
:10B7BC0002940234019400930123FBF7B9FC06B008
:10B7CC0010BD10B586B017246C44FF2323700A00FB
:10B7DC0001790068013BFF3B029302330193009413
:10B7EC00FBF776FD207806B010BD000010B50024E4
:10B7FC0008E00C4B61005A185278C95C0A48FFF7F4
:10B80C00CDFF0134072CF4D9002408E0074B61006C
:10B81C005A185278C95C0448FFF7C0FF0134062C53
:10B82C00F4D910BD30E50008BC000020BCE30008D2
:10B83C0070B505001A4C0122FF212000FFF7AEFF66
:10B84C0013212000FFF7BDFF01239843C2B213213F
:10B85C002000FFF7A3FF45212000FFF7B2FF42B203
:10B86C003F239A43A80A0243D2B245212000FFF796
:10B87C0095FFAA08D2B210212000FFF78FFF0421F8
:10B88C002000FFF79EFF42B203239A43032005409A
:10B89C002A43D2B204212000FFF780FF70BDC046BE
:10B8AC00BC00002070B50500154C0122FF212000C2
:10B8BC00FFF774FF13212000FFF783FF0423984345
:10B8CC00C2B213212000FFF769FF14212000FFF7FB
:10B8DC0078FF1F22024014212000FFF75FFF2A008F
:10B8EC0000212000FFF75AFF45212000FFF769FFD8
:10B8FC003F22024045212000FFF750FF70BDC0469B
:10B90C00BC000020F8B5032834D021D8012835D04C
:10B91C00022823D14F25412665271A4C0022FF21EE
:10B92C002000FFF73BFF4022C7212000FFF736FF26
:10B93C003A00CC212000FFF731FF3200CD2120004E
:10B94C00FFF72CFF2A00CE212000FFF727FFF8BDC0
:10B95C00042803D171253F264227DEE7094C00223B
:10B96C00FF212000FFF71AFF1022C7212000FFF74C
:10B97C0015FFECE7662541265227CEE754254126D4
:10B98C005E27CAE7BC00002070B5041D2401082006
:10B99C00044364B2E4B2104D0022FF212800FFF7EB
:10B9AC00FDFE00227C212800FFF7F8FE02227D21FB
:10B9BC002800FFF7F3FE03227C212800FFF7EEFEA0
:10B9CC0022007D212800FFF7E9FE22007D212800BE
:10B9DC00FFF7E4FE70BDC046BC00002070B504004B
:10B9EC00114D0022FF212800FFF7D8FE00227C21F8
:10B9FC002800FFF7D3FE04227D212800FFF7CEFE9E
:10BA0C0009227C212800FFF7C9FE0234E2B21201A0
:10BA1C00D2B27D212800FFF7C1FE00227D21280033
:10BA2C00FFF7BCFE70BDC046BC00002070B50128FD
:10BA3C0035D02FDC831C35D0431C36D12A251C264F
:10BA4C001D4C0022FF212000FFF7A8FE00227C21C4
:10BA5C002000FFF7A3FE04227D212000FFF79EFEAD
:10BA6C0007227C212000FFF799FE20227D21200057
:10BA7C00FFF794FE32007D212000FFF78FFE2A0095
:10BA8C007D212000FFF78AFE06227D212000FFF792
:10BA9C0085FE70BD02280BD10C252826D0E7162573
:10BAAC002426CDE734251826CAE720252E00C7E723
:10BABC0020252026C4E7C046BC00002070B58307B3
:10BACC002AD18B072BD184088D08164E0022FF211A
