:020000040800F2
:1060000000900020FDCE0008956A0008A56A0008EF
:106010000000000000000000000000000000000080
:10602000000000000000000000000000B56A000849
:106030000000000000000000B76A0008B96A00080C
:106040004DCF00084DCF00084DCF00084DCF0008C0
:106050004DCF00084DCF0008C16A0008CB6A000888
:106060004DCF0008D96A0008E96A0008016B0008F2
:106070004DCF00084DCF00084DCF00084DCF000890
:106080004DCF00084DCF00084DCF00084DCF000880
:106090004DCF00084DCF00084DCF00084DCF000870
:1060A0004DCF00084DCF00084DCF00084DCF000860
:0C60B0004DCF00084DCF00084DCF000878
:1060BC0010B5064C2378002B07D1054B002B02D0D2
:1060CC00044800E000BF0123237010BD50010020E4
:1060DC0000000000D0E60008044B10B5002B03D0E4
:1060EC000349044800E000BF10BDC046000000009A
:1060FC0054010020D0E600080023C25C0133002AC2
:10610C00FBD1581E7047000003B47146490840008B
:10611C004900095E49008E4403BC704700224308C5
:10612C008B4274D303098B425FD3030A8B4244D353
:10613C00030B8B4228D3030C8B420DD3FF22090295
:10614C0012BA030C8B4202D31212090265D0030B54
:10615C008B4219D300E0090AC30B8B4201D3CB034A
:10616C00C01A5241830B8B4201D38B03C01A52418C
:10617C00430B8B4201D34B03C01A5241030B8B428E
:10618C0001D30B03C01A5241C30A8B4201D3CB0279
:10619C00C01A5241830A8B4201D38B02C01A52415E
:1061AC00430A8B4201D34B02C01A5241030A8B4261
:1061BC0001D30B02C01A5241CDD2C3098B4201D379
:1061CC00CB01C01A524183098B4201D38B01C01AF7
:1061DC00524143098B4201D34B01C01A524103096E
:1061EC008B4201D30B01C01A5241C3088B4201D31D
:1061FC00CB00C01A524183088B4201D38B00C01ACA
:10620C00524143088B4201D34B00C01A5241411AF0
:10621C0000D20146524110467047FFE701B50020FD
:10622C0000F0F0F802BDC0460029F7D076E77047C1
:10623C0003460B437FD4002243088B4274D30309DB
:10624C008B425FD3030A8B4244D3030B8B4228D37C
:10625C00030C8B420DD3FF22090212BA030C8B42A2
:10626C0002D31212090265D0030B8B4219D300E042
:10627C00090AC30B8B4201D3CB03C01A5241830BC7
:10628C008B4201D38B03C01A5241430B8B4201D377
:10629C004B03C01A5241030B8B4201D30B03C01AA0
:1062AC005241C30A8B4201D3CB02C01A5241830A1A
:1062BC008B4201D38B02C01A5241430A8B4201D349
:1062CC004B02C01A5241030A8B4201D30B02C01A73
:1062DC005241CDD2C3098B4201D3CB01C01A5241DA
:1062EC0083098B4201D38B01C01A524143098B4263
:1062FC0001D34B01C01A524103098B4201D30B014C
:10630C00C01A5241C3088B4201D3CB00C01A524170
:10631C0083088B4201D38B00C01A524143088B4235
:10632C0001D34B00C01A5241411A00D201465241CE
:10633C00104670475DE0CA0F00D04942031000D3ED
:10634C004042534000229C4603098B422DD3030A42
:10635C008B4212D3FC22890112BA030A8B420CD352
:10636C00890192118B4208D3890192118B4204D37B
:10637C0089013AD0921100E08909C3098B4201D3FB
:10638C00CB01C01A524183098B4201D38B01C01A35
:10639C00524143098B4201D34B01C01A52410309AC
:1063AC008B4201D30B01C01A5241C3088B4201D35B
:1063BC00CB00C01A524183088B4201D38B00C01A08
:1063CC005241D9D243088B4201D34B00C01A5241DF
:1063DC00411A00D20146634652415B10104601D36C
:1063EC004042002B00D54942704763465B1000D3F6
:1063FC00404201B5002000F005F802BD0029F8D09C
:10640C0016E770477047C046002B11D1002A0FD1F8
:10641C00002900D1002802D00021C943080007B48C
:10642C00024802A14018029003BDC046D9FFFFFFED
:10643C0003B4684601B5029800F034F8019B9E46FF
:10644C0002B00CBC7047C046F0B5CE46474680B58E
:10645C00070099463B0C9C4613041B0C1D000E00B8
:10646C0061460004140C000C45434B4360436143EC
:10647C00C0182C0C20188C46834203D980235B0255
:10648C009846C444494679437243030C63442D0433
:10649C002D0CC918000440198918C0BCB946B04667
:1064AC00F0BDC046F0B557464E464546DE46E0B513
:1064BC0004000D009246994683B08B4230D82DD003
:1064CC004946504600F0BAF829000600200000F0BA
:1064DC00B5F8331A9846203B9B4633D45A4653465C
:1064EC00934042461F00534693401E00AF423AD899
:1064FC00AF4200D178E05B46A41BBD41002B00DA13
:10650C0075E0002200230092019301235A46934028
:10651C000193012342469340009328E08242CFD955
:10652C0000220023009201930C9B002B01D01C60D5
:10653C005D600098019903B0F0BCBB46B246A94619
:10654C00A046F0BD424620239B1A5246DA404146F3
:10655C0013004A468A40170042461F435346934055
:10656C001E00AF42C4D9002200230092019343467F
:10657C00002BD9D0FB0772081A4346467B080EE065
:10658C00AB4201D1A2420CD8A41A9D41012024197E
:10659C006D410021013E24184D41002E06D0AB4226
:1065AC00EED9013E24196D41002EF8D100980199C5
:1065BC005B4600196941002B24DB2B005A464446EC
:1065CC00D3402A00E2401C005B461500002B2ADB5E
:1065DC0026009E40330026004746BE403200801AFB
:1065EC009941009001919FE7A342BCD883E74246B2
:1065FC00202300219B1A0022009101920122DA40F3
:10660C00019286E7424620239B1A2A0046469A406E
:10661C002300F340444613432A00E2401C005B462F
:10662C001500002BD4DA42462F0020232600974079
:10663C009B1ADE403B003343CDE7C04610B5002922
:10664C0003D100F007F8203002E0080000F002F857
:10665C0010BDC0461C2101231B04984201D3000C21
:10666C0010391B0A984201D3000A08391B099842B9
:10667C0001D30009043902A2105C40187047C046CF
:10668C0004030202010101010000000000000000EF
:10669C00F0B5DE4657464E464546E0B58BB0142263
:1066AC00002105A806F081FC564B596B04221143BE
:1066BC005963596B0A400192019A5A6B0221884620
:1066CC000A435A635A6B0A400292029A5A6B01248B
:1066DC0022435A635A6B22400392039A5A6B063137
:1066EC008A460A435A635B6B0B400493049B8025D8
:1066FC00AD01454B9B4600222900180001F04FFECE
:10670C0080277F0100223900404801F048FEA02676
:10671C00F605012281210902300001F040FE002221
:10672C003900300001F03BFE394B9946002206211E
:10673C00180001F034FE0595069400250795089580
:10674C0005A9584601F068FD059711230693079497
:10675C00089505A92D4801F05FFD81231B020593C7
:10676C00069407954346089305A9300001F054FDA3
:10677C0080239B000593434606930795089409953F
:10678C0005A9300001F048FD80231B0105938423EB
:10679C009B0398460693079405A9300001F03CFD35
:1067AC00059706940795089505A9300001F034FD6E
:1067BC000623059306940795089505A9484601F00C
:1067CC002BFD5346059343460693079405A948466B
:1067DC0001F022FD00220221062001F089FF062093
:1067EC0001F0B6FF00220221072001F081FF0720F3
:1067FC0001F0AEFF0BB0F0BCBB46B246A946A046BA
:10680C00F0BDC046001002400008005000040050CB
:10681C00000C005000B583B0114A916B0123194351
:10682C009163926B13400193019B0022022109207A
:10683C0001F05EFF092001F08BFF002202210A20EB
:10684C0001F056FF0A2001F083FF002202210B20E9
:10685C0001F04EFF0B2001F07BFF03B000BDC046E2
:10686C000010024072B6FEE710B51048104B0360E2
:10687C0082235B00436000238360E022D200C2606D
:10688C0003614361802292008261F93AFF3AC2614E
:10689C000362436283620721C1620363426302F0B5
:1068AC0069F9002800D110BDFFF7DCFF3003002090
:1068BC000030014010B51748174B0360E1235B0211
:1068CC00436000238360C36003610C2242618361D7
:1068DC00C36103624362836203F0BAFA002811D1E8
:1068EC0000210C4803F03AFB00280DD10021094887
:1068FC0003F05AFB002809D1064803F00FFB0028CF
:10690C0006D110BDFFF7AEFFFFF7ACFFFFF7AAFFF4
:10691C00FFF7A8FFF80300200038014010B512481B
:10692C00124B0360124B4360002383600122C26050
:10693C00036143618361C361036200F011FC0028B1
:10694C000CD10021084800F01DFE002808D10021C0
:10695C00054800F043FE002804D110BDFFF782FF6C
:10696C00FFF780FFFFF77EFFDC020020005800409D
:10697C00B23B61C010B51048104B036082235B0022
:10698C00436000238360E022D200C2600361436154
:10699C00802292008261F93AFF3AC261036243623B
:1069AC0083620721C1620363426302F0E3F80028AB
:1069BC0000D110BDFFF756FF9403002000380040B3
:1069CC0000B593B03822002104A806F0EEFA10228C
:1069DC000021684606F0E9FA8020800001F05EFE96
:1069EC000223049380225200079200220892402135
:1069FC0009910B930C930D9206330E9380239B02FB
:106A0C000F9380239B04109380239B05119304A860
:106A1C0000F00EFE00281CD107230093053B0193C8
:106A2C000023029303930221684601F0EFF800283B
:106A3C0011D10A4AD16880235B050B43D3608022B5
:106A4C00A02180209205C904800001F04DF813B0FC
:106A5C0000BDFFF707FFFFF705FFC046001002401F
:106A6C0010B501F0C9FEFFF7ABFFFFF711FEFFF702
:106A7C00D1FEFFF7F9FEFFF71DFFFFF74FFFFFF702
:106A8C0079FF05F0E5F9FEE710B5024806F022FBA8
:106A9C00FEE7C04624E7000810B5024806F01AFBD2
:106AAC00FEE7C04630E700087047704710B501F0AC
:106ABC00B7FE10BD10B5082001F078FC10BD10B564
:106ACC008020000101F072FC10BD000010B50248DE
:106ADC0001F07EFD10BDC046C801002010B5034872
:106AEC0001F076FD024801F073FD10BD800200201C
:106AFC006C01002010B5024801F06AFD10BDC046C3
:106B0C002402002000B583B0114B196C01221143F3
:106B1C001964196C0A400092009ADA6B80214905BD
:106B2C000A43DA63DB6B0B400193019B05200022C7
:106B3C000221404201F0DCFD0220002202214042F1
:106B4C0001F0D6FDC020C00001F08EFE03B000BDE8
:106B5C000010024010B588B004001422002103A8D4
:106B6C0006F023FA2268124B9A4201D008B010BDED
:106B7C00104C626B02231A436263626B13400193E5
:106B8C00019BC0231B01039312230493113B059318
:106B9C000533079303A9084801F03EFBE26B802103
:106BAC00C9030A43E263E36B0B400293029BDDE7EC
:106BBC0000580040001002400004005030B58BB06B
:106BCC0004001422002105A806F0EFF92368514AAD
:106BDC00934204D0504A93424DD00BB030BD4F4B32
:106BEC001A6C80256D012A431A641A6C2A40019292
:106BFC00019A596B0222114359635B6B1340029348
:106C0C00029B382305930692089205A9444801F08B
:106C1C0003FB4448444B036011234360013B8360F6
:106C2C000023C3608022026143618361C3610562FA
:106C3C0001F028FC002818D13A4B63659C623B4854
:106C4C003B4B03601023436000238360C3608022AE
:106C5C00026143618361C361036201F013FC00288C
:106C6C0006D1324BA3659C62B7E7FFF7FBFDE3E768
:106C7C00FFF7F8FDF5E7294BD96B8020C0010143E4
:106C8C00D963DA6B02400392039A596B02221143C7
:106C9C0059635B6B13400493049BE0231B02059325
:106CAC000692089205A91E4801F0B6FA2148224B1B
:106CBC00036013234360033B83600023C360802283
:106CCC00026143618361C36180235B01036201F054
:106CDC00D9FB002818D1174B63659C621748184BD9
:106CEC0003601223436000238360C360802202612F
:106CFC0043618361C361036201F0C4FB002806D1C8
:106D0C000E4BA3659C6268E7FFF7ACFDE3E7FFF76A
:106D1C00A9FDF5E7003001400038004000100240AA
:106D2C0000040050C8010020080002406C01002043
:106D3C0030000240800200201C000240240200208F
:106D4C004400024010B594B00400142200210FA896
:106D5C0006F02BF93422002102A806F026F922684D
:106D6C00174B9A4201D014B010BD0123029302A814
:106D7C0001F02CF800281FD1124B196C8020C00197
:106D8C00014319641A6C02400092009A596B02225A
:106D9C00114359635B6B1A400192019B40230F9383
:106DAC002E3B1093113B11930023129313930FA9B5
:106DBC00054801F031FAD6E7FFF754FDDCE7C04691
:106DCC0000380140001002400004005003689A692A
:106DDC00920701D500229A6203689A69D20703D4FC
:106DEC009A6901210A439A617047000010B5890520
:106DFC00890D120411431943029B19434900490898
:106E0C00046862685B0D8020C000034002480343A5
:106E1C009A431143616010BDFF63FF03F0B5C64692
:106E2C0000B504000D00170001688B6910221600D4
:106E3C001E401A4200D175E01023CB610023984606
:106E4C00002623689869820631D4002E2FD16B1C42
:106E5C00F7D001F0F1FCC01BA84201D8002DF0D1F5
:106E6C0021684B688022D20113404222A25CD2B22C
:106E7C008869000403D5002B01D1202A0ED1236888
:106E8C009B699B06DDD401F0D7FCC01B1928F6D9F1
:106E9C00202342461A4390460126D2E74A688023B3
:106EAC00DB0113434B6001F0C7FC0700E7E7002E42
:106EBC0001D12022DA610426434633431E0001250A
:106ECC0022689369D90504D501210E43FF31D161A4
:106EDC0001255A0506D50822164322688021C900CF
:106EEC00D16101259B051FD502231E4323688022F7
:106EFC009200DA6101252000FFF768FF22685368D1
:106F0C000B490B405360636C1E4366644123202283
:106F1C00E25400232232A354023AA354280080BC2A
:106F2C00B846F0BD0025CBE7002DF7D0E3E7C0460F
:106F3C0000E800FE70B504000D00160023689B6984
:106F4C009B0720D4320029002000FFF767FF0028A0
:106F5C001BD16B1CF2D001F06FFC801BA84201D836
:106F6C00002DEBD123689B699B07E7D4636C20222F
:106F7C00134363644123E25400232232A354023AA4
:106F8C00A354012000E0002070BD0120FCE7F0B507
:106F9C00D6464F4680B583B007000D0016009946C3
:106FAC000A9B9A463B689C692C40641B63425C417B
:106FBC000196B44228D1524649463800FFF72EFFBD
:106FCC00002827D14B460133ECD001F035FC534659
:106FDC00C01A484502D84B46002BE3D13B689B694D
:106FEC002B405B1B5A425341019A9342DAD17B6C82
:106FFC00202213437B644123FA5400232232BB54D6
:10700C00023ABB54012000E0002003B0C0BCBA46D9
:10701C00B146F0BD0120F8E770B582B00400150050
:10702C001E008023F2B2194800905B042000FFF789
:10703C00DDFE079A06992000FFF77CFF00281ED181
:10704C00012E0ED12368EDB29D62079B0093069B27
:10705C00002280212000FFF79AFF002813D102B0F4
:10706C0070BD23682A0A9A62079A06992000FFF7D6
:10707C0061FF002805D12368EDB29D62E5E7012090
:10708C00EDE70120EBE70120E9E7C0460020008096
:10709C0070B582B0040015001E00DAB2184B0093D4
:1070AC000023FFF7A3FE079A06992000FFF742FF83
:1070BC0000281ED1012E0ED12368EDB29D62079BD4
:1070CC000093069B002240212000FFF760FF002860
:1070DC0013D102B070BD23682A0A9A62079A0699E6
:1070EC002000FFF727FF002805D12368EDB29D6231
:1070FC00E5E70120EDE70120EBE70120E9E7C046D9
:10710C000020008070B504000D00160003E0236819
:10711C009B699B0612D523689B699B061BD4320086
:10712C0029002000FFF77AFE002816D101F084FB1D
:10713C00801BA842EBD8002DEDD1E8E7636C202230
:10714C00134363644123E25400232232A354023AD2
:10715C00A354012000E0002070BD0120FCE70000DA
:10716C0010B5041E60D04123C35C002B48D04123D2
:10717C002422E2542268136801218B431360226895
:10718C002A4B61680B4013612268936828490B40B5
:10719C009360E368012B39D0226884231B02A16819
:1071AC000B439360E368022B37D022685368214964
:1071BC000B405360226851681F4B0B43536022688D
:1071CC00D3681B490B40D360236962691343A269DE
:1071DC00120221681343CB602268E369216A0B43D6
:1071EC0013602268136801210B431360002363644E
:1071FC0041221F31A15423630132A354002010BD3E
:10720C0040330022C254FFF7A5FCB0E7226880236C
:10721C001B02A1680B439360C4E72268516880236A
:10722C001B010B435360C5E70120E8E7FFFFFFF0AC
:10723C00FF7FFFFFFFF7FFFF00800002F0B587B074
:10724C0004000391049205930CAB20CB1F884123BF
:10725C00C35C202B00D0B3E0002D18D0002F16D02B
:10726C004023C35C012B00D1ADE040230122C2546A
:10727C0001F0E2FA06008021009019230122090294
:10728C002000FFF784FE002806D0012099E080231F
:10729C009B006364012094E041232122E2540133DA
:1072AC001F32E25400236364656267856363019651
:1072BC000E9B0093059B049A03992000FFF7ACFEEC
:1072CC0000280FD1638D9BB2FF2B10D9FF23238590
:1072DC007F3B002200925B04FF3203992000FFF7F2
:1072EC0085FD21E040230022E254012069E0628DFB
:1072FC0092B222858023D2B2002100919B04039983
:10730C002000FFF773FD0FE0628D92B2228580237F
:10731C00D2B2002100919B0403992000FFF766FD77
:10732C00638D9BB2002B34D032000E992000FFF7F6
:10733C0001FE002849D12368626A12789A62636A56
:10734C0001336362638D013B9BB26385238D013BEB
:10735C009BB22385628D92B2002AE1D0002BDFD143
:10736C0000960E9B002280212000FFF710FE0028C3
:10737C002DD1638D9BB2FF2BC6D9FF2323857F3B79
:10738C00002200925B04FF3203992000FFF72EFDD0
:10739C00C6E732000E992000FFF7B4FE002818D182
:1073AC0023682022DA6121684B680B4D2B404B601F
:1073BC004123E25400232232A354023AA35400E0A6
:1073CC00022007B0F0BD0220FBE70120F9E7012005
:1073DC00F7E70120F5E7C04600E800FEF0B587B0FE
:1073EC0004000391049205930CAB20CB1F8841231E
:1073FC00C35C202B00D0B5E0002D18D0002F16D088
:10740C004023C35C012B00D1AFE040230122C254C6
:10741C0001F012FA060080210090192301220902C2
:10742C002000FFF7B4FD002806D001209BE080234C
:10743C009B006364012096E041232222E254013335
:10744C001E32E254002363646562678563630196B0
:10745C000E9B0093059B049A03992000FFF718FEDE
:10746C0000280FD1638D9BB2FF2B10D9FF232385EE
:10747C007F3B424A00925B04FF2203992000FFF7F6
:10748C00B5FC21E040230022E25401206BE0628D28
:10749C0092B222858023D2B2384900919B04039981
:1074AC002000FFF7A3FC0FE0628D92B222858023AF
:1074BC00D2B2002100919B0403992000FFF796FCA7
:1074CC00638D9BB2002B36D000960E9B00220421BC
:1074DC002000FFF75CFD002849D123685B6A626AD3
:1074EC001370636A01336362238D013B9BB2238566
:1074FC00628D013A92B26285628D92B2002ADFD01F
:10750C00002BDDD100960E9B002280212000FFF77E
:10751C003EFD00282DD1638D9BB2FF2BC4D9FF23D8
:10752C0023857F3B002200925B04FF3203992000ED
:10753C00FFF75CFCC4E732000E992000FFF7E2FD78
:10754C00002818D123682022DA6121684B680C4D81
:10755C002B404B604123E25400232232A354023AC5
:10756C00A35400E0022007B0F0BD0220FBE701208D
:10757C00F9E70120F7E70120F5E7C0460024008079
:10758C0000E800FEF0B54123C35C202B20D1203352
:10759C00C35C012B1ED0402401220255412524231B
:1075AC0043550668336893433360066833680A4F63
:1075BC003B403360066833681943316001680B68DF
:1075CC0013430B6020234355002303550020F0BDCB
:1075DC000220FCE70220FAE7FFEFFFFFF0B54123A2
:1075EC00C35C202B1ED12033C35C012B1CD0402448
:1075FC0001220255412524234355066833689343E1
:10760C00336006683368094F3B4009021943316007
:10761C0001680B6813430B6020234355002303556B
:10762C000020F0BD0220FCE70220FAE7FFF0FFFF8C
:10763C0070B582B0041E00D131E20368DB0739D586
:10764C00C14A916838230B40D16803220A40102BA1
:10765C0026D0082B26D063688022520293427FD01A
:10766C00A022D202934200D181E0B74B1A68B749ED
:10767C000A401A601A68B6490A401A606368002BFF
:10768C0000D180E001F0D8F80500AF4B1B689B03DC
:10769C0010D401F0D1F8401B6428F6D90320FFE187
:1076AC00032AD6D1A84B1B689B0303D56368002B18
:1076BC0000D1F7E123689B0731D5A34A93683821A1
:1076CC000B40D16803220A40102B6AD0002B6BD1DF
:1076DC009D4A1268520503D5E268002A00D1E3E105
:1076EC00994842689B490A40616909020A43426011
:1076FC00002B0DD1036898490B4021690B430360A3
:10770C000368DB0A07221A40944BD340944A136057
:10771C00944B186801F044F8002800D0C6E12368A7
:10772C001B0700D481E0884B9A6838231340182B30
:10773C0073D0A369002B00D1B4E0834A136E0121EE
:10774C000B43136601F078F805007F4B1B6E9B070B
:10775C006BD401F071F8401B0228F6D903209FE18D
:10776C00794A116880235B020B43136086E7764BE2
:10777C0019688022D2020A431A60196880225202C8
:10778C000A431A607AE701F057F805006E4B1B6844
:10779C009B038FD501F050F8401B6428F6D90320C9
:1077AC007EE1022A92D193E7E368002B22D0664A4D
:1077BC00136869490B4021690B43136011688023DE
:1077CC005B000B43136001F037F805005E4B1B6840
:1077DC005B0506D401F030F8401B0228F6D90320D3
:1077EC005EE159494B685B4A1340626912021343CC
:1077FC004B6094E7544A13685B490B40136001F0EB
:10780C001BF80500504B1B685B0588D501F014F87C
:10781C00401B0228F6D9032042E14B4B1B6E9B0701
:10782C0003D5A369002B00D142E123685B0700D488
:10783C00A2E0454B9A6838231340202B45D0424B8D
:10784C00DB6BDB004AD4404AD16B802040050143FE
:10785C00D163D36B03400193019B0125434B1B6800
:10786C00DB053DD5A368012B4ED0052B52D0364BF2
:10787C00DA6D01218A43DA65DA6D03318A43DA6500
:10788C00A368002B50D000F0D7FF06002E4BDB6D09
:10789C009B076FD400F0D0FF801B354B9842F5D975
:1078AC000320FDE0284A136E01218B43136600F080
:1078BC00C3FF0500244B1B6E9B07B6D500F0BCFF25
:1078CC00401B0228F6D90320EAE01F4BDB6D9B0717
:1078DC0052D5A368002B4FD10120E1E00025BDE774
:1078EC00224A116880235B000B43136000F0A4FF55
:1078FC0006001E4B1B68DB05B4D400F09DFF801BFB
:10790C000228F6D90320CBE00F4AD36D01210B439B
:10791C00D365B5E70C4BDA6D04210A43DA65DA6DF1
:10792C0003390A43DA65ABE700F086FF0600064B25
:10793C00DB6D9B071ED500F07FFF801B0C4B984224
:10794C00F5D90320ACE0C04600100240FFFFFEFF5B
:10795C00FFFFFBFFFF80FFFFFFC7FFFF0024F400CA
:10796C000800002004000020FFFEFFFF0070004014
:10797C0088130000012D1ED0E369002B00D199E083
:10798C00544A916838220A40102A60D0022B18D031
:10799C00504A136850490B40136000F04DFF04002F
:1079AC004C4B1B689B014BD500F046FF001B02287B
:1079BC00F6D9032074E0474AD36B48490B40D36394
:1079CC00DAE7444A136844490B40136000F034FF73
:1079DC000500404B1B689B0106D500F02DFF401B9A
:1079EC000228F6D903205BE03A4AD3683C49194097
:1079FC00236A606A0343A06A00020343E06A0343FC
:107A0C00206B0343606B03430B43D36011688023EB
:107A1C005B040B431360D16880235B050B43D3607D
:107A2C0000F00AFF04002B4B1B689B0106D400F0EE
:107A3C0003FF001B0228F6D9032031E000202FE0C1
:107A4C00244AD36827490B40D360002028E0012B3F
:107A5C0032D0204BDA6803231340216A8B422DD19C
:107A6C0070231340616A8B422AD1FE21C901114057
:107A7C00A36A1B02994225D1F8239B031340E16AA8
:107A8C008B4221D1E0231B051340216B8B421DD16E
:107A9C00520F5207636B9A421AD1002000E001206A
:107AAC0002B070BD0120FBE70120F9E70120F7E7E8
:107ABC000120F5E70020F3E70120F1E70120EFE7D3
:107ACC000120EDE70120EBE70120E9E70120E7E7E2
:107ADC000120E5E700100240FFFFFFFEFFFFFFEF74
:107AEC008C80C111FCFFFEEEF0B589B003000C00D8
:107AFC000192022204920132069200220592802603
:107B0C0076050640010C0F320A40A021490350189B
:107B1C0080020E4D696B012797403A000A436A6355
:107B2C001A04120C03921B0DFF221340079303A996
:107B3C0000F072FB002E06D1AB68054A1340019A87
:107B4C0014431C43AC6009B0F0BDC04600100240A9
:107B5C00FFFFFF8810B52A4B9B6838221A4207D1C9
:107B6C00274B1A68D20A072313402648D84010BD69
:107B7C00234B9A6838231340082B3BD0204B9A6830
:107B8C0038231340102B0DD01D4B9A68382313400B
:107B9C00202B31D01A4B9A6838231340182B26D03F
:107BAC000020E4E7164AD1680D3B0B40D26812095D
:107BBC00072111400131032B0FD01248FEF7AEFA0A
:107BCC000F4BDA68120A7F23134058430C4BD968C9
:107BDC00490F0131FEF7A2FAC9E70B48FEF79EFAEE
:107BEC00074BDA68120A7F2313405843EEE7FA205A
:107BFC00C001BCE70448BAE780200002B7E7C046E2
:107C0C00001002400024F40000127A0070B5040049
:107C1C000D00002800D1AAE0574B1A680723134027
:107C2C008B4221D323689A070ED55B0705D5534A9F
:107C3C009168E023DB010B439360504A93685049F1
:107C4C000B40A1680B4393602368DB0754D5636832
:107C5C00012B20D0022B3BD0002B3FD1474A12687E
:107C6C0052051CD401206AE0434A136807218B4358
:107C7C002B43136000F0E0FD06003F4B1A6807230E
:107C8C001340AB42CED000F0D7FD801B3D4A904252
:107C9C00F3D9032053E0394A1268920369D5374966
:107CAC008A680720824313438B6000F0C5FD0600F1
:107CBC00324B9B6838221A406368DB009A421BD017
:107CCC0000F0BAFD801B2F4B9842F1D9032036E00F
:107CDC002A4A12689201E2D4012030E0032B05D02D
:107CEC00264AD26D9207DAD4012028E0234A126E7C
:107CFC009207D4D4012022E01F4B1A6807231340AB
:107D0C00AB421DD823685B0706D51C4A93681E49F5
:107D1C000B40E1680B439360FFF71CFF174B9A680D
:107D2C00120A0F2313409B00184A9A581F23134022
:107D3C00D840174B1860174B186800F031FD70BD18
:107D4C000D4A136807218B432B43136000F074FD1D
:107D5C000600094B1A6807231340AB42D2D000F03F
:107D6C006BFD801B074B9842F3D90320E7E70120FA
:107D7C00E5E70120E3E7C046002002400010024086
:107D8C00FFF0FFFF88130000FF8FFFFF6CE7000878
:107D9C000800002004000020014B18687047C04602
:107DAC000800002010B5FFF7F7FF064B9A68120B7E
:107DBC00072313409B00044A9A581F231340D840B2
:107DCC0010BDC04600100240ACE70008F0B583B00F
:107DDC00040003689B0362D5814BDB6BDB001ED474
:107DEC007F4AD16B802040050143D163D36B0340A4
:107DFC000193019B01267B4A116880235B000B4396
:107E0C00136000F019FD0500764B1B68DB0508D4E8
:107E1C0000F012FD401B0228F6D9032502E00026D3
:107E2C00E9E70025002D23D16D4BD96DC0229200BE
:107E3C000B001340114210D0226B9A420DD0684AAD
:107E4C00D36D69490B40D06D802149020143D16546
:107E5C00D16D66480140D165D365DB0710D4002D88
:107E6C0006D15F4AD36D60490B40216B0B43D36540
:107E7C00012E15D15A4AD36B5D490B40D3630FE0E9
:107E8C0000F0DAFC0700564BDB6D9B07E7D400F0E3
:107E9C00D3FCC01B574B9842F5D90325DFE70025CF
:107EAC002368DB0706D54E4A536D03218B4361686B
:107EBC000B43536523689B0706D5494A536D0C2128
:107ECC008B43A1680B4353652368DB0606D5444AF4
:107EDC00536D49490B40E1680B43536523689B057F
:107EEC0006D53F4A536D45490B40A1690B43536579
:107EFC0023685B0506D53A4A536D41490B40E1694D
:107F0C000B43536523689B0606D5354A536D3D4993
:107F1C000B4021690B43536523685B040BD5304A36
:107F2C00536D9B009B08216A0B4353658023DB0533
:107F3C00226A9A4239D023681B0306D5284A536D0E
:107F4C0040218B43616A0B43536523689B020BD51D
:107F5C00234A536D2C490B40A16A0B435365802374
:107F6C00DB03A26A9A4227D023685B020BD51C4A1A
:107F7C00536D26490B40E16A0B43536580235B0428
:107F8C00E26A9A421FD023681B050BD5144A536D25
:107F9C001F490B4061690B43536562698023DB0108
:107FAC009A4215D0280003B0F0BD0D4AD168802349
:107FBC005B020B43D360BEE7094AD16880235B04A4
:107FCC000B43D360D0E7064AD1680B43D360DAE7A2
:107FDC00034AD16880235B020B43D360E2E7C046BF
:107FEC000010024000700040FFFCFFFFFFFFFEFF8F
:107FFC00FFFFFFEF88130000FFF3FFFFFFFFF3FF0E
:10800C00FFFFCFFFFFCFFFFFFFFFBFFFFFFFFFFE15
:10801C00FF3FFFFF30B5054C6169012529436161C4
:10802C000260BFF36F8F436030BDC046002002403A
:10803C00084B5B69002B01DB00207047054B064A9F
:10804C009A60064A9A605B69002B01DB0020F4E71A
:10805C000120F2E70020024023016745AB89EFCDF8
:10806C0070B5040000F0E8FB0500144B1B69DB0342
:10807C0008D5631CF9D000F0DFFB401BA042F4D301
:10808C0003201AE00D490A690D4B16001E400D48DD
:10809C0008611A420CD1094B1B695B030CD5631C9C
:1080AC00F9D000F0C9FB401BA042F4D3032004E03C
:1080BC00054B5E60012000E0002070BD00200240F6
:1080CC00FAC30000FBC300008C040020F8B50700C5
:1080DC000C0015001E00144B1B78012B22D0124BE8
:1080EC0001221A7000225A60FA208000FFF7B8FFB4
:1080FC0000280DD1012F0FD02900200006F0EEFA38
:10810C00FA208000FFF7ACFF084A5369BB43536168
:10811C00054B00221A70F8BD2A0033002000FFF72F
:10812C0079FFEDE70220F6E78C04002000200240E6
:10813C0010B5FA208000FFF793FF064B5969802297
:10814C0012060A435A615B69002B01DB012010BD4A
:10815C000020FCE700200240034A536903438020BF
:10816C00400218435061704700200240044A536992
:10817C0004480340C9001943034B1943516170472C
:10818C000020024007E0FFFF0200010070B5040070
:10819C000E001F4B1B78012B37D01D4B01221A7080
:1081AC0000225A60FA208000FFF75AFF002828D1DD
:1081BC00042363602368042B15D001235B423360D6
:1081CC00A568A368E26894466344AB4214D92900BD
:1081DC006068FFF7CBFFFA208000FFF741FF002813
:1081EC0009D10135EDE70430FFF7B6FFFA20800026
:1081FC00FFF736FF05E03560064A536902218B43D1
:10820C005361034B00221A7070BD0220FCE7C0467C
:10821C008C04002000200240F0B500235AE0846852
:10822C005F000326BE40B4432600CC68BC403443F8
:10823C008460446894434A681609012232409A408B
:10824C002243426056E0DC080834A400265805326C
:10825C001A4092000F279740BE430F6997403A008F
:10826C00324322505AE0032600E00026A640340098
:10827C003C43434E1832920094513468EA43260032
:10828C00AE434F68FF0201D52C4326003C4C2660C0
:10829C006468260016404F68BF0201D52C432600A7
:1082AC00374C66608426A459260016404F68BF03DD
:1082BC0001D52C432600324C8427E6518026A45944
:1082CC0022404E68F60301D52A0022432C4D80240F
:1082DC002A5101330C682200DA404FD001229A4017
:1082EC00250015401442F4D003244E683440013C60
:1082FC00012C94D903224C682240032A09D0C2686D
:10830C005E000324B440A24314008A68B2402243A6
:10831C00C26003224C682240022A94D004685E009A
:10832C0003221700B740BC434F683A40B240224387
:10833C000260C02292024C681442CAD09A081400FF
:10834C001834A4000E4EA75903241C40E4000F2639
:10835C00A640B743A026F605B04286D0094EB042DF
:10836C0008D0094EB04207D0084EB04200D17AE78F
:10837C0005267BE7012679E7022677E7F0BDC046A4
:10838C00001802400004005000080050000C00507F
:10839C0003690B4201D0012070470020FCE7002A42
:1083AC0001D0816170478162FCE7704710B5040011
:1083BC00094BDB68184204D1074B1B69234205D1DA
:1083CC0010BD054BD860FFF7F0FFF5E7024B1C61C1
:1083DC00200003F0B5FDF3E700180240F0B5846C03
:1083EC00C56C6560046D002C02D0446D856D6560B4
:1083FC000B4F7C681C26056C2E400125B5402C4388
:10840C007C60046863608368102B04D003689960F7
:10841C000368DA60F0BD03689A600368D960F9E715
:10842C000000024010B50400036C9B08094A9446F6
:10843C0063449B004364FF202368184008381421D0
:10844C00FDF76CFE044BA3641F2318401E3B8340B6
:10845C00E36410BD00820010800802403F23426894
:10846C001340064A9A1892000265054A4265013B80
:10847C0003221A4001239340836570473F8200100A
:10848C004009024070B5041E4DD00568274BE81812
:10849C001421FDF743FE8000206425230222E254C0
:1084AC002B68234A13402B6021680A68A368E06894
:1084BC0003432069034360690343A0690343E069F4
:1084CC000343206A034313430B602000FFF7AAFF0A
:1084DC008023DB01A2689A4218D0626C3F2361684A
:1084EC000B401360A36CE26C5A606368013B032B76
:1084FC000FD9002323656365A3650023E36325225D
:10850C000121A154013AA354002070BD00236360E3
:10851C00E3E72000FFF7A2FF236D00221A60636DD2
:10852C00A26D5A60E9E70120EFE7C046F8FFFDBFF6
:10853C000F80FFFF70B504002420205C012845D07B
:10854C002420012525540130205C012806D08023ED
:10855C00E3635C3B0022E254012070BD2430013502
:10856C0025540020E063256828680126B043286064
:10857C002000FFF733FF236B002B1CD022681368FD
:10858C000E210B431360636C1A68D20304D519686F
:10859C00802252000A431A60236D002B04D0196804
:1085AC00802252000A431A602268136801210B438F
:1085BC0013600020D1E72268136804218B431360F9
:1085CC002268136806310B431360DCE70220C4E712
:1085DC0070B5314B1968046825681C23026C134074
:1085EC0004229A40114216D06A0714D523689B06C0
:1085FC0003D42368042293432360274C63681C2113
:10860C00026C114004228A4013436360036B002BFD
:10861C0000D0984770BD02229A4011421CD0AA0784
:10862C001AD523689B0606D423680A229343236039
:10863C002523093AC254184C63681C21026C114062
:10864C0002228A401343636024230022C254C36A6B
:10865C00002BDFD09847DDE708229A401142D9D091
:10866C002B07D7D523680E22934323600A4C6268EC
:10867C001C21036C194001231D008D402A436260AC
:10868C00C3632522835423330022C254436B002B33
:10869C00C0D09847BEE7C0460000024010B5104A53
:1086AC00136810490B400343136080239B009842CE
:1086BC0001D0002010BD0C4B1B685800C0184000A6
:1086CC000A49FDF72BFD0130054B5B695B0503D5B2
:1086DC00002803D00138F7E70020EBE70320E9E797
:1086EC0000700040FFF9FFFF0800002040420F001F
:1086FC0070B5002811DB8308134EC0339B009D59C5
:10870C0003242040C000FF2214008440A5438901AB
:10871C000A4082402A439A5170BD0F230340083B04
:10872C009B0806339B00094A944663445C68032209
:10873C001040C000FC3215008540AC4389010A4052
:10874C00824022435A60E7E700E100E000ED00E0E0
:10875C00002805DB1F2318401E3B8340014A136091
:10876C007047C04600E100E0013880235B0498426A
:10877C000FD2094A50600948036A1B021B0AC02128
:10878C0009060B4303620023936007331360002038
:10879C0070470120FCE7C04610E000E000ED00E06F
:1087AC0010B50400114B1978002901D1012010BD1E
:1087BC00FA208000FDF7B2FC01000D4B1868FDF7A4
:1087CC00ADFCFFF7D1FF00280DD1032C01D90120FE
:1087DC00EDE70130002221004042FFF789FF054BF5
:1087EC001C600020E3E70120E1E7C0460000002008
:1087FC00080000200400002010B5084A11688023EE
:10880C005B000B4313600220FFF7CAFF041E02D06B
:10881C000124200010BDFEF775F9FAE70020024094
:10882C00034B1B78034A11685B1813607047C046F2
:10883C0000000020A8040020014B18687047C046B7
:10884C00A804002070B50400FFF7F6FF0500631CB8
:10885C0002D0044B1B78E418FFF7EEFF401BA0423C
:10886C00FAD370BD00000020034A136803490B4083
:10887C00034313607047C04600000140FFF9FFFF3F
:10888C00F0B5D6464F464646C0B582B006000D0040
:10889C0090461F00FFF7D0FF0A9B181A8146B94477
:1088AC00FFF7CAFF82462E4B1B685B011B0D4A4625
:1088BC005343019333689C682C40641B63425C41B6
:1088CC00444545D07B1CF5D0FFF7B6FF5346C01A84
:1088DC0048450BD24B46002B08D0019A002A00D0F9
:1088EC004A46019B013B01939146E3E7326853688A
:1088FC00E0218B43536082235B0072689A420CD058
:10890C0080239B01B26A9A4216D05D230122F25455
:10891C00013B0022F25403201BE0B36880221202B8
:10892C00934203D08022D2009342E9D1326813687B
:10893C0040218B431360E3E73268136809490B400D
:10894C0013603268116880239B010B431360DCE7D2
:10895C00002002B0E0BCBA46B146A846F0BDC04605
:10896C0008000020FFDFFFFFF0B5DE4657464E46FD
:10897C004546E0B583B007000D00160098466B46DF
:10898C000022DA70FFF758FF0C9B181A40448146FE
:10899C00FFF752FF82463B689B46364B1A689300A2
:1089AC009A18D3009B1A1B0D4A465343019302E0BD
:1089BC004346013311D13B689C682C40B44250D0E3
:1089CC00C023DB009D42F3D1002EF1D15B461B7B13
:1089DC00DBB26A46D370D378EAE7FFF72DFF534634
:1089EC00C01A48450BD24B46002B08D0019A002ADE
:1089FC0000D04A46019B013B01939146DBE73A6864
:108A0C005368E0218B43536082235B007A689A425F
:108A1C000CD080239B01BA6A9A4216D05D230122A6
:108A2C00FA54013B0022FA5403201BE0BB6880225D
:108A3C001202934203D08022D2009342E9D13A68C9
:108A4C00136840218B431360E3E73A6813680A49C3
:108A5C000B4013603A68116880239B010B43136031
:108A6C00DCE7002003B0F0BCBB46B246A946A046EA
:108A7C00F0BDC04608000020FFDFFFFF70B582B0DC
:108A8C0004000D001600C02100922B0000224901A9
:108A9C00FFF76AFF002818D100962B0000228021D6
:108AAC002000FFF7EDFE002816D1C02100962B0008
:108ABC000022C9002000FFF757FF00280AD0236EC0
:108ACC00202213432366032004E0236E2022134349
:108ADC002366032002B070BD236E2022134323664D
:108AEC000320F7E770B582B004000D001600822356
:108AFC005B0042689A420FD000962B000022802126
:108B0C002000FFF7BDFE002815D182235B006268B0
:108B1C009A4216D002B070BD836880221202934232
:108B2C0003D08022D2009342E6D122681368402100
:108B3C008B431360E0E7236E20221343236603204C
:108B4C00E8E7A36880221202934203D08022D2006D
:108B5C009342DFD1C02100962B000022C9002000D7
:108B6C00FFF702FF0028D5D0236E20221343236683
:108B7C000320CFE770B5041E00D178E0436A002BC8
:108B8C0007D10533FF3342689A4205D00023C361F5
:108B9C0002E00023036143610023A3625D33E35CC5
:108BAC00002B5AD05D230222E25422681368402124
:108BBC008B431360E368E022D200934254D9002225
:108BCC00F02109018B4205D0E021C9008B4201D074
:108BDC000023A36282235B0061680B40842109029D
:108BEC00A06801400B430221206901400B43012185
:108BFC0060690840034380208000A5692840034336
:108C0C003820E569284003438020256A2840034327
:108C1C0080208001A56A2840034320680360608B94
:108C2C00042303401020656A284003430820656B29
:108C3C0028400343F0200001E568284003432068E6
:108C4C00134343602268D3690A480340D36100236D
:108C5C0023665D33E154002070BD5C330022E25486
:108C6C002000FDF7ABFF9DE780225201A8E7012011
:108C7C00F2E7C046FFF7FFFFF0B5CE4600B584B073
:108C8C000400019191461D005C23C35C012B00D1B3
:108C9C00CBE05C230122C254FFF7CEFD06005D231E
:108CAC00E35CDFB2012B00D0B6E00199002900D1C2
:108CBC00B3E04B46002B00D1AFE05D230322E2541E
:108CCC0000232366A1634A46A287E28723644422D9
:108CDC00A3520232A3522365E36480231B02A268D1
:108CEC009A421ED023681A68520603D41A6840218F
:108CFC000A431A60E023DB00E2689A423ED96368BB
:108D0C00002B02D04B46012B20D12368A26B12887A
:108D1C00DA60A36B0233A363E38F013B9BB2E3875F
:108D2C0014E02268136840218B4313602268116899
:108D3C008023DB010B431360D4E7FFF77DFD801B21
:108D4C00A84201D36B1C14D1002D12D0E18F89B233
:108D5C00002946D023689A689207EED5A26B128838
:108D6C00DA60A36B0233A363E38F013B9BB2E3870F
:108D7C00ECE75D230122E25403274EE06368002BED
:108D8C0002D04B46012B14D1A36B1B7822681373B2
:108D9C00A36B0133A363E38F013B9BB2E38708E032
:108DAC00FFF74AFD801BA84201D36B1C14D1002D88
:108DBC0012D0E18F89B2002913D023689A689207E8
:108DCC00EED5A26B12781A73A36B0133A363E38FF6
:108DDC00013B9BB2E387ECE75D230122E2540327BE
:108DEC001BE0320029002000FFF748FE002801D0CC
:108DFC0020232366A368002B06D103932368DA682B
:108E0C0003929B680393039B236E002B05D15D3368
:108E1C000122E254002700E002275C230022E254E6
:108E2C00380004B080BCB946F0BD0227F8E700005A
:108E3C00F0B583B00400009101921E00089D5C23E4
:108E4C00C35C012B00D11EE15C230122C254FFF74D
:108E5C00F3FC07005D23E35CD9B26268012B0BD0F5
:108E6C0082235B009A4200D0FBE0A368002B00D069
:108E7C00FDE0042900D0FCE0009B002B00D1FAE0BF
:108E8C00019B002B00D1F8E0002E00D1F7E05D2310
:108E9C00E35C042B02D05D230522E25400232366FD
:108EAC00019A22644622A652023AA652009AA26362
:108EBC00E687A687E3642365E023DB00E2689A4239
:108ECC0023D92268536871490B40536023681A6890
:108EDC00520603D41A6840210A431A60E023DB00CF
:108EEC00E2689A4258D96368002B01D0012E0AD14E
:108EFC002368A26B1288DA60A36B0233A363E38F3F
:108F0C00013B9BB2E38701262DE022685168802348
:108F1C005B010B435360D9E7A26B1288DA60A36B39
:108F2C000233A363E38F013B9BB2E38700262368E4
:108F3C009A68D20710D54622A25A92B2002A0BD0B8
:108F4C00DB68226C1380236C023323644622A35A01
:108F5C00013B9BB2A3520126FFF76EFCC01BA8423B
:108F6C0001D36B1C13D1E38F9BB2002B04D146337E
:108F7C00E35A9BB2002B63D023689A689207D6D52C
:108F8C00E28F92B2002AD2D0012ED0D1C4E75D2359
:108F9C000122E254032065E06368002B01D0012E0E
:108FAC000AD1A36B1B7822681373A36B0133A363E1
:108FBC00E38F013B9BB2E38701261DE023689A688F
:108FCC00D20710D54622A25A92B2002A0BD01B7B94
:108FDC00226C1370236C013323644622A35A013B89
:108FEC009BB2A3520126FFF727FCC01BA84201D35A
:108FFC006B1C20D1002D1ED0E38F9BB2002B04D113
:10900C004633E35A9BB2002B1AD023689A68920716
:10901C00D4D5E28F92B2002AD0D0012ECED1A26B41
:10902C0012781A73A36B0133A363E38F013B9BB2DA
:10903C00E3870026C2E75D230122E254032011E0FE
:10904C003A0029002000FFF719FD002802D0202348
:10905C0023660120236E002B13D15D330122E254D1
:10906C0000E002205C230022E25403B0F0BD022099
:10907C00F8E70220F6E70120F4E70120F2E70120EF
:10908C00F0E70120EEE70220EFE7C046FFEFFFFF1D
:10909C00F0B5CE4600B584B00400039116001D0057
:1090AC005D23C35CDFB2012B00D0BAE00433FF3385
:1090BC0042689A423DD05C23E35C012B00D1B9E0BD
:1090CC005C230122E254FFF7B7FB81460399002988
:1090DC0000D1A7E0002E00D1A4E05D230422E254CD
:1090EC000023236621644032A6520232A652A363A7
:1090FC00A387E387E3642365E023DB00E2689A42FD
:10910C0024D9226853684C490B40536080231B02BE
:10911C00A2689A4221D023681A68520603D41A68AE
:10912C0040210A431A60E023DB00E2689A4229D905
:10913C004CE08368002BBED15D330422C2540095F1
:10914C0033000A00FFF774FE07006EE022685168D6
:10915C0080235B010B435360D8E7226813684021DE
:10916C008B4313602268136834490B401360D2E7B9
:10917C00FFF762FB4B46C01AA84201D36B1C16D1F9
:10918C00002D14D04623E35A9BB2002B38D0236811
:10919C009A68D207ECD51B7B226C1370236C0133BD
:1091AC0023644622A35A013B9BB2A352EAE75D23F8
:1091BC000122E254032735E0FFF73EFB4B46C01A71
:1091CC00A84201D36B1C16D1002D14D04623E25AB1
:1091DC0092B2002A14D023689A68D207ECD5DB68C7
:1091EC00226C1380236C023323644622A35A013B66
:1091FC009BB2A352EAE75D230122E254032711E05C
:10920C004A4629002000FFF76DFC002801D02023DE
:10921C002366236E002B05D15D330122E254002717
:10922C0000E002275C230022E254380004B080BC2A
:10923C00B946F0BD0227F8E7FFEFFFFFFFBFFFFFC6
:10924C0070B504005C23C35C012B00D186E05C2369
:10925C000120E0540133E35CDDB2012B78D100290D
:10926C0077D0002A75D05C330230E054002323669B
:10927C00A163A287E28723642365E3644422A3529B
:10928C000232A35280231B02A2689A4239D0636D2A
:10929C00334A1A63636D334ADA62636D324A5A6336
:1092AC00636D00229A632268536830490B40536007
:1092BC00E023DB00E2689A4205D8636D9A6980234B
:1092CC00DB009A4229D022680C32E38F9BB2A16B4F
:1092DC00606DFFF72FF9002835D123681A68520604
:1092EC0003D41A6840210A431A602268536820216B
:1092FC000B435360226853681E390B4353600500BF
:10930C0027E02268136840218B43136022681168A0
:10931C008023DB010B431360B9E7E38FDB0707D432
:10932C00226853680B405360E38F5B08E387CAE7FE
:10933C00226851688023DB010B435360E38F5B0889
:10934C000133E387BFE7236E10221343236600E04B
:10935C0002255C230022E254280070BD0225FBE7A5
:10936C001F9700086397000841970008FFBFFFFF95
:10937C0070B504005C20205C012800D1EFE05C207B
:10938C00012525540130205CC6B2656801280BD03C
:10939C0082204000854200D0D2E0A068002800D096
:1093AC00D3E0042E00D0D2E0002900D1D1E0002A75
:1093BC0000D1D0E0002B00D1CFE05D20205C042850
:1093CC0002D05D200525255400202066A163A387CB
:1093DC00E38722644422A3520232A352E064206544
:1093EC00226853685F490B405360E023DB00E2685E
:1093FC009A4225D9226853685B490B4053605D2320
:10940C00E35C042B64D0A36D584A1A63A36D584ACD
:10941C00DA62A36D574A5A63A36D00229A632168DE
:10942C000C314623E35A9BB2226CA06DFFF782F8F5
:10943C00002854D0236E102213432366012080E0B1
:10944C002268516880235B010B435360636D9A69FA
:10945C008023DB009A4218D0A36D9A698023DB002D
:10946C009A42CCD1226853683F490B405360462343
:10947C00E35ADB0720D4226853683F490B40536002
:10948C004622A35A5B08A352B9E7A38FDB0708D483
:10949C002268536839490B405360E38F5B08E387BC
:1094AC00DAE7226851688023DB010B435360E38FBA
:1094BC005B080133E387CFE72268516880239B0167
:1094CC000B4353604622A35A5B080133A35296E721
:1094DC00A36D2B4A1A63A36D2A4ADA6299E72268B4
:1094EC00536801210B435360626D00231363626D5B
:1094FC00D362626D5363626D936322680C32E38FA7
:10950C009BB2A16B606DFFF715F8002812D1236890
:10951C001A68520603D41A6840210A431A6022685A
:10952C00536820210B435360226853681E390B4348
:10953C00536006E0236E102213432366012000E0E3
:10954C0002205C230022E25470BD0220F9E70220C5
:10955C00F7E70120F5E70120F3E70120F1E702200E
:10956C00F2E7C046FF9FFFFFFFEFFFFF37970008B2
:10957C004D98000841970008FFDFFFFFFFBFFFFF7A
:10958C002B970008D797000870B504005D20255C68
:10959C00EEB2012D00D0A6E0A068002804D18223F1
:1095AC005B0065689D4259D05C23E35C012B00D1C4
:1095BC009FE05C230125E554002900D194E0002AAA
:1095CC0000D191E001330335E55400232366216477
:1095DC004421625202316252E3642365A387E3871C
:1095EC0080231B02984243D02268536842490B40A7
:1095FC005360E023DB00E2689A4244D92268536846
:10960C003E490B405360A36D3D4A1A63A36D3D4A1E
:10961C00DA62A36D3C4A5A63A36D00229A632168F7
:10962C000C314623E35A9BB2226CA06DFEF782FFED
:10963C00002853D123681A68520603D41A684021B3
:10964C000A431A602268536820210B435360226836
:10965C0053681F390B435360060045E0A73B0430A9
:10966C00E05413000A002000FFF782FE06003EE0E3
:10967C002268136806398B431360226813682349E8
:10968C000B401360B0E72268516880235B010B43E9
:10969C005360A36D9A698023DB009A42B3D1226890
:1096AC00536816490B4053604623E35ADB0709D431
:1096BC002268536810490B4053604622A35A5B083A
:1096CC00A352A0E72268516880239B010B4353608F
:1096DC004622A35A5B080133A35294E7236E10224F
:1096EC001343236600E002265C230022E254300080
:1096FC0070BD0226FBE7C046FFDFFFFFFFEFFFFF59
:10970C002B970008D797000841970008FFBFFFFF71
:10971C00704710B5806AFFF7FBFF10BD704710B59E
:10972C00806AFFF7FBFF10BD704710B5806AFFF72A
:10973C00FBFF10BD10B5806A0268536803218B4390
:10974C005360036E1022134303665D230F3AC25419
:10975C0002F046FC10BD30B583B00500846AFFF7FB
:10976C006BF802002B681B689B0625D421684B689C
:10977C00202083434B6021684B681E3883434B6029
:10978C0064212000FFF77AF9002803D0236E2022F1
:10979C0013432366A368002B06D101932368DA6870
:1097AC0001929B680193019B0023E3875D330122A7
:1097BC00E254236E002B04D1200002F0FFFB03B017
:1097CC0030BD200002F00CFCF9E770B50500846A8E
:1097DC00FFF732F802002B681B689B0622D4216825
:1097EC004B68202083434B60A368002B04D10533C6
:1097FC00FF336168994219D021684B68012083437B
:10980C004B6064212000FFF76DF9002801D0202364
:10981C00236646230022E25217330132E254236EB0
:10982C00002B09D1200002F0B7FB70BD21684B68FA
:10983C001D3883434B60E4E7200002F0D1FBF4E7D2
:10984C0070B50500846AFEF7F7FF02002B681B68F1
:10985C009B061DD421684B68202083434B606421F8
:10986C002000FFF70BF9002803D0236E20221343AE
:10987C0023662268536803218B4353600023E387DC
:10988C004622A3525D33453AE254236E002B03D19A
:10989C00200002F06FFB70BD200002F0A1FBFAE784
:1098AC0030B5EFF31084012282F3108801680B6845
:1098BC00124D2B400B6084F31088EFF3108182F370
:1098CC001088026893680E4C2340936081F31088D3
:1098DC00C36E012B06D08C232022C2500023C366FA
:1098EC00436730BDEFF3108183F31088026813686F
:1098FC001024A343136081F31088ECE7DFFEFFFF15
:10990C00FEFFFFEFF8B5040001688368026913439A
:10991C0042691343C26913430A68AA4802401343BD
:10992C000B6022685368A8490B40E1680B435360F5
:10993C00A1692268A54B9A4201D0236A1943936806
:10994C00A34803400B4393602268D36A0F218B43D7
:10995C00616A0B43D36222689E4B9A420ED09E4B97
:10996C009A4248D09D4B9A4200D17BE09C4B9A4244
:10997C007AD0964B9A424FD010230BE0994B596DED
:10998C0003230B40022B5FD031D8002B5ED0012B70
:10999C005ED103338D498A4270D0E0698022120275
:1099AC00904200D1B4E0042B00D1FDE000D9E5E0F9
:1099BC00002B00D1F1E0022B00D0DDE08A48636A75
:1099CC005B008A4A995AFCF7A9FB63685B08C018CC
:1099DC006168FCF7A3FB0200103A854B9A4200D950
:1099EC00EDE023680004000CD8600020CCE0032BD1
:1099FC0030D10533CEE77B4B596D0C230B40082B34
:109A0C002AD005D8002B29D0042BC3D01023C1E7B2
:109A1C000C2B25D1043BBDE7724B5B6DC0210901BA
:109A2C000B40802109018B4220D007D8002B1FD07E
:109A3C008021C9008B421DD10423ABE7C021090151
:109A4C008B4219D10823A5E70223A3E70023A1E742
:109A5C0010239FE710239DE702239BE7002399E740
:109A6C00102397E7002395E7002393E7022391E760
:109A7C0000238FE710238DE710238BE7042B43D0B3
:109A8C0034D8002B39D0022B2ED1574D636A5B0092
:109A9C00564A9F5A39002800FCF740FB6668730051
:109AAC009B19834200D982E03303834200D280E0C9
:109ABC003A00002328000021FCF7A6FC050E0B023F
:109ACC002B430202700800218018594132000023F8
:109ADC00FCF79AFC474BC218474B9A4200D96AE0F4
:109AEC002368D86000204FE001204DE0082B02D104
:109AFC0080252D02CAE7012046E0FEF753F9050048
:109B0C00002DC3D100203FE0FEF724F80500F7E755
:109B1C00042B2ED023D8002B25D0022B1DD132485C
:109B2C00636A5B00314A995AFCF7F8FA40006368A3
:109B3C005B08C0186168FCF7F1FA0200103A2C4B74
:109B4C009A423AD882B20F239A434008083B1840F5
:109B5C0010432368D860002016E0012014E0082B85
:109B6C00DED0012010E0FEF71DF90028D8D100202E
:109B7C000AE0FDF7EFFFF8E7012005E0082B02D122
:109B8C00802000021BE7012001236A22A352023A23
:109B9C00A35200236367A367F8BDFEF703F90028FF
:109BAC0000D00CE70020EFE7FDF7D4FFF7E701202A
:109BBC00EAE70120E8E70120E6E70120E4E70120DD
:109BCC00E2E7C046F369FFCFFFCFFFFF0080004004
:109BDC00FFF4FF11003801400044004000480040F1
:109BEC00004C0040001002400024F40044E7000840
:109BFC00EFFF000000FDFFFFFFFC0F00836A1B0757
:109C0C0006D5026853682C490B40816B0B4353609B
:109C1C00836ADB0706D50268536828490B40C16A82
:109C2C000B435360836A9B0706D50268536824492B
:109C3C000B40016B0B435360836A5B0706D50268CC
:109C4C00536820490B40416B0B435360836ADB061E
:109C5C0006D5026893681C490B40C16B0B4393609B
:109C6C00836A9B0606D50268936818490B40016C01
:109C7C000B439360836A5B060BD5026853681449E7
:109C8C000B40416C0B43536080235B03426C9A4244
:109C9C000AD0836A1B0606D5026853680D490B402F
:109CAC00C16C0B4353607047026853680A490B4000
:109CBC00816C0B435360ECE7FF7FFFFFFFFFFDFF61
:109CCC00FFFFFEFFFFFFFBFFFFEFFFFFFFDFFFFFCD
:109CDC00FFFFEFFFFFFFF7FFFFFF9FFFF8B5CE463B
:109CEC00474680B506000D0017009946089B98461C
:109CFC003368DC692C40641B63425C41BC4233D149
:109D0C0043460133F4D0FEF797FD4B46C01A40454D
:109D1C002FD84346002B2ED033681A685207E7D54C
:109D2C00802DE5D0402DE3D0DA69120710D4DA6922
:109D3C001205DDD5802212011A623000FFF7B0FD4A
:109D4C0090232022F2500C3B0022F25403200CE012
:109D5C0008241C623000FFF7A3FD9023F4500C3B49
:109D6C000022F254012000E00020C0BCB946B046ED
:109D7C00F8BD0320F9E70320F7E7000030B583B006
:109D8C00040090230022C250FEF756FD0500226805
:109D9C001268130710D423681B685B072BD420238D
:109DAC008822A3500432A3500023E3662367083AA9
:109DBC00A354002003B030BD8021234B009303003B
:109DCC00002289032000FFF789FF0028E3D0EFF37E
:109DDC001081012383F31088226813688020834349
:109DEC00136081F3108888232022E250043B002268
:109DFC00E2547D38DEE78021134B00932B000022C8
:109E0C00C9032000FFF76AFF0028C8D0EFF31080C9
:109E1C00012282F3108821680B680C4D2B400B60DB
:109E2C0080F31088EFF3108082F3108821688B6820
:109E3C0093438B6080F310888C231F32E250083BD5
:109E4C000022E2540320B5E7FFFFFF01DFFEFFFF16
:109E5C0010B5041E35D08823C358002B27D0882377
:109E6C002422E2502268136801218B431360A36AF9
:109E7C00002B22D12000FFF745FD012816D02268C7
:109E8C00536811490B4053602268936822218B431D
:109E9C009360226893681A390B43936022681368A5
:109EAC0007390B4313602000FFF768FF10BD8433A4
:109EBC000022C254FCF746FFD1E72000FFF79EFEBC
:109ECC00D8E70120F2E7C046FFB7FFFFF8B5040062
:109EDC00436E002B05D101336A228352023A83521E
:109EEC00F8BD026895686D0E07231D409268520FED
:109EFC001340084FF85CC000074EF15CFCF798F972
:109F0C006A23E052785DC000715DFCF791F968231B
:109F1C00E052E5E764E700085CE7000870B58423CD
:109F2C00C35C012B15D084240126065588252423D7
:109F3C004351026813681168B1431160064A13401B
:109F4C000022426601680B60202343510255002019
:109F5C0070BD0220FCE7C046FFFFFFDFF8B5040030
:109F6C000A008423C35C012B1BD08425012060557F
:109F7C0088262423A35123681F681968814319601C
:109F8C0020688368DB00D908114381602000FFF74B
:109F9C009DFF23681F602023A351002363550020DD
:109FAC00F8BD0220FCE70000F8B504000B00842289
:109FBC00825C012A1BD0842501206055882624222E
:109FCC00A251226817681168814311602268916858
:109FDC0008480140194391602000FFF777FF236880
:109FEC001F602023A351002363550020F8BD0220DD
:109FFC00FCE7C046FFFFFFF1014B024A9A60704735
:10A00C0000ED00E00060000810B503000C4A0D499B
:10A01C00521A0D490968002907D00B490868C31862
:10A02C00934206D8084A136010BD074907480860D8
:10A03C00F3E702F087FF0C23036001204042F3E7B3
:10A04C000090002000040000AC040020E87C0020FC
:10A05C000120704710B502F075FF16230360012034
:10A06C00404210BD10B501214942FFF7F3FFFEE756
:10A07C0070B50C001600002504E000E000BF207055
:10A08C0001350134B542F8DB300070BD012040428F
:10A09C00704780239B014B60002070470120704764
:10A0AC0000207047406800E00068002802D0038957
:10A0BC008B42F9D1704770B50400456801892800BE
:10A0CC00FFF7F0FF002805D1281D210000F017FF35
:10A0DC00002070BD01204042FBE7030010300A7CD9
:10A0EC00F02A08D08A721A7DCA725B7D0B730B71D1
:10A0FC008B7C4B717047703AF4E70000F8B5CE4694
:10A10C00474680B50600002398460AE043460233D2
:10A11C00DB009F5923E0454800F0FEFE01239C46DE
:10A12C00E0444346002BF1DDC0BCB946B046F8BD57
:10A13C000C30EFF3108972B6210000F0E0FE89F3C9
:10A14C00108808E03068EFF3108972B6210000F037
:10A15C00D6FE89F3108829003800BB68984733680D
:10A16C009B68002BD7D038007B689847051ED5D04C
:10A17C003068EFF3108972B600F0B2FE040089F378
:10A18C0010881722002102F010FF43460233DB0037
:10A19C00F3181B79A3710723EB56002B18DB281D32
:10A1AC00210000F06DF90028CCD1A18A3000FFF716
:10A1BC0079FF002802D0037E002BB9D03068EFF372
:10A1CC00108972B6210000F09AFE89F31088C2E75C
:10A1DC00281D210000F098FA00281CD1A18A30001B
:10A1EC00FFF760FF002802D0037E002B09D03068F7
:10A1FC00EFF3108972B6210000F081FE89F310880C
:10A20C00A9E70C30EFF3108972B6210000F077FE4D
:10A21C0089F310889FE73068EFF3108972B621003C
:10A22C0000F06DFE89F3108895E7C046CCE7000876
:10A23C0070B50D00FFF751FF041E20D000680368B5
:10A24C009847061E1DD0AB7A002B0CD1011D28009F
:10A25C0000F0D8F80500002D0BD12068C368310040
:10A26C009847280070BD011D280000F0C2F90500B8
:10A27C00F1E720688368310098470225F1E704254F
:10A28C00EFE70125EDE770B506000C000B7C102BF9
:10A29C000BD0FFF7CDFF050080235B4203432372F5
:10A2AC00E379DB0726D5280070BD898AFFF7FAFE13
:10A2BC00051E02D0037E002B0AD03068EFF3108508
:10A2CC0072B6210000F01BFE85F310880025EAE72A
:10A2DC0020000A3021001031032202F05DFE28001C
:10A2EC000C30EFF3108572B6210000F008FE85F3F8
:10A2FC001088EBE73068EFF3108672B6210000F09F
:10A30C00FEFD86F31088CEE710B50389CB8140683B
:10A31C00FFF7B9FF10BD10B54369002B08D00C3006
:10A32C00EFF3108472B600F0DBFD84F3108810BDDF
:10A33C000020FCE710B5FFF7BEFE10BD30B50024C1
:10A34C00002C02DD0120404230BDA51CED002D5833
:10A35C00002D01D00134F3E70234E4002150001940
:10A36C00027143710020EFE770B504000D00182254
:10A37C00002102F01AFE256070BD000070B50B00C4
:10A38C00847D027C002A28D1C2891D498A4220D0B2
:10A39C00858A1B498D4223D119498A4223D0002C2E
:10A3AC0024D0C27D3F2115008D43802D21D151B287
:10A3BC003F220A4040210A431A70013CE4B20100DA
:10A3CC001831FC2C18D8581C220002F0E5FD601C3A
:10A3DC0070BD818A3F29DFD9DAE701204042F7E7D7
:10A3EC0001204042F4E701204042F1E701204042C5
:10A3FC00EEE701204042EBE701204042E8E7C0468F
:10A40C00CDCD000010B50C00037B0B70837C4B7022
:10A41C000331FFF7B3FF002801DBA070002010BD53
:10A42C00F8B506000F00100017300023F356002B70
:10A43C001ADB002595729479D472157454741179C1
:10A44C001173537993747B1E937533785B060ED41A
:10A45C000A4BD38133789382FD2F0BD8711C7A1E53
:10A46C0002F09AFD0020F8BD01204042FBE70120DC
:10A47C004042F8E701204042F5E7C046CDCDFFFF52
:10A48C0010B50A0003780B7143784B718178033057
:10A49C00FFF7C6FF10BD02280CD004280FD00028EF
:10A4AC0003D002230B70137003E000230B700133F5
:10A4BC001370704701230B7000231370F9E701230D
:10A4CC000B701370F5E7000010B51C00164B98428A
:10A4DC0004D0FF2817D80123137001E00023137058
:10A4EC00114B994212D0FF2915D8012323701378F0
:10A4FC001B0122781343102B12D0112B12D0012BDD
:10A50C000CD0062010BD02231370E9E79842EAD064
:10A51C0000232370EBE702232370E8E70020F1E728
:10A52C000220EFE70420EDE7CDCD0000F0B583B0BD
:10A53C0005000C004E1C837AA02B47D000232A7CEC
:10A54C00F02A45D01901802252420A4322709A0700
:10A55C0004D5EA7A6270E61C2A7BA270002B04D028
:10A56C006B7C3370AB7C737002366B46DF1DA98A33
:10A57C00E88906333A00FFF7A7FF237803432370DB
:10A58C003B78002B02D0EB89337001366B460733D6
:10A59C001B78022B20D06B4606331B78002B02D085
:10A5AC00AB8A337001366B4606331B78022B18D0FE
:10A5BC00341BAA7DA318FD2B18DC290017313000A1
:10A5CC0002F0EAFCA87D201803B0F0BD0223B6E728
:10A5DC0001221343DBB2B5E7EB891B0A337001365A
:10A5EC00D9E7AB8A1B0A33700136E1E70120404200
:10A5FC00EAE710B50C0003790B7043794B7003310B
:10A60C00FFF794FF002801DBA070002010BD0000B4
:10A61C00F0B5C64600B582B0050088461400411C52
:10A62C0003783722180090430200802864D11B095C
:10A63C007D3A1A40980738D5A021A1726978E17249
:10A64C00E91CAF782773002A38D0DB0734D5F02308
:10A65C0023740B7863748E1C4B78A3742B786A4626
:10A66C00D71D0620184006323900FFF714FF3A7840
:10A67C00002A2BD1234BE38133006A460632127831
:10A68C00002A2ED11F4AA28219004D1B43465D1B86
:10A69C00EAB2A275FC2A32D82000173002F07CFCFA
:10A6AC00002002B080BCB846F0BD8020A072A77913
:10A6BC00E77227792773C6E7A023C9E780232374A1
:10A6CC00A37963746379A3740E00C7E7731C3178A4
:10A6DC00E181022AD1D1727812021143E181013356
:10A6EC00CBE7591C1878A082022ACED15B781B02CA
:10A6FC001843A0820131C8E701204042D1E7012074
:10A70C004042CEE7CDCDFFFF10B50A0003780B71A8
:10A71C0043784B7181780330FFF77AFF10BD10B589
:10A72C008069EFF3108472B600F0DAFB84F31088C2
:10A73C0010BD10B51C30EFF3108472B600F0D0FBD6
:10A74C0084F3108810BD10B58069EFF3108472B6D5
:10A75C0000F0D5FB84F3108810BD10B50400C37D48
:10A76C00002B02D1837D012B03D0A37D022B00D0C3
:10A77C0010BD0323A3753B331022E254636E5B6858
:10A78C00998818680022FDF70AFE636E21003E319D
:10A79C00186802230A00FEF7EBFDE9E7F0B583B079
:10A7AC0004006B46FF22DA710123C375A37D012BD4
:10A7BC00FCD8656E6B469F1D99716B6899881868FB
:10A7CC000022FDF7ECFD0126764233000122390010
:10A7DC002868FEF751FA33000122694607312868D0
:10A7EC00FEF756FC6B68998818680122FDF7D7FDB7
:10A7FC000023E375E36E99881868FDF7C9FD0028FE
:10A80C0003D06B46D87903B0F0BDEFF3108572B668
:10A81C002000FFF7A2FF85F31088F2E7F0B585B0B2
:10A82C00040008006B46DA710123E375A37D012B4C
:10A83C00FCD8656E8021494201430F276F44397063
:10A84C006B68998818680022FDF7A9FD01267642ED
:10A85C003300012239002868FEF70EFA330001227A
:10A86C00694607312868FEF707FA6B6899881868FB
:10A87C000122FDF794FD0023E375E36E99881868B7
:10A88C00FDF786FD002801D005B0F0BDEFF3108573
:10A89C0072B62000FFF761FF85F31088F4E7000023
:10A8AC00F0B5C64600B582B006000F009046194BB5
:10A8BC001D6848084019FBF731FC84B2013CA4B276
:10A8CC004346580828184146FBF728FC85B2013D41
:10A8DC00ADB2E2B20C213000FFF7A0FF220A0D212D
:10A8EC003000FFF79BFFEAB20E213000FFF796FF16
:10A8FC002A0A0F213000FFF791FF3169019500946E
:10A90C0043463A00044800F007FB02B080BCB8464E
:10A91C00F0BDC04694000020E0E70008F0B5C64644
:10A92C0000B506000D0090461F00069C0369002B25
:10A93C0029D0280000F0D4FA7063B561654B336000
:10A94C00654B7360654BB360654BF3607766B466BB
:10A95C00079BF3663169634800F0DEFA002C0FD0D8
:10A96C00A18800222068FDF71AFD0220FDF76AFF7E
:10A97C00A18820680122FDF712FD0220FDF762FF7D
:10A98C000027FF250EE0584B0361D2E77B1CDBB29E
:10A99C000A2F14D81F002C0000E00027002000F024
:10A9AC0057FB250000213000FFF7F8FE04000138AA
:10A9BC00C0B2FD28F1D8A542E8D00027EEE72A0066
:10A9CC0031694A4800F0A8FA357500230D22AA42D5
:10A9DC005B4173750F2D65D802213000FFF7DEFE49
:10A9EC0040B20E2202400120024352B243469B7BEE
:10A9FC00012B00D16BE010231A4302213000FFF72A
:10AA0C000DFF43461A780B213000FFF707FF434632
:10AA1C001A7B1A213000FFF701FF43465A7B1B219A
:10AA2C003000FFF7FBFE43461A7C05213000FFF790
:10AA3C00F5FE43461A8A120A06213000FFF7EEFE95
:10AA4C0043469A7C07213000FFF7E8FE43465A8ABA
:10AA5C00120A08213000FFF7E1FE43461A7D092156
:10AA6C003000FFF7DBFE43469A6859683000FFF769
:10AA7C0017FF3F2216213000FFF7D0FE346910215A
:10AA8C003000FFF78BFE02002100194800F044FA59
:10AA9C00DA2211213000FFF7C1FE0123B37580BC0F
:10AAAC00B846F0BD733201213000FFF7B7FE3469B0
:10AABC0000213000FFF772FE020021000D4800F06B
:10AACC002BFA102235213000FFF7A8FE84E71F3344
:10AADC0092E7C0462BA700083FA7000853A7000821
:10AAEC0005AB000810E8000808E8000820E800089A
:10AAFC0060E8000838E8000870B50400EFF3108532
:10AB0C0072B6436C01334364283000F0F8F9A37D2E
:10AB1C00012B02D085F3108870BD2000FFF71DFEBD
:10AB2C00F8E7000070B50400837D032B17D0062BCB
:10AB3C0000D128E1082B00D125E1092B00D122E11D
:10AB4C00042B00D13BE1A37D052B00D161E1072B48
:10AB5C0000D19BE12169CC4800F0DEF92EE13C33B9
:10AB6C00C55C436E5B68998818680122FDF717FC79
:10AB7C00082213002B402A4203D0A36C0133A36498
:10AB8C000423EA0605D508221343DBB2E26C01323A
:10AB9C00E2646A0705D520221343DBB2226D013231
:10ABAC002265002B02D0627D002A2DD16A0605D5C4
:10ABBC0004221343DBB2626D013262656AB2002A71
:10ABCC0038DB002B02D0627D002A3AD1AB074ED481
:10ABDC003C23E35C002B00D192E0AA065CD43D221E
:10ABEC00A25C002A72D0002B00D1CAE00223A3750C
:10ABFC00E36E99881868FDF7CBFB002800D0DDE0E8
:10AC0C002000FFF7AAFDD9E00622A2753832962162
:10AC1C00A1540132A354636E5B68998818680022B2
:10AC2C00FDF7BDFB636E21003E3118680222FEF772
:10AC3C0007FBC3E008221343DBB2A26D0132A2650D
:10AC4C00BFE70822A27536329721A1540132A354D2
:10AC5C00636E5B68998818680022FDF7A0FB636E31
:10AC6C0021003E3118680222FEF7EAFAA6E004231E
:10AC7C00A375636BDD1C1422DA70636E5B689988B4
:10AC8C0018680022FDF78BFB636E186804232A00FA
:10AC9C002900FEF76DFB91E03C230022E254343B8B
:10ACAC00A37536339732E2540133943AE254636E0F
:10ACBC005B68998818680022FDF771FB636E2100B0
:10ACCC003E3118680222FEF7BBFA77E03D230132D1
:10ACDC00E254343BA37535339032E254013369327C
:10ACEC00E254636E5B68998818680022FDF757FB85
:10ACFC00636E21003E3118680222FEF7A1FA5DE076
:10AD0C00A26A002A1ED13D22A25C002A00D16AE769
:10AD1C003D230022E254343BA37535339132E25487
:10AD2C0001334932E254636E5B68998818680022DB
:10AD3C00FDF735FB636E21003E3118680222FEF7E9
:10AD4C007FFA3BE020002830EFF3108672B600F05B
:10AD5C00C7F8050086F31088A063C61C9523C37042
:10AD6C008E3BA375636E5B68998818680022FDF7AB
:10AD7C0016FB636EAA79043218683100FEF760FA8C
:10AD8C001CE0012333E7636E5B6899881868012225
:10AD9C00FDF705FB0323A3753B331022E254636ECE
:10ADAC005B68998818680022FDF7F9FA636E210038
:10ADBC003E31186802230A00FEF7DAFA70BD01333F
:10ADCC008375416B8A79FD2A09D8002A00D1BAE62D
:10ADDC00436E073192B21868FEF7D6FBEEE7036EAE
:10ADEC00013303660623837538339622C25401332C
:10ADFC00933AC254436E5B68998818680022FDF739
:10AE0C00CEFA636E21003E3118680222FEF718FA62
:10AE1C00D4E7636E5B68998818680122FDF7BFFA66
:10AE2C00A069EFF3108672B600F05AF8050086F3AD
:10AE3C001088002824D020001C30616BEFF31086A2
:10AE4C0072B600F05CF886F310886563236C0133EE
:10AE5C0023640623A37538339622E2540133933AC4
:10AE6C00E254636E5B68998818680022FDF797FAC4
:10AE7C00636E21003E3118680222FEF7E1F99DE76E
:10AE8C00E36D0133E365E4E774E80008636E5B6827
:10AE9C00998818680122FDF782FAA069A16BEFF37B
:10AEAC00108572B600F02BF885F310880023A3638D
:10AEBC003C330122E254393BA3753B330F32E2544D
:10AECC00636E5B68998818680022FDF768FA636EF8
:10AEDC0021003E31186802230A00FEF749FA6DE79B
:10AEEC0003008268002A08D0006801681960013AE2
:10AEFC009A60002A00D15A6070470020FCE78368F2
:10AF0C005A1C8260002B05D04368196041600023F5
:10AF1C000B6070470160F9E70FB430B583B03D4B5F
:10AF2C001B68002B42D01B78002B3FD03A4B5B6840
:10AF3C001B689B68002B3ED0EFF3108372B6364A29
:10AF4C00526812689268022A3AD9344A1468002C62
:10AF5C003DD00021116083F3108807AB0193A27DD3
:10AF6C00A221891A200017308018069A02F0AAF93B
:10AF7C00A37DA122D21A904200DD10001818A075F2
:10AF8C00EFF3108572B6A27D531EE318DB7D0A2BFE
:10AF9C0005D0A12A03D0214B1B68002B36D02100F1
:10AFAC001F48FFF7ACFF85F3108804E007A9019157
:10AFBC00069802F045F903B030BC08BC04B0184741
:10AFCC0018490A6801320A6083F31088F3E783F3A7
:10AFDC001088114B5B681868EFF3108572B6FFF799
:10AFEC007FFF040085F310880028E4D0172200218D
:10AFFC0001F0DBFF4023E3753F3BA3750A4B196857
:10B00C0020001030062201F0C7FFA6E7034B1C609E
:10B01C00C9E7C046B40400200C000020D004002076
:10B02C00C0040020B8040020B004002010B5054B6B
:10B03C0058600548016005490A601800FFF77AF965
:10B04C0010BDC0460C000020B0040020B404002049
:10B05C00F8B50500224B1968224B1A68914227D08B
:10B06C00214B5B681B689B68022B21D91F48FFF79B
:10B07C0053FF1C4B1A681A4B1A6019E0EFF310843B
:10B08C0072B61B48FFF72CFF84F31088194B18601D
:10B09C0012E0184C21680026CE71134B5B681868BF
:10B0AC00EFF3108772B6FFF72AFF87F3108826603C
:10B0BC00104B1B68002BE1D00E4B196800290DD0EA
:10B0CC00094B5B681B69002B08D00124CC71064826
:10B0DC00FFF71AF90442DCD0002DE9D1F8BDC046C7
:10B0EC00BC040020B80400200C00002094E80008E8
:10B0FC00C0040020CC04002070B50D0014000138F1
:10B10C0001280ED890B20021884210D9094B1B6837
:10B11C001B68DA691206F9D56A5C9A62013189B248
:10B12C00F2E701F00FFF09230360012464422000C1
:10B13C0070BDC04698000020F8B5364B1E88364BC3
:10B14C001F88364C6C220021200001F02EFF344B5E
:10B15C0023800423FF336380053B2373E1235B02CD
:10B16C002361636101235B4223831533A383B433CF
:10B17C00E383A83B0122E2542A4D20002630023200
:10B18C00290001F009FF0923638523002C332A8849
:10B19C00A285AA789A7010232386A0239B0063862D
:10B1AC00A03BA3869D3BFF3B3222E2521E4B9E42AC
:10B1BC0007D01D4B9E4211D0184B1B79002B22D16E
:10B1CC00F8BD0423FF339F42F3D1144C2D321149A7
:10B1DC00200001F0E1FE01232371EDE73F0A012F6E
:10B1EC00EAD10E490B480B00020031CA31C331CAF7
:10B1FC0031C331CA31C311CA11C302230B710423E9
:10B20C00FF334B80D8E7054803220021053001F0BD
:10B21C00CCFED5E700F8010802F80108D4040020A0
:10B22C00CDCDFFFF20E70008CDCD000070B58AB072
:10B23C0005000E0001235B420993154B03400222CB
:10B24C00059202320692D90A07919B19DA0A521A10
:10B25C0008925B0501D001320892FCF7E9FE041E4E
:10B26C0010D0FCF765FF0443079B0294099A0192E6
:10B27C00089A0092320029000648FFF74DFE200084
:10B28C000AB070BD09A905A8FCF780FF0400E8E727
:10B29C00FFFFFFF7ACE80008F0B5C64600B50700A5
:10B2AC0090460731CD08FCF7C3FE0400002609E0E8
:10B2BC00F300F91843441A685B680120FCF706FF99
:10B2CC0004000136002C01D1AE42F1DBFCF730FF5B
:10B2DC00204380BCB846F0BD10B5802109010E4852
:10B2EC00FFF7A4FFC0B200280DD10C4A5F210A4819
:10B2FC00FFF7D2FFC0B2002809D15F210848FFF741
:10B30C000BFE002010BD0748FFF706FEEDE70648D0
:10B31C00FFF702FE0120F5E700F80108D404002035
:10B32C0000E90008E0E800082CE90008F0B5C64682
:10B33C0000B582B00120FFF78BFE8448FFF7ECFDCF
:10B34C000120FFF785FE824C824B009323000222E2
:10B35C0002218148FFF7E0FD804E814B00933300C2
:10B36C00012204217F48FFF7D7FD0120FFF770FE73
:10B37C007D4F7E4B00933B00012205217C48FFF75B
:10B38C00CBFD7C4B00933B00012207217A48FFF751
:10B39C00C3FD7A4D2800FFF7BFFD0120FFF758FED3
:10B3AC00774B0093330001220C217648FFF7B4FD54
:10B3BC00754B9846754B00934346042210217448F4
:10B3CC00FFF7AAFD0120FFF743FE724B00934346A3
:10B3DC00042214217048FFF79FFD704B9846704B68
:10B3EC0000934346022218216E48FFF795FD012079
:10B3FC00FFF72EFE6C4B0093330001221A216B4891
:10B40C00FFF78AFD6A4B0093230002221C21694836
:10B41C00FFF782FD0120FFF71BFE674B0093230013
:10B42C0002221E216548FFF777FD654B0093330020
:10B43C00012220216348FFF76FFD6348FFF76CFD85
:10B44C000120FFF705FE614B00933B0001222421F4
:10B45C005F48FFF761FD5F4B0093434603222621B3
:10B46C005D48FFF759FD5D4B0093230002222A2112
:10B47C005B48FFF751FD2800FFF74EFD0120FFF759
:10B48C00E7FD584B0093434603222C215648FFF707
:10B49C0043FD564B00932300022230215448FFF702
:10B4AC003BFD2800FFF738FD0120FFF7D1FD514B84
:10B4BC0000932300022232214F48FFF72DFD4F4B02
:10B4CC0000932300022234214D48FFF725FD28006C
:10B4DC00FFF722FD0120FFF7BBFD4A4B00933B0019
:10B4EC00012242214848FFF717FD484B00932300E7
:10B4FC00022244214648FFF70FFD464B00933300D0
:10B50C00012246214448FFF707FD2800FFF704FD00
:10B51C000120FFF79DFD414B0093330001225F2179
:10B52C003F48FFF7F9FC3F4B00933B000122692198
:10B53C003D48FFF7F1FC2800FFF7EEFC0120FFF778
:10B54C0087FD02B080BCB846F0BDC0464CE900088F
:10B55C0060E9000898E9000864E90008A8E9000817
:10B56C00E0E90008ACE900081CEA000854EA00080D
:10B57C0020EA00089CEA000868EA0008C4EA00080F
:10B58C0000EB0008CCEA000820EB00085CEB00089C
:10B59C0024EB0008B4EB00087CEB0008D8EB0008A7
:10B5AC0018EC0008DCEB000864EC00082CEC00083C
:10B5BC00C4EC000884EC00081CED0008DCEC00086E
:10B5CC0078ED00083CED000890ED0008C8ED00088F
:10B5DC0098ED000834EE0008FCED000890EE000831
:10B5EC0058EE0008E8EE0008B0EE00083CEF00084A
:10B5FC0004EF000884EF000854EF0008C4EF0008C3
:10B60C0094EF000804F00008D4EF000858F000088C
:10B61C0024F0000894F0000868F00008C8F0000856
:10B62C0098F0000830F1000800F1000830B587B040
:10B63C0001AA0F4B32CB32C211001A680A601B7977
:10B64C000B7100230DE00B4A9A18157829095A0042
:10B65C0001AC615C81540F2129400132615C815441
:10B66C0001330B2BEFDD0023037607B030BDC04652
:10B67C00B4F100089075FF1FF0B5DE4657464E46F4
:10B68C004546E0B585B081460E0093469846002BA2
:10B69C000CD02D4F4346002B0AD02C4B1B689A46DE
:10B6AC000024002303935346029327E0284FF1E72D
:10B6BC00284B1B689A46F3E763001B199B00FB1889
:10B6CC005B6826E0019268468088B446DC44E2451B
:10B6DC0003DC614502DD614600E011008DB2A84239
:10B6EC000BD0801A80B2019D491BC9B24546002D72
:10B6FC0020D0921B4244984703900134029B9C42F9
:10B70C001ADA4B46002BD7D063001B199B00FB1891
:10B71C009B68002BF1D0620012199200B918BA5A2A
:10B72C009246498851189642CCD301968E42CADD76
:10B73C000191C8E74246DEE7039805B0F0BCBB4672
:10B74C00B246A946A046F0BD300000203C000020C7
:10B75C00400500204005002070B5084D2800FFF77B
:10B76C0065FF074C074B2A000749200001F02AFD12
:10B77C0021000648FFF7D0FB70BDC04644050020F1
:10B78C0060050020C8F10008D0F10008E8F10008BD
:10B79C00F0B5DE4657464E464546E0B585B04E48B8
:10B7AC00FEF7B9FD041E10D0C38A012B14D0837D83
:10B7BC00042B02D9C37D102B2BD04848FFF7ACFBD0
:10B7CC00474B18682100FFF79AFB05B0F0BCBB464D
:10B7DC00B246A946A046F0BD7F33C375414D183023
:10B7EC00290001F00FFD2800FAF786FC0130A07546
:10B7FC002000103021000A31062201F0CDFB21007F
:10B80C003548FEF781FD384A11797F230B401371BF
:10B81C00DBE7038B994601F097FC0500494633485A
:10B82C00FAF706FD01002800FAF702FDA37EE27E7E
:10B83C0090462D4A177BA27DA2180021D1751C229F
:10B84C009246A24405042D0C1E00BB4652460292A1
:10B85C000197424600924A4629002548FFF75CFBB7
:10B86C00BE4204D84646B84500D93E1CF6B2B34594
:10B87C0006D01D4A117980235B420B4313719CE760
:10B88C005146184801F0C6FC0028F2D0FCF7D4FF52
:10B89C000600FCF7D1FF801BA842FAD38023E37586
:10B8AC00104D20001830290001F0ACFC2800FAF7EC
:10B8BC0023FC0130A0752000103021000A31062233
:10B8CC0001F06AFB21000448FEF71EFD064A1179BF
:10B8DC007F230B40137178E74000002034F20008FE
:10B8EC00F805002060050020D4040020FFFFFF7F36
:10B8FC00F8F10008F0B5CE46474680B583B06848ED
:10B90C00FEF709FD041E30D0664B1B795BB2002B91
:10B91C0030DBC38A042B37D0C27D202A5ED0822232
:10B92C005200934200D0B1E0278BA57EFB2D00DDA9
:10B93C00FB25EEB2200018305B4979182A0001F083
:10B94C002BFB2A0039005948FFF7E6FA8023E375F0
:10B95C000136A6752000103021000A31062201F0B4
:10B96C001BFB21004E48FEF7CFFC03B0C0BCB94610
:10B97C00B046F0BD817D4E48FFF7CEFA4D4B1868AE
:10B98C002100FFF7BCFAF0E7038B9846857EFB2D70
:10B99C0000DDFB25EFB200233A0041460020FFF703
:10B9AC006BFE061E0BD02A0041464348FFF7B4FA43
:10B9BC00802040420643E6750137A775CAE7200090
:10B9CC0018302A003749414401F0E6FA00233A00C6
:10B9DC0041460120FFF750FE0600E4E7877D032F68
:10B9EC009DD9058B033FFFB21A2398468044EFF391
:10B9FC00108972B643463A0029000020FFF73CFE3E
:10BA0C00061E39D089F3108833003A0029002B48E0
:10BA1C00FFF782FA0123A375802040420643E675A6
:10BA2C0098E701926B469B88E819824203DC0A0076
:10BA3C00814200DD020091B28B420BD0019B1804B5
:10BA4C00000C411B41441204120C121A154BC01865
:10BA5C0001F0A2FA01361A4B1B68B3420EDDB3009B
:10BA6C00184A9918D25A498851189542D9D3019538
:10BA7C008D42D7DD0191D5E70026ECE743463A002D
:10BA8C0029000120FFF7F8FD0600BBE7A17D0E4859
:10BA9C00FFF742FA074B18682100FFF730FA64E70A
:10BAAC005C000020D404002048F10008A0F200083B
:10BABC0048F20008F805002064F200087CF2000847
:10BACC002C00002028000020BCF20008F8B52C48FF
