:020000040800F2
:10600000009000206DB60008C1680008D168000843
:106010000000000000000000000000000000000080
:10602000000000000000000000000000E16800081F
:106030000000000000000000E3680008E5680008B8
:10604000BDB60008BDB60008BDB60008BDB6000864
:10605000BDB600081DB00008BDB60008BDB60008FA
:10606000BDB60008BDB60008BDB60008BDB6000844
:10607000BDB60008BDB60008BDB60008BDB6000834
:10608000BDB60008BDB60008BDB60008BDB6000824
:10609000BDB60008BDB60008BDB60008BDB6000814
:1060A000BDB60008BDB60008BDB60008BDB6000804
:0C60B000BDB60008BDB60008BDB6000873
:1060BC000023C25C0133002AFBD1581E704700003C
:1060CC0003B47146490840004900095E49008E44FA
:1060DC0003BC7047002243088B4274D303098B42E4
:1060EC005FD3030A8B4244D3030B8B4228D3030C9C
:1060FC008B420DD3FF22090212BA030C8B4202D33E
:10610C001212090265D0030B8B4219D300E0090A65
:10611C00C30B8B4201D3CB03C01A5241830B8B426E
:10612C0001D38B03C01A5241430B8B4201D34B0357
:10613C00C01A5241030B8B4201D30B03C01A5241BC
:10614C00C30A8B4201D3CB02C01A5241830A8B4241
:10615C0001D38B02C01A5241430A8B4201D34B022A
:10616C00C01A5241030A8B4201D30B02C01A52418E
:10617C00CDD2C3098B4201D3CB01C01A5241830942
:10618C008B4201D38B01C01A524143098B4201D37C
:10619C004B01C01A524103098B4201D30B01C01AA7
:1061AC005241C3088B4201D3CB00C01A5241830821
:1061BC008B4201D38B00C01A524143088B4201D34E
:1061CC004B00C01A5241411A00D2014652411046AE
:1061DC007047FFE701B5002000F0F0F802BDC046A3
:1061EC000029F7D076E7704703460B437FD4002293
:1061FC0043088B4274D303098B425FD3030A8B424F
:10620C0044D3030B8B4228D3030C8B420DD3FF22B8
:10621C00090212BA030C8B4202D31212090265D086
:10622C00030B8B4219D300E0090AC30B8B4201D339
:10623C00CB03C01A5241830B8B4201D38B03C01A80
:10624C005241430B8B4201D34B03C01A5241030BF7
:10625C008B4201D30B03C01A5241C30A8B4201D3A8
:10626C00CB02C01A5241830A8B4201D38B02C01A53
:10627C005241430A8B4201D34B02C01A5241030ACA
:10628C008B4201D30B02C01A5241CDD2C3098B42AF
:10629C0001D3CB01C01A524183098B4201D38B012C
:1062AC00C01A524143098B4201D34B01C01A5241CF
:1062BC0003098B4201D30B01C01A5241C3088B4214
:1062CC0001D3CB00C01A524183088B4201D38B00FF
:1062DC00C01A524143088B4201D34B00C01A5241A1
:1062EC00411A00D201465241104670475DE0CA0F78
:1062FC0000D04942031000D34042534000229C4638
:10630C0003098B422DD3030A8B4212D3FC22890141
:10631C0012BA030A8B420CD3890192118B4208D317
:10632C00890192118B4204D389013AD0921100E079
:10633C008909C3098B4201D3CB01C01A524183098D
:10634C008B4201D38B01C01A524143098B4201D3BA
:10635C004B01C01A524103098B4201D30B01C01AE5
:10636C005241C3088B4201D3CB00C01A524183085F
:10637C008B4201D38B00C01A5241D9D243088B42B5
:10638C0001D34B00C01A5241411A00D20146634658
:10639C0052415B10104601D34042002B00D54942BC
:1063AC00704763465B1000D3404201B5002000F0FB
:1063BC0005F802BD0029F8D016E770477047C046B3
:1063CC00002B11D1002A0FD1002900D1002802D0B6
:1063DC000021C943080007B4024802A140180290EA
:1063EC0003BDC046D9FFFFFF03B4684601B5029850
:1063FC0006F06CFC019B9E4602B00CBC7047C0467C
:10640C0010B5002903D100F007F8203002E0080095
:10641C0000F002F810BDC0461C2101231B04984259
:10642C0001D3000C10391B0A984201D3000A083919
:10643C001B09984201D30009043902A2105C4018D0
:10644C007047C04604030202010101010000000074
:10645C00000000000448054B10B5834203D0044BE8
:10646C00002B00D0984710BD3001002030010020D7
:10647C000000000006480749091A8B10C90FC918FB
:10648C0010B5491003D0044B002B00D0984710BD19
:10649C0030010020300100200000000010B5074C36
:1064AC002378002B09D1FFF7D5FF054B002B02D029
:1064BC00044800E000BF0123237010BD3001002010
:1064CC000000000070CE0008054B10B5002B03D067
:1064DC000449054800E000BFFFF7CCFF10BDC046E3
:1064EC00000000003401002070CE000882B0054A84
:1064FC00916B012319439163926B13400193019BA0
:10650C0002B0704700100240F0B5DE4657464E46CA
:10651C004546E0B58BB005AC14220021200005F0F7
:10652C00A7FB564B596B042211435963596B0A4014
:10653C000192019A5A6B012632435A635A6B3240CC
:10654C000292029A5A6B02273A435A635A6B3A40A8
:10655C000392039A5A6B08218B460A435A635B6B6E
:10656C000B400493049B7931454B984600228901DA
:10657C00180001F0E3FDA023DB05994601228121DF
:10658C000902180001F0DAFD01228021404601F0D9
:10659C00D5FD3C4B9A4600220621180001F0CEFD99
:1065AC0080239B01059366600025A560E5602100B2
:1065BC00404601F009FDFF2305936560A5602100AD
:1065CC00484601F001FD059688235B036360A560D6
:1065DC0021002D4801F0F8FC062305936560A560A9
:1065EC002100294801F0F0FC80235B0105936560D4
:1065FC00A6602100244801F0E7FC812212020592DA
:10660C006660A560E7602100484601F0DDFC802350
:10661C009B0005936760A560E760256121004846F3
:10662C0001F0D2FC402305932F3B6360A660E5602C
:10663C002100404601F0C8FC802305936660A560EC
:10664C00E7602100404601F0BFFC0623059366601D
:10665C00A560E5602100504601F0B6FC5B46059351
:10666C006560A6602100504601F0AEFC0BB0F0BC9A
:10667C00BB46B246A946A046F0BDC046001002403B
:10668C0000080050000C00500004005072B6FEE7E9
:10669C0010B51048104B036082235B00436000234D
:1066AC008360E022D200C2600361436180229200C9
:1066BC008261F93AFF3AC261036243628362072145
:1066CC00C1620363426301F0C1FE002800D110BD1A
:1066DC00FFF7DCFFB40300200030014010B5174871
:1066EC00174B0360174B436000238360C360036147
:1066FC000C2242618361C36103624362836202F0D4
:10670C00FBF9002811D10D48002102F07BFA00287A
:10671C000DD10A48002102F09BFA002809D1074844
:10672C0002F050FA002806D110BDFFF7AFFFFFF7BB
:10673C00ADFFFFF7ABFFFFF7A9FFC0464C010020F0
:10674C000038014080841E0010B51248124B0360C3
:10675C00124B4360002383600122C26003614361DA
:10676C008361C361036200F0DDFB00280CD1094892
:10677C00002100F0E1FD002808D10648002100F0BE
:10678C0007FE002804D110BDFFF780FFFFF77EFF46
:10679C00FFF77CFF1804002000580040B23B61C09A
:1067AC0010B51048104B036082235B00436000233C
:1067BC008360E022D200C2600361436180229200B8
:1067CC008261F93AFF3AC261036243628362072134
:1067DC00C1620363426301F039FE002800D110BD91
:1067EC00FFF754FF500300200038004010B592B062
:1067FC0004AC38220021200005F03AFA10220021C6
:10680C00684605F035FA8020800001F025FD022352
:10681C000493802252000792002208924021099191
:10682C000B930C930D9206330E9380239B020F93C4
:10683C0080239B04109380239B051193200000F070
:10684C00D1FD00281CD1684607230093053B01931A
:10685C00002302930393022101F0B2F8002811D116
:10686C00094AD16880235B050B43D3608022A021A9
:10687C0080209205C904800001F010F812B010BD00
:10688C00FFF704FFFFF702FF0010024010B501F004
:10689C0099FDFFF7ABFFFFF737FEFFF727FEFFF77A
:1068AC00F7FEFFF71BFFFFF74FFFFFF779FF04F031
:1068BC004DF9FEE710B5024805F082F8FEE7C04638
:1068CC00D4CE000810B5024805F07AF8FEE7C046B1
:1068DC00E0CE00087047704710B501F087FD10BD81
:1068EC0000B583B00B4B196C012211431964196C60
:1068FC000A400092009ADA6B802149050A43DA6358
:10690C00DB6B0B400193019BC020C00001F092FD9A
:10691C0003B000BD0010024010B588B00400142272
:10692C00002103A805F0A4F92268124B9A4201D069
:10693C0008B010BD104C626B02231A436263626B89
:10694C0013400193019B03A9C0231B010393122342
:10695C004B60113B8B6005330B61084801F034FB35
:10696C00E36B8022D2031343E363E36B1340029384
:10697C00029BDDE70058004000100240000400506C
:10698C0030B58BB004001422002105A805F070F975
:10699C002368514A934204D0504A93424FD00BB0D3
:1069AC0030BD4F4B1A6C80256D012A431A641A6C4A
:1069BC002A400192019A596B0222114359635B6B75
:1069CC0013400293029B05A9382305934A60CA60C1
:1069DC00444801F0F9FA4448444B036011234360E6
:1069EC00013B83600023C3608022026143618361A9
:1069FC00C361056201F0D8FB00281AD13A4B6365DC
:106A0C009C623B483B4B0360102343600023836034
:106A1C00C3608022026143618361C36180235B0197
:106A2C00036201F0C1FB002806D1314BA3659C62C7
:106A3C00B5E7FFF72BFEE1E7FFF728FEF5E7284B5C
:106A4C00DA6B8021C9010A43DA63DA6B0A400392DC
:106A5C00039A596B0222114359635B6B13400493E5
:106A6C00049B05A9E0231B0205934A601D4801F015
:106A7C00ABFA2148214B036013234360033B836033
:106A8C000023C3608022026143618361C36103629E
:106A9C0001F08AFB002818D1174B63659C621848DB
:106AAC00184B03601223436000238360C360802271
:106ABC00026143618361C361036201F075FB0028CD
:106ACC0006D10F4BA3659C6269E7FFF7DFFDE3E797
:106ADC00FFF7DCFDF5E7C046003001400038004010
:106AEC000010024000040050F40200201C00024080
:106AFC0098020020080002403C02002044000240A2
:106B0C00E00100203000024010B594B004001422C3
:106B1C0000210FA805F0ACF83422002102A805F0E2
:106B2C00A7F82268164B9A4201D014B010BD01236D
:106B3C00029302A801F024F800281ED1114B1A6C04
:106B4C008021C9010A431A641A6C0A400092009A07
:106B5C00596B0222114359635B6B13400193019BE8
:106B6C000FA940230F934A603F3B8B60CB600023FF
:106B7C000B61054801F028FAD7E7FFF787FDDDE741
:106B8C000038014000100240000400500268936974
:106B9C009B0701D50023936203689A69D20703D43B
:106BAC009A6901210A439A617047000010B5890562
:106BBC00890D120411431943029B194349004908DA
:106BCC00046862685B0D8020C000034003480343E7
:106BDC009A4313000B43636010BDC046FF63FF0371
:106BEC00F0B5C64600B504000D00170001688B69AE
:106BFC00102216001E401A4200D175E01023CB6102
:106C0C00002398460026206883699B0631D4002E09
:106C1C002FD16B1CF7D001F0F5FBC01BA84201D89B
:106C2C00002DF0D121684B688022D2011340422202
:106C3C00A25CD2B28869000403D5002B01D1202AB2
:106C4C000ED123689B699B06DDD401F0DBFBC01BD6
:106C5C001928F6D9202342461A4390460126D2E73A
:106C6C004A688023DB0113434B6001F0CBFB070028
:106C7C00E7E7002E01D12023C361042643463343AA
:106C8C001E00012522689369D90504D501210E4304
:106C9C00FF31D16101255A0506D508221643226819
:106CAC008021C900D16101259B051FD502231E43FC
:106CBC00236880229200DA6101252000FFF766FF2D
:106CCC00226853680B490B405360636C3343636415
:106CDC0041232022E25400232232A354023AA3542B
:106CEC00280080BCB846F0BD0025CBE7002DF7D0BE
:106CFC00E3E7C04600E800FE70B504000D00160086
:106D0C0023689B699B0720D4320029002000FFF7E1
:106D1C0067FF00281BD16B1CF2D001F073FB801BAA
:106D2C00A84201D8002DEBD123689B699B07E7D4BF
:106D3C00636C2022134363644123E2540023223208
:106D4C00A354023AA354012000E0002070BD01209E
:106D5C00FCE7F0B5D6464F4680B583B007000D0072
:106D6C00160099460A9B9A463B689C692C40641B0A
:106D7C0063425C410196B44228D1524649463800E0
:106D8C00FFF72EFF002827D14B460133ECD001F042
:106D9C0039FB5346C01A484502D84B46002BE3D169
:106DAC003B689B692B405B1B5A425341019A9342AF
:106DBC00DAD17B6C202213437B644123FA540023E9
:106DCC002232BB54023ABB54012000E0002003B035
:106DDC00C0BCBA46B146F0BD0120F8E770B582B030
:106DEC00040015001E008023F2B2194800905B04C9
:106DFC002000FFF7DBFE079A06992000FFF77CFFC7
:106E0C0000281ED1012E0ED12368EDB29D62079B86
:106E1C000093069B002280212000FFF79AFF002898
:106E2C0013D102B070BD23682A0A9A62079A069998
:106E3C002000FFF761FF002805D12368EDB29D62A9
:106E4C00E5E70120EDE70120EBE70120E9E7C0468B
:106E5C000020008070B582B0040015001E00DAB26C
:106E6C00184B00930023FFF7A1FE079A0699200008
:106E7C00FFF742FF00281ED1012E0ED12368EDB280
:106E8C009D62079B0093069B002240212000FFF788
:106E9C0060FF002813D102B070BD23682A0A9A62E1
:106EAC00079A06992000FFF727FF002805D12368D1
:106EBC00EDB29D62E5E70120EDE70120EBE7012053
:106ECC00E9E7C0460020008070B504000D001600F4
:106EDC0003E023689B699B0612D523689B699B067C
:106EEC001BD4320029002000FFF77AFE002816D1AF
:106EFC0001F088FA801BA842EBD8002DEDD1E8E711
:106F0C00636C2022134363644123E2540023223236
:106F1C00A354023AA354012000E0002070BD0120CC
:106F2C00FCE7000010B5041E60D04123C35C002BAD
:106F3C0048D041232422E2542268136801218B4358
:106F4C001360636822682A490B40136122689368B6
:106F5C0028490B409360E368012B39D0A168226863
:106F6C0084231B020B439360E368022B37D0226807
:106F7C00536821490B405360226851681F4B0B43E7
:106F8C0053602268D3681B490B40D3602369626944
:106F9C001343A269120221681343CB60E369216A8F
:106FAC0022680B4313602268136801210B431360A2
:106FBC000023636441221F31A15423630132A35483
:106FCC00002010BD40330022C254FFF7A5FCB0E7EF
:106FDC00A168226880231B020B439360C4E72268DC
:106FEC00516880231B010B435360C5E70120E8E780
:106FFC00FFFFFFF0FF7FFFFFFFF7FFFF00800002A6
:10700C00F0B587B004000391049205930CAB20CB30
:10701C001F884123C35C202B00D0AFE0002D18D07B
:10702C00002F16D04023C35C012B00D1A9E04023D4
:10703C000122C25401F0E6F90600802100901923C8
:10704C00012209022000FFF784FE002806D001204F
:10705C0095E080239B006364012090E04123212272
:10706C00E25401331F32E254002363646562678586
:10707C00636301960E9B0093059B049A0399200071
:10708C00FFF7ACFE00280ED1638DFF2B10D9FF2328
:10709C0023857F3B002200925B04FF320399200082
:1070AC00FFF784FD20E040230022E254012066E03B
:1070BC00628D92B222858023D2B2002100919B0472
:1070CC0003992000FFF772FD0EE0628D92B22285CB
:1070DC008023D2B2002100919B0403992000FFF77A
:1070EC0065FD638D002B32D032000E992000FFF726
:1070FC0003FE002847D1626A236812789A62636A99
:10710C0001336362638D013B9BB26385238D013B2D
:10711C009BB22385628D002AE3D0002BE1D100962F
:10712C000E9B002280212000FFF713FE00282CD19B
:10713C00638DFF2BC9D9FF2323857F3B002200924F
:10714C005B04FF3203992000FFF730FDC9E73200E2
:10715C000E992000FFF7B8FE002818D123682022D2
:10716C00DA6121684B680B4D2B404B604123E25494
:10717C0000232232A354023AA35400E0022007B0A9
:10718C00F0BD0220FBE70120F9E70120F7E7012021
:10719C00F5E7C04600E800FEF0B587B004000391A7
:1071AC00049205930CAB20CB1F884123C35C202B8E
:1071BC0000D0B1E0002D18D0002F16D04023C35CB6
:1071CC00012B00D1ABE040230122C25401F01AF98B
:1071DC000600802100901923012209022000FFF7EC
:1071EC00B8FD002806D0012097E080239B00636443
:1071FC00012092E041232222E25401331E32E25458
:10720C000023636465626785636301960E9B00933C
:10721C00059B049A03992000FFF71CFE00280ED151
:10722C00638DFF2B10D9FF2323857F3B404A0092AF
:10723C005B04FF2203992000FFF7B8FC20E04023F9
:10724C000022E254012068E0628D92B222858023F4
:10725C00D2B2374900919B0403992000FFF7A6FC9A
:10726C000EE0628D92B222858023D2B20021009171
:10727C009B0403992000FFF799FC638D002B34D0FD
:10728C0000960E9B002204212000FFF762FD0028CF
:10729C0047D123685A6A636A1A70636A013363625E
:1072AC00238D013B9BB22385628D013A92B262859C
:1072BC00628D002AE1D0002BDFD100960E9B0022BC
:1072CC0080212000FFF745FD00282CD1638DFF2B7A
:1072DC00C7D9FF2323857F3B002200925B04FF323A
:1072EC0003992000FFF762FCC7E732000E992000DB
:1072FC00FFF7EAFD002818D123682022DA61216803
:10730C004B680C4D2B404B604123E254002322323E
:10731C00A354023AA35400E0022007B0F0BD0220AF
:10732C00FBE70120F9E70120F7E70120F5E7C0466C
:10733C000024008000E800FEF0B54123C35C202B44
:10734C0020D12033C35C012B1ED0402401220255D6
:10735C0041252423435506683368934333600668FC
:10736C0033680A4F3B403360066833680B43336025
:10737C0001680B6813430B6020234355002303550E
:10738C000020F0BD0220FCE70220FAE7FFEFFFFF30
:10739C00F0B54123C35C202B1ED12033C35C012BE1
:1073AC001CD0402401220255412524234355066854
:1073BC0033689343336006683368094F3B400902D6
:1073CC001943316001680B6813430B60202343554C
:1073DC00002303550020F0BD0220FCE70220FAE751
:1073EC00FFF0FFFF70B582B0041E00D131E20368DC
:1073FC00DB0739D5C14A916838230B40D168032289
:10740C000A40102B26D0082B26D06368802252020B
:10741C0093427FD0A022D202934200D181E0B74B9D
:10742C001A68B7490A401A601A68B6490A401A60C5
:10743C006368002B00D180E000F0E4FF0500AF4B47
:10744C001B689B0310D400F0DDFF401B6428F6D9A9
:10745C000320FFE1032AD6D1A84B1B689B0303D55D
:10746C006368002B00D1F7E123689B0731D5A34A51
:10747C00916838230B40D16803220A40102B6AD044
:10748C00002B6BD19D4A1268520503D5E268002A85
:10749C0000D1E3E1994842689B490A4061690902BD
:1074AC000A434260002B0DD1036898490B402169B7
:1074BC000B4303600368DB0A07221A40944BD3404A
:1074CC00944A1360944B186800F050FF002800D0C9
:1074DC00C6E123681B0700D481E0884B9A683823E7
:1074EC001340182B73D0A369002B00D1B4E0834A4E
:1074FC00136E01210B43136600F084FF05007F4BD4
:10750C001B6E9B076BD400F07DFF401B0228F6D945
:10751C0003209FE1794A116880235B020B431360BF
:10752C0086E7764B19688022D2020A431A601968E2
:10753C00802252020A431A607AE700F063FF0500CA
:10754C006E4B1B689B038FD500F05CFF401B6428BF
:10755C00F6D903207EE1022A92D193E7E368002B4F
:10756C0022D0664A136869490B4021690B431360AA
:10757C00116880235B000B43136000F043FF050090
:10758C005E4B1B685B0506D400F03CFF401B0228D9
:10759C00F6D903205EE159494B685B4A1340626996
:1075AC00120213434B6094E7544A13685B490B4037
:1075BC00136000F027FF0500504B1B685B0588D556
:1075CC0000F020FF401B0228F6D9032042E14B4B70
:1075DC001B6E9B0703D5A369002B00D142E12368E6
:1075EC005B0700D4A2E0454B9A6838231340202B4C
:1075FC0045D0424BDB6BDB004AD4404BDA6B80212D
:10760C0049050A43DA63DB6B0B400193019B0125AF
:10761C00434B1B68DB053DD5A368012B4ED0052BD6
:10762C0052D0364BDA6D01218A43DA65DA6D0331BB
:10763C008A43DA65A368002B50D000F0E3FE060005
:10764C002E4BDB6D9B076FD400F0DCFE801B354BA3
:10765C009842F5D90320FDE0284A136E01218B4393
:10766C00136600F0CFFE0500244B1B6E9B07B6D5AE
:10767C0000F0C8FE401B0228F6D90320EAE01F4B9D
:10768C00DB6D9B0752D5A368002B4FD10120E1E0A5
:10769C000025BDE7224A116880235B000B43136071
:1076AC0000F0B0FE06001E4B1B68DB05B4D400F0E6
:1076BC00A9FE801B0228F6D90320CBE00F4AD36D1C
:1076CC0001210B43D365B5E70C4BDA6D04210A435A
:1076DC00DA65DA6D03390A43DA65ABE700F092FE3E
:1076EC000600064BDB6D9B071ED500F08BFE801B46
:1076FC000C4B9842F5D90320ACE0C0460010024078
:10770C00FFFFFEFFFFFFFBFFFF80FFFFFFC7FFFF39
:10771C000024F4000C00002008000020FFFEFFFFF6
:10772C000070004088130000012D1ED0E369002B6F
:10773C0000D199E0544A916838220A40102A60D04E
:10774C00022B18D0504A136850490B40136000F0BC
:10775C0059FE04004C4B1B689B014BD500F052FEAC
:10776C00001B0228F6D9032074E0474AD36B484922
:10777C000B40D363DAE7444A136844490B40136067
:10778C0000F040FE0500404B1B689B0106D500F045
:10779C0039FE401B0228F6D903205BE03A4AD36835
:1077AC003C491940236A606A0343A06A0002034300
:1077BC00E06A0343206B0343606B03430B43D360CA
:1077CC00116880235B040B431360D16880235B0535
:1077DC000B43D36000F016FE04002B4B1B689B017F
:1077EC0006D400F00FFE001B0228F6D9032031E06E
:1077FC0000202FE0244AD36827490B40D360002097
:10780C0028E0012B32D0204BDA6803231340216A85
:10781C008B422DD170231340616A8B422AD1FE21F9
:10782C00C9011140A36A1B02994225D1F8239B037D
:10783C001340E16A8B4221D1E0231B051340216BDD
:10784C008B421DD1520F5207636B9A421AD1002002
:10785C0000E0012002B070BD0120FBE70120F9E738
:10786C000120F7E70120F5E70020F3E70120F1E71D
:10787C000120EFE70120EDE70120EBE70120E9E72C
:10788C000120E7E70120E5E700100240FFFFFFFEC3
:10789C00FFFFFFEF8C80C111FCFFFEEEF0B589B04D
:1078AC0003000091019203A902224A600132CA60CE
:1078BC0000228A60802676050640000C0F320240BA
:1078CC00A0204003101880020D4D6F6B01249440D2
:1078DC0022003A436A631A04120C03921B0DFF2216
:1078EC0013400B6100F070FB002E07D1AB6805490B
:1078FC000B40009C01990C431C43AC6009B0F0BDDB
:10790C0000100240FFFFFF8810B52A4B9B683822FD
:10791C001A4207D1274B1A68D20A0723134026486C
:10792C00D84010BD234B9A6838231340082B3BD00A
:10793C00204B9A6838231340102B0DD01D4B9A689E
:10794C0038231340202B31D01A4B9A68382313401C
:10795C00182B26D00020E4E7164AD1680D3B0B40CB
:10796C00D2681209072111400131032B0FD01248A4
:10797C00FEF7B0FB0F4BDA68120A7F231340584313
:10798C000C4BD968490F0131FEF7A4FBC9E70B4832
:10799C00FEF7A0FB074BDA68120A7F23134058430B
:1079AC00EEE7FA20C001BCE70448BAE780200002E9
:1079BC00B7E7C046001002400024F40000127A0021
:1079CC0070B504000D00002800D1AAE0574B1A68CE
:1079DC00072313408B4221D323689A070ED55B07EC
:1079EC0005D5534A9168E023DB010B439360504A61
:1079FC00936850490B40A1680B4393602368DB07E5
:107A0C0054D56368012B20D0022B3BD0002B3FD1E7
:107A1C00474A126852051CD401206AE0434A136895
:107A2C0007218B432B43136000F0ECFC06003F4B0B
:107A3C001A6807231340AB42CED000F0E3FC801B46
:107A4C003D4A9042F3D9032053E0394A126892031D
:107A5C0069D537498A680720824313438B6000F04D
:107A6C00D1FC0600324B9B6838221A406368DB005D
:107A7C009A421BD000F0C6FC801B2F4B9842F1D9C8
:107A8C00032036E02A4A12689201E2D4012030E049
:107A9C00032B05D0264AD26D9207DAD4012028E0B8
:107AAC00234A126E9207D4D4012022E01F4B1A688D
:107ABC0007231340AB421DD823685B0706D51C4A2D
:107ACC0093681E490B40E1680B439360FFF71CFF62
:107ADC00174B9A68120A0F231340194A9B009A58A5
:107AEC001F231340D840174B1860174B186800F031
:107AFC003DFC70BD0D4A136807218B432B4313606B
:107B0C0000F080FC0600094B1A6807231340AB42B7
:107B1C00D2D000F077FC801B074B9842F3D903209E
:107B2C00E7E70120E5E70120E3E7C046002002403B
:107B3C0000100240FFF0FFFF88130000FF8FFFFFD3
:107B4C00FCDC00080C00002008000020014B186829
:107B5C007047C0460C00002010B5FFF7F7FF064B2E
:107B6C009A68120B07231340044A9B009A581F2350
:107B7C001340D84010BDC04600100240DCDC0008A9
:107B8C00F0B583B0040003689B0362D5814BDB6BBB
:107B9C00DB001ED47F4BDA6B802149050A43DA6384
:107BAC00DB6B0B400193019B01267B4A1168802300
:107BBC005B000B43136000F025FC0500764B1B6843
:107BCC00DB0508D400F01EFC401B0228F6D9032567
:107BDC0002E00026E9E70025002D23D16D4BD96D7D
:107BEC00C02292000B001340114212D0226B9A4219
:107BFC000DD0684AD36D69490B40D06D8021490284
:107C0C000143D165D16D66480140D165D365DB0771
:107C1C0010D4002D06D15F4AD36D60490B40216B07
:107C2C000B43D365012E15D15A4AD36B5D490B40DA
:107C3C00D3630FE000F0E6FB0700564BDB6D9B07B0
:107C4C00E7D400F0DFFBC01B574B9842F5D9032556
:107C5C00DFE700252368DB0706D54E4A536D032169
:107C6C008B4361680B43536523689B0706D5494AD0
:107C7C00536D0C218B43A1680B4353652368DB06C2
:107C8C0006D5444A536D49490B40E1680B43536593
:107C9C0023689B0506D53F4A536D45490B40A169A6
:107CAC000B43536523685B0506D53A4A536D41492E
:107CBC000B40E1690B43536523689B0606D5354A97
:107CCC00536D3D490B4021690B43536523685B049D
:107CDC000BD5304A536D9B009B08216A0B435365AF
:107CEC00226A8023DB059A4239D023681B0306D510
:107CFC00284A536D40218B43616A0B4353652368BB
:107D0C009B020BD5234A536D2C490B40A16A0B43A4
:107D1C005365A26A8023DB039A4227D023685B0257
:107D2C000BD51C4A536D26490B40E16A0B43536536
:107D3C00E26A80235B049A421FD023681B050BD593
:107D4C00144A536D1F490B4061690B4353656269BB
:107D5C008023DB019A4215D0280003B0F0BD0D4AF8
:107D6C00D16880235B020B43D360BEE7094AD1681C
:107D7C0080235B040B43D360D0E7064AD1680B43E6
:107D8C00D360DAE7034AD16880235B020B43D360EC
:107D9C00E2E7C0460010024000700040FFFCFFFF0D
:107DAC00FFFFFEFFFFFFFFEF88130000FFF3FFFF55
:107DBC00FFFFF3FFFFFFCFFFFFCFFFFFFFFFBFFF73
:107DCC00FFFFFFFEFF3FFFFF30B5054C616901254A
:107DDC00294361610260BFF36F8F436030BDC046C1
:107DEC0000200240084B5B69002B01DB0020704730
:107DFC00054B064A9A60064A9A605B69002B01DBC8
:107E0C000020F4E70120F2E700200240230167453F
:107E1C00AB89EFCD70B5040000F0F4FA0500144BFB
:107E2C001B69DB0308D5631CF9D000F0EBFA401B8F
:107E3C00A042F4D303201AE00D490A690D4B160039
:107E4C001E400D4808611A420CD1094B1B695B039B
:107E5C000CD5631CF9D000F0D5FA401BA042F4D32A
:107E6C00032004E0054B5E60012000E0002070BDA3
:107E7C0000200240FAC30000FBC300006C04002089
:107E8C00F8B507000C0015001E00144B1B78012BD5
:107E9C0022D0124B01221A7000225A60FA20800064
:107EAC00FFF7B8FF00280DD1012F0FD029002000BB
:107EBC0004F0E4FFFA208000FFF7ACFF084A536996
:107ECC00BB435361054B00221A70F8BD2A003300E6
:107EDC002000FFF779FFEDE70220F6E76C040020A5
:107EEC000020024010B5FA208000FFF793FF064BEC
:107EFC005969802212060A435A615B69002B01DB27
:107F0C00012010BD0020FCE700200240034A536909
:107F1C000343802040021843506170470020024008
:107F2C00044A536904480340C9001943034B0B43EB
:107F3C00536170470020024007E0FFFF0200010080
:107F4C0070B504000E001E4B1B78012B36D01C4B59
:107F5C0001221A7000225A60FA208000FFF75AFFA3
:107F6C00002827D1042363602368042B14D0012339
:107F7C005B423360A568A368E2689B18AB4214D9D6
:107F8C0060682900FFF7CCFFFA208000FFF742FF62
:107F9C00002809D10135EEE70430FFF7B7FFFA20CE
:107FAC008000FFF737FF05E03560064A5369022170
:107FBC008B435361024B00221A7070BD0220FCE708
:107FCC006C04002000200240F0B5002359E08668C4
:107FDC005F000324BC40A643CC68BC40344384609F
:107FEC00446894434E683609012232409A40224339
:107FFC00426056E0DE080836B600375805321A40A3
:10800C0092000F249440A7430C69944022003A43F9
:10801C00325059E0032600E00026A64034003C43D1
:10802C00424E1832920094513768EA433E00AE43F8
:10803C004C68E40201D53E002E433C4C2660676838
:10804C003E0016404C68A40201D53E002E43374C2E
:10805C0066608426A7593E0016404C68A40301D5DF
:10806C003E002E43314C8427E6518026A6593240DF
:10807C004C68E40301D52A0032432C4D80242A514C
:10808C0001330C682200DA404ED001229A402500C0
:10809C0015401442F4D04E6803243440013C012CAA
:1080AC0095D94C6803222240032A08D0C4685E008C
:1080BC000322B24094438A68B2402243C2604C68A7
:1080CC0003222240022A95D004685E000322170086
:1080DC00B740BC434F683A40B240224302604C6800
:1080EC00C02292021442CBD09A0814001834A40077
:1080FC000E4EA75903241C40E4000F26A640B7439C
:10810C00A026F605B04287D0094EB04208D0094EE1
:10811C00B04207D0084EB04200D17BE705267CE781
:10812C0001267AE7022678E7F0BDC0460018024027
:10813C000004005000080050000C0050002A01D030
:10814C00816170478162FCE710B50400036C9B08E9
:10815C00094A944663449B0043640368FF2018401B
:10816C0008381421FDF7B6FF044BA3641F231840F5
:10817C001E3B8340E36410BD008200108008024067
:10818C0042683F231340064A9A1892000265054A3A
:10819C004265013B03221A400123934083657047DB
:1081AC003F8200104009024070B5041E4DD0056896
:1081BC00274BE8181421FDF78DFF80002064252340
:1081CC000222E2542B68234A13402B6021680A6870
:1081DC00A368E06803432069034360690343A06913
:1081EC000343E0690343206A034313430B602000FD
:1081FC00FFF7AAFFA2688023DB019A4218D06168BE
:10820C00626C3F230B401360A36CE26C5A60636892
:10821C00013B032B0FD9002323656365A365002362
:10822C00E36325220121A154013AA354002070BD1F
:10823C0000236360E3E72000FFF7A2FF236D002219
:10824C001A60636DA26D5A60E9E70120EFE7C04642
:10825C00F8FFFDBF0F80FFFF10B5104A13681049DF
:10826C000B400343136080239B00984201D00020F5
:10827C0010BD0C4B1B685800C01840000A49FDF794
:10828C0029FF0130054B5B695B0503D5002803D042
:10829C000138F7E70020EBE70320E9E70070004026
:1082AC00FFF9FFFF0C00002040420F0070B50028C2
:1082BC0011DB8308134DC0339B005C590322104023
:1082CC00C000FC3216008640B44389010A4082404B
:1082DC0022435A5170BD0F230340083B9B080633C1
:1082EC009B00094A944663445C6803221040C0001A
:1082FC00FC3215008540AC4389010A408240224380
:10830C005A60E7E700E100E000ED00E0013880236F
:10831C005B0498420FD2094A50600948036A1B0259
:10832C001B0AC02109060B43036200239360073329
:10833C001360002070470120FCE7C04610E000E00D
:10834C0000ED00E010B5FFF7B1FF10BD002805DB14
:10835C001F22024001239340014A13607047C0461C
:10836C0000E100E010B5FFF7D1FF10BD10B504001F
:10837C00114B1978002901D1012010BDFA20800081
:10838C00FDF7A8FE01000D4B1868FDF7A3FEFFF7E3
:10839C00E9FF00280DD1032C01D90120EDE70130B4
:1083AC00002221004042FFF7CDFF054B1C6000204E
:1083BC00E3E70120E1E7C046040000200C000020A8
:1083CC000800002010B5084A116880235B000B439D
:1083DC0013600220FFF7CAFF041E02D00124200004
:1083EC0010BDFEF77DFAFAE700200240034B1B7824
:1083FC00034A11685B1813607047C04604000020E4
:10840C0088040020014B18687047C046880400207F
:10841C0070B50400FFF7F6FF0500631C02D0044B97
:10842C001B78E418FFF7EEFF401BA042FAD370BD97
:10843C0004000020034A136803490B4003431360F4
:10844C007047C04600000140FFF9FFFF70B5041EE5
:10845C0000D178E0436A002B07D142680533FF3323
:10846C009A4205D00023C36102E0002303614361FB
:10847C000023A3625D33E35C002B5AD05D23022200
:10848C00E2542268136840218B431360E368E022B6
:10849C00D200934254D90022F02109018B4205D01D
:1084AC00E021C9008B4201D00023A36263688221C2
:1084BC0049000B40A1688420000201400B43206955
:1084CC00022101400B436069012108400343A0696C
:1084DC008025AD0028400343E5693820284003433C
:1084EC00256A802028400343A06A8025AD012840DE
:1084FC00256803432B60608B04230340656A1020BE
:10850C0028400343656B082028400343E068F025AE
:10851C002D01284003432068134343602268D3692C
:10852C000A480340D361002323665D33E1540020E5
:10853C0070BD5C330022E2542000FEF721FA9DE767
:10854C0080225201A8E70120F2E7C046FFF7FFFFA7
:10855C0030B5EFF31084012282F3108801680B68A8
:10856C00124D2B400B6084F31088EFF3108182F3D3
:10857C001088026893680E4C2340936081F3108836
:10858C00C36E012B06D08C232022C2500023C3665D
:10859C00436730BDEFF3108183F3108802681368D2
:1085AC001024A343136081F31088ECE7DFFEFFFF78
:1085BC00FEFFFFEFF8B504008368026913434269BC
:1085CC001343C269134301680A68A8480240134365
:1085DC000B6022685368A6490B40E1680B4353605B
:1085EC00A1692268A34B9A4201D0236A194393686C
:1085FC00A14803400B4393602268D36A0F218B433D
:10860C00616A0B43D36223689C4A934222D09C4AF2
:10861C00934230D09B4A934264D09B4A934263D09E
:10862C00944A934238D0102292498B4266D0E0692A
:10863C0080231B02984200D1A7E0042A00D1F9E064
:10864C0000D9D6E0002A00D1DAE0022A00D0CEE030
:10865C008E48D9E08E4A516D03220A40022A33D04B
:10866C0005D8002A32D0012A32D10332DCE7032AA2
:10867C0030D10532D8E7864A516D0C220A40082ABF
:10868C002AD005D8002A29D0042ACDD01022CBE735
:10869C000C2A25D1043AC7E77D4A526DC021090145
:1086AC000A40802109018A4220D007D8002A1FD015
:1086BC008021C9008A421DD10422B5E7C0210901DD
:1086CC008A4219D10822AFE70222ADE70022ABE7BC
:1086DC001022A9E71022A7E70222A5E70022A3E7B0
:1086EC001022A1E700229FE700229DE702229BE7D0
:1086FC00002299E7102297E7102295E7042A40D030
:10870C0007D8002A0CD0022A01D1604D0EE00120BE
:10871C00A2E0082A02D180252D0207E001209BE06F
:10872C00FFF71AFA0500002D00D186E0626A594B5A
:10873C005200D75A39002800FDF7CCFC666873004C
:10874C009B1983427BD8330383427AD33A000023AC
:10875C0028000021FDF734FE050E0B022B4302020C
:10876C00700800218018594132000023FDF728FEC3
:10877C00494BC218494B9A4265D82368D8600020EF
:10878C006AE0FFF7C1F80500CDE7042A2CD007D822
:10879C00002A09D0022A01D13C4809E001205BE003
:1087AC00082A05D0012057E0FFF7D6F900284CD055
:1087BC00626A384B5200D15AFDF78CFC400061685C
:1087CC004B08C018FDF786FC0200103A344B9A4255
:1087DC003DD882B20F239A434008083B0340134311
:1087EC002268D360002037E0FFF78EF8DEE7012027
:1087FC0032E0082A02D18020000205E001202BE0A3
:10880C00FFF7AAF9002824D0626A224B5200D15AF1
:10881C00FDF760FC61684B08C018FDF75BFC0200BB
:10882C00103A1F4B9A4216D823680004000CD860EB
:10883C00002011E0FFF768F8E4E700200CE00120CD
:10884C000AE0012008E0012006E0002004E00120FD
:10885C0002E0002000E0012001236A22A352023A28
:10886C00A35200236367A367F8BDC046F369FFCF2B
:10887C00FFCFFFFF00800040FFF4FF1100380140E4
:10888C000044004000480040004C00400024F4002C
:10889C0000100240B4DC000800FDFFFFFFFC0F00DD
:1088AC00EFFF0000836A1B0706D5026853682C494A
:1088BC000B40816B0B435360836ADB0706D5026860
:1088CC00536828490B40C16A0B435360836A9B076A
:1088DC0006D50268536824490B40016B0B43536067
:1088EC00836A5B0706D50268536820490B40416BCD
:1088FC000B435360836ADB0606D5026893681C49F8
:10890C000B40C16B0B439360836A9B0606D50268D0
:10891C00936818490B40016C0B439360836A5B06A8
:10892C000BD50268536814490B40416C0B435360E0
:10893C00426C80235B039A420AD0836A1B0606D5DD
:10894C00026853680D490B40C16C0B435360704770
:10895C00026853680A490B40816C0B435360ECE787
:10896C00FF7FFFFFFFFFFDFFFFFFFEFFFFFFFBFF92
:10897C00FFEFFFFFFFDFFFFFFFFFEFFFFFFFF7FF43
:10898C00FFFF9FFFF8B5CE46474680B506000D00A9
:10899C0017009946089B98463368DC692C40641B89
:1089AC0063425C41BC4233D143460133F4D0FFF700
:1089BC0029FD4B46C01A40452FD84346002B2ED0DC
:1089CC00326813685B07E7D5802DE5D0402DE3D0E6
:1089DC00D3691B0710D4D3691B05DDD580231B017C
:1089EC0013623000FFF7B4FD90232022F2500C3BB1
:1089FC000022F25403200CE0082414623000FFF72C
:108A0C00A7FD9023F4500C3B0022F254012000E00F
:108A1C000020C0BCB946B046F8BD0320F9E70320DE
:108A2C00F7E7000030B583B0040090230022C25059
:108A3C00FFF7E8FC050023681B681B0710D42368AC
:108A4C001B685B072BD420238822A3500432A3502D
:108A5C000023E3662367083AA354002003B030BD1B
:108A6C008021234B00930300002289032000FFF791
:108A7C0089FF0028E3D0EFF31081012383F31088E2
:108A8C002268136880208343136081F31088882345
:108A9C002022E250043B0022E2547D38DEE78021A4
:108AAC00134B00932B000022C9032000FFF76AFF31
:108ABC000028C8D0EFF31080012282F310882168BF
:108ACC000B680C4D2B400B6080F31088EFF310807B
:108ADC0082F3108821688B6893438B6080F3108835
:108AEC008C231F32E250083B0022E2540320B5E7EE
:108AFC00FFFFFF01DFFEFFFF10B5041E35D08823FA
:108B0C00C358002B27D088232422E25022681368F4
:108B1C0001218B431360A36A002B22D12000FFF7A5
:108B2C0049FD012816D02268536811490B40536047
:108B3C002268936822218B439360226893681A39C8
:108B4C000B4393602268136807390B4313602000B2
:108B5C00FFF768FF10BD84330022C254FDF7D4FF29
:108B6C00D1E72000FFF79EFED8E70120F2E7C046D0
:108B7C00FFB7FFFFF8B50400436E002B05D101339E
:108B8C006A228352023A8352F8BD026895686D0ED0
:108B9C0007231D409268520F1340084FF85CC00029
:108BAC00074EF15CFDF720FB6A23E052785DC000B4
:108BBC00715DFDF719FB6823E052E5E7D4DC000892
:108BCC00CCDC000870B58423C35C012B15D0842445
:108BDC000126065588252423435102681368116821
:108BEC00B1431160064A13400022426601680B60D3
:108BFC00202343510255002070BD0220FCE7C046E3
:108C0C00FFFFFFDFF8B504000A008423C35C012BCF
:108C1C001BD084250120605588262423A35123686A
:108C2C001F6819688143196020688368DB00D908C4
:108C3C00114381602000FFF79DFF23681F602023F4
:108C4C00A351002363550020F8BD0220FCE700006F
:108C5C00F8B504000B008422825C012A1BD0842509
:108C6C000120605588262422A251226817681168B9
:108C7C008143116022689168084801401943916052
:108C8C002000FFF777FF23681F602023A3510023E8
:108C9C0063550020F8BD0220FCE7C046FFFFFFF142
:108CAC00014B024A9A60704700ED00E0006000083A
:108CBC0010B503000C4A0D49521A0D4909680029D8
:108CCC0007D00B490868C318934206D8084A1360AA
:108CDC0010BD074907480860F3E703F035F80C238B
:108CEC00036001204042F3E70090002000040000E4
:108CFC008C040020A87800200120704710B503F0E8
:108D0C0023F8162303600120404210BD10B5012149
:108D1C004942FFF7F3FFFEE770B50C001600002583
:108D2C0004E000E000BF207001350134B542F8DBEF
:108D3C00300070BD01204042704780239B014B6086
:108D4C00002070470120704700207047806800E0C9
:108D5C000068002802D003898B42F9D1704770B5A6
:108D6C0005000C008969002904D0406800F07DFFE3
:108D7C000023A3612868210000F077FF70BD70B557
:108D8C000400456801892800FFF7E0FF002806D1A0
:108D9C0028000830210000F068FF002070BD012081
:108DAC004042FBE710B58369DB795BB2002B02DB39
:108DBC0000F066F910BD00F0A1FAFBE710B5837A5C
:108DCC00102B07D0002B02D000F019FA10BD00F0C8
:108DDC0025F9FBE701204042F8E7030014300A7C38
:108DEC00F02A08D08A721A7ECA725B7E0B730B71E2
:108DFC008B7C4B717047703AF4E70000F0B5C646B7
:108E0C0000B504000023984610E043460233DB0013
:108E1C00E3185F681BE0206800F018FFE06119E0C0
:108E2C00204800F073FF01239C46E0444346002B8E
:108E3C00EBDD80BCB846F0BD0C30290000F015FF0E
:108E4C0003E029002000FFF78AFF0023E361E369B8
:108E5C00002BE0D0E369002BE2D03B683800984748
:108E6C00061EE0D0E56924220021280002F000FF54
:108E7C00AE6143460233DB00E3181B7AAB7128006A
:108E8C00FFF790FF0028DCD1A98A2000FFF75EFFD6
:108E9C00002802D0037E002BCED029002000FFF743
:108EAC005EFFD2E7F4CE000870B50C00FFF795FF1B
:108EBC00051E0DD02000FFF781FF061E0AD1286881
:108ECC004368A16998470023A361E361300070BD3A
:108EDC000426FBE70226F9E770B505000C000B7CB5
:108EEC00102B0BD0FFF7E0FF060080235B420343FF
:108EFC002372E379DB071CD5300070BD898AFFF73C
:108F0C0025FF061E02D0037E002B05D02100280071
:108F1C00FFF725FF0026EFE720000A302100103173
:108F2C00032202F046FF30000C30210000F09DFEC1
:108F3C00F0E721002800FFF712FFDDE710B50389E9
:108F4C00CB814068FFF7C8FF10BD10B54369002BFB
:108F5C0003D00C3000F07AFE10BD0020FCE710B5F9
:108F6C00FFF70DFF10BD30B50024002C02DD0120F1
:108F7C00404230BDA51CED0045196D68002D01D097
:108F8C000134F2E70234E4000019416002724372CA
:108F9C000020EEE770B504000E0015002022002121
:108FAC0002F066FE2660656070BD000030B5C469D5
:108FBC00037C002B20D1C389174A934218D0858A91
:108FCC00154A95421BD1144A93421BD02023C35CF3
:108FDC00002B1AD022783F231000984303008028DE
:108FEC0016D1413B1340402213430B70002030BD7F
:108FFC00828A3F2AE7D9E2E701204042F7E70120C5
:10900C004042F4E701204042F1E701204042EEE704
:10901C0001204042EBE7C046CDCD000070B5040006
:10902C008569037B2B71837C6B71E91DFFF7BEFF98
:10903C00002804DB2023E35C1B18AB71002070BDFF
:10904C0010B50023CB56002B12DB002484728279DE
:10905C00C2720474427402790273437983740B787C
:10906C005B0608D4054BC3810B788382012010BDAD
:10907C0001204042FBE701204042F8E7CDCDFFFF45
:10908C0070B5040085692E1D2B7903716B794371C2
:10909C00E91DFFF7D5FF00280FDBC31CF318E361B4
:1090AC00AB791B1A2022A354002807D1EB791F326D
:1090BC001A4080235B421343EB7170BD0020FCE728
:1090CC00022808D004280BD000280DD100230B70E7
:1090DC0001331370704701230B7000231370F9E7F1
:1090EC0001230B701370F5E702230B701370F1E77B
:1090FC0010B51C00164B984204D0FF2817D801233A
:10910C00137001E000231370114B994212D0FF2908
:10911C0015D80123237013781B0122781343102BCD
:10912C0010D0112B10D0012B10D100200DE00223F8
:10913C001370E9E79842EAD000232370EBE702238F
:10914C002370E8E7022000E0042010BD0620FCE7B5
:10915C00CDCD0000F0B583B005000E004C1C837A19
:10916C00A02B3CD000232A7CF02A3AD01901802273
:10917C0052420A4332709A0704D5EA7A7270F41C90
:10918C002A7BB270002B04D06B7C2370AB7C637099
:10919C000234E889A98A6B46DF1D06333A00FFF7D3
:1091AC00A7FF3378034333703B78002B02D0EB8955
:1091BC00237001346B4607331B78022B15D06B469A
:1091CC0006331B78002B02D0AB8A237001346B461C
:1091DC0006331B78022B0DD0A01B03B0F0BD02236D
:1091EC00C1E701221343DBB2C0E7EB891B0A2370F2
:1091FC000134E4E7AB8A1B0A23700134ECE770B549
:10920C000400856903792B7143796B71E91DFFF7B4
:10921C00A1FF002804DB2023E35C1B18AB710020AA
:10922C0070BD0000F0B583B004000D0001312B7847
:10923C003722180090430200802859D11B097D3A2F
:10924C001A4098072BD5A021A1726978E172E91C0C
:10925C00AE782673002A2BD0DB0727D5F023237496
:10926C000B7863748F1C4B78A3742B786A46D61DCD
:10927C000620184006323100FFF722FF3278002A10
:10928C001ED11D4BE3813B006A4606321278002A40
:10929C0022D1194AA2821800401B03B0F0BD8020D5
:1092AC00A072A679E67226792673D3E7A023D6E7B7
:1092BC0080232374A37963746379A3740F00D4E7B8
:1092CC007B1C3978E181022ADED17A788BB21202CA
:1092DC001343E381BB1CD7E7581C1978A182022ADF
:1092EC00DAD15978A28A09020A43A282981CD3E7E0
:1092FC0001204042D1E7C046CDCDFFFF70B5040040
:10930C0085692E1D2B7903716B794371E91DFFF76C
:10931C0089FF002807DBC31CF618E661AB791B1A22
:10932C002022A354002070BD0300827A102A2BD077
:10933C00002A07D1C289154B9A4201D0002017E0B0
:10934C00012015E0A02A14D0027CF02A13D00120B1
:10935C00DA890E498A4203D0FF2A0ED8012140181F
:10936C009B8A0A498B420AD0FF2B0BD80123C018C9
:10937C0070470520ECE70320EAE70221EFE78A4279
:10938C00F6D1F1E70223F2E70020F1E7CDCD0000A2
:10939C00F0B5D6464F464646C0B591469A468468C7
:1093AC00C768066945693B689C4601239846634635
:1093BC00424693433B603B689C46822398466346F7
:1093CC00424693433B6053467B604B46002B28D070
:1093DC00CC466346FB603B689C464B46002B24D036
:1093EC008122634613433B6032680127BA433260E3
:1093FC0032687F37BA43326053467360002916D007
:10940C000800F0603368002913D0812213433360C5
:10941C0023681D42FCD06560E0BCBA46B146A84644
:10942C00F0BD19339C468444D3E70122D9E71830A8
:10943C00E7E70122EAE710B50268136840210B4305
:10944C00136001684B68012213434B6001684B6841
:10945C00022423434B60C1680B6893430B60016982
:10946C000B6893430B6003680C33C268936003680A
:10947C000C330269936010BDF0B5DE4657464E467C
:10948C004546E0B583B0040089469046344B020053
:10949C0023CB23C21B68136000254BE0009B237079
:1094AC0061802571A260E060013180239B009942AC
:1094BC0028DA8B1C7B432B4A9342F5D92A4A9342D8
:1094CC0020D8019A5208D218EA404046121AD017F6
:1094DC001218424025483818C61780197040244E7F
:1094EC00B4466344DE179B1973408600B346584458
:1094FC004000C018A3689342D0D8D5D1E36883420A
:10950C00D2D9CBE7009B013B0093009B002B10DBD7
:10951C00009B991CC80F401840104844FCF7DAFD1A
:10952C000700144B9842EDD9134B984201D80021F7
:10953C00BBE70135022D05DC0127AF4001971F2346
:10954C000093E2E72379022B07D0200003B0F0BC94
:10955C00BB46B246A946A046F0BD01332371F4E7E1
:10956C00C0CE0008FFE0F5050065CD1D00EE85FFBF
:10957C00005D1EEE3F420F00C0E1E40084B010B568
:10958C0003AC0391049205932379032B0FD003AC06
:10959C002378991C4B101818FCF79CFD6388023338
:1095AC0058432379D84010BC08BC04B01847022299
:1095BC002271ECE730B583B0050000230093013B2A
:1095CC000193104C02E0104B9C4664440F4B9C42A0
:1095DC0014D9680800192900FCF77CFD010040082B
:1095EC000019FCF777FD401BC317C0185840019AAF
:1095FC008242E8D9009401900028E4D1009803B08D
:10960C0030BDC04680D1F008C0F2FCFFFFE0F5058C
:10961C0070B582B00400080015001E006B46D91D01
:10962C00087063681A689B889362012300222000EB
:10963C00FFF7AEFE33002A0000212000FFF7A8FE42
:10964C0063681A689B889361002002B070BD70B586
:10965C0005000C000A1D806B03231421FFF7D8FFB3
:10966C00A379FD2B06D8E21DA86B1421FFF7D0FFC0
:10967C00002070BD01204042FBE770B582B00400B1
:10968C00080015001E006B46D91D087063681A6827
:10969C009B889362012300222000FFF779FE3300A0
:1096AC00002229002000FFF773FE63681A689B886C
:1096BC009361002002B070BD10B50A1D8B79033385
:1096CC00806B9521FFF7D9FF10BD10B51C3000F051
:1096DC00BDFA10BD10B5283000F0C7FA10BD10B59A
:1096EC0082B06B46DC1DFF232370806BFE3B220097
:1096FC00FFF78EFF207802B010BD00B583B01300C9
:10970C006A460732137080235B421943C9B2806BDF
:10971C008133FFF7B2FF03B000BD0000F0B5C646C1
:10972C0000B582B006000F00904605694808401944
:10973C00FCF7D0FC84B2013CA4B243465808401953
:10974C004146FCF7C7FC85B2013DADB2E2B20C213B
:10975C003000FFF7D2FF220A0D213000FFF7CDFFBA
:10976C00EAB20E213000FFF7C8FF2A0A0F213000A1
:10977C00FFF7C3FFB16805480195009443463A00D2
:10978C0000F0C4FA02B080BCB846F0BD08CF0008A7
:10979C00F0B5C64600B506000F0015000C21FFF70A
:1097AC009EFF04B20D213000FFF799FF0002044325
:1097BC00A3B298460E213000FFF791FF04B20F219F
:1097CC003000FFF78CFF00020443A4B2306943461B
:1097DC00591C4B101818FCF77DFC38603369611C60
:1097EC004810C018FCF776FC286080BCB846F0BD69
:1097FC00F0B5C64600B586B0060090460C9C826853
:10980C00002A1BD0B161AB4A3260AB4A7260B363C1
:10981C00F463B168A94800F079FA002C0BD02368E6
:10982C00A2889A620220FEF7F3FD2368A2889A614F
:10983C000220FEF7EDFD0027FF250EE0A04A826016
:10984C00E0E77B1CDBB20A2F14D81F002C0000E0D1
:10985C000027002000F0F6FA250000213000FFF769
:10986C003EFF04000138C0B2FD28F1D8A542E8D073
:10987C000027EEE7B16893482A0000F047FA3573E9
:10988C0000230D22AA425B4133750F2D00D808E14D
:10989C00733201213000FFF730FFB4680021300033
:1098AC00FFF71DFF0200884B2100180000F02EFA74
:1098BC00102235213000FFF720FF43469868FFF750
:1098CC0079FE0200306102AC804D29002000FFF7C8
:1098DC00D3FD059B00930299039A049B2800FFF784
:1098EC004DFE050031697A482A0000F00FFA356107
:1098FC00227832213000FFF700FF6588A2783021F2
:10990C003000FFF7FAFE23791B012A0A1A43D2B260
:10991C0031213000FFF7F1FE32213000FFF7DFFE7E
:10992C00050030213000FFF7DAFE0700312130004E
:10993C00FFF7D5FE0300674C3A002900200000F029
:10994C00E5F933213000FFF7CAFE0100624B180025
:10995C0000F0DCF9102233213000FFF7CEFE362167
:10996C003000FFF7BCFE01005C4B180000F0CEF994
:10997C00012201213000FFF7C0FE36213000FFF735
:10998C00AEFE0100564B180000F0C0F9002130006B
:10999C00FFF7A5FE0100534B180000F0B7F90221A8
:1099AC003000FFF79CFE0E23034001221A43D2B273
:1099BC0043469B7B012B00D17AE010231A430221F2
:1099CC003000FFF79AFE43461A780B213000FFF760
:1099DC0094FE43461A7B1A213000FFF78EFE434655
:1099EC005A7B1B213000FFF788FE43461A7C052169
:1099FC003000FFF782FE43461A8A120A0621300015
:109A0C00FFF77BFE43469A7C07213000FFF775FE7B
:109A1C0043465A8A120A08213000FFF76EFE43466D
:109A2C001A7D09213000FFF768FE43469A68596891
:109A3C003000FFF773FE3F2216213000FFF75DFE6A
:109A4C00424608324346191D3000FFF7A1FE43463B
:109A5C009A685968244800F059F90B213000FFF737
:109A6C003EFE05001A213000FFF739FE07001B21CE
:109A7C003000FFF734FE03001C4C3A002900200094
:109A8C0000F044F9B46810213000FFF728FE020002
:109A9C00174B2100180000F039F906B080BCB8460D
:109AAC00F0BD144B33611448290000F02FF976E710
:109ABC001F3383E7D7960008E196000838CF0008DB
:109ACC0030CF000848CF000860CF00080024F40015
:109ADC0088CF0008ACCF0008D4CF0008E8CF00082E
:109AEC0000D0000828D0000878D000089CD00008CE
:109AFC00C8D00008005A62024CD00008F8B5040027
:109B0C001021FFF7ECFD0500232302009A43D3B28A
:109B1C00002B07D0030721D4EB062CD46B0637D4CB
:109B2C002B0642D4AB074DD43423E35C002B74D109
:109B3C00A36A002B73D02000283000F087F80600B1
:109B4C0001002000FFF7B8FDAD0660D434230122DC
:109B5C00E254A069310000F088F860E0A168354853
:109B6C0000F0D4F8237D002BD6D00422162120003F
:109B7C00FFF7C3FDD0E7A1682F4800F0C7F8237D9D
:109B8C00002BCBD0082216212000FFF7B6FDC5E72D
:109B9C00A1682A4800F0BAF8237D002BC0D004221B
:109BAC0017212000FFF7A9FDBAE7A168244800F0AF
:109BBC00ADF8237D002BB5D0082217212000FFF72C
:109BCC009CFDAFE7A06900F041F8061E1AD0010019
:109BDC002000FFF73CFD0700032216212000FFF7B1
:109BEC008CFD002F08D0A168164800F08FF8A069F2
:109BFC00310000F03AF897E720001C30310000F0FB
:109C0C0034F891E7A168104800F080F88CE7032243
:109C1C0017212000FFF771FD9BE7AD0600D4F8BDBE
:109C2C00032217212000FFF768FD34230022E254A1
:109C3C00F5E7C046DCD00008F8D0000814D10008C5
:109C4C002CD1000848D1000864D1000803008268B8
:109C5C00002A08D0006801681960013A9A60002A4D
:109C6C0000D15A6070470020FCE783685A1C826060
:109C7C00002B05D043681960416000230B607047CE
:109C8C000160F9E710B5002209E0064BDB691B0601
:109C9C00FBD50478034B9C62013292B201308A42AC
:109CAC00F3D310BD0038014070B506004068FFF7D3
:109CBC00CDFF051E10D03068FFF7C8FF041E06D07C
:109CCC002422002101F0D4FFA561200070BD706832
:109CDC002900FFF7CAFFF8E70400F6E770B50C009F
:109CEC000389CB810B7C102B03D18B690733CB61A0
:109CFC0070BD4068FFF771F8A56904352000FFF7C7
:109D0C0013FB03302D18E561F2E700000FB430B5FA
:109D1C0083B03D4B1B68002B48D01B78002B45D0E3
:109D2C003A4B5B681B689B68002B44D0EFF31081A7
:109D3C0072B6364B5B681A689268022A40D95B6827
:109D4C009B68022B3CD9324B1C68002C3FD0002264
:109D5C001A6081F3108807AB0193E0692025625DDE
:109D6C00A221891A8018069A01F0DAFE635DA122FD
:109D7C00D21A904200DD10001B182022A354EFF3DE
:109D8C00108572B6E369A25C9B18013B1B780A2B09
:109D9C0005D0A12A03D01E4B1B68002B30D01D48C8
:109DAC002100FFF762FF85F3108804E007A90191F9
:109DBC00069801F07DFE03B030BC08BC04B0184717
:109DCC00154A13680133136081F31088F3E781F3AC
:109DDC0010880E4B5868FFF767FF041EEBD00F4B33
:109DEC0019681030062201F0E4FF08482100FFF743
:109DFC0075FFE36940221A7020233F3AE254AAE728
:109E0C00034B1C60CFE7C046AC04002010000020C0
:109E1C00940400209C04002098040020A804002036
:109E2C0010B5054B58600548016005490A601800DB
:109E3C00FFF795F810BDC04610000020A8040020C4
:109E4C00AC04002010B5114B1968114B1A689142E3
:109E5C0005D0104B5B681B689B68022B0DD80D4B13
:109E6C005B685B69002B10D00B48FFF7EFFE011EFF
:109E7C000BD00848FFF762F8F1E70848FFF746FFF8
:109E8C00024B034A12681A60E9E710BD90040020E7
:109E9C0098040020100000209C04002084D10008AD
:109EAC0010B50800140091B2FFF7ECFE200010BDB5
:109EBC00F8B5344B1F88344B1E88344C6C2200216F
:109ECC00200001F0D5FE324B23800423FF33638046
:109EDC00053B2373E1235B022361636101235B4236
:109EEC0023831533A383B433E383A83B0122E254C9
:109EFC00284D200026300232290001F05AFF092398
:109F0C00638523002C332A88A285AA789A701023A3
:109F1C002386A0239B006386A03BA3869D3BFF3B2F
:109F2C003222E2521C4B9F4204D0184B1B79002B5F
:109F3C0022D1F8BD0423FF339E4214D0360A012EE1
:109F4C00F3D112490F480B00020031CA31C331CA98
:109F5C0031C331CA31C311CA11C302230B7104239B
:109F6C00FF334B80E1E7094C2D320649200001F00C
:109F7C0020FF01232371D8E708480322002101F0B8
:109F8C0077FED6E700F8010802F80108B0040020BB
:109F9C00CDCDFFFFD0CE0008CDCD0000B504002004
:109FAC0070B58AB005000E0001235B420993154B76
:109FBC0003400222059202320692D80A07905B18DF
:109FCC00DA0A121A08925B0501D001320892FDF7E9
:109FDC0009FF041E10D0FDF785FF0443079B0A48B8
:109FEC00029409990191089A009232002900FFF716
:109FFC008DFE20000AB070BD09A905A8FDF7A0FFD1
:10A00C000400E8E7FFFFFFF79CD10008F0B5C64657
:10A01C0000B5804614000731CE08FDF7E3FE0700BB
:10A02C0000251DE0E9006318625C587800020243C9
:10A03C00987800040243DB781B061A430B1DE018CA
:10A04C00E35C47783F023B4387783F043B43C0784F
:10A05C000006034341440120FDF712FF07000135C0
:10A06C00002F01D1B542DDDBFDF73CFF384380BC4E
:10A07C00B846F0BD10B5802109010E48FFF790FFDE
:10A08C00C0B200280DD10C4A5F210A48FFF7BEFF71
:10A09C00C0B2002809D109485F21FFF737FE002024
:10A0AC0010BD0748FFF732FEEDE70648FFF72EFE1E
:10A0BC000120F5E700F80108B0040020F0D10008F9
:10A0CC00D0D100081CD20008F0B5C64600B582B04D
:10A0DC000120FFF7B7FE8348FFF718FE0120FFF7BA
:10A0EC00B1FE814C8148824B009323000222022155
:10A0FC00FFF70CFE7F4D8048804B00932B00012214
:10A10C000421FFF703FE0120FFF79CFE7C487D4BEA
:10A11C0000932B0001220521FFF7F8FD7A4F7B48B5
:10A12C007B4B00933B0001220721FFF7EFFD794E9B
:10A13C003000FFF7EBFD0120FFF784FE7648774BEC
:10A14C0000932B0001220C21FFF7E0FD744B7548A6
:10A15C00754A0092984604221021FFF7D7FD012082
:10A16C00FFF770FE7148724B009343460422142192
:10A17C00FFF7CCFD6F4B7048704A00929846022254
:10A18C001821FFF7C3FD0120FFF75CFE6C486D4BF7
:10A19C0000932B0001221A21FFF7B8FD6A486B4B84
:10A1AC000093230002221C21FFF7B0FD0120FFF7D2
:10A1BC0049FE6748674B0093230002221E21FFF7DC
:10A1CC00A5FD6548654B00932B0001222021FFF76C
:10A1DC009DFD6348FFF79AFD0120FFF733FE6148B0
:10A1EC00614B00933B0001222421FFF78FFD5F4858
:10A1FC005F4B0093434603222621FFF787FD5D4802
:10A20C005D4B0093230002222A21FFF77FFD3000D3
:10A21C00FFF77CFD0120FFF715FE5848584B0093C3
:10A22C00434603222C21FFF771FD5648564B0093F1
:10A23C00230002223021FFF769FD3000FFF766FD95
:10A24C000120FFF7FFFD5148514B009323000222E0
:10A25C003221FFF75BFD4F484F4B00932300022246
:10A26C003421FFF753FD3000FFF750FD0120FFF7BD
:10A27C00E9FD4A484A4B00933B0001224221FFF77B
:10A28C0045FD4848484B0093230002224421FFF728
:10A29C003DFD4648464B00932B0001224621FFF71B
:10A2AC0035FD3000FFF732FD0120FFF7CBFD4148B3
:10A2BC00414B00932B0001225F21FFF727FD3F4804
:10A2CC003F4B00933B0001226921FFF71FFD30003B
:10A2DC00FFF71CFD0120FFF7B5FD02B080BCB846AE
:10A2EC00F0BDC0463CD2000850D2000854D2000841
:10A2FC0088D2000898D200089CD20008D0D200085E
:10A30C000CD3000840D3000864D3000868D30008BD
:10A31C009CD30008C4D30008CCD3000800D4000898
:10A32C0020D4000824D400085CD400087CD4000895
:10A33C00B4D40008D8D40008DCD4000818D5000820
:10A34C002CD5000864D5000884D50008C4D50008B5
:10A35C00DCD500081CD600083CD6000878D60008CE
:10A36C0090D6000898D60008C8D60008FCD600087D
:10A37C0034D7000858D7000890D70008B0D7000889
:10A38C00E8D7000804D800083CD8000854D80008C6
:10A39C0084D8000894D80008C4D80008D4D8000881
:10A3AC0004D9000824D9000858D9000868D9000835
:10A3BC0094D9000898D90008C8D9000800DA000818
:10A3CC0030DA0008BFF34F8F034B044ADA60BFF357
:10A3DC004F8FC046FDE7C04600ED00E00400FA05D3
:10A3EC0070B586B001AA0F4B70CB70C211001A6801
:10A3FC000A601B790B7100230DE00B4A9A18157833
:10A40C0029095A0001AC615C81540F2129400132A9
:10A41C00615C815401330B2BEFDD0023037606B016
:10A42C0070BDC04648DA00089075FF1FF0B5DE46D7
:10A43C0057464E464546E0B585B081460E009346DC
:10A44C009846002B09D02B4B1B689A462A4F0024A8
:10A45C00002303935346029326E0284B1B689A462D
:10A46C00274FF4E763001B199B00FB185B6826E081
:10A47C00019268468088B446DC44E24503DC6145C1
:10A48C0002DD614600E011008DB2A8420BD0801AAB
:10A49C0080B2019D491BC9B24546002D20D0921BAC
:10A4AC004244984703900134029B9C421ADA4B4673
:10A4BC00002BD7D063001B199B00FB189B68002B4B
:10A4CC00F1D0620012199200B918BA5A9246498812
:10A4DC0051189642CCD301968E42CADD0191C8E741
:10A4EC004246DEE7039805B0F0BCBB46B246A9462F
:10A4FC00A046F0BD2C000020340000201C050020DC
:10A50C002005002070B5084D2800FFF769FF074BA8
:10A51C000749084C2A00200001F05CFA064821008B
:10A52C00FFF7F4FB70BDC046840500205CDA000820
:10A53C0064DA0008200500207CDA000870B50C00F5
:10A54C000389CB810B7C102B03D18B690733CB6137
:10A55C0070BD4068FEF741FCA56904352000FEF78C
:10A56C00E3FE03302D18E561F2E770B505000C0031
:10A57C008969002904D04068FFF777FB0023A361A9
:10A58C0028682100FFF771FB70BD0000F0B5DE46B6
:10A59C0057464E464546E0B585B05248FEF7D5FCC9
:10A5AC00041E1AD0C5691030062221000A3101F0B0
:10A5BC0000FC4C482100FFF7C1FF2023E35C012B7A
:10A5CC0012D0042B02D92B78102B29D04648FFF738
:10A5DC009DFB46482100FFF7C8FF05B0F0BCBB4609
:10A5EC00B246A946A046F0BD2A78002AE9D1E36913
:10A5FC0080321A70E0693E4D0130290001F0D1FB28
:10A60C002800FBF755FD01302023E054354821008C
:10A61C00FEF794FC374A11797F230B401371DCE76A
:10A62C006F78AB781B021F4301F072F806003900FB
:10A63C003148FBF7D9FD01003000FBF7D5FDEB7875
:10A64C002A7991462B4A127B90462022A25CAA18AA
:10A65C00002111706A1D92460604360C1D00C3467B
:10A66C0026480292424601924A4600923A00310034
:10A67C00FFF74CFB454504D84D46C14500D945462E
:10A68C00EDB2AB4506D01B4A117980235B420B43DC
:10A69C0013719BE71648514601F0F2FA0028F2D0EC
:10A6AC00FDF7B0FE0500FDF7ADFE401BB042FAD33E
:10A6BC00E36980221A70E0690D4D0130290001F028
:10A6CC0070FB2800FBF7F4FC01302023E054054814
:10A6DC002100FEF733FC074A11797F230B401371DD
:10A6EC007BE7C0467C000020C8DA0008A0050020EB
:10A6FC0020050020B0040020FFFFFF7F8CDA00084B
:10A70C00F0B5C64600B582B07148FEF71EFC041EBB
:10A71C0028D0704B1B795BB2002B27DBC56910303E
:10A72C00062221000A3101F044FB69482100FFF7A1
:10A73C0005FF2B78002B03D12022A25C042A1FD00A
:10A74C00202B4DD0012B04D11F33E35C042B00D103
:10A75C009EE02023E15C6048FFF7D8FA5F482100B7
:10A76C00FFF703FF02B080BCB846F0BD2023C15CEC
:10A77C005B48FFF7CBFA59482100FFF7F6FEF1E7EB
:10A78C006F78AB781B021F43ED78FB2D00DDFB25AA
:10A79C00EBB298460023424639000020FFF746FEF4
:10A7AC00061E0ED02A004F483900FFF7AFFAE269B7
:10A7BC0080235B4233431370434601332022A3545E
:10A7CC0081E0E06901302A004249791801F0F1FA80
:10A7DC000023424639000120FFF728FE0600E1E77E
:10A7EC002022A25C032AADD96E78AB781B021E43E3
:10A7FC00033AD3B2984603352B0042463100002071
:10A80C00FFF714FE071E39D037483B004246310093
:10A81C00FFF77CFA20230122E254E269A03B3B4380
:10A82C00137050E001926B469B8840463018824270
:10A83C0003DC0A00814200DD020091B28B420BD096
:10A84C00019B1B041B0C991B69181204120CD21AC5
:10A85C002048181801F0ADFA0137244B1B68BB4295
:10A86C000EDDBB00224A9918D25A49885118B242BF
:10A87C00D8D801968E42D6DD0191D4E70027ECE7BB
:10A88C002B00424631000120FFF7D0FD0700BBE74B
:10A89C006E78AB781B021E43ED78FB2D00DDFB259B
:10A8AC00EFB2E0690130134971182A0001F081FA06
:10A8BC0011482A003100FFF729FAE36980221A7047
:10A8CC0001372023E75402482100FEF737FB49E704
:10A8DC0060000020B004002050DB0008A005002020
:10A8EC00DCDA0008F8DA000810DB00083000002081
:10A8FC00400000203CDD000834DB0008F8B5464879
:10A90C00FEF723FB041E21D0C5691030062221005E
:10A91C000A3101F04EFA40482100FFF70FFE2B7868
:10A92C002F2B14D0002B03D12022A25C062A33D06B
:10A93C00202B02D1E15C05294FD82023E15C37485C
:10A94C00FFF7E4F936482100FFF70FFEF8BD20228F
:10A95C00A25C092AE6D16878AB781B021843EB7825
:10A96C001B0418432B791B0618436979AB791B021E
:10A97C001943EB791B0419432B7A1B061943FFF778
:10A98C000FFB20230122E254002803D17F32E3691C
:10A99C001A7039E08122FAE76E78AB781B021E43FD
:10A9AC00EB781B041E432B791B061E436D79FB2D84
:10A9BC0000DDFB25EFB2E06901302A00310001F027
:10A9CC00F8F918482A003100FFF7A0F9E369802252
:10A9DC001A7001372023E75416E06878AB781B0215
:10A9EC001843EB781B0418432B791B0618430539C5
:10A9FC00C9B26A1DFFF70AFB20230122E25400288A
:10AA0C0007D17F32E3691A7003482100FEF796FAEA
:10AA1C009CE78122F6E7C0464400002084DB000856
:10AA2C00A00500206CDB000810B50C48FEF797FA67
:10AA3C000B48FEF794FA0B48FEF791FAFFF762FD0C
:10AA4C00094B1C68094B1B68E418094B1B68E4187C
:10AA5C00FDF7D8FC201800F02DFE10BD6000002082
:10AA6C00440000207C0000209075FF1F9475FF1F90
:10AA7C009875FF1F10B50E4BDB79002B0AD10C4BD0
:10AA8C005B79002B0CD1FFF781FDFFF739FEFFF747
:10AA9C0035FF10BD064B0022DA71FFF7EBFAEEE73B
:10AAAC00044A1343802292051360FFF78BFCC046C7
:10AABC00B00400200000CDCD70B582B01B4A1C49FB
:10AACC001C48FEF767FA002408E0A3011B19990043
:10AADC00194BC9181548FFF7C8F801346D2CF4DD73
:10AAEC00002408E0E3001B199900144BC918104806
:10AAFC00FFF7BBF80134092CF4DD114E3000FEF7E2
:10AB0C009AFC104C0949104D00230093330022008D
:10AB1C002800FEF76DFE22000C3A2378127A0548C5
:10AB2C002900FEF720FA02B070BDC0467407002061
:10AB3C0000060020A0050020800700200C06002045
:10AB4C0098000020BC040020C005002070B52C4CDF
:10AB5C002C4B1A689B8893612B4B1A689B889361CA
:10AB6C002A4800F02DFF2A4A2A4B22606360FFF727
:10AB7C009FF9294DA91C29482A00FFF751F9FFF725
:10AB8C009BFF0120FFF75EF9FFF74EFF243D2B7969
:10AB9C00002B0CD022492348FFF7B8F8FFF794FAA2
:10ABAC0000F0B6F8174B1A689B88936210E01E49A8
:10ABBC00F1E71E4B802292019A620020FFF742F9C6
:10ABCC0022686168124B9A4216D1124B994213D1EA
:10ABDC0000F0D2F81648FEF791FF1048FEF70EF978
:10ABEC00FFF748FF134B69229B5C002BE1D00F4B06
:10ABFC00802292019A61E0E70F4800F0E1FEFEE747
:10AC0C00A8790020C4000020BC000020BCDB000898
:10AC1C0034341212CDCDABABD4040020A0050020EF
:10AC2C00A0DB0008D8DB0008B0DB000800080050EF
:10AC3C00C0050020B0040020ECDB000830B50D4945
:10AC4C000B680D4A8400A3500C4A157B1D712E25F0
:10AC5C00555D5D7103259D717D35DD71128E1A7206
:10AC6C0040225A720A33064AA350064B00221A5449
:10AC7C000A6030BD5077002054770020B0040020CB
:10AC8C00407700204877002010B50E4B1B68002B36
:10AC9C0004D00C4B1B68002B06D010BD0A48FEF7E5
:10ACAC00D5FF084B1860F4E7084B1B78002BF4D049
:10ACBC00064B00221A70064B01321A700548FFF73A
:10ACCC0025F8EAE750770020740700204B77002026
:10ACDC004A770020FCDB000870B50B4B42229B5CD2
:10ACEC00002B01D1002070BD074C4426A15B4625EA
:10ACFC00625D0648FFF70AF8A05B00F015FA605D8C
:10AD0C0000F04CFAEEE7C046B004002010DC00085E
:10AD1C0070B500F0E5FB134820221121FEF7EDFC85
:10AD2C00114D2800FEF792FF104C20600020FFF719
:10AD3C0085FF2800FEF78AFF20600120FFF77EFFC9
:10AD4C00002201210520FDF7FDFA094B0122DA60F2
:10AD5C00084AC0235B002021D1500520FDF7F6FAEC
:10AD6C0070BDC046C005002074070020507700203D
:10AD7C000018024000E100E0F0B583B0914B1A6975
:10AD8C0004231340904A1268002A03D0002B24D0CD
:10AD9C00002400E000248C4A13608C4B1B78002BA1
:10ADAC0064D18B4B00225A701A708A4B1A70002C8B
:10ADBC005CD0894B5F329B5C002B57D08748FEF7E9
:10ADCC00A5FF854B5F229B5CFF2B02D0824B0021A1
:10ADDC0099547E4B01221A7048E00124DBE7804B2A
:10ADEC0001221A70794B00221A707E48FEF78EFFF2
:10ADFC004EE07D4A81008C58A2799B18A371FFF715
:10AE0C001DFF724B1B78012B16D02021714B1A7829
:10AE1C00501C18700F2313400B43627A1343637258
:10AE2C0072482100FEF721FF684B1B78012B38D1AB
:10AE3C00664B02221A7034E01021E7E701A96C4B33
:10AE4C000B80A024E40580252D02A562694802230D
:10AE5C000022FEF79DFAA561674B3422002199541C
:10AE6C004DE00024584A1360002C56D1574B1B78E8
:10AE7C00002B52D0FFF708FF544B1B78002B4CD003
:10AE8C00534B1B78F62B03D9514B5B78F62BA6D87A
:10AE9C005A4B187801235840C0B24D4B1B5CF62B13
:10AEAC00A7D8554B34229B5C002B1FD1524B9B6A6D
:10AEBC00002B1BD04D4D2800FEF7C8FE0400C11C12
:10AECC009523C370A026F60580273F02B7628379CD
:10AEDC00043348480022FEF75BFAB761283D34235F
:10AEEC000122EA5446482100FEF7BFFE424B3422B1
:10AEFC009B5C002B03D0434B1B691B079ED5314B2E
:10AF0C001A6904231340304A1268002AA9D0002B76
:10AF1C0001D00024A6E70124A4E7FFF7B5FE3A4BC5
:10AF2C001B68002B27D0294B1B78002B23D0002C1F
:10AF3C0021D0324E30782C4B8200D1584B7A254D93
:10AF4C002C780F2222401343302213434B728B79FF
:10AF5C001F4C225C9B188B712748436898473078AC
:10AF6C00FFF76CFE2948FEF7D1FE184A0023137038
:10AF7C00637023702B70FFF787FE234B1968002931
:10AF8C001ED0174B1B78002B1AD0154B00241C70AD
:10AF9C00114B1A7B0A712E229A5C4A7103228A7118
:10AFAC007D32CA711B8E0B720A4B1A780F23134019
:10AFBC00402213434B72104843689847124B1C6055
:10AFCC0003B0F0BD00040050387700204B77002010
:10AFDC00487700204C770020B00400203CDC0008AF
:10AFEC004A7700204CDC000854770020E80500204C
:10AFFC009703000098000020C00500203C7700203B
:10B00C0074070020000C0050507700205CDC000816
:10B01C00012170B5104A114BD1601B78002B1AD04E
:10B02C000F4C10482278835CF62B14D80E4D05314A
:10B03C002D69294006290ED19A31C9050D690B4994
:10B04C0096007158CD540133DBB28354F72B02D1E7
:10B05C0001235A40227070BD001802404B7700202B
:10B06C003C770020487700200004005040770020F7
:10B07C0030B585B00C000179006801256D42029550
:10B08C009BB20193009201232200FBF7B9FF05B09C
:10B09C0030BD00B583B013006A460732137001232C
:10B0AC00FFF7E6FF03B000BD30B585B00C000179A9
:10B0BC00006801256D4202959BB201930092012319
:10B0CC002200FCF769F805B030BD10B582B06B46B4
:10B0DC00DC1DFF232370FE3B2200FFF7E5FF2078E9
:10B0EC0002B010BD10B5002408E00C4B6200D15C1E
:10B0FC009B185A780A48FFF7CCFF0134072CF4D977
:10B10C00002408E0074B6200D15C9B185A78044875
:10B11C00FFF7BFFF0134062CF4D910BDA8DD0008E1
:10B12C00CC000020B8DD000870B505001A4C0122D7
:10B13C00FF212000FFF7ADFF13212000FFF7C5FF13
:10B14C0001239843C2B213212000FFF7A2FF45212F
:10B15C002000FFF7BAFFAB0A3F2102008A431A43D3
:10B16C00D2B206312000FFF794FFAA08D2B2102108
:10B17C002000FFF78EFF04212000FFF7A6FF03231A
:10B18C002B40032102008A431A43D2B20131200022
:10B19C00FFF77FFF70BDC046CC00002070B50500E6
:10B1AC00154C0122FF212000FFF773FF1321200013
:10B1BC00FFF78BFF04239843C2B213212000FFF743
:10B1CC0068FF14212000FFF780FF1F22024014218A
:10B1DC002000FFF75EFF2A0000212000FFF759FF37
:10B1EC0045212000FFF771FF3F220240452120003E
:10B1FC00FFF74FFF70BDC046CC000020F8B5032808
:10B20C001AD007D8012835D0022809D14F2541265C
:10B21C00652714E0042803D171253F2642270EE050
:10B22C00164C0022FF212000FFF733FF1022C7210C
:10B23C002000FFF72EFF1CE06625412652270F4CFD
:10B24C000022FF212000FFF724FF4022C72120000D
:10B25C00FFF71FFF3A00CC212000FFF71AFF320046
:10B26C00CD212000FFF715FF2A00CE212000FFF78B
:10B27C0010FFF8BD542541265E27E0E7CC000020E6
:10B28C0070B50430040108231C4364B2E4B2104DC1
:10B29C000022FF212800FFF7FCFE00227C21280061
:10B2AC00FFF7F7FE02227D212800FFF7F2FE0322B2
:10B2BC007C212800FFF7EDFE22007D212800FFF7FE
:10B2CC00E8FE22007D212800FFF7E3FE70BDC0469A
:10B2DC00CC00002070B50400114D0022FF21280085
:10B2EC00FFF7D7FE00227C212800FFF7D2FE0422B4
:10B2FC007D212800FFF7CDFE09227C212800FFF7D5
:10B30C00C8FE0234E2B21201D2B27D212800FFF74E
:10B31C00C0FE00227D212800FFF7BBFE70BDC04699
:10B32C00CC00002070B501280CD006DC831C35D075
:10B33C00013036D12A251C2606E0022834D10C25F2
:10B34C00282601E016252426194C0022FF21200076
:10B35C00FFF79FFE00227C212000FFF79AFE0422BB
:10B36C007D212000FFF795FE07227C212000FFF7AE
:10B37C0090FE20227D212000FFF78BFE32007D21E4
:10B38C002000FFF786FE2A007D212000FFF781FEBA
:10B39C0006227D212000FFF77CFE70BD3425182687
:10B3AC00D2E720252026CFE720252026CCE7C04653
:10B3BC00CC00002070B583072AD18B072BD18408D1
:10B3CC008D08164E0022FF213000FFF762FE04228A
:10B3DC00E0213000FFF75DFEE2B25A213000FFF7AA
:10B3EC0058FEEAB25B213000FFF753FE240A032219
:10B3FC002240AD0904232B401A435C213000FFF797
:10B40C0048FE0022E0213000FFF743FE002070BD13
:10B41C0001204042FBE701204042F8E7CC0000202D
:10B42C00F0B5C64600B582B001900F0091074ED121
:10B43C0099074FD194089E08284D0022FF2128001F
:10B44C00FFF727FE0422E0212800FFF722FEE2B2DC
:10B45C0051212800FFF71DFEF2B252212800FFF700
:10B46C0018FE6B461A7953212800FFF712FEFAB228
:10B47C0054212800FFF70DFE7308DBB27F229046A3
:10B48C0093433F090F3A3A401A4352B261090823D9
:10B49C000B401A4352B2019B1E0A072333401A4336
:10B4AC00D2B255212800FFF7F4FDA208D2B24346D0
:10B4BC009A4357212800FFF7ECFD0022E0212800D9
:10B4CC00FFF7E7FD002002B080BCB846F0BD0120BC
:10B4DC004042F8E701204042F5E7C046CC0000208E
:10B4EC0070B5564C4025A5620A20FCF791FFA5616A
:10B4FC000A20FCF78DFF524C0122FF212000FFF7A0
:10B50C00C8FD802212212000FFF7C3FD3220FCF77A
:10B51C007FFF1C212000FFF7D8FD06001D21200015
:10B52C00FFF7D3FD05B236023543ADB20A21200038
:10B53C00FFF7CBFD06000B212000FFF7C6FD04B280
:10B54C0036023443A4B23F4822002900FEF7DEFB4A
:10B55C003D4B9D4204D13D4B9C4201D100240EE059
:10B56C003B48FEF7D3FB012040425AE0394B6200C6
:10B57C00D15C9B185A783248FFF78BFD0134B02C04
:10B58C00F4D9FFF7AFFD9623C8229B00920000214F
:10B59C000020FFF745FF304EB18E708EFFF70AFF8B
:10B5AC00274C0022FF212000FFF773FDD321200040
:10B5BC00FFF78BFD0100294D2800FEF7A7FB522257
:10B5CC00D3212000FFF765FDD3212000FFF77DFD7F
:10B5DC0001002800FEF79AFB0122FF212000FFF753
:10B5EC0058FD002211212000FFF753FDD0222A2103
:10B5FC002000FFF74EFDF2222B212000FFF749FD22
:10B60C000320FFF7FBFD0020FFF73AFE0020FFF7B9
:10B61C0061FE0020FFF786FE4223F35C002B01D174
:10B62C00002070BD0C4C4423E05AFFF77DFD4623EF
:10B63C00E05CFFF7B3FD0020F3E7C04600080050C4
:10B64C00CC0000206CDC0008A27F00004226000029
:10B65C0088DC0008C8DD0008B0040020A4DC000869
:10B66C000D488546FDF71CFB0C480D490D4A00237F
:10B67C0002E0D458C4500433C4188C42F9D30A4A9B
:10B68C000A4C002301E013600432A242FBD300F009
:10B69C0061FBFBF7FBF8FEE70090002004000020A4
:10B6AC00300100201CE0000830010020A8780020A8
:10B6BC00FEE70000104B70B51D6804002A6B002AD1
:10B6CC0016D1182000F0E6FB021E286304D1462197
:10B6DC000A4B0B4800F076FB0A4B002103600A4B27
:10B6EC0043600A4B83600B238381012010615161FD
:10B6FC0000231461536170BDE00000202ADF0008B4
:10B70C0041DF00080E33CDAB34126DE6ECDE0500E4
:10B71C00164B70B51D682C6B002C17D1182000F03F
:10B72C00B9FB041E286305D122005221104B11488D
:10B73C0000F048FB104B01220360104B4360104B90
:10B74C0083600B238381002302614361206961695B
:10B75C000C4A0D4B01F08CFA012200238018594140
:10B76C00206161614800400870BDC046E0000020C7
:10B77C002ADF000841DF00080E33CDAB34126DE632
:10B78C00ECDE05002D7F954C2DF45158002310B59F
:10B79C00040003604360836081814366C28103615E
:10B7AC0043618361190008225C3000F061FA0B4B95
:10B7BC00246263620A4BA3620A4BE3620A4B236363
:10B7CC000A4B9C4205D00A4B9C4202D0094B9C422E
:10B7DC0003D12000583000F0E1FA10BD25BA000862
:10B7EC004DBA000885BA0008B1BA00085C77002091
:10B7FC00C47700202C78002010B5034A0349044874
:10B80C0000F06CF810BDC046D400002085C90008BB
:10B81C00E400002041680B4B10B50400994201D0A4
:10B82C0001F0AAF8A168084B994202D0200001F05F
:10B83C00A3F8E168054B994202D0200001F09CF876
:10B84C0010BDC0465C770020C47700202C78002007
:10B85C0010B5094B094A04211A6009480022FFF768
:10B86C0095FF012209210748FFF790FF02221221C0
:10B87C000548FFF78BFF10BD9478002005B8000831
:10B88C005C770020C47700202C78002010B502488B
:10B89C0000F085FA10BDC0469D78002010B5024816
:10B8AC0000F07EFA10BDC0469D78002010B5040053
:10B8BC00FFF7ECFF236A002B02D0FFF7EFFF10BD60
:10B8CC00044B2362044B1B68002BF6D1FFF7C0FF1F
:10B8DC00F3E7C04621B8000894780020F7B51400AF
:10B8EC00002600900191A5686768013F04D5246883
:10B8FC00002CF8D13000FEBDAB89012B08D90E22EB
:10B90C00AB5E013304D029000098019B9847064395
:10B91C006835EAE7036A70B505000E008468002BF1
:10B92C0001D1FFF7C3FF636EDB0705D4A3899B0529
:10B93C0002D4A06D00F033FAA3891B0702D523694A
:10B94C00002B1FD12100280000F038F9002819D055
:10B95C0001256D42636EDB0705D4A3899B0502D4D8
:10B96C00A06D00F01DFA280070BD0136A360002BFD
:10B97C0004DAA269934216DB0A2914D023685A1CF4
:10B98C0022601970A3683178013B0029EDD1A360C6
:10B99C00002B0FDA220028000A3100F0CDF801301C
:10B9AC00D6D00A25D6E72200280000F0C5F80130D1
:10B9BC00E8D1CDE723685A1C22600A221A70F0E7FE
:10B9CC0010B5034B01001868FFF7A4FF10BDC0466B
:10B9DC00E00000200EB410B500249DB0029006903B
:10B9EC000A481FAB07900490094804CB05900948FE
:10B9FC0002A9006801934C6600F06CFB029B1C7062
:10BA0C001DB010BC08BC03B01847C046FFFFFF7F39
:10BA1C000802FFFFE000002070B50C000E25495F06
:10BA2C0000F06AF9002803DB636D1B18636570BDB9
:10BA3C00A389024A1340A381F9E7C046FFEFFFFF39
:10BA4C00F8B51F008B8905000C001600DB0505D529
:10BA5C000E23C95E0022022300F03AF9A389054A9D
:10BA6C0028001340A38132000E23E15E3B0000F05E
:10BA7C0057F9F8BDFFEFFFFF70B50C000E25495FBD
:10BA8C0000F026F90C22A35E421C03D1044A134099
:10BA9C00A38170BD802252011343A3816065F8E736
:10BAAC00FFEFFFFF10B50E23C95E00F0FFF810BDCD
:10BABC000B0010B5034902000868816800F036FCE1
:10BACC0010BDC046E000002070B506001400080050
