:020000040800F2
:1060000000900020A1BC0008A5680008B568000841
:106010000000000000000000000000000000000080
:10602000000000000000000000000000C56800083B
:106030000000000000000000C7680008C9680008F0
:10604000F1BC0008F1BC0008F1BC0008F1BC00087C
:10605000F1BC0008F1BC000835AD00084DAD0008EA
:10606000F1BC000869AD000885AD0008F1BC00086E
:10607000F1BC0008F1BC0008F1BC0008F1BC00084C
:10608000F1BC0008F1BC0008F1BC0008F1BC00083C
:10609000F1BC0008F1BC0008F1BC0008F1BC00082C
:1060A000F1BC0008F1BC0008F1BC0008F1BC00081C
:0C60B000F1BC0008F1BC0008F1BC0008C5
:1060BC000023C25C0133002AFBD1581E704700003C
:1060CC0003B47146490840004900095E49008E44FA
:1060DC0003BC7047002243088B4274D303098B42E4
:1060EC005FD3030A8B4244D3030B8B4228D3030C9C
:1060FC008B420DD3FF22090212BA030C8B4202D33E
:10610C001212090265D0030B8B4219D300E0090A65
:10611C00C30B8B4201D3CB03C01A5241830B8B426E
:10612C0001D38B03C01A5241430B8B4201D34B0357
:10613C00C01A5241030B8B4201D30B03C01A5241BC
:10614C00C30A8B4201D3CB02C01A5241830A8B4241
:10615C0001D38B02C01A5241430A8B4201D34B022A
:10616C00C01A5241030A8B4201D30B02C01A52418E
:10617C00CDD2C3098B4201D3CB01C01A5241830942
:10618C008B4201D38B01C01A524143098B4201D37C
:10619C004B01C01A524103098B4201D30B01C01AA7
:1061AC005241C3088B4201D3CB00C01A5241830821
:1061BC008B4201D38B00C01A524143088B4201D34E
:1061CC004B00C01A5241411A00D2014652411046AE
:1061DC007047FFE701B5002000F0F0F802BDC046A3
:1061EC000029F7D076E7704703460B437FD4002293
:1061FC0043088B4274D303098B425FD3030A8B424F
:10620C0044D3030B8B4228D3030C8B420DD3FF22B8
:10621C00090212BA030C8B4202D31212090265D086
:10622C00030B8B4219D300E0090AC30B8B4201D339
:10623C00CB03C01A5241830B8B4201D38B03C01A80
:10624C005241430B8B4201D34B03C01A5241030BF7
:10625C008B4201D30B03C01A5241C30A8B4201D3A8
:10626C00CB02C01A5241830A8B4201D38B02C01A53
:10627C005241430A8B4201D34B02C01A5241030ACA
:10628C008B4201D30B02C01A5241CDD2C3098B42AF
:10629C0001D3CB01C01A524183098B4201D38B012C
:1062AC00C01A524143098B4201D34B01C01A5241CF
:1062BC0003098B4201D30B01C01A5241C3088B4214
:1062CC0001D3CB00C01A524183088B4201D38B00FF
:1062DC00C01A524143088B4201D34B00C01A5241A1
:1062EC00411A00D201465241104670475DE0CA0F78
:1062FC0000D04942031000D34042534000229C4638
:10630C0003098B422DD3030A8B4212D3FC22890141
:10631C0012BA030A8B420CD3890192118B4208D317
:10632C00890192118B4204D389013AD0921100E079
:10633C008909C3098B4201D3CB01C01A524183098D
:10634C008B4201D38B01C01A524143098B4201D3BA
:10635C004B01C01A524103098B4201D30B01C01AE5
:10636C005241C3088B4201D3CB00C01A524183085F
:10637C008B4201D38B00C01A5241D9D243088B42B5
:10638C0001D34B00C01A5241411A00D20146634658
:10639C0052415B10104601D34042002B00D54942BC
:1063AC00704763465B1000D3404201B5002000F0FB
:1063BC0005F802BD0029F8D016E770477047C046B3
:1063CC00002B11D1002A0FD1002900D1002802D0B6
:1063DC000021C943080007B4024802A140180290EA
:1063EC0003BDC046D9FFFFFF03B4684601B5029850
:1063FC0006F052FF019B9E4602B00CBC7047C04693
:10640C0010B5002903D100F007F8203002E0080095
:10641C0000F002F810BDC0461C2101231B04984259
:10642C0001D3000C10391B0A984201D3000A083919
:10643C001B09984201D30009043902A2105C4018D0
:10644C007047C04604030202010101010000000074
:10645C00000000000448054B10B5834203D0044BE8
:10646C00002B00D0984710BD500100205001002097
:10647C000000000006480749091A8B10C90FC918FB
:10648C0010B5491003D0044B002B00D0984710BD19
:10649C0050010020500100200000000010B5074CF6
:1064AC002378002B09D1FFF7D5FF054B002B02D029
:1064BC00044800E000BF0123237010BD50010020F0
:1064CC00000000003CD40008054B10B5002B03D095
:1064DC000449054800E000BFFFF7CCFF10BDC046E3
:1064EC0000000000540100203CD4000882B0054A92
:1064FC00916B012319439163926B13400193019BA0
:10650C0002B0704700100240F0B5DE4657464E46CA
:10651C004546E0B58BB005AC14220021200005F0F7
:10652C008DFE4F4B596B042211435963596B0A4032
:10653C000192019A5A6B022189460A435A635A6B9B
:10654C000A400292029A5A6B01252A435A635A6BEB
:10655C002A400392039A5A6B06318B460A435A63BC
:10656C005B6B0B400493049B8026B6010022310028
:10657C003C4801F0E5FD80235B01984600221900A0
:10658C00394801F0DDFDA027FF0501228121090218
:10659C00380001F0D5FD00224146380001F0D0FD55
:1065AC00324B9A4600220621180001F0C9FD0596CF
:1065BC0065600026A660E66021002A4801F006FD11
:1065CC004346059311236360A560E66021002648CD
:1065DC0001F0FCFC81231B0205936560A6604B4611
:1065EC00E3602100380001F0F1FC80239B0005934F
:1065FC004B466360A660E56026612100380001F01F
:10660C00E5FC80231B01059384239B03994663605F
:10661C00A5602100380001F0D9FC43460593656064
:10662C00A660E6602100380001F0D0FC062305933B
:10663C006560A660E6602100504601F0C7FC5B4631
:10664C0005934B466360A5602100504601F0BEFCEB
:10665C000BB0F0BCBB46B246A946A046F0BDC04646
:10666C00001002400008005000040050000C0050C4
:10667C0072B6FEE710B51048104B036082235B0026
:10668C00436000238360E022D200C2600361436157
:10669C00802292008261F93AFF3AC261036243623E
:1066AC0083620721C1620363426301F0D1FE0028BB
:1066BC0000D110BDFFF7DCFFD403002000300140F7
:1066CC0010B51748174B0360174B436000238360CA
:1066DC00C36003610C2242618361C3610362436244
:1066EC00836202F00BFA002811D10D48002102F050
:1066FC008DFA00280DD10A48002102F0ADFA0028CD
:10670C0009D1074802F060FA002806D110BDFFF746
:10671C00AFFFFFF7ADFFFFF7ABFFFFF7A9FFC046D9
:10672C006C0100200038014080841E0010B5124816
:10673C00124B0360124B4360002383600122C26042
:10674C00036143618361C361036200F0EDFB0028C8
:10675C000CD10948002100F0F1FD002808D10648B1
:10676C00002100F017FE002804D110BDFFF780FFB8
:10677C00FFF77EFFFFF77CFF380400200058004035
:10678C00B23B61C010B51048104B036082235B0014
:10679C00436000238360E022D200C2600361436146
:1067AC00802292008261F93AFF3AC261036243622D
:1067BC0083620721C1620363426301F049FE002832
:1067CC0000D110BDFFF754FF7003002000380040CB
:1067DC0010B592B004AC38220021200005F02EFD3B
:1067EC0010220021684605F029FD8020800001F070
:1067FC0035FD022304938022520007920022089256
:10680C00402109910B930C930D9206330E93802328
:10681C009B020F9380239B04109380239B05119361
:10682C00200000F0E1FD00281CD1684607230093EE
:10683C00053B0193002302930393022101F0C2F85C
:10684C00002811D1094AD16880235B050B43D36022
:10685C008022A02180209205C904800001F020F83C
:10686C0012B010BDFFF704FFFFF702FF001002404B
:10687C0010B501F0A9FDFFF7ABFFFFF745FEFFF7E1
:10688C0035FEFFF7F7FEFFF71BFFFFF74FFFFFF794
:10689C0079FF04F0B5F9FEE710B5024805F0BAFB34
:1068AC00FEE7C0469CD4000810B5024805F0B2FBC8
:1068BC00FEE7C046A8D400087047704710B501F039
:1068CC0097FD10BD00B583B0114B196C012211431B
:1068DC001964196C0A400092009ADA6B8021490500
:1068EC000A43DA63DB6B0B400193019B052000220A
:1068FC000221404201F028FD0220002202214042E8
:10690C0001F022FDC020C00001F096FD03B000BDD7
:10691C000010024010B588B004001422002103A816
:10692C0005F08CFC2268124B9A4201D008B010BDC5
:10693C00104C626B02231A436263626B1340019327
:10694C00019B03A9C0231B01039312234B60113B32
:10695C008B6005330B61084801F038FBE36B802238
:10696C00D2031343E363E36B13400293029BDDE713
:10697C0000580040001002400004005030B58BB0AD
:10698C0004001422002105A805F058FC2368534A82
:10699C00934204D0524A93424FD00BB030BD514B6E
:1069AC001A6C80256D012A431A641A6C2A400192D4
:1069BC00019A596B0222114359635B6B134002938A
:1069CC00029B05A9382305934A60CA60464801F02A
:1069DC00FDFA4648464B036011234360013B83603C
:1069EC000023C3608022026143618361C36105623D
:1069FC0001F0DCFB00281AD13C4B63659C623D48DE
:106A0C003D4B03601023436000238360C3608022EE
:106A1C00026143618361C36180235B01036201F006
:106A2C00C5FB002806D1334BA3659C62B5E7FFF785
:106A3C001FFEE1E7FFF71CFEF5E72A4BDA6B80211E
:106A4C00C9010A43DA63DA6B0A400392039A596B61
:106A5C000222114359635B6B13400493049B05A9F9
:106A6C00E0231B0205934A60CA601F4801F0AEFA8E
:106A7C002248234B036013234360033B83600023B2
:106A8C00C3608022026143618361C36180235B0127
:106A9C00036201F08BFB00281AD1184B63659C62D2
:106AAC001848194B03601223436000238360C360B2
:106ABC008022026143618361C36180235B010362B5
:106ACC0001F074FB002806D10E4BA3659C6264E7B1
:106ADC00FFF7CEFDE1E7FFF7CBFDF5E70030014016
:106AEC000038004000100240000400501403002045
:106AFC001C000240B8020020080002405C0200208A
:106B0C0044000240000200203000024010B594B056
:106B1C000400142200210FA805F090FB3422002160
:106B2C0002A805F08BFB2268164B9A4201D014B0D8
:106B3C0010BD0123029302A801F024F800281ED1F5
:106B4C00114B1A6C8021C9010A431A641A6C0A4051
:106B5C000092009A596B0222114359635B6B1340EC
:106B6C000193019B0FA940230F934A603F3B8B601D
:106B7C00CB6000230B61054801F028FAD7E7FFF73B
:106B8C0077FDDDE7003801400010024000040050A2
:106B9C00026893699B0701D50023936203689A6985
:106BAC00D20703D49A6901210A439A617047000005
:106BBC0010B58905890D120411431943029B194321
:106BCC0049004908046862685B0D8020C0000340DE
:106BDC00034803439A4313000B43636010BDC04644
:106BEC00FF63FF03F0B5C64600B504000D001700A7
:106BFC0001688B69102216001E401A4200D175E004
:106C0C001023CB61002398460026206883699B06DD
:106C1C0031D4002E2FD16B1CF7D001F0F5FBC01B2B
:106C2C00A84201D8002DF0D121684B688022D201F6
:106C3C0013404222A25CD2B28869000403D5002B17
:106C4C0001D1202A0ED123689B699B06DDD401F06B
:106C5C00DBFBC01B1928F6D9202342461A43904669
:106C6C000126D2E74A688023DB0113434B6001F015
:106C7C00CBFB0700E7E7002E01D12023C3610426DC
:106C8C00434633431E00012522689369D90504D578
:106C9C0001210E43FF31D16101255A0506D5082289
:106CAC00164322688021C900D16101259B051FD59F
:106CBC0002231E43236880229200DA610125200002
:106CCC00FFF766FF226853680B490B405360636CF7
:106CDC003343636441232022E25400232232A35421
:106CEC00023AA354280080BCB846F0BD0025CBE77F
:106CFC00002DF7D0E3E7C04600E800FE70B50400B5
:106D0C000D00160023689B699B0720D432002900D4
:106D1C002000FFF767FF00281BD16B1CF2D001F09D
:106D2C0073FB801BA84201D8002DEBD123689B6913
:106D3C009B07E7D4636C2022134363644123E25422
:106D4C0000232232A354023AA354012000E0002075
:106D5C0070BD0120FCE7F0B5D6464F4680B583B038
:106D6C0007000D00160099460A9B9A463B689C69E1
:106D7C002C40641B63425C410196B44228D15246BC
:106D8C0049463800FFF72EFF002827D14B46013328
:106D9C00ECD001F039FB5346C01A484502D84B469B
:106DAC00002BE3D13B689B692B405B1B5A42534140
:106DBC00019A9342DAD17B6C202213437B644123EA
:106DCC00FA5400232232BB54023ABB54012000E097
:106DDC00002003B0C0BCBA46B146F0BD0120F8E7B4
:106DEC0070B582B0040015001E008023F2B2194861
:106DFC0000905B042000FFF7DBFE079A0699200049
:106E0C00FFF77CFF00281ED1012E0ED12368EDB2B6
:106E1C009D62079B0093069B002280212000FFF7B8
:106E2C009AFF002813D102B070BD23682A0A9A6217
:106E3C00079A06992000FFF761FF002805D1236807
:106E4C00EDB29D62E5E70120EDE70120EBE70120C3
:106E5C00E9E7C0460020008070B582B00400150040
:106E6C001E00DAB2184B00930023FFF7A1FE079A1D
:106E7C0006992000FFF742FF00281ED1012E0ED1EB
:106E8C002368EDB29D62079B0093069B0022402174
:106E9C002000FFF760FF002813D102B070BD2368FB
:106EAC002A0A9A62079A06992000FFF727FF002802
:106EBC0005D12368EDB29D62E5E70120EDE70120E5
:106ECC00EBE70120E9E7C0460020008070B5040024
:106EDC000D00160003E023689B699B0612D52368FE
:106EEC009B699B061BD4320029002000FFF77AFE19
:106EFC00002816D101F088FA801BA842EBD8002D8F
:106F0C00EDD1E8E7636C2022134363644123E25420
:106F1C0000232232A354023AA354012000E00020A3
:106F2C0070BD0120FCE7000010B5041E60D04123A9
:106F3C00C35C002B48D041232422E25422681368FE
:106F4C0001218B431360636822682A490B4013614B
:106F5C002268936828490B409360E368012B39D071
:106F6C00A168226884231B020B439360E368022B05
:106F7C0037D02268536821490B405360226851680E
:106F8C001F4B0B4353602268D3681B490B40D360E3
:106F9C00236962691343A269120221681343CB600F
:106FAC00E369216A22680B4313602268136801218C
:106FBC000B4313600023636441221F31A1542363EC
:106FCC000132A354002010BD40330022C254FFF7FD
:106FDC00A1FCB0E7A168226880231B020B439360DD
:106FEC00C4E72268516880231B010B435360C5E73B
:106FFC000120E8E7FFFFFFF0FF7FFFFFFFF7FFFF38
:10700C0000800002F0B587B0040003910492059350
:10701C000CAB20CB1F884123C35C202B00D0AFE0EE
:10702C00002D18D0002F16D04023C35C012B00D1AB
:10703C00A9E040230122C25401F0E6F906008021A8
:10704C0000901923012209022000FFF784FE00287A
:10705C0006D0012095E080239B006364012090E022
:10706C0041232122E25401331F32E2540023636492
:10707C0065626785636301960E9B0093059B049A7A
:10708C0003992000FFF7ACFE00280ED1638DFF2B77
:10709C0010D9FF2323857F3B002200925B04FF3233
:1070AC0003992000FFF784FD20E040230022E254E6
:1070BC00012066E0628D92B222858023D2B200213B
:1070CC0000919B0403992000FFF772FD0EE0628D86
:1070DC0092B222858023D2B2002100919B040399A5
:1070EC002000FFF765FD638D002B32D032000E9926
:1070FC002000FFF703FE002847D1626A236812784C
:10710C009A62636A01336362638D013B9BB2638550
:10711C00238D013B9BB22385628D002AE3D0002B8B
:10712C00E1D100960E9B002280212000FFF713FE78
:10713C0000282CD1638DFF2BC9D9FF2323857F3BDE
:10714C00002200925B04FF3203992000FFF730FD10
:10715C00C9E732000E992000FFF7B8FE002818D1BD
:10716C0023682022DA6121684B680B4D2B404B6061
:10717C004123E25400232232A354023AA35400E0E8
:10718C00022007B0F0BD0220FBE70120F9E7012047
:10719C00F7E70120F5E7C04600E800FEF0B587B040
:1071AC0004000391049205930CAB20CB1F88412360
:1071BC00C35C202B00D0B1E0002D18D0002F16D0CE
:1071CC004023C35C012B00D1ABE040230122C2540D
:1071DC0001F01AF9060080210090192301220902FE
:1071EC002000FFF7B8FD002806D0012097E080238F
:1071FC009B006364012092E041232222E25401337C
:10720C001E32E254002363646562678563630196F2
:10721C000E9B0093059B049A03992000FFF71CFE1C
:10722C0000280ED1638DFF2B10D9FF2323857F3BC4
:10723C00404A00925B04FF2203992000FFF7B8FC40
:10724C0020E040230022E254012068E0628D92B2DB
:10725C0022858023D2B2374900919B0403992000E8
:10726C00FFF7A6FC0EE0628D92B222858023D2B28B
:10727C00002100919B0403992000FFF799FC638D7A
:10728C00002B34D000960E9B002204212000FFF727
:10729C0062FD002847D123685A6A636A1A70636AD0
:1072AC0001336362238D013B9BB22385628D013ACE
:1072BC0092B26285628D002AE1D0002BDFD100965C
:1072CC000E9B002280212000FFF745FD00282CD1C9
:1072DC00638DFF2BC7D9FF2323857F3B00220092B0
:1072EC005B04FF3203992000FFF762FCC7E7320012
:1072FC000E992000FFF7EAFD002818D12368202200
:10730C00DA6121684B680C4D2B404B604123E254F1
:10731C0000232232A354023AA35400E0022007B007
:10732C00F0BD0220FBE70120F9E70120F7E701207F
:10733C00F5E7C0460024008000E800FEF0B54123CC
:10734C00C35C202B20D12033C35C012B1ED04024E6
:10735C000122025541252423435506683368934383
:10736C003360066833680A4F3B4033600668336805
:10737C000B43336001680B6813430B6020234355A8
:10738C00002303550020F0BD0220FCE70220FAE7A1
:10739C00FFEFFFFFF0B54123C35C202B1ED1203340
:1073AC00C35C012B1CD0402401220255412524230F
:1073BC004355066833689343336006683368094F56
:1073CC003B4009021943316001680B6813430B60A1
:1073DC0020234355002303550020F0BD0220FCE779
:1073EC000220FAE7FFF0FFFF70B582B0041E00D157
:1073FC0031E20368DB0739D5C14A916838230B4069
:10740C00D16803220A40102B26D0082B26D06368A3
:10741C008022520293427FD0A022D202934200D10A
:10742C0081E0B74B1A68B7490A401A601A68B64926
:10743C000A401A606368002B00D180E000F0E4FF82
:10744C000500AF4B1B689B0310D400F0DDFF401B05
:10745C006428F6D90320FFE1032AD6D1A84B1B6878
:10746C009B0303D56368002B00D1F7E123689B07CE
:10747C0031D5A34A916838230B40D16803220A40C6
:10748C00102B6AD0002B6BD19D4A1268520503D584
:10749C00E268002A00D1E3E1994842689B490A401E
:1074AC00616909020A434260002B0DD103689849B7
:1074BC000B4021690B4303600368DB0A07221A4067
:1074CC00944BD340944A1360944B186800F050FFCF
:1074DC00002800D0C6E123681B0700D481E0884B4C
:1074EC009A6838231340182B73D0A369002B00D152
:1074FC00B4E0834A136E01210B43136600F084FF42
:10750C0005007F4B1B6E9B076BD400F07DFF401B6F
:10751C000228F6D903209FE1794A116880235B0287
:10752C000B43136086E7764B19688022D2020A431C
:10753C001A601968802252020A431A607AE700F036
:10754C0063FF05006E4B1B689B038FD500F05CFF3F
:10755C00401B6428F6D903207EE1022A92D193E7DE
:10756C00E368002B22D0664A136869490B402169F5
:10757C000B431360116880235B000B43136000F016
:10758C0043FF05005E4B1B685B0506D400F03CFF17
:10759C00401B0228F6D903205EE159494B685B4A2F
:1075AC0013406269120213434B6094E7544A136808
:1075BC005B490B40136000F027FF0500504B1B6824
:1075CC005B0588D500F020FF401B0228F6D903206C
:1075DC0042E14B4B1B6E9B0703D5A369002B00D1DB
:1075EC0042E123685B0700D4A2E0454B9A6838233C
:1075FC001340202B45D0424BDB6BDB004AD4404B75
:10760C00DA6B802149050A43DA63DB6B0B4001938B
:10761C00019B0125434B1B68DB053DD5A368012B62
:10762C004ED0052B52D0364BDA6D01218A43DA65E8
:10763C00DA6D03318A43DA65A368002B50D000F071
:10764C00E3FE06002E4BDB6D9B076FD400F0DCFED7
:10765C00801B354B9842F5D90320FDE0284A136E68
:10766C0001218B43136600F0CFFE0500244B1B6EEB
:10767C009B07B6D500F0C8FE401B0228F6D90320A4
:10768C00EAE01F4BDB6D9B0752D5A368002B4FD153
:10769C000120E1E00025BDE7224A116880235B0050
:1076AC000B43136000F0B0FE06001E4B1B68DB059D
:1076BC00B4D400F0A9FE801B0228F6D90320CBE03D
:1076CC000F4AD36D01210B43D365B5E70C4BDA6D33
:1076DC0004210A43DA65DA6D03390A43DA65ABE74C
:1076EC0000F092FE0600064BDB6D9B071ED500F0EA
:1076FC008BFE801B0C4B9842F5D90320ACE0C046A6
:10770C0000100240FFFFFEFFFFFFFBFFFF80FFFFAB
:10771C00FFC7FFFF0024F4000C000020080000202D
:10772C00FFFEFFFF0070004088130000012D1ED0EB
:10773C00E369002B00D199E0544A916838220A4041
:10774C00102A60D0022B18D0504A136850490B40B5
:10775C00136000F059FE04004C4B1B689B014BD589
:10776C0000F052FE001B0228F6D9032074E0474AB1
:10777C00D36B48490B40D363DAE7444A1368444956
:10778C000B40136000F040FE0500404B1B689B0152
:10779C0006D500F039FE401B0228F6D903205BE029
:1077AC003A4AD3683C491940236A606A0343A06A89
:1077BC0000020343E06A0343206B0343606B034303
:1077CC000B43D360116880235B040B431360D168B7
:1077DC0080235B050B43D36000F016FE04002B4B9B
:1077EC001B689B0106D400F00FFE001B0228F6D983
:1077FC00032031E000202FE0244AD36827490B40B6
:10780C00D360002028E0012B32D0204BDA68032310
:10781C001340216A8B422DD170231340616A8B4235
:10782C002AD1FE21C9011140A36A1B02994225D11C
:10783C00F8239B031340E16A8B4221D1E0231B0503
:10784C001340216B8B421DD1520F5207636B9A422E
:10785C001AD1002000E0012002B070BD0120FBE72E
:10786C000120F9E70120F7E70120F5E70020F3E715
:10787C000120F1E70120EFE70120EDE70120EBE724
:10788C000120E9E70120E7E70120E5E700100240CD
:10789C00FFFFFFFEFFFFFFEF8C80C111FCFFFEEE30
:1078AC00F0B589B003000091019203A902224A604D
:1078BC000132CA6000228A60802676050640000CE0
:1078CC000F320240A0204003101880020D4D6F6B48
:1078DC000124944022003A436A631A04120C039266
:1078EC001B0DFF2213400B6100F070FB002E07D123
:1078FC00AB6805490B40009C01990C431C43AC60E0
:10790C0009B0F0BD00100240FFFFFF8810B52A4BF4
:10791C009B6838221A4207D1274B1A68D20A0723D0
:10792C0013402648D84010BD234B9A683823134087
:10793C00082B3BD0204B9A6838231340102B0DD0CA
:10794C001D4B9A6838231340202B31D01A4B9A6860
:10795C0038231340182B26D00020E4E7164AD168B0
:10796C000D3B0B40D2681209072111400131032B4A
:10797C000FD01248FEF7AEFB0F4BDA68120A7F23CA
:10798C00134058430C4BD968490F0131FEF7A2FB49
:10799C00C9E70B48FEF79EFB074BDA68120A7F23F8
:1079AC0013405843EEE7FA20C001BCE70448BAE79D
:1079BC0080200002B7E7C046001002400024F4000B
:1079CC0000127A0070B504000D00002800D1AAE066
:1079DC00574B1A68072313408B4221D323689A070D
:1079EC000ED55B0705D5534A9168E023DB010B43A9
:1079FC009360504A936850490B40A1680B439360C5
:107A0C002368DB0754D56368012B20D0022B3BD0B5
:107A1C00002B3FD1474A126852051CD401206AE062
:107A2C00434A136807218B432B43136000F0ECFC93
:107A3C0006003F4B1A6807231340AB42CED000F030
:107A4C00E3FC801B3D4A9042F3D9032053E0394AB2
:107A5C001268920369D537498A6807208243134319
:107A6C008B6000F0D1FC0600324B9B6838221A4028
:107A7C006368DB009A421BD000F0C6FC801B2F4BC6
:107A8C009842F1D9032036E02A4A12689201E2D4D6
:107A9C00012030E0032B05D0264AD26D9207DAD4B0
:107AAC00012028E0234A126E9207D4D4012022E050
:107ABC001F4B1A6807231340AB421DD823685B0782
:107ACC0006D51C4A93681E490B40E1680B43936032
:107ADC00FFF71CFF174B9A68120A0F231340194A21
:107AEC009B009A581F231340D840174B1860174B14
:107AFC00186800F03DFC70BD0D4A136807218B43DC
:107B0C002B43136000F080FC0600094B1A68072316
:107B1C001340AB42D2D000F077FC801B074B98424D
:107B2C00F3D90320E7E70120E5E70120E3E7C046AE
:107B3C000020024000100240FFF0FFFF88130000FD
:107B4C00FF8FFFFF80E200080C00002008000020DF
:107B5C00014B18687047C0460C00002010B5FFF7A9
:107B6C00F7FF064B9A68120B07231340044A9B003D
:107B7C009A581F231340D84010BDC0460010024035
:107B8C0060E20008F0B583B0040003689B0362D583
:107B9C00814BDB6BDB001ED47F4BDA6B80214905FC
:107BAC000A43DA63DB6B0B400193019B01267B4A92
:107BBC00116880235B000B43136000F025FC05006B
:107BCC00764B1B68DB0508D400F01EFC401B02281A
:107BDC00F6D9032502E00026E9E70025002D23D184
:107BEC006D4BD96DC02292000B001340114212D084
:107BFC00226B9A420DD0684AD36D69490B40D06D07
:107C0C00802149020143D165D16D66480140D1659F
:107C1C00D365DB0710D4002D06D15F4AD36D6049C4
:107C2C000B40216B0B43D365012E15D15A4AD36BF4
:107C3C005D490B40D3630FE000F0E6FB0700564BA9
:107C4C00DB6D9B07E7D400F0DFFBC01B574B984262
:107C5C00F5D90325DFE700252368DB0706D54E4A57
:107C6C00536D03218B4361680B43536523689B075A
:107C7C0006D5494A536D0C218B43A1680B435365C0
:107C8C002368DB0606D5444A536D49490B40E1682D
:107C9C000B43536523689B0506D53F4A536D4549F5
:107CAC000B40A1690B43536523685B0506D53A4A23
:107CBC00536D41490B40E1690B43536523689B06A7
:107CCC0006D5354A536D3D490B4021690B4353652D
:107CDC0023685B040BD5304A536D9B009B08216ACB
:107CEC000B435365226A8023DB059A4239D0236803
:107CFC001B0306D5284A536D40218B43616A0B4305
:107D0C00536523689B020BD5234A536D2C490B40BA
:107D1C00A16A0B435365A26A8023DB039A4227D0E6
:107D2C0023685B020BD51C4A536D26490B40E16A54
:107D3C000B435365E26A80235B049A421FD023688D
:107D4C001B050BD5144A536D1F490B4061690B433E
:107D5C00536562698023DB019A4215D0280003B079
:107D6C00F0BD0D4AD16880235B020B43D360BEE7A4
:107D7C00094AD16880235B040B43D360D0E7064AE1
:107D8C00D1680B43D360DAE7034AD16880235B02E6
:107D9C000B43D360E2E7C046001002400070004085
:107DAC00FFFCFFFFFFFFFEFFFFFFFFEF881300004C
:107DBC00FFF3FFFFFFFFF3FFFFFFCFFFFFCFFFFF3F
:107DCC00FFFFBFFFFFFFFFFEFF3FFFFF30B5054C7E
:107DDC0061690125294361610260BFF36F8F4360C4
:107DEC0030BDC04600200240084B5B69002B01DB14
:107DFC0000207047054B064A9A60064A9A605B69F8
:107E0C00002B01DB0020F4E70120F2E70020024008
:107E1C0023016745AB89EFCD70B5040000F0F4FA8F
:107E2C000500144B1B69DB0308D5631CF9D000F06B
:107E3C00EBFA401BA042F4D303201AE00D490A6967
:107E4C000D4B16001E400D4808611A420CD1094B0F
:107E5C001B695B030CD5631CF9D000F0D5FA401BF1
:107E6C00A042F4D3032004E0054B5E60012000E047
:107E7C00002070BD00200240FAC30000FBC30000CC
:107E8C008C040020F8B507000C0015001E00144BE4
:107E9C001B78012B22D0124B01221A7000225A603F
:107EAC00FA208000FFF7B8FF00280DD1012F0FD06A
:107EBC002900200005F0C8FAFA208000FFF7ACFF7B
:107ECC00084A5369BB435361054B00221A70F8BD35
:107EDC002A0033002000FFF779FFEDE70220F6E7D8
:107EEC008C0400200020024010B5FA208000FFF71F
:107EFC0093FF064B5969802212060A435A615B694B
:107F0C00002B01DB012010BD0020FCE7002002400B
:107F1C00034A536903438020400218435061704761
:107F2C0000200240044A536904480340C900194325
:107F3C00034B0B43536170470020024007E0FFFFE7
:107F4C000200010070B504000E001E4B1B78012BC3
:107F5C0036D01C4B01221A7000225A60FA20800085
:107F6C00FFF75AFF002827D1042363602368042BF2
:107F7C0014D001235B423360A568A368E2689B18A8
:107F8C00AB4214D960682900FFF7CCFFFA208000BF
:107F9C00FFF742FF002809D10135EEE70430FFF767
:107FAC00B7FFFA208000FFF737FF05E03560064A7F
:107FBC00536902218B435361024B00221A7070BD2E
:107FCC000220FCE78C04002000200240F0B50023C6
:107FDC0059E086685F000324BC40A643CC68BC40D3
:107FEC0034438460446894434E683609012232401D
:107FFC009A402243426056E0DE080836B6003758F5
:10800C0005321A4092000F249440A7430C69944007
:10801C0022003A43325059E0032600E00026A640E5
:10802C0034003C43424E1832920094513768EA4374
:10803C003E00AE434C68E40201D53E002E433C4C5E
:10804C00266067683E0016404C68A40201D53E00CD
:10805C002E43374C66608426A7593E0016404C6868
:10806C00A40301D53E002E43314C8427E6518026D3
:10807C00A65932404C68E40301D52A0032432C4DFA
:10808C0080242A5101330C682200DA404ED00122A0
:10809C009A40250015401442F4D04E680324344015
:1080AC00013C012C95D94C6803222240032A08D0AC
:1080BC00C4685E000322B24094438A68B2402243F3
:1080CC00C2604C6803222240022A95D004685E00EC
:1080DC0003221700B740BC434F683A40B2402243DA
:1080EC0002604C68C02292021442CBD09A08140051
:1080FC001834A4000E4EA75903241C40E4000F268C
:10810C00A640B743A026F605B04287D0094EB04230
:10811C0008D0094EB04207D0084EB04200D17BE7E0
:10812C0005267CE701267AE7022678E7F0BDC046F3
:10813C00001802400004005000080050000C0050D1
:10814C00002A01D0816170478162FCE710B5040000
:10815C00036C9B08094A944663449B004364036880
:10816C00FF20184008381421FDF7B4FF044BA3641A
:10817C001F2318401E3B8340E36410BD0082001097
:10818C008008024042683F231340064A9A18920026
:10819C000265054A4265013B03221A4001239340C4
:1081AC00836570473F8200104009024070B5041E81
:1081BC004DD00568274BE8181421FDF78BFF800084
:1081CC00206425230222E2542B68234A13402B609F
:1081DC0021680A68A368E068034320690343606967
:1081EC000343A0690343E0690343206A0343134339
:1081FC000B602000FFF7AAFFA2688023DB019A42E4
:10820C0018D06168626C3F230B401360A36CE26C66
:10821C005A606368013B032B0FD900232365636508
:10822C00A3650023E36325220121A154013AA35441
:10823C00002070BD00236360E3E72000FFF7A2FF7E
:10824C00236D00221A60636DA26D5A60E9E701206C
:10825C00EFE7C046F8FFFDBF0F80FFFF10B5104AD7
:10826C00136810490B400343136080239B00984212
:10827C0001D0002010BD0C4B1B685800C0184000EA
:10828C000A49FDF727FF0130054B5B695B0503D5F8
:10829C00002803D00138F7E70020EBE70320E9E7DB
:1082AC0000700040FFF9FFFF0C00002040420F005F
:1082BC0070B5002811DB8308134DC0339B005C594B
:1082CC0003221040C000FC3216008640B4438901E2
:1082DC000A40824022435A5170BD0F230340083B91
:1082EC009B0806339B00094A944663445C6803224E
:1082FC001040C000FC3215008540AC4389010A4097
:10830C00824022435A60E7E700E100E000ED00E024
:10831C00013880235B0498420FD2094A5060094807
:10832C00036A1B021B0AC02109060B4303620023CC
:10833C00936007331360002070470120FCE7C046B0
:10834C0010E000E000ED00E010B5FFF7B1FF10BD4C
:10835C00002805DB1F22024001239340014A1360D1
:10836C007047C04600E100E010B5FFF7D1FF10BD2B
:10837C0010B50400114B1978002901D1012010BD52
:10838C00FA208000FDF7A6FE01000D4B1868FDF7E2
:10839C00A1FEFFF7E9FF00280DD1032C01D9012024
:1083AC00EDE70130002221004042FFF7CDFF054BE5
:1083BC001C600020E3E70120E1E7C0460400002038
:1083CC000C0000200800002010B5084A116880231A
:1083DC005B000B4313600220FFF7CAFF041E02D0A0
:1083EC000124200010BDFEF76DFAFAE700200240D0
:1083FC00034B1B78034A11685B1813607047C04627
:10840C0004000020A8040020014B18687047C046E7
:10841C00A804002070B50400FFF7F6FF0500631CEC
:10842C0002D0044B1B78E418FFF7EEFF401BA04270
:10843C00FAD370BD04000020034A136803490B40B3
:10844C00034313607047C04600000140FFF9FFFF73
:10845C0070B5041E00D178E0436A002B07D1426846
:10846C000533FF339A4205D00023C36102E0002399
:10847C00036143610023A3625D33E35C002B5AD09C
:10848C005D230222E2542268136840218B4313605F
:10849C00E368E022D200934254D90022F021090172
:1084AC008B4205D0E021C9008B4201D00023A3628E
:1084BC006368822149000B40A168842000020140BE
:1084CC000B432069022101400B43606901210840E4
:1084DC000343A0698025AD0028400343E56938209B
:1084EC0028400343256A802028400343A06A802546
:1084FC00AD012840256803432B60608B04230340A7
:10850C00656A102028400343656B0820284003430C
:10851C00E068F0252D012840034320681343436095
:10852C002268D3690A480340D361002323665D3374
:10853C00E154002070BD5C330022E2542000FEF7B1
:10854C001DFA9DE780225201A8E70120F2E7C04600
:10855C00FFF7FFFF30B5EFF31084012282F3108890
:10856C0001680B68124D2B400B6084F31088EFF3FD
:10857C00108182F31088026893680E4C234093603C
:10858C0081F31088C36E012B06D08C232022C2509D
:10859C000023C366436730BDEFF3108183F310886B
:1085AC00026813681024A343136081F31088ECE76E
:1085BC00DFFEFFFFFEFFFFEFF8B5040083680269E2
:1085CC00134342691343C269134301680A68A848FC
:1085DC00024013430B6022685368A6490B40E168C4
:1085EC000B435360A1692268A34B9A4201D0236AC2
:1085FC0019439368A14803400B4393602268D36AE4
:10860C000F218B43616A0B43D36223689C4A9342CC
:10861C0022D09C4A934230D09B4A934264D09B4ACE
:10862C00934263D0944A934238D0102292498B42A1
:10863C0066D0E06980231B02984200D1A7E0042A8F
:10864C0000D1F9E000D9D6E0002A00D1DAE0022A04
:10865C0000D0CEE08E48D9E08E4A516D03220A40FC
:10866C00022A33D005D8002A32D0012A32D1033263
:10867C00DCE7032A30D10532D8E7864A516D0C224B
:10868C000A40082A2AD005D8002A29D0042ACDD09D
:10869C001022CBE70C2A25D1043AC7E77D4A526D4C
:1086AC00C02109010A40802109018A4220D007D843
:1086BC00002A1FD08021C9008A421DD10422B5E7AF
:1086CC00C02109018A4219D10822AFE70222ADE785
:1086DC000022ABE71022A9E71022A7E70222A5E7A8
:1086EC000022A3E71022A1E700229FE700229DE7CA
:1086FC0002229BE7002299E7102297E7102295E7C8
:10870C00042A40D007D8002A0CD0022A01D1604D8F
:10871C000EE00120A2E0082A02D180252D0207E0FC
:10872C0001209BE0FFF71AFA0500002D00D186E02E
:10873C00626A594B5200D75A39002800FDF7CAFC1F
:10874C00666873009B1983427BD8330383427AD3C8
:10875C003A00002328000021FDF732FE050E0B0223
:10876C002B4302027008002180185941320000236B
:10877C00FDF726FE494BC218494B9A4265D823682F
:10878C00D86000206AE0FFF7C1F80500CDE7042AA5
:10879C002CD007D8002A09D0022A01D13C4809E084
:1087AC0001205BE0082A05D0012057E0FFF7D6F93D
:1087BC0000284CD0626A384B5200D15AFDF78AFC23
:1087CC00400061684B08C018FDF784FC0200103AA9
:1087DC00344B9A423DD882B20F239A434008083B4F
:1087EC00034013432268D360002037E0FFF78EF874
:1087FC00DEE7012032E0082A02D18020000205E0E9
:10880C0001202BE0FFF7AAF9002824D0626A224B42
:10881C005200D15AFDF75EFC61684B08C018FDF799
:10882C0059FC0200103A1F4B9A4216D823680004D8
:10883C00000CD860002011E0FFF768F8E4E7002096
:10884C000CE001200AE0012008E0012006E00020F5
:10885C0004E0012002E0002000E0012001236A2254
:10886C00A352023AA35200236367A367F8BDC04624
:10887C00F369FFCFFFCFFFFF00800040FFF4FF1133
:10888C00003801400044004000480040004C0040CB
:10889C000024F4000010024038E2000800FDFFFF45
:1088AC00FFFC0F00EFFF0000836A1B0706D5026870
:1088BC0053682C490B40816B0B435360836ADB0775
:1088CC0006D50268536828490B40C16A0B435360B4
:1088DC00836A9B0706D50268536824490B40016BD9
:1088EC000B435360836A5B0706D5026853682049C3
:1088FC000B40416B0B435360836ADB0606D5026861
:10890C0093681C490B40C16B0B439360836A9B06B5
:10891C0006D50268936818490B40016C0B439360B1
:10892C00836A5B060BD50268536814490B40416C93
:10893C000B435360426C80235B039A420AD0836AD8
:10894C001B0606D5026853680D490B40C16C0B43DE
:10895C0053607047026853680A490B40816C0B43A3
:10896C005360ECE7FF7FFFFFFFFFFDFFFFFFFEFF04
:10897C00FFFFFBFFFFEFFFFFFFDFFFFFFFFFEFFF3F
:10898C00FFFFF7FFFFFF9FFFF8B5CE46474680B5C8
:10899C0006000D0017009946089B98463368DC6961
:1089AC002C40641B63425C41BC4233D143460133CF
:1089BC00F4D0FFF729FD4B46C01A40452FD843464B
:1089CC00002B2ED0326813685B07E7D5802DE5D0DD
:1089DC00402DE3D0D3691B0710D4D3691B05DDD51B
:1089EC0080231B0113623000FFF7B4FD902320227B
:1089FC00F2500C3B0022F25403200CE008241462C9
:108A0C003000FFF7A7FD9023F4500C3B0022F254EA
:108A1C00012000E00020C0BCB946B046F8BD0320E0
:108A2C00F9E70320F7E7000030B583B0040090238A
:108A3C000022C250FFF7E8FC050023681B681B07E7
:108A4C0010D423681B685B072BD420238822A350E7
:108A5C000432A3500023E3662367083AA354002092
:108A6C0003B030BD8021234B009303000022890307
:108A7C002000FFF789FF0028E3D0EFF310810123DA
:108A8C0083F310882268136880208343136081F37A
:108A9C00108888232022E250043B0022E2547D38C7
:108AAC00DEE78021134B00932B000022C90320002A
:108ABC00FFF76AFF0028C8D0EFF31080012282F381
:108ACC00108821680B680C4D2B400B6080F31088CC
:108ADC00EFF3108082F3108821688B6893438B60CE
:108AEC0080F310888C231F32E250083B0022E254A2
:108AFC000320B5E7FFFFFF01DFFEFFFF10B5041EEB
:108B0C0035D08823C358002B27D088232422E25049
:108B1C002268136801218B431360A36A002B22D1B6
:108B2C002000FFF749FD012816D02268536811492F
:108B3C000B4053602268936822218B439360226818
:108B4C0093681A390B4393602268136807390B43F7
:108B5C0013602000FFF768FF10BD84330022C2545D
:108B6C00FDF7D4FFD1E72000FFF79EFED8E70120E8
:108B7C00F2E7C046FFB7FFFFF8B50400436E002BC9
:108B8C0005D101336A228352023A8352F8BD02683E
:108B9C0095686D0E07231D409268520F1340084FC5
:108BAC00F85CC000074EF15CFDF71EFB6A23E05237
:108BBC00785DC000715DFDF717FB6823E052E5E7B7
:108BCC0058E2000850E2000870B504008423C35C2E
:108BDC00012B19D084250120605588262423A3510C
:108BEC002268136811688143116080229205134337
:108BFC006266226813602000FFF7BEFF2023A3519A
:108C0C0000236355002070BD0220FCE7F8B504007A
:108C1C000A008423C35C012B1BD0842501206055E2
:108C2C0088262423A35123681F681968814319607F
:108C3C0020688368DB00D908114381602000FFF7AE
:108C4C009BFF23681F602023A35100236355002042
:108C5C00F8BD0220FCE70000F8B504000B008422EC
:108C6C00825C012A1BD08425012060558826242291
:108C7C00A2512268176811688143116022689168BB
:108C8C0008480140194391602000FFF775FF2368E5
:108C9C001F602023A351002363550020F8BD022040
:108CAC00FCE7C046FFFFFFF1014B024A9A60704798
:108CBC0000ED00E00060000810B503000C4A0D49FF
:108CCC00521A0D490968002907D00B490868C318C6
:108CDC00934206D8084A136010BD0749074808603C
:108CEC00F3E703F017FB0C23036001204042F3E78A
:108CFC000090002000040000AC04002070780020DC
:108D0C000120704710B503F005FB1623036001200A
:108D1C00404210BD10B501214942FFF7F3FFFEE7B9
:108D2C0070B50C001600002504E000E000BF2070B8
:108D3C0001350134B542F8DB300070BD01204042F2
:108D4C00704780239B014B600020704701207047C7
:108D5C0000207047806800E00068002802D003897A
:108D6C008B42F9D1704710B58369DB795BB2002B6C
:108D7C0002DB00F083F910BD00F032FAFBE770B5AE
:108D8C0005000C008969002909D04068EFF31086B2
:108D9C0072B600F0E6FB86F310880023A361286806
:108DAC00EFF3108572B6210000F0DBFB85F3108821
:108DBC0070BD70B50400456801892800FFF7CAFF33
:108DCC00002806D128000830210000F0CAFB002042
:108DDC0070BD01204042FBE710B5837A102B07D001
:108DEC00002B02D000F09EF910BD00F017F9FBE744
:108DFC0001204042F8E7030014300A7CF02A08D026
:108E0C008A721A7ECA725B7E0B730B718B7C4B71F0
:108E1C007047703AF4E70000F0B5C64600B50400A0
:108E2C000023984615E043460233DB00E3185F68E5
:108E3C0025E02068EFF3108572B600F083FB85F314
:108E4C001088E0611EE0234803F0E4F801239C46FF
:108E5C00E0444346002BE6DD80BCB846F0BD0C3048
:108E6C00EFF3108672B6290000F07BFB86F31088B6
:108E7C0003E029002000FFF782FF0023E361E36990
:108E8C00002BD6D0E369002BDDD03B683800984727
:108E9C00061EDBD0E56924220021280003F0CEF960
:108EAC00AE6143460233DB00E3181B7AAB7128003A
:108EBC00FFF759FF0028DCD1A98A2000FFF74AFFF1
:108ECC00002802D0037E002BC9D029002000FFF718
:108EDC0056FFD2E7BCD4000870B50C00FFF78BFF2F
:108EEC00051E0DD02000FFF777FF061E0AD128685B
:108EFC004368A16998470023A361E361300070BD0A
:108F0C000426FBE70226F9E770B505000C000B7C84
:108F1C00102B0BD0FFF7E0FF060080235B420343CE
:108F2C002372E379DB0721D5300070BD898AFFF706
:108F3C0011FF061E02D0037E002B05D02100280055
:108F4C00FFF71DFF0026EFE720000A30210010314B
:108F5C00032203F014FA30000C30EFF3108572B6D4
:108F6C00210000F0FEFA85F31088EBE721002800C1
:108F7C00FFF705FFD8E710B50389CB814068FFF7F1
:108F8C00C3FF10BD10B54369002B08D00C30EFF3B4
:108F9C00108472B600F0D6FA84F3108810BD00204D
:108FAC00FCE710B5FFF705FF10BD30B50024002C11
:108FBC0002DD0120404230BDA51CED0045196D6855
:108FCC00002D01D00134F2E70234E40000194160B5
:108FDC00027243720020EEE770B504000E0015001B
:108FEC002022002103F02AF92660656070BD037C05
:108FFC00002B0AD1C3897F2B0AD8828A7F2A0AD8F0
:10900C000B70838A4B700220704701204042FBE7B3
:10901C0001204042F8E701204042F5E770B504001A
:10902C008569037B2B71837C6B71E91DFFF7DFFF77
:10903C00002804DB2023E35C1B18AB71002070BDFF
:10904C0010B50023CB56002B12DB002484728279DE
:10905C00C2720474427402790273427982740A787F
:10906C00C2814B7883827F22934304D1022010BDAE
:10907C0001204042FBE701204042F8E770B50400B4
:10908C0085692E1D2B7903716B794371E91DFFF7EF
:10909C00D7FF002807DBC31CF618E661AB791B1A57
:1090AC002022A354002070BD30B54B1C827AA02A1C
:1090BC0032D00022047CF02C30D015018024644284
:1090CC002C430C70940704D5C37A4B70CB1C047BD7
:1090DC008C70002A04D0427C1A70827C5A70023345
:1090EC00C4895A1C1C70C489FF2C06D99A1C240AEA
:1090FC005C700B78022423430B70848A531C14700D
:10910C00808AFF2806D9931C000A50700A78012027
:10911C0002430A70581A30BD0222CBE701242243C5
:10912C00D2B2CAE770B50400856903792B71437913
:10913C006B71E91DFFF7B8FF002804DB2023E35C0B
:10914C001B18AB71002070BD70B54C1C0B7837220E
:10915C001D0095432A00802D3FD11B097D3A1A40F2
:10916C009D0729D5A02484724C78C472CC1C8E78AF
:10917C000673002A29D0DB0725D5F0230374237846
:10918C004374A31C627882745C1C1A78C2810D78BB
:10919C00AD0704D59C1C5B781B021A43C281631C6F
:1091AC00227882820D78ED0704D5A31C6478240202
:1091BC0022438282581A70BD802585728679C672C8
:1091CC0006790673D5E7A023D8E780230374837947
:1091DC004374437983742300D6E701204042EAE7C5
:1091EC0070B5040085692E1D2B7903716B79437161
:1091FC00E91DFFF7A9FF002807DBC31CF618E66181
:10920C00AB791B1A2022A354002070BD837A102B3B
:10921C001AD0002B1AD0A02B0ED0037CF02B0DD023
:10922C000123C289FF2A0BD801229B18828AFF2AAC
:10923C0008D80120C01870470523F2E70323F0E794
:10924C000222F2E70220F5E70020F4E70220F2E721
:10925C00F0B5D6464F464646C0B591469A46846808
:10926C00C768066945693B689C4601239846634676
:10927C00424693433B603B689C4682239846634638
:10928C00424693433B6053467B604B46002B28D0B1
:10929C00CC466346FB603B689C464B46002B24D077
:1092AC008122634613433B6032680127BA43326024
:1092BC0032687F37BA43326053467360002916D048
:1092CC000800F0603368002913D081221343336007
:1092DC0023681D42FCD06560E0BCBA46B146A84686
:1092EC00F0BD19339C468444D3E70122D9E71830EA
:1092FC00E7E70122EAE7F0B5C56804692E680127A3
:10930C00BE432E602E687F37BE432E606B60002AF2
:10931C001BD01600EE602E68002A19D0832232432F
:10932C002A6022680125AA43226022687F35AA435D
:10933C002260636000290DD00800E06023680029DA
:10934C000AD0812213432360F0BD06001936E1E7F1
:10935C000322E4E71830F0E70122F3E710B50268C6
:10936C00136840210B43136001684B6801221343BF
:10937C004B6001684B68022423434B60C1680B6847
:10938C0093430B6001690B6893430B6003680C33C8
:10939C00C268936003680C330269936010BD0000CF
:1093AC00F0B5DE4657464E464546E0B583B0040060
:1093BC0089469046344B020023CB23C21B681360B2
:1093CC0000254BE0009B237061802571A260E0605A
:1093DC00013180239B00994228DA8B1C7B432B4A5A
:1093EC009342F5D92A4A934220D8019A5208D218AE
:1093FC00EA404046121AD017121842402548381835
:10940C00C61780197040244EB4466344DE179B196E
:10941C0073408600B34658444000C018A36893427A
:10942C00D0D8D5D1E3688342D2D9CBE7009B013B9E
:10943C000093009B002B10DB009B991CC80F40185D
:10944C0040104844FCF746FE0700144B9842EDD9F7
:10945C00134B984201D80021BBE70135022D05DCE6
:10946C000127AF4001971F230093E2E72379022BDA
:10947C0007D0200003B0F0BCBB46B246A946A046BC
:10948C00F0BD01332371F4E78CD40008FFE0F5053F
:10949C000065CD1D00EE85FF005D1EEE3F420F0006
:1094AC00C0E1E40084B010B503AC039104920593C1
:1094BC002379032B0FD003AC2378991C4B1018186D
:1094CC00FCF708FE6388023358432379D84010BC5C
:1094DC0008BC04B0184702222271ECE730B583B007
:1094EC00050000230093013B0193124C02E0124B48
:1094FC009C466444114B9C4219D9680800192900F8
:10950C00FCF7E8FD010080235B02984200D30C4974
:10951C0048080019FCF7DEFD401BC317C018584063
:10952C00019A8242E3D9009401900028DFD100987F
:10953C0003B030BD80D1F008C0F2FCFFFFE0F505B0
:10954C00FFFF000003008268002A08D00068016851
:10955C001960013A9A60002A00D15A6070470020C5
:10956C00FCE783685A1C8260002B05D043681960A5
:10957C00416000230B6070470160F9E770B582B061
:10958C000400080015001E006B46D91D08706368A6
:10959C001A689B889362012300222000FFF758FE73
:1095AC0033002A0000212000FFF752FE63681A687E
:1095BC009B889361002002B070BD70B582B004002E
:1095CC00080015001E006B46D91D087063681A68E8
:1095DC009B889362012300222000FFF739FE3300A1
:1095EC00002229002000FFF733FE63681A689B886D
:1095FC009361002002B070BD10B51830EFF31084E9
:10960C0072B6FFF79FFF84F3108810BD10B53D2391
:10961C00C154436E5B681A689B88936201003D31AC
:10962C00406E02230A00FFF766FE10BD10B58023C2
:10963C005B420B433D2143543E23C254436E5B6853
:10964C001A689B88936201003D31406E0223002210
:10965C00FFF751FE10BD000010B582B004006B4640
:10966C00FF22DA716C23C356002B0ADBE03A1A4056
:10967C00012393400F4880228350BFF34F8FBFF3D9
:10968C006F8F237CDBB2022BFBD8606E01236A4602
:10969C000732FFF773FF6C23E356002B05DB1F2209
:1096AC001A4001239340034A13606B46D87902B0E9
:1096BC0010BDC04600E100E010B582B00400080007
:1096CC006B46DA716C23E356002B0ADB1F221A401F
:1096DC0001239340104980228B50BFF34F8FBFF36F
:1096EC006F8F237CDBB2022BFBD8802149420143D4
:1096FC00C9B2606E01236A460732FFF75EFF6C2326
:10970C00E356002B05DB1F221A4001239340024A2B
:10971C00136002B010BDC04600E100E0F0B5D646C3
:10972C004F464646C0B582B080460E001700C5684D
:10973C0048084019FCF7CEFC441E022C00D202242F
:10974C0080235B029C4200D31D4CA3B2994678083F
:10975C0040193900FCF7BEFC451E022D00D2022533
:10976C0080235B029D4200D3154DABB29A46E2B208
:10977C000C214046FFF7A0FF4B461A0A0D2140462C
:10978C00FFF79AFFEAB20E214046FFF795FF5346CA
:10979C001A0A0F214046FFF78FFF43469968094884
:1097AC002D042D0C01952404240C00943B00320054
:1097BC0002F0CAFB02B0E0BCBA46B146A846F0BD06
:1097CC00FFFF0000D0D40008F0B5C64600B5060077
:1097DC000F0015000C21FFF73FFF04B20D213000E4
:1097EC00FFF73AFF00020443A3B298460E21300063
:1097FC00FFF732FF04B20F213000FFF72DFF0002FC
:10980C000443A4B2F0684346591C4B101818FCF7DB
:10981C0061FC3860F368611C4810C018FCF75AFCF6
:10982C00286080BCB846F0BDF0B5C64600B586B021
:10983C0004000D0000220121FFF73EFFA668002165
:10984C002000FFF709FF0200424B3100180002F024
:10985C007BFB2800FFF742FE0200E06002AD3E4EAB
:10986C0031002800FFF79CFD059B00930299039A99
:10987C00049B3000FFF716FE0600E268A16837482B
:10988C00330002F061FBE6602A7832212000FFF7FA
:10989C0013FF6E88AA7830212000FFF70DFF2B797B
:1098AC001B01320A1A43D2B231212000FFF704FF08
:1098BC00A368984632212000FFF7CEFE0600302127
:1098CC002000FFF7C9FE070031212000FFF7C4FE7E
:1098DC00234D00903B0032004146280002F034FB3F
:1098EC00A56833212000FFF7B7FE02001D4B2900AD
:1098FC00180002F029FB102233212000FFF7DCFEB8
:10990C00A56836212000FFF7A7FE0200164B2900A0
:10991C00180002F019FB012201212000FFF7CCFEF8
:10992C00A56836212000FFF797FE02000F4B290097
:10993C00180002F009FBA56800212000FFF78CFE3F
:10994C0002000B4B2900180002F0FEFA06B080BC96
:10995C00B846F0BDF8D400080024F4001CD500086B
:10996C003CD5000868D5000880D500089CD50008B7
:10997C00C0D50008F0B5D6464F464646C0B582B0B5
:10998C0004000E0015001F000AAB04CB91461B7897
:10999C005BB298468368002B00D1B8E0EFF3108AD5
:1099AC0072B63000FFF7CEFD8AF310882063666133
:1099BC00644B2360644B636067664B46A3666C2301
:1099CC004246E254A168614802F0BEFA0021200030
:1099DC00FFF742FE02005E4E3070A1685D4802F057
:1099EC00B3FA327813000A3BDBB2062B00D991E0B4
:1099FC0000230D2191425B4157490B70102A00D175
:109A0C008FE0564BE36002212000FFF725FE0E226B
:109A1C00024001231A43D2B2AB7B012B00D18FE061
:109A2C0010231A4302212000FFF746FE2A780B214F
:109A3C002000FFF741FE2A7B1A212000FFF73CFE95
:109A4C006A7B1B212000FFF737FE2A7C05212000B2
:109A5C00FFF732FE2A8A120A06212000FFF72CFE9D
:109A6C00AA7C07212000FFF727FE6A8A120A082128
:109A7C002000FFF721FE2A7D09212000FFF71CFEA4
:109A8C00AA6869682000FFF749FE11221621200000
:109A9C00FFF712FE2A000832291D2000FFF794FE62
:109AAC00AB686A68A1682E4802F04EFAA368984623
:109ABC000B212000FFF7D0FD06001A212000FFF734
:109ACC00CBFD07001B212000FFF7C6FD254D0090A4
:109ADC003B0032004146280002F036FAA5681021FE
:109AEC002000FFF7B9FD02001F4B2900180002F0FF
:109AFC002BFA01232374DA2211212000FFF7DCFD5D
:109B0C00002002B0E0BCBA46B146A846F0BD174BE7
:109B1C00836043E7A168164802F016FA0120404220
:109B2C00EFE7703201212000FFF7C6FDA968200085
:109B3C00FFF77AFE102235212000FFF7BDFD62E70A
:109B4C001F336EE7059600089D9B0008ECD50008B6
:109B5C00B1040020FCD50008B0040020005A6202B9
:109B6C0030D6000850D6000878D60008E4D5000896
:109B7C0018D6000810B5037C012B03D0037C022BF4
:109B8C0000D010BD032303741021FFF73FFDF8E74D
:109B9C0070B504002430EFF3108572B6FFF7E1FCCA
:109BAC0085F310886C23E356002B0ADB1F221A4026
:109BBC00012393400C4980228B50BFF34F8FBFF38E
:109BCC006F8F237C012B0AD06C23E356002B05DB13
:109BDC001F221A4001239340034A136070BD2000DA
:109BEC00FFF7C8FFF0E7C04600E100E070477047A0
:109BFC0070B50400037C032B14D0037C042B00D120
:109C0C00C1E0037C052B00D1C8E0237C062B00D1DE
:109C1C00DDE0237C072B00D107E1A168914802F01D
:109C2C0093F970BD3B33C35C426E526811689288E5
:109C3C008A611C221A4212D01A0702D5826C013298
:109C4C008264DA0602D5E26C0132E2645A0702D56C
:109C5C00226D01322265844A1278002A26D13F2BCC
:109C6C000BD95A0602D5626D013262655AB2002ACE
:109C7C0024DB7D4A1278002A24D19A072AD4A26BBD
:109C8C00002A51D09B0636D43C23E35C002B40D0F9
:109C9C00002A76D002232374A36E1A6812699B885B
:109CAC001342BED12000FFF765FFBAE704232374EB
:109CBC002C2216212000FFF7B9FCB2E7A26D01326D
:109CCC00A265D6E7042323740C2217212000FFF78A
:109CDC00ADFCA6E705232374236BD91C1422DA7080
:109CEC00636E5B681A689B889362606E04230A003B
:109CFC00FFF701FB95E704232374032217212000AF
:109D0C00FFF794FCA16B2000FFF771FF0023A36306
:109D1C0087E73C330122E254383B2374F93211219A
:109D2C002000FFF783FC7CE7636A002B0ED13C23F9
:109D3C00E35C002BACD03C230022E254383B237470
:109D4C00DA3211212000FFF771FC6AE72000243081
:109D5C00EFF3108572B6FFF7F5FB85F3108860639F
:109D6C00C11C9523C3708E3B2374636E5B681A68A9
:109D7C009B88936283790433606E0022FFF7BBFAF1
:109D8C004FE7012387E7436E5B681A689B889361F2
:109D9C00032303741021FFF739FC42E701330374EA
:109DAC00026B9379FD2B08D8002B00D12DE70732DD
:109DBC00406E0021FFF79FFA33E7036E0133036611
:109DCC000423037403221621FFF730FC29E7636E8A
:109DDC005B681A689B889361042323740322162101
:109DEC002000FFF723FC6069EFF3108672B6FFF7D3
:109DFC00A9FB050086F31088002812D0200018302B
:109E0C00216BEFF3108672B6FFF7ABFB86F310886D
:109E1C002563236C0133236429002000FFF7E6FE41
:109E2C00FFE6E36D0133E365FBE6636E5B681A687E
:109E3C009B8893616069616BEFF3108572B6FFF7D5
:109E4C0090FB85F31088636BA36300236363636CDF
:109E5C00013363640323237410212000FFF7D6FB26
:109E6C00DFE6C0468CD60008B004002070B52D4B40
:109E7C001E882D4B1D882D4C6C220021200002F0D9
:109E8C00DDF92B4B23800423FF336380053B2373C5
:109E9C00E1235B022361636101235B42238315335E
:109EAC00A383B433E383A83B0122E254103B238603
:109EBC00A0239B006386A03BA3869D3BFF3B3132D6
:109ECC00E2521C4B9E4204D0184B1B79002B22D122
:109EDC0070BD0423FF339D4214D02D0A012DF3D104
:109EEC00124910480B00020031CA31C331CA31C3C8
:109EFC0031CA31C311CA11C302230B710423FF33BE
:109F0C004B80E1E7094C2D320649200002F037FA6C
:109F1C0001232371D8E708480322002102F08EF9AF
:109F2C00D6E7C04600F8010802F80108B404002086
:109F3C00CDCDFFFFCDCD0000B904002070B58AB0A7
:109F4C0006000D0001235B4209931D4B0340C02208
:109F5C00D201934204D85A18C021C9018A4222D88E
:109F6C000222059202320692D80A07905B19DA0A8D
:109F7C00121A08925B0501D001320892FDF734FFEA
:109F8C00041E16D0FDF7B0FF0443079B0D48029446
:109F9C0009990191089A00922A00310001F0D4FF2E
:109FAC0020000AB070BD084802F034F80124644265
:109FBC00F6E709A905A8FDF7C5FF0400E2E7C046CE
:109FCC00FFFFFFF7D0D60008ACD60008F0B5C646A8
:109FDC0000B5804614000731CE08FDF705FF0700D9
:109FEC0000251DE0E9006318625C5878000202430A
:109FFC00987800040243DB781B061A430B1DE0180B
:10A00C00E35C47783F023B4387783F043B43C0788F
:10A01C000006034341440120FDF734FF07000135DE
:10A02C00002F01D1B542DDDBFDF75EFF384380BC6C
:10A03C00B846F0BD10B5802109010E48FFF77EFF30
:10A04C00C0B200280DD10C4A5F210A48FFF7BEFFB1
:10A05C00C0B2002809D109485F2101F075FF00202A
:10A06C0010BD074801F0D6FFEDE7064801F0D2FF1E
:10A07C000120F5E700F80108B404002028D70008F7
:10A08C0008D7000854D70008F0B5C64600B582B012
:10A09C00684801F0BFFF684D6848694B00932B007E
:10A0AC000222022101F050FF664C6748674B009377
:10A0BC0023000122042101F047FF6548654B009302
:10A0CC0023000122052101F03FFF634F6348644BDD
:10A0DC0000933B000122072101F036FF614E300056
:10A0EC0001F098FF6048614B0093230001220C2182
:10A0FC0001F02AFF5E4B5F485F4A009298460422AB
:10A10C00102101F021FF5D485D4B00934346042272
:10A11C00142101F019FF5B4B5B485C4A0092984696
:10A12C000222182101F010FF59485A4B00932300CA
:10A13C0001221A2101F008FF5748584B00932B00BD
:10A14C0002221C2101F000FF5548564B00932B00B6
:10A15C0002221E2101F0F8FE5348544B00932300B9
:10A16C000122202101F0F0FE514801F053FF51482B
:10A17C00514B00933B000122242101F0E5FE3000FD
:10A18C0001F048FF4D484E4B0093434603222C21CF
:10A19C0001F0DAFE4B484C4B00932B00022230218D
:10A1AC0001F0D2FE300001F035FF4848484B0093D7
:10A1BC002B000222322101F0C7FE4648464B009389
:10A1CC002B000222342101F0BFFE300001F022FFEF
:10A1DC004248434B00933B000122422101F0B4FE64
:10A1EC004048414B00932B000222442101F0ACFE6D
:10A1FC003E483F4B009323000122462101F0A4FE70
:10A20C00300001F007FF3B483B4B00932300012239
:10A21C005F2101F099FE3948394B00933B00012234
:10A22C00692101F091FE300001F0F4FE02B080BC17
:10A23C00B846F0BD74D7000888D700088CD7000842
:10A24C00C0D70008D0D70008D4D7000808D8000819
:10A25C0044D8000878D800089CD80008A0D800087A
:10A26C00D4D80008FCD8000800D9000834D900085C
:10A27C0054D9000858D9000890D90008B0D9000862
:10A28C00E8D900080CDA000810DA00084CDA0008EB
:10A29C0060DA000898DA0008B8DA0008F8DA000882
:10A2AC0010DB000850DB000870DB0008ACDB00089A
:10A2BC00C4DB0008C8DB0008F8DB00082CDC000855
:10A2CC0064DC000880DC0008B8DC0008D0DC000886
:10A2DC0000DD000810DD000840DD000850DD00083E
:10A2EC0080DD0008A0DD0008D4DD0008E4DD0008F6
:10A2FC0010DE000814DE000844DE00087CDE0008D6
:10A30C00ACDE0008BFF34F8F034B044ADA60BFF397
:10A31C004F8FC046FDE7C04600ED00E00400FA0593
:10A32C0010B5002209E0064BDB691B06FBD504784F
:10A33C00034B9C62013292B201308A42F3D310BDBE
:10A34C000038014070B586B001AA0F4B70CB70C2BB
:10A35C0011001A680A601B790B7100230DE00B4A7F
:10A36C009A18157829095A0001AC615C81540F21A7
:10A37C0029400132615C815401330B2BEFDD00234A
:10A38C00037606B070BDC046C4DE00089075FF1F92
:10A39C00F0B5DE4657464E464546E0B585B081469B
:10A3AC000E0093469846002B09D02B4B1B689A46FF
:10A3BC002A4F0024002303935346029326E0284B94
:10A3CC001B689A46274FF4E763001B199B00FB1888
:10A3DC005B6826E0019268468088B446DC44E2451E
:10A3EC0003DC614502DD614600E011008DB2A8423C
:10A3FC000BD0801A80B2019D491BC9B24546002D75
:10A40C0020D0921B4244984703900134029B9C42FB
:10A41C001ADA4B46002BD7D063001B199B00FB1894
:10A42C009B68002BF1D0620012199200B918BA5A2D
:10A43C009246498851189642CCD301968E42CADD79
:10A44C000191C8E74246DEE7039805B0F0BCBB4675
:10A45C00B246A946A046F0BD10000020180000200E
:10A46C00200500202405002070B5084D2800FFF7BA
:10A47C0069FF074B0749084C2A00200001F0D4FD66
:10A48C000648210001F060FD70BDC0468805002023
:10A49C00D8DE0008E0DE000824050020F8DE000805
:10A4AC0070B50C000389CB810B7C102B03D18B690D
:10A4BC000733CB6170BD4068FEF79DFCA569043580
:10A4CC002000FEF7A3FE03302D18E561F2E770B50E
:10A4DC0005000C008969002909D04068EFF310864B
:10A4EC0072B6FFF73EF886F310880023A361286844
:10A4FC00EFF3108572B62100FFF733F885F310885F
:10A50C0070BD0000F0B5DE4657464E464546E0B5F8
:10A51C0085B04B48FEF736FD041E1AD0C5691030C5
:10A52C00062221000A3101F02AFF45482100FFF7DD
:10A53C00B7FF2023E35C002B12D0042B02D92B781D
:10A54C00102B21D03F4801F065FD3F482100FFF75B
:10A55C00BEFF05B0F0BCBB46B246A946A046F0BD56
:10A56C00E0693A4D290001F002FF2800FBF7A0FD3D
:10A57C002023E05432482100FEF7FDFC344A1179C7
:10A58C007F230B401371E4E76F78AB781B021F43FA
:10A59C0001F0D8FB060039002E48FBF725FE010020
:10A5AC003000FBF721FEEB782A799146284A127B82
:10A5BC0090462022A25CAA18002111706A1D9246B6
:10A5CC000604360C1D00C3462348029242460192F3
:10A5DC004A4600923A00310001F0B6FC454504D8D9
:10A5EC004D46C14500D94546EDB2AB4506D0184A9B
:10A5FC00117980235B420B431371A3E71348514637
:10A60C0001F024FE0028F2D0FDF7FEFE0500FDF758
:10A61C00FBFE401BB042FAD3E0690C4D290001F05F
:10A62C00A6FE2800FBF744FD2023E054044821003B
:10A63C00FEF7A1FC064A11797F230B40137188E7C2
:10A64C006000002044DF0008E00500202405002005
:10A65C00B4040020FFFFFF7F08DF0008F0B5D646EA
:10A66C004F464646C0B582B07748FEF78BFC041EB9
:10A67C002FD0764B1B795BB2002B30DBC5692A7867
:10A68C000023EB5698467F2313402B701030062284
:10A69C0021000A3101F073FE6B482100FFF700FF27
:10A6AC002B78002B03D12022A25C042A21D0202B52
:10A6BC004CD0012B04D11F33E35C042B00D19BE065
:10A6CC002023E15C624801F03FFC62482100FFF767
:10A6DC00FEFE02B0E0BCBA46B146A846F0BD20234F
:10A6EC00C15C5D4801F030FC5A482100FFF7EFFED9
:10A6FC00EFE76F78AB781B021F43ED78FB2D00DD85
:10A70C00FB25EBB2994600234A4639000020FFF79F
:10A71C003FFE061E0BD02A005048390001F014FCF5
:10A72C00E3691E704B4601332022A3547FE0E0699D
:10A73C0001302A004549791801F021FE00234A46D0
:10A74C0039000120FFF724FE0600E4E72022A75C75
:10A75C00032FAED96E78AB781B021E43033FFFB2BA
:10A76C00EB1C9A463A0031000020FFF711FE81469F
:10A77C00002837D03A484B463A00310001F0E4FB50
:10A78C0020230122E254E3694A461A704FE00192F9
:10A79C006B469B88F019824203DC0A00814200DD83
:10A7AC00020091B28B420BD0019B1B041B0C991B1A
:10A7BC0051441204120CD21A2448181801F0DFFD6F
:10A7CC000135284B1B68AB420EDDAB00264A9918AD
:10A7DC00D25A49885118B242D9D801968E42D7DD47
:10A7EC000191D5E70025ECE753463A0031000120F2
:10A7FC00FFF7CEFD8146BDE76E78AB781B021E439A
:10A80C00ED78FB2D00DDFB25EFB2E0690130174937
:10A81C0071182A0001F0B3FD15482A00310001F02F
:10A82C0093FBE36900221A7001372023E754434657
:10A83C00002B04DB04482100FEF79DFB49E705488B
:10A84C002100FFF744FE44E744000020B40400203C
:10A85C00CCDF0008E005002058DF000874DF00089A
:10A86C008CDF00081400002024000020C0E2000847
:10A87C00B0DF000870B54648FEF784FB041E27D0F5
:10A88C00C5692A780026AE577F2313402B701030F1
:10A89C00062221000A3101F072FD3D482100FFF72C
:10A8AC00FFFD2B782F2B14D0002B03D12022A25C80
:10A8BC00062A30D0202B02D1E15C052945D8202373
:10A8CC00E15C344801F040FB33482100FFF7FFFD09
:10A8DC0070BD2022A25C092AE6D16878AB781B02F5
:10A8EC001843EB781B0418432B791B061843697922
:10A8FC00AB791B021943EB791B0419432B7A1B060A
:10A90C001943FFF71BFB20230122E254E369421E8B
:10A91C00904118702FE06978AB781B021943EB78E3
:10A92C001B0419432B791B0619436A79FB2A00DD9A
:10A93C00FB22D5B2E069013001F021FDE369002270
:10A94C001A7001352023E55415E06878AB781B02AA
:10A95C001843EB781B0418432B791B061843053955
:10A96C00C9B26A1DFFF732FB20230122E254E369CE
:10A97C00421E90411870002E04DB05482100FEF7A2
:10A98C00FAFAA5E704482100FFF7A1FDA0E7C046AD
:10A99C0028000020E8DF0008E005002010B50C4876
:10A9AC00FEF7FFFA0B48FEF7FCFA0B48FEF7F9FA34
:10A9BC00FFF75AFD094B1C68094B1B68E418094B3F
:10A9CC001B68E418FDF720FD201801F08DF910BD6F
:10A9DC004400002028000020600000209075FF1F1C
:10A9EC009475FF1F9875FF1F10B50E4BDB79002B6C
:10A9FC000AD10C4B5B79002B0CD1FFF783FDFFF7D1
:10AA0C002DFEFFF737FF10BD064B0022DA71FFF762
:10AA1C0011FBEEE7044A1343802292051360FFF703
:10AA2C0071FCC046B40400200000CDCDF8B50D007B
:10AA3C001400174B24229B5C002B0AD0EFF31087D9
:10AA4C0072B61448FEF77EFD060087F310880028C6
:10AA5C0005D1A1B22800FFF763FC2000F8BDFA2C49
:10AA6C0000DDFA240A4B1B7B337100237371A31C8A
:10AA7C00B3714023F371373B33723000093022003D
:10AA8C00290001F07CFC04483100FFF781F8E4E771
:10AA9C00B4040020540700200006002070B582B0DA
:10AAAC00234A24492448FEF797FA00240DE0A30119
:10AABC001B199900214BC918EFF3108572B61C486D
:10AACC00FEF74FFD85F3108801346D2CEFDD00246B
:10AADC000DE0E3001B199900194BC918EFF3108511
:10AAEC0072B61448FEF73DFD85F310880134052C31
:10AAFC00EFDD144B144C0E4D144E06220192144AE9
:10AB0C000092220029003000FEF734FF22000C3A9C
:10AB1C002378127A08483100FEF747FA0D4B0E4A9B
:10AB2C000E4807210091290000F052FE02B070BDC2
:10AB3C005407002070060020E0050020600700206C
:10AB4C007C060020B0000020C0040020000600207D
:10AB5C00D4000020A00000207C000020A8050020CC
:10AB6C00F0B585B0FDF750FC1F4B1B68C01AFA23DB
:10AB7C005B01984201D805B0F0BDFDF745FC1A4BBE
:10AB8C0018601A4C217CC9B2A36E1A6812699D8890
:10AB9C0015406B425D41236AE26A1548009501F04D
:10ABAC00D3F9216CA26CE36CE56D666C676DA46DDA
:10ABBC001048039402970196009501F0C5F90E4CCC
:10ABCC002179236B1A6812699B8813405A425341AE
:10ABDC00DBB262690948A56A0295656A0195246A27
:10ABEC00009401F0B1F9C6E7A4050020000600208E
:10ABFC0004E0000834E00008A805002084E0000808
:10AC0C0010B53A4C3A4B1A689B889361394B1A68C9
:10AC1C009B889361384801F0FDF9384A384B226023
:10AC2C006360002202210920FDF78EFB0022022125
:10AC3C000A20FDF789FB002202210620FDF784FB88
:10AC4C00002202210720FDF77FFB2E48FEF786FB32
:10AC5C002D48FEF783FBFFF709F900F0B1F8FFF779
:10AC6C001DFFFFF79BFE294B1B79002B18D02849A1
:10AC7C00284801F069F900F051F91D4B1A689B88BE
:10AC8C0093620920FDF764FB0A20FDF761FB0620A7
:10AC9C00FDF75EFB0720FDF75BFBFFF7F5F90DE019
:10ACAC001D49E5E71D4B802292019A62226861687A
:10ACBC00124B9A4215D1124B994212D1FFF750FF09
:10ACCC0000F03EF91648FEF7A7F8FFF78DFE0F4B84
:10ACDC0069229B5C002BE5D0104B802292019A617B
:10ACEC00E4E7104801F096F9FEE7C04670790020C1
:10ACFC00E4000020DC000020ECE0000834341212E8
:10AD0C00CDCDABABB00000207C000020B404002003
:10AD1C00D0E0000808E10008E0E00008000800505E
:10AD2C00E00500201CE1000810B5034B08221A6155
:10AD3C000248FEF71FFF10BD00180240000600205D
:10AD4C0010B5044B802212011A61034800F0A2FDD9
:10AD5C0010BDC04600180240A805002010B5044BD9
:10AD6C009A685B6953600348FEF742FF10BDC0460A
:10AD7C00B00000200006002010B5044B9A685B69F7
:10AD8C005360034800F092FD10BDC0467C000020CB
:10AD9C00A805002010B50100074B1A7B02712E226A
:10ADAC009A5C4271C27940200243CA711B8E0B72AD
:10ADBC0002484368984710BDB404002000060020E8
:10ADCC00F0B5CE46474680B583B000230193384892
:10ADDC0001F020F9374C2368A2889A62364D2B6813
:10ADEC00AA889A620420FDF715FB2B68AA889A6141
:10ADFC000420FDF70FFB2368A2889A612F4E0123D4
:10AE0C00002200213000FEF723FA2368A2889A6200
:10AE1C00C023DB019946019301AB9846284D294884
:10AE2C002A00294900F026FF0100019A274F38001B
:10AE3C0001F08AF8019B002229003000FEF708FA85
:10AE4C004B460193224843462A00224900F012FF48
:10AE5C000100019A380001F077F8019B00222900CB
:10AE6C003000FEF7F5F94B4601931B4843462A0088
:10AE7C001A4900F0FFFE0100019A380001F064F855
:10AE8C00019B002229003000FEF7E2F92368A2881A
:10AE9C009A610D23002200213000FEF7D9F91048E9
:10AEAC0001F0B8F803B0C0BCB946B046F0BDC0461E
:10AEBC002CE1000898000020A80000207C00002055
:10AECC0060070020F0FD00086F0C000044E1000852
:10AEDC0028E90008C61400002CE30008FA0500005D
:10AEEC005CE1000870B50B4B42229B5C002B01D13E
:10AEFC00002070BD074C4426A15B4625625D0648C8
:10AF0C0001F022F8A05B00F01BF9605D00F052F933
:10AF1C00EEE7C046B40400206CE1000810B500F068
:10AF2C00EBFA0548042100F0F5FB0100034B180077
:10AF3C0001F00AF810BDC046A805002098E10008F1
:10AF4C0070B5494B1B68002B42D1484B5F229B5C70
:10AF5C00002B1ED0FF2B02D0444B00219954424BA6
:10AF6C0001221A60424B1B78002B00D070BD404B65
:10AF7C001A70404C12321621200000F0F9FB1021FF
:10AF8C00200000F0C7FB02221121200000F0F0FB92
:10AF9C00ECE7EFF3108472B63748FEF7D3FA0100F2
:10AFAC0084F31088002807D0EFF3108472B633486E
:10AFBC00FEF7D7FA84F310882D4B1B78002BD5D0D5
:10AFCC002B4B00221A702B48112100F0D1FBCDE73E
:10AFDC00EFF3108572B62848FEF7B4FA040085F337
:10AFEC0010880028C2D0204B1B68012B1FD0C179C0
:10AFFC000E090F250D40B31EDBB2012B03D8204BDD
:10B00C001B78AB4229D01E4B1A781E4800F09CFFCF
:10B01C00E5712000FFF7BEFE032E21D0184A1378ED
:10B02C000133DBB213700F210B4013709EE7C37911
:10B03C00102B09D0EFF3108572B610482100FEF7E3
:10B04C0090FA85F3108891E7074B02221A600C4B9B
:10B05C00013A1A70FFF79EFE88E7FFF79BFEDBE7CD
:10B06C00014B00221A60D9E71C770020B4040020A1
:10B07C0018770020A8050020B405002054070020F4
:10B08C0020770020B0E1000830B585B00C000179C4
:10B09C00006801256D4202959BB201930092012339
:10B0AC002200FBF7AFFF05B030BD00B583B0130035
:10B0BC006A46073213700123FFF7E6FF03B000BDA9
:10B0CC0030B585B00C000179006801256D42029500
:10B0DC009BB20193009201232200FCF75FF805B0AC
:10B0EC0030BD10B582B06B46DC1DFF232370FE3BD8
:10B0FC002200FFF7E5FF207802B010BD10B5002448
:10B10C0008E00C4B6200D15C9B185A780A48FFF798
:10B11C00CCFF0134072CF4D9002408E0074B620063
:10B12C00D15C9B185A780448FFF7BFFF0134062CFA
:10B13C00F4D910BD600A0108EC000020700A010867
:10B14C0070B505001A4C0122FF212000FFF7ADFF5E
:10B15C0013212000FFF7C5FF01239843C2B213212E
:10B16C002000FFF7A2FF45212000FFF7BAFFAB0A32
:10B17C003F2102008A431A43D2B206312000FFF766
:10B18C0094FFAA08D2B210212000FFF78EFF0421F1
:10B19C002000FFF7A6FF03232B40032102008A4364
:10B1AC001A43D2B201312000FFF77FFF70BDC046B9
:10B1BC00EC00002070B50500154C0122FF21200089
:10B1CC00FFF773FF13212000FFF78BFF0423984335
:10B1DC00C2B213212000FFF768FF14212000FFF7F3
:10B1EC0080FF1F22024014212000FFF75EFF2A007F
:10B1FC0000212000FFF759FF45212000FFF771FFC8
:10B20C003F22024045212000FFF74FFF70BDC04692
:10B21C00EC000020F8B503281AD007D8012835D047
:10B22C00022809D14F254126652714E0042803D1B3
:10B23C0071253F2642270EE0164C0022FF212000EC
:10B24C00FFF733FF1022C7212000FFF72EFF1CE071
:10B25C006625412652270F4C0022FF212000FFF7C4
:10B26C0024FF4022C7212000FFF71FFF3A00CC210A
:10B27C002000FFF71AFF3200CD212000FFF715FF49
:10B28C002A00CE212000FFF710FFF8BD54254126DF
:10B29C005E27E0E7EC00002070B5043004010823C1
:10B2AC001C4364B2E4B2104D0022FF212800FFF7CA
:10B2BC00FCFE00227C212800FFF7F7FE02227D21F4
:10B2CC002800FFF7F2FE03227C212800FFF7EDFE99
:10B2DC0022007D212800FFF7E8FE22007D212800B6
:10B2EC00FFF7E3FE70BDC046EC00002070B5040013
:10B2FC00114D0022FF212800FFF7D7FE00227C21F0
:10B30C002800FFF7D2FE04227D212800FFF7CDFE96
:10B31C0009227C212800FFF7C8FE0234E2B2120198
:10B32C00D2B27D212800FFF7C0FE00227D2128002B
:10B33C00FFF7BBFE70BDC046EC00002070B50128C5
:10B34C000CD006DC831C35D0013036D12A251C26C6
:10B35C0006E0022834D10C25282601E016252426E7
:10B36C00194C0022FF212000FFF79FFE00227C21B8
:10B37C002000FFF79AFE04227D212000FFF795FEA6
:10B38C0007227C212000FFF790FE20227D21200047
:10B39C00FFF78BFE32007D212000FFF786FE2A008E
:10B3AC007D212000FFF781FE06227D212000FFF782
:10B3BC007CFE70BD34251826D2E720252026CFE749
:10B3CC0020252026CCE7C046EC00002070B5830772
:10B3DC002AD18B072BD184088D08164E0022FF2111
:10B3EC003000FFF762FE0422E0213000FFF75DFE23
:10B3FC00E2B25A213000FFF758FEEAB25B2130006E
:10B40C00FFF753FE240A03222240AD0904232B40EC
:10B41C001A435C213000FFF748FE0022E021300087
:10B42C00FFF743FE002070BD01204042FBE70120E6
:10B43C004042F8E7EC000020F0B5C64600B582B0FB
:10B44C0001900F0091074ED199074FD194089E0897
:10B45C00284D0022FF212800FFF727FE0422E021BF
:10B46C002800FFF722FEE2B251212800FFF71DFE53
:10B47C00F2B252212800FFF718FE6B461A795321BD
:10B48C002800FFF712FEFAB254212800FFF70DFE38
:10B49C007308DBB27F22904693433F090F3A3A4040
:10B4AC001A4352B2610908230B401A4352B2019B52
:10B4BC001E0A072333401A43D2B255212800FFF746
:10B4CC00F4FDA208D2B243469A4357212800FFF755
:10B4DC00ECFD0022E0212800FFF7E7FD002002B080
:10B4EC0080BCB846F0BD01204042F8E70120404244
:10B4FC00F5E7C046EC00002070B5564C80256D0178
:10B50C00A5620A20FCF786FFA5610A20FCF782FFE2
:10B51C00514C0122FF212000FFF7C7FD8022122190
:10B52C002000FFF7C2FD3220FCF774FF1C21200025
:10B53C00FFF7D7FD06001D212000FFF7D2FD05B255
:10B54C0036023543ADB20A212000FFF7CAFD0600D2
:10B55C000B212000FFF7C5FD04B236023443A4B220
:10B56C003E482200290000F0EFFC3D4B9D4204D1E7
:10B57C003C4B9C4201D100240EE03B4800F04AFDBC
:10B58C00012040425AE0394B6200D15C9B185A783A
:10B59C003148FFF78AFD0134B02CF4D9FFF7AEFD2A
:10B5AC009623C8229B00920000210020FFF744FF45
:10B5BC002F4EB18E708EFFF709FF274C0022FF2112
:10B5CC002000FFF772FDD3212000FFF78AFD010058
:10B5DC00284D280000F0B8FC0822D3212000FFF7EA
:10B5EC0064FDD3212000FFF77CFD0100280000F052
:10B5FC00ABFC0122FF212000FFF757FD0022112197
:10B60C002000FFF752FDD0222A212000FFF74DFD2C
:10B61C00F2222B212000FFF748FD0320FFF7FAFD53
:10B62C000020FFF739FE0020FFF760FE0020FFF737
:10B63C0085FE4223F35C002B01D1002070BD0C4C25
:10B64C004423E05AFFF77CFD4623E05CFFF7B2FD94
:10B65C000020F3E700040050EC000020D4E10008C7
:10B66C00A27F000042260000F0E10008800A0108D9
:10B67C00B404002008E2000870B582B00400080091
:10B68C0015001E006B46D91D087063681A689B88EC
:10B69C009362012300222000FDF7DAFD33002A001B
:10B6AC0000212000FDF7D4FD63681A689B88936124
:10B6BC00002002B070BD70B582B004000800150007
:10B6CC001E006B46D91D087063681A689B889362CC
:10B6DC00012300222000FDF7BBFD330000222900CE
:10B6EC002000FDF7B5FD63681A689B889361002004
:10B6FC0002B070BD10B50177C36A5B681A689B888D
:10B70C00936201001C31C06A02230A00FDF7F3FDAD
:10B71C0010BD000010B582B004006B46FF22DA7138
:10B72C003423C356002B0ADBE03A1A400123934022
:10B73C000E4880228350BFF34F8FBFF36F8F237956
:10B74C00012BFCD8E06A01236A460732FFF794FF0D
:10B75C003423E356002B05DB1F221A4001239340B0
:10B76C00024A13606B46D87902B010BD00E100E0CC
:10B77C0010B582B0040008006B46DA713423E3562E
:10B78C00002B0ADB1F221A40012393400F49802211
:10B79C008B50BFF34F8FBFF36F8F2379012BFCD8E6
:10B7AC00802149420143C9B2E06A01236A4607324B
:10B7BC00FFF781FF3423E356002B05DB1F221A40D1
:10B7CC0001239340014A136002B010BD00E100E078
:10B7DC00F8B5CE46474680B506000C0017001D0094
:10B7EC0008AB1B785BB298460368002B15D0EFF3BF
:10B7FC00108972B62000FDF7A5FE89F31088B061A0
:10B80C00B460F762356334234246F25431681D4804
:10B81C0000F09AFB0025FF2404E01B4B0360E6E7D5
:10B82C0000251C0000213000FFF774FF03000138D5
:10B83C00C0B2FD28F4D89C4201D00025F1E76B1C66
:10B84C00DBB20A2D02D81D002300EAE731680F484D
:10B85C00220000F079FB132216213000FFF788FF3D
:10B86C00346810213000FFF755FF0200084B21000F
:10B87C00180000F069FB01233371C0BCB946B04617
:10B88C00F8BDC046ECD5000818E2000820E200081C
:10B89C0078D6000810B50379012B00D010BD013308
:10B8AC0003711021FFF726FFF8E7000070B50400C4
:10B8BC000379022B0BD0032B33D0042B4ED02379DE
:10B8CC00052B57D02168404800F03EFB70BD437FEC
:10B8DC00C26A5268116892888A611A0702D5426A54
:10B8EC00013242629B070BD401232371236B1A682C
:10B8FC0012699B881342E9D12000FFF7CBFFE5E7E3
:10B90C000323237116332377E36A5B681A689B88D9
:10B91C00936221001C31E06A03230A00FDF7EBFC63
:10B92C00D4E7C36A5B681A689B889361437F82691A
:10B93C00023393718369827FDA71042303711033AC
:10B94C000377C36A5B681A689B88936201001C3199
:10B95C00C06A01230022FDF7CEFCB7E70133037167
:10B96C00437F002BABD082690932C06A0021FDF7FE
:10B97C00C2FCABE7E36A5B681A689B889361A068BA
:10B98C00EFF3108672B6FDF7DDFD050086F3108827
:10B99C00002814D020000C30A169EFF3108672B689
:10B9AC00FDF7DFFD86F31088A561236A013323625E
:10B9BC000223237110212000FFF79CFE86E7A36A67
:10B9CC000133A362F4E7C0468CD60008F8B5DE4616
:10B9DC0057464E464546E0B505008A4687185344FF
:10B9EC009B4608007CE0FF23B94200D381E0FF2B8B
:10B9FC0000D07EE04C1C0B785919A94200D21EE1F4
:10BA0C000D002100F0E7A34500D21BE14B19BB420E
:10BA1C0000D01AE12A0000F0B2FC20005346C01AF4
:10BA2C00F0BCBB46B246A946A046F8BD9C4645466E
:10BA3C00BD4200D3A4E06B1C98462A786346D31809
:10BA4C00634500D207E1FF2AF0D09C46454697E0BB
:10BA5C000378417809020B43817809040B43C178C0
:10BA6C0009060B43190CA170190EE17099B22370E1
:10BA7C00090A6170231D011DA9E00C781C700133AB
:10BA8C0001318342F9D383452AD101204042C7E7D3
:10BA9C000C784E78360234438E7836043443CE78A4
:10BAAC0036063443260C9E70260EDE70A6B21C7031
:10BABC00360A5E700C794E79360234438E79360430
:10BACC003443CE7936063443260C9E71260EDE7135
