:020000040800F2
:106000000090002075E10008ED780008FD78000898
:106010000000000000000000000000000000000080
:106020000000000000000000000000000D790008E2
:1060300000000000000000000F790008117900083E
:10604000C5E10008C5E10008C5E10008C5E1000898
:10605000C5E10008C5E1000819790008C5E100089C
:10606000C5E100082579000835790008C5E1000878
:10607000C5E1000845790008C5E10008C5E1000850
:10608000C5E10008C5E10008C5E10008C5E1000858
:10609000C5E10008C5E10008C5E10008C5E1000848
:1060A000C5E10008C5E10008C5E10008C5E1000838
:0C60B000C5E10008C5E10008C5E10008DA
:1060BC0010B5064C2378002B07D1054B002B02D0D2
:1060CC00044800E000BF0123237010BD3C010020F8
:1060DC000000000048F90008044B10B5002B03D059
:1060EC000349044800E000BF10BDC046000000009A
:1060FC004001002048F900080023C25C0133002A4B
:10610C00FBD1581E7047000003B47146490840008B
:10611C004900095E49008E4403BC704700224308C5
:10612C008B4274D303098B425FD3030A8B4244D353
:10613C00030B8B4228D3030C8B420DD3FF22090295
:10614C0012BA030C8B4202D31212090265D0030B54
:10615C008B4219D300E0090AC30B8B4201D3CB034A
:10616C00C01A5241830B8B4201D38B03C01A52418C
:10617C00430B8B4201D34B03C01A5241030B8B428E
:10618C0001D30B03C01A5241C30A8B4201D3CB0279
:10619C00C01A5241830A8B4201D38B02C01A52415E
:1061AC00430A8B4201D34B02C01A5241030A8B4261
:1061BC0001D30B02C01A5241CDD2C3098B4201D379
:1061CC00CB01C01A524183098B4201D38B01C01AF7
:1061DC00524143098B4201D34B01C01A524103096E
:1061EC008B4201D30B01C01A5241C3088B4201D31D
:1061FC00CB00C01A524183088B4201D38B00C01ACA
:10620C00524143088B4201D34B00C01A5241411AF0
:10621C0000D20146524110467047FFE701B50020FD
:10622C0000F0F0F802BDC0460029F7D076E77047C1
:10623C0003460B437FD4002243088B4274D30309DB
:10624C008B425FD3030A8B4244D3030B8B4228D37C
:10625C00030C8B420DD3FF22090212BA030C8B42A2
:10626C0002D31212090265D0030B8B4219D300E042
:10627C00090AC30B8B4201D3CB03C01A5241830BC7
:10628C008B4201D38B03C01A5241430B8B4201D377
:10629C004B03C01A5241030B8B4201D30B03C01AA0
:1062AC005241C30A8B4201D3CB02C01A5241830A1A
:1062BC008B4201D38B02C01A5241430A8B4201D349
:1062CC004B02C01A5241030A8B4201D30B02C01A73
:1062DC005241CDD2C3098B4201D3CB01C01A5241DA
:1062EC0083098B4201D38B01C01A524143098B4263
:1062FC0001D34B01C01A524103098B4201D30B014C
:10630C00C01A5241C3088B4201D3CB00C01A524170
:10631C0083088B4201D38B00C01A524143088B4235
:10632C0001D34B00C01A5241411A00D201465241CE
:10633C00104670475DE0CA0F00D04942031000D3ED
:10634C004042534000229C4603098B422DD3030A42
:10635C008B4212D3FC22890112BA030A8B420CD352
:10636C00890192118B4208D3890192118B4204D37B
:10637C0089013AD0921100E08909C3098B4201D3FB
:10638C00CB01C01A524183098B4201D38B01C01A35
:10639C00524143098B4201D34B01C01A52410309AC
:1063AC008B4201D30B01C01A5241C3088B4201D35B
:1063BC00CB00C01A524183088B4201D38B00C01A08
:1063CC005241D9D243088B4201D34B00C01A5241DF
:1063DC00411A00D20146634652415B10104601D36C
:1063EC004042002B00D54942704763465B1000D3F6
:1063FC00404201B5002000F005F802BD0029F8D09C
:10640C0016E770477047C046844608006146FFE7B0
:10641C001FB500F087FC002801D40021C8421FBD25
:10642C0010B500F013FC4042013010BD10B500F067
:10643C0079FC002801DB002010BD012010BDC046F6
:10644C0010B500F06FFC002801DD002010BD01200C
:10645C0010BDC04610B500F01FFC002801DC002068
:10646C0010BD012010BDC04610B500F015FC002871
:10647C0001DA002010BD012010BDC046002B11D147
:10648C00002A0FD1002900D1002802D00021C943D5
:10649C00080007B4024802A14018029003BDC04690
:1064AC0065FFFFFF03B4684601B5029800F04CF895
:1064BC00019B9E4602B00CBC7047C046F0B5CE4660
:1064CC00474680B5070099463B0C9C4613041B0CB1
:1064DC001D000E0061460004140C000C45434B4398
:1064EC0060436143C0182C0C20188C46834203D99E
:1064FC0080235B029846C444494679437243030C9B
:10650C0063442D042D0CC918000440198918C0BC13
:10651C00B946B046F0BDC0469E2110B5C905041C55
:10652C00FFF7A2FF002803D1201C00F013FF10BDC1
:10653C009E21201CC90500F05FFD00F00BFF80239D
:10654C001B069C466044F2E7F0B557464E4645465E
:10655C00DE46E0B504000D009246994683B08B42AE
:10656C0030D82DD04946504600F080FF2900060057
:10657C00200000F07BFF331A9846203B9B4633D417
:10658C005A465346934042461F00534693401E00C2
:10659C00AF423AD8AF4200D178E05B46A41BBD4174
:1065AC00002B00DA75E000220023009201930123F6
:1065BC005A4693400193012342469340009328E0AE
:1065CC008242CFD900220023009201930C9B002B16
:1065DC0001D01C605D600098019903B0F0BCBB4613
:1065EC00B246A946A046F0BD424620239B1A52460D
:1065FC00DA40414613004A468A40170042461F4380
:10660C00534693401E00AF42C4D90022002300928F
:10661C0001934346002BD9D0FB0772081A43464618
:10662C007B080EE0AB4201D1A2420CD8A41A9D41CA
:10663C00012024196D410021013E24184D41002EEA
:10664C0006D0AB42EED9013E24196D41002EF8D193
:10665C00009801995B4600196941002B24DB2B0043
:10666C005A464446D3402A00E2401C005B461500C3
:10667C00002B2ADB26009E40330026004746BE40F6
:10668C003200801A9941009001919FE7A342BCD837
:10669C0083E74246202300219B1A0022009101929D
:1066AC000122DA40019286E7424620239B1A2A00F7
:1066BC0046469A402300F340444613432A00E240E6
:1066CC001C005B461500002BD4DA42462F00202319
:1066DC00260097409B1ADE403B003343CDE7C04673
:1066EC00F0B5C64643025B0A4E0245004F00DA0085
:1066FC00C40F9C46700A904600B52D0E3F0EC90F74
:10670C00B6098C424BD0EA1B002A36DD002F61D033
:10671C00FF2D00D1ADE08023DB041E431B2A00DCDF
:10672C00D3E001204346181A430100D48CE08001C9
:10673C008709380000F07CFE05388740854200DC74
:10674C00B6E02D1AB3483840430704D00F2303405A
:10675C00042B00D00430430100D478E06A1CFE2DD9
:10676C0065D08001430A9C46D2B26346D0051843DB
:10677C00E407204380BCB846F0BD002A35D07A1B14
:10678C00002D00D0AFE04346002B00D1A7E0531EF4
:10679C00012A00D12FE1FF2A69D01A00AAE0E91BD7
:1067AC00002970DD002F37D0FF2D62D08023DB0451
:1067BC001E431B2900DCB0E001204044430143D5BB
:1067CC000135FF2D33D00123934A0340400810407C
:1067DC001843B9E7002E00D183E0511E012A00D1E5
:1067EC00D8E0FF2A45D00A0098E7FE276A1C17421A
:1067FC0000D086E0002D00D0B7E04346002B00D13E
:10680C00F3E00022002EB0D0981B430100D4FAE034
:10681C0043460C00F01A97E7002E00D1C8E04A1E40
:10682C00012900D1AEE0FF2923D01100C1E70023DC
:10683C00FF229C4699E7FE216A1C114277D0FF2A61
:10684C00F5D0150046447008430700D07EE7C30816
:10685C00FF2D0ED05B025B0A9C46EAB285E7002E48
:10686C0007D08022D203134203D0104201D10C0076
:10687C000300002BDBD08020C00318434002430AE6
:10688C009C46FF2271E70029D5D07A1B002D60D1E0
:10689C004346002B24D0531E012A73D0FF2AE7D085
:1068AC001A001B2A00DC85E001203D00801985E7D9
:1068BC0020233A00451B38000135EA405D1BA840F7
:1068CC00431E9841002510433EE7202330009B1ABD
:1068DC0031009840D140431E9841084322E70C00F8
:1068EC0003001500B4E7FF2FC1D080234046DB0422
:1068FC00184380461B2A51DD01200C003D00301A44
:10690C0012E743469F1B7B012BD4002F00D010E7CE
:10691C000023002400229C4627E72023320030006D
:10692C00CA40591A8840431E9841104345E7002D30
:10693C004AD14346002B63D00022002E00D114E72D
:10694C0030004044430100D47EE7324B01351840FF
:10695C007AE7FF2F8CD080234146DB04194388460D
:10696C009FE743460C00F71AE3E64246002A00D0A4
:10697C0075E7002E00D07AE78023DB0300249C46C9
:10698C00FF22F2E6300040440125430100D45BE7CE
:10699C00022518E743460125981BC5E620234446EB
:1069AC004046D4409A1A9040431E98412043A4E795
:1069BC000D004DE7202341464046D1409A1A9040A5
:1069CC00431E9841084370E74246002A00D14FE726
:1069DC00002E00D14DE78022D203134200D148E7AC
:1069EC00104200D045E7030043E7002E90D00C0086
:1069FC0084460022B9E643460C00F01A013593E6B2
:106A0C0084460022B1E6002800D01DE700230024B4
:106A1C009C46AAE6FFFFFFFBFFFFFF7DF0B54F464C
:106A2C004646D6464502C0B547000C1C6D0A3F0EC3
:106A3C00C60F002F00D170E0FF2F00D175E0EB00E6
:106A4C008025ED041D43002399469A467F3F600242
:106A5C00430A984663001B0EE40F002B4ED0FF2B0D
:106A6C0046D04246D0008022D204024390460022F7
:106A7C007F3B3100FF1A4B466140C9B213430F2BC9
:106A8C0000D9B5E06E489B00C3589F46002398463A
:106A9C002600454692465346022B00D189E0032B33
:106AAC0000D19EE0012B18D03B007F33002B69DD19
:106ABC006A0704D00F222A40042A00D004352A0188
:106ACC0003D5604B1D403B008033FE2B00DD70E096
:106ADC00AD016D0AD8B202E00E0000200025C00501
:106AEC002843F6073043E0BCBA46B146A846F0BD91
:106AFC004346002B3FD10222FF3F03E04346002BCD
:106B0C002DD1012231004B466140C9B213430F2BEA
:106B1C0034D84D489B00C3589F46002D13D10423F5
:106B2C009946033B00279A4691E7002D05D108238F
:106B3C009946063BFF279A4689E70C239946093B61
:106B4C00FF279A4683E7280000F072FC7627431F44
:106B5C009D4000237F4299469A463F1A77E740466C
:106B6C0000F066FC4246431F9A4076235B429046F7
:106B7C001B1A00227DE7FF2303227AE70E00FF2079
:106B8C000025ACE70120C01A1B28A6DC9E372A0082
:106B9C00BD40C2406B1E9D4115436B0704D00F23B3
:106BAC002B40042B00D004356B0144D5012000256B
:106BBC0095E7FF20002592E780250026FF20ED03B6
:106BCC008DE7002398468020C003054209D0434638
:106BDC00034206D1454605436D022600FF206D0A8F
:106BEC007DE78020C00305436D02FF206D0A76E728
:106BFC0042466B015001834219D21B220025013FF2
:106C0C0001261C006D005B00002C01DB984201D8B2
:106C1C001B1A3543013A002AF3D15A1E93411D43E6
:106C2C003B007F330E00002B00DD41E7AAE71A2260
:106C3C0001251B1AE4E7AD0100206D0A4FE7C046A1
:106C4C009CF90008FFFFFFF7DCF9000870B5420063
:106C5C0045024E024C00C30F6D0A0120120E760A3B
:106C6C00240EC90FFF2A06D0FF2C03D0A24201D15B
:106C7C00B54206D070BD002DFCD1FF2CFAD1002EF0
:106C8C00F8D18B4206D00120002AF3D12800431EF4
:106C9C009841EFE70020EDE770B5420045024E0247
:106CAC004C00C30F6D0A120E760A240EC80FFF2A71
:106CBC001BD0FF2C0ED0002A1BD1002C01D1002E92
:106CCC001CD0002D0CD083421CD00221581E084031
:106CDC00013870BD002E22D1002AF4D1002DF2D142
:106CEC000028F6D101204042F3E7002D17D1FF2CEC
:106CFC00F0D0002CE7D1002EE5D1E6E70020002DE6
:106D0C00E7D0E2E7A24205DCEADBB54202D8E7D3E2
:106D1C000020DEE74342584140000138D9E7022009
:106D2C004042D6E770B5420045024E024C00C30FFC
:106D3C006D0A120E760A240EC80FFF2A0BD0FF2CF8
:106D4C000DD0002A1FD1002C16D1002E14D10020FA
:106D5C00002D10D009E0002D0CD1FF2C13D1002EEA
:106D6C0008D1002A08D0834212D00221581E0840B4
:106D7C00013800E0022070BD002DF4D10028FAD1BA
:106D8C0001204042F7E7002CEDD1002EEBD1ECE7CF
:106D9C00A24205DCF2DBB54202D8EFD30020EAE7D1
:106DAC004342584140000138E5E7C046F0B54F4634
:106DBC004646D64644024500C0B5640A0F1C2D0E4B
:106DCC00C60F002D00D18DE0FF2D00D192E00023E5
:106DDC00802099469A46E400C00404437F3D780223
:106DEC00430A98467B001B0EFF0F002B00D170E06E
:106DFC00FF2B00D186E04246D00080227F3BED186D
:106E0C000023D204024390469C4631004B46794005
:106E1C00681C0F2B1CD8764A9B00D3589F46390010
:106E2C004446E2465346022B0FD0032B00D1D7E049
:106E3C00012B37D100200024C0052043C90708438B
:106E4C00E0BCBA46B146A846F0BDFF200024F3E7EB
:106E5C00260C2404220C44462404240C434627000C
:106E6C001B0C574374435A435E4312193B0C9B183B
:106E7C009C4203D980225202944666443F041A0471
:106E8C003F0CD2199401671EBC411B0C920E9B192E
:106E9C0014439B011C431B0100D49BE0012362089B
:106EAC001C40144302007F32002A64DD630704D0C7
:106EBC000F232340042B00D00434230103D50200FC
:106ECC004C4B80321C40FE2ABFDCA401640AD0B2B9
:106EDC00B2E74346002B3DD14A4601331A43914653
:106EEC009C4692E7002C29D104239946033B0025AC
:106EFC009A4674E7002C1BD108239946063BFF25C4
:106F0C009A466CE74346FF35002B0BD102234A46C9
:106F1C001A4391469C4678E753463100022B00D029
:106F2C0083E792E703234A461A4391469C466CE753
:106F3C000C239946093BFF259A4650E7200000F0A8
:106F4C0077FA7625431F9C4000236D4299469A465A
:106F5C002D1A44E7404600F06BFA4246431F9A4014
:106F6C0000232D1A90469C46763D4EE78024002146
:106F7C00FF20E40360E701239B1A1B2B00DD59E77C
:106F8C0022009E30DA4084401300621E94411C4360
:106F9C00630704D00F232340042B00D00434630177
:106FAC001AD50120002447E78020C003044209D0F1
:106FBC004346034206D14446044364023900FF2091
:106FCC00640A39E78020C003044364023100FF20C7
:106FDC00640A31E7280065E7A4010020640A2BE766
:106FEC008020C00304436402FF20640A24E7C046E7
:106FFC001CFA0008FFFFFFF7F8B5CE4647464302E0
:10700C005B0A4E02DA009446720A914645004A0029
:10701C0080B52D0E1F00C40F120EC90FB609FF2A22
:10702C005BD0012041408C4239D0A81A00285ADD8F
:10703C00002A6AD0FF2D00D1D9E08022D204164359
:10704C001B2800DCE9E001206346181A430100D438
:10705C00B4E080018709380000F0EAF90538874070
:10706C00854200DCCCE02D1AB5483840430704D0EB
:10707C000F230340042B00D00430430100D4A0E0C4
:10708C006A1CFE2D00D18DE08001470AD2B2D005DA
:10709C003843E4072043C0BCB946B046F8BDA81A33
:1070AC008046002845DD002A70D0FF2D00D19EE0DF
:1070BC008023DB041E4343461B2B00DCD2E0012063
:1070CC00604443017AD50135FF2D6BD001239D4AD5
:1070DC000340400810401843C8E7002E20D08C42D3
:1070EC0023D02800FF38002839D0571B002D00D0A2
:1070FC009DE06346002B00D1DBE07B1E012F00D10D
:10710C000DE1FF2F71D01F0098E0002E00D1A7E0F9
:10711C00421E012800D1E6E0FF2868D010008FE75E
:10712C0001204140A14200D07FE7FF204042804631
:10713C00A8444046002838D0511B002D00D1AEE0A9
:10714C00FF2A00D1DFE080236046DB04184384462D
:10715C001B2900DCD9E0012015008019B1E7FE20C5
:10716C006A1C104271D1002D00D0A6E06346002BA2
:10717C0000D1D9E00022002E00D188E7981B4301F2
:10718C0000D4E1E063460C00F01A6FE7002E00D14A
:10719C00B7E00200013A012800D19CE0FF2826D07C
:1071AC00904688E7FF22002771E7FE206A1C1042F8
:1071BC0064D0FF2AF6D0150066447008430700D04F
:1071CC0056E7C308FF2D12D05B025F0AEAB25EE7F6
:1071DC006246002A00D196E0002E08D08022D2030D
:1071EC00134204D04846104201D10C004B46002BF0
:1071FC00D8D08027FF031F437F02FF227F0A46E778
:10720C0020233A00451B38000135EA405D1BA8409D
:10721C00431E98410025104328E720231B1A3200F7
:10722C009E40C2403000431E984110430CE7FF2A99
:10723C00DBD080236046DB04184384461B2F56DDCD
:10724C0001200C001500301A00E763469F1B7B01E0
:10725C003DD4002F00D0FEE600240022002716E7C4
:10726C000500AFE7320043464146DA4020235B1A63
:10727C009E403000431E9841104321E7002DA7D1BA
:10728C006346002B59D00022002E00D1FFE63000BF
:10729C006044430192D52A4B013518408EE7634672
:1072AC00002B47D04B1E012915D0FF292BD01900DC
:1072BC004EE70C004B463D0084E76246002A8BD11A
:1072CC00002E92D180270024FF22FF03DFE66346C5
:1072DC000C00F71ABFE6300060440125430100D4CE
:1072EC006CE70225F2E663460125981BAEE62023E7
:1072FC0064466046FC40DF1BB840431E9841204367
:10730C009FE705005EE74B4671E720236546604624
:10731C00CD40591A8840431E984128431CE76346C8
:10732C000C000125F01A91E6002E95D00C004F466A
:10733C000022ACE64B460D0044E74F460022A6E681
:10734C00FFFFFFFBFFFFFF7D002800D036E7002486
:10735C0000279CE641024200C30F490A0020120E8E
:10736C007E2A03DD9D2A02DD094A98187047802089
:10737C0000040143952A07DC9620821AD14048422A
:10738C00002BF3D10800F1E7963A9140F7E7C0469D
:10739C00FFFFFF7FF8B5002813D0C317C6185E4057
:1073AC00C40F300000F044F89E2305001B1A962BE6
:1073BC000FDC082801DD083DAE407602760AD8B213
:1073CC0002E0002400200026C0053043E4072043DF
:1073DC00F8BD992B0CDD05223100121AD1400A00A0
:1073EC00010030001B318840411E884102431600C9
:1073FC00052D12DC31000D4F3940720709D00F20DA
:10740C003040042805D004314A0102D59F2339406D
:10741C005B1B89014E0AD8B2D6E76A1F9640310031
:10742C00024F39407207F4D0E9E7C046FFFFFFFB7B
:10743C001C2101231B04984201D3000C10391B0A98
:10744C00984201D3000A08391B09984201D300095C
:10745C00043902A2105C40187047C04604030202B3
:10746C0001010101000000000000000010B500291E
:10747C0003D1FFF7DDFF203002E00800FFF7D8FF53
:10748C0010BDC046F0B5DE4657464E464546E0B503
:10749C008BB01422002105A806F0C3FE474B596B94
:1074AC00202211435963596B0A400092009A5A6B7F
:1074BC0002273A435A635A6B3A400192019A5A6B2B
:1074CC0001252A435A635A6B2A400292029A5A6B3C
:1074DC00042422435A635A6B22400392039A5A6B38
:1074EC00082189460A435A635B6B0B400493049B47
:1074FC00334B9B460022B831180001F042FA80232E
:10750C00DB009A46A026F60500221900300001F097
:10751C0038FA012280210902300001F032FA294B9D
:10752C00984600220621180001F02BFA05940697C4
:10753C00002407940895099405A9234801F05EF9E5
:10754C00C023059306950794089405A9584601F0A5
:10755C0055F95346059306950794089405A93000F0
:10756C0001F04CF980231B020593069507940897AC
:10757C0005A9300001F042F90623059306950794FE
:10758C00089405A9404601F039F94B46059384232C
:10759C009B030693079505A9404601F02FF900229D
:1075AC000221062001F096FB062001F0C3FB0BB074
:1075BC00F0BCBB46B246A946A046F0BD0010024046
:1075CC0000080050000C00500014005000B583B0AF
:1075DC000D4A916B012319439163926B13400193F4
:1075EC00019B00220221092001F074FB092001F00B
:1075FC00A1FB002202210A2001F06CFB0A2001F001
:10760C0099FB03B000BDC0460010024072B6FEE705
:10761C0010B51048104B036082235B0043600023BD
:10762C008360E022D200C260036143618022920039
:10763C008261F93AFF3AC2610362436283620721B5
:10764C00C1620363426301F099FD002800D110BDB3
:10765C00FFF7DCFF640200200030014010B5174832
:10766C00174B0360E1235B02436000238360C3601C
:10767C0003610C2242618361C361036243628362D2
:10768C0003F0B0FC002811D100210C4803F030FDB0
:10769C0000280DD10021094803F050FD002809D124
:1076AC00064803F005FD002806D110BDFFF7AEFF1C
:1076BC00FFF7ACFFFFF7AAFFFFF7A8FF14030020AA
:1076CC000038014000B59DB01022002118A806F02A
:1076DC00A8FD0C22002115A806F0A3FD1C220021F8
:1076EC000EA806F09EFD3422002101A806F099FD9B
:1076FC003048314B036003234360002383602F4ADF
:10770C00C26003614361836102F066FE002844D1CC
:10771C0080235B01189318A9264802F0AFFF0028BC
:10772C003DD1244802F088FE00283AD1002315935D
:10773C001693179315A91F4803F0D6F8002832D1D9
:10774C0060230E9300230F931093119312931393B2
:10775C00149300220EA9174802F0E2FE002824D14F
:10776C0000230193029303930493059380229201C7
:10777C000692079308930993802292040A920B9322
:10778C000C930D9301A90B4803F0EEF800280ED1D1
:10779C00084800F0D3F91DB000BDFFF737FFFFF725
:1077AC0035FFFFF733FFFFF731FFFFF72FFFFFF731
:1077BC002DFFC046C8020020002C0140FF03000032
:1077CC0010B51248124B0360124B436000238360C8
:1077DC000122C260036143618361C361036203F0F0
:1077EC009FFE00280CD10021084804F0ABF80028BB
:1077FC0008D10021054804F0D1F8002804D110BDAF
:10780C00FFF704FFFFF702FFFFF700FF1002002055
:10781C0000580040B57DB11000B593B0382200215E
:10782C0004A806F0FEFC10220021684606F0F9FCC4
:10783C008020800001F024FA02230493802252005D
:10784C00079200220892402109910B930C930D9200
:10785C000E330E9380239B020F93E0231B05109392
:10786C00C023DB05119304A800F0D4F900281BD128
:10787C0007230093053B01930023029303930221FA
:10788C00684600F0B5FC002810D1094AD168802365
:10789C005B050B43D3608022A0219205C9040548E7
:1078AC0000F014FC13B000BDFFF7B0FEFFF7AEFE06
:1078BC00001002400400050010B501F08FFAFFF72C
:1078CC00ABFFFFF7DFFDFFF781FEFFF7A1FEFFF730
:1078DC00C5FEFFF7F7FEFFF773FF06F08DFBFEE723
:1078EC0010B5024806F032FDFEE7C0465CFA00080F
:1078FC0010B5024806F02AFDFEE7C04668FA0008FB
:10790C007047704710B501F07DFA10BD10B5082016
:10791C0001F03EF810BD000010B5024801F04AF924
:10792C0010BDC0465801002010B5024801F042F9C4
:10793C0010BDC046B401002010B5024802F044FC52
:10794C0010BDC046C802002000B583B0144B196CA2
:10795C00012211431964196C0A400092009ADA6BE7
:10796C00802149050A43DA63DB6B0B400193019BD1
:10797C00052000220221404201F0ACF90220002235
:10798C000221404201F0A6F901F06AFA022001F04E
:10799C005DFAC020C00001F06BFA03B000BDC04618
:1079AC000010024010B588B004001422002103A876
:1079BC0006F037FC2268114B9A4201D008B010BD7A
:1079CC000F4C626B02231A436263626B1340019388
:1079DC00019BC0231B010393122304930C3B0793BD
:1079EC0003A9084800F00AFFE26B8021C9030A438F
:1079FC00E263E36B0B400293029BDFE7005800400D
:107A0C00001002400004005010B588B0040014228D
:107A1C00002103A806F005FC294B22689A4201D0EC
:107A2C0008B010BD274B196C80204001014319642C
:107A3C001A6C02400192019A596B0222114359634C
:107A4C005B6B13400293029B3823039304920692C0
:107A5C0003A91D4800F0D2FE1C481D4B03601023E7
:107A6C00436000238360C3608022026143618361B1
:107A7C00C361036200F0F8FF00281BD1134BA36510
:107A8C009C621448144B036011234360013B8360D8
:107A9C000023C3608022026143618361C361802340
:107AAC005B01036200F0E0FF002806D1094B63651F
:107ABC009C62B5E7FFF7AAFDE0E7FFF7A7FDF5E746
:107ACC00003001400010024000040050580100201A
:107ADC0008000240B40100201C00024010B58EB01A
:107AEC0004003422002101A806F09BFB2268114BF4
:107AFC009A4201D00EB010BD80239B03019301A8C4
:107B0C0000F056FC002812D10B4A116C80200001A9
:107B1C0001431164136C03400093009B002201216C
:107B2C000D2001F0D7F80D2001F004F9E2E7FFF782
:107B3C006DFDE9E7002C01400010024010B586B045
:107B4C0004001422002101A806F06BFB22680D4BE7
:107B5C009A4201D006B010BD0B4A516B0123194358
:107B6C005163526B13400093009B80235B00019385
:107B7C00FE3B02930593A02001A9C00500F03EFE38
:107B8C00E8E7C046002C01400010024010B594B04C
:107B9C000400142200210FA806F043FB342200211C
:107BAC0002A806F03EFB2268184B9A4201D014B092
:107BBC0010BD0123029302A800F0FAFB002821D18A
:107BCC00134B196C8020C001014319641A6C0240DC
:107BDC000092009A596B0122114359635B6B13405D
:107BEC000193019B80239B000F93EF3BFF3B109372
:107BFC001192002312931392A0200FA9C00500F03C
:107C0C00FDFDD4E7FFF702FDDAE7C046003801407E
:107C1C000010024070B582B0041E00D131E203683E
:107C2C00DB0739D5C14A916838230B40D168032250
:107C3C000A40102B26D0082B26D0636880225202D3
:107C4C0093427FD0A022D202934200D181E0B74B65
:107C5C001A68B7490A401A601A68B6490A401A608D
:107C6C006368002B00D180E001F0D8F80500AF4B21
:107C7C001B689B0310D401F0D1F8401B6428F6D983
:107C8C000320FFE1032AD6D1A84B1B689B0303D525
:107C9C006368002B00D1F7E123689B0731D5A34A19
:107CAC00936838210B40D16803220A40102B6AD00C
:107CBC00002B6BD19D4A1268520503D5E268002A4D
:107CCC0000D1E3E1994842689B490A406169090285
:107CDC000A434260002B0DD1036898490B4021697F
:107CEC000B4303600368DB0A07221A40944BD34012
:107CFC00944A1360944B186801F044F8002800D0A3
:107D0C00C6E123681B0700D481E0884B9A683823AE
:107D1C001340182B73D0A369002B00D1B4E0834A15
:107D2C00136E01210B43136601F078F805007F4BAD
:107D3C001B6E9B076BD401F071F8401B0228F6D91F
:107D4C0003209FE1794A116880235B020B43136087
:107D5C0086E7764B19688022D2020A431A601968AA
:107D6C00802252020A431A607AE701F057F80500A4
:107D7C006E4B1B689B038FD501F050F8401B642899
:107D8C00F6D903207EE1022A92D193E7E368002B17
:107D9C0022D0664A136869490B4021690B43136072
:107DAC00116880235B000B43136001F037F805006A
:107DBC005E4B1B685B0506D401F030F8401B0228B3
:107DCC00F6D903205EE159494B685B4A134062695E
:107DDC00120213434B6094E7544A13685B490B40FF
:107DEC00136001F01BF80500504B1B685B0588D530
:107DFC0001F014F8401B0228F6D9032042E14B4B4A
:107E0C001B6E9B0703D5A369002B00D142E12368AD
:107E1C005B0700D4A2E0454B9A6838231340202B13
:107E2C0045D0424BDB6BDB004AD4404AD16B8020FF
:107E3C0040050143D163D36B03400193019B0125A2
:107E4C00434B1B68DB053DD5A368012B4ED0052B9E
:107E5C0052D0364BDA6D01218A43DA65DA6D033183
:107E6C008A43DA65A368002B50D000F0D7FF0600D8
:107E7C002E4BDB6D9B076FD400F0D0FF801B354B76
:107E8C009842F5D90320FDE0284A136E01218B435B
:107E9C00136600F0C3FF0500244B1B6E9B07B6D581
:107EAC0000F0BCFF401B0228F6D90320EAE01F4B70
:107EBC00DB6D9B0752D5A368002B4FD10120E1E06D
:107ECC000025BDE7224A116880235B000B43136039
:107EDC0000F0A4FF06001E4B1B68DB05B4D400F0B9
:107EEC009DFF801B0228F6D90320CBE00F4AD36DEF
:107EFC0001210B43D365B5E70C4BDA6D04210A4322
:107F0C00DA65DA6D03390A43DA65ABE700F086FF10
:107F1C000600064BDB6D9B071ED500F07FFF801B18
:107F2C000C4B9842F5D90320ACE0C046001002403F
:107F3C00FFFFFEFFFFFFFBFFFF80FFFFFFC7FFFF01
:107F4C000024F4000800002004000020FFFEFFFFC6
:107F5C000070004088130000012D1ED0E369002B37
:107F6C0000D199E0544A916838220A40102A60D016
:107F7C00022B18D0504A136850490B40136000F084
:107F8C004DFF04004C4B1B689B014BD500F046FF8A
:107F9C00001B0228F6D9032074E0474AD36B4849EA
:107FAC000B40D363DAE7444A136844490B4013602F
:107FBC0000F034FF0500404B1B689B0106D500F018
:107FCC002DFF401B0228F6D903205BE03A4AD36808
:107FDC003C491940236A606A0343A06A00020343C8
:107FEC00E06A0343206B0343606B03430B43D36092
:107FFC00116880235B040B431360D16880235B05FD
:10800C000B43D36000F00AFF04002B4B1B689B0151
:10801C0006D400F003FF001B0228F6D9032031E040
:10802C0000202FE0244AD36827490B40D36000205E
:10803C0028E0012B32D0204BDA6803231340216A4D
:10804C008B422DD170231340616A8B422AD1FE21C1
:10805C00C9011140A36A1B02994225D1F8239B0345
:10806C001340E16A8B4221D1E0231B051340216BA5
:10807C008B421DD1520F5207636B9A421AD10020CA
:10808C0000E0012002B070BD0120FBE70120F9E700
:10809C000120F7E70120F5E70020F3E70120F1E7E5
:1080AC000120EFE70120EDE70120EBE70120E9E7F4
:1080BC000120E7E70120E5E700100240FFFFFFFE8B
:1080CC00FFFFFFEF8C80C111FCFFFEEEF0B589B015
:1080DC0003000C000192022204920132069200224B
:1080EC000592802676050640010C0F320A40A0212D
:1080FC004903501880020E4D696B012797403A00D6
:10810C000A436A631A04120C03921B0DFF221340DC
:10811C00079303A900F072FB002E06D1AB68054A49
:10812C001340019A14431C43AC6009B0F0BDC04627
:10813C0000100240FFFFFF8810B52A4B9B683822C5
:10814C001A4207D1274B1A68D20A07231340264834
:10815C00D84010BD234B9A6838231340082B3BD0D2
:10816C00204B9A6838231340102B0DD01D4B9A6866
:10817C0038231340202B31D01A4B9A6838231340E4
:10818C00182B26D00020E4E7164AD1680D3B0B4093
:10819C00D2681209072111400131032B0FD012486C
:1081AC00FDF7BCFF0F4BDA68120A7F2313405843CC
:1081BC000C4BD968490F0131FDF7B0FFC9E70B48EB
:1081CC00FDF7ACFF074BDA68120A7F2313405843C4
:1081DC00EEE7FA20C001BCE70448BAE780200002B1
:1081EC00B7E7C046001002400024F400001BB700A3
:1081FC0070B504000D00002800D1AAE0574B1A6896
:10820C00072313408B4221D323689A070ED55B07B3
:10821C0005D5534A9168E023DB010B439360504A28
:10822C00936850490B40A1680B4393602368DB07AC
:10823C0054D56368012B20D0022B3BD0002B3FD1AF
:10824C00474A126852051CD401206AE0434A13685D
:10825C0007218B432B43136000F0E0FD06003F4BDE
:10826C001A6807231340AB42CED000F0D7FD801B19
:10827C003D4A9042F3D9032053E0394A12689203E5
:10828C0069D537498A680720824313438B6000F015
:10829C00C5FD0600324B9B6838221A406368DB0030
:1082AC009A421BD000F0BAFD801B2F4B9842F1D99B
:1082BC00032036E02A4A12689201E2D4012030E011
:1082CC00032B05D0264AD26D9207DAD4012028E080
:1082DC00234A126E9207D4D4012022E01F4B1A6855
:1082EC0007231340AB421DD823685B0706D51C4AF5
:1082FC0093681E490B40E1680B439360FFF71CFF2A
:10830C00174B9A68120A0F2313409B00184A9A586D
:10831C001F231340D840174B1860174B186800F0F8
:10832C0031FD70BD0D4A136807218B432B4313603D
:10833C0000F074FD0600094B1A6807231340AB428A
:10834C00D2D000F06BFD801B074B9842F3D9032071
:10835C00E7E70120E5E70120E3E7C0460020024003
:10836C0000100240FFF0FFFF88130000FF8FFFFF9B
:10837C00F8FA00080800002004000020014B1868DF
:10838C007047C0460800002010B5FFF7F7FF064BFA
:10839C009A68120B072313409B00044A9A581F2318
:1083AC001340D84010BDC0460010024038FB0008F6
:1083BC00F0B583B0040003689B0362D5814BDB6B83
:1083CC00DB001ED47F4AD16B802040050143D16372
:1083DC00D36B03400193019B01267B4A11688023D8
:1083EC005B000B43136000F019FD0500764B1B6816
:1083FC00DB0508D400F012FD401B0228F6D903253A
:10840C0002E00026E9E70025002D23D16D4BD96D44
:10841C00C02292000B001340114210D0226B9A42E2
:10842C000DD0684AD36D69490B40D06D802149024B
:10843C000143D165D16D66480140D165D365DB0739
:10844C0010D4002D06D15F4AD36D60490B40216BCF
:10845C000B43D365012E15D15A4AD36B5D490B40A2
:10846C00D3630FE000F0DAFC0700564BDB6D9B0783
:10847C00E7D400F0D3FCC01B574B9842F5D9032529
:10848C00DFE700252368DB0706D54E4A536D032131
:10849C008B4361680B43536523689B0706D5494A98
:1084AC00536D0C218B43A1680B4353652368DB068A
:1084BC0006D5444A536D49490B40E1680B4353655B
:1084CC0023689B0506D53F4A536D45490B40A1696E
:1084DC000B43536523685B0506D53A4A536D4149F6
:1084EC000B40E1690B43536523689B0606D5354A5F
:1084FC00536D3D490B4021690B43536523685B0465
:10850C000BD5304A536D9B009B08216A0B43536576
:10851C008023DB05226A9A4239D023681B0306D5D7
:10852C00284A536D40218B43616A0B435365236882
:10853C009B020BD5234A536D2C490B40A16A0B436C
:10854C0053658023DB03A26A9A4227D023685B021F
:10855C000BD51C4A536D26490B40E16A0B435365FE
:10856C0080235B04E26A9A421FD023681B050BD55B
:10857C00144A536D1F490B4061690B435365626983
:10858C008023DB019A4215D0280003B0F0BD0D4AC0
:10859C00D16880235B020B43D360BEE7094AD168E4
:1085AC0080235B040B43D360D0E7064AD1680B43AE
:1085BC00D360DAE7034AD16880235B020B43D360B4
:1085CC00E2E7C0460010024000700040FFFCFFFFD5
:1085DC00FFFFFEFFFFFFFFEF88130000FFF3FFFF1D
:1085EC00FFFFF3FFFFFFCFFFFFCFFFFFFFFFBFFF3B
:1085FC00FFFFFFFEFF3FFFFF30B5054C6169012512
:10860C00294361610260BFF36F8F436030BDC04688
:10861C0000200240084B5B69002B01DB00207047F7
:10862C00054B064A9A60064A9A605B69002B01DB8F
:10863C000020F4E70120F2E7002002402301674507
:10864C00AB89EFCD70B5040000F0E8FB0500144BCE
:10865C001B69DB0308D5631CF9D000F0DFFB401B62
:10866C00A042F4D303201AE00D490A690D4B160001
:10867C001E400D4808611A420CD1094B1B695B0363
:10868C000CD5631CF9D000F0C9FB401BA042F4D3FD
:10869C00032004E0054B5E60012000E0002070BD6B
:1086AC0000200240FAC30000FBC30000A803002016
:1086BC00F8B507000C0015001E00144B1B78012B9D
:1086CC0022D0124B01221A7000225A60FA2080002C
:1086DC00FFF7B8FF00280DD1012F0FD02900200083
:1086EC0007F038F9FA208000FFF7ACFF084A53690D
:1086FC00BB435361054B00221A70F8BD2A003300AE
:10870C002000FFF779FFEDE70220F6E7A803002031
:10871C000020024010B5FA208000FFF793FF064BB3
:10872C005969802212060A435A615B69002B01DBEE
:10873C00012010BD0020FCE700200240034A5369D1
:10874C0003438020400218435061704700200240D0
:10875C00044A536904480340C9001943034B1943A5
:10876C00516170470020024007E0FFFF020001004A
:10877C0070B504000E001F4B1B78012B37D01D4B1E
:10878C0001221A7000225A60FA208000FFF75AFF6B
:10879C00002828D1042363602368042B15D00123FF
:1087AC005B423360A568A368E26894466344AB42BD
:1087BC0014D929006068FFF7CBFFFA208000FFF77F
:1087CC0041FF002809D10135EDE70430FFF7B6FF72
:1087DC00FA208000FFF736FF05E03560064A536942
:1087EC0002218B435361034B00221A7070BD02208F
:1087FC00FCE7C046A803002000200240F0B500238F
:10880C005AE084685F000326BE40B4432600CC685F
:10881C00BC4034438460446894434A68160901227E
:10882C0032409A402243426056E0DC080834A400EF
:10883C00265805321A4092000F279740BE430F6905
:10884C0097403A00324322505AE0032600E00026BB
:10885C00A64034003C43434E183292009451346885
:10886C00EA432600AE434F68FF0201D52C43260095
:10887C003C4C26606468260016404F68BF0201D548
:10888C002C432600374C66608426A45926001640DB
:10889C004F68BF0301D52C432600324C8427E65188
:1088AC008026A45922404E68F60301D52A002243A3
:1088BC002C4D80242A5101330C682200DA404FD011
:1088CC0001229A40250015401442F4D003244E682E
:1088DC003440013C012C94D903224C682240032AD9
:1088EC0009D0C2685E000324B440A24314008A6815
:1088FC00B2402243C26003224C682240022A94D028
:10890C0004685E0003221700B740BC434F683A402E
:10891C00B24022430260C02292024C681442CAD078
:10892C009A0814001834A4000E4EA75903241C40B6
:10893C00E4000F26A640B743A026F605B04286D029
:10894C00094EB04208D0094EB04207D0084EB04292
:10895C0000D17AE705267BE7012679E7022677E73F
:10896C00F0BDC04600180240000400500008005042
:10897C00000C005003690B4201D00120704700200D
:10898C00FCE7002A01D0816170478162FCE77047E7
:10899C0010B50400094BDB68184204D1074B1B6966
:1089AC00234205D110BD054BD860FFF7F0FFF5E76A
:1089BC00024B1C61200005F0A9FBF3E700180240F4
:1089CC00F0B5846CC56C6560046D002C02D0446DF0
:1089DC00856D65600B4F7C681C26056C2E4001254F
:1089EC00B5402C437C60046863608368102B04D012
:1089FC00036899600368DA60F0BD03689A600368E5
:108A0C00D960F9E70000024010B50400036C9B0824
:108A1C00094A944663449B004364FF202368184032
:108A2C0008381421FDF77AFB044BA3641F2318406C
:108A3C001E3B8340E36410BD00820010800802409E
:108A4C003F2342681340064A9A1892000265054A71
:108A5C004265013B03221A40012393408365704712
:108A6C003F8200104009024070B5041E4DD00568CD
:108A7C00274BE8181421FDF751FB800020642523B7
:108A8C000222E2542B68234A13402B6021680A68A7
:108A9C00A368E06803432069034360690343A0694A
:108AAC000343E0690343206A034313430B60200034
:108ABC00FFF7AAFF8023DB01A2689A4218D0626CF0
:108ACC003F2361680B401360A36CE26C5A606368CF
:108ADC00013B032B0FD9002323656365A36500239A
:108AEC00E36325220121A154013AA354002070BD57
:108AFC0000236360E3E72000FFF7A2FF236D002251
:108B0C001A60636DA26D5A60E9E70120EFE7C04679
:108B1C00F8FFFDBF0F80FFFF70B504002420205C20
:108B2C00012845D02420012525540130205C012842
:108B3C0006D08023E3635C3B0022E254012070BD2D
:108B4C002430013525540020E0632568286801266F
:108B5C00B04328602000FFF733FF236B002B1CD0A1
:108B6C00226813680E210B431360636C1A68D203DE
:108B7C0004D51968802252000A431A60236D002B19
:108B8C0004D01968802252000A431A6022681368C4
:108B9C0001210B4313600020D1E7226813680421E4
:108BAC008B4313602268136806310B431360DCE7B8
:108BBC000220C4E770B5314B1968046825681C2382
:108BCC00026C134004229A40114216D06A0714D545
:108BDC0023689B0603D42368042293432360274C09
:108BEC0063681C21026C114004228A4013436360A9
:108BFC00036B002B00D0984770BD02229A401142A3
:108C0C001CD0AA071AD523689B0606D423680A220F
:108C1C00934323602523093AC254184C63681C21E2
:108C2C00026C114002228A40134363602423002209
:108C3C00C254C36A002BDFD09847DDE708229A4064
:108C4C001142D9D02B07D7D523680E22934323602A
:108C5C000A4C62681C21036C194001231D008D40D5
:108C6C002A436260C3632522835423330022C254F7
:108C7C00436B002BC0D09847BEE7C04600000240B3
:108C8C0010B5104A136810490B400343136080233E
:108C9C009B00984201D0002010BD0C4B1B68580063
:108CAC00C01840000A49FDF739FA0130054B5B69E1
:108CBC005B0503D5002803D00138F7E70020EBE76C
:108CCC000320E9E700700040FFF9FFFF08000020D7
:108CDC0040420F0070B5002811DB8308134EC033DF
:108CEC009B009D5903242040C000FF2214008440A7
:108CFC00A54389010A4082402A439A5170BD0F2333
:108D0C000340083B9B0806339B00094A9446634486
:108D1C005C6803221040C000FC3215008540AC4357
:108D2C0089010A40824022435A60E7E700E100E0F3
:108D3C0000ED00E0002805DB1F2318401E3B83409C
:108D4C00014A13607047C04600E100E001388023FF
:108D5C005B0498420FD2094A50600948036A1B020F
:108D6C001B0AC02109060B430362002393600733DF
:108D7C001360002070470120FCE7C04610E000E0C3
:108D8C0000ED00E010B50400114B1978002901D159
:108D9C00012010BDFA208000FDF7C0F901000D4B39
:108DAC001868FDF7BBF9FFF7D1FF00280DD1032C94
:108DBC0001D90120EDE70130002221004042FFF7EC
:108DCC0089FF054B1C600020E3E70120E1E7C0466A
:108DDC0000000020080000200400002010B5084A04
:108DEC00116880235B000B4313600220FFF7CAFF5E
:108DFC00041E02D00124200010BDFEF7A5FDFAE7E9
:108E0C0000200240034B1B78034A11685B18136067
:108E1C007047C04600000020C4030020014B1868B6
:108E2C007047C046C403002070B50400FFF7F6FF7E
:108E3C000500631C02D0044B1B78E418FFF7EEFF0F
:108E4C00401BA042FAD370BD00000020034A1368F7
:108E5C0002218B43034313607047C046300001402E
:108E6C00024A136801218B431360704730000140A4
:108E7C00034A136803490B40034313607047C04611
:108E8C0000000140FFF9FFFFF0B5D6464F464646BD
:108E9C00C0B582B006000D0090461F00FFF7BEFF64
:108EAC000A9B181A8146B944FFF7B8FF82462E4B2D
:108EBC001B685B011B0D4A465343019333689C6846
:108ECC002C40641B63425C41444545D07B1CF5D06F
:108EDC00FFF7A4FF5346C01A48450BD24B46002B54
:108EEC0008D0019A002A00D04A46019B013B01930D
:108EFC009146E3E732685368E0218B435360822349
:108F0C005B0072689A420CD080239B01B26A9A4231
:108F1C0016D05D230122F254013B0022F2540320AF
:108F2C001BE0B36880221202934203D08022D2004D
:108F3C009342E9D13268136840218B431360E3E715
:108F4C003268136809490B4013603268116880233A
:108F5C009B010B431360DCE7002002B0E0BCBA4677
:108F6C00B146A846F0BDC04608000020FFDFFFFF59
:108F7C00F0B5DE4657464E464546E0B583B0070091
:108F8C000D00160098466B460022DA70FFF746FF7C
:108F9C000C9B181A40448146FFF740FF82463B6801
:108FAC009B46364B1A6893009A18D3009B1A1B0DDC
:108FBC004A465343019302E04346013311D13B68C7
:108FCC009C682C40B44250D0C023DB009D42F3D1AE
:108FDC00002EF1D15B461B7BDBB26A46D370D37893
:108FEC00EAE7FFF71BFF5346C01A48450BD24B4626
:108FFC00002B08D0019A002A00D04A46019B013B65
:10900C0001939146DBE73A685368E0218B43536048
:10901C0082235B007A689A420CD080239B01BA6A47
:10902C009A4216D05D230122FA54013B0022FA54D5
:10903C0003201BE0BB6880221202934203D08022E3
:10904C00D2009342E9D13A68136840218B431360F4
:10905C00E3E73A6813680A490B4013603A681168F1
:10906C0080239B010B431360DCE7002003B0F0BCB2
:10907C00BB46B246A946A046F0BDC046080000203B
:10908C00FFDFFFFF70B582B004000D001600C02199
:10909C0000922B0000224901FFF76AFF002818D12B
:1090AC0000962B00002280212000FFF7EDFE002807
:1090BC0016D1C02100962B000022C9002000FFF71A
:1090CC0057FF00280AD0236E202213432366032067
:1090DC0004E0236E202213432366032002B070BDEC
:1090EC00236E2022134323660320F7E770B582B06A
:1090FC0004000D00160082235B0042689A420FD0D8
:10910C0000962B00002280212000FFF7BDFE0028D6
:10911C0015D182235B0062689A4216D002B070BDF2
:10912C00836880221202934203D08022D2009342A1
:10913C00E6D12268136840218B431360E0E7236E6D
:10914C002022134323660320E8E7A368802212023F
:10915C00934203D08022D2009342DFD1C0210096EB
:10916C002B000022C9002000FFF702FF0028D5D0F9
:10917C00236E2022134323660320CFE770B5041E11
:10918C0000D178E0436A002B07D10533FF334268E6
:10919C009A4205D00023C36102E0002303614361BE
:1091AC000023A3625D33E35C002B5AD05D230222C3
:1091BC00E2542268136840218B431360E368E02279
:1091CC00D200934254D90022F02109018B4205D0E0
:1091DC00E021C9008B4201D00023A36282235B00F3
:1091EC0061680B4084210902A06801400B430221F5
:1091FC00206901400B430121606908400343802032
:10920C008000A569284003433820E56928400343C2
:10921C008020256A2840034380208001A56A2840CD
:10922C00034320680360608B042303401020656AAD
:10923C00284003430820656B28400343F0200001BD
:10924C00E568284003432068134343602268D369D0
:10925C000A480340D361002323665D33E1540020A8
:10926C0070BD5C330022E2542000FEF7CDFB9DE77D
:10927C0080225201A8E70120F2E7C046FFF7FFFF6A
:10928C00F0B5CE4600B584B00400019191461D00A6
:10929C005C23C35C012B00D1CBE05C230122C254C4
:1092AC00FFF7BCFD06005D23E35CDFB2012B00D0B1
:1092BC00B6E00199002900D1B3E04B46002B00D158
:1092CC00AFE05D230322E25400232366A1634A46E8
:1092DC00A287E28723644422A3520232A35223655D
:1092EC00E36480231B02A2689A421ED023681A688A
:1092FC00520603D41A6840210A431A60E023DB00AB
:10930C00E2689A423ED96368002B02D04B46012B8F
:10931C0020D12368A26B1288DA60A36B0233A3639B
:10932C00E38F013B9BB2E38714E022681368402172
:10933C008B431360226811688023DB010B4313609D
:10934C00D4E7FFF76BFD801BA84201D36B1C14D133
:10935C00002D12D0E18F89B2002946D023689A687B
:10936C009207EED5A26B1288DA60A36B0233A3636B
:10937C00E38F013B9BB2E387ECE75D230122E254D0
:10938C0003274EE06368002B02D04B46012B14D10F
:10939C00A36B1B7822681373A36B0133A363E38F56
:1093AC00013B9BB2E38708E0FFF738FD801BA84226
:1093BC0001D36B1C14D1002D12D0E18F89B200297E
:1093CC0013D023689A689207EED5A26B12781A73A1
:1093DC00A36B0133A363E38F013B9BB2E387ECE701
:1093EC005D230122E25403271BE0320029002000F8
:1093FC00FFF748FE002801D020232366A368002B2A
:10940C0006D103932368DA6803929B680393039B4A
:10941C00236E002B05D15D330122E254002700E0BE
:10942C0002275C230022E254380004B080BCB94609
:10943C00F0BD0227F8E70000F0B583B004000091FE
:10944C0001921E00089D5C23C35C012B00D11EE120
:10945C005C230122C254FFF7E1FC07005D23E35CAF
:10946C00D9B26268012B0BD082235B009A4200D0E8
:10947C00FBE0A368002B00D0FDE0042900D0FCE049
:10948C00009B002B00D1FAE0019B002B00D1F8E0EF
:10949C00002E00D1F7E05D23E35C042B02D05D23AA
:1094AC000522E25400232366019A22644622A65226
:1094BC00023AA652009AA263E687A687E364236564
:1094CC00E023DB00E2689A4223D922685368714991
:1094DC000B40536023681A68520603D41A68402163
:1094EC000A431A60E023DB00E2689A4258D96368A9
:1094FC00002B01D0012E0AD12368A26B1288DA60EE
:10950C00A36B0233A363E38F013B9BB2E38701267A
:10951C002DE02268516880235B010B435360D9E72F
:10952C00A26B1288DA60A36B0233A363E38F013B57
:10953C009BB2E387002623689A68D20710D546228F
:10954C00A25A92B2002A0BD0DB68226C1380236CD7
:10955C00023323644622A35A013B9BB2A352012639
:10956C00FFF75CFCC01BA84201D36B1C13D1E38F2B
:10957C009BB2002B04D14633E35A9BB2002B63D031
:10958C0023689A689207D6D5E28F92B2002AD2D07D
:10959C00012ED0D1C4E75D230122E254032065E003
:1095AC006368002B01D0012E0AD1A36B1B782268B3
:1095BC001373A36B0133A363E38F013B9BB2E3876C
:1095CC0001261DE023689A68D20710D54622A25ABC
:1095DC0092B2002A0BD01B7B226C1370236C0133CC
:1095EC0023644622A35A013B9BB2A3520126FFF7E8
:1095FC0015FCC01BA84201D36B1C20D1002D1ED022
:10960C00E38F9BB2002B04D14633E35A9BB2002B61
:10961C001AD023689A689207D4D5E28F92B2002AA6
:10962C00D0D0012ECED1A26B12781A73A36B01335A
:10963C00A363E38F013B9BB2E3870026C2E75D2364
:10964C000122E254032011E03A0029002000FFF728
:10965C0019FD002802D0202323660120236E002B45
:10966C0013D15D330122E25400E002205C2300227E
:10967C00E25403B0F0BD0220F8E70220F6E7012027
:10968C00F4E70120F2E70120F0E70120EEE70220E9
:10969C00EFE7C046FFEFFFFFF0B5CE4600B584B054
:1096AC000400039116001D005D23C35CDFB2012B87
:1096BC0000D0BAE00433FF3342689A423DD05C23B9
:1096CC00E35C012B00D1B9E05C230122E254FFF7EB
:1096DC00A5FB81460399002900D1A7E0002E00D1FB
:1096EC00A4E05D230422E25400232366216440326B
:1096FC00A6520232A652A363A387E387E3642365D1
:10970C00E023DB00E2689A4224D9226853684C4972
:10971C000B40536080231B02A2689A4221D023681D
:10972C001A68520603D41A6840210A431A60E023CF
:10973C00DB00E2689A4229D94CE08368002BBED149
:10974C005D330422C254009533000A00FFF774FE07
:10975C0007006EE02268516880235B010B43536065
:10976C00D8E72268136840218B4313602268136882
:10977C0034490B401360D2E7FFF750FB4B46C01A3D
:10978C00A84201D36B1C16D1002D14D04623E35AEA
:10979C009BB2002B38D023689A68D207ECD51B7B80
:1097AC00226C1370236C013323644622A35A013BB1
:1097BC009BB2A352EAE75D230122E254032735E072
:1097CC00FFF72CFB4B46C01AA84201D36B1C16D1D9
:1097DC00002D14D04623E25A92B2002A14D02368EA
:1097EC009A68D207ECD5DB68226C1380236C0233A9
:1097FC0023644622A35A013B9BB2A352EAE75D23A2
:10980C000122E254032711E04A4629002000FFF709
:10981C006DFC002801D020232366236E002B05D17C
:10982C005D330122E254002700E002275C23002272
:10983C00E254380004B080BCB946F0BD0227F8E70A
:10984C00FFEFFFFFFFBFFFFF70B504005C23C35C9D
:10985C00012B00D186E05C230120E0540133E35C52
:10986C00DDB2012B78D1002977D0002A75D05C337A
:10987C000230E05400232366A163A287E2872364AD
:10988C002365E3644422A3520232A35280231B02B9
:10989C00A2689A4239D0636D334A1A63636D334AB6
:1098AC00DA62636D324A5A63636D00229A632268EE
:1098BC00536830490B405360E023DB00E2689A4266
:1098CC0005D8636D9A698023DB009A4229D02268FF
:1098DC000C32E38F9BB2A16B606DFFF71DF9002872
:1098EC0035D123681A68520603D41A6840210A43FA
:1098FC001A602268536820210B4353602268536816
:10990C001E390B435360050027E022681368402181
:10991C008B431360226811688023DB010B431360B7
:10992C00B9E7E38FDB0707D4226853680B40536019
:10993C00E38F5B08E387CAE7226851688023DB0169
:10994C000B435360E38F5B080133E387BFE7236E60
:10995C0010221343236600E002255C230022E2540C
:10996C00280070BD0225FBE73F9D0008839D000881
:10997C00619D0008FFBFFFFF70B504005C20205CF8
:10998C00012800D1FCE05C20012525540130205C2D
:10999C00C6B2656801280BD082204000854200D0F9
:1099AC00DFE0A068002800D0E0E0042E00D0DFE06B
:1099BC00002900D1DEE0002A00D1DDE0002B00D12F
:1099CC00DCE05D20205C042802D05D2005252554B8
:1099DC0000202066A163A387E38722644422A3525C
:1099EC000232A352E06420652268536865490B403B
:1099FC005360E023DB00E2689A4253D92268536833
:109A0C0061490B4053605D23E35C042B00D191E072
:109A1C00A36D5E4A1A63A36D5D4ADA62A36D5D4A5B
:109A2C005A63A36D00229A6321680C314623E35AD2
:109A3C009BB2226CA06DFFF76FF8002800D080E07D
:109A4C002268536801210B435360626D002313633A
:109A5C00626DD362626D5363626D93635D33E35CDD
:109A6C00042B74D0636D4A4ADA6222680C32E38F9D
:109A7C009BB2A16B606DFFF74FF800286BD1236888
:109A8C001A68520603D41A6840210A431A602268E5
:109A9C00536820210B435360226853681E390B43D3
:109AAC0053605FE02268516880235B010B43536075
:109ABC00636D9A698023DB009A4218D0A36D9A6972
:109ACC008023DB009A429ED1226853682E490B40BA
:109ADC0053604623E35ADB0720D4226853682E498F
:109AEC000B4053604622A35A5B08A3528BE7A38F0B
:109AFC00DB0708D42268536828490B405360E38F76
:109B0C005B08E387DAE7226851688023DB010B43AB
:109B1C005360E38F5B080133E387CFE7226851681A
:109B2C0080239B010B4353604622A35A5B080133ED
:109B3C00A35268E7A36D1A4A1A63A36D194ADA6235
:109B4C006CE7236E10221343236601200AE0636D39
:109B5C00144ADA6289E7236E10221343236601202C
:109B6C0000E002205C230022E25470BD0220F9E7E1
:109B7C000220F7E70120F5E70120F3E70120F1E7E8
:109B8C000220F2E7FF9FFFFFFFEFFFFF579D00084A
:109B9C00819E0008619D0008FFDFFFFFFFBFFFFFF4
:109BAC004B9D0008F79D000870B504005D20255CF6
:109BBC00EEB2012D00D0A6E0A068002804D18223CB
:109BCC005B0065689D4259D05C23E35C012B00D19E
:109BDC009FE05C230125E554002900D194E0002A84
:109BEC0000D191E001330335E55400232366216451
:109BFC004421625202316252E3642365A387E387F6
:109C0C0080231B02984243D02268536842490B4080
:109C1C005360E023DB00E2689A4244D9226853681F
:109C2C003E490B405360A36D3D4A1A63A36D3D4AF8
:109C3C00DA62A36D3C4A5A63A36D00229A632168D1
:109C4C000C314623E35A9BB2226CA06DFEF764FFE5
:109C5C00002853D123681A68520603D41A6840218D
:109C6C000A431A602268536820210B435360226810
:109C7C0053681F390B435360060045E0A73B043083
:109C8C00E05413000A002000FFF776FE06003EE0C9
:109C9C002268136806398B431360226813682349C2
:109CAC000B401360B0E72268516880235B010B43C3
:109CBC005360A36D9A698023DB009A42B3D122686A
:109CCC00536816490B4053604623E35ADB0709D40B
:109CDC002268536810490B4053604622A35A5B0814
:109CEC00A352A0E72268516880239B010B43536069
:109CFC004622A35A5B080133A35294E7236E102229
:109D0C001343236600E002265C230022E254300059
:109D1C0070BD0226FBE7C046FFDFFFFFFFEFFFFF32
:109D2C004B9D0008F79D0008619D0008FFBFFFFFD9
:109D3C00704710B5806AFFF7FBFF10BD704710B578
:109D4C00806AFFF7FBFF10BD704710B5806AFFF704
:109D5C00FBFF10BD10B5806A0268536803218B436A
:109D6C005360036E1022134303665D230F3AC254F3
:109D7C0004F0F2F910BD30B583B00500846AFFF72A
:109D8C004DF802002B681B689B0625D421684B6894
:109D9C00202083434B6021684B681E3883434B6003
:109DAC0064212000FFF76EF9002803D0236E2022D7
:109DBC0013432366A368002B06D101932368DA684A
:109DCC0001929B680193019B0023E3875D33012281
:109DDC00E254236E002B04D1200004F0B5F903B03B
:109DEC0030BD200004F0B8F9F9E770B50500846ABD
:109DFC00FFF714F802002B681B689B0622D421681D
:109E0C004B68202083434B60A368002B04D105339F
:109E1C00FF336168994223D021684B68012083434A
:109E2C004B6064212000FFF761F9002801D020234A
:109E3C00236646230022E25217330132E254236E8A
:109E4C00002B13D12523626DD35C022B07D0252365
:109E5C00A26DD35C022B02D0200004F06DF970BD12
:109E6C0021684B681D3883434B60DAE7200004F00F
:109E7C0073F9F4E770B50500846AFEF7CFFF2B6821
:109E8C001B689B060DD52523626DD35C022B07D076
:109E9C002523A26DD35C022B02D0200004F044F9E0
:109EAC0070BD2268536820218B43536002004431FB
:109EBC002000FFF7E7F8002803D0236E202213437D
:109ECC0023662268536803218B4353600023E38786
:109EDC004622A3525D33453AE254236E002BD2D076
:109EEC00200004F039F9DBE730B5036A026A01247B
:109EFC00A243026242688469184D2C400D682C43C1
:109F0C000225AB438D682B43154DA84208D0154D47
:109F1C00A84205D0144DA84202D0144DA84205D138
:109F2C000825AB43CD682B430425AB430C4DA8420D
:109F3C0008D00C4DA84205D00B4DA84202D00B4DB9
:109F4C00A84205D10A4D2A404D692A438D692A43FE
:109F5C00426084614A684263036230BD8CFFFEFF3D
:109F6C00002C0140004001400044014000480140E9
:109F7C00FFFCFFFF70B5036A026A194C22400262B3
:109F8C004268C469174D2C400E682643164C23407A
:109F9C008C6824022343154CA04219D0134CA042C8
:109FAC0008D0134CA04205D0124CA04202D0124C47
:109FBC00A04207D1114C14404A69120122438C690A
:109FCC0025012A434260C6614A68C263036270BDC0
:109FDC000B4C1C40CB681B0223430A4C2340DDE78F
:109FEC00FFFEFFFF8CFFFEFFFFFDFFFF002C01407B
:109FFC00004001400044014000480140FFCFFFFFFA
:10A00C00FFF7FFFFFFFBFFFF30B5026A036A134C3B
:10A01C00234003624368C469114D2C400D682D0226
:10A02C002C43104D15408A6812032A430E4DA8424A
:10A03C0008D00E4DA84205D00D4DA84202D00D4DB2
:10A04C00A84204D10C4D2B404D69AD012B4343600C
:10A05C00C4614B680364026230BDC046FFEFFFFF72
:10A06C00FF8CFFFEFFDFFFFF002C01400040014092
:10A07C000044014000480140FFBFFFFF30B5026AB9
:10A08C00036A124C234003624368446D104D2C400C
:10A09C000D682C430F4D15408A6812042A430E4D4F
:10A0AC00A84208D00D4DA84205D00D4DA84202D0B3
:10A0BC000C4DA84204D1054D2B404D692D022B436C
:10A0CC00436044654B688365026230BDFFFFFEFF51
:10A0DC008FFFFEFFFFFFFDFF002C01400040014001
:10A0EC00004401400048014030B5026A036A134C39
:10A0FC00234003624368446D114D2C400D682D02C2
:10A10C002C43104D15408A6812052A430E4DA84267
:10A11C0008D00E4DA84205D00D4DA84202D00D4DD1
:10A12C00A84204D10C4D2B404D69AD022B4343602A
:10A13C0044654B68C365026230BDC046FFFFEFFF4C
:10A14C00FF8FFFFEFFFFDFFF002C014000400140AE
:10A15C000044014000480140FFFFFBFF30B5036A9B
:10A16C00046A0125AC4304628469EF35AC431201E7
:10A17C0022430A24A3430B438261036230BD0000D7
:10A18C0030B5036A046A1025AC4304628469054D3A
:10A19C002C4012032243A024A343090119438261DA
:10A1AC00016230BDFF0FFFFF8368034A13400B436E
:10A1BC0007210B43836070478FFFCFFF70477047B9
:10A1CC00704770477047704770B504000368DE68CD
:10A1DC001D69AA070ED5B2070CD5032252421A618B
:10A1EC000123037703689B699B0757D0FFF7E9FFAF
:10A1FC00002323776B0712D5730710D5236805222C
:10A20C0052421A610223237723689A69C0239B0068
:10A21C001A4249D02000FFF7D4FF002323772B07E5
:10A22C0010D533070ED52368092252421A61042334
:10A23C0023772368DB699B073DD02000FFF7C1FF24
:10A24C0000232377EB0612D5F30610D523681122D1
:10A25C0052421A61082323772368DA69C0239B00D2
:10A26C001A422FD02000FFF7ACFF00232377EB0717
:10A27C0001D5F3072DD482239B011D4201D0330657
:10A28C002FD4EB0501D5330632D46B0601D57306FA
:10A29C0035D4AB0601D5B30639D470BDFFF790FFAA
:10A2AC002000FFF78FFFA3E72000FFF789FF2000B6
:10A2BC00FFF788FFB1E72000FFF782FF2000FFF7D0
:10A2CC0081FFBDE72000FFF77BFF2000FFF77AFF3F
:10A2DC00CBE72368022252421A612000FFF76FFF7E
:10A2EC00C9E723680E4A1A61200000F0A0FBC8E7FA
:10A2FC0023680C4A1A61200000F09AFBC5E723681A
:10A30C00412252421A612000FFF75DFFC1E723682A
:10A31C00212252421A61200000F088FBBDE7C046A2
:10A32C007FDFFFFFFFFEFFFF0368244A904206D049
:10A33C008022D205904202D0214A904203D1702251
:10A34C0093434A6813431D4A904212D08022D2058F
:10A35C0090420ED01A4A90420BD01A4A904208D022
:10A36C00194A904205D0194A904202D0184A90429C
:10A37C0003D1184A1340CA681343802293434A6995
:10A38C00134303608B68C3620B6883620B4B984268
:10A39C0008D00D4B984205D00C4B984202D00C4B78
:10A3AC00984201D10B690363012343610269134293
:10A3BC0003D003690122934303617047002C0140D1
:10A3CC0000040040002000400040014000440140D7
:10A3DC0000480140FFFCFFFF70B5041E2AD03D234E
:10A3EC00C35C002B20D03D2502236355210001C9FD
:10A3FC00FFF79AFF01234822A3540A3AA3540132CF
:10A40C00A3540132A3540132A3540132A354013298
:10A41C00A3540132A3540132A3540132A354013288
:10A42C00A3546355002070BD3C330022C254FDF789
:10A43C0055FBD8E70120F6E770B5041E2AD03D2362
:10A44C00C35C002B20D03D2502236355210001C99C
:10A45C00FFF76AFF01234822A3540A3AA35401329E
:10A46C00A3540132A3540132A3540132A354013238
:10A47C00A3540132A3540132A3540132A354013228
:10A48C00A3546355002070BD3C330022C254FFF727
:10A49C0095FED8E70120F6E770B5036A026A10242E
:10A4AC00A243026242688469174D2C400D682D024C
:10A4BC0025432024A3438C6824012343134CA0423E
:10A4CC0019D0124CA04208D0114CA04205D0114C0E
:10A4DC00A04202D0104CA04207D1104C14404A6943
:10A4EC00920022438C69A6003243426085614A681F
:10A4FC008263036270BD8024A3431C00CB681B01E4
:10A50C0023434024A343DCE7FF8CFFFE002C0140D7
:10A51C00004001400044014000480140FFF3FFFFB0
:10A52C0070B504000D003C23C35C012B00D192E0FC
:10A53C003C230121C154142A00D987E09200474BD7
:10A54C009B589F4629000068FFF7CEFC2268936950
:10A55C0008210B4393612268936904398B439361FF
:10A56C002268936929690B43936100206FE02900ED
:10A57C000068FFF791FF2268916980231B010B4350
:10A58C0093612268936936490B40936121688B690A
:10A59C002A69120213438B61002058E029000068DD
:10A5AC00FFF7E8FC2268D36908210B43D3612268CA
:10A5BC00D36904398B43D3612268D36929690B436E
:10A5CC00D361002043E029000068FFF71DFD2268DD
:10A5DC00D16980231B010B43D3612268D3692049C5
:10A5EC000B40D3612168CB692A6912021343CB61FA
:10A5FC0000202CE029000068FFF740FD2268536D15
:10A60C0008210B4353652268536D04398B43536502
:10A61C002268536D29690B435365002017E029000C
:10A62C000068FFF761FD2268516D80231B010B430D
:10A63C0053652268536D0A490B40536521684B6D75
:10A64C002A69120213434B65002000E001203C23D1
:10A65C000022E25470BD0220FCE7C0467CFA0008E0
:10A66C00FFFBFFFF30B58468034D2C401B021343E6
:10A67C000B432343836030BDFF00FFFF10B5040084
:10A68C003C23C35C012B00D178E03C230122C25453
:10A69C0001330132C2540268936839480340936015
:10A6AC000B68602B50D02AD8402B58D00CD9502B8B
:10A6BC0023D1CA6849682068FFF750FD50212068F3
:10A6CC00FFF772FD002005E0202B0ED009D9302BAE
:10A6DC000BD001203D230122E254013B0022E25425
:10A6EC0010BD002B01D0102B05D119002068FFF7ED
:10A6FC005BFD0020EEE70120ECE70120EAE7802279
:10A70C005201934236D08022920193420DD1CB68F4
:10A71C004A6889682068FFF7A5FF22689168802342
:10A72C00DB010B4393600020D4E7702B24D1CB6862
:10A73C004A6889682068FFF795FF2268936877213B
:10A74C000B4393600020C5E7CA6849682068FFF78F
:10A75C0017FD60212068FFF727FD0020BAE7CA68C3
:10A76C0049682068FFF7FAFC40212068FFF71CFDC0
:10A77C000020AFE70020ADE70120ABE70220AFE7F8
:10A78C008800CEFF10B51F23194001248C40036AAA
:10A79C00A3430362036A8A401343036210BD0000A3
:10A7AC0010B50400002937D13E23C35C013B5A1E6F
:10A7BC009341DBB2002B00D083E0002957D13E330C
:10A7CC000222E25401222068FFF7DCFF2368404A92
:10A7DC00934208D03F4A934205D03F4A934202D05D
:10A7EC003E4A934204D1596C802212020A435A64A5
:10A7FC002368374A934256D08022D205934252D0D6
:10A80C00374A93424FD0334A93424CD01A680121B5
:10A81C000A431A60002055E004290CD0082911D0F5
:10A82C000C2916D010291BD04323C35C013B5A1EA4
:10A83C009341DBB2BEE73F23C35C013B5A1E9341FD
:10A84C00DBB2B7E74023C35C013B5A1E9341DBB23A
:10A85C00B0E74123C35C013B5A1E9341DBB2A9E72D
:10A86C004223C35C013B5A1E9341DBB2A2E704298D
:10A87C0009D008290BD00C290DD010290FD0432357
:10A88C000222E2549EE73F230222E2549AE740233D
:10A89C000222E25496E741230222E25492E7422339
:10A8AC000222E2548EE79A680E490A40062A0AD020
:10A8BC0007398A4209D01A6801210A431A6000201C
:10A8CC0000E0012010BD0020FCE70020FAE7C046A4
:10A8DC00002C014000400140004401400048014070
:10A8EC00000400400700010030B53C23C35C012B81
:10A8FC0030D03C230122C25401330132C2540268CD
:10A90C0053689468144DAA421FD07025AB430D6850
:10A91C002B4353600368104A934209D08022D2051E
:10A92C00934205D00D4A934202D00D4A934204D172
:10A93C00802294438A6814439C603D230122C254B4
:10A94C00013B0022C254002030BD064D2B404D6807
:10A95C002B43DAE70220F7E7002C0140000400400B
:10A96C0000400140FFFF0FFF10B53C23C35C012BDF
:10A97C0040D03C230122C2541F4BCA6813408A6842
:10A98C0013431E4A13404A6813431D4A13400A6876
:10A99C0013431C4A13400A6913431B4A13404A6968
:10A9AC0013431A4A13400A6B1343194A13408A691A
:10A9BC0012041343174A1340CA6913430268164C16
:10A9CC00A24205D053643C230022C254002010BD87
:10A9DC00124C23408C6A24052343114C23400C6AEF
:10A9EC002343104C23404C6A23430F4C2340C96A29
:10A9FC000B43E7E70220EAE7FFFCFFFFFFFBFFFF4B
:10AA0C00FFF7FFFFFFEFFFFFFFDFFFFFFFBFFFFFC2
:10AA1C00FFFFF0FFFFFFFFEF002C0140FFFF0FFFD8
:10AA2C00FFFFFFFEFFFFFFFDFFFFFFDF70477047DB
:10AA3C007047000030B5EFF31084012282F31088C8
:10AA4C0001680B68124D2B400B6084F31088EFF3F8
:10AA5C00108182F31088026893680E4C2340936037
:10AA6C0081F31088C36E012B06D08C232022C25098
:10AA7C000023C366436730BDEFF3108183F3108866
:10AA8C00026813681024A343136081F31088ECE769
:10AA9C00DFFEFFFFFEFFFFEFF8B5040001688368DF
:10AAAC000269134342691343C26913430A68AA48F3
:10AABC00024013430B6022685368A8490B40E168BD
:10AACC000B435360A1692268A54B9A4201D0236ABB
:10AADC0019439368A34803400B4393602268D36ADD
:10AAEC000F218B43616A0B43D36222689E4B9A42BF
:10AAFC000ED09E4B9A4248D09D4B9A4200D17BE09F
:10AB0C009C4B9A427AD0964B9A424FD010230BE032
:10AB1C00994B596D03230B40022B5FD031D8002B7E
:10AB2C005ED0012B5ED103338D498A4270D0E0692F
:10AB3C0080221202904200D1B4E0042B00D1FDE03F
:10AB4C0000D9E5E0002B00D1F1E0022B00D0DDE0D4
:10AB5C008A48636A5B008A4A995AFBF7DFFA636892
:10AB6C005B08C0186168FBF7D9FA0200103A854BF4
:10AB7C009A4200D9EDE023680004000CD860002054
:10AB8C00CCE0032B30D10533CEE77B4B596D0C2336
:10AB9C000B40082B2AD005D8002B29D0042BC3D06E
:10ABAC001023C1E70C2B25D1043BBDE7724B5B6D29
:10ABBC00C02109010B40802109018B4220D007D80C
:10ABCC00002B1FD08021C9008B421DD10423ABE781
:10ABDC00C02109018B4219D10823A5E70223A3E761
:10ABEC000023A1E710239FE710239DE702239BE797
:10ABFC00002399E7102397E7002395E7002393E7B9
:10AC0C00022391E700238FE710238DE710238BE7B6
:10AC1C00042B43D034D8002B39D0022B2ED1574DD6
:10AC2C00636A5B00564A9F5A39002800FBF776FA94
:10AC3C00666873009B19834200D982E03303834218
:10AC4C0000D280E03A00002328000021FBF716FC1C
:10AC5C00050E0B022B43020270080021801859418B
:10AC6C0032000023FBF70AFC474BC218474B9A42B1
:10AC7C0000D96AE02368D86000204FE001204DE045
:10AC8C00082B02D180252D02CAE7012046E0FDF7F2
:10AC9C007BFB0500002DC3D100203FE0FDF74CFAF3
:10ACAC000500F7E7042B2ED023D8002B25D0022B40
:10ACBC001DD13248636A5B00314A995AFBF72EFA70
:10ACCC00400063685B08C0186168FBF727FA020054
:10ACDC00103A2C4B9A423AD882B20F239A4340082E
:10ACEC00083B184010432368D860002016E0012070
:10ACFC0014E0082BDED0012010E0FDF745FB002806
:10AD0C00D8D100200AE0FDF717FAF8E7012005E09A
:10AD1C00082B02D1802000021BE7012001236A22AC
:10AD2C00A352023AA35200236367A367F8BDFDF751
:10AD3C002BFB002800D00CE70020EFE7FDF7FCF917
:10AD4C00F7E70120EAE70120E8E70120E6E7012028
:10AD5C00E4E70120E2E7C046F369FFCFFFCFFFFF36
:10AD6C0000800040FFF4FF11003801400044004017
:10AD7C0000480040004C0040001002400024F40049
:10AD8C00D0FA0008EFFF000000FDFFFFFFFC0F00F2
:10AD9C00836A1B0706D5026853682C490B40816BEC
:10ADAC000B435360836ADB0706D502685368284956
:10ADBC000B40C16A0B435360836A9B0706D502683C
:10ADCC00536824490B40016B0B435360836A5B0748
:10ADDC0006D50268536820490B40416B0B43536006
:10ADEC00836ADB0606D5026893681C490B40C16B6D
:10ADFC000B439360836A9B0606D5026893681849D7
:10AE0C000B40016C0B439360836A5B060BD50268A5
:10AE1C00536814490B40416C0B43536080235B0314
:10AE2C00426C9A420AD0836A1B0606D502685368A4
:10AE3C000D490B40C16C0B4353607047026853685B
:10AE4C000A490B40816C0B435360ECE7FF7FFFFF1B
:10AE5C00FFFFFDFFFFFFFEFFFFFFFBFFFFEFFFFF0D
:10AE6C00FFDFFFFFFFFFEFFFFFFFF7FFFFFF9FFF7E
:10AE7C00F8B5CE46474680B506000D00170099463A
:10AE8C00089B98463368DC692C40641B63425C4128
:10AE9C00BC4233D143460133F4D0FDF7BFFF4B46E0
:10AEAC00C01A40452FD84346002B2ED033681A6861
:10AEBC005207E7D5802DE5D0402DE3D0DA69120793
:10AECC0010D4DA691205DDD5802212011A62300025
:10AEDC00FFF7B0FD90232022F2500C3B0022F254DD
:10AEEC0003200CE008241C623000FFF7A3FD902324
:10AEFC00F4500C3B0022F254012000E00020C0BCB6
:10AF0C00B946B046F8BD0320F9E70320F7E7000087
:10AF1C0030B583B0040090230022C250FDF77EFFB1
:10AF2C00050022681268130710D423681B685B079E
:10AF3C002BD420238822A3500432A3500023E36691
:10AF4C002367083AA354002003B030BD8021234B63
:10AF5C0000930300002289032000FFF789FF0028DB
:10AF6C00E3D0EFF31081012383F310882268136878
:10AF7C0080208343136081F3108888232022E250C1
:10AF8C00043B0022E2547D38DEE78021134B009312
:10AF9C002B000022C9032000FFF76AFF0028C8D04D
:10AFAC00EFF31080012282F3108821680B680C4D9E
:10AFBC002B400B6080F31088EFF3108082F3108825
:10AFCC0021688B6893438B6080F310888C231F322D
:10AFDC00E250083B0022E2540320B5E7FFFFFF01DB
:10AFEC00DFFEFFFF10B5041E35D08823C358002B9D
:10AFFC0027D088232422E2502268136801218B4336
:10B00C001360A36A002B22D12000FFF745FD012815
:10B01C0016D02268536811490B405360226893681C
:10B02C0022218B439360226893681A390B439360F7
:10B03C002268136807390B4313602000FFF768FF81
:10B04C0010BD84330022C254FCF7A0FDD1E72000D0
:10B05C00FFF79EFED8E70120F2E7C046FFB7FFFFDF
:10B06C00F8B50400436E002B05D101336A228352DC
:10B07C00023A8352F8BD026895686D0E07231D4095
:10B08C009268520F1340084FF85CC000074EF15CF9
:10B09C00FBF7CEF86A23E052785DC000715DFBF7D8
:10B0AC00C7F86823E052E5E7F0FA0008E8FA000870
:10B0BC0070B58423C35C012B15D08424012606555E
:10B0CC00882524234351026813681168B143116029
:10B0DC00064A13400022426601680B60202343514C
:10B0EC000255002070BD0220FCE7C046FFFFFFDFC9
:10B0FC00F8B504000A008423C35C012B1BD0842503
:10B10C000120605588262423A35123681F681968E1
:10B11C008143196020688368DB00D9081143816082
:10B12C002000FFF79DFF23681F602023A3510023FD
:10B13C0063550020F8BD0220FCE70000F8B50400C0
:10B14C000B008422825C012A1BD0842501206055CF
:10B15C0088262422A2512268176811688143116045
:10B16C002268916808480140194391602000FFF75C
:10B17C0077FF23681F602023A35100236355002011
:10B18C00F8BD0220FCE7C046FFFFFFF103689A6997
:10B19C00920701D500229A6203689A69D20703D4F8
:10B1AC009A6901210A439A617047000010B589051C
:10B1BC00890D120411431943029B19434900490894
:10B1CC00046862685B0D8020C000034002480343A2
:10B1DC009A431143616010BDFF63FF03F0B5C6468F
:10B1EC0000B504000D00170001688B6910221600D1
:10B1FC001E401A4200D175E01023CB610023984603
:10B20C00002623689869820631D4002E2FD16B1C3E
:10B21C00F7D0FDF703FEC01BA84201D8002DF0D1DA
:10B22C0021684B688022D20113404222A25CD2B228
:10B23C008869000403D5002B01D1202A0ED1236884
:10B24C009B699B06DDD4FDF7E9FDC01B1928F6D9D7
:10B25C00202342461A4390460126D2E74A688023AF
:10B26C00DB0113434B60FDF7D9FD0700E7E7002E28
:10B27C0001D12022DA610426434633431E00012506
:10B28C0022689369D90504D501210E43FF31D161A0
:10B29C0001255A0506D50822164322688021C900CB
:10B2AC00D16101259B051FD502231E4323688022F3
:10B2BC009200DA6101252000FFF768FF22685368CD
:10B2CC000B490B405360636C1E4366644123202280
:10B2DC00E25400232232A354023AA354280080BC27
:10B2EC00B846F0BD0025CBE7002DF7D0E3E7C0460C
:10B2FC0000E800FE70B504000D00160023689B6981
:10B30C009B0720D4320029002000FFF767FF00289C
:10B31C001BD16B1CF2D0FDF781FD801BA84201D81C
:10B32C00002DEBD123689B699B07E7D4636C20222B
:10B33C00134363644123E25400232232A354023AA0
:10B34C00A354012000E0002070BD0120FCE7F0B503
:10B35C00D6464F4680B583B007000D0016009946BF
:10B36C000A9B9A463B689C692C40641B63425C4177
:10B37C000196B44228D1524649463800FFF72EFFB9
:10B38C00002827D14B460133ECD0FDF747FD53463F
:10B39C00C01A484502D84B46002BE3D13B689B6949
:10B3AC002B405B1B5A425341019A9342DAD17B6C7E
:10B3BC00202213437B644123FA5400232232BB54D2
:10B3CC00023ABB54012000E0002003B0C0BCBA46D6
:10B3DC00B146F0BD0120F8E770B582B0040015004D
:10B3EC001E008023F2B2194800905B042000FFF786
:10B3FC00DDFE079A06992000FFF77CFF00281ED17E
:10B40C00012E0ED12368EDB29D62079B0093069B23
:10B41C00002280212000FFF79AFF002813D102B0F0
:10B42C0070BD23682A0A9A62079A06992000FFF7D2
:10B43C0061FF002805D12368EDB29D62E5E701208C
:10B44C00EDE70120EBE70120E9E7C0460020008092
:10B45C0070B582B0040015001E00DAB2184B0093D0
:10B46C000023FFF7A3FE079A06992000FFF742FF7F
:10B47C0000281ED1012E0ED12368EDB29D62079BD0
:10B48C000093069B002240212000FFF760FF00285C
:10B49C0013D102B070BD23682A0A9A62079A0699E2
:10B4AC002000FFF727FF002805D12368EDB29D622D
:10B4BC00E5E70120EDE70120EBE70120E9E7C046D5
:10B4CC000020008070B504000D00160003E0236816
:10B4DC009B699B0612D523689B699B061BD4320083
:10B4EC0029002000FFF77AFE002816D1FDF796FC04
:10B4FC00801BA842EBD8002DEDD1E8E7636C20222D
:10B50C00134363644123E25400232232A354023ACE
:10B51C00A354012000E0002070BD0120FCE70000D6
:10B52C0010B5041E60D04123C35C002B48D04123CE
:10B53C002422E2542268136801218B431360226891
:10B54C002A4B61680B4013612268936828490B40B1
:10B55C009360E368012B39D0226884231B02A16815
:10B56C000B439360E368022B37D022685368214960
:10B57C000B405360226851681F4B0B435360226889
:10B58C00D3681B490B40D360236962691343A269DA
:10B59C00120221681343CB602268E369216A0B43D2
:10B5AC0013602268136801210B431360002363644A
:10B5BC0041221F31A15423630132A354002010BD3A
:10B5CC0040330022C254FCF7EDF9B0E72268802327
:10B5DC001B02A1680B439360C4E722685168802367
:10B5EC001B010B435360C5E70120E8E7FFFFFFF0A9
:10B5FC00FF7FFFFFFFF7FFFF00800002F0B587B071
:10B60C0004000391049205930CAB20CB1F884123BB
:10B61C00C35C202B00D0B3E0002D18D0002F16D027
:10B62C004023C35C012B00D1ADE040230122C25466
:10B63C00FDF7F4FB0600802100901923012209027A
:10B64C002000FFF784FE002806D0012099E080231B
:10B65C009B006364012094E041232122E2540133D6
:10B66C001F32E2540023636465626785636301964D
:10B67C000E9B0093059B049A03992000FFF7ACFEE8
:10B68C0000280FD1638D9BB2FF2B10D9FF2323858C
:10B69C007F3B002200925B04FF3203992000FFF7EE
:10B6AC0085FD21E040230022E254012069E0628DF7
:10B6BC0092B222858023D2B2002100919B0403997F
:10B6CC002000FFF773FD0FE0628D92B2228580237C
:10B6DC00D2B2002100919B0403992000FFF766FD74
:10B6EC00638D9BB2002B34D032000E992000FFF7F3
:10B6FC0001FE002849D12368626A12789A62636A53
:10B70C0001336362638D013B9BB26385238D013BE7
:10B71C009BB22385628D92B2002AE1D0002BDFD13F
:10B72C0000960E9B002280212000FFF710FE0028BF
:10B73C002DD1638D9BB2FF2BC6D9FF2323857F3B75
:10B74C00002200925B04FF3203992000FFF72EFDCC
:10B75C00C6E732000E992000FFF7B4FE002818D17E
:10B76C0023682022DA6121684B680B4D2B404B601B
:10B77C004123E25400232232A354023AA35400E0A2
:10B78C00022007B0F0BD0220FBE70120F9E7012001
:10B79C00F7E70120F5E7C04600E800FEF0B587B0FA
:10B7AC0004000391049205930CAB20CB1F8841231A
:10B7BC00C35C202B00D0B5E0002D18D0002F16D084
:10B7CC004023C35C012B00D1AFE040230122C254C3
:10B7DC00FDF724FB060080210090192301220902A9
:10B7EC002000FFF7B4FD002806D001209BE0802349
:10B7FC009B006364012096E041232222E254013332
:10B80C001E32E254002363646562678563630196AC
:10B81C000E9B0093059B049A03992000FFF718FEDA
:10B82C0000280FD1638D9BB2FF2B10D9FF232385EA
:10B83C007F3B424A00925B04FF2203992000FFF7F2
:10B84C00B5FC21E040230022E25401206BE0628D24
:10B85C0092B222858023D2B2384900919B0403997D
:10B86C002000FFF7A3FC0FE0628D92B222858023AB
:10B87C00D2B2002100919B0403992000FFF796FCA3
:10B88C00638D9BB2002B36D000960E9B00220421B8
:10B89C002000FFF75CFD002849D123685B6A626ACF
:10B8AC001370636A01336362238D013B9BB2238562
:10B8BC00628D013A92B26285628D92B2002ADFD01B
:10B8CC00002BDDD100960E9B002280212000FFF77B
:10B8DC003EFD00282DD1638D9BB2FF2BC4D9FF23D5
:10B8EC0023857F3B002200925B04FF3203992000EA
:10B8FC00FFF75CFCC4E732000E992000FFF7E2FD75
:10B90C00002818D123682022DA6121684B680C4D7D
:10B91C002B404B604123E25400232232A354023AC1
:10B92C00A35400E0022007B0F0BD0220FBE7012089
:10B93C00F9E70120F7E70120F5E7C0460024008075
:10B94C0000E800FEF0B54123C35C202B20D120334E
:10B95C00C35C012B1ED04024012202554125242317
:10B96C0043550668336893433360066833680A4F5F
:10B97C003B403360066833681943316001680B68DB
:10B98C0013430B6020234355002303550020F0BDC7
:10B99C000220FCE70220FAE7FFEFFFFFF0B541239E
:10B9AC00C35C202B1ED12033C35C012B1CD0402444
:10B9BC0001220255412524234355066833689343DD
:10B9CC00336006683368094F3B4009021943316004
:10B9DC0001680B6813430B60202343550023035568
:10B9EC000020F0BD0220FCE70220FAE7FFF0FFFF89
:10B9FC00014B024A9A60704700ED00E000600008BD
:10BA0C0010B503000C4A0D49521A0D49096800295A
:10BA1C0007D00B490868C318934206D8084A13602C
:10BA2C0010BD074907480860F3E702F0C7FB0C2379
:10BA3C00036001204042F3E7009000200004000066
:10BA4C00C8030020705100200120704710B502F08F
:10BA5C00B5FB162303600120404210BD10B5012137
:10BA6C004942FFF7F3FFFEE770B50C001600002506
:10BA7C0004E000E000BF207001350134B542F8DB72
:10BA8C00300070BD01204042704780239B014B6009
:10BA9C00002070470120704700207047F8B5CE4653
:10BAAC00474680B50600002398460AE04346023319
:10BABC00DB009F5923E0454800F09AFF01239C4688
:10BACC00E0444346002BF1DDC0BCB946B046F8BD9E
