:020000040800F2
:106000000090002015BE0008A5690008B5690008C9
:106010000000000000000000000000000000000080
:10602000000000000000000000000000C56900083A
:106030000000000000000000C7690008C9690008EE
:1060400065BE000865BE000865BE000865BE0008A4
:1060500065BE000865BE0008E1BD000865BE000819
:1060600065BE0008F9BD000865BE000865BE0008F1
:1060700065BE000865BE000865BE000865BE000874
:1060800065BE000865BE000865BE000865BE000864
:1060900065BE000865BE000865BE000865BE000854
:1060A00065BE000865BE000865BE000865BE000844
:0C60B00065BE000865BE000865BE000863
:1060BC000023C25C0133002AFBD1581E704700003C
:1060CC0003B47146490840004900095E49008E44FA
:1060DC0003BC7047002243088B4274D303098B42E4
:1060EC005FD3030A8B4244D3030B8B4228D3030C9C
:1060FC008B420DD3FF22090212BA030C8B4202D33E
:10610C001212090265D0030B8B4219D300E0090A65
:10611C00C30B8B4201D3CB03C01A5241830B8B426E
:10612C0001D38B03C01A5241430B8B4201D34B0357
:10613C00C01A5241030B8B4201D30B03C01A5241BC
:10614C00C30A8B4201D3CB02C01A5241830A8B4241
:10615C0001D38B02C01A5241430A8B4201D34B022A
:10616C00C01A5241030A8B4201D30B02C01A52418E
:10617C00CDD2C3098B4201D3CB01C01A5241830942
:10618C008B4201D38B01C01A524143098B4201D37C
:10619C004B01C01A524103098B4201D30B01C01AA7
:1061AC005241C3088B4201D3CB00C01A5241830821
:1061BC008B4201D38B00C01A524143088B4201D34E
:1061CC004B00C01A5241411A00D2014652411046AE
:1061DC007047FFE701B5002000F0F0F802BDC046A3
:1061EC000029F7D076E7704703460B437FD4002293
:1061FC0043088B4274D303098B425FD3030A8B424F
:10620C0044D3030B8B4228D3030C8B420DD3FF22B8
:10621C00090212BA030C8B4202D31212090265D086
:10622C00030B8B4219D300E0090AC30B8B4201D339
:10623C00CB03C01A5241830B8B4201D38B03C01A80
:10624C005241430B8B4201D34B03C01A5241030BF7
:10625C008B4201D30B03C01A5241C30A8B4201D3A8
:10626C00CB02C01A5241830A8B4201D38B02C01A53
:10627C005241430A8B4201D34B02C01A5241030ACA
:10628C008B4201D30B02C01A5241CDD2C3098B42AF
:10629C0001D3CB01C01A524183098B4201D38B012C
:1062AC00C01A524143098B4201D34B01C01A5241CF
:1062BC0003098B4201D30B01C01A5241C3088B4214
:1062CC0001D3CB00C01A524183088B4201D38B00FF
:1062DC00C01A524143088B4201D34B00C01A5241A1
:1062EC00411A00D201465241104670475DE0CA0F78
:1062FC0000D04942031000D34042534000229C4638
:10630C0003098B422DD3030A8B4212D3FC22890141
:10631C0012BA030A8B420CD3890192118B4208D317
:10632C00890192118B4204D389013AD0921100E079
:10633C008909C3098B4201D3CB01C01A524183098D
:10634C008B4201D38B01C01A524143098B4201D3BA
:10635C004B01C01A524103098B4201D30B01C01AE5
:10636C005241C3088B4201D3CB00C01A524183085F
:10637C008B4201D38B00C01A5241D9D243088B42B5
:10638C0001D34B00C01A5241411A00D20146634658
:10639C0052415B10104601D34042002B00D54942BC
:1063AC00704763465B1000D3404201B5002000F0FB
:1063BC0005F802BD0029F8D016E770477047C046B3
:1063CC00844608006146FFE71FB507F097FC0028DC
:1063DC0001D40021C8421FBD10B507F01FFC40427C
:1063EC00013010BD10B507F089FC002801DB00203E
:1063FC0010BD012010BDC04610B507F07FFC002871
:10640C0001DD002010BD012010BDC04610B507F005
:10641C002DFC002801DC002010BD012010BDC04661
:10642C0010B507F023FC002801DA002010BD012074
:10643C0010BDC046002B11D1002A0FD1002900D16C
:10644C00002802D00021C943080007B4024802A169
:10645C004018029003BDC04665FFFFFF03B46846B9
:10646C0001B5029806F0EAFF019B9E4602B00CBCF7
:10647C007047C0461C2101231B04984201D3000C19
:10648C0010391B0A984201D3000A08391B0998429B
:10649C0001D30009043902A2105C40187047C046B1
:1064AC0004030202010101010000000000000000D1
:1064BC0010B5002903D1FFF7DDFF203002E0080002
:1064CC00FFF7D8FF10BDC0460448054B10B58342FA
:1064DC0003D0044B002B00D0984710BD0C010020BA
:1064EC000C0100200000000006480749091A8B1017
:1064FC00C90FC91810B5491003D0044B002B00D09C
:10650C00984710BD0C0100200C0100200000000079
:10651C0010B5074C2378002B09D1FFF7D5FF054B9D
:10652C00002B02D0044800E000BF0123237010BDF3
:10653C000C01002000000000A0E50008054B10B580
:10654C00002B03D00449054800E000BFFFF7CCFF47
:10655C0010BDC0460000000010010020A0E500089E
:10656C0082B0054A916B012319439163926B1340DE
:10657C000193019B02B0704700100240F0B5DE465B
:10658C0057464E464546E0B58BB005AC142200216B
:10659C00200005F00DFF454B596B20221143596328
:1065AC00596B0A400092009A5A6B022188460A43A2
:1065BC005A635A6B0A400192019A5A6B0126324374
:1065CC005A635A6B32400292029A5A6B04252A4340
:1065DC005A635A6B2A400392039A5A6B06318A46C5
:1065EC000A435A635B6B0B400493049B304B9B46F2
:1065FC000022B831180001F0EDF9A027FF050022A8
:10660C008021C900380001F0E5F90122802109023E
:10661C00380001F0DFF9274B9946002206211800BB
:10662C0001F0D8F90595434663600025A560E66046
:10663C0025612100204801F013F9C0230593666001
:10664C00A560E5602100584601F00AF98023DB00C3
:10665C0005936660A560E5602100380001F000F943
:10666C0080231B0205936660A5604346E36021000E
:10667C00380001F0F5F8062305936660A560E56027
:10668C002100484601F0ECF85346059384239B0304
:10669C006360A6602100484601F0E2F80BB0F0BC44
:1066AC00BB46B246A946A046F0BDC046001002400B
:1066BC0000080050000C00500014005072B6FEE7A9
:1066CC0010B51048104B036082235B00436000231D
:1066DC008360E022D200C260036143618022920099
:1066EC008261F93AFF3AC261036243628362072115
:1066FC00C1620363426301F007FB002800D110BDA7
:10670C00FFF7DCFFC00200200030014010B5174835
:10671C00174B0360174B436000238360C360036116
:10672C000C2242618361C36103624362836202F0A3
:10673C0027FB002811D10D48002102F0A9FB0028ED
:10674C000DD10A48002102F0C9FB002809D10748E5
:10675C0002F07CFB002806D110BDFFF7AFFFFFF75E
:10676C00ADFFFFF7ABFFFFF7A9FFC04628010020E4
:10677C000038014080841E0000B59DB0102200211D
:10678C0018A805F015FE0C22002115A805F010FE26
:10679C001C2200210EA805F00BFE3422002101A8BA
:1067AC0005F006FE3048314B0360032343600023A1
:1067BC0083602F4AC26003614361836101F0EAFC8C
:1067CC00002844D180235B011893274818A901F0B5
:1067DC0031FE00283DD1244801F00CFD00283AD1AF
:1067EC0015A9002315934B608B601F4801F052FFD5
:1067FC00002832D10EA960230E9300234B608B60CE
:10680C00CB600B614B618B611748002201F064FD7A
:10681C00002824D101A9002301934B608B60CB602D
:10682C000B61802292014A618B61CB610B628022E9
:10683C0092044A628B62CB620B630B4801F06AFFD5
:10684C0000280ED1084800F0AFF91DB000BDFFF7CD
:10685C0035FFFFF733FFFFF731FFFFF72FFFFFF790
:10686C002DFFFFF72BFFC046BC010020002C014080
:10687C00FF03000010B51248124B0360124B43602B
:10688C00002383600122C260036143618361C361A1
:10689C00036202F017FD00280CD10948002102F018
:1068AC001BFF002808D10648002102F041FF0028F8
:1068BC0004D110BDFFF702FFFFF700FFFFF7FEFE4C
:1068CC002403002000580040B57DB11010B592B0E3
:1068DC0004AC38220021200005F06AFD10220021B2
:1068EC00684605F065FD8020800001F001F9022367
:1068FC0004938022520007920022089240210991B1
:10690C000B930C930D920E330E9380239B020F93DB
:10691C00E0231B051093C023DB051193200000F02E
:10692C00ADF900281BD1684607230093053B019362
:10693C00002302930393022100F08EFC002810D157
:10694C00094AD16880235B050B43D3608022A021C8
:10695C009205C904054800F0EDFB12B010BDFFF71D
:10696C00ADFEFFF7ABFEC046001002400400050070
:10697C0010B501F073F9FFF7A9FFFFF7FFFDFFF763
:10698C00EFFDFFF79DFEFFF7C1FEFFF7F5FEFFF7EA
:10699C0071FF05F08BF9FEE710B5024805F0F4FB2A
:1069AC00FEE7C04600E6000810B5024805F0ECFB17
:1069BC00FEE7C0460CE600087047704710B501F0C2
:1069CC0061F910BD00B583B0144B196C0122114351
:1069DC001964196C0A400092009ADA6B80214905FF
:1069EC000A43DA63DB6B0B400193019B0520002209
:1069FC000221404201F0F2F8022000220221404222
:106A0C0001F0ECF801F06CF9022001F05FF9C02004
:106A1C00C00001F06DF903B000BDC046001002408B
:106A2C0010B588B004001422002103A805F0C0FCA6
:106A3C002268114B9A4201D008B010BD0F4C626B0A
:106A4C0002231A436263626B13400193019B03A9F7
:106A5C00C0231B01039312234B600C3B0B610848B2
:106A6C0000F0FEFEE36B8022D2031343E363E36B7F
:106A7C0013400293029BDFE70058004000100240D5
:106A8C000004005030B589B004001422002103A882
:106A9C0005F08EFC2268294B9A4201D009B030BD1A
:106AAC00274B1A6C80256D012A431A641A6C2A40F4
:106ABC000192019A596B0222114359635B6B13408B
:106ACC000293029B03A9382303934A60CA601D48B2
:106ADC0000F0C6FE1C481D4B0360102343600023CE
:106AEC008360C3608022026143618361C36105627C
:106AFC0000F0A6FF00281BD1134BA3659C62144821
:106B0C00144B036011234360013B83600023C3607B
:106B1C008022026143618361C36180235B01036254
:106B2C0000F08EFF002806D1094B63659C62B5E727
:106B3C00FFF7C4FDE0E7FFF7C1FDF5E700300140CA
:106B4C0000100240000400506402002008000240C3
:106B5C00080200201C00024010B58EB00400342244
:106B6C00002101A805F024FC22680D4B9A4201D0AB
:106B7C000EB010BD80239B03019301A800F04CFCC8
:106B8C0000280AD1074B1A6C802109010A431A64A8
:106B9C001B6C0B400093009BEAE7FFF78FFDF1E7BE
:106BAC00002C01400010024010B586B004001422E5
:106BBC00002101A805F0FCFB22680D4B9A4201D084
:106BCC0006B010BD0B4A516B012319435163526B34
:106BDC0013400093009B01A980235B000193FE3BB3
:106BEC004B600B61A020C00500F03AFEE8E7C04600
:106BFC00002C01400010024010B594B00400142287
:106C0C0000210FA805F0D4FB3422002102A805F0C6
:106C1C00CFFB2268174B9A4201D014B010BD012350
:106C2C00029302A800F0F8FB002820D1124B1A6C3A
:106C3C008021C9010A431A641A6C0A400092009A16
:106C4C00596B0122114359635B6B13400193019BF8
:106C5C000FA980239B000F93FF3BFF3B4B608A6087
:106C6C00CA600A61A020C00500F0FAFDD5E7FFF765
:106C7C0025FDDBE7003801400010024070B582B002
:106C8C00041E00D131E20368DB0739D5C14A916893
:106C9C0038230B40D16803220A40102B26D0082B36
:106CAC0026D063688022520293427FD0A022D20267
:106CBC00934200D181E0B74B1A68B7490A401A6079
:106CCC001A68B6490A401A606368002B00D180E04C
:106CDC0000F0E4FF0500AF4B1B689B0310D400F0E1
:106CEC00DDFF401B6428F6D90320FFE1032AD6D12F
:106CFC00A84B1B689B0303D56368002B00D1F7E1FD
:106D0C0023689B0731D5A34A916838230B40D1687F
:106D1C0003220A40102B6AD0002B6BD19D4A1268BB
:106D2C00520503D5E268002A00D1E3E19948426894
:106D3C009B490A40616909020A434260002B0DD14C
:106D4C00036898490B4021690B4303600368DB0A15
:106D5C0007221A40944BD340944A1360944B186802
:106D6C0000F050FF002800D0C6E123681B0700D4B8
:106D7C0081E0884B9A6838231340182B73D0A36991
:106D8C00002B00D1B4E0834A136E01210B43136630
:106D9C0000F084FF05007F4B1B6E9B076BD400F04B
:106DAC007DFF401B0228F6D903209FE1794A116828
:106DBC0080235B020B43136086E7764B19688022B5
:106DCC00D2020A431A601968802252020A431A60DE
:106DDC007AE700F063FF05006E4B1B689B038FD5B1
:106DEC0000F05CFF401B6428F6D903207EE1022AE8
:106DFC0092D193E7E368002B22D0664A1368694965
:106E0C000B4021690B431360116880235B000B431B
:106E1C00136000F043FF05005E4B1B685B0506D456
:106E2C0000F03CFF401B0228F6D903205EE15949D3
:106E3C004B685B4A13406269120213434B6094E740
:106E4C00544A13685B490B40136000F027FF0500A0
:106E5C00504B1B685B0588D500F020FF401B0228B7
:106E6C00F6D9032042E14B4B1B6E9B0703D5A3695C
:106E7C00002B00D142E123685B0700D4A2E0454B14
:106E8C009A6838231340202B45D0424BDB6BDB0038
:106E9C004AD4404BDA6B802149050A43DA63DB6B39
:106EAC000B400193019B0125434B1B68DB053DD532
:106EBC00A368012B4ED0052B52D0364BDA6D012135
:106ECC008A43DA65DA6D03318A43DA65A368002BED
:106EDC0050D000F0E3FE06002E4BDB6D9B076FD409
:106EEC0000F0DCFE801B354B9842F5D90320FDE009
:106EFC00284A136E01218B43136600F0CFFE050068
:106F0C00244B1B6E9B07B6D500F0C8FE401B022815
:106F1C00F6D90320EAE01F4BDB6D9B0752D5A36823
:106F2C00002B4FD10120E1E00025BDE7224A11687A
:106F3C0080235B000B43136000F0B0FE06001E4B79
:106F4C001B68DB05B4D400F0A9FE801B0228F6D91F
:106F5C000320CBE00F4AD36D01210B43D365B5E77A
:106F6C000C4BDA6D04210A43DA65DA6D03390A43F6
:106F7C00DA65ABE700F092FE0600064BDB6D9B0773
:106F8C001ED500F08BFE801B0C4B9842F5D90320CC
:106F9C00ACE0C04600100240FFFFFEFFFFFFFBFF0E
:106FAC00FF80FFFFFFC7FFFF0024F4000C00002050
:106FBC0008000020FFFEFFFF007000408813000057
:106FCC00012D1ED0E369002B00D199E0544A916841
:106FDC0038220A40102A60D0022B18D0504A13686D
:106FEC0050490B40136000F059FE04004C4B1B68D9
:106FFC009B014BD500F052FE001B0228F6D9032052
:10700C0074E0474AD36B48490B40D363DAE7444AF0
:10701C00136844490B40136000F040FE0500404BE0
:10702C001B689B0106D500F039FE401B0228F6D9DF
:10703C0003205BE03A4AD3683C491940236A606AF2
:10704C000343A06A00020343E06A0343206B03433B
:10705C00606B03430B43D360116880235B040B43C9
:10706C001360D16880235B050B43D36000F016FEE0
:10707C0004002B4B1B689B0106D400F00FFE001B79
:10708C000228F6D9032031E000202FE0244AD368EF
:10709C0027490B40D360002028E0012B32D0204B35
:1070AC00DA6803231340216A8B422DD170231340DD
:1070BC00616A8B422AD1FE21C9011140A36A1B02CD
:1070CC00994225D1F8239B031340E16A8B4221D1CD
:1070DC00E0231B051340216B8B421DD1520F52072D
:1070EC00636B9A421AD1002000E0012002B070BDFF
:1070FC000120FBE70120F9E70120F7E70120F5E784
:10710C000020F3E70120F1E70120EFE70120EDE794
:10711C000120EBE70120E9E70120E7E70120E5E7A3
:10712C0000100240FFFFFFFEFFFFFFEF8C80C1113C
:10713C00FCFFFEEEF0B589B003000091019203A9AB
:10714C0002224A600132CA6000228A6080267605DB
:10715C000640000C0F320240A020400310188002A1
:10716C000D4D6F6B0124944022003A436A631A045C
:10717C00120C03921B0DFF2213400B6100F070FBED
:10718C00002E07D1AB6805490B40009C01990C43BC
:10719C001C43AC6009B0F0BD00100240FFFFFF883B
:1071AC0010B52A4B9B6838221A4207D1274B1A6814
:1071BC00D20A072313402648D84010BD234B9A68A7
:1071CC0038231340082B3BD0204B9A6838231340AC
:1071DC00102B0DD01D4B9A6838231340202B31D027
:1071EC001A4B9A6838231340182B26D00020E4E75A
:1071FC00164AD1680D3B0B40D26812090721114089
:10720C000131032B0FD01248FEF764FF0F4BDA68E5
:10721C00120A7F23134058430C4BD968490F013194
:10722C00FEF758FFC9E70B48FEF754FF074BDA6827
:10723C00120A7F2313405843EEE7FA20C001BCE743
:10724C000448BAE780200002B7E7C04600100240AD
:10725C000024F400001BB70070B504000D000028DA
:10726C0000D1AAE0574B1A68072313408B4221D355
:10727C0023689A070ED55B0705D5534A9168E0231E
:10728C00DB010B439360504A936850490B40A16853
:10729C000B4393602368DB0754D56368012B20D024
:1072AC00022B3BD0002B3FD1474A126852051CD40D
:1072BC0001206AE0434A136807218B432B43136078
:1072CC0000F0ECFC06003F4B1A6807231340AB425E
:1072DC00CED000F0E3FC801B3D4A9042F3D9032052
:1072EC0053E0394A1268920369D537498A680720F6
:1072FC00824313438B6000F0D1FC0600324B9B6839
:10730C0038221A406368DB009A421BD000F0C6FC9E
:10731C00801B2F4B9842F1D9032036E02A4A126881
:10732C009201E2D4012030E0032B05D0264AD26D25
:10733C009207DAD4012028E0234A126E9207D4D4A3
:10734C00012022E01F4B1A6807231340AB421DD8C3
:10735C0023685B0706D51C4A93681E490B40E168FD
:10736C000B439360FFF71CFF174B9A68120A0F230D
:10737C001340194A9B009A581F231340D840174BAF
:10738C001860174B186800F03DFC70BD0D4A13686F
:10739C0007218B432B43136000F080FC0600094B44
:1073AC001A6807231340AB42D2D000F077FC801B45
:1073BC00074B9842F3D90320E7E70120E5E70120CA
:1073CC00E3E7C0460020024000100240FFF0FFFF40
:1073DC0088130000FF8FFFFFA4F400080C000020AE
:1073EC0008000020014B18687047C0460C000020B4
:1073FC0010B5FFF7F7FF064B9A68120B07231340E3
:10740C00044A9B009A581F231340D84010BDC04615
:10741C000010024084F40008F0B583B00400036847
:10742C009B0362D5814BDB6BDB001ED47F4BDA6B8D
:10743C00802149050A43DA63DB6B0B400193019B06
:10744C0001267B4A116880235B000B43136000F01C
:10745C0025FC0500764B1B68DB0508D400F01EFCF0
:10746C00401B0228F6D9032502E00026E9E7002597
:10747C00002D23D16D4BD96DC02292000B0013400F
:10748C00114212D0226B9A420DD0684AD36D6949D1
:10749C000B40D06D802149020143D165D16D664806
:1074AC000140D165D365DB0710D4002D06D15F4AAE
:1074BC00D36D60490B40216B0B43D365012E15D165
:1074CC005A4AD36B5D490B40D3630FE000F0E6FBE7
:1074DC000700564BDB6D9B07E7D400F0DFFBC01BAE
:1074EC00574B9842F5D90325DFE700252368DB07C6
:1074FC0006D54E4A536D03218B4361680B4353658C
:10750C0023689B0706D5494A536D0C218B43A16810
:10751C000B4353652368DB0606D5444A536D494932
:10752C000B40E1680B43536523689B0506D53F4A26
:10753C00536D45490B40A1690B43536523685B05AB
:10754C0006D53A4A536D41490B40E1690B435365EB
:10755C0023689B0606D5354A536D3D490B4021697E
:10756C000B43536523685B040BD5304A536D9B006A
:10757C009B08216A0B435365226A8023DB059A42E0
:10758C0039D023681B0306D5284A536D40218B4301
:10759C00616A0B43536523689B020BD5234A536DD9
:1075AC002C490B40A16A0B435365A26A8023DB0371
:1075BC009A4227D023685B020BD51C4A536D26498F
:1075CC000B40E16A0B435365E26A80235B049A42E9
:1075DC001FD023681B050BD5144A536D1F490B4054
:1075EC0061690B43536562698023DB019A4215D0B4
:1075FC00280003B0F0BD0D4AD16880235B020B4319
:10760C00D360BEE7094AD16880235B040B43D36087
:10761C00D0E7064AD1680B43D360DAE7034AD16856
:10762C0080235B020B43D360E2E7C04600100240AC
:10763C0000700040FFFCFFFFFFFFFEFFFFFFFFEFAE
:10764C0088130000FFF3FFFFFFFFF3FFFFFFCFFFE7
:10765C00FFCFFFFFFFFFBFFFFFFFFFFEFF3FFFFF5F
:10766C0030B5054C61690125294361610260BFF3A6
:10767C006F8F436030BDC04600200240084B5B69F1
:10768C00002B01DB00207047054B064A9A60064A26
:10769C009A605B69002B01DB0020F4E70120F2E724
:1076AC000020024023016745AB89EFCD70B5040083
:1076BC0000F0F4FA0500144B1B69DB0308D5631CBE
:1076CC00F9D000F0EBFA401BA042F4D303201AE0EF
:1076DC000D490A690D4B16001E400D4808611A42EF
:1076EC000CD1094B1B695B030CD5631CF9D000F062
:1076FC00D5FA401BA042F4D3032004E0054B5E6096
:10770C00012000E0002070BD00200240FAC3000000
:10771C00FBC3000078030020F8B507000C0015002F
:10772C001E00144B1B78012B22D0124B01221A7015
:10773C0000225A60FA208000FFF7B8FF00280DD114
:10774C00012F0FD02900200006F030FFFA20800016
:10775C00FFF7ACFF084A5369BB435361054B00224A
:10776C001A70F8BD2A0033002000FFF779FFEDE70F
:10777C000220F6E7780300200020024010B5FA2022
:10778C008000FFF793FF064B5969802212060A43CB
:10779C005A615B69002B01DB012010BD0020FCE766
:1077AC0000200240034A53690343802040021843DF
:1077BC005061704700200240044A5369044803405A
:1077CC00C9001943034B0B4353617047002002401F
:1077DC0007E0FFFF0200010070B504000E001E4B15
:1077EC001B78012B36D01C4B01221A7000225A60D8
:1077FC00FA208000FFF75AFF002827D1042363608A
:10780C002368042B14D001235B423360A568A36862
:10781C00E2689B18AB4214D960682900FFF7CCFFD3
:10782C00FA208000FFF742FF002809D10135EEE76E
:10783C000430FFF7B7FFFA208000FFF737FF05E0B1
:10784C003560064A536902218B435361024B002277
:10785C001A7070BD0220FCE7780300200020024063
:10786C00F0B5002359E086685F000324BC40A643B2
:10787C00CC68BC4034438460446894434E683609F9
:10788C00012232409A402243426056E0DE0808361C
:10789C00B600375805321A4092000F249440A74383
:1078AC000C69944022003A43325059E0032600E020
:1078BC000026A64034003C43424E183292009451AC
:1078CC003768EA433E00AE434C68E40201D53E0003
:1078DC002E433C4C266067683E0016404C68A40260
:1078EC0001D53E002E43374C66608426A7593E00D6
:1078FC0016404C68A40301D53E002E43314C84271E
:10790C00E6518026A65932404C68E40301D52A0082
:10791C0032432C4D80242A5101330C682200DA406A
:10792C004ED001229A40250015401442F4D04E68E6
:10793C0003243440013C012C95D94C68032222408D
:10794C00032A08D0C4685E000322B24094438A68BC
:10795C00B2402243C2604C6803222240022A95D0D6
:10796C0004685E0003221700B740BC434F683A40DE
:10797C00B240224302604C68C02292021442CBD027
:10798C009A0814001834A4000E4EA75903241C4066
:10799C00E4000F26A640B743A026F605B04287D0D8
:1079AC00094EB04208D0094EB04207D0084EB04242
:1079BC0000D17BE705267CE701267AE7022678E7EB
:1079CC00F0BDC046001802400004005000080050F2
:1079DC00000C0050002A01D0816170478162FCE7E5
:1079EC0010B50400036C9B08094A944663449B0041
:1079FC0043640368FF20184008381421FEF76AFB23
:107A0C00044BA3641F2318401E3B8340E36410BD4A
:107A1C00008200108008024042683F231340064A4F
:107A2C009A1892000265054A4265013B03221A40EE
:107A3C0001239340836570473F8200104009024048
:107A4C0070B5041E4DD00568274BE8181421FEF7BD
:107A5C0041FB8000206425230222E2542B68234A38
:107A6C0013402B6021680A68A368E068034320690F
:107A7C00034360690343A0690343E0690343206A3D
:107A8C00034313430B602000FFF7AAFFA268802377
:107A9C00DB019A4218D06168626C3F230B40136083
:107AAC00A36CE26C5A606368013B032B0FD9002373
:107ABC0023656365A3650023E36325220121A1549B
:107ACC00013AA354002070BD00236360E3E720005B
:107ADC00FFF7A2FF236D00221A60636DA26D5A603E
:107AEC00E9E70120EFE7C046F8FFFDBF0F80FFFF7D
:107AFC0010B5104A136810490B40034313608023E0
:107B0C009B00984201D0002010BD0C4B1B68580004
:107B1C00C01840000A49FEF7DDFA0130054B5B69DD
:107B2C005B0503D5002803D00138F7E70020EBE70D
:107B3C000320E9E700700040FFF9FFFF0C00002074
:107B4C0040420F0070B5002811DB8308134DC03381
:107B5C009B005C5903221040C000FC32160086408A
:107B6C00B44389010A40824022435A5170BD0F230D
:107B7C000340083B9B0806339B00094A9446634428
:107B8C005C6803221040C000FC3215008540AC43F9
:107B9C0089010A40824022435A60E7E700E100E095
:107BAC0000ED00E0013880235B0498420FD2094AB3
:107BBC0050600948036A1B021B0AC02109060B43CB
:107BCC000362002393600733136000207047012089
:107BDC00FCE7C04610E000E000ED00E010B5FFF758
:107BEC00B1FF10BD002805DB1F220240012393408A
:107BFC00014A13607047C04600E100E010B5FFF782
:107C0C00D1FF10BD10B50400114B1978002901D11A
:107C1C00012010BDFA208000FEF75CFA01000D4B2C
:107C2C001868FEF757FAFFF7E9FF00280DD1032C6F
:107C3C0001D90120EDE70130002221004042FFF77D
:107C4C00CDFF054B1C600020E3E70120E1E7C046B7
:107C5C00040000200C0000200800002010B5084A89
:107C6C00116880235B000B4313600220FFF7CAFFEF
:107C7C00041E02D00124200010BDFEF7A3FEFAE77B
:107C8C0000200240034B1B78034A11685B181360F9
:107C9C007047C0460400002094030020014B186874
:107CAC007047C0469403002070B50400FFF7F6FF40
:107CBC000500631C02D0044B1B78E418FFF7EEFFA1
:107CCC00401BA042FAD370BD04000020034A136885
:107CDC0002218B43034313607047C04630000140C0
:107CEC00024A136801218B43136070473000014036
:107CFC00034A136803490B40034313607047C046A3
:107D0C0000000140FFF9FFFF70B5041E00D178E0C0
:107D1C00436A002B07D142680533FF339A4205D0E2
:107D2C000023C36102E00023036143610023A362CB
:107D3C005D33E35C002B5AD05D230222E2542268AF
:107D4C00136840218B431360E368E022D200934216
:107D5C0054D90022F02109018B4205D0E021C90041
:107D6C008B4201D00023A3626368822149000B403F
:107D7C00A1688420000201400B43206902210140CC
:107D8C000B436069012108400343A0698025AD00C5
:107D9C0028400343E569382028400343256A8020A6
:107DAC0028400343A06A8025AD0128402568034381
:107DBC002B60608B04230340656A1020284003432A
:107DCC00656B082028400343E068F0252D0128400E
:107DDC0003432068134343602268D3690A48034075
:107DEC00D361002323665D33E154002070BD5C3306
:107DFC000022E2542000FEF745FE9DE7802252014E
:107E0C00A8E70120F2E7C046FFF7FFFF30B5056A8F
:107E1C00036A01229343036242688369194C23402D
:107E2C000C681C4302239D438B682B43164DA842C0
:107E3C0008D0164DA84205D0154DA84202D0154DBC
:107E4C00A84206D10825AB431D00CB682B43042563
:107E5C00AB430D4DA84208D00C4DA84205D00C4D9B
:107E6C00A84202D00B4DA84205D10B4D2A404D69BA
:107E7C0015438A692A43426084614A6842630362FB
:107E8C0030BDC0468CFFFEFF002C0140004001407D
:107E9C000044014000480140FFFCFFFF30B5046A7C
:107EAC00036A184A134003624268C369164D2B409B
:107EBC000D681D43154B1C408B681B022343144C4F
:107ECC00A04209D0134CA0420DD0134CA0420AD0B2
:107EDC00124CA0420FD106E0114C1C40CB681B0287
:107EEC002343104C2340104C22404C692401144372
:107EFC008A69120122434260C5614A68C263036207
:107F0C0030BDC046FFFEFFFF8CFFFEFFFFFDFFFFF5
:107F1C00002C014000400140004401400048014059
:107F2C00FFF7FFFFFFFBFFFFFFCFFFFF30B5046A3A
:107F3C00036A134A134003624368C269114D2A4015
:107F4C000D682D021543104A14408A68120322430F
:107F5C000E4CA04208D00E4CA04205D00D4CA042B5
:107F6C0002D00D4CA04204D10C4C1C404B699B011F
:107F7C0023434360C5614B680364026230BDC04655
:107F8C00FFEFFFFFFF8CFFFEFFDFFFFF002C014028
:107F9C00004001400044014000480140FFBFFFFF8A
:107FAC0030B5046A036A124A134003624368426D97
:107FBC00104D2A400D6815430F4A14408A6812046C
:107FCC0022430E4CA04208D00D4CA04205D00D4CC3
:107FDC00A04202D00C4CA04204D1054C1C404B6971
:107FEC001B022343436045654B688365026230BDC9
:107FFC00FFFFFEFF8FFFFEFFFFFFFDFF002C014088
:10800C0000400140004401400048014030B5046A82
:10801C00036A134A134003624368426D114D2A40B0
:10802C000D682D021543104A14408A68120522432C
:10803C000E4CA04208D00E4CA04205D00D4CA042D4
:10804C0002D00D4CA04204D10C4C1C404B699B023D
:10805C002343436045654B68C365026230BDC0462F
:10806C00FFFFEFFFFF8FFFFEFFFFDFFF002C014044
:10807C00004001400044014000480140FFFFFBFF6D
:10808C0030B5036A046A0125AC4304628469EF3598
:10809C00AC43120122430A24A3430B4382610362C3
:1080AC0030BD000030B5036A046A1025AC4304628D
:1080BC008469054D2C4012032243A024A3430901DB
:1080CC0019438261016230BDFF0FFFFF8368034AD1
:1080DC0013400B4307221343836070478FFFCFFF7E
:1080EC00704700000368244A904206D08022D205D3
:1080FC00904202D0214A904203D1702293434A68A5
:10810C0013431D4A904212D08022D20590420ED0C9
:10811C001A4A90420BD01A4A904208D0194A9042FF
:10812C0005D0194A904202D0184A904203D1184AFD
:10813C001A40CB681343802293434A69134303606C
:10814C008B68C3620B6883620B4B984208D00D4B53
:10815C00984205D00C4B984202D00C4B984201D15E
:10816C000B690363012343610269134203D0036962
:10817C000122934303617047002C0140000400402E
:10818C0000200040004001400044014000480140F4
:10819C00FFFCFFFF70B5041E2AD03D23C35C002BEF
:1081AC0020D03D2502236355210001C9FFF79AFF1A
:1081BC0001234822A3540A3AA3540132A354013296
:1081CC00A3540132A3540132A3540132A3540132FB
:1081DC00A3540132A3540132A3540132A354635566
:1081EC00002070BD3C330022C254FEF7B5FCD8E72A
:1081FC000120F6E770B5041E2AD03D23C35C002B8A
:10820C0020D03D2502236355210001C9FFF76AFFE9
:10821C0001234822A3540A3AA3540132A354013235
:10822C00A3540132A3540132A3540132A35401329A
:10823C00A3540132A3540132A3540132A354635505
:10824C00002070BD3C330022C254FFF749FFD8E731
:10825C000120F6E770B5026A036A1024A343036297
:10826C0044688369164D2B400D682D021D43202355
:10827C009A438B681B011343124A904209D0124A4D
:10828C0090420ED0114A90420BD0114A904210D11C
:10829C0007E0802293431E00CB681B013343403A16
:1082AC0093430C4A14404A69920022438C69A400FF
:1082BC001443446085614A688263036270BDC046A2
:1082CC00FF8CFFFE002C01400040014000440140A7
:1082DC0000480140FFF3FFFF70B504000D003C2384
:1082EC00C35C012B00D192E03C230121C154142A20
:1082FC0000D987E09200474B9B589F4600682900A5
:10830C00FFF784FD2268936908210B43936122686F
:10831C00936904398B4393612268936929690B43F0
:10832C00936100206FE000682900FFF793FF22683B
:10833C00916980231B010B43936122689369364931
:10834C000B40936121688B692A69120213438B617C
:10835C00002058E000682900FFF7A0FD2268D369CF
:10836C0008210B43D3612268D36904398B43D36151
:10837C002268D36929690B43D361002043E000686C
:10838C002900FFF7D3FD2268D16980231B010B4321
:10839C00D3612268D36920490B40D3612168CB6932
:1083AC002A6912021343CB6100202CE000682900DB
:1083BC00FFF7F6FD2268536D08210B4353652268C5
:1083CC00536D04398B4353652268536D29690B43F4
:1083DC005365002017E000682900FFF717FE22689C
:1083EC00516D80231B010B4353652268536D0A4961
:1083FC000B40536521684B6D2A69120213434B6580
:10840C00002000E001203C230022E25470BD022039
:10841C00FCE7C04680F30008FFFBFFFF30B5846823
:10842C00034D2C401B0213430B432343836030BD8D
:10843C00FF00FFFF10B504000B003C22825C012AF8
:10844C0000D177E03C220121815401320131815469
:10845C0001688A68384802408A60196860294FD0E0
:10846C0023D8402957D011D8202904D00AD8002964
:10847C0001D0102904D12068FFF728FE00202AE043
:10848C00012028E03029F6D0012024E050290AD11F
:10849C005968DA682068FFF7F3FD20685021FFF770
:1084AC0015FE002017E0012015E0802252019142B8
:1084BC003CD080229201914214D0702938D1996815
:1084CC005A68DB682068FFF7A9FF22689368772158
:1084DC000B43936000203D230122E254013B002218
:1084EC00E25410BD99685A68DB682068FFF796FF64
:1084FC00226891688023DB010B4393600020EAE73C
:10850C005968DA682068FFF7CDFD20686021FFF715
:10851C00DDFD0020DFE75968DA682068FFF7B0FD61
:10852C0020684021FFF7D2FD0020D4E70020D2E7DD
:10853C000120D0E70220D4E78800CEFF10B51F231E
:10854C00194001248C40036AA3430362036A8A40E6
:10855C001343036210BD000010B50400102926D887
:10856C008B00444AD3589F463E23C35C013B5A1EA2
:10857C009341DBB221E03F23C35C013B5A1E934184
:10858C00DBB21AE04023C35C013B5A1E9341DBB2C1
:10859C0013E04123C35C013B5A1E9341DBB20CE058
:1085AC004223C35C013B5A1E9341DBB205E04323DB
:1085BC00E35C013B5A1E9341DBB2002B54D11029D2
:1085CC0017D88B002C4AD3589F463E230222E254E4
:1085DC0012E03F230222E2540EE040230222E25436
:1085EC000AE041230222E25406E042230222E25432
:1085FC0002E043230222E25420680122FFF79EFF8F
:10860C0023681E4A934208D01D4A934205D01D4A46
:10861C00934202D01C4A934204D1596C802212021C
:10862C000A435A642368154A93420FD08022D2051C
:10863C0093420BD0154A934208D0114A934205D06D
:10864C001A6801210A431A6000200EE09A6810494A
:10865C000A40062A0AD007398A4209D01A68012131
:10866C000A431A60002000E0012010BD0020FCE746
:10867C000020FAE7D4F3000818F40008002C01409D
:10868C00004001400044014000480140000400400B
:10869C000700010030B53C23C35C012B30D03C23D8
:1086AC000122C25401330132C254026853689568E6
:1086BC00144CA2421FD07024A3430C682343536074
:1086CC000368104A934209D08022D205934205D008
:1086DC000D4A934202D00D4A934204D18022954315
:1086EC008A682A439A603D230122C254013B00222E
:1086FC00C254002030BD064C23404C682343DAE7BB
:10870C000220F7E7002C014000040040004001402B
:10871C00FFFF0FFF10B53C23C35C012B40D03C2363
:10872C000122C254CB681F4A13408A6813431E4A65
:10873C0013404A6813431D4A13400A6813431C4AEA
:10874C0013400A6913431B4A13404A6913431A4ADC
:10875C0013400A6B1343194A13408A6912041343DA
:10876C00174A1340CA6913430268164CA24205D03B
:10877C0053643C230022C254002010BD124C2340F1
:10878C008C6A24052343114C23400C6A2343104C60
:10879C0023404C6A23430F4C2340C96A0B43E7E741
:1087AC000220EAE7FFFCFFFFFFFBFFFFFFF7FFFFE5
:1087BC00FFEFFFFFFFDFFFFFFFBFFFFFFFFFF0FF3C
:1087CC00FFFFFFEF002C0140FFFF0FFFFFFFFFFE3D
:1087DC00FFFFFFFDFFFFFFDF30B5EFF31084012239
:1087EC0082F3108801680B68124D2B400B6084F3E8
:1087FC001088EFF3108182F31088026893680E4C96
:10880C002340936081F31088C36E012B06D08C2318
:10881C002022C2500023C366436730BDEFF31081A2
:10882C0083F31088026813681024A343136081F348
:10883C001088ECE7DFFEFFFFFEFFFFEFF8B504004A
:10884C0083680269134342691343C2691343016885
:10885C000A68A848024013430B6022685368A64973
:10886C000B40E1680B435360A1692268A34B9A4209
:10887C0001D0236A19439368A14803400B439360CA
:10888C002268D36A0F218B43616A0B43D36223683E
:10889C009C4A934222D09C4A934230D09B4A9342AA
:1088AC0064D09B4A934263D0944A934238D01022AE
:1088BC0092498B4266D0E06980231B02984200D11A
:1088CC00A7E0042A00D1F9E000D9D6E0002A00D1B3
:1088DC00DAE0022A00D0CEE08E48D9E08E4A516D03
:1088EC0003220A40022A33D005D8002A32D0012AAA
:1088FC0032D10332DCE7032A30D10532D8E7864A7D
:10890C00516D0C220A40082A2AD005D8002A29D0F9
:10891C00042ACDD01022CBE70C2A25D1043AC7E784
:10892C007D4A526DC02109010A40802109018A4209
:10893C0020D007D8002A1FD08021C9008A421DD11F
:10894C000422B5E7C02109018A4219D10822AFE7F8
:10895C000222ADE70022ABE71022A9E71022A7E71D
:10896C000222A5E70022A3E71022A1E700229FE73D
:10897C0000229DE702229BE7002299E7102297E74D
:10898C00102295E7042A40D007D8002A0CD0022ADE
:10899C0001D1604D0EE00120A2E0082A02D1802511
:1089AC002D0207E001209BE0FEF722FD0500002DC3
:1089BC0000D186E0626A594B5200D75A3900280020
:1089CC00FDF788FB666873009B1983427BD83303E1
:1089DC0083427AD33A00002328000021FDF72AFDB8
:1089EC00050E0B022B43020270080021801859411E
:1089FC0032000023FDF71EFD494BC218494B9A4229
:108A0C0065D82368D86000206AE0FEF7C9FB050032
:108A1C00CDE7042A2CD007D8002A09D0022A01D18C
:108A2C003C4809E001205BE0082A05D0012057E012
:108A3C00FEF7DEFC00284CD0626A384B5200D15A4B
:108A4C00FDF748FB400061684B08C018FDF742FB7E
:108A5C000200103A344B9A423DD882B20F239A430B
:108A6C004008083B034013432268D360002037E0E2
:108A7C00FEF796FBDEE7012032E0082A02D18020C7
:108A8C00000205E001202BE0FEF7B2FC002824D008
:108A9C00626A224B5200D15AFDF71CFB61684B08ED
:108AAC00C018FDF717FB0200103A1F4B9A4216D85C
:108ABC0023680004000CD860002011E0FEF770FB66
:108ACC00E4E700200CE001200AE0012008E001208E
:108ADC0006E0002004E0012002E0002000E001207C
:108AEC0001236A22A352023AA35200236367A367AD
:108AFC00F8BDC046F369FFCFFFCFFFFF00800040F9
:108B0C00FFF4FF11003801400044004000480040D1
:108B1C00004C00400024F400001002405CF40008FB
:108B2C0000FDFFFFFFFC0F00EFFF0000836A1B0737
:108B3C0006D5026853682C490B40816B0B4353607C
:108B4C00836ADB0706D50268536828490B40C16A63
:108B5C000B435360836A9B0706D50268536824490C
:108B6C000B40016B0B435360836A5B0706D50268AD
:108B7C00536820490B40416B0B435360836ADB06FF
:108B8C0006D5026893681C490B40C16B0B4393607C
:108B9C00836A9B0606D50268936818490B40016CE2
:108BAC000B439360836A5B060BD5026853681449C8
:108BBC000B40416C0B435360426C80235B039A4225
:108BCC000AD0836A1B0606D5026853680D490B4010
:108BDC00C16C0B4353607047026853680A490B40E1
:108BEC00816C0B435360ECE7FF7FFFFFFFFFFDFF42
:108BFC00FFFFFEFFFFFFFBFFFFEFFFFFFFDFFFFFAE
:108C0C00FFFFEFFFFFFFF7FFFFFF9FFFF8B5CE461B
:108C1C00474680B506000D0017009946089B9846FC
:108C2C003368DC692C40641B63425C41BC4233D129
:108C3C0043460133F4D0FFF731F84B46C01A404598
:108C4C002FD84346002B2ED0326813685B07E7D52C
:108C5C00802DE5D0402DE3D0D3691B0710D4D36908
:108C6C001B05DDD580231B0113623000FFF7B4FD1B
:108C7C0090232022F2500C3B0022F25403200CE0F3
:108C8C00082414623000FFF7A7FD9023F4500C3B2E
:108C9C000022F254012000E00020C0BCB946B046CE
:108CAC00F8BD0320F9E70320F7E7000030B583B0E7
:108CBC00040090230022C250FEF7F0FF0500236849
:108CCC001B681B0710D423681B685B072BD420235D
:108CDC008822A3500432A3500023E3662367083A8A
:108CEC00A354002003B030BD8021234B009303001C
:108CFC00002289032000FFF789FF0028E3D0EFF35F
:108D0C001081012383F31088226813688020834329
:108D1C00136081F3108888232022E250043B002248
:108D2C00E2547D38DEE78021134B00932B000022A8
:108D3C00C9032000FFF76AFF0028C8D0EFF31080AA
:108D4C00012282F3108821680B680C4D2B400B60BC
:108D5C0080F31088EFF3108082F3108821688B6801
:108D6C0093438B6080F310888C231F32E250083BB6
:108D7C000022E2540320B5E7FFFFFF01DFFEFFFFF7
:108D8C0010B5041E35D08823C358002B27D0882358
:108D9C002422E2502268136801218B431360A36ADA
:108DAC00002B22D12000FFF749FD012816D02268A4
:108DBC00536811490B4053602268936822218B43FE
:108DCC009360226893681A390B4393602268136886
:108DDC0007390B4313602000FFF768FF10BD843385
:108DEC000022C254FDF708FFD1E72000FFF79EFEDA
:108DFC00D8E70120F2E7C046FFB7FFFFF8B5040043
:108E0C00436E002B05D101336A228352023A8352FE
:108E1C00F8BD026895686D0E07231D409268520FCD
:108E2C001340084FF85CC000074EF15CFDF7DCF90D
:108E3C006A23E052785DC000715DFDF7D5F96823B7
:108E4C00E052E5E77CF4000874F4000870B5040007
:108E5C008423C35C012B19D08425012060558826FE
:108E6C002423A35122681368116881431160802266
:108E7C00920513436266226813602000FFF7BEFF61
:108E8C002023A35100236355002070BD0220FCE772
:108E9C00F8B504000A008423C35C012B1BD0842585
:108EAC000120605588262423A35123681F68196864
:108EBC008143196020688368DB00D9081143816005
:108ECC002000FFF79BFF23681F602023A351002382
:108EDC0063550020F8BD0220FCE70000F8B5040043
:108EEC000B008422825C012A1BD084250120605552
:108EFC0088262422A25122681768116881431160C8
:108F0C002268916808480140194391602000FFF7DE
:108F1C0075FF23681F602023A35100236355002095
:108F2C00F8BD0220FCE7C046FFFFFFF10268936921
:108F3C009B0701D50023936203689A69D20703D477
:108F4C009A6901210A439A617047000010B589059E
:108F5C00890D120411431943029B19434900490816
:108F6C00046862685B0D8020C00003400348034323
:108F7C009A4313000B43636010BDC046FF63FF03AD
:108F8C00F0B5C64600B504000D00170001688B69EA
:108F9C00102216001E401A4200D175E01023CB613E
:108FAC00002398460026206883699B0631D4002E46
:108FBC002FD16B1CF7D0FEF771FEC01BA84201D855
:108FCC00002DF0D121684B688022D201134042223F
:108FDC00A25CD2B28869000403D5002B01D1202AEF
:108FEC000ED123689B699B06DDD4FEF757FEC01B90
:108FFC001928F6D9202342461A4390460126D2E777
:10900C004A688023DB0113434B60FEF747FE0700E1
:10901C00E7E7002E01D12023C361042643463343E6
:10902C001E00012522689369D90504D501210E4340
:10903C00FF31D16101255A0506D508221643226855
:10904C008021C900D16101259B051FD502231E4338
:10905C00236880229200DA6101252000FFF766FF69
:10906C00226853680B490B405360636C3343636451
:10907C0041232022E25400232232A354023AA35467
:10908C00280080BCB846F0BD0025CBE7002DF7D0FA
:10909C00E3E7C04600E800FE70B504000D001600C2
:1090AC0023689B699B0720D4320029002000FFF71E
:1090BC0067FF00281BD16B1CF2D0FEF7EFFD801B65
:1090CC00A84201D8002DEBD123689B699B07E7D4FC
:1090DC00636C2022134363644123E2540023223245
:1090EC00A354023AA354012000E0002070BD0120DB
:1090FC00FCE7F0B5D6464F4680B583B007000D00AF
:10910C00160099460A9B9A463B689C692C40641B46
:10911C0063425C410196B44228D15246494638001C
:10912C00FFF72EFF002827D14B460133ECD0FEF77A
:10913C00B5FD5346C01A484502D84B46002BE3D127
:10914C003B689B692B405B1B5A425341019A9342EB
:10915C00DAD17B6C202213437B644123FA54002325
:10916C002232BB54023ABB54012000E0002003B071
:10917C00C0BCBA46B146F0BD0120F8E770B582B06C
:10918C00040015001E008023F2B2194800905B0405
:10919C002000FFF7DBFE079A06992000FFF77CFF03
:1091AC0000281ED1012E0ED12368EDB29D62079BC3
:1091BC000093069B002280212000FFF79AFF0028D5
:1091CC0013D102B070BD23682A0A9A62079A0699D5
:1091DC002000FFF761FF002805D12368EDB29D62E6
:1091EC00E5E70120EDE70120EBE70120E9E7C046C8
:1091FC000020008070B582B0040015001E00DAB2A9
:10920C00184B00930023FFF7A1FE079A0699200044
:10921C00FFF742FF00281ED1012E0ED12368EDB2BC
:10922C009D62079B0093069B002240212000FFF7C4
:10923C0060FF002813D102B070BD23682A0A9A621D
:10924C00079A06992000FFF727FF002805D123680D
:10925C00EDB29D62E5E70120EDE70120EBE701208F
:10926C00E9E7C0460020008070B504000D00160030
:10927C0003E023689B699B0612D523689B699B06B8
:10928C001BD4320029002000FFF77AFE002816D1EB
:10929C00FEF704FD801BA842EBD8002DEDD1E8E7CA
:1092AC00636C2022134363644123E2540023223273
:1092BC00A354023AA354012000E0002070BD012009
:1092CC00FCE7000010B5041E60D04123C35C002BEA
:1092DC0048D041232422E2542268136801218B4395
:1092EC001360636822682A490B40136122689368F3
:1092FC0028490B409360E368012B39D0A1682268A0
:10930C0084231B020B439360E368022B37D0226843
:10931C00536821490B405360226851681F4B0B4323
:10932C0053602268D3681B490B40D3602369626980
:10933C001343A269120221681343CB60E369216ACB
:10934C0022680B4313602268136801210B431360DE
:10935C000023636441221F31A15423630132A354BF
:10936C00002010BD40330022C254FDF759FBB0E77A
:10937C00A168226880231B020B439360C4E7226818
:10938C00516880231B010B435360C5E70120E8E7BC
:10939C00FFFFFFF0FF7FFFFFFFF7FFFF00800002E2
:1093AC00F0B587B004000391049205930CAB20CB6D
:1093BC001F884123C35C202B00D0AFE0002D18D0B8
:1093CC00002F16D04023C35C012B00D1A9E0402311
:1093DC000122C254FEF762FC060080210090192382
:1093EC00012209022000FFF784FE002806D001208C
:1093FC0095E080239B006364012090E041232122AF
:10940C00E25401331F32E2540023636465626785C2
:10941C00636301960E9B0093059B049A03992000AD
:10942C00FFF7ACFE00280ED1638DFF2B10D9FF2364
:10943C0023857F3B002200925B04FF3203992000BE
:10944C00FFF784FD20E040230022E254012066E077
:10945C00628D92B222858023D2B2002100919B04AE
:10946C0003992000FFF772FD0EE0628D92B2228507
:10947C008023D2B2002100919B0403992000FFF7B6
:10948C0065FD638D002B32D032000E992000FFF762
:10949C0003FE002847D1626A236812789A62636AD5
:1094AC0001336362638D013B9BB26385238D013B6A
:1094BC009BB22385628D002AE3D0002BE1D100966C
:1094CC000E9B002280212000FFF713FE00282CD1D8
:1094DC00638DFF2BC9D9FF2323857F3B002200928C
:1094EC005B04FF3203992000FFF730FDC9E732001F
:1094FC000E992000FFF7B8FE002818D1236820220F
:10950C00DA6121684B680B4D2B404B604123E254D0
:10951C0000232232A354023AA35400E0022007B0E5
:10952C00F0BD0220FBE70120F9E70120F7E701205D
:10953C00F5E7C04600E800FEF0B587B004000391E3
:10954C00049205930CAB20CB1F884123C35C202BCA
:10955C0000D0B1E0002D18D0002F16D04023C35CF2
:10956C00012B00D1ABE040230122C254FEF796FB45
:10957C000600802100901923012209022000FFF728
:10958C00B8FD002806D0012097E080239B0063647F
:10959C00012092E041232222E25401331E32E25494
:1095AC000023636465626785636301960E9B009379
:1095BC00059B049A03992000FFF71CFE00280ED18E
:1095CC00638DFF2B10D9FF2323857F3B404A0092EC
:1095DC005B04FF2203992000FFF7B8FC20E0402336
:1095EC000022E254012068E0628D92B22285802331
:1095FC00D2B2374900919B0403992000FFF7A6FCD7
:10960C000EE0628D92B222858023D2B200210091AD
:10961C009B0403992000FFF799FC638D002B34D039
:10962C0000960E9B002204212000FFF762FD00280B
:10963C0047D123685A6A636A1A70636A013363629A
:10964C00238D013B9BB22385628D013A92B26285D8
:10965C00628D002AE1D0002BDFD100960E9B0022F8
:10966C0080212000FFF745FD00282CD1638DFF2BB6
:10967C00C7D9FF2323857F3B002200925B04FF3276
:10968C0003992000FFF762FCC7E732000E99200017
:10969C00FFF7EAFD002818D123682022DA6121683F
:1096AC004B680C4D2B404B604123E254002322327B
:1096BC00A354023AA35400E0022007B0F0BD0220EC
:1096CC00FBE70120F9E70120F7E70120F5E7C046A9
:1096DC000024008000E800FEF0B54123C35C202B81
:1096EC0020D12033C35C012B1ED040240122025513
:1096FC004125242343550668336893433360066839
:10970C0033680A4F3B403360066833680B43336061
:10971C0001680B6813430B6020234355002303554A
:10972C000020F0BD0220FCE70220FAE7FFEFFFFF6C
:10973C00F0B54123C35C202B1ED12033C35C012B1D
:10974C001CD0402401220255412524234355066890
:10975C0033689343336006683368094F3B40090212
:10976C001943316001680B6813430B602023435588
:10977C00002303550020F0BD0220FCE70220FAE78D
:10978C00FFF0FFFF014B024A9A60704700ED00E0CA
:10979C000060000810B503000C4A0D49521A0D491F
:1097AC000968002907D00B490868C318934206D8EA
:1097BC00084A136010BD074907480860F3E702F038
:1097CC0063FE0C23036001204042F3E7009000206D
:1097DC000004000098030020D84C002001207047A2
:1097EC0010B502F051FE162303600120404210BD5B
:1097FC0010B501214942FFF7F3FFFEE770B50C00ED
:10980C001600002504E000E000BF20700135013493
:10981C00B542F8DB300070BD012040427047802318
:10982C009B014B600020704701207047002070475F
:10983C00806800E00068002802D003898B42F9D1CF
:10984C00704710B58369DB795BB2002B02DB00F04B
:10985C0083F910BD00F032FAFBE770B505000C007F
:10986C008969002909D04068EFF3108672B601F0BF
:10987C0038F886F310880023A3612868EFF310856D
:10988C0072B6210001F02DF885F3108870BD70B50B
:10989C000400456801892800FFF7CAFF002806D19B
:1098AC0028000830210001F01CF8002070BD0120B8
:1098BC004042FBE710B5837A102B07D0002B02D067
:1098CC0000F09EF910BD00F017F9FBE701204042B3
:1098DC00F8E7030014300A7CF02A08D08A721A7E4A
:1098EC00CA725B7E0B730B718B7C4B717047703A39
:1098FC00F4E70000F0B5C64600B504000023984616
:10990C0015E043460233DB00E3185F6825E020686E
:10991C00EFF3108572B600F0D5FF85F31088E06187
:10992C001EE0234802F030FC01239C46E0444346F1
:10993C00002BE6DD80BCB846F0BD0C30EFF3108692
:10994C0072B6290000F0CDFF86F3108803E02900E1
:10995C002000FFF782FF0023E361E369002BD6D0E0
:10996C00E369002BDDD03B6838009847061EDBD03E
:10997C00E56924220021280002F01AFDAE6143465D
:10998C000233DB00E3181B7AAB712800FFF759FF99
:10999C000028DCD1A98A2000FFF74AFF002802D05A
:1099AC00037E002BC9D029002000FFF756FFD2E719
:1099BC0020E6000870B50C00FFF78BFF051E0DD0DC
:1099CC002000FFF777FF061E0AD128684368A169BB
:1099DC0098470023A361E361300070BD0426FBE7C8
:1099EC000226F9E770B505000C000B7C102B0BD090
:1099FC00FFF7E0FF060080235B4203432372E37909
:109A0C00DB0721D5300070BD898AFFF711FF061ED8
:109A1C0002D0037E002B05D021002800FFF71DFF8C
:109A2C000026EFE720000A3021001031032202F05B
:109A3C0060FD30000C30EFF3108572B6210000F0A1
:109A4C0050FF85F31088EBE721002800FFF705FF96
:109A5C00D8E710B50389CB814068FFF7C3FF10BD71
:109A6C0010B54369002B08D00C30EFF3108472B69C
:109A7C0000F028FF84F3108810BD0020FCE710B51F
:109A8C00FFF705FF10BD30B50024002C02DD0120CE
:109A9C00404230BDA51CED0045196D68002D01D06C
:109AAC000134F2E70234E40000194160027243729F
:109ABC000020EEE770B504000E00150020220021F6
:109ACC0002F076FC2660656070BD037C002B0AD129
:109ADC00C3897F2B0AD8828A7F2A0AD80B70838A83
:109AEC004B700220704701204042FBE701204042AE
:109AFC00F8E701204042F5E770B504008569037B67
:109B0C002B71837C6B71E91DFFF7DFFF002804DBF1
:109B1C002023E35C1B18AB71002070BD10B5002333
:109B2C00CB56002B12DB002484728279C27204742F
:109B3C00427402790273427982740A78C2814B783A
:109B4C0083827F22934304D1022010BD0120404226
:109B5C00FBE701204042F8E770B5040085692E1D33
:109B6C002B7903716B794371E91DFFF7D7FF00283F
:109B7C0007DBC31CF618E661AB791B1A2022A35431
:109B8C00002070BD30B54B1C827AA02A32D0002246
:109B9C00047CF02C30D01501802464422C430C70D2
:109BAC00940704D5C37A4B70CB1C047B8C70002AB1
:109BBC0004D0427C1A70827C5A700233C4895A1CBD
:109BCC001C70C489FF2C06D99A1C240A5C700B7873
:109BDC00022423430B70848A531C1470808AFF2840
:109BEC0006D9931C000A50700A78012002430A70AF
:109BFC00581A30BD0222CBE701242243D2B2CAE765
:109C0C0070B50400856903792B7143796B71E91D7B
:109C1C00FFF7B8FF002804DB2023E35C1B18AB71B3
:109C2C00002070BD70B54C1C0B7837221D0095437D
:109C3C002A00802D3FD11B097D3A1A409D0729D55A
:109C4C00A02484724C78C472CC1C8E780673002AC3
:109C5C0029D0DB0725D5F023037423784374A31C88
:109C6C00627882745C1C1A78C2810D78AD0704D5B9
:109C7C009C1C5B781B021A43C281631C2278828273
:109C8C000D78ED0704D5A31C64782402224382824C
:109C9C00581A70BD802585728679C672067906734E
:109CAC00D5E7A023D8E780230374837943744379E1
:109CBC0083742300D6E701204042EAE770B5040024
:109CCC0085692E1D2B7903716B794371E91DFFF7A3
:109CDC00A9FF002807DBC31CF618E661AB791B1A39
:109CEC002022A354002070BD837A102B1AD0002B95
:109CFC001AD0A02B0ED0037CF02B0DD00123C289DF
:109D0C00FF2A0BD801229B18828AFF2A08D801202F
:109D1C00C01870470523F2E70323F0E70222F2E7AD
:109D2C000220F5E70020F4E70220F2E7F0B5D64672
:109D3C004F464646C0B591469A468468C768066940
:109D4C0045693B689C4601239846634642469343CB
:109D5C003B603B689C46822398466346424693434D
:109D6C003B6053467B604B46002B28D0CC46634669
:109D7C00FB603B689C464B46002B24D081226346FB
:109D8C0013433B6032680127BA43326032687F3735
:109D9C00BA43326053467360002916D00800F06055
:109DAC003368002913D081221343336023681D428A
:109DBC00FCD06560E0BCBA46B146A846F0BD19338C
:109DCC009C468444D3E70122D9E71830E7E7012207
:109DDC00EAE7F0B5C56804692E680127BE432E601A
:109DEC002E687F37BE432E606B60002A1BD0160096
:109DFC00EE602E68002A19D0832232432A60226832
:109E0C000125AA43226022687F35AA432260636041
:109E1C0000290DD00800E060236800290AD08122B7
:109E2C0013432360F0BD06001936E1E70322E4E793
:109E3C001830F0E70122F3E710B5026813684021EF
:109E4C000B43136001684B68012213434B6001689C
:109E5C004B68022423434B60C1680B6893430B602F
:109E6C0001690B6893430B6003680C33C268936001
:109E7C0003680C330269936010BD0000F0B5DE4638
:109E8C0057464E464546E0B583B004008946904699
:109E9C00344B020023CB23C21B68136000254BE01C
:109EAC00009B237061802571A260E06001318023EA
:109EBC009B00994228DA8B1C7B432B4A9342F5D9A1
:109ECC002A4A934220D8019A5208D218EA404046B6
:109EDC00121AD0171218424025483818C617801984
:109EEC007040244EB4466344DE179B1973408600C1
:109EFC00B34658444000C018A3689342D0D8D5D17B
:109F0C00E3688342D2D9CBE7009B013B0093009BD3
:109F1C00002B10DB009B991CC80F401840104844C4
:109F2C00FCF7D8F80700144B9842EDD9134B984224
:109F3C0001D80021BBE70135022D05DC0127AF401C
:109F4C0001971F230093E2E72379022B07D020000F
:109F5C0003B0F0BCBB46B246A946A046F0BD0133E7
:109F6C002371F4E7F0E50008FFE0F5050065CD1D71
:109F7C0000EE85FF005D1EEE3F420F00C0E1E400E5
:109F8C0084B010B503AC0391049205932379032B91
:109F9C000FD003AC2378991C4B101818FCF79AF8C7
:109FAC006388023358432379D84010BC08BC04B0F2
:109FBC00184702222271ECE730B583B0050000236C
:109FCC000093013B0193124C02E0124B9C466444FB
:109FDC00114B9C4219D9680800192900FCF77AF832
:109FEC00010080235B02984200D30C4948080019F9
:109FFC00FCF770F8401BC317C0185840019A8242F6
:10A00C00E3D9009401900028DFD1009803B030BD53
:10A01C0080D1F008C0F2FCFFFFE0F505FFFF000067
:10A02C0070B582B00400080015001E006B46D91DE7
:10A03C00087063681A689B889362012300222000D1
:10A04C00FFF774FE33002A0000212000FFF76EFE9C
:10A05C0063681A689B889361002002B070BD70B56C
:10A06C0082B00400080015001E006B46D91D087054
:10A07C0063681A689B889362012300222000FFF713
:10A08C0055FE3300002229002000FFF74FFE6368C5
:10A09C001A689B889361002002B070BD10B518300F
:10A0AC00EFF3108472B600F00DFC84F3108810BD31
:10A0BC0010B53D23C154436E5B681A689B8893624C
:10A0CC0001003D31406E02230A00FFF782FE10BDF5
:10A0DC0010B580235B420B433D2143543E23C254B5
:10A0EC00436E5B681A689B88936201003D31406E39
:10A0FC0002230022FFF76DFE10BD000010B582B0E8
:10A10C0004006B46FF22DA716C23C356002B0ADB6A
:10A11C00E03A1A40012393400F4880228350BFF34A
:10A12C004F8FBFF36F8F237CDBB2022BFBD8606E9B
:10A13C0001236A460732FFF773FF6C23E356002BAB
:10A14C0005DB1F221A4001239340034A13606B4620
:10A15C00D87902B010BDC04600E100E010B582B065
:10A16C00040008006B46DA716C23E356002B0ADB03
:10A17C001F221A4001239340104980228B50BFF3B9
:10A18C004F8FBFF36F8F237CDBB2022BFBD8802168
:10A19C0049420143C9B2606E01236A460732FFF798
:10A1AC005EFF6C23E356002B05DB1F221A400123B4
:10A1BC009340024A136002B010BDC04600E100E0BB
:10A1CC00F0B5D6464F464646C0B582B080460E0026
:10A1DC001700C56848084019FBF77CFF441E022C89
:10A1EC0000D2022480235B029C4200D31D4CA3B2FC
:10A1FC009946780840193900FBF76CFF451E022D73
:10A20C0000D2022580235B029D4200D3154DABB2D8
:10A21C009A46E2B20C214046FFF7A0FF4B461A0AC1
:10A22C000D214046FFF79AFFEAB20E214046FFF798
:10A23C0095FF53461A0A0F214046FFF78FFF4346FE
:10A24C00996809482D042D0C01952404240C0094C4
:10A25C003B00320001F032FF02B0E0BCBA46B1461E
:10A26C00A846F0BDFFFF000034E60008F0B5C64676
:10A27C0000B506000F0015000C21FFF73FFF04B2DC
:10A28C000D213000FFF73AFF00020443A3B29846B9
:10A29C000E213000FFF732FF04B20F213000FFF720
:10A2AC002DFF00020443A4B2F0684346591C4B1026
:10A2BC001818FBF70FFF3860F368611C4810C018C2
:10A2CC00FBF708FF286080BCB846F0BDF0B5C64669
:10A2DC0000B586B004000D0000220121FFF73EFFFF
:10A2EC0036212000FFF70AFF4007F9D5A6680021A8
:10A2FC002000FFF703FF0200454B3100180001F06E
:10A30C00DDFE2800FFF758FE0200E06002AD414E72
:10A31C0031002800FFF7B2FD059B00930299039AC8
:10A32C00049B3000FFF72CFE0600E268A1683A4857
:10A33C00330001F0C3FEE6602A7832212000FFF7DB
:10A34C000DFF6E88AA7830212000FFF707FF2B79CC
:10A35C001B01320A1A43D2B231212000FFF7FEFE54
:10A36C00A368984632212000FFF7C8FE0600302172
:10A37C002000FFF7C3FE070031212000FFF7BEFECF
:10A38C00264D00903B0032004146280001F096FE1D
:10A39C00A56833212000FFF7B1FE0200204B2900F5
:10A3AC00180001F08BFE102233212000FFF7D6FE9F
:10A3BC00A56836212000FFF7A1FE0200194B2900E9
:10A3CC00180001F07BFE012201212000FFF7C6FEE0
:10A3DC0036212000FFF792FE4007F9D5A5683621FB
:10A3EC002000FFF78BFE02000F4B2900180001F034
:10A3FC0065FEA56800212000FFF780FE02000B4BD4
:10A40C002900180001F05AFE06B080BCB846F0BD19
:10A41C005CE600080024F40080E60008A0E60008D2
:10A42C00CCE60008E4E6000800E7000824E7000892
:10A43C00F0B5D6464F464646C0B582B004000E0075
:10A44C0015001F000AAB04CB91461B785BB29846F3
:10A45C008368002B00D1B6E0EFF3108A72B630009F
:10A46C0000F030FA8AF31088206366615C4B23603D
:10A47C005C4B636067664B46A3666C234246E254B2
:10A48C00A168594801F01AFE00212000FFF736FEA2
:10A49C000600A1685548320001F010FE102E00D0C5
:10A4AC0094E0802201212000FFF758FEA9682000CB
:10A4BC00FFF70CFF102235212000FFF74FFE022181
:10A4CC002000FFF71BFE0E22024001231A43D2B2DA
:10A4DC00AB7B012B00D180E010231A43022120001A
:10A4EC00FFF73CFE2A780B212000FFF737FE2A7B72
:10A4FC001A212000FFF732FE6A7B1B212000FFF798
:10A50C002DFE2A7C05212000FFF728FE2A8A120A3C
:10A51C0006212000FFF722FEAA7C07212000FFF76E
:10A52C001DFE6A8A120A08212000FFF717FE2A7DF9
:10A53C0009212000FFF712FEAA6869682000FFF7C6
:10A54C003FFE112216212000FFF708FE2A000832D8
:10A55C00291D2000FFF78AFEAB686A68A1682448B1
:10A56C0001F0ACFDA36898460B212000FFF7C6FD57
:10A57C0006001A212000FFF7C1FD07001B21200057
:10A58C00FFF7BCFD1B4D00903B00320041462800FC
:10A59C0001F094FDA56810212000FFF7AFFD02002B
:10A5AC00154B2900180001F089FD01232374DA22D0
:10A5BC0011212000FFF7D2FD002002B0E0BCBA460A
:10A5CC00B146A846F0BD0D4B836045E7A1680C4829
:10A5DC0001F074FD01204042EFE71F337DE7C046D8
:10A5EC00A9A000082DA6000850E7000860E70008A5
:10A5FC0094E70008B4E70008DCE7000848E7000827
:10A60C007CE7000810B5037C012B03D0037C022BE4
:10A61C0000D010BD032303741021FFF749FDF8E7A8
:10A62C0070B504002430EFF3108572B600F059F9C0
:10A63C0085F310886C23E356002B0ADB1F221A408B
:10A64C00012393400C4980228B50BFF34F8FBFF3F3
:10A65C006F8F237C012B0AD06C23E356002B05DB78
:10A66C001F221A4001239340034A136070BD20003F
:10A67C00FFF7C8FFF0E7C04600E100E07047704705
:10A68C0070B50400037C032B14D0037C042B00D185
:10A69C00A8E0037C052B00D1AFE0237C062B00D176
:10A6AC00C4E0237C072B00D1EEE0A168844801F0C4
:10A6BC0005FD70BD3B33C35C426E526811689288D5
:10A6CC008A6123221900914316D01A0702D5826C95
:10A6DC0001328264DA0602D5E26C0132E2645A0776
:10A6EC0002D5226D013222655A0602D5626D013205
:10A6FC0062655AB2002A18DB9A071AD4A26B002A98
:10A70C0041D09B0626D43C23E35C002B30D0002A9E
:10A71C0066D002232374A36E1A6812699B881342B5
:10A72C00C7D12000FFF76EFFC3E7A26D0132A2650F
:10A73C00E2E705232374236BD91C1422DA70636EB1
:10A74C005B681A689B889362606E04230A00FFF7AB
:10A75C0040FBAEE704232374032217212000FFF7EC
:10A76C00B7FCA16B2000FFF78AFF0023A363A0E7CF
:10A77C003C330122E254383B2374F932112120007E
:10A78C00FFF7A6FC95E7636A002B0ED13C23E35C34
:10A79C00002BBCD03C230022E254383B2374DA3229
:10A7AC0011212000FFF794FC83E720002430EFF305
:10A7BC00108572B600F086F885F310886063C11CB2
:10A7CC009523C3708E3B2374636E5B681A689B88F9
:10A7DC00936283790433606E0022FFF7FAFA68E71C
:10A7EC00012397E7436E5B681A689B889361032388
:10A7FC0003741021FFF75CFC5BE701330374026BFD
:10A80C009379FD2B08D8002B00D146E70732406E18
:10A81C000021FFF7DEFA4CE7036E013303660423D5
:10A82C00037403221621FFF753FC42E7636E5B6847
:10A83C001A689B8893610423237403221621200039
:10A84C00FFF746FC6069EFF3108672B600F03AF839
:10A85C00050086F31088002812D020001830216BD8
:10A86C00EFF3108672B600F03CF886F3108825637F
:10A87C00236C0133236429002000FFF7FFFE18E747
:10A88C00E36D0133E36514E7636E5B681A689B88BC
:10A89C0093616069616BEFF3108572B600F021F87B
:10A8AC0085F31088636BA36300236363636C0133CC
:10A8BC0063640323237410212000FFF7F9FBF8E6EF
:10A8CC00F0E7000803008268002A08D000680168DD
:10A8DC001960013A9A60002A00D15A607047002032
:10A8EC00FCE783685A1C8260002B05D04368196012
:10A8FC00416000230B6070470160F9E770B5384B7D
:10A90C001E88384B1D88384CAA225200002120008A
:10A91C0001F04EFD354B23800623FF336380073B4C
:10A92C002373E1235B022361636101235B42238375
:10A93C001533A383B433E383A83B0122E2542833B9
:10A94C008B32E2520233803AE25202334332FF320C
:10A95C00E25202334D3AFF3AE252254B6367254BE4
:10A96C00A367254BE3678423244AE2500433244A2B
:10A97C00E25018330322E250224B9E4204D01A4B71
:10A98C001B79002B26D170BD0623FF339D4218D0B6
:10A99C002D0A012DF3D1144911480B00020031CAC4
:10A9AC0031C331CA31C331CA31C3106818609088C1
:10A9BC00988092799A7102230B710623FF334B8096
:10A9CC00DDE7094CDF320649200001F092FD01233E
:10A9DC002371D4E70C480322002101F0E9FCD2E7F3
:10A9EC0000F8010802F801089C030020CDCDFFFF00
:10A9FC00000040410000A0426F12033C00C07F44A5
:10AA0C0005D9863BCDCD0000A103002070B58AB0DE
:10AA1C0006000D0001235B4209931D4B0340C0222D
:10AA2C00D201934204D85A18C021C9018A4222D8B3
:10AA3C000222059202320692D80A07905B19DA0AB2
:10AA4C00121A08925B0501D001320892FCF716FE2F
:10AA5C00041E16D0FCF792FE0443079B0D4802948B
:10AA6C0009990191089A00922A00310001F026FB05
:10AA7C0020000AB070BD084801F086FB0124644236
:10AA8C00F6E709A905A8FCF7A7FE0400E2E7C04613
:10AA9C00FFFFFFF734E8000810E80008F0B5C646E1
:10AAAC0000B5804614000731CE08FCF7E7FD07001F
:10AABC0000251DE0E9006318625C5878000202432F
:10AACC00987800040243DB781B061A430B1DE01830
:10AADC00E35C47783F023B4387783F043B43C078B5
:10AAEC000006034341440120FCF716FE0700013524
:10AAFC00002F01D1B542DDDBFCF740FE384380BCB2
:10AB0C00B846F0BD10B5802109010E48FFF77EFF55
:10AB1C00C0B200280DD10C4AE2210A48FFF7BEFF53
:10AB2C00C0B2002809D10948E22101F0C7FA00207F
:10AB3C0010BD074801F028FBEDE7064801F024FBA7
:10AB4C000120F5E700F801089C0300208CE80008C0
:10AB5C006CE80008B8E80008F0B5D6464F46464603
:10AB6C00C0B582B0894801F00FFB894B9B68362B2E
:10AB7C00FBD9884F8848894B00933B000222002167
:10AB8C0001F09CFA8648874B00933B00022202217D
:10AB9C0001F094FA844E8548854B009333000122D2
:10ABAC00042101F08BFA8348834B0093330001227C
:10ABBC00052101F083FA814C8148824B00932300DC
:10ABCC000122072101F07AFA7F4B9A46180001F016
:10ABDC00DBFA7E487E4B0093330001220C2101F0FE
:10ABEC006DFA7C4B7C487D4A0092984604221021D9
:10ABFC0001F064FA7A487B4B0093434604221421FB
:10AC0C0001F05CFA784B7948794A009202221821BB
:10AC1C0001F054FA7748784B0093330001221A2143
:10AC2C0001F04CFA7548764B00933B0002221C2134
:10AC3C0001F044FA7348744B00933B0002221E212E
:10AC4C0001F03CFA7148724B009333000122202131
:10AC5C0001F034FA504601F097FA6E486E4B0093AF
:10AC6C0023000122242101F029FA6C4B994618008B
:10AC7C0001F08AFA6A486B4B00933300012245219C
:10AC8C0001F01CFA684B6948694A00921822482165
:10AC9C0001F014FA484601F077FA664C6648674DA5
:10ACAC00009523000422742101F008FA64480095F1
:10ACBC0023000422782101F001FA62480095230058
:10ACCC0004227C2101F0FAF95F480095230004224C
:10ACDC00802101F0F3F95D480095230004228421C2
:10ACEC0001F0ECF9484601F04FFA59480095230061
:10ACFC000422F82101F0E2F988215648009523003E
:10AD0C000422490001F0DAF98A2153480095230006
:10AD1C000422490001F0D2F9484601F035FA92219B
:10AD2C004E484F4B009323000422490001F0C6F912
:10AD3C0094214C484C4B009323000422490001F011
:10AD4C00BDF9A6214948009533000122490001F0C4
:10AD5C00B5F9A721464800953B000222490001F0B5
:10AD6C00ADF9A8214348009543460422490001F05F
:10AD7C00A5F9504601F008FA054B9B68362BFBD918
:10AD8C0002B0E0BCBA46B146A846F0BDD8E800080F
:10AD9C008C0E0020ECE80008F0E8000824E900081C
:10ADAC0038E900086CE900087CE9000880E9000833
:10ADBC00B4E90008F0E9000824EA000848EA0008B1
:10ADCC004CEA000880EA0008A8EA0008ACEA00088F
:10ADDC00E0EA000800EB000804EB00083CEB00087C
:10ADEC005CEB000894EB0008B8EB0008BCEB000827
:10ADFC00F8EB00080CEC000844EC000864EC0008CC
:10AE0C00A4EC0008BCEC0008FCEC00081CED0008ED
:10AE1C0058ED000870ED0008A0ED0008D4ED000816
:10AE2C00D8ED00080CEE000834EE00083CEE0008EB
:10AE3C0070EE00088CEE000890EE000840EC000864
:10AE4C00C8EE000800EF000838EF000878EF0008A3
:10AE5C00B8EF0008F0EF000828F0000860F00008D8
:10AE6C0098F000089CF0000860EC0008D4F0000892
:10AE7C0008F1000838F10008BFF34F8F034B044A68
:10AE8C00DA60BFF34F8FC046FDE7C04600ED00E02F
:10AE9C000400FA0510B5002209E0064BDB691B061D
:10AEAC00FBD50478034B9C62013292B201308A428A
:10AEBC00F3D310BD0038014070B586B001AA0F4B1A
:10AECC0070CB70C211001A680A601B790B710023D9
:10AEDC000DE00B4A9A18157829095A0001AC615CEF
:10AEEC0081540F2129400132615C815401330B2BB9
:10AEFC00EFDD0023037606B070BDC0466CF1000890
:10AF0C009075FF1FF0B5DE4657464E464546E0B5F8
:10AF1C0085B081460E0093469846002B09D02B4BEA
:10AF2C001B689A462A4F002400230393534602932E
:10AF3C0026E0284B1B689A46274FF4E763001B1941
:10AF4C009B00FB185B6826E0019268468088B4463B
:10AF5C00DC44E24503DC614502DD614600E01100A2
:10AF6C008DB2A8420BD0801A80B2019D491BC9B288
:10AF7C004546002D20D0921B424498470390013443
:10AF8C00029B9C421ADA4B46002BD7D063001B194C
:10AF9C009B00FB189B68002BF1D0620012199200E9
:10AFAC00B918BA5A9246498851189642CCD3019690
:10AFBC008E42CADD0191C8E74246DEE7039805B030
:10AFCC00F0BCBB46B246A946A046F0BDF404002036
:10AFDC00F8040020F0040020F804002070B5084D9F
:10AFEC002800FFF769FF074B0749084C2A0020008F
:10AFFC0001F0D4F80648210001F060F870BDC0469D
:10B00C005C05002080F1000888F10008F80400209D
:10B01C00ACF1000870B50C000389CB810B7C102BB4
:10B02C0003D18B690733CB6170BD4068FEF751FCCF
:10B03C00A56904352000FEF757FE03302D18E56195
:10B04C00F2E770B505000C008969002909D0406849
:10B05C00EFF3108672B6FFF744FC86F310880023DA
:10B06C00A3612868EFF3108572B62100FFF739FC55
:10B07C0085F3108870BD0000F0B5DE4657464E468D
:10B08C004546E0B585B04B48FEF7EAFC041E1AD0E5
:10B09C00C5691030062221000A3101F02AFA454810
:10B0AC002100FFF7B7FF2023E35C002B12D0042B09
:10B0BC0002D92B78102B21D03F4801F065F83F487E
:10B0CC002100FFF7BEFF05B0F0BCBB46B246A94657
:10B0DC00A046F0BDE0693A4D290001F002FA2800C3
:10B0EC00FAF7E6FF2023E05432482100FEF7B1FCCA
:10B0FC00344A11797F230B401371E4E76F78AB78F6
:10B10C001B021F4300F0D8FE060039002E48FBF747
:10B11C006BF801003000FBF767F8EB782A79914661
:10B12C00284A127B90462022A25CAA18002111709A
:10B13C006A1D92460604360C1D00C3462348029233
:10B14C00424601924A4600923A00310000F0B6FFA6
:10B15C00454504D84D46C14500D94546EDB2AB45F1
:10B16C0006D0184A117980235B420B431371A3E775
:10B17C001348514601F024F90028F2D0FCF78EFD5B
:10B18C000500FCF78BFD401BB042FAD3E0690C4D77
:10B19C00290001F0A6F92800FAF78AFF2023E054D1
:10B1AC0004482100FEF755FC064A11797F230B4019
:10B1BC00137188E750000020F8F10008800500208A
:10B1CC00F80400209C030020FFFFFF7FBCF1000867
:10B1DC00F0B5D6464F464646C0B582B07748FEF726
:10B1EC003FFC041E2FD0764B1B795BB2002B30DB5F
:10B1FC00C5692A780023EB5698467F2313402B70A1
:10B20C001030062221000A3101F073F96B4821003D
:10B21C00FFF700FF2B78002B03D12022A25C042A1D
:10B22C0021D0202B4CD0012B04D11F33E35C042BF9
:10B23C0000D19BE02023E15C624800F03FFF6248B4
:10B24C002100FFF7FEFE02B0E0BCBA46B146A846AC
:10B25C00F0BD2023C15C5D4800F030FF5A4821004E
:10B26C00FFF7EFFEEFE76F78AB781B021F43ED782B
:10B27C00FB2D00DDFB25EBB2994600234A46390035
:10B28C000020FFF73FFE061E0BD02A005048390065
:10B29C0000F014FFE3691E704B4601332022A354C7
:10B2AC007FE0E06901302A004549791801F021F965
:10B2BC0000234A4639000120FFF724FE0600E4E78C
:10B2CC002022A75C032FAED96E78AB781B021E43ED
:10B2DC00033FFFB2EB1C9A463A0031000020FFF707
:10B2EC0011FE8146002837D03A484B463A003100CF
:10B2FC0000F0E4FE20230122E254E3694A461A706E
:10B30C004FE001926B469B88F019824203DC0A00E5
:10B31C00814200DD020091B28B420BD0019B1B04D9
:10B32C001B0C991B51441204120CD21A24481818E5
:10B33C0001F0DFF80135284B1B68AB420EDDAB008A
:10B34C00264A9918D25A49885118B242D9D801962E
:10B35C008E42D7DD0191D5E70025ECE753463A0044
:10B36C0031000120FFF7CEFD8146BDE76E78AB784A
:10B37C001B021E43ED78FB2D00DDFB25EFB2E069CF
:10B38C000130174971182A0001F0B3F815482A004A
:10B39C00310000F093FEE36900221A70013720237C
:10B3AC00E7544346002B04DB04482100FEF751FB15
:10B3BC0049E705482100FFF744FE44E7340000202C
:10B3CC009C03002080F20008800500200CF200088D
:10B3DC0028F2000840F200081000002014000020A1
:10B3EC00E4F4000864F2000870B54648FEF738FB38
:10B3FC00041E27D0C5692A780026AE577F23134038
:10B40C002B701030062221000A3101F072F83D48F1
:10B41C002100FFF7FFFD2B782F2B14D0002B03D12D
:10B42C002022A25C062A30D0202B02D1E15C052917
:10B43C0045D82023E15C344800F040FE334821001D
:10B44C00FFF7FFFD70BD2022A25C092AE6D16878C7
:10B45C00AB781B021843EB781B0418432B791B06A3
:10B46C0018436979AB791B021943EB791B04194317
:10B47C002B7A1B061943FFF7C9FA20230122E25449
:10B48C00E369421E904118702FE06978AB781B027B
:10B49C001943EB781B0419432B791B0619436A7962
:10B4AC00FB2A00DDFB22D5B2E069013001F021F866
:10B4BC00E36900221A7001352023E55415E0687801
:10B4CC00AB781B021843EB781B0418432B791B0633
:10B4DC0018430539C9B26A1DFFF7E0FA202301228F
:10B4EC00E254E369421E90411870002E04DB0548BB
:10B4FC002100FEF7AEFAA5E704482100FFF7A1FDF5
:10B50C00A0E7C046180000209CF20008800500202F
:10B51C0010B50C48FEF7B3FA0B48FEF7B0FA0B481F
:10B52C00FEF7ADFAFFF75AFD094B1C68094B1B6877
:10B53C00E418094B1B68E418FCF7B0FB201800F06A
:10B54C008DFC10BD3400002018000020500000209D
:10B55C009075FF1F9475FF1F9875FF1F10B50E4B4C
:10B56C00DB79002B0AD10C4B5B79002B0CD1FFF74C
:10B57C0083FDFFF72DFEFFF737FF10BD064B0022B2
:10B58C00DA71FFF7BFFAEEE7044A13438022920503
:10B59C001360FFF771FCC0469C0300200000CDCD6A
:10B5AC00F8B50D001400174B24229B5C002B0AD01D
:10B5BC00EFF3108772B61448FFF784F9060087F38F
:10B5CC001088002805D1A1B22800FFF763FC2000E9
:10B5DC00F8BDFA2C00DDFA240A4B1B7B33710023D7
:10B5EC007371A31CB3714023F371373B337230007A
:10B5FC0009302200290000F07CFF04483100FFF7DD
:10B60C000FF8E4E79C0300208C0E0020A00500201E
:10B61C00F8B5DE4657464E464546E0B504000D1CCF
:10B62C00806902F005FD8146E669606A494602F0D0
:10B63C00ADFB011C301C01F0CDFF8046E061E368DE
:10B64C009A4623699B465146FAF7CCFE002807D14F
:10B65C0059464046FAF7DAFE002802D0D84600E0F8
:10B66C00D0464346E361216A281C02F0E1FC2562C6
:10B67C00002308E01A000D32920011591A000C3206
:10B68C00920011510133E76A7A1E9A42F2DC0C32B5
:10B69C00920010510025002608E02B000C339B0073
:10B6AC001959301C01F096FF061C0135AF42F4DC31
:10B6BC00380002F01FFF011C301C02F099F9061C27
:10B6CC002068494602F062FB414601F083FF051CED
:10B6DC00A06A311C02F05AFB011C281C02F0A8FCC9
:10B6EC00041C011C5046FAF791FE002806D1211CBF
:10B6FC005846FAF777FE002807D0DA465046F0BCD9
:10B70C00BB46B246A946A046F8BDA246F6E7F8B538
:10B71C000400151C0162C6680769311C101CFAF77D
:10B72C0061FE002806D1391C281CFAF76FFE002890
:10B73C0006D03E1CE661E36A002B03DD00230AE021
:10B74C002E1CF7E70123E362F8E71A000C32920093
:10B75C00002111510133E26A9A42F6DCF8BD70B552
:10B76C0004000D0040686669311C02F00FFB60623A
:10B77C00A068311C02F03CF9A062002D00D170BD14
:10B78C0000210A1C2000FFF7C2FFF8E7F0B5D646EF
:10B79C004F464646C0B50500504B45229B5C0341C5
:10B7AC00DB0747D54E4B1B78002B06D04D4B9B68C7
:10B7BC00362B02D94A4B00221A70494B1B78002BAE
:10B7CC0004D1494BAA00D358002B45D0464BAA00B4
:10B7DC00D358002B75D09B799A460026052E66DC33
:10B7EC003E4A6B005B195B009B1912339B00D2180D
:10B7FC005288002A5BD03C4BA90089469846CB580E
:10B80C00181D9B790333C018344B6C006419640009
:10B81C00A4191234A4001F00E15AC91800F069FEE3
:10B82C0043464A46D1588A793C196388D3188B71A0
:10B83C000136D3E72C4B8200D158002941D0EFF3CD
:10B84C00108472B62748FFF74CF884F31088264B07
:10B85C00AD000022EA5034E0224B9B68042B03D845
:10B86C001F4B01221A702CE0EFF3108472B61D48A6
:10B87C00FFF728F884F310881B4BAA00D050174A06
:10B88C00137B0371002343710633837140232B43D5
:10B89C00C3710A2303724733FF33D3581A0CC27295
:10B8AC001A0E02739AB24372120A82728EE70E4B10
:10B8BC00AA00D1588B7952469F1AFFB2FF18FD2F60
:10B8CC0004DCE0BCBA46B146A846F0BD0748FEF71A
:10B8DC00A7FE054BAD000022EA50F2E79C030020C6
:10B8EC00750500208C0E002078050020A005002096
:10B8FC0010B5002818D0134B40249C61002917D098
:10B90C00104B80249C61002A16D0A023DB058024D8
:10B91C00E4009C614900014349B2920011430A4B77
:10B92C00A6225200995410BD064B40249C62E5E7B8
:10B93C00044B80249C62E6E7A023DB058024E40012
:10B94C009C62E7E7000800509C0300200C4BA722E8
:10B95C0052009B5AC11AD332FF32914202DD9446F7
:10B96C00634498B203008022D200904200DB054B66
:10B97C00054A12685363024BA72252009852704733
:10B98C009C030020FF030000BC01002070B582B0B6
:10B99C00214A22492248FEF78DF800240DE0A3012C
:10B9AC001B1999001F4BC918EFF3108572B61A4872
:10B9BC00FEF797FF85F3108801343B2CEFDD002454
:10B9CC000DE0E3001B199900174BC918EFF3108514
:10B9DC0072B61248FEF785FF85F3108801343B2CB4
:10B9EC00EFDD124E3000FEF727FA114C0A49114DCB
:10B9FC0006230193104B0093330022002800FEF71E
:10BA0C0017FD22000C3A2378127A05482900FEF71C
:10BA1C003AF802B070BDC0468C0E00201006002013
:10BA2C0080050020980E00201C0600206C000020D1
:10BA3C00A8030020A00500209000002030B585B0A0
:10BA4C000C000179006801256D4202959BB20193AF
:10BA5C00009201232200FDF7A3FC05B030BD30B5E8
:10BA6C0085B00C000179006801256D4202959BB2EE
:10BA7C000193009201232200FDF75EFD05B030BD5D
:10BA8C0070B5484BF8229C58474B1968201C02F0A3
:10BA9C00CFFA45006D086400640801264349201C58
:10BAAC00FAF7AAFC002800D10026F6B23F49281C60
:10BABC00FAF7ACFC002832D13C49201CFAF79CFC6C
:10BACC00002863D1374BF8229C580021201CFAF730
