:020000040800F2
:106000000090002045C30008B16A0008C16A00087A
:106010000000000000000000000000000000000080
:10602000000000000000000000000000D16A00082D
:106030000000000000000000D36A0008D56A0008D4
:1060400095C3000895C3000895C3000895C30008D0
:1060500095C3000895C3000855B800086DB800083E
:1060600095C3000881B8000895C3000895C30008CF
:1060700095C300089DB8000895C3000895C30008A3
:1060800095C3000895C3000895C3000895C3000890
:1060900095C3000895C3000895C3000895C3000880
:1060A00095C3000895C3000895C3000895C3000870
:0C60B00095C3000895C3000895C30008C4
:1060BC000023C25C0133002AFBD1581E704700003C
:1060CC0003B47146490840004900095E49008E44FA
:1060DC0003BC7047002243088B4274D303098B42E4
:1060EC005FD3030A8B4244D3030B8B4228D3030C9C
:1060FC008B420DD3FF22090212BA030C8B4202D33E
:10610C001212090265D0030B8B4219D300E0090A65
:10611C00C30B8B4201D3CB03C01A5241830B8B426E
:10612C0001D38B03C01A5241430B8B4201D34B0357
:10613C00C01A5241030B8B4201D30B03C01A5241BC
:10614C00C30A8B4201D3CB02C01A5241830A8B4241
:10615C0001D38B02C01A5241430A8B4201D34B022A
:10616C00C01A5241030A8B4201D30B02C01A52418E
:10617C00CDD2C3098B4201D3CB01C01A5241830942
:10618C008B4201D38B01C01A524143098B4201D37C
:10619C004B01C01A524103098B4201D30B01C01AA7
:1061AC005241C3088B4201D3CB00C01A5241830821
:1061BC008B4201D38B00C01A524143088B4201D34E
:1061CC004B00C01A5241411A00D2014652411046AE
:1061DC007047FFE701B5002000F0F0F802BDC046A3
:1061EC000029F7D076E7704703460B437FD4002293
:1061FC0043088B4274D303098B425FD3030A8B424F
:10620C0044D3030B8B4228D3030C8B420DD3FF22B8
:10621C00090212BA030C8B4202D31212090265D086
:10622C00030B8B4219D300E0090AC30B8B4201D339
:10623C00CB03C01A5241830B8B4201D38B03C01A80
:10624C005241430B8B4201D34B03C01A5241030BF7
:10625C008B4201D30B03C01A5241C30A8B4201D3A8
:10626C00CB02C01A5241830A8B4201D38B02C01A53
:10627C005241430A8B4201D34B02C01A5241030ACA
:10628C008B4201D30B02C01A5241CDD2C3098B42AF
:10629C0001D3CB01C01A524183098B4201D38B012C
:1062AC00C01A524143098B4201D34B01C01A5241CF
:1062BC0003098B4201D30B01C01A5241C3088B4214
:1062CC0001D3CB00C01A524183088B4201D38B00FF
:1062DC00C01A524143088B4201D34B00C01A5241A1
:1062EC00411A00D201465241104670475DE0CA0F78
:1062FC0000D04942031000D34042534000229C4638
:10630C0003098B422DD3030A8B4212D3FC22890141
:10631C0012BA030A8B420CD3890192118B4208D317
:10632C00890192118B4204D389013AD0921100E079
:10633C008909C3098B4201D3CB01C01A524183098D
:10634C008B4201D38B01C01A524143098B4201D3BA
:10635C004B01C01A524103098B4201D30B01C01AE5
:10636C005241C3088B4201D3CB00C01A524183085F
:10637C008B4201D38B00C01A5241D9D243088B42B5
:10638C0001D34B00C01A5241411A00D20146634658
:10639C0052415B10104601D34042002B00D54942BC
:1063AC00704763465B1000D3404201B5002000F0FB
:1063BC0005F802BD0029F8D016E770477047C046B3
:1063CC008446100062468C461900634600E0C046C5
:1063DC001FB509F005F9002801D40021C8421FBDE2
:1063EC0010B509F047F84042013010BD10B509F066
:1063FC00F7F8002801DB002010BD012010BDC046BD
:10640C0010B509F0EDF8002801DD002010BD0120C9
:10641C0010BDC04610B509F073F8002801DC00204F
:10642C0010BD012010BDC04610B509F069F8002858
:10643C0001DA002010BD012010BDC04684460800C2
:10644C006146FFE71FB507F069FF002801D4002162
:10645C00C8421FBD10B507F0F1FE4042013010BD1F
:10646C0010B507F05BFF002801DB002010BD0120F8
:10647C0010BDC04610B507F051FF002801DD00200B
:10648C0010BD012010BDC04610B507F0FFFE00285E
:10649C0001DC002010BD012010BDC04610B507F076
:1064AC00F5FE002801DA002010BD012010BDC04609
:1064BC00002B11D1002A0FD1002900D1002802D0C5
:1064CC000021C943080007B4024802A140180290F9
:1064DC0003BDC046E9FEFFFF03B4684601B5029850
:1064EC0007F0BCFA019B9E4602B00CBC7047C0463C
:1064FC001C2101231B04984201D3000C10391B0AE8
:10650C00984201D3000A08391B09984201D30009AB
:10651C00043902A2105C40187047C0460403020202
:10652C0001010101000000000000000010B500296D
:10653C0003D1FFF7DDFF203002E00800FFF7D8FFA2
:10654C0010BDC0460448054B10B5834203D0044B24
:10655C00002B00D0984710BD5C0100205C0100208E
:10656C000000000006480749091A8B10C90FC9180A
:10657C0010B5491003D0044B002B00D0984710BD28
:10658C005C0100205C0100200000000010B5074CED
:10659C002378002B09D1FFF7D5FF054B002B02D038
:1065AC00044800E000BF0123237010BD5C010020F3
:1065BC00000000002CF80008054B10B5002B03D090
:1065CC000449054800E000BFFFF7CCFF10BDC046F2
:1065DC0000000000600100202CF8000882B0054A81
:1065EC00916B012319439163926B13400193019BAF
:1065FC0002B0704700100240F0B5DE4657464E46DA
:10660C004546E0B58BB005AC14220021200006F005
:10661C0079F94A4B596B202211435963596B0A4043
:10662C000192019A5A6B012632435A635A6B3240DB
:10663C000292029A5A6B022188460A435A635A6B99
:10664C000A400392039A5A6B06318A460A435A63EC
:10665C005B6B0B400493049BA023DB059B46002241
:10666C007831180001F082FB354F00223549380093
:10667C0001F07CFB802101220902584601F076FBD7
:10668C00314B994600220621180001F06FFB0423C0
:10669C000593434663600025A560E66025612100F3
:1066AC002A4801F0A9FA2A4B05936660A560434677
:1066BC00E3602100584601F09FFA224B0593666077
:1066CC00A560E5602100380001F096FA80231B01DB
:1066DC0005936560A6602100380001F08DFA8023D7
:1066EC005B01059384239B0398466360A66021009D
:1066FC00380001F081FA8023DB0105936560A56009
:10670C002100380001F078FA062305936660A56035
:10671C00E5602100484601F06FFA53460593434665
:10672C006360A6602100484601F066FA0BB0F0BC2D
:10673C00BB46B246A946A046F0BDC046001002407A
:10674C000004005007240000000C005000140050FE
:10675C008080000072B6FEE700B58BB024220021C9
:10676C0001A806F0CFF80D480D4B036000F04AFB72
:10677C0000280ED101A9002301934B608B60CB60E4
:10678C000B610648102200F0A1FB002803D10BB0CE
:10679C0000BDFFF7DFFFFFF7DDFFC04668040020F8
:1067AC000074004010B51048104B036082235B004E
:1067BC00436000238360E022D200C2600361436126
:1067CC00802292008261F93AFF3AC261036243620D
:1067DC0083620721C1620363426301F061FC0028FC
:1067EC0000D110BDFFF7B6FF0404002000300140BB
:1067FC0010B51748174B0360174B43600023836099
:10680C00C36003610C2242618361C3610362436212
:10681C00836202F0ADFC002811D10D48002102F07A
:10682C002FFD00280DD10A48002102F04FFD002851
:10683C0009D1074802F002FD002806D110BDFFF770
:10684C0089FFFFF787FFFFF785FFFFF783FFC04640
:10685C00D40100200038014080841E0000B589B0AE
:10686C001022002104A806F04DF80C22002101A8EA
:10687C0006F048F81548164B03603F23436000238D
:10688C008360C722C26003614361836101F04CFEE7
:10689C00002814D180235B0104930C4804A901F057
:1068AC0093FF00280DD101A9002301934B608B604D
:1068BC00064802F049F9002805D109B000BDFFF7E0
:1068CC0049FFFFF747FFFFF745FFC04600030020D5
:1068DC00002C014000B589B01422002103A806F059
:1068EC0011F80C220021684606F00CF8154880239C
:1068FC00DB05036000234360836001225242C260C7
:10690C000361836101F010FE002814D103A9072351
:10691C00039319334B600B4802F03CF800280CD160
:10692C006946002300930293064802F00DF90028F3
:10693C0005D109B000BDFFF70DFFFFF70BFFFFF707
:10694C0009FFC046B402002000B58BB00C22002118
:10695C0007A805F0D7FF1C220021684605F0D2FFDE
:10696C0019481A4B03600323436000238360184AC1
:10697C00C26003618033836101F006FE00281CD1E4
:10698C0007A94023079340338B600F4802F0DCF8D3
:10699C00002814D1694660230093503B01930023D7
:1069AC00029304930848002201F060FE002808D1ED
:1069BC00054800F09FF90BB000BDFFF7CBFEFFF7C9
:1069CC00C9FEFFF7C7FEC046680200200004004065
:1069DC00FFFF000010B592B004AC3822002120005B
:1069EC0005F090FF10220021684605F08BFF8020F7
:1069FC00800001F049FA0123049380235B02059384
:106A0C0002230B9301330C9300230D9310330E933D
:106A1C0080239B020F93A0231B0510938023DB057F
:106A2C001193200000F0F6FA00281BD168460723CA
:106A3C000093053B0193002302930393022100F082
:106A4C00D7FD002810D1094AD16880235B050B4380
:106A5C00D3608022A0219205C904054800F036FDC0
:106A6C0012B010BDFFF776FEFFF774FE0010024067
:106A7C000400050010B501F0BDFAFFF7ABFFFFF7FE
:106A8C00BBFDFFF7ABFDFFF767FEFFF78BFEFFF7D4
:106A9C00AFFEFFF7E3FEFFF71DFFFFF755FF04F016
:106AAC004DFEFEE710B5024805F006FEFEE7C046B7
:106ABC0098F8000810B5024805F0FEFDFEE7C04648
:106ACC00A4F800087047704710B501F0A7FA10BD84
:106ADC0000B583B0144B196C012211431964196C65
:106AEC000A400092009ADA6B802149050A43DA6366
:106AFC00DB6B0B400193019B0520002202214042DD
:106B0C0001F038FA022000220221404201F032FA50
:106B1C0001F0B2FA022001F0A5FAC020C00001F089
:106B2C00B3FA03B000BDC0460010024010B588B0E7
:106B3C0004001422002103A805F0E4FE2268104B87
:106B4C009A4201D008B010BD0E4BDA6B802189053A
:106B5C000A43DA63DA6B0A400192019A596B0122FB
:106B6C00114359635B6B1A400292029B03A92023C9
:106B7C0003931D3B4B60A020C00501F03DF8E1E7FD
:106B8C00007400400010024030B589B0040014229B
:106B9C00002103A805F0B6FE2268294B9A4201D0C9
:106BAC0009B030BD274B1A6C80256D012A431A643D
:106BBC001A6C2A400192019A596B022211435963B3
:106BCC005B6B13400293029B03A9382303934A6027
:106BDC00CA601D4801F010F81C481D4B03601023BF
:106BEC00436000238360C360802202614361836140
:106BFC00C361056201F0F0F800281BD1134BA365AB
:106C0C009C621448144B036011234360013B836066
:106C1C000023C3608022026143618361C3618023CE
:106C2C005B01036201F0D8F8002806D1094B6365BB
:106C3C009C62B5E7FFF78EFDE0E7FFF78BFDF5E70C
:106C4C00003001400010024000040050A803002056
:106C5C00080002404C0300201C00024010B590B00C
:106C6C0004003422002103A805F04CFE2368144ACA
:106C7C00934205D08022D205934217D010B010BD9C
:106C8C0080239B03039303A800F092FD00280AD1F4
:106C9C000C4B1A6C802109010A431A641B6C0B40C3
:106CAC000193019BEAE7FFF755FDF1E7054AD16B2C
:106CBC0001231943D163D26B13400293029BDDE78E
:106CCC00002C01400010024082B00268074B9A422F
:106CDC0001D002B07047064AD16B02231943D1632D
:106CEC00D26B13400193019BF3E7C04600040040B4
:106CFC000010024010B586B004001422002101A837
:106D0C0005F000FE22680D4B9A4201D006B010BD72
:106D1C000B4A516B012319435163526B1A40009279
:106D2C00009A01A9402201923E3A4A60CA600B6166
:106D3C00A020C00500F060FFE8E7C046000400405A
:106D4C000010024010B594B00400142200210FA8CA
:106D5C0005F0D8FD3422002102A805F0D3FD2268ED
:106D6C00244B9A4201D014B010BD0123029302A807
:106D7C0000F01EFD002836D11F4B1A6C8021C90172
:106D8C000A431A641A6C0A400092009A596B012249
:106D9C00114359635B6B13400193019B0FA9802333
:106DAC009B000F93FF3BFF3B4B608A60CA600A61FC
:106DBC00A020C00500F020FF1048114B03603323C6
:106DCC004360233B83600023C360802202614361E4
:106DDC008361C361036200F0FFFF002806D1074BFB
:106DEC00E3679C62BFE7FFF7B5FCC5E7FFF7B2FCB2
:106DFC00F5E7C04600380140001002407801002041
:106E0C004400024010B5041E0ED00379002B07D0AD
:106E1C00022323710023236101332371002010BD51
:106E2C004371FFF783FEF3E70120F8E730B5002844
:106E3C002ED04379012B2DD00123437102220271F4
:106E4C0005682C680E320A40934023432B600029BE
:106E5C0010D1026811683E230B40022B05D0012390
:106E6C00037100234371002030BD536801210B4393
:106E7C005360F4E704682168F8239B03194002234C
:106E8C0093409942EBD16368022213436360E6E7B7
:106E9C000120E9E70220E7E710B582B00024019455
:106EAC00002811D000680190002908D101998A1896
:106EBC0008320192019A1360002002B010BD0199B2
:106ECC008A1814320192F5E70120F6E7F8B50400B0
:106EDC000D001600002800D192E0002900D191E0AD
:106EEC004379012B00D18FE00123437101330371EE
:106EFC000B68042B2ED02B69012B00D174E0206879
:106F0C00C16B102232400723934099432B68AE6823
:106F1C003343EE68334393400B43C36320680368E9
:106F2C008021C90191408B43036020680168374B75
:106F3C00934099436B6893400B430360206803684C
:106F4C00C02191408B4303600123237100236371A3
:106F5C000020F8BD01F06EF80700002E14D0236855
:106F6C005A6B002A3DDA01F065F8C01B0128F6D9EE
:106F7C0023685B6B002BF2DA23690822134323612D
:106F8C00032323710320E4E72268536B1B0410D501
:106F9C0001F050F8C01B0128F6D923685B6B1B0469
:106FAC00F2D52369082213432361032323710320A1
:106FBC00CFE7AB6913642068826C1023334014490B
:106FCC0099408A43E96999400A4382642068C26CFB
:106FDC00FF2199408A43296A99400B001343C364EB
:106FEC0089E7AA695A64E6E72068816B102232406F
:106FFC001E33934099436B6993400B4383637EE745
:10700C000120A6E70120A4E70220A2E7FE0F000062
:10701C00FF03000070B582B0041E00D131E203689A
:10702C00DB0739D5C14A916838230B40D16803225C
:10703C000A40102B26D0082B26D0636880225202DF
:10704C0093427FD0A022D202934200D181E0B74B71
:10705C001A68B7490A401A601A68B6490A401A6099
:10706C006368002B00D180E000F0E4FF0500AF4B1B
:10707C001B689B0310D400F0DDFF401B6428F6D97D
:10708C000320FFE1032AD6D1A84B1B689B0303D531
:10709C006368002B00D1F7E123689B0731D5A34A25
:1070AC00916838230B40D16803220A40102B6AD018
:1070BC00002B6BD19D4A1268520503D5E268002A59
:1070CC0000D1E3E1994842689B490A406169090291
:1070DC000A434260002B0DD1036898490B4021698B
:1070EC000B4303600368DB0A07221A40944BD3401E
:1070FC00944A1360944B186800F050FF002800D09D
:10710C00C6E123681B0700D481E0884B9A683823BA
:10711C001340182B73D0A369002B00D1B4E0834A21
:10712C00136E01210B43136600F084FF05007F4BA7
:10713C001B6E9B076BD400F07DFF401B0228F6D919
:10714C0003209FE1794A116880235B020B43136093
:10715C0086E7764B19688022D2020A431A601968B6
:10716C00802252020A431A607AE700F063FF05009E
:10717C006E4B1B689B038FD500F05CFF401B642893
:10718C00F6D903207EE1022A92D193E7E368002B23
:10719C0022D0664A136869490B4021690B4313607E
:1071AC00116880235B000B43136000F043FF050064
:1071BC005E4B1B685B0506D400F03CFF401B0228AD
:1071CC00F6D903205EE159494B685B4A134062696A
:1071DC00120213434B6094E7544A13685B490B400B
:1071EC00136000F027FF0500504B1B685B0588D52A
:1071FC0000F020FF401B0228F6D9032042E14B4B44
:10720C001B6E9B0703D5A369002B00D142E12368B9
:10721C005B0700D4A2E0454B9A6838231340202B1F
:10722C0045D0424BDB6BDB004AD4404BDA6B802100
:10723C0049050A43DA63DB6B0B400193019B012583
:10724C00434B1B68DB053DD5A368012B4ED0052BAA
:10725C0052D0364BDA6D01218A43DA65DA6D03318F
:10726C008A43DA65A368002B50D000F0E3FE0600D9
:10727C002E4BDB6D9B076FD400F0DCFE801B354B77
:10728C009842F5D90320FDE0284A136E01218B4367
:10729C00136600F0CFFE0500244B1B6E9B07B6D582
:1072AC0000F0C8FE401B0228F6D90320EAE01F4B71
:1072BC00DB6D9B0752D5A368002B4FD10120E1E079
:1072CC000025BDE7224A116880235B000B43136045
:1072DC0000F0B0FE06001E4B1B68DB05B4D400F0BA
:1072EC00A9FE801B0228F6D90320CBE00F4AD36DF0
:1072FC0001210B43D365B5E70C4BDA6D04210A432E
:10730C00DA65DA6D03390A43DA65ABE700F092FE11
:10731C000600064BDB6D9B071ED500F08BFE801B19
:10732C000C4B9842F5D90320ACE0C046001002404B
:10733C00FFFFFEFFFFFFFBFFFF80FFFFFFC7FFFF0D
:10734C000024F400100000200C000020FFFEFFFFC2
:10735C000070004088130000012D1ED0E369002B43
:10736C0000D199E0544A916838220A40102A60D022
:10737C00022B18D0504A136850490B40136000F090
:10738C0059FE04004C4B1B689B014BD500F052FE80
:10739C00001B0228F6D9032074E0474AD36B4849F6
:1073AC000B40D363DAE7444A136844490B4013603B
:1073BC0000F040FE0500404B1B689B0106D500F019
:1073CC0039FE401B0228F6D903205BE03A4AD36809
:1073DC003C491940236A606A0343A06A00020343D4
:1073EC00E06A0343206B0343606B03430B43D3609E
:1073FC00116880235B040B431360D16880235B0509
:10740C000B43D36000F016FE04002B4B1B689B0152
:10741C0006D400F00FFE001B0228F6D9032031E041
:10742C0000202FE0244AD36827490B40D36000206A
:10743C0028E0012B32D0204BDA6803231340216A59
:10744C008B422DD170231340616A8B422AD1FE21CD
:10745C00C9011140A36A1B02994225D1F8239B0351
:10746C001340E16A8B4221D1E0231B051340216BB1
:10747C008B421DD1520F5207636B9A421AD10020D6
:10748C0000E0012002B070BD0120FBE70120F9E70C
:10749C000120F7E70120F5E70020F3E70120F1E7F1
:1074AC000120EFE70120EDE70120EBE70120E9E700
:1074BC000120E7E70120E5E700100240FFFFFFFE97
:1074CC00FFFFFFEF8C80C111FCFFFEEEF0B589B021
:1074DC0003000091019203A902224A600132CA60A2
:1074EC0000228A60802676050640000C0F3202408E
:1074FC00A0204003101880020D4D6F6B01249440A6
:10750C0022003A436A631A04120C03921B0DFF22E9
:10751C0013400B6100F070FB002E07D1AB680549DE
:10752C000B40009C01990C431C43AC6009B0F0BDAE
:10753C0000100240FFFFFF8810B52A4B9B683822D1
:10754C001A4207D1274B1A68D20A07231340264840
:10755C00D84010BD234B9A6838231340082B3BD0DE
:10756C00204B9A6838231340102B0DD01D4B9A6872
:10757C0038231340202B31D01A4B9A6838231340F0
:10758C00182B26D00020E4E7164AD1680D3B0B409F
:10759C00D2681209072111400131032B0FD0124878
:1075AC00FEF798FD0F4BDA68120A7F2313405843FD
:1075BC000C4BD968490F0131FEF78CFDC9E70B481C
:1075CC00FEF788FD074BDA68120A7F2313405843F5
:1075DC00EEE7FA20C001BCE70448BAE780200002BD
:1075EC00B7E7C046001002400024F400001BB700AF
:1075FC0070B504000D00002800D1AAE0574B1A68A2
:10760C00072313408B4221D323689A070ED55B07BF
:10761C0005D5534A9168E023DB010B439360504A34
:10762C00936850490B40A1680B4393602368DB07B8
:10763C0054D56368012B20D0022B3BD0002B3FD1BB
:10764C00474A126852051CD401206AE0434A136869
:10765C0007218B432B43136000F0ECFC06003F4BDF
:10766C001A6807231340AB42CED000F0E3FC801B1A
:10767C003D4A9042F3D9032053E0394A12689203F1
:10768C0069D537498A680720824313438B6000F021
:10769C00D1FC0600324B9B6838221A406368DB0031
:1076AC009A421BD000F0C6FC801B2F4B9842F1D99C
:1076BC00032036E02A4A12689201E2D4012030E01D
:1076CC00032B05D0264AD26D9207DAD4012028E08C
:1076DC00234A126E9207D4D4012022E01F4B1A6861
:1076EC0007231340AB421DD823685B0706D51C4A01
:1076FC0093681E490B40E1680B439360FFF71CFF36
:10770C00174B9A68120A0F231340194A9B009A5878
:10771C001F231340D840174B1860174B186800F004
:10772C003DFC70BD0D4A136807218B432B4313603E
:10773C0000F080FC0600094B1A6807231340AB428B
:10774C00D2D000F077FC801B074B9842F3D9032072
:10775C00E7E70120E5E70120E3E7C046002002400F
:10776C0000100240FFF0FFFF88130000FF8FFFFFA7
:10777C00CC0C0108100000200C000020014B1868F4
:10778C007047C0461000002010B5FFF7F7FF064BFE
:10779C009A68120B07231340044A9B009A581F2324
:1077AC001340D84010BDC04600100240AC0C01087C
:1077BC00F0B583B0040003689B0362D5814BDB6B8F
:1077CC00DB001ED47F4BDA6B802149050A43DA6358
:1077DC00DB6B0B400193019B01267B4A11688023D4
:1077EC005B000B43136000F025FC0500764B1B6817
:1077FC00DB0508D400F01EFC401B0228F6D903253B
:10780C0002E00026E9E70025002D23D16D4BD96D50
:10781C00C02292000B001340114212D0226B9A42EC
:10782C000DD0684AD36D69490B40D06D8021490257
:10783C000143D165D16D66480140D165D365DB0745
:10784C0010D4002D06D15F4AD36D60490B40216BDB
:10785C000B43D365012E15D15A4AD36B5D490B40AE
:10786C00D3630FE000F0E6FB0700564BDB6D9B0784
:10787C00E7D400F0DFFBC01B574B9842F5D903252A
:10788C00DFE700252368DB0706D54E4A536D03213D
:10789C008B4361680B43536523689B0706D5494AA4
:1078AC00536D0C218B43A1680B4353652368DB0696
:1078BC0006D5444A536D49490B40E1680B43536567
:1078CC0023689B0506D53F4A536D45490B40A1697A
:1078DC000B43536523685B0506D53A4A536D414902
:1078EC000B40E1690B43536523689B0606D5354A6B
:1078FC00536D3D490B4021690B43536523685B0471
:10790C000BD5304A536D9B009B08216A0B43536582
:10791C00226A8023DB059A4239D023681B0306D5E3
:10792C00284A536D40218B43616A0B43536523688E
:10793C009B020BD5234A536D2C490B40A16A0B4378
:10794C005365A26A8023DB039A4227D023685B022B
:10795C000BD51C4A536D26490B40E16A0B4353650A
:10796C00E26A80235B049A421FD023681B050BD567
:10797C00144A536D1F490B4061690B43536562698F
:10798C008023DB019A4215D0280003B0F0BD0D4ACC
:10799C00D16880235B020B43D360BEE7094AD168F0
:1079AC0080235B040B43D360D0E7064AD1680B43BA
:1079BC00D360DAE7034AD16880235B020B43D360C0
:1079CC00E2E7C0460010024000700040FFFCFFFFE1
:1079DC00FFFFFEFFFFFFFFEF88130000FFF3FFFF29
:1079EC00FFFFF3FFFFFFCFFFFFCFFFFFFFFFBFFF47
:1079FC00FFFFFFFEFF3FFFFF30B5054C616901251E
:107A0C00294361610260BFF36F8F436030BDC04694
:107A1C0000200240084B5B69002B01DB0020704703
:107A2C00054B064A9A60064A9A605B69002B01DB9B
:107A3C000020F4E70120F2E7002002402301674513
:107A4C00AB89EFCD70B5040000F0F4FA0500144BCF
:107A5C001B69DB0308D5631CF9D000F0EBFA401B63
:107A6C00A042F4D303201AE00D490A690D4B16000D
:107A7C001E400D4808611A420CD1094B1B695B036F
:107A8C000CD5631CF9D000F0D5FA401BA042F4D3FE
:107A9C00032004E0054B5E60012000E0002070BD77
:107AAC0000200240FAC30000FBC300007C0400204D
:107ABC00F8B507000C0015001E00144B1B78012BA9
:107ACC0022D0124B01221A7000225A60FA20800038
:107ADC00FFF7B8FF00280DD1012F0FD0290020008F
:107AEC0007F0AAFEFA208000FFF7ACFF084A5369A2
:107AFC00BB435361054B00221A70F8BD2A003300BA
:107B0C002000FFF779FFEDE70220F6E77C04002068
:107B1C000020024010B5FA208000FFF793FF064BBF
:107B2C005969802212060A435A615B69002B01DBFA
:107B3C00012010BD0020FCE700200240034A5369DD
:107B4C0003438020400218435061704700200240DC
:107B5C00044A536904480340C9001943034B0B43BF
:107B6C00536170470020024007E0FFFF0200010054
:107B7C0070B504000E001E4B1B78012B36D01C4B2D
:107B8C0001221A7000225A60FA208000FFF75AFF77
:107B9C00002827D1042363602368042B14D001230D
:107BAC005B423360A568A368E2689B18AB4214D9AA
:107BBC0060682900FFF7CCFFFA208000FFF742FF36
:107BCC00002809D10135EEE70430FFF7B7FFFA20A2
:107BDC008000FFF737FF05E03560064A5369022144
:107BEC008B435361024B00221A7070BD0220FCE7DC
:107BFC007C04002000200240F0B5002359E0866888
:107C0C005F000324BC40A643CC68BC403443846072
:107C1C00446894434E683609012232409A4022430C
:107C2C00426056E0DE080836B600375805321A4076
:107C3C0092000F249440A7430C69944022003A43CD
:107C4C00325059E0032600E00026A64034003C43A5
:107C5C00424E1832920094513768EA433E00AE43CC
:107C6C004C68E40201D53E002E433C4C266067680C
:107C7C003E0016404C68A40201D53E002E43374C02
:107C8C0066608426A7593E0016404C68A40301D5B3
:107C9C003E002E43314C8427E6518026A6593240B3
:107CAC004C68E40301D52A0032432C4D80242A5120
:107CBC0001330C682200DA404ED001229A40250094
:107CCC0015401442F4D04E6803243440013C012C7E
:107CDC0095D94C6803222240032A08D0C4685E0060
:107CEC000322B24094438A68B2402243C2604C687B
:107CFC0003222240022A95D004685E00032217005A
:107D0C00B740BC434F683A40B240224302604C68D3
:107D1C00C02292021442CBD09A0814001834A4004A
:107D2C000E4EA75903241C40E4000F26A640B7436F
:107D3C00A026F605B04287D0094EB04208D0094EB5
:107D4C00B04207D0084EB04200D17BE705267CE755
:107D5C0001267AE7022678E7F0BDC04600180240FB
:107D6C000004005000080050000C0050002A01D004
:107D7C00816170478162FCE710B50400036C9B08BD
:107D8C00094A944663449B0043640368FF201840EF
:107D9C0008381421FEF79EF9044BA3641F231840E6
:107DAC001E3B8340E36410BD00820010800802403B
:107DBC0042683F231340064A9A1892000265054A0E
:107DCC004265013B03221A400123934083657047AF
:107DDC003F8200104009024070B5041E4DD005686A
:107DEC00274BE8181421FEF775F980002064252331
:107DFC000222E2542B68234A13402B6021680A6844
:107E0C00A368E06803432069034360690343A069E6
:107E1C000343E0690343206A034313430B602000D0
:107E2C00FFF7AAFFA2688023DB019A4218D0616891
:107E3C00626C3F230B401360A36CE26C5A60636866
:107E4C00013B032B0FD9002323656365A365002336
:107E5C00E36325220121A154013AA354002070BDF3
:107E6C0000236360E3E72000FFF7A2FF236D0022ED
:107E7C001A60636DA26D5A60E9E70120EFE7C04616
:107E8C00F8FFFDBF0F80FFFF10B5104A13681049B3
:107E9C000B400343136080239B00984201D00020C9
:107EAC0010BD0C4B1B685800C01840000A49FEF767
:107EBC0011F90130054B5B695B0503D5002803D034
:107ECC000138F7E70020EBE70320E9E700700040FA
:107EDC00FFF9FFFF1000002040420F0070B5002892
:107EEC0011DB8308134DC0339B005C5903221040F7
:107EFC00C000FC3216008640B44389010A4082401F
:107F0C0022435A5170BD0F230340083B9B08063394
:107F1C009B00094A944663445C6803221040C000ED
:107F2C00FC3215008540AC4389010A408240224353
:107F3C005A60E7E700E100E000ED00E00138802343
:107F4C005B0498420FD2094A50600948036A1B022D
:107F5C001B0AC02109060B430362002393600733FD
:107F6C001360002070470120FCE7C04610E000E0E1
:107F7C0000ED00E010B5FFF7B1FF10BD002805DBE8
:107F8C001F22024001239340014A13607047C046F0
:107F9C0000E100E010B5FFF7D1FF10BD10B50400F3
:107FAC00114B1978002901D1012010BDFA20800055
:107FBC00FEF790F801000D4B1868FEF78BF8FFF7F1
:107FCC00E9FF00280DD1032C01D90120EDE7013088
:107FDC00002221004042FFF7CDFF054B1C60002022
:107FEC00E3E70120E1E7C046080000201000002074
:107FFC000C00002010B5084A116880235B000B436D
:10800C0013600220FFF7CAFF041E02D001242000D7
:10801C0010BDFEF75DFDFAE700200240034B1B7814
:10802C00034A11685B1813607047C04608000020B3
:10803C0098040020014B18687047C0469804002033
:10804C0070B50400FFF7F6FF0500631C02D0044B6B
:10805C001B78E418FFF7EEFF401BA042FAD370BD6B
:10806C0008000020034A136802218B43034313606A
:10807C007047C04630000140024A136801218B430F
:10808C001360704730000140034A136803490B40EA
:10809C00034313607047C04600000140FFF9FFFF27
:1080AC0070B5041E00D178E0436A002B07D14268FA
:1080BC000533FF339A4205D00023C36102E000234D
:1080CC00036143610023A3625D33E35C002B5AD050
:1080DC005D230222E2542268136840218B43136013
:1080EC00E368E022D200934254D90022F021090126
:1080FC008B4205D0E021C9008B4201D00023A36242
:10810C006368822149000B40A16884200002014071
:10811C000B432069022101400B4360690121084097
:10812C000343A0698025AD0028400343E56938204E
:10813C0028400343256A802028400343A06A8025F9
:10814C00AD012840256803432B60608B042303405A
:10815C00656A102028400343656B082028400343C0
:10816C00E068F0252D012840034320681343436049
:10817C002268D3690A480340D361002323665D3328
:10818C00E154002070BD5C330022E2542000FEF765
:10819C00FBFC9DE780225201A8E70120F2E7C046D4
:1081AC00FFF7FFFF30B5056A036A012293430362B0
:1081BC0042688369194C23400C681C4302239D437D
:1081CC008B682B43164DA84208D0164DA84205D0FB
:1081DC00154DA84202D0154DA84206D10825AB4337
:1081EC001D00CB682B430425AB430D4DA84208D092
:1081FC000C4DA84205D00C4DA84202D00B4DA84204
:10820C0005D10B4D2A404D6915438A692A434260BA
:10821C0084614A684263036230BDC0468CFFFEFF36
:10822C00002C014000400140004401400048014046
:10823C00FFFCFFFF30B5046A036A184A134003625F
:10824C004268C369164D2B400D681D43154B1C40ED
:10825C008B681B022343144CA04209D0134CA04240
:10826C000DD0134CA0420AD0124CA0420FD106E004
:10827C00114C1C40CB681B022343104C2340104C68
:10828C0022404C69240114438A6912012243426042
:10829C00C5614A68C263036230BDC046FFFEFFFF82
:1082AC008CFFFEFFFFFDFFFF002C01400040014052
:1082BC000044014000480140FFF7FFFFFFFBFFFFB8
:1082CC00FFCFFFFF30B5046A036A134A1340036201
:1082DC004368C269114D2A400D682D021543104A9E
:1082EC0014408A68120322430E4CA04208D00E4C54
:1082FC00A04205D00D4CA04202D00D4CA04204D19E
:10830C000C4C1C404B699B0123434360C5614B687B
:10831C000364026230BDC046FFEFFFFFFF8CFFFE1F
:10832C00FFDFFFFF002C01400040014000440140F2
:10833C0000480140FFBFFFFF30B5046A036A124AD0
:10834C00134003624368426D104D2A400D6815437B
:10835C000F4A14408A68120422430E4CA04208D0E3
:10836C000D4CA04205D00D4CA04202D00C4CA042AA
:10837C0004D1054C1C404B691B02234343604565EB
:10838C004B688365026230BDFFFFFEFF8FFFFEFF6F
:10839C00FFFFFDFF002C0140004001400044014064
:1083AC000048014030B5046A036A134A1340036263
:1083BC004368426D114D2A400D682D021543104A39
:1083CC0014408A68120522430E4CA04208D00E4C71
:1083DC00A04205D00D4CA04202D00D4CA04204D1BD
:1083EC000C4C1C404B699B022343436045654B6816
:1083FC00C365026230BDC046FFFFEFFFFF8FFFFE7B
:10840C00FFFFDFFF002C0140004001400044014011
:10841C0000480140FFFFFBFF30B5036A046A0125E9
:10842C00AC4304628469EF35AC43120122430A2445
:10843C00A3430B438261036230BD000030B5036A75
:10844C00046A1025AC4304628469054D2C40120368
:10845C002243A024A343090119438261016230BD68
:10846C00FF0FFFFF8368034A13400B43072213439C
:10847C00836070478FFFCFFF0368244A904206D079
:10848C008022D205904202D0214A904203D1702220
:10849C0093434A6813431D4A904212D08022D2055E
:1084AC0090420ED01A4A90420BD01A4A904208D0F1
:1084BC00194A904205D0194A904202D0184A90426B
:1084CC0003D1184A1A40CB681343802293434A695C
:1084DC00134303608B68C3620B6883620B4B984237
:1084EC0008D00D4B984205D00C4B984202D00C4B47
:1084FC00984201D10B690363012343610269134262
:10850C0003D003690122934303617047002C01409F
:10851C0000040040002000400040014000440140A5
:10852C0000480140FFFCFFFF70B5041E2AD03D231C
:10853C00C35C002B20D03D2502236355210001C9CB
:10854C00FFF79AFF01234822A3540A3AA35401329D
:10855C00A3540132A3540132A3540132A354013267
:10856C00A3540132A3540132A3540132A354013257
:10857C00A3546355002070BD3C330022C254FEF757
:10858C006DFBD8E70120F6E770B5041E2AD03D2319
:10859C00C35C002B20D03D2502236355210001C96B
:1085AC00FFF76AFF01234822A3540A3AA35401326D
:1085BC00A3540132A3540132A3540132A354013207
:1085CC00A3540132A3540132A3540132A3540132F7
:1085DC00A3546355002070BD3C330022C254FEF7F7
:1085EC0073FBD8E70120F6E770B5026A036A102422
:1085FC00A343036244688369164D2B400D682D021A
:10860C001D4320239A438B681B011343124A90424B
:10861C0009D0124A90420ED0114A90420BD0114A06
:10862C00904210D107E0802293431E00CB681B01BF
:10863C003343403A93430C4A14404A699200224314
:10864C008C69A4001443446085614A6882630362A8
:10865C0070BDC046FF8CFFFE002C01400040014065
:10866C000044014000480140FFF3FFFF70B50400D7
:10867C000D003C23C35C012B00D192E03C23012173
:10868C00C154142A00D987E09200474B9B589F464F
:10869C0000682900FFF786FD2268936908210B43C7
:1086AC0093612268936904398B43936122689369BF
:1086BC0029690B43936100206FE000682900FFF7E4
:1086CC0093FF2268916980231B010B4393612268FD
:1086DC00936936490B40936121688B692A691202B0
:1086EC0013438B61002058E000682900FFF7A2FDBE
:1086FC002268D36908210B43D3612268D3690439FA
:10870C008B43D3612268D36929690B43D361002061
:10871C0043E000682900FFF7D5FD2268D16980236A
:10872C001B010B43D3612268D36920490B40D361F1
:10873C002168CB692A6912021343CB6100202CE01B
:10874C0000682900FFF7F8FD2268536D08210B43E0
:10875C0053652268536D04398B4353652268536DFE
:10876C0029690B435365002017E000682900FFF7C7
:10877C0019FE2268516D80231B010B43536522683F
:10878C00536D0A490B40536521684B6D2A691202DF
:10879C0013434B65002000E001203C230022E254EF
:1087AC0070BD0220FCE7C046A80B0108FFFBFFFFD1
:1087BC0030B58468034D2C401B0213430B432343F9
:1087CC00836030BDFF00FFFF10B504000B003C229E
:1087DC00825C012A00D177E03C22012181540132D4
:1087EC000131815401688A68384802408A601968EE
:1087FC0060294FD023D8402957D011D8202904D034
:10880C000AD8002901D0102904D12068FFF72AFECC
:10881C0000202AE0012028E03029F6D0012024E0B5
:10882C0050290AD15968DA682068FFF7F5FD2068ED
:10883C005021FFF717FE002017E0012015E08022E1
:10884C00520191423CD080229201914214D0702965
:10885C0038D199685A68DB682068FFF7A9FF22684D
:10886C00936877210B43936000203D230122E2544F
:10887C00013B0022E25410BD99685A68DB682068FD
:10888C00FFF796FF226891688023DB010B4393600E
:10889C000020EAE75968DA682068FFF7CFFD206806
:1088AC006021FFF7DFFD0020DFE75968DA682068F8
:1088BC00FFF7B2FD20684021FFF7D4FD0020D4E77C
:1088CC000020D2E70120D0E70220D4E78800CEFFB9
:1088DC0070B50B000468A1682C4A11405A680A4311
:1088EC002B490A4019680A43A2605A68502A31D0B1
:1088FC000BD9602A35D0702A44D1D9689A681B6983
:10890C000068FFF755FF002070BD402A0DD02FD80E
:10891C00202A2FD005D8002A2ED0102A2ED10020A4
:10892C00F2E7302A2CD10020EEE71A68052A2BD06A
:10893C000268146A116A0125A943116201688A69E7
:10894C00EF35AA431B691B0113438B6103681C623F
:10895C000020D9E799681A690068FFF75DFD0020CF
:10896C00D2E799681A690068FFF768FD0020CBE729
:10897C000120C9E70020C7E70020C5E70120C3E7B5
:10898C000120C1E70120BFE70120BDE78FFFCFFF2A
:10899C00F8FFFEFF10B504003C23C35C012B22D072
:1089AC003C230122C25401330132C254FFF790FF21
:1089BC00002810D12268D36840218B43D3602268F1
:1089CC00D3680A490B40D3603D230122E254013B9A
:1089DC000022E25410BD3D230122E254013B00224F
:1089EC00E2540120F6E70220F4E7C046FFBFFFFF88
:1089FC0010B51F23194001248C40036AA343036262
:108A0C00036A8A401343036210BD000010B50400D2
:108A1C00102926D88B00444AD3589F463E23C35C6A
:108A2C00013B5A1E9341DBB221E03F23C35C013B67
:108A3C005A1E9341DBB21AE04023C35C013B5A1E21
:108A4C009341DBB213E04123C35C013B5A1E9341BB
:108A5C00DBB20CE04223C35C013B5A1E9341DBB2F8
:108A6C0005E04323E35C013B5A1E9341DBB2002B30
:108A7C0054D1102917D88B002C4AD3589F463E232B
:108A8C000222E25412E03F230222E2540EE0402381
:108A9C000222E2540AE041230222E25406E042237D
:108AAC000222E25402E043230222E2542068012213
:108ABC00FFF79EFF23681E4A934208D01D4A93423B
:108ACC0005D01D4A934202D01C4A934204D1596CE2
:108ADC00802212020A435A642368154A93420FD02B
:108AEC008022D20593420BD0154A934208D0114AEA
:108AFC00934205D01A6801210A431A6000200EE047
:108B0C009A6810490A40062A0AD007398A4209D0C5
:108B1C001A6801210A431A60002000E0012010BDF0
:108B2C000020FCE70020FAE7FC0B0108400C0108D0
:108B3C00002C01400040014000440140004801402D
:108B4C00000400400700010030B53C23C35C012B3E
:108B5C0030D03C230122C25401330132C25402688A
:108B6C0053689568144CA2421FD07024A3430C6820
:108B7C00234353600368104A934209D08022D205E4
:108B8C00934205D00D4A934202D00D4A934204D130
:108B9C00802295438A682A439A603D230122C2545D
:108BAC00013B0022C254002030BD064C23404C68CF
:108BBC002343DAE70220F7E7002C014000040040D1
:108BCC0000400140FFFF0FFF30B5EFF3108401228E
:108BDC0082F3108801680B68124D2B400B6084F3F4
:108BEC001088EFF3108182F31088026893680E4CA2
:108BFC002340936081F31088C36E012B06D08C2325
:108C0C002022C2500023C366436730BDEFF31081AE
:108C1C0083F31088026813681024A343136081F354
:108C2C001088ECE7DFFEFFFFFEFFFFEFF8B5040056
:108C3C0083680269134342691343C2691343016891
:108C4C000A68A848024013430B6022685368A6497F
:108C5C000B40E1680B435360A1692268A34B9A4215
:108C6C0001D0236A19439368A14803400B439360D6
:108C7C002268D36A0F218B43616A0B43D36223684A
:108C8C009C4A934222D09C4A934230D09B4A9342B6
:108C9C0064D09B4A934263D0944A934238D01022BA
:108CAC0092498B4266D0E06980231B02984200D126
:108CBC00A7E0042A00D1F9E000D9D6E0002A00D1BF
:108CCC00DAE0022A00D0CEE08E48D9E08E4A516D0F
:108CDC0003220A40022A33D005D8002A32D0012AB6
:108CEC0032D10332DCE7032A30D10532D8E7864A89
:108CFC00516D0C220A40082A2AD005D8002A29D006
:108D0C00042ACDD01022CBE70C2A25D1043AC7E790
:108D1C007D4A526DC02109010A40802109018A4215
:108D2C0020D007D8002A1FD08021C9008A421DD12B
:108D3C000422B5E7C02109018A4219D10822AFE704
:108D4C000222ADE70022ABE71022A9E71022A7E729
:108D5C000222A5E70022A3E71022A1E700229FE749
:108D6C0000229DE702229BE7002299E7102297E759
:108D7C00102295E7042A40D007D8002A0CD0022AEA
:108D8C0001D1604D0EE00120A2E0082A02D180251D
:108D9C002D0207E001209BE0FEF7F6FC0500002DFC
:108DAC0000D186E0626A594B5200D75A390028002C
:108DBC00FDF790F9666873009B1983427BD83303E7
:108DCC0083427AD33A00002328000021FDF770FB80
:108DDC00050E0B022B43020270080021801859412A
:108DEC0032000023FDF764FB494BC218494B9A42F1
:108DFC0065D82368D86000206AE0FEF79DFB05006B
:108E0C00CDE7042A2CD007D8002A09D0022A01D198
:108E1C003C4809E001205BE0082A05D0012057E01E
:108E2C00FEF7B2FC00284CD0626A384B5200D15A83
:108E3C00FDF750F9400061684B08C018FDF74AF97E
:108E4C000200103A344B9A423DD882B20F239A4317
:108E5C004008083B034013432268D360002037E0EE
:108E6C00FEF76AFBDEE7012032E0082A02D18020FF
:108E7C00000205E001202BE0FEF786FC002824D040
:108E8C00626A224B5200D15AFDF724F961684B08F3
:108E9C00C018FDF71FF90200103A1F4B9A4216D862
:108EAC0023680004000CD860002011E0FEF744FB9E
:108EBC00E4E700200CE001200AE0012008E001209A
:108ECC0006E0002004E0012002E0002000E0012088
:108EDC0001236A22A352023AA35200236367A367B9
:108EEC00F8BDC046F369FFCFFFCFFFFF0080004005
:108EFC00FFF4FF11003801400044004000480040DE
:108F0C00004C00400024F40000100240840C0108C6
:108F1C0000FDFFFFFFFC0F00EFFF0000836A1B0743
:108F2C0006D5026853682C490B40816B0B43536088
:108F3C00836ADB0706D50268536828490B40C16A6F
:108F4C000B435360836A9B0706D502685368244918
:108F5C000B40016B0B435360836A5B0706D50268B9
:108F6C00536820490B40416B0B435360836ADB060B
:108F7C0006D5026893681C490B40C16B0B43936088
:108F8C00836A9B0606D50268936818490B40016CEE
:108F9C000B439360836A5B060BD5026853681449D4
:108FAC000B40416C0B435360426C80235B039A4231
:108FBC000AD0836A1B0606D5026853680D490B401C
:108FCC00C16C0B4353607047026853680A490B40ED
:108FDC00816C0B435360ECE7FF7FFFFFFFFFFDFF4E
:108FEC00FFFFFEFFFFFFFBFFFFEFFFFFFFDFFFFFBA
:108FFC00FFFFEFFFFFFFF7FFFFFF9FFFF8B5CE4628
:10900C00474680B506000D0017009946089B984608
:10901C003368DC692C40641B63425C41BC4233D135
:10902C0043460133F4D0FFF705F84B46C01A4045D0
:10903C002FD84346002B2ED0326813685B07E7D538
:10904C00802DE5D0402DE3D0D3691B0710D4D36914
:10905C001B05DDD580231B0113623000FFF7B4FD27
:10906C0090232022F2500C3B0022F25403200CE0FF
:10907C00082414623000FFF7A7FD9023F4500C3B3A
:10908C000022F254012000E00020C0BCB946B046DA
:10909C00F8BD0320F9E70320F7E7000030B583B0F3
:1090AC00040090230022C250FEF7C4FF0500236881
:1090BC001B681B0710D423681B685B072BD4202369
:1090CC008822A3500432A3500023E3662367083A96
:1090DC00A354002003B030BD8021234B0093030028
:1090EC00002289032000FFF789FF0028E3D0EFF36B
:1090FC001081012383F31088226813688020834336
:10910C00136081F3108888232022E250043B002254
:10911C00E2547D38DEE78021134B00932B000022B4
:10912C00C9032000FFF76AFF0028C8D0EFF31080B6
:10913C00012282F3108821680B680C4D2B400B60C8
:10914C0080F31088EFF3108082F3108821688B680D
:10915C0093438B6080F310888C231F32E250083BC2
:10916C000022E2540320B5E7FFFFFF01DFFEFFFF03
:10917C0010B5041E35D08823C358002B27D0882364
:10918C002422E2502268136801218B431360A36AE6
:10919C00002B22D12000FFF749FD012816D02268B0
:1091AC00536811490B4053602268936822218B430A
:1091BC009360226893681A390B4393602268136892
:1091CC0007390B4313602000FFF768FF10BD843391
:1091DC000022C254FDF7B6FDD1E72000FFF79EFE3A
:1091EC00D8E70120F2E7C046FFB7FFFFF8B504004F
:1091FC00436E002B05D101336A228352023A83520B
:10920C00F8BD026895686D0E07231D409268520FD9
:10921C001340084FF85CC000074EF15CFCF7E4FF0C
:10922C006A23E052785DC000715DFCF7DDFF6823B6
:10923C00E052E5E7A40C01089C0C010870B5040091
:10924C008423C35C012B19D084250120605588260A
:10925C002423A35122681368116881431160802272
:10926C00920513436266226813602000FFF7BEFF6D
:10927C002023A35100236355002070BD0220FCE77E
:10928C00F8B504000A008423C35C012B1BD0842591
:10929C000120605588262423A35123681F68196870
:1092AC008143196020688368DB00D9081143816011
:1092BC002000FFF79BFF23681F602023A35100238E
:1092CC0063550020F8BD0220FCE70000F8B504004F
:1092DC000B008422825C012A1BD08425012060555E
:1092EC0088262422A25122681768116881431160D4
:1092FC002268916808480140194391602000FFF7EB
:10930C0075FF23681F602023A351002363550020A1
:10931C00F8BD0220FCE7C046FFFFFFF1014B024AFB
:10932C009A60704700ED00E00060000810B5030083
:10933C000C4A0D49521A0D490968002907D00B49EE
:10934C000868C318934206D8084A136010BD074931
:10935C0007480860F3E703F041FB0C23036001208E
:10936C004042F3E700900020000400009C04002021
:10937C00F06400200120704710B503F02FFB16237A
:10938C0003600120404210BD10B501214942FFF796
:10939C00F3FFFEE770B50C001600002504E000E0BA
:1093AC0000BF207001350134B542F8DB300070BDD0
:1093BC0001204042704780239B014B600020704786
:1093CC000120704700207047806800E0006800288A
:1093DC0002D003898B42F9D1704710B58369DB79D0
:1093EC005BB2002B02DB00F083F910BD00F032FA07
:1093FC00FBE770B505000C008969002909D04068AD
:10940C00EFF3108672B600F0E6FB86F310880023AB
:10941C00A3612868EFF3108572B6210000F0DBFB26
:10942C0085F3108870BD70B504004568018928006B
:10943C00FFF7CAFF002806D128000830210000F0F1
:10944C00CAFB002070BD01204042FBE710B5837AB7
:10945C00102B07D0002B02D000F09EF910BD00F0AD
:10946C0017F9FBE701204042F8E7030014300A7CAF
:10947C00F02A08D08A721A7ECA725B7E0B730B714B
:10948C008B7C4B717047703AF4E70000F0B5C64620
:10949C0000B504000023984615E043460233DB0078
:1094AC00E3185F6825E02068EFF3108572B600F0D2
:1094BC0083FB85F31088E0611EE0234803F0FCF881
:1094CC0001239C46E0444346002BE6DD80BCB846B5
:1094DC00F0BD0C30EFF3108672B6290000F07BFB68
:1094EC0086F3108803E029002000FFF782FF002399
:1094FC00E361E369002BD6D0E369002BDDD03B6838
:10950C0038009847061EDBD0E5692422002128008C
:10951C0003F0F8F9AE6143460233DB00E3181B7A23
:10952C00AB712800FFF759FF0028DCD1A98A200075
:10953C00FFF74AFF002802D0037E002BC9D0290078
:10954C002000FFF756FFD2E7B8F8000870B50C0002
:10955C00FFF78BFF051E0DD02000FFF777FF061ECF
:10956C000AD128684368A16998470023A361E36185
:10957C00300070BD0426FBE70226F9E770B5050044
:10958C000C000B7C102B0BD0FFF7E0FF06008023A8
:10959C005B4203432372E379DB0721D5300070BDB6
:1095AC00898AFFF711FF061E02D0037E002B05D01F
:1095BC0021002800FFF71DFF0026EFE720000A30EE
:1095CC0021001031032203F03EFA30000C30EFF38F
:1095DC00108572B6210000F0FEFA85F31088EBE7D7
:1095EC0021002800FFF705FFD8E710B50389CB81D0
:1095FC004068FFF7C3FF10BD10B54369002B08D0BE
:10960C000C30EFF3108472B600F0D6FA84F31088A5
:10961C0010BD0020FCE710B5FFF705FF10BD30B5FD
:10962C000024002C02DD0120404230BDA51CED00C1
:10963C0045196D68002D01D00134F2E70234E400C5
:10964C0000194160027243720020EEE770B504000D
:10965C000E0015002022002103F054F926606560ED
:10966C0070BD037C002B0AD1C3897F2B0AD8828A58
:10967C007F2A0AD80B70838A4B7002207047012016
:10968C004042FBE701204042F8E701204042F5E769
:10969C0070B504008569037B2B71837C6B71E91DAC
:1096AC00FFF7DFFF002804DB2023E35C1B18AB7102
:1096BC00002070BD10B50023CB56002B12DB00240C
:1096CC0084728279C2720474427402790273427990
:1096DC0082740A78C2814B7883827F22934304D1AF
:1096EC00022010BD01204042FBE701204042F8E778
:1096FC0070B5040085692E1D2B7903716B7943714C
:10970C00E91DFFF7D7FF002807DBC31CF618E6613D
:10971C00AB791B1A2022A354002070BD30B54B1C12
:10972C00827AA02A32D00022047CF02C30D0150191
:10973C00802464422C430C70940704D5C37A4B707C
:10974C00CB1C047B8C70002A04D0427C1A70827C67
:10975C005A700233C4895A1C1C70C489FF2C06D958
:10976C009A1C240A5C700B78022423430B70848AA5
:10977C00531C1470808AFF2806D9931C000A507061
:10978C000A78012002430A70581A30BD0222CBE736
:10979C0001242243D2B2CAE770B50400856903796B
:1097AC002B7143796B71E91DFFF7B8FF002804DBBF
:1097BC002023E35C1B18AB71002070BD70B54C1CF2
:1097CC000B7837221D0095432A00802D3FD11B09B1
:1097DC007D3A1A409D0729D5A02484724C78C47216
:1097EC00CC1C8E780673002A29D0DB0725D5F023F4
:1097FC00037423784374A31C627882745C1C1A78FB
:10980C00C2810D78AD0704D59C1C5B781B021A43F2
:10981C00C281631C227882820D78ED0704D5A31CCB
:10982C006478240222438282581A70BD8025857286
:10983C008679C67206790673D5E7A023D8E780230C
:10984C00037483794374437983742300D6E701202E
:10985C004042EAE770B5040085692E1D2B7903712F
:10986C006B794371E91DFFF7A9FF002807DBC31CC7
:10987C00F618E661AB791B1A2022A354002070BDA8
:10988C00837A102B1AD0002B1AD0A02B0ED0037C6D
:10989C00F02B0DD00123C289FF2A0BD801229B1873
:1098AC00828AFF2A08D80120C01870470523F2E7E6
:1098BC000323F0E70222F2E70220F5E70020F4E7A9
:1098CC000220F2E7F0B5D6464F464646C0B5914663
:1098DC009A468468C768066945693B689C460123BB
:1098EC0098466346424693433B603B689C468223C2
:1098FC0098466346424693433B6053467B604B46D7
:10990C00002B28D0CC466346FB603B689C464B46FC
:10991C00002B24D08122634613433B60326801271D
:10992C00BA43326032687F37BA4332605346736051
:10993C00002916D00800F0603368002913D081226A
:10994C001343336023681D42FCD06560E0BCBA460B
:10995C00B146A846F0BD19339C468444D3E7012296
:10996C00D9E71830E7E70122EAE7F0B5C5680469E2
:10997C002E680127BE432E602E687F37BE432E60B3
:10998C006B60002A1BD01600EE602E68002A19D0DE
:10999C00832232432A6022680125AA43226022686E
:1099AC007F35AA432260636000290DD00800E06077
:1099BC00236800290AD0812213432360F0BD0600DE
:1099CC001936E1E70322E4E71830F0E70122F3E768
:1099DC0010B50268136840210B43136001684B6893
:1099EC00012213434B6001684B68022423434B60F4
:1099FC00C1680B6893430B6001690B6893430B6060
:109A0C0003680C33C268936003680C33026993607B
:109A1C0010BD0000F0B5DE4657464E464546E0B553
:109A2C0083B0040089469046344B020023CB23C2FA
:109A3C001B68136000254BE0009B2370618025712F
:109A4C00A260E060013180239B00994228DA8B1CD4
:109A5C007B432B4A9342F5D92A4A934220D8019A48
:109A6C005208D218EA404046121AD0171218424037
:109A7C0025483818C61780197040244EB4466344E4
:109A8C00DE179B1973408600B34658444000C0183B
:109A9C00A3689342D0D8D5D1E3688342D2D9CBE71F
:109AAC00009B013B0093009B002B10DB009B991C3F
:109ABC00C80F401840104844FCF70CFB0700144B2F
:109ACC009842EDD9134B984201D80021BBE70135E0
:109ADC00022D05DC0127AF4001971F230093E2E71D
:109AEC002379022B07D0200003B0F0BCBB46B24652
:109AFC00A946A046F0BD01332371F4E77CF80008B9
:109B0C00FFE0F5050065CD1D00EE85FF005D1EEE46
:109B1C003F420F00C0E1E40084B010B503AC0391E8
:109B2C00049205932379032B0FD003AC2378991C53
:109B3C004B101818FCF7CEFA63880233584323797C
:109B4C00D84010BC08BC04B0184702222271ECE7C4
:109B5C0030B583B0050000230093013B0193124CF8
:109B6C0002E0124B9C466444114B9C4219D9680884
:109B7C0000192900FCF7AEFA010080235B02984221
:109B8C0000D30C4948080019FCF7A4FA401BC31772
:109B9C00C0185840019A8242E3D9009401900028E1
:109BAC00DFD1009803B030BD80D1F008C0F2FCFFCB
:109BBC00FFE0F505FFFF000003008268002A08D0D3
:109BCC00006801681960013A9A60002A00D15A6055
:109BDC0070470020FCE783685A1C8260002B05D07C
:109BEC0043681960416000230B6070470160F9E71E
:109BFC0070B582B00400080015001E006B46D91D1C
:109C0C00087063681A689B88936201230022200005
:109C1C00FFF758FE33002A0000212000FFF752FE08
:109C2C0063681A689B889361002002B070BD70B5A0
:109C3C0082B00400080015001E006B46D91D087088
:109C4C0063681A689B889362012300222000FFF747
:109C5C0039FE3300002229002000FFF733FE636831
:109C6C001A689B889361002002B070BD10B5183043
:109C7C00EFF3108472B6FFF79FFF84F3108810BDCA
:109C8C0010B53D23C154436E5B681A689B88936280
:109C9C0001003D31406E02230A00FFF766FE10BD45
:109CAC0010B580235B420B433D2143543E23C254E9
:109CBC00436E5B681A689B88936201003D31406E6D
:109CCC0002230022FFF751FE10BD000010B582B038
:109CDC0004006B46FF22DA716C23C356002B0ADB9F
:109CEC00E03A1A40012393400F4880228350BFF37F
:109CFC004F8FBFF36F8F237CDBB2022BFBD8606ED0
:109D0C0001236A460732FFF773FF6C23E356002BDF
:109D1C0005DB1F221A4001239340034A13606B4654
:109D2C00D87902B010BDC04600E100E010B582B099
:109D3C00040008006B46DA716C23E356002B0ADB37
:109D4C001F221A4001239340104980228B50BFF3ED
:109D5C004F8FBFF36F8F237CDBB2022BFBD880219C
:109D6C0049420143C9B2606E01236A460732FFF7CC
:109D7C005EFF6C23E356002B05DB1F221A400123E8
:109D8C009340024A136002B010BDC04600E100E0EF
:109D9C00F0B5D6464F464646C0B582B080460E005A
:109DAC001700C56848084019FCF794F9441E022CAA
:109DBC0000D2022480235B029C4200D31D4CA3B230
:109DCC009946780840193900FCF784F9451E022D94
:109DDC0000D2022580235B029D4200D3154DABB20D
:109DEC009A46E2B20C214046FFF7A0FF4B461A0AF6
:109DFC000D214046FFF79AFFEAB20E214046FFF7CD
:109E0C0095FF53461A0A0F214046FFF78FFF434632
:109E1C00996809482D042D0C01952404240C0094F8
:109E2C003B00320002F0E2FB02B0E0BCBA46B146A5
:109E3C00A846F0BDFFFF0000CCF80008F0B5C64600
:109E4C0000B506000F0015000C21FFF73FFF04B210
:109E5C000D213000FFF73AFF00020443A3B29846ED
:109E6C000E213000FFF732FF04B20F213000FFF754
:109E7C002DFF00020443A4B2F0684346591C4B105A
:109E8C001818FCF727F93860F368611C4810C018E3
:109E9C00FCF720F9286080BCB846F0BDF0B5C6468A
:109EAC0000B586B004000D0000220121FFF73EFF33
:109EBC00A66800212000FFF709FF0200424B310089
:109ECC00180002F093FB2800FFF742FE0200E0604E
:109EDC0002AD3E4E31002800FFF79CFD059B009320
:109EEC000299039A049B3000FFF716FE0600E26805
:109EFC00A1683748330002F079FBE6602A783221FA
:109F0C002000FFF713FF6E88AA7830212000FFF79E
:109F1C000DFF2B791B01320A1A43D2B231212000DA
:109F2C00FFF704FFA368984632212000FFF7CEFE0E
:109F3C00060030212000FFF7C9FE07003121200068
:109F4C00FFF7C4FE234D00903B0032004146280031
:109F5C0002F04CFBA56833212000FFF7B7FE02008E
:109F6C001D4B2900180002F041FB10223321200068
:109F7C00FFF7DCFEA56836212000FFF7A7FE0200E4
:109F8C00164B2900180002F031FB012201212000A0
:109F9C00FFF7CCFEA56836212000FFF797FE0200E4
:109FAC000F4B2900180002F021FBA56800212000AE
:109FBC00FFF78CFE02000B4B2900180002F016FB79
:109FCC0006B080BCB846F0BDF4F800080024F400DC
:109FDC0018F9000838F9000864F900087CF9000841
:109FEC0098F90008BCF90008F0B5D6464F4646462D
:109FFC00C0B582B004000E0015001F000AAB04CBE4
:10A00C0091461B785BB298468368002B00D1B8E070
:10A01C00EFF3108A72B63000FFF7CEFD8AF310888A
:10A02C0020636661644B2360644B636067664B46D8
:10A03C00A3666C234246E254A168614802F0D6FA4A
:10A04C0000212000FFF742FE02005E4E3070A16836
:10A05C005D4802F0CBFA327813000A3BDBB2062BD8
:10A06C0000D991E000230D2191425B4157490B70BF
:10A07C00102A00D18FE0564BE36002212000FFF73D
:10A08C0025FE0E22024001231A43D2B2AB7B012BD8
:10A09C0000D18FE010231A4302212000FFF746FE67
:10A0AC002A780B212000FFF741FE2A7B1A21200081
:10A0BC00FFF73CFE6A7B1B212000FFF737FE2A7C52
:10A0CC0005212000FFF732FE2A8A120A0621200001
:10A0DC00FFF72CFEAA7C07212000FFF727FE6A8AD7
:10A0EC00120A08212000FFF721FE2A7D09212000F9
:10A0FC00FFF71CFEAA6869682000FFF749FE1122D1
:10A10C0016212000FFF712FE2A000832291D20001C
:10A11C00FFF794FEAB686A68A1682E4802F066FAF5
:10A12C00A36898460B212000FFF7D0FD06001A21EA
:10A13C002000FFF7CBFD07001B212000FFF7C6FD19
:10A14C00254D00903B0032004146280002F04EFAAB
:10A15C00A56810212000FFF7B9FD02001F4B290054
:10A16C00180002F043FA01232374DA221121200093
:10A17C00FFF7DCFD002002B0E0BCBA46B146A846B1
:10A18C00F0BD174B836043E7A168164802F02EFA26
:10A19C0001204042EFE7703201212000FFF7C6FD9D
:10A1AC00A9682000FFF77AFE102235212000FFF766
:10A1BC00BDFD62E71F336EE7799C000811A2000811
:10A1CC00E8F90008A1040020F8F90008A004002018
:10A1DC00005A62022CFA00084CFA000874FA0008C3
:10A1EC00E0F9000814FA000810B5037C012B03D029
:10A1FC00037C022B00D010BD032303741021FFF746
:10A20C003FFDF8E770B504002430EFF3108572B60B
:10A21C00FFF7E1FC85F310886C23E356002B0ADB77
:10A22C001F221A40012393400C4980228B50BFF30C
:10A23C004F8FBFF36F8F237C012B0AD06C23E35617
:10A24C00002B05DB1F221A4001239340034A1360A5
:10A25C0070BD2000FFF7C8FFF0E7C04600E100E04A
:10A26C007047704770B50400037C032B14D0037C3B
:10A27C00042B00D1C1E0037C052B00D1C8E0237C6A
:10A28C00062B00D1DDE0237C072B00D107E1A16870
:10A29C00914802F0ABF970BD3B33C35C426E52681F
:10A2AC00116892888A611C221A4212D01A0702D5B0
:10A2BC00826C01328264DA0602D5E26C0132E2640D
:10A2CC005A0702D5226D01322265844A1278002A7F
:10A2DC0026D13F2B0BD95A0602D5626D013262652D
:10A2EC005AB2002A24DB7D4A1278002A24D19A071C
:10A2FC002AD4A26B002A51D09B0636D43C23E35CB3
:10A30C00002B40D0002A76D002232374A36E1A6847
:10A31C0012699B881342BED12000FFF765FFBAE794
:10A32C00042323742C2216212000FFF7B9FCB2E77A
:10A33C00A26D0132A265D6E7042323740C221721E7
:10A34C002000FFF7ADFCA6E705232374236BD91C73
:10A35C001422DA70636E5B681A689B889362606E75
:10A36C0004230A00FFF701FB95E70423237403225F
:10A37C0017212000FFF794FCA16B2000FFF771FF61
:10A38C000023A36387E73C330122E254383B237458
:10A39C00F93211212000FFF783FC7CE7636A002B64
:10A3AC000ED13C23E35C002BACD03C230022E254C6
:10A3BC00383B2374DA3211212000FFF771FC6AE775
:10A3CC0020002430EFF3108572B6FFF7F5FB85F310
:10A3DC0010886063C11C9523C3708E3B2374636E1D
:10A3EC005B681A689B88936283790433606E0022E1
:10A3FC00FFF7BBFA4FE7012387E7436E5B681A68E8
:10A40C009B889361032303741021FFF739FC42E707
:10A41C0001330374026B9379FD2B08D8002B00D108
:10A42C002DE70732406E0021FFF79FFA33E7036EEA
:10A43C00013303660423037403221621FFF730FC57
:10A44C0029E7636E5B681A689B8893610423237405
:10A45C00032216212000FFF723FC6069EFF310861E
:10A46C0072B6FFF7A9FB050086F31088002812D0FE
:10A47C0020001830216BEFF3108672B6FFF7ABFBA0
:10A48C0086F310882563236C013323642900200094
:10A49C00FFF7E6FEFFE6E36D0133E365FBE6636E73
:10A4AC005B681A689B8893616069616BEFF3108538
:10A4BC0072B6FFF790FB85F31088636BA3630023E0
:10A4CC006363636C013363640323237410212000E2
:10A4DC00FFF7D6FBDFE6C04688FA0008A004002090
:10A4EC00F0B5D6464F464646C0B5654B1E88654B03
:10A4FC001B889A46644C9A2252000021200002F0DC
:10A50C0001FA624B238083235B006380083B237337
:10A51C00E1235B022361636101235B4223831533D7
:10A52C00A383B4339946E3830127A83BE754143B38
:10A53C00E385BC2121866386862040004425605338
:10A54C000235AC463E3DA8466546424662537632DD
:10A55C00A1527A3A3A3562530235AC460A25FF3598
:10A56C00A8466546414661538539675285377C312B
:10A57C00E1530237E2530237E053803823520A305A
:10A58C0062372752023023528E336C30E052023342
:10A59C00E2521233F132FF32E2520233EE3AFF3A18
:10A5AC00E25401220533E2540B33394AE2500433AE
:10A5BC00384AE250384B4A46A350D423374AE2502B
:10A5CC000433374AE2500433364AE2500433364AF5
:10A5DC00E2500433354AE2500433354AE250354BED
:10A5EC0022002932FF32196811609B889380200069
:10A5FC002F30FF300422002102F084F92E4B9E42B2
:10A60C0008D0214B1B79002B28D1E0BCBA46B146AF
:10A61C00A846F0BD83235B009A4515D053461D0A0E
:10A62C00012DEED1184916480B00020031CA31C376
:10A63C0031CA31C331CA31C311CA11C302230B71E0
:10A64C000533FF334B80DCE70F4C802252000C4962
:10A65C00200002F0F8F901232371D2E717480322F6
:10A66C000021040002F04EF9053CBC230022E2500C
:10A67C0028330E4AE250043B0B4AE250C5E7C04671
:10A68C0000F8010802F80108A4040020CDCDFFFF5A
:10A69C00A0860100400D030000127A000000484221
:10A6AC0000409C450AD7A33C0024F4C90024F4497B
:10A6BC0017B751398CF80008CDCD0000A904002043
:10A6CC0070B58AB006000D0001235B4209931D4B47
:10A6DC000340C022D201934204D85A18C021C901A8
:10A6EC008A4222D80222059202320692D80A079098
:10A6FC005B19DA0A121A08925B0501D00132089232
:10A70C00FDF788F9041E16D0FDF704FA0443079BE5
:10A71C000D48029409990191089A00922A0031007F
:10A72C0001F064FF20000AB070BD084801F0C4FFBE
:10A73C0001246442F6E709A905A8FDF719FA0400FB
:10A74C00E2E7C046FFFFFFF7CCFA0008A8FA0008C2
:10A75C00F0B5C64600B5804614000731CE08FDF7AB
:10A76C0059F9070000251DE0E9006318625C587870
:10A77C0000020243987800040243DB781B061A435C
:10A78C000B1DE018E35C47783F023B4387783F049E
:10A79C003B43C0780006034341440120FDF788F990
:10A7AC0007000135002F01D1B542DDDBFDF7B2F911
:10A7BC00384380BCB846F0BD10B5802109010F4864
:10A7CC00FFF77EFFC0B200280FD10D4A802149004F
:10A7DC000A48FFF7BDFFC0B200280AD18021094802
:10A7EC00490001F003FF002010BD074801F064FF91
:10A7FC00EBE7064801F060FF0120F5E700F80108DF
:10A80C00A404002024FB000804FB000850FB0008F3
:10A81C00F0B5D6464F464646C0B582B0C84801F0A2
:10A82C004BFFC84B9B684A2BFBD9C74FC748C84B3B
:10A83C0000933B000222002101F0D8FEC548C64B14
:10A84C0000933B000222022101F0D0FEC34CC4480D
:10A85C00C44B009323000122042101F0C7FEC2481F
:10A86C00C24B009323000122052101F0BFFEC04E14
:10A87C00C048C14B009333000122072101F0B6FE02
:10A88C00BE4B9A46180001F017FFBD48BD4B009314
:10A89C00230001220C2101F0A9FEBB4DBB48BC4B8F
:10A8AC0000932B000422102101F0A0FEB948BA4BF2
:10A8BC0000932B000422142101F098FEB74BB848EA
:10A8CC00B84A00920222182101F090FEB648B74B0C
:10A8DC000093230001221A2101F088FEB448B54BE5
:10A8EC0000933B0002221C2101F080FEB248B34BC6
:10A8FC0000933B0002221E2101F078FEB048B14BC0
:10A90C00009323000122202101F070FEAE4B9846EB
:10A91C00180001F0D1FEAD48AD4B0093330001227D
:10A92C00242101F063FE504601F0C6FEA94BAA4853
:10A93C00AA4A009204222C2101F058FEA84BA948E7
:10A94C00A94A009299461422302101F04FFEA748E3
:10A95C00A74B00934B461422442101F047FE50466E
:10A96C0001F0AAFEA348A44B0093230001227C21F2
:10A97C0001F03CFEA148A24B00934B4618227E21CD
:10A98C0001F034FE9F48A04B00934B4618229621B1
:10A99C0001F02CFE504601F08FFE9C489C4B00931E
:10A9AC003B000222AE2101F021FE9A489A4B009303
:10A9BC0023000122B02101F019FE9848984B009316
:10A9CC0033000122B12101F011FE9648964B009301
:10A9DC0033000122B22101F009FE9448944B0093FC
:10A9EC0033000122B52101F001FE404601F064FE66
:10A9FC00904F9148914B00933B000422BC2101F0F5
:10AA0C00F5FD8F488F4B00932B000422C02101F0E1
:10AA1C00EDFD8D488D4B00932B000422C42101F0D9
:10AA2C00E5FD8B488B4B00932B000422C82101F0D1
:10AA3C00DDFD404601F040FE874E8848884B994624
:10AA4C00009333000422D42101F0D0FD85484B46FD
:10AA5C00009333000422D82101F0C8FD82484B46F4
:10AA6C00009333000422DC2101F0C0FD80217F48DB
:10AA7C007F4B00933B000422490001F0B7FD82217B
:10AA8C007C487D4B009333000422490001F0AEFD5D
:10AA9C00504601F011FE84217848794B0093230035
:10AAAC000122490001F0A2FD404601F005FE754867
:10AABC0001F002FE0A217448744B0093230001221A
:10AACC00FF3101F093FD86217148724B00933B00DE
:10AADC000422490001F08AFD88216F486F4B0093D6
:10AAEC0033000422490001F081FD8A216C486D4B32
:10AAFC00009333000422490001F078FD404601F038
:10AB0C00DBFD92216848694B00932B00042249001D
:10AB1C0001F06CFD664B94216648674A00920A224C
:10AB2C00490001F063FD404601F0C6FD054B9B68F2
:10AB3C004A2BFBD902B0E0BCBA46B146A846F0BDE0
:10AB4C0070FB00083412002084FB000888FB00080E
:10AB5C00BCFB0008D0FB000804FC000814FC000837
:10AB6C0018FC00084CFC000888FC0008BCFC000821
:10AB7C00E0FC0008E4FC000818FD000840FD00089B
:10AB8C0044FD000878FD000898FD00089CFD0008B5
:10AB9C00D4FD0008F4FD00082CFE000850FE00084F
:10ABAC0054FE000890FE0008A4FE0008DCFE00081D
:10ABBC00FCFE00083CFF000854FF000894FF00084E
:10ABCC00B4FF0008F0FF0008080001080C000108A1
:10ABDC003C0001087000010874000108A80001087D
:10ABEC00CC000108D4000108080101084401010847
:10ABFC0078010108B8010108EC01010814020108F0
:10AC0C00480201086402010898020108B402010814
:10AC1C00E802010814030108440301086403010855
:10AC2C0098030108B4030108E403010808040108AF
:10AC3C00380401084C040108500401088004010880
:10AC4C0094040108C8040108DC040108100501087B
:10AC5C00240501085C05010870050108740501084C
:10AC6C00C4040108A8050108DC0501081006010848
:10AC7C004006010854060108880601089C060108D4
:10AC8C00CC060108F0060108380701086C0701081A
:10AC9C0088070108B8070108D00701080008010857
:10ACAC001408010844080108580801088C08010818
:10ACBC009C080108A0080108D4080108BFF34F8FB5
:10ACCC00034B044ADA60BFF34F8FC046FDE7C04622
:10ACDC0000ED00E00400FA0510B5002209E0064B77
:10ACEC00DB691B06FBD50478034B9C62013292B2E4
:10ACFC0001308A42F3D310BD0038014070B586B0E4
:10AD0C0001AA0F4B70CB70C211001A680A601B7934
:10AD1C000B7100230DE00B4A9A18157829095A007B
:10AD2C0001AC615C81540F2129400132615C81547A
:10AD3C0001330B2BEFDD0023037606B070BDC0464C
:10AD4C00E00801089075FF1FF0B5DE4657464E46E9
:10AD5C004546E0B585B081460E0093469846002BDB
:10AD6C0009D02B4B1B689A462A4F002400230393CF
:10AD7C005346029326E0284B1B689A46274FF4E76C
:10AD8C0063001B199B00FB185B6826E00192684668
:10AD9C008088B446DC44E24503DC614502DD614653
:10ADAC0000E011008DB2A8420BD0801A80B2019D38
:10ADBC00491BC9B24546002D20D0921B42449847EE
:10ADCC0003900134029B9C421ADA4B46002BD7D0DD
:10ADDC0063001B199B00FB189B68002BF1D06200D1
:10ADEC0012199200B918BA5A9246498851189642CB
:10ADFC00CCD301968E42CADD0191C8E74246DEE70C
:10AE0C00039805B0F0BCBB46B246A946A046F0BDBF
:10AE1C00180000202C00002014000020200000202E
:10AE2C0070B5084D2800FFF769FF074B0749084C20
:10AE3C002A00200001F04AFC0648210001F0D6FB54
:10AE4C0070BDC0463C060020F4080108FC0801084F
:10AE5C00D80500201809010870B50C000389CB81B6
:10AE6C000B7C102B03D18B690733CB6170BD406811
:10AE7C00FEF7FBFAA56904352000FEF701FD03304F
:10AE8C002D18E561F2E770B505000C008969002901
:10AE9C0009D04068EFF3108672B6FEF79CFE86F37D
:10AEAC0010880023A3612868EFF3108572B6210087
:10AEBC00FEF791FE85F3108870BD0000F0B5DE46FC
:10AECC0057464E464546E0B585B04B48FEF794FBD9
:10AEDC00041E1AD0C5691030062221000A3101F077
:10AEEC00B2FD45482100FFF7B7FF2023E35C002BA0
:10AEFC0012D0042B02D92B78102B21D03F4801F013
:10AF0C00DBFB3F482100FFF7BEFF05B0F0BCBB46A2
:10AF1C00B246A946A046F0BDE0693A4D290001F0C1
:10AF2C008AFD2800FBF7C4F82023E05432482100A6
:10AF3C00FEF75BFB344A11797F230B401371E4E776
:10AF4C006F78AB781B021F4301F04EFA06003900F4
:10AF5C002E48FBF749F901003000FBF745F9EB7877
:10AF6C002A799146284A127B90462022A25CAA1884
:10AF7C00002111706A1D92460604360C1D00C34652
:10AF8C0023480292424601924A4600923A0031000E
:10AF9C0001F02CFB454504D84D46C14500D945462A
:10AFAC00EDB2AB4506D0184A117980235B420B43B6
:10AFBC001371A3E71348514601F0ACFC0028F2D002
:10AFCC00FDF738F80500FDF735F8401BB042FAD311
:10AFDC00E0690C4D290001F02EFD2800FBF768F804
:10AFEC002023E05404482100FEF7FFFA064A1179A9
:10AFFC007F230B40137188E7A0000020640901082F
:10B00C0058060020D8050020A4040020FFFFFF7F75
:10B01C0028090108F0B5DE4657464E464546E0B5D0
:10B02C0083B08748FEF7E8FA041E2FD0854B1B79B6
:10B03C005BB2002B31DBC5692A780023EB569946AD
:10B04C007F2313402B701030062221000A3101F0AF
:10B05C00FAFC7B482100FFF7FFFE2B78002B03D175
:10B06C002022A25C042A22D0202B5AD0012B04D1FE
:10B07C001F33E35C042B00D1B9E02023E15C724860
:10B08C0001F0B4FA71482100FFF7FDFE03B0F0BCEB
:10B09C00BB46B246A946A046F0BD2023C15C6C4815
:10B0AC0001F0A4FA69482100FFF7EDFEEEE76F7896
:10B0BC00AB781B021F43ED78FB2D00DDFB25EBB2BB
:10B0CC0098460023424639000020FFF73DFE061E3D
:10B0DC000BD02A005F48390001F088FAE3691E7032
:10B0EC00434601332022A3549CE05B4E80239B01FA
:10B0FC009A4680235246F250BFF34F8FBFF36F8FA7
:10B10C00E06901302A004F49791801F09CFC534644
:10B11C0033600023424639000120FFF715FE06007C
:10B12C00D7E72022A25C032AA0D96E78AB781B0249
:10B13C001E43033AD3B2984603352B0042463100E6
:10B14C000020FFF701FE071E47D044483B00424653
:10B15C00310001F04BFA20230122E254E3691F7005
:10B16C0060E0019269468888414671188A4203DC86
:10B17C001A008B4200DD0A0093B298421BD0364B6A
:10B18C009A4680239B019B46802351465846C850C3
:10B19C00BFF34F8FBFF36F8F019B1804000C811B03
:10B1AC0069181204120C121A264BC01801F04BFC31
:10B1BC0053465A461A600137294B1B68BB420EDDB9
:10B1CC00BB00284A9918D25A4B88D318B242C8D817
:10B1DC0001969E42C6DD0193C4E70027ECE72B00E5
:10B1EC00424631000120FFF7AFFD0700ADE76E7856
:10B1FC00AB781B021E43ED78FB2D00DDFB25EFB277
:10B20C00E0690130184971182A0001F01CFC17483C
:10B21C002A00310001F0EAF9E36900221A700137C3
:10B22C002023E7544B46002B04DB05482100FEF796
:10B23C00DCF92BE705482100FFF725FE26E7C04681
:10B24C0084000020A4040020EC090108580600200A
:10B25C00780901089409010800E100E0AC09010833
:10B26C001C000020440000200C0D0108D00901082E
:10B27C00F8B5DE4657464E464546E0B56C48FEF7F7
:10B28C00BBF9051E00D1C5E0C489082323409846AC
:10B29C001030062229000A3101F0D5FB654829003F
:10B2AC00FFF7DAFDEF69E4060FD5634A938DD28D73
:10B2BC0098182021695C88420CDCF918380001F0E0
:10B2CC000FFB5D4BDA8D2023EA543E000023994698
:10B2DC0000200CE0594801F089F959482900FFF782
:10B2EC00D2FD97E06388F61801239C46E1440028C0
:10B2FC0000D079E04B46042B36DC4B469C00514B7E
:10B30C00E4186288002A69D0B118EB699A462023A8
:10B31C00EB5C9C4653466344994262D8D2B2218876
:10B32C0033000020FFF710FD0028DBD1464B9A4676
:10B33C0080239B019B46802352465946D150BFF334
:10B34C004F8FBFF36F8F208862883B4BC018310042
:10B35C0001F079FB53465A461A60A27821883300D3
:10B36C000120FFF7F1FCBDE70023994621E0364BA5
:10B37C009A4680239B019B46802352465946D150C6
:10B38C00BFF34F8FBFF36F8F218862882A4BC91888
:10B39C00380001F058FB53465A461A60A2782188AF
:10B3AC0000230120FFF7D0FC6388FF1801239C4683
:10B3BC00E14400281BD14B46042B18DC4B469C0067
:10B3CC00224BE4186288002A11D0D2B221880023C3
:10B3DC000020FFF7B9FC0028E6D1C8E70023994606
:10B3EC00E7E700239946E4E700239946E1E70028C4
:10B3FC0016D1EA69BA1AD2B22023EA54E969711A51
:10B40C00134801F0F3F84346002B0BD108482900F0
:10B41C00FEF7EBF8F0BCBB46B246A946A046F8BD19
:10B42C000022E9E706482900FFF72DFDF2E7C046A8
:10B43C006800002084000020A4040020080A0108F1
:10B44C0058060020D404002000E100E0E8040020AD
:10B45C00280A010870B54648FEF7CEF8041E27D01E
:10B46C00C5692A780026AE577F2313402B70103005
:10B47C00062221000A3101F0E6FA3D482100FFF7CF
:10B48C00EBFC2B782F2B14D0002B03D12022A25CA9
:10B49C00062A30D0202B02D1E15C052945D8202387
:10B4AC00E15C344801F0A2F833482100FFF7EBFCD3
:10B4BC0070BD2022A25C092AE6D16878AB781B0209
:10B4CC001843EB781B0418432B791B061843697936
:10B4DC00AB791B021943EB791B0419432B7A1B061E
:10B4EC001943FFF7EDF820230122E254E369421ED1
:10B4FC00904118702FE06978AB781B021943EB78F8
:10B50C001B0419432B791B0619436A79FB2A00DDAE
:10B51C00FB22D5B2E069013001F095FAE369002213
:10B52C001A7001352023E55415E06878AB781B02BE
:10B53C001843EB781B0418432B791B061843053969
:10B54C00C9B26A1DFFF704F920230122E254E36912
:10B55C00421E90411870002E04DB05482100FEF7B6
:10B56C0044F8A5E704482100FFF78DFCA0E7C0468E
:10B57C004C000020400A01085806002010B50E4867
:10B58C00FEF749F80D48FEF746F80D48FEF743F86C
:10B59C000C48FEF740F8FFF743FC0B4B1C680B4BB9
:10B5AC001B68E4180A4B1B68E418FCF743FD2018D1
:10B5BC0000F0ECFE10BDC0466800002084000020A6
:10B5CC004C000020A00000209075FF1F9475FF1FF9
:10B5DC009875FF1F10B50F4BDB79002B0CD10D4B61
:10B5EC005B79002B0ED1FFF769FCFFF713FDFFF71A
:10B5FC003FFEFFF72FFF10BD064B0022DA71FFF75D
:10B60C00DBF8ECE7044A1343802292051360FFF742
:10B61C0055FBC046A40400200000CDCDF8B50D00AC
:10B62C001400174B24229B5C002B0AD0EFF31087DD
:10B63C0072B61448FEF7C0FA060087F3108800288B
:10B64C0005D1A1B22800FFF747FB2000F8BDFA2C6A
:10B65C0000DDFA240A4B1B7B337100237371A31C8E
:10B66C00B3714023F371373B337230000930220041
:10B67C00290001F0E8F904483100FEF7C3FDE4E7C6
:10B68C00A4040020341200207806002070B582B08B
:10B69C00214A22492248FDF7D9FF00240DE0A301DD
:10B6AC001B1999001F4BC918EFF3108572B61A4875
:10B6BC00FEF791FA85F3108801344F2CEFDD00244E
:10B6CC000DE0E3001B199900174BC918EFF3108517
:10B6DC0072B61248FEF77FFA85F3108801344F2CAE
:10B6EC00EFDD124E3000FEF773F9114C0A49114D83
:10B6FC0006230193104B0093330022002800FEF721
:10B70C0073FC22000C3A2378127A05482900FDF7C5
:10B71C0086FF02B070BDC04634120020E80600203F
:10B72C005806002040120020F4060020BC00002027
:10B73C00B004002078060020E000002010B5354C45
:10B74C00354B1A689B889361344B1A689B889361BC
:10B75C00334800F0B1FF334A334B22606360FEF78D
:10B76C00BFFE002202210920FCF704FC002202216A
:10B77C000A20FCF7FFFB002202210B20FCF7FAFB4E
:10B78C00002202210620FCF7F5FB002202210720F3
:10B79C00FCF7F0FB002201210D20FCF7EBFBFFF77F
:10B7AC0075FFFFF7EBFE214B1B79002B30D02049A6
:10B7BC00204800F01BFF00F0DDFA0920FCF7DEFB4F
:10B7CC000620FCF7DBFB0720FCF7D8FB0D20FCF771
:10B7DC00D5FBFFF71DF8184800F06EFF6420FCF74E
:10B7EC002FFC0D4B1A689B88936200F04FFB13489B
:10B7FC00FDF74CFEFFF7EEFE22686168094B9A429A
:10B80C0002D1094B9942F0D00D4800F055FFFEE7EC
:10B81C000C49CDE7F0650020F0000020E800002086
:10B82C00780A010834341212CDCDABABA40400203D
:10B83C005C0A0108980A0108B40A0108580600209D
:10B84C00EC0A01086C0A010810B5034B08221A61B6
:10B85C000248FEF7C9FC10BD001802407806002013
:10B86C0010B5034B802252011A6100F0DFFB10BDB2
:10B87C000018024010B5044B9A685B69536003488A
:10B88C00FEF7F0FC10BDC046BC000020780600207E
:10B89C0010B5044A136901218B43136100F04CFB72
:10B8AC0010BDC046002C014010B5394B1B78002B45
:10B8BC0036D1384B1B78002B44D1002808D0A0235C
:10B8CC00DB051B691B06DB0FC243D20F9A4240D02B
:10B8DC00314B1B78002B1DD1304A13680021596362
:10B8EC002F49D962D16003229A62A023DB051B6920
:10B8FC001B062BD5023A2B4B1C68636A53432A490F
:10B90C000A689B18294A8620400013500023636262
:10B91C0013580B60204B01221A701D4B1A700BE050
:10B92C0000280ADBA023DB0580229A61184B002239
:10B93C001A70184B01321A7010BDA023DB0580223F
:10B94C009A62F3E7134B00221A70F5E70122524278
:10B95C00D1E7C317C01858401E2805DD8023DB0231
:10B96C00984202DB124800E01F20C4172404240C68
:10B97C0024182414611CFAF737FC084A13689C62DB
:10B98C00D862D06010225A63034B00221A70D3E79E
:10B99C008263002081630020836300206802002002
:10B9AC00FFFF0000B402002084630020A4040020E8
:10B9BC00FFFF0300F8B5CE46474680B5964B1B7883
:10B9CC00002B00D1C7E0954BC822985803F0F2F831
:10B9DC00041C934902F01CFB8046904B0A22FF3258
:10B9EC009B5C002B00D1BAE08E4B18685968002282
:10B9FC008D4BFAF7F5FC002808D0884B80225200BA
:10BA0C009858884D03F096FE28606960834BBC22E1
:10BA1C009F5844329B5899469F4200D1AFE07F4DCE
:10BA2C0088235B00EE58FC218905301C02F0BEFC1B
:10BA3C0080231B06F11802F0B9FC061C4B46F81AC1
:10BA4C0003F068F8011C301C02F0E2FA8A235B0058
:10BA5C00E850400045087549201C02F0A7FC061C64
:10BA6C00011C281CFAF7FCFC002800D02E1C6B4B88
:10BA7C008A2252009E50694B8A2252009D58291CE2
:10BA8C00201CFAF7F7FC002800D184E06449281C3C
:10BA9C0002F0BEFA061C614B882252009D58002110
:10BAAC00281CFAF7DDFC002800D071E001240021ED
:10BABC00281CFAF7E9FC002800D10024E0B240422F
:10BACC0003F028F8311C02F071FC011C534C281CAB
