:020000040800F2
:1060000000900020E1F000087D8400088D840008E5
:106010000000000000000000000000000000000080
:106020000000000000000000000000009D84000847
:1060300000000000000000009F840008A184000808
:1060400031F1000831F1000831F1000831F10008A8
:1060500031F1000831F10008A9840008B384000878
:1060600031F10008C1840008D184000831F1000832
:1060700031F10008E184000831F1000831F1000835
:1060800031F1000831F1000831F1000831F1000868
:1060900031F1000831F1000831F1000831F1000858
:1060A00031F1000831F1000831F1000831F1000848
:0C60B00031F1000831F1000831F1000866
:1060BC0010B5064C2378002B07D1054B002B02D0D2
:1060CC00044800E000BF0123237010BD88010020AC
:1060DC0000000000B4090108044B10B5002B03D0DC
:1060EC000349044800E000BF10BDC046000000009A
:1060FC008C010020B40901080023C25C0133002A82
:10610C00FBD1581E7047000003B47146490840008B
:10611C004900095E49008E4403BC704700224308C5
:10612C008B4274D303098B425FD3030A8B4244D353
:10613C00030B8B4228D3030C8B420DD3FF22090295
:10614C0012BA030C8B4202D31212090265D0030B54
:10615C008B4219D300E0090AC30B8B4201D3CB034A
:10616C00C01A5241830B8B4201D38B03C01A52418C
:10617C00430B8B4201D34B03C01A5241030B8B428E
:10618C0001D30B03C01A5241C30A8B4201D3CB0279
:10619C00C01A5241830A8B4201D38B02C01A52415E
:1061AC00430A8B4201D34B02C01A5241030A8B4261
:1061BC0001D30B02C01A5241CDD2C3098B4201D379
:1061CC00CB01C01A524183098B4201D38B01C01AF7
:1061DC00524143098B4201D34B01C01A524103096E
:1061EC008B4201D30B01C01A5241C3088B4201D31D
:1061FC00CB00C01A524183088B4201D38B00C01ACA
:10620C00524143088B4201D34B00C01A5241411AF0
:10621C0000D20146524110467047FFE701B50020FD
:10622C0000F0F0F802BDC0460029F7D076E77047C1
:10623C0003460B437FD4002243088B4274D30309DB
:10624C008B425FD3030A8B4244D3030B8B4228D37C
:10625C00030C8B420DD3FF22090212BA030C8B42A2
:10626C0002D31212090265D0030B8B4219D300E042
:10627C00090AC30B8B4201D3CB03C01A5241830BC7
:10628C008B4201D38B03C01A5241430B8B4201D377
:10629C004B03C01A5241030B8B4201D30B03C01AA0
:1062AC005241C30A8B4201D3CB02C01A5241830A1A
:1062BC008B4201D38B02C01A5241430A8B4201D349
:1062CC004B02C01A5241030A8B4201D30B02C01A73
:1062DC005241CDD2C3098B4201D3CB01C01A5241DA
:1062EC0083098B4201D38B01C01A524143098B4263
:1062FC0001D34B01C01A524103098B4201D30B014C
:10630C00C01A5241C3088B4201D3CB00C01A524170
:10631C0083088B4201D38B00C01A524143088B4235
:10632C0001D34B00C01A5241411A00D201465241CE
:10633C00104670475DE0CA0F00D04942031000D3ED
:10634C004042534000229C4603098B422DD3030A42
:10635C008B4212D3FC22890112BA030A8B420CD352
:10636C00890192118B4208D3890192118B4204D37B
:10637C0089013AD0921100E08909C3098B4201D3FB
:10638C00CB01C01A524183098B4201D38B01C01A35
:10639C00524143098B4201D34B01C01A52410309AC
:1063AC008B4201D30B01C01A5241C3088B4201D35B
:1063BC00CB00C01A524183088B4201D38B00C01A08
:1063CC005241D9D243088B4201D34B00C01A5241DF
:1063DC00411A00D20146634652415B10104601D36C
:1063EC004042002B00D54942704763465B1000D3F6
:1063FC00404201B5002000F005F802BD0029F8D09C
:10640C0016E770477047C0468446100062468C46BB
:10641C001900634600E0C0461FB501F06DFC002872
:10642C0001D40021C8421FBD10B501F0BDFB404294
:10643C00013010BD10B501F05FFC002801DB00201D
:10644C0010BD012010BDC04610B501F055FC002850
:10645C0001DD002010BD012010BDC04610B501F0BB
:10646C00E5FB002801DC002010BD012010BDC0465A
:10647C0010B501F0DBFB002801DA002010BD012073
:10648C0010BDC046844608006146FFE71FB500F00A
:10649C0087FC002801D40021C8421FBD10B500F0B4
:1064AC0013FC4042013010BD10B500F079FC0028FF
:1064BC0001DB002010BD012010BDC04610B500F05E
:1064CC006FFC002801DD002010BD012010BDC0466E
:1064DC0010B500F01FFC002801DC002010BD0120CD
:1064EC0010BDC04610B500F015FC002801DA0020E4
:1064FC0010BD012010BDC046002B11D1002A0FD1B8
:10650C00002900D1002802D00021C943080007B49B
:10651C00024802A14018029003BDC046E9FEFFFFED
:10652C0003B4684601B5029800F04CF8019B9E46F6
:10653C0002B00CBC7047C046F0B5CE46474680B59D
:10654C00070099463B0C9C4613041B0C1D000E00C7
:10655C0061460004140C000C45434B4360436143FB
:10656C00C0182C0C20188C46834203D980235B0264
:10657C009846C444494679437243030C63442D0442
:10658C002D0CC918000440198918C0BCB946B04676
:10659C00F0BDC0469E2110B5C905041CFFF7A2FF33
:1065AC00002803D1201C00F013FF10BD9E21201CDD
:1065BC00C90500F05FFD00F00BFF80231B069C4615
:1065CC006044F2E7F0B557464E464546DE46E0B528
:1065DC0004000D009246994683B08B4230D82DD0E2
:1065EC004946504601F0B8FC29000600200001F095
:1065FC00B3FC331A9846203B9B4633D45A46534639
:10660C00934042461F00534693401E00AF423AD877
:10661C00AF4200D178E05B46A41BBD41002B00DAF1
:10662C0075E0002200230092019301235A46934007
:10663C000193012342469340009328E08242CFD934
:10664C0000220023009201930C9B002B01D01C60B4
:10665C005D600098019903B0F0BCBB46B246A946F8
:10666C00A046F0BD424620239B1A5246DA404146D2
:10667C0013004A468A40170042461F435346934034
:10668C001E00AF42C4D9002200230092019343465E
:10669C00002BD9D0FB0772081A4346467B080EE044
:1066AC00AB4201D1A2420CD8A41A9D41012024195D
:1066BC006D410021013E24184D41002E06D0AB4205
:1066CC00EED9013E24196D41002EF8D100980199A4
:1066DC005B4600196941002B24DB2B005A464446CB
:1066EC00D3402A00E2401C005B461500002B2ADB3D
:1066FC0026009E40330026004746BE403200801ADA
:10670C009941009001919FE7A342BCD883E7424690
:10671C00202300219B1A0022009101920122DA40D1
:10672C00019286E7424620239B1A2A0046469A404D
:10673C002300F340444613432A00E2401C005B460E
:10674C001500002BD4DA42462F0020232600974058
:10675C009B1ADE403B003343CDE7C046F0B5C6463E
:10676C0043025B0A4E0245004F00DA00C40F9C4600
:10677C00700A904600B52D0E3F0EC90FB6098C421B
:10678C004BD0EA1B002A36DD002F61D0FF2D00D143
:10679C00ADE08023DB041E431B2A00DCD3E0012088
:1067AC004346181A430100D48CE080018709380055
:1067BC0001F0B4FB05388740854200DCB6E02D1AA9
:1067CC00B3483840430704D00F230340042B00D0B8
:1067DC000430430100D478E06A1CFE2D65D08001A2
:1067EC00430A9C46D2B26346D0051843E4072043C3
:1067FC0080BCB846F0BD002A35D07A1B002D00D0E5
:10680C00AFE04346002B00D1A7E0531E012A00D174
:10681C002FE1FF2A69D01A00AAE0E91B002970DDDC
:10682C00002F37D0FF2D62D08023DB041E431B29A1
:10683C0000DCB0E001204044430143D50135FF2D7D
:10684C0033D00123934A0340400810401843B9E762
:10685C00002E00D183E0511E012A00D1D8E0FF2A7E
:10686C0045D00A0098E7FE276A1C174200D086E044
:10687C00002D00D0B7E04346002B00D1F3E00022FE
:10688C00002EB0D0981B430100D4FAE043460C0014
:10689C00F01A97E7002E00D1C8E04A1E012900D15A
:1068AC00AEE0FF2923D01100C1E70023FF229C4654
:1068BC0099E7FE216A1C114277D0FF2AF5D015000A
:1068CC0046447008430700D07EE7C308FF2D0ED066
:1068DC005B025B0A9C46EAB285E7002E07D0802259
:1068EC00D203134203D0104201D10C000300002B41
:1068FC00DBD08020C00318434002430A9C46FF2291
:10690C0071E70029D5D07A1B002D60D14346002BAE
:10691C0024D0531E012A73D0FF2AE7D01A001B2A59
:10692C0000DC85E001203D00801985E720233A003A
:10693C00451B38000135EA405D1BA840431E9841B9
:10694C00002510433EE7202330009B1A310098406D
:10695C00D140431E9841084322E70C000300150068
:10696C00B4E7FF2FC1D080234046DB041843804698
:10697C001B2A51DD01200C003D00301A12E7434662
:10698C009F1B7B012BD4002F00D010E70023002489
:10699C0000229C4627E7202332003000CA40591AB7
:1069AC008840431E9841104345E7002D4AD1434689
:1069BC00002B63D00022002E00D114E7300040449D
:1069CC00430100D47EE7324B013518407AE7FF2FA4
:1069DC008CD080234146DB04194388469FE743460D
:1069EC000C00F71AE3E64246002A00D075E7002EA9
:1069FC0000D07AE78023DB0300249C46FF22F2E6DA
:106A0C00300040440125430100D45BE7022518E720
:106A1C0043460125981BC5E6202344464046D440F6
:106A2C009A1A9040431E98412043A4E70D004DE76D
:106A3C00202341464046D1409A1A9040431E98412B
:106A4C00084370E74246002A00D14FE7002E00D1E0
:106A5C004DE78022D203134200D148E7104200D008
:106A6C0045E7030043E7002E90D00C00844600223B
:106A7C00B9E643460C00F01A013593E68446002231
:106A8C00B1E6002800D01DE7002300249C46AAE6AE
:106A9C00FFFFFFFBFFFFFF7DF0B54F464646D64696
:106AAC004502C0B547000C1C6D0A3F0EC60F002FE7
:106ABC0000D170E0FF2F00D175E0EB008025ED04D4
:106ACC001D43002399469A467F3F6002430A98462D
:106ADC0063001B0EE40F002B4ED0FF2B46D042461A
:106AEC00D0008022D2040243904600227F3B31002A
:106AFC00FF1A4B466140C9B213430F2B00D9B5E0C6
:106B0C006E489B00C3589F46002398462600454676
:106B1C0092465346022B00D189E0032B00D19EE014
:106B2C00012B18D03B007F33002B69DD6A0704D0A2
:106B3C000F222A40042A00D004352A0103D5604BC9
:106B4C001D403B008033FE2B00DD70E0AD016D0A73
:106B5C00D8B202E00E0000200025C0052843F6073D
:106B6C003043E0BCBA46B146A846F0BD4346002BC4
:106B7C003FD10222FF3F03E04346002B2DD10122DF
:106B8C0031004B466140C9B213430F2B34D84D48EA
:106B9C009B00C3589F46002D13D104239946033BF9
:106BAC0000279A4691E7002D05D108239946063B0C
:106BBC00FF279A4689E70C239946093BFF279A46FB
:106BCC0083E7280001F0AAF97627431F9D40002394
:106BDC007F4299469A463F1A77E7404601F09EF964
:106BEC004246431F9A4076235B4290461B1A002272
:106BFC007DE7FF2303227AE70E00FF200025ACE798
:106C0C000120C01A1B28A6DC9E372A00BD40C240BA
:106C1C006B1E9D4115436B0704D00F232B40042B97
:106C2C0000D004356B0144D50120002595E7FF20E9
:106C3C00002592E780250026FF20ED038DE7002339
:106C4C0098468020C003054209D04346034206D132
:106C5C00454605436D022600FF206D0A7DE7802026
:106C6C00C00305436D02FF206D0A76E742466B01B7
:106C7C005001834219D21B220025013F01261C0022
:106C8C006D005B00002C01DB984201D81B1A3543C8
:106C9C00013A002AF3D15A1E93411D433B007F3326
:106CAC000E00002B00DD41E7AAE71A2201251B1A72
:106CBC00E4E7AD0100206D0A4FE7C046140A010855
:106CCC00FFFFFFF7540A010870B5420045024E025F
:106CDC004C00C30F6D0A0120120E760A240EC90F48
:106CEC00FF2A06D0FF2C03D0A24201D1B54206D018
:106CFC0070BD002DFCD1FF2CFAD1002EF8D18B42A7
:106D0C0006D00120002AF3D12800431E9841EFE75A
:106D1C000020EDE770B5420045024E024C00C30F57
:106D2C006D0A120E760A240EC80FFF2A1BD0FF2CF8
:106D3C000ED0002A1BD1002C01D1002E1CD0002D0E
:106D4C000CD083421CD00221581E0840013870BD63
:106D5C00002E22D1002AF4D1002DF2D10028F6D138
:106D6C0001204042F3E7002D17D1FF2CF0D0002C6E
:106D7C00E7D1002EE5D1E6E70020002DE7D0E2E7D1
:106D8C00A24205DCEADBB54202D8E7D30020DEE7FD
:106D9C004342584140000138D9E702204042D6E72F
:106DAC0070B5420045024E024C00C30F6D0A120E24
:106DBC00760A240EC80FFF2A0BD0FF2C0DD0002A08
:106DCC001FD1002C16D1002E14D10020002D10D074
:106DDC0009E0002D0CD1FF2C13D1002E08D1002A74
:106DEC0008D0834212D00221581E0840013800E01E
:106DFC00022070BD002DF4D10028FAD101204042B0
:106E0C00F7E7002CEDD1002EEBD1ECE7A24205DC2C
:106E1C00F2DBB54202D8EFD30020EAE743425841F7
:106E2C0040000138E5E7C046F0B54F464646D64629
:106E3C0044024500C0B5640A0F1C2D0EC60F002D70
:106E4C0000D18DE0FF2D00D192E0002380209946E7
:106E5C009A46E400C00404437F3D7802430A9846F6
:106E6C007B001B0EFF0F002B00D170E0FF2B00D11D
:106E7C0086E04246D00080227F3BED180023D204EE
:106E8C00024390469C4631004B467940681C0F2BC0
:106E9C001CD8764A9B00D3589F4639004446E2469C
:106EAC005346022B0FD0032B00D1D7E0012B37D147
:106EBC0000200024C0052043C9070843E0BCBA46A3
:106ECC00B146A846F0BDFF200024F3E7260C2404AD
:106EDC00220C44462404240C434627001B0C574325
:106EEC0074435A435E4312193B0C9B189C4203D9C2
:106EFC0080225202944666443F041A043F0CD21975
:106F0C009401671EBC411B0C920E9B1914439B01F0
:106F1C001C431B0100D49BE0012362081C4014435A
:106F2C0002007F32002A64DD630704D00F23234064
:106F3C00042B00D00434230103D502004C4B8032C7
:106F4C001C40FE2ABFDCA401640AD0B2B2E743465F
:106F5C00002B3DD14A4601331A4391469C4692E799
:106F6C00002C29D104239946033B00259A4674E74B
:106F7C00002C1BD108239946063BFF259A466CE74B
:106F8C004346FF35002B0BD102234A461A43914648
:106F9C009C4678E753463100022B00D083E792E7FA
:106FAC0003234A461A4391469C466CE70C239946A8
:106FBC00093BFF259A4650E7200000F0AFFF7625ED
:106FCC00431F9C4000236D4299469A462D1A44E774
:106FDC00404600F0A3FF4246431F9A4000232D1A5F
:106FEC0090469C46763D4EE780240021FF20E4032A
:106FFC0060E701239B1A1B2B00DD59E722009E3012
:10700C00DA4084401300621E94411C43630704D091
:10701C000F232340042B00D0043463011AD5012024
:10702C00002447E78020C003044209D043460342B2
:10703C0006D14446044364023900FF20640A39E750
:10704C008020C003044364023100FF20640A31E74E
:10705C00280065E7A4010020640A2BE78020C00308
:10706C0004436402FF20640A24E7C046940A010822
:10707C00FFFFFFF7F8B5CE46474643025B0A4E02C8
:10708C00DA009446720A914645004A0080B52D0EEE
:10709C001F00C40F120EC90FB609FF2A5BD00120C6
:1070AC0041408C4239D0A81A00285ADD002A6AD0F7
:1070BC00FF2D00D1D9E08022D20416431B2800DC1E
:1070CC00E9E001206346181A430100D4B4E08001C2
:1070DC008709380000F022FF05388740854200DC24
:1070EC00CCE02D1AB5483840430704D00F23034099
:1070FC00042B00D00430430100D4A0E06A1CFE2D08
:10710C0000D18DE08001470AD2B2D0053843E407A4
:10711C002043C0BCB946B046F8BDA81A804600282A
:10712C0045DD002A70D0FF2D00D19EE08023DB04CA
:10713C001E4343461B2B00DCD2E00120604443017C
:10714C007AD50135FF2D6BD001239D4A03404008B1
:10715C0010401843C8E7002E20D08C4223D02800C2
:10716C00FF38002839D0571B002D00D09DE0634616
:10717C00002B00D1DBE07B1E012F00D10DE1FF2F96
:10718C0071D01F0098E0002E00D1A7E0421E01280C
:10719C0000D1E6E0FF2868D010008FE701204140C5
:1071AC00A14200D07FE7FF2040428046A8444046E1
:1071BC00002838D0511B002D00D1AEE0FF2A00D1A1
:1071CC00DFE080236046DB04184384461B2900DC87
:1071DC00D9E0012015008019B1E7FE206A1C10428D
:1071EC0071D1002D00D0A6E06346002B00D1D9E070
:1071FC000022002E00D188E7981B430100D4E1E067
:10720C0063460C00F01A6FE7002E00D1B7E00200C5
:10721C00013A012800D19CE0FF2826D0904688E74F
:10722C00FF22002771E7FE206A1C104264D0FF2A5F
:10723C00F6D0150066447008430700D056E7C30823
:10724C00FF2D12D05B025F0AEAB25EE76246002AAB
:10725C0000D196E0002E08D08022D203134204D035
:10726C004846104201D10C004B46002BD8D0802749
:10727C00FF031F437F02FF227F0A46E720233A00C9
:10728C00451B38000135EA405D1BA840431E984160
:10729C000025104328E720231B1A32009E40C240D1
:1072AC003000431E984110430CE7FF2ADBD08023AB
:1072BC006046DB04184384461B2F56DD01200C006E
:1072CC001500301A00E763469F1B7B013DD4002F4D
:1072DC0000D0FEE600240022002716E70500AFE7E9
:1072EC00320043464146DA4020235B1A9E40300070
:1072FC00431E9841104321E7002DA7D16346002B74
:10730C0059D00022002E00D1FFE63000604443012A
:10731C0092D52A4B013518408EE76346002B47D097
:10732C004B1E012915D0FF292BD019004EE70C005C
:10733C004B463D0084E76246002A8BD1002E92D149
:10734C0080270024FF22FF03DFE663460C00F71AB8
:10735C00BFE6300060440125430100D46CE70225F0
:10736C00F2E663460125981BAEE620236446604690
:10737C00FC40DF1BB840431E984120439FE70500AB
:10738C005EE74B4671E7202365466046CD40591AAF
:10739C008840431E984128431CE763460C00012596
:1073AC00F01A91E6002E95D00C004F460022ACE668
:1073BC004B460D0044E74F460022A6E6FFFFFFFBBD
:1073CC00FFFFFF7D002800D036E7002400279CE655
:1073DC0041024200C30F490A0020120E7E2A03DD2F
:1073EC009D2A02DD094A9818704780200004014349
:1073FC00952A07DC9620821AD1404842002BF3D103
:10740C000800F1E7963A9140F7E7C046FFFFFF7F8F
:10741C00F8B5002813D0C317C6185E40C40F30004F
:10742C0000F07CFD9E2305001B1A962B0FDC082810
:10743C0001DD083DAE407602760AD8B202E00024A7
:10744C0000200026C0053043E4072043F8BD992BEB
:10745C000CDD05223100121AD1400A000100300067
:10746C001B318840411E884102431600052D12DC59
:10747C0031000D4F3940720709D00F2030400428DD
:10748C0005D004314A0102D59F2339405B1B890189
:10749C004E0AD8B2D6E76A1F96403100024F3940E7
:1074AC007207F4D0E9E7C046FFFFFFFB70B5051E7D
:1074BC000ED000F033FD9E2304001B1A962B0CDC1F
:1074CC00082801DD083CA5406D026D0AD8B201E028
:1074DC0000200025C005284370BD992B09DD020052
:1074EC0029001B3291404A1E91410522121AD540A7
:1074FC000D43052C12DC29000C4E31406A0709D0D3
:10750C000F202840042805D004314A0102D59F23BE
:10751C0031401B1B89014D0AD8B2DBE7621F954035
:10752C002900024E31406A07F4D0E9E7FFFFFFFB68
:10753C00F0B54F464646D6460D000400C0B51F00B8
:10754C0011002803620F400A10437A00520DE30029
:10755C003C039146640AFA0F4F0F6E002743924684
:10756C00B846760DED0FC900954200D199E04C4616
:10757C00341BA446002C00DC7CE04A46002A00D1D7
:10758C00B8E0C54A964200D11CE180223C001204AE
:10759C001443A0466246382A00DD61E11F2A00DD53
:1075AC00CCE164462022121B444694400F00A146B5
:1075BC0064469140E7404C464A1E91413C4342464A
:1075CC0021436446E240801A5C1AA3429B415F420D
:1075DC00C71B3B0200D4D0E07F027F0A002F00D1F2
:1075EC00FFE0380000F09AFC01000839202322004B
:1075FC005B1A8F40DA408C401743B14200DAFFE04F
:10760C00891B4B1C1F2B00DDA8E020223900D21A4D
:10761C00200094409140D840621E9441DF400026E7
:10762C0001430C43630709D00F232340042B05D0DF
:10763C00231DA342A44164423F191C003B0200D409
:10764C009EE0954B01369E4200D1B7E0934AE40888
:10765C0017407B0771057F0223433F0B4A0D120530
:10766C003A43ED072A4318001100E0BCBA46B14674
:10767C00A846F0BD002C4BD04C46A41BA446002EB3
:10768C0000D023E104001C4300D1AFE16246541E3C
:10769C00012A00D115E2804DAC4500D1C8E1A446C9
:1076AC001BE14A46B21A9446002A00DCACE04A467A
:1076BC00002A43D0784A964200D1AFE180223C00A8
:1076CC0012041443A0466246382A67DC1F2A00DCE9
:1076DC005FE14746203AD7406246202A05D06446EF
:1076EC004022121B4446944021434A1E91410C00F7
:1076FC003C4357E03A000A4300D105E12200013A2D
:10770C00012C00D182E1644CA4455BD0944641E746
:10771C00634C771C274200D0C4E004001C43002EAD
:10772C0000D069E1002C00D1BFE144460C4300D0ED
:10773C00D0E14207DB081343C00829E03A000A43B2
:10774C0000D170E162466446013A012C00D1E0E0C0
:10775C00514CA44500D161E19446B4E73A001F397D
:10776C00CA401100202B03D04022D31A9F403C4327
:10777C00631E9C41002700260C43630700D053E78F
:10778C00B446E4087B072343F808434A94451DD0CC
:10779C006246070352053F0B520D60E744460C430B
:1077AC00621E9441E4189C429B415F423F183B028D
:1077BC00E3D5394B01369E4200D0B5E032000027AC
:1077CC0000234CE74207DB081343C0081A000243AE
:1077DC0000D1E1E180273F0307433F032E4A3F0BD3
:1077EC003DE7200000F09AFB010018311F2900DC56
:1077FC00FCE60838844027000024B14200DBFFE699
:10780C00264A761A17400DE7002A2FD04A46921BBB
:10781C009446002E00D1ADE01F4A914500D10FE1F6
:10782C008022120410436246382A00DD0FE11F2A21
:10783C0000DD80E1644620221E00121B6746040016
:10784C0093409440FE405A1E9341F84034431C43ED
:10785C00804464188C42BF417F424E464744A6E7A1
:10786C0042460A4311004A1E9141ADE60C4C721C73
:10787C00224200D0A1E002001A43002E00D0FAE010
:10788C00002A00D145E13A000A4300D046E1420704
:10789C00DB081343C0087BE7FF070000FFFF7FFFF7
:1078AC00FE07000047465C1AC21BA342BF417F4241
:1078BC00B94617004A46BF1A3A0200D58DE023009C
:1078CC003B4300D08AE60020002561E7B44CA1457B
:1078DC0000D1ADE08024240420436446382C3DDCE8
:1078EC0062461F2C00DDB7E020251E002D1B040076
:1078FC00AB40AC40D640D04042465D1EAB41344319
:10790C00121A904623432CE04207DB081343C008AD
:10791C003BE75C189C429B4140445B42C7180126E4
:10792C003B0200D429E702269E4A63081740012235
:10793C0014401C43FB071C437F0873E64446203A63
:10794C00D4406246202A05D067464022D21B4746C7
:10795C00974039434A1E9141214335E60343581E53
:10796C008341CC1AA142BF4143467F4255464E4605
:10797C00DF1B2EE602001A4300D1BDE062466446CE
:10798C00013A012C00D1E5E0854CA44558D0944631
:10799C0049E764462022121B444694400F00A1463E
:1079AC0064469140E7404C464A1E91413C43424656
:1079BC000C436146CA408018F4E6794CA24200D1CF
:1079CC00FDE6591899429B4140445F42C719FC0798
:1079DC00490816000C437F08CFE6CC1AA142BF41E0
:1079EC0043467F42181A5546C71BF7E5C9087B0763
:1079FC0055460B43F808C8E6002C00D081E04346FE
:107A0C000B4315D1802000250003E3E65C1AA3424A
:107A1C009B41C71B5B420126FF1ADAE54207DB08D4
:107A2C001343C008D2E64207DB081343C008ACE698
:107A3C0043464246C9085B0755460B43D008C5E68A
:107A4C00434642465B07C9080B43D008BEE60343D6
:107A5C001C00631E9C41FCE60200203CE24014002A
:107A6C006246202A03D04025AD1AA8400343581E75
:107A7C008341234375E7002AE2D03A000A43CDD074
:107A8C004207DB0813438022C0081203104206D0C1
:107A9C00FC08144203D12000CB087A0713435A0F79
:107AAC00DB005207DB08134390E643460B4300D13F
:107ABC0009E743464246C9085B0755460B43D008C5
:107ACC0066E6CC1AA14289413F1A49425546012625
:107ADC007F1A7EE542465C1A871AA34292415242B3
:107AEC00BF1A3A023DD5CC1AA142894143464942BC
:107AFC001F1A55467F1A95E57B07C9080B43F808F2
:107B0C0043E64446DB080C4330D142071343C0081C
:107B1C005CE67B07C9080B43F80839E65C189C4205
:107B2C009B4140445B42C7183B0200D425E61D4BE9
:107B3C0001261F4021E60400203AD4406246202A48
:107B4C0004D040226646921B904003435A1E934138
:107B5C001C437EE65C188C428941404449424718DC
:107B6C00DDE623003B4300D1ADE606E644072343A4
:107B7C008024C0082403204208D04246D60826425E
:107B8C0004D155463000CB0851070B435A0FDB008C
:107B9C00DB085207134319E60023014A1F005EE578
:107BAC00FF070000FFFF7FFFF0B54E464546DE465F
:107BBC0057469046E0B517001A03120B0500844691
:107BCC0019480E034C0091465A00DB0F9B46360BAE
:107BDC00640DC90F520D844219D0824210D001207D
:107BEC0094420ED14E450CD10120C44509D15945C2
:107BFC0017D0002C05D130002843431E984100E0DB
:107C0C000120F0BCBB46B246A946A046F0BD3300ED
:107C1C0001202B43F5D1A242F3D14B463B43F0D18B
:107C2C00E2E70020EDE7C046FF070000F0B547464D
:107C3C00CE460400180016001B031B0B2D4D4A00EA
:107C4C00994680B543000F03A446B0463F0B520D36
:107C5C00C90F5B0DC00FAA4221D0AB4213D0002A32
:107C6C0022D13C43002B02D14D462E4322D0002C76
:107C7C0010D0814222D00220013908400138C0BC0A
:107C8C00B946B046F0BD4D462E4329D1002AF0D15D
:107C9C003C43EED10028F2D101204042EFE73D00F9
:107CAC0025431DD19342EED0002BE2D14C46264306
:107CBC00DFD1E0E70020002CE1D0DCE79A420ADCBF
:107CCC00E8DB4F45D7D80ED000204F45D7D200293E
:107CDC00E2D00800D3E74342584140000138CEE7D8
:107CEC0002204042CBE7C445C5D80020C445C6D2CB
:107CFC00EDE7C046FF070000F0B54746CE4604004E
:107D0C00180016001B031B0B2C4D4A00994680B51E
:107D1C0043000F03A446B0463F0B520DC90F5B0D39
:107D2C00C00FAA420DD0AB4210D0002A27D13C4341
:107D3C00002B11D14D462E430ED10020002C15D016
:107D4C000EE03D00254310D1934218D14D462E43F1
:107D5C000BD1002A02D13C43002C0BD0814214D011
:107D6C00022001390840013800E00220C0BCB946AD
:107D7C00B046F0BD0028F9D101204042F6E7002BB7
:107D8C00ECD14C462643E9D1EAE79A4204DD434262
:107D9C00584140000138E9E79A42EBDB4F45DFD808
:107DAC0006D000204F45E1D20029E5D00800DDE7E0
:107DBC00C445D5D80020C445D8D2F5E7FF0700004C
:107DCC000A0030B5134C530009030500090B0020C1
:107DDC005B0DD20FA34204DD0F48834202DD0F4B33
:107DEC00D01830BD8020400301430D48C01A1F2815
:107DFC0008DD0C48C31AD9400B005842002AF0D1B8
:107E0C001800EEE7084CC540A446634499400B00AB
:107E1C002B43F2E7FE0300001D040000FFFFFF7F71
:107E2C003304000013040000EDFBFFFF70B50028C5
:107E3C0016D0C317C5185D40C40F280000F06EF8AB
:107E4C00114A121A0A2816DC03002E0015339E4024
:107E5C000B23181AC54052052D032D0B530D03E0AF
:107E6C0000240023002500261B052B43E407234395
:107E7C003000190070BD0B38854052052D030026CB
:107E8C002D0B530DF0E7C0461E04000070B54300E7
:107E9C004602C40FFE201B0E591C750A08420CD05A
:107EAC00E022920094466D07360B63441B05334366
:107EBC00E40723432800190070BD002B14D1002DBA
:107ECC001BD0280000F02AF80A281CDC0B232E00FB
:107EDC001B1ADE40030015339D400E4A3603121A5E
:107EEC005205360B530DE1E7002D09D08022360BDD
:107EFC001203094B6D071643D8E700230026D5E77C
:107F0C000026054BD2E703000B3B9D402E000025BD
:107F1C00E3E7C04689030000FF0700001C21012392
:107F2C001B04984201D3000C10391B0A984201D350
:107F3C00000A08391B09984201D30009043902A22E
:107F4C00105C40187047C046040302020101010195
:107F5C00000000000000000010B5002903D1FFF75D
:107F6C00DDFF203002E00800FFF7D8FF10BDC0464F
:107F7C00F0B5DE4657464E464546E0B58BB014226A
:107F8C00002105A807F016F9504B596B202211431C
:107F9C005963596B0A400192019A5A6B01252A4385
:107FAC005A635A6B2A400292029A5A6B02273A433E
:107FBC005A635A6B3A400392039A5A6B08218946CA
:107FCC000A435A635B6B0B400493049BA023DB05B1
:107FDC009A4600227831180001F0CDFB3C4B9B46B1
:107FEC003C4E00221900300001F0C5FB802101221B
:107FFC000902504601F0BFFB374B98460022062180
:10800C00180001F0B8FB042305930697002407948D
:10801C000895099405A9314801F0EAFA304B05930B
:10802C0006950794089705A9504601F0E1FA5B46BE
:10803C00059306950794089405A9300001F0D8FA29
:10804C0080231B0105930694079505A9300001F0C8
:10805C00CFFA80235B0105938427BF03069707950E
:10806C0005A9300001F0C4FA8023DB0105930694C6
:10807C00079405A9300001F0BBFA06230593069579
:10808C000794089405A9404601F0B2FA4B460593B3
:10809C000697079505A9404601F0AAFA002202218D
:1080AC00062001F011FD062001F03EFD0022022108
:1080BC00072001F009FD072001F036FD0BB0F0BCE4
:1080CC00BB46B246A946A046F0BDC04600100240D1
:1080DC000724000000040050000C00500014005055
:1080EC008080000000B583B00D4A916B01231943C9
:1080FC009163926B13400193019B00220221092092
:10810C0001F0E2FC092001F00FFD002202210A20FF
:10811C0001F0DAFC0A2001F007FD03B000BDC046F7
:10812C000010024072B6FEE700B58BB0242200218D
:10813C0001A807F03FF80D480D4B036000F058FB09
:10814C0000280ED10023019302930393049305930B
:10815C00102201A9054800F0AFFB002803D10BB099
:10816C0000BDFFF7DFFFFFF7DDFFC046A4010020D5
:10817C000074004010B51048104B036082235B0064
:10818C00436000238360E022D200C260036143613C
:10819C00802292008261F93AFF3AC2610362436223
:1081AC0083620721C1620363426301F0E1FE002890
:1081BC0000D110BDFFF7B6FF700200200030014067
:1081CC0010B51748174B0360E1235B024360002393
:1081DC008360C36003610C2242618361C3610362EB
:1081EC004362836203F024FE002811D100210C4865
:1081FC0003F0A4FE00280DD10021094803F0C4FEB1
:10820C00002809D1064803F079FE002806D110BDDC
:10821C00FFF788FFFFF786FFFFF784FFFFF782FF6A
:10822C00B80300200038014000B589B010220021AD
:10823C0004A806F0BFFF0C22002101A806F0BAFF2B
:10824C001548164B03603F23436000238360C7220D
:10825C00C26003614361836102F0B6FF002814D150
:10826C0080235B01049304A90B4803F0FFF800285A
:10827C000DD1002301930293039301A9064803F047
:10828C00BBFA002805D109B000BDFFF74BFFFFF783
:10829C0049FFFFF747FFC046D4020020002C0140E5
:1082AC0000B589B01422002103A806F083FF0C222C
:1082BC000021684606F07EFF15488023DB0503602D
:1082CC0000234360836001225242C26003618361D8
:1082DC0002F07AFF002814D1072303931933049377
:1082EC0003A90B4803F0A8F900280CD10023009334
:1082FC0002936946064803F07FFA002805D109B0BD
:10830C0000BDFFF70FFFFFF70DFFFFF70BFFC04698
:10831C002003002000B58BB00C22002107A806F02A
:10832C0049FF1C220021684606F044FF19481A4BED
:10833C0003600323436000238360184AC260036117
:10834C008033836102F070FF00281CD14023079317
:10835C004033099307A90F4803F04EFA002814D1B3
:10836C0060230093503B019300230293049300225B
:10837C006946084802F0CCFF002808D1054800F0F7
:10838C00CBF90BB000BDFFF7CDFEFFF7CBFEFFF72F
:10839C00C9FEC0466C03002000040040FFFF000033
:1083AC0000B593B03822002104A806F003FF102278
:1083BC000021684606F0FEFE8020800001F05AFB8A
:1083CC000123049380235B02059302230B93013357
:1083DC000C9300230D9310330E9380239B020F9369
:1083EC00A0231B0510938023DB05119304A800F038
:1083FC000BFB00281BD107230093053B01930023A3
:10840C00029303930221684600F0ECFD002810D182
:10841C00094AD16880235B050B43D3608022A021DD
:10842C009205C904054800F04BFD13B000BDFFF7E1
:10843C0079FEFFF777FEC0460010024004000500ED
:10844C0010B501F0C5FBFFF7ABFFFFF791FDFFF790
:10845C0049FEFFF769FEFFF78DFEFFF7B1FEFFF750
:10846C00E3FEFFF71DFFFFF755FF06F033F8FEE7BD
:10847C0010B5024806F032FFFEE7C046D40A0108E8
:10848C0010B5024806F02AFFFEE7C046E00A0108D4
:10849C007047704710B501F0AFFB10BD10B5082048
:1084AC0001F070F910BD10B58020400101F06AF99F
:1084BC0010BD000010B5024801F076FA10BDC046A0
:1084CC00B801002010B5024801F06EFA10BDC0468C
:1084DC001402002010B5024802F06EFD10BDC0461B
:1084EC00D402002000B583B0144B196C0122114347
:1084FC001964196C0A400092009ADA6B80214905C4
:10850C000A43DA63DB6B0B400193019B05200022CD
:10851C000221404201F0D8FA0220002202214042FE
:10852C0001F0D2FA01F096FB022001F089FBC02089
:10853C00C00001F097FB03B000BDC0460010024024
:10854C0010B588B004001422002103A806F032FEF6
:10855C002268104B9A4201D008B010BD0E4BD96B5B
:10856C00802080050143D963DA6B02400192019AA5
:10857C00596B0122114359635B6B1A400292029BA7
:10858C00202303931D3B0493A02003A9C00501F0F5
:10859C002FF8E1E7007400400010024010B588B0DD
:1085AC0004001422002103A806F004FE294B2268C3
:1085BC009A4201D008B010BD274B196C80204001A5
:1085CC00014319641A6C02400192019A596B022200
:1085DC00114359635B6B13400293029B3823039343
:1085EC000492069203A91D4801F002F81C481D4B89
:1085FC0003601023436000238360C3608022026108
:10860C0043618361C361036201F028F900281BD127
:10861C00134BA3659C621448144B036011234360F5
:10862C00013B83600023C36080220261436183614C
:10863C00C36180235B01036201F010F9002806D1AD
:10864C00094B63659C62B5E7FFF76CFDE0E7FFF74C
:10865C0069FDF5E7003001400010024000040050B5
:10866C00B801002008000240140200201C00024047
:10867C0010B590B004003422002103A806F09AFD36
:10868C002368184A934205D08022D20593421FD00A
:10869C0010B010BD80239B03039303A800F082FD50
:1086AC00002812D1104A116C802000010143116482
:1086BC00136C03400193019B002201210D2001F05A
:1086CC0003FA0D2001F030FAE2E7FFF72BFDE9E7A2
:1086DC00054AD16B01231943D163D26B134002932A
:1086EC00029BD5E7002C01400010024082B00268CA
:1086FC00074B9A4201D002B07047064AD16B022355
:10870C001943D163D26B13400193019BF3E7C0462D
:10871C00000400400010024010B586B00400142282
:10872C00002101A806F046FD22680D4B9A4201D0AB
:10873C0006B010BD0B4A516B012319435163526BA8
:10874C001A400092009A402201923E3A0292049200
:10875C000593A02001A9C00500F04AFFE8E7C04638
:10876C00000400400010024010B594B00400142224
:10877C0000210FA806F01EFD3422002102A806F0ED
:10878C0019FD2268184B9A4201D014B010BD012378
:10879C00029302A800F006FD002821D1134B196C9E
:1087AC008020C001014319641A6C02400092009AA7
:1087BC00596B0122114359635B6B13400193019B6D
:1087CC0080239B000F93EF3BFF3B109311920023F0
:1087DC0012931392A0200FA9C00500F009FFD4E753
:1087EC00FFF7A0FCDAE7C046003801400010024059
:1087FC0010B5041E0ED00379002B07D00223237171
:10880C000023236101332371002010BD4371FFF756
:10881C0097FEF3E70120F8E730B500282ED0437916
:10882C00012B2DD0012343710222027105682C68A3
:10883C000E320A40934023432B60002910D102686A
:10884C0011683E230B40022B05D00123037100233A
:10885C004371002030BD536801210B435360F4E792
:10886C0004682168F8239B03194002239340994222
:10887C00EBD16368022213436360E6E70120E9E76A
:10888C000220E7E710B582B000240194002811D033
:10889C0000680190002908D101998A1808320192C8
:1088AC00019A1360002002B010BD01998A1814328D
:1088BC000192F5E70120F6E7F8B504000D0016006B
:1088CC00002800D195E0002900D194E04379012BD8
:1088DC0000D192E001234371013303710B68042B27
:1088EC0030D02B69012B00D176E02068C36B1022AD
:1088FC003240072191408B4319002B68AE683343FB
:10890C00EE68334393400B43C363206803688021B4
:10891C00C90191408B43036020680368384991403A
:10892C008B4319006B6893400B430360206803680A
:10893C00C02191408B430360012323710023637199
:10894C000020F8BD01F064F90700002E14D0236854
:10895C005A6B002A3DDA01F05BF9C01B0128F6D9ED
:10896C0023685B6B002BF2DA236908221343236123
:10897C00032323710320E4E723685A6B120410D5F8
:10898C0001F046F9C01B0128F6D923685B6B1B0468
:10899C00F2D5236908221343236103232371032097
:1089AC00CFE7AA691A642068826C102333401549FA
:1089BC0099408A43E96999400A4382642068C26CF1
:1089CC00FF2199408A43296A99400B001343C364E1
:1089DC0087E7AA695A64E6E72068836B1022324065
:1089EC001F2191408B4319006B6993400B438363A8
:1089FC007BE70120A5E70120A3E70220A1E7C04601
:108A0C00FE0F0000FF03000070B582B0041E00D101
:108A1C0031E20368DB0739D5C14A916838230B4032
:108A2C00D16803220A40102B26D0082B26D063686D
:108A3C008022520293427FD0A022D202934200D1D4
:108A4C0081E0B74B1A68B7490A401A601A68B649F0
:108A5C000A401A606368002B00D180E001F0D8F85E
:108A6C000500AF4B1B689B0310D401F0D1F8401BE1
:108A7C006428F6D90320FFE1032AD6D1A84B1B6842
:108A8C009B0303D56368002B00D1F7E123689B0798
:108A9C0031D5A34A936838210B40D16803220A4090
:108AAC00102B6AD0002B6BD19D4A1268520503D54E
:108ABC00E268002A00D1E3E1994842689B490A40E8
:108ACC00616909020A434260002B0DD10368984981
:108ADC000B4021690B4303600368DB0A07221A4031
:108AEC00944BD340944A1360944B186801F044F8AB
:108AFC00002800D0C6E123681B0700D481E0884B16
:108B0C009A6838231340182B73D0A369002B00D11B
:108B1C00B4E0834A136E01210B43136601F078F81D
:108B2C0005007F4B1B6E9B076BD401F071F8401B4B
:108B3C000228F6D903209FE1794A116880235B0251
:108B4C000B43136086E7764B19688022D2020A43E6
:108B5C001A601968802252020A431A607AE701F0FF
:108B6C0057F805006E4B1B689B038FD501F050F82E
:108B7C00401B6428F6D903207EE1022A92D193E7A8
:108B8C00E368002B22D0664A136869490B402169BF
:108B9C000B431360116880235B000B43136001F0DF
:108BAC0037F805005E4B1B685B0506D401F030F806
:108BBC00401B0228F6D903205EE159494B685B4AF9
:108BCC0013406269120213434B6094E7544A1368D2
:108BDC005B490B40136001F01BF80500504B1B6800
:108BEC005B0588D501F014F8401B0228F6D9032048
:108BFC0042E14B4B1B6E9B0703D5A369002B00D1A5
:108C0C0042E123685B0700D4A2E0454B9A68382305
:108C1C001340202B45D0424BDB6BDB004AD4404A3F
:108C2C00D16B802040050143D163D36B034001938A
:108C3C00019B0125434B1B68DB053DD5A368012B2C
:108C4C004ED0052B52D0364BDA6D01218A43DA65B2
:108C5C00DA6D03318A43DA65A368002B50D000F03B
:108C6C00D7FF06002E4BDB6D9B076FD400F0D0FFB7
:108C7C00801B354B9842F5D90320FDE0284A136E32
:108C8C0001218B43136600F0C3FF0500244B1B6EC0
:108C9C009B07B6D500F0BCFF401B0228F6D9032079
:108CAC00EAE01F4BDB6D9B0752D5A368002B4FD11D
:108CBC000120E1E00025BDE7224A116880235B001A
:108CCC000B43136000F0A4FF06001E4B1B68DB0572
:108CDC00B4D400F09DFF801B0228F6D90320CBE012
:108CEC000F4AD36D01210B43D365B5E70C4BDA6DFD
:108CFC0004210A43DA65DA6D03390A43DA65ABE716
:108D0C0000F086FF0600064BDB6D9B071ED500F0BE
:108D1C007FFF801B0C4B9842F5D90320ACE0C0467A
:108D2C0000100240FFFFFEFFFFFFFBFFFF80FFFF75
:108D3C00FFC7FFFF0024F4000800002004000020FF
:108D4C00FFFEFFFF0070004088130000012D1ED0B5
:108D5C00E369002B00D199E0544A916838220A400B
:108D6C00102A60D0022B18D0504A136850490B407F
:108D7C00136000F04DFF04004C4B1B689B014BD55E
:108D8C0000F046FF001B0228F6D9032074E0474A86
:108D9C00D36B48490B40D363DAE7444A1368444920
:108DAC000B40136000F034FF0500404B1B689B0127
:108DBC0006D500F02DFF401B0228F6D903205BE0FE
:108DCC003A4AD3683C491940236A606A0343A06A53
:108DDC0000020343E06A0343206B0343606B0343CD
:108DEC000B43D360116880235B040B431360D16881
:108DFC0080235B050B43D36000F00AFF04002B4B70
:108E0C001B689B0106D400F003FF001B0228F6D957
:108E1C00032031E000202FE0244AD36827490B407F
:108E2C00D360002028E0012B32D0204BDA680323DA
:108E3C001340216A8B422DD170231340616A8B42FF
:108E4C002AD1FE21C9011140A36A1B02994225D1E6
:108E5C00F8239B031340E16A8B4221D1E0231B05CD
:108E6C001340216B8B421DD1520F5207636B9A42F8
:108E7C001AD1002000E0012002B070BD0120FBE7F8
:108E8C000120F9E70120F7E70120F5E70020F3E7DF
:108E9C000120F1E70120EFE70120EDE70120EBE7EE
:108EAC000120E9E70120E7E70120E5E70010024097
:108EBC00FFFFFFFEFFFFFFEF8C80C111FCFFFEEEFA
:108ECC00F0B589B003000C00019202220492013229
:108EDC00069200220592802676050640010C0F3280
:108EEC000A40A0214903501880020E4D696B0127DE
:108EFC0097403A000A436A631A04120C03921B0D42
:108F0C00FF221340079303A900F072FB002E06D139
:108F1C00AB68054A1340019A14431C43AC6009B07A
:108F2C00F0BDC04600100240FFFFFF8810B52A4B71
:108F3C009B6838221A4207D1274B1A68D20A07239A
:108F4C0013402648D84010BD234B9A683823134051
:108F5C00082B3BD0204B9A6838231340102B0DD094
:108F6C001D4B9A6838231340202B31D01A4B9A682A
:108F7C0038231340182B26D00020E4E7164AD1687A
:108F8C000D3B0B40D2681209072111400131032B14
:108F9C000FD01248FDF7C2F80F4BDA68120A7F2384
:108FAC00134058430C4BD968490F0131FDF7B6F803
:108FBC00C9E70B48FDF7B2F8074BDA68120A7F23B2
:108FCC0013405843EEE7FA20C001BCE70448BAE767
:108FDC0080200002B7E7C046001002400024F400D5
:108FEC00001BB70070B504000D00002800D1AAE0EA
:108FFC00574B1A68072313408B4221D323689A07D7
:10900C000ED55B0705D5534A9168E023DB010B4372
:10901C009360504A936850490B40A1680B4393608E
:10902C002368DB0754D56368012B20D0022B3BD07F
:10903C00002B3FD1474A126852051CD401206AE02C
:10904C00434A136807218B432B43136000F0E0FD68
:10905C0006003F4B1A6807231340AB42CED000F0FA
:10906C00D7FD801B3D4A9042F3D9032053E0394A87
:10907C001268920369D537498A68072082431343E3
:10908C008B6000F0C5FD0600324B9B6838221A40FD
:10909C006368DB009A421BD000F0BAFD801B2F4B9B
:1090AC009842F1D9032036E02A4A12689201E2D4A0
:1090BC00012030E0032B05D0264AD26D9207DAD47A
:1090CC00012028E0234A126E9207D4D4012022E01A
:1090DC001F4B1A6807231340AB421DD823685B074C
:1090EC0006D51C4A93681E490B40E1680B439360FC
:1090FC00FFF71CFF174B9A68120A0F2313409B00B3
:10910C00184A9A581F231340D840174B1860174B16
:10911C00186800F031FD70BD0D4A136807218B43B0
:10912C002B43136000F074FD0600094B1A680723EB
:10913C001340AB42D2D000F06BFD801B074B984222
:10914C00F3D90320E7E70120E5E70120E3E7C04678
:10915C000020024000100240FFF0FFFF88130000C7
:10916C00FF8FFFFF700B0108080000200400002097
:10917C00014B18687047C0460800002010B5FFF777
:10918C00F7FF064B9A68120B072313409B00044A07
:10919C009A581F231340D84010BDC04600100240FF
:1091AC00B00B0108F0B583B0040003689B0362D5D3
:1091BC00814BDB6BDB001ED47F4AD16B80204005DA
:1091CC000143D163D36B03400193019B01267B4A7E
:1091DC00116880235B000B43136000F019FD050040
:1091EC00764B1B68DB0508D400F012FD401B0228EF
:1091FC00F6D9032502E00026E9E70025002D23D14E
:10920C006D4BD96DC02292000B001340114210D04F
:10921C00226B9A420DD0684AD36D69490B40D06DD0
:10922C00802149020143D165D16D66480140D16569
:10923C00D365DB0710D4002D06D15F4AD36D60498E
:10924C000B40216B0B43D365012E15D15A4AD36BBE
:10925C005D490B40D3630FE000F0DAFC0700564B7E
:10926C00DB6D9B07E7D400F0D3FCC01B574B984237
:10927C00F5D90325DFE700252368DB0706D54E4A21
:10928C00536D03218B4361680B43536523689B0724
:10929C0006D5494A536D0C218B43A1680B4353658A
:1092AC002368DB0606D5444A536D49490B40E168F7
:1092BC000B43536523689B0506D53F4A536D4549BF
:1092CC000B40A1690B43536523685B0506D53A4AED
:1092DC00536D41490B40E1690B43536523689B0671
:1092EC0006D5354A536D3D490B4021690B435365F7
:1092FC0023685B040BD5304A536D9B009B08216A95
:10930C000B4353658023DB05226A9A4239D02368CC
:10931C001B0306D5284A536D40218B43616A0B43CE
:10932C00536523689B020BD5234A536D2C490B4084
:10933C00A16A0B4353658023DB03A26A9A4227D0B0
:10934C0023685B020BD51C4A536D26490B40E16A1E
:10935C000B43536580235B04E26A9A421FD0236857
:10936C001B050BD5144A536D1F490B4061690B4308
:10937C00536562698023DB019A4215D0280003B043
:10938C00F0BD0D4AD16880235B020B43D360BEE76E
:10939C00094AD16880235B040B43D360D0E7064AAB
:1093AC00D1680B43D360DAE7034AD16880235B02B0
:1093BC000B43D360E2E7C04600100240007000404F
:1093CC00FFFCFFFFFFFFFEFFFFFFFFEF8813000016
:1093DC00FFF3FFFFFFFFF3FFFFFFCFFFFFCFFFFF09
:1093EC00FFFFBFFFFFFFFFFEFF3FFFFF30B5054C48
:1093FC0061690125294361610260BFF36F8F43608E
:10940C0030BDC04600200240084B5B69002B01DBDD
:10941C0000207047054B064A9A60064A9A605B69C1
:10942C00002B01DB0020F4E70120F2E700200240D2
:10943C0023016745AB89EFCD70B5040000F0E8FB64
:10944C000500144B1B69DB0308D5631CF9D000F035
:10945C00DFFB401BA042F4D303201AE00D490A693C
:10946C000D4B16001E400D4808611A420CD1094BD9
:10947C001B695B030CD5631CF9D000F0C9FB401BC6
:10948C00A042F4D3032004E0054B5E60012000E011
:10949C00002070BD00200240FAC30000FBC3000096
:1094AC004C040020F8B507000C0015001E00144BEE
:1094BC001B78012B22D0124B01221A7000225A6009
:1094CC00FA208000FFF7B8FF00280DD1012F0FD034
:1094DC002900200007F074FAFA208000FFF7ACFF97
:1094EC00084A5369BB435361054B00221A70F8BDFF
:1094FC002A0033002000FFF779FFEDE70220F6E7A2
:10950C004C0400200020024010B5FA208000FFF728
:10951C0093FF064B5969802212060A435A615B6914
:10952C00002B01DB012010BD0020FCE700200240D5
:10953C00034A53690343802040021843506170472B
:10954C0000200240044A536904480340C9001943EF
:10955C00034B1943516170470020024007E0FFFFA5
:10956C000200010070B504000E001F4B1B78012B8C
:10957C0037D01D4B01221A7000225A60FA2080004D
:10958C00FFF75AFF002828D1042363602368042BBB
:10959C0015D001235B423360A568A368E26894464A
:1095AC006344AB4214D929006068FFF7CBFFFA2063
:1095BC008000FFF741FF002809D10135EDE70430A9
:1095CC00FFF7B6FFFA208000FFF736FF05E03560A5
:1095DC00064A536902218B435361034B00221A70D4
:1095EC0070BD0220FCE7C0464C0400200020024065
:1095FC00F0B500235AE084685F000326BE40B443F4
:10960C002600CC68BC4034438460446894434A6868
:10961C001609012232409A402243426056E0DC088F
:10962C000834A400265805321A4092000F279740A0
:10963C00BE430F6997403A00324322505AE003264A
:10964C0000E00026A64034003C43434E1832920002
:10965C0094513468EA432600AE434F68FF0201D5AB
:10966C002C4326003C4C26606468260016404F684C
:10967C00BF0201D52C432600374C66608426A459C2
:10968C00260016404F68BF0301D52C432600324CF0
:10969C008427E6518026A45922404E68F60301D552
:1096AC002A0022432C4D80242A5101330C682200BD
:1096BC00DA404FD001229A40250015401442F4D0D4
:1096CC0003244E683440013C012C94D903224C688D
:1096DC002240032A09D0C2685E000324B440A2438E
:1096EC0014008A68B2402243C26003224C682240B4
:1096FC00022A94D004685E0003221700B740BC43D2
:10970C004F683A40B24022430260C02292024C6839
:10971C001442CAD09A0814001834A4000E4EA7594B
:10972C0003241C40E4000F26A640B743A026F605F0
:10973C00B04286D0094EB04208D0094EB04207D094
:10974C00084EB04200D17AE705267BE7012679E77F
:10975C00022677E7F0BDC046001802400004005016
:10976C0000080050000C005003690B4201D001208E
:10977C0070470020FCE7002A01D0816170478162AC
:10978C00FCE7704710B50400094BDB68184204D1A4
:10979C00074B1B69234205D110BD054BD860FFF761
:1097AC00F0FFF5E7024B1C61200004F0FDFEF3E72F
:1097BC0000180240F0B5846CC56C6560046D002C1B
:1097CC0002D0446D856D65600B4F7C681C26056C62
:1097DC002E400125B5402C437C600468636083688F
:1097EC00102B04D0036899600368DA60F0BD03683D
:1097FC009A600368D960F9E70000024010B50400D4
:10980C00036C9B08094A944663449B004364FF2005
:10981C002368184008381421FCF780FC044BA3641F
:10982C001F2318401E3B8340E36410BD00820010D0
:10983C00800802403F2342681340064A9A1892005F
:10984C000265054A4265013B03221A4001239340FD
:10985C00836570473F8200104009024070B5041EBA
:10986C004DD00568274BE8181421FCF757FC8000F5
:10987C00206425230222E2542B68234A13402B60D8
:10988C0021680A68A368E0680343206903436069A0
:10989C000343A0690343E0690343206A0343134372
:1098AC000B602000FFF7AAFF8023DB01A2689A421D
:1098BC0018D0626C3F2361680B401360A36CE26CA0
:1098CC005A606368013B032B0FD900232365636542
:1098DC00A3650023E36325220121A154013AA3547B
:1098EC00002070BD00236360E3E72000FFF7A2FFB8
:1098FC00236D00221A60636DA26D5A60E9E70120A6
:10990C00EFE7C046F8FFFDBF0F80FFFF70B5040006
:10991C002420205C012845D0242001252554013029
:10992C00205C012806D08023E3635C3B0022E254D8
:10993C00012070BD2430013525540020E0632568DA
:10994C0028680126B04328602000FFF733FF236B03
:10995C00002B1CD0226813680E210B431360636C20
:10996C001A68D20304D51968802252000A431A607F
:10997C00236D002B04D01968802252000A431A6010
:10998C002268136801210B4313600020D1E7226881
:10999C00136804218B4313602268136806310B4350
:1099AC001360DCE70220C4E770B5314B196804681A
:1099BC0025681C23026C134004229A40114216D0D5
:1099CC006A0714D523689B0603D4236804229343A7
:1099DC002360274C63681C21026C114004228A40CE
:1099EC0013436360036B002B00D0984770BD0222B9
:1099FC009A4011421CD0AA071AD523689B0606D49C
:109A0C0023680A22934323602523093AC254184C35
:109A1C0063681C21026C114002228A40134363606C
:109A2C0024230022C254C36A002BDFD09847DDE701
:109A3C0008229A401142D9D02B07D7D523680E2281
:109A4C00934323600A4C62681C21036C1940012368
:109A5C001D008D402A436260C36325228354233347
:109A6C000022C254436B002BC0D09847BEE7C046BF
:109A7C000000024010B5104A136810490B40034314
:109A8C00136080239B00984201D0002010BD0C4B2A
:109A9C001B685800C01840000A49FCF73FFB013016
:109AAC00054B5B695B0503D5002803D00138F7E74C
:109ABC000020EBE70320E9E700700040FFF9FFFF0F
:109ACC000800002040420F0070B5002811DB83080D
:109ADC00134EC0339B009D5903242040C000FF222D
:109AEC0014008440A54389010A4082402A439A51BC
:109AFC0070BD0F230340083B9B0806339B00094AAB
:109B0C00944663445C6803221040C000FC3215008C
:109B1C008540AC4389010A40824022435A60E7E702
:109B2C0000E100E000ED00E0002805DB1F231840F9
:109B3C001E3B8340014A13607047C04600E100E0C1
:109B4C00013880235B0498420FD2094A50600948BF
:109B5C00036A1B021B0AC02109060B430362002384
:109B6C00936007331360002070470120FCE7C04668
:109B7C0010E000E000ED00E010B50400114B197886
:109B8C00002901D1012010BDFA208000FCF7C6FA93
:109B9C0001000D4B1868FCF7C1FAFFF7D1FF002844
:109BAC000DD1032C01D90120EDE701300022210059
:109BBC004042FFF789FF054B1C600020E3E70120C2
:109BCC00E1E7C0460000002008000020040000204F
:109BDC0010B5084A116880235B000B431360022008
:109BEC00FFF7CAFF041E02D00124200010BDFEF7AF
:109BFC0079FCFAE700200240034B1B78034A1168FA
:109C0C005B1813607047C0460000002068040020F9
:109C1C00014B18687047C0466804002070B50400FA
:109C2C00FFF7F6FF0500631C02D0044B1B78E41809
:109C3C00FFF7EEFF401BA042FAD370BD00000020DE
:109C4C00034A136802218B43034313607047C046D9
:109C5C0030000140024A136801218B4313607047A6
:109C6C0030000140034A136803490B40034313605F
:109C7C007047C04600000140FFF9FFFFF0B5D64623
:109C8C004F464646C0B582B006000D0090461F00F8
:109C9C00FFF7BEFF0A9B181A8146B944FFF7B8FFBD
:109CAC0082462E4B1B685B011B0D4A4653430193A6
:109CBC0033689C682C40641B63425C41444545D02E
:109CCC007B1CF5D0FFF7A4FF5346C01A48450BD2B6
:109CDC004B46002B08D0019A002A00D04A46019B23
:109CEC00013B01939146E3E732685368E0218B43D3
:109CFC00536082235B0072689A420CD080239B01D4
:109D0C00B26A9A4216D05D230122F254013B002222
:109D1C00F25403201BE0B36880221202934203D05A
:109D2C008022D2009342E9D13268136840218B43E0
:109D3C001360E3E73268136809490B40136032681B
:109D4C00116880239B010B431360DCE7002002B0F9
:109D5C00E0BCBA46B146A846F0BDC046080000209B
:109D6C00FFDFFFFFF0B5DE4657464E464546E0B5F1
:109D7C0083B007000D00160098466B460022DA707F
:109D8C00FFF746FF0C9B181A40448146FFF740FF33
:109D9C0082463B689B46364B1A6893009A18D30050
:109DAC009B1A1B0D4A465343019302E04346013371
:109DBC0011D13B689C682C40B44250D0C023DB00CE
:109DCC009D42F3D1002EF1D15B461B7BDBB26A4680
:109DDC00D370D378EAE7FFF71BFF5346C01A484508
:109DEC000BD24B46002B08D0019A002A00D04A46D1
:109DFC00019B013B01939146DBE73A685368E021F4
:109E0C008B43536082235B007A689A420CD0802388
:109E1C009B01BA6A9A4216D05D230122FA54013B87
:109E2C000022FA5403201BE0BB68802212029342EA
:109E3C0003D08022D2009342E9D13A6813684021C2
:109E4C008B431360E3E73A6813680A490B401360CD
:109E5C003A68116880239B010B431360DCE70020F8
:109E6C0003B0F0BCBB46B246A946A046F0BDC04606
:109E7C0008000020FFDFFFFF70B582B004000D006A
:109E8C001600C02100922B0000224901FFF76AFF47
:109E9C00002818D100962B00002280212000FFF70B
:109EAC00EDFE002816D1C02100962B000022C9001F
:109EBC002000FFF757FF00280AD0236E20221343FF
:109ECC002366032004E0236E202213432366032021
:109EDC0002B070BD236E2022134323660320F7E7E4
:109EEC0070B582B004000D00160082235B0042683E
:109EFC009A420FD000962B00002280212000FFF701
:109F0C00BDFE002815D182235B0062689A4216D0F0
:109F1C0002B070BD836880221202934203D080226B
:109F2C00D2009342E6D12268136840218B43136020
:109F3C00E0E7236E2022134323660320E8E7A3689F
:109F4C0080221202934203D08022D2009342DFD1AE
:109F5C00C02100962B000022C9002000FFF702FF51
:109F6C000028D5D0236E2022134323660320CFE78D
:109F7C0070B5041E00D178E0436A002B07D105337D
:109F8C00FF3342689A4205D00023C36102E00023EC
:109F9C00036143610023A3625D33E35C002B5AD061
:109FAC005D230222E2542268136840218B43136024
:109FBC00E368E022D200934254D90022F021090137
:109FCC008B4205D0E021C9008B4201D00023A36253
:109FDC0082235B0061680B4084210902A068014068
:109FEC000B430221206901400B43012160690840A9
:109FFC00034380208000A569284003433820E5698D
:10A00C00284003438020256A284003438020800198
:10A01C00A56A2840034320680360608B0423034037
:10A02C001020656A284003430820656B28400343D1
:10A03C00F0200001E5682840034320681343436087
:10A04C002268D3690A480340D361002323665D3339
:10A05C00E154002070BD5C330022E2542000FEF776
:10A06C009DFA9DE780225201A8E70120F2E7C04645
:10A07C00FFF7FFFFF0B5CE4600B584B004000191A8
:10A08C0091461D005C23C35C012B00D1CBE05C230B
:10A09C000122C254FFF7BCFD06005D23E35CDFB276
:10A0AC00012B00D0B6E00199002900D1B3E04B465A
:10A0BC00002B00D1AFE05D230322E2540023236682
:10A0CC00A1634A46A287E28723644422A352023248
:10A0DC00A3522365E36480231B02A2689A421ED01C
:10A0EC0023681A68520603D41A6840210A431A607E
:10A0FC00E023DB00E2689A423ED96368002B02D071
:10A10C004B46012B20D12368A26B1288DA60A36B1B
:10A11C000233A363E38F013B9BB2E38714E0226815
:10A12C00136840218B431360226811688023DB0184
:10A13C000B431360D4E7FFF76BFD801BA84201D3E0
:10A14C006B1C14D1002D12D0E18F89B2002946D09E
:10A15C0023689A689207EED5A26B1288DA60A36B1B
:10A16C000233A363E38F013B9BB2E387ECE75D23F0
:10A17C000122E25403274EE06368002B02D04B46C9
:10A18C00012B14D1A36B1B7822681373A36B0133BF
:10A19C00A363E38F013B9BB2E38708E0FFF738FD35
:10A1AC00801BA84201D36B1C14D1002D12D0E18F5F
:10A1BC0089B2002913D023689A689207EED5A26B56
:10A1CC0012781A73A36B0133A363E38F013B9BB229
:10A1DC00E387ECE75D230122E25403271BE0320006
:10A1EC0029002000FFF748FE002801D02023236619
:10A1FC00A368002B06D103932368DA6803929B684B
:10A20C000393039B236E002B05D15D330122E25493
:10A21C00002700E002275C230022E254380004B03F
:10A22C0080BCB946F0BD0227F8E70000F0B583B05A
:10A23C000400009101921E00089D5C23C35C012B5D
:10A24C0000D11EE15C230122C254FFF7E1FC0700A0
:10A25C005D23E35CD9B26268012B0BD082235B00D7
:10A26C009A4200D0FBE0A368002B00D0FDE004294B
:10A27C0000D0FCE0009B002B00D1FAE0019B002BEE
:10A28C0000D1F8E0002E00D1F7E05D23E35C042B55
:10A29C0002D05D230522E25400232366019A226436
:10A2AC004622A652023AA652009AA263E687A687D5
:10A2BC00E3642365E023DB00E2689A4223D9226839
:10A2CC00536871490B40536023681A68520603D4D3
:10A2DC001A6840210A431A60E023DB00E2689A42C4
:10A2EC0058D96368002B01D0012E0AD12368A26BC8
:10A2FC001288DA60A36B0233A363E38F013B9BB23A
:10A30C00E38701262DE02268516880235B010B4313
:10A31C005360D9E7A26B1288DA60A36B0233A36394
:10A32C00E38F013B9BB2E387002623689A68D20730
:10A33C0010D54622A25A92B2002A0BD0DB68226CAE
:10A34C001380236C023323644622A35A013B9BB235
:10A35C00A3520126FFF75CFCC01BA84201D36B1C67
:10A36C0013D1E38F9BB2002B04D14633E35A9BB23B
:10A37C00002B63D023689A689207D6D5E28F92B2ED
:10A38C00002AD2D0012ED0D1C4E75D230122E254A1
:10A39C00032065E06368002B01D0012E0AD1A36B6A
:10A3AC001B7822681373A36B0133A363E38F013B08
:10A3BC009BB2E38701261DE023689A68D20710D56B
:10A3CC004622A25A92B2002A0BD01B7B226C13702D
:10A3DC00236C013323644622A35A013B9BB2A35244
:10A3EC000126FFF715FCC01BA84201D36B1C20D122
:10A3FC00002D1ED0E38F9BB2002B04D14633E35AC1
:10A40C009BB2002B1AD023689A689207D4D5E28F9E
:10A41C0092B2002AD0D0012ECED1A26B12781A7330
:10A42C00A36B0133A363E38F013B9BB2E38700264D
:10A43C00C2E75D230122E254032011E03A00290017
:10A44C002000FFF719FD002802D0202323660120ED
:10A45C00236E002B13D15D330122E25400E0022065
:10A46C005C230022E25403B0F0BD0220F8E7022086
:10A47C00F6E70120F4E70120F2E70120F0E70120E4
:10A48C00EEE70220EFE7C046FFEFFFFFF0B5CE4648
:10A49C0000B584B00400039116001D005D23C35C5D
:10A4AC00DFB2012B00D0BAE00433FF3342689A428A
:10A4BC003DD05C23E35C012B00D1B9E05C2301228D
:10A4CC00E254FFF7A5FB81460399002900D1A7E0D0
:10A4DC00002E00D1A4E05D230422E2540023236665
:10A4EC0021644032A6520232A652A363A387E387AB
:10A4FC00E3642365E023DB00E2689A4224D92268F6
:10A50C0053684C490B40536080231B02A2689A424B
:10A51C0021D023681A68520603D41A6840210A43D2
:10A52C001A60E023DB00E2689A4229D94CE0836888
:10A53C00002BBED15D330422C254009533000A00B7
:10A54C00FFF774FE07006EE02268516880235B0100
:10A55C000B435360D8E72268136840218B43136088
:10A56C002268136834490B401360D2E7FFF750FBA5
:10A57C004B46C01AA84201D36B1C16D1002D14D027
:10A58C004623E35A9BB2002B38D023689A68D20733
:10A59C00ECD51B7B226C1370236C01332364462295
:10A5AC00A35A013B9BB2A352EAE75D230122E2547A
:10A5BC00032735E0FFF72CFB4B46C01AA84201D30A
:10A5CC006B1C16D1002D14D04623E25A92B2002AED
:10A5DC0014D023689A68D207ECD5DB68226C138000
:10A5EC00236C023323644622A35A013B9BB2A35231
:10A5FC00EAE75D230122E254032711E04A462900D1
:10A60C002000FFF76DFC002801D020232366236E69
:10A61C00002B05D15D330122E254002700E0022714
:10A62C005C230022E254380004B080BCB946F0BD73
:10A63C000227F8E7FFEFFFFFFFBFFFFF70B5040035
:10A64C005C23C35C012B00D186E05C230120E05429
:10A65C000133E35CDDB2012B78D1002977D0002ADD
:10A66C0075D05C330230E05400232366A163A287CB
:10A67C00E28723642365E3644422A3520232A3528B
:10A68C0080231B02A2689A4239D0636D334A1A6345
:10A69C00636D334ADA62636D324A5A63636D00222A
:10A6AC009A632268536830490B405360E023DB0007
:10A6BC00E2689A4205D8636D9A698023DB009A425E
:10A6CC0029D022680C32E38F9BB2A16B606DFFF72F
:10A6DC001DF9002835D123681A68520603D41A686C
:10A6EC0040210A431A602268536820210B435360AF
:10A6FC00226853681E390B435360050027E022681B
:10A70C00136840218B431360226811688023DB019E
:10A71C000B431360B9E7E38FDB0707D42268536858
:10A72C000B405360E38F5B08E387CAE722685168EC
:10A73C008023DB010B435360E38F5B080133E3871A
:10A74C00BFE7236E10221343236600E002255C232F
:10A75C000022E254280070BD0225FBE733AB000851
:10A76C0077AB000855AB0008FFBFFFFF70B50400C6
:10A77C005C20205C012800D1FCE05C2001252554E4
:10A78C000130205CC6B2656801280BD082204000E5
:10A79C00854200D0DFE0A068002800D0E0E0042E65
:10A7AC0000D0DFE0002900D1DEE0002A00D1DDE09E
:10A7BC00002B00D1DCE05D20205C042802D05D2061
:10A7CC000525255400202066A163A387E387226416
:10A7DC004422A3520232A352E064206522685368DB
:10A7EC0065490B405360E023DB00E2689A4253D981
:10A7FC002268536861490B4053605D23E35C042B72
:10A80C0000D191E0A36D5E4A1A63A36D5D4ADA62D2
:10A81C00A36D5D4A5A63A36D00229A6321680C31C3
:10A82C004623E35A9BB2226CA06DFFF76FF8002809
:10A83C0000D080E02268536801210B435360626DA5
:10A84C0000231363626DD362626D5363626D936315
:10A85C005D33E35C042B74D0636D4A4ADA62226880
:10A86C000C32E38F9BB2A16B606DFFF74FF80028A1
:10A87C006BD123681A68520603D41A6840210A4324
:10A88C001A602268536820210B4353602268536876
:10A89C001E390B4353605FE02268516880235B01D3
:10A8AC000B435360636D9A698023DB009A4218D086
:10A8BC00A36D9A698023DB009A429ED1226853686B
:10A8CC002E490B4053604623E35ADB0720D4226801
:10A8DC0053682E490B4053604622A35A5B08A3527F
:10A8EC008BE7A38FDB0708D42268536828490B40F9
:10A8FC005360E38F5B08E387DAE7226851688023B3
:10A90C00DB010B435360E38F5B080133E387CFE735
:10A91C002268516880239B010B4353604622A35A43
:10A92C005B080133A35268E7A36D1A4A1A63A36D3F
:10A93C00194ADA626CE7236E102213432366012056
:10A94C000AE0636D144ADA6289E7236E102213431E
:10A95C002366012000E002205C230022E25470BD3B
:10A96C000220F9E70220F7E70120F5E70120F3E7E1
:10A97C000120F1E70220F2E7FF9FFFFFFFEFFFFF4F
:10A98C004BAB000875AC000855AB0008FFDFFFFFB0
:10A99C00FFBFFFFF3FAB0008EBAB000870B5040036
:10A9AC005D20255CEEB2012D00D0A6E0A068002849
:10A9BC0004D182235B0065689D4259D05C23E35C23
:10A9CC00012B00D19FE05C230125E554002900D127
:10A9DC0094E0002A00D191E001330335E5540023C3
:10A9EC00236621644421625202316252E36423657E
:10A9FC00A387E38780231B02984243D022685368C5
:10AA0C0042490B405360E023DB00E2689A4244D990
:10AA1C00226853683E490B405360A36D3D4A1A634C
:10AA2C00A36D3D4ADA62A36D3C4A5A63A36D0022C2
:10AA3C009A6321680C314623E35A9BB2226CA06DB9
:10AA4C00FEF764FF002853D123681A68520603D41A
:10AA5C001A6840210A431A602268536820210B436C
:10AA6C005360226853681F390B435360060045E05E
:10AA7C00A73B0430E05413000A002000FFF776FED9
:10AA8C0006003EE02268136806398B431360226887
:10AA9C00136823490B401360B0E722685168802388
:10AAAC005B010B435360A36D9A698023DB009A42D0
:10AABC00B3D12268536816490B4053604623E35ABE
:10AACC00DB0709D42268536810490B4053604622B7
:10AADC00A35A5B08A352A0E72268516880239B010C
:10AAEC000B4353604622A35A5B080133A35294E7ED
:10AAFC00236E10221343236600E002265C230022FF
:10AB0C00E254300070BD0226FBE7C046FFDFFFFFBA
:10AB1C00FFEFFFFF3FAB0008EBAB000855AB0008A5
:10AB2C00FFBFFFFF704710B5806AFFF7FBFF10BD3A
:10AB3C00704710B5806AFFF7FBFF10BD704710B56A
:10AB4C00806AFFF7FBFF10BD10B5806A026853687E
:10AB5C0003218B435360036E1022134303665D2362
:10AB6C000F3AC25403F04EFD10BD30B583B0050052
:10AB7C00846AFFF74DF802002B681B689B0625D4EE
:10AB8C0021684B68202083434B6021684B681E383A
:10AB9C0083434B6064212000FFF76EF9002803D03B
:10ABAC00236E202213432366A368002B06D1019346
:10ABBC002368DA6801929B680193019B0023E38769
:10ABCC005D330122E254236E002B04D1200003F0EC
:10ABDC0011FD03B030BD200003F014FDF9E770B592
:10ABEC000500846AFFF714F802002B681B689B06AB
:10ABFC0022D421684B68202083434B60A368002B30
:10AC0C0004D10533FF336168994223D021684B6826
:10AC1C00012083434B6064212000FFF761F9002879
:10AC2C0001D02023236646230022E252173301323F
:10AC3C00E254236E002B13D12523626DD35C022BBF
:10AC4C0007D02523A26DD35C022B02D0200003F089
:10AC5C00C9FC70BD21684B681D3883434B60DAE733
:10AC6C00200003F0CFFCF4E770B50500846AFEF712
:10AC7C00CFFF2B681B689B060DD52523626DD35C1B
:10AC8C00022B07D02523A26DD35C022B02D020000F
:10AC9C0003F0A0FC70BD2268536820218B435360E5
:10ACAC00020044312000FFF7E7F8002803D0236EA0
:10ACBC002022134323662268536803218B4353607D
:10ACCC000023E3874622A3525D33453AE254236EB8
:10ACDC00002BD2D0200003F095FCDBE730B5036AE3
:10ACEC00026A0124A243026242688469184D2C4016
:10ACFC000D682C430225AB438D682B43154DA842A0
:10AD0C0008D0154DA84205D0144DA84202D0144DC0
:10AD1C00A84205D10825AB43CD682B430425AB4392
:10AD2C000C4DA84208D00C4DA84205D00B4DA842A2
:10AD3C0002D00B4DA84205D10A4D2A404D692A4339
:10AD4C008D692A43426084614A684263036230BD64
:10AD5C008CFFFEFF002C01400040014000440140EC
:10AD6C0000480140FFFCFFFF70B5036A026A194CF2
:10AD7C00224002624268C469174D2C400E6826437B
:10AD8C00164C23408C6824022343154CA04219D046
:10AD9C00134CA04208D0134CA04205D0124CA04238
:10ADAC0002D0124CA04207D1114C14404A69120136
:10ADBC0022438C6925012A434260C6614A68C263FA
:10ADCC00036270BD0B4C1C40CB681B0223430A4C26
:10ADDC002340DDE7FFFEFFFF8CFFFEFFFFFDFFFFC3
:10ADEC00002C01400040014000440140004801405B
:10ADFC00FFCFFFFFFFF7FFFFFFFBFFFF30B5026A3E
:10AE0C00036A134C234003624368C469114D2C4000
:10AE1C000D682D022C43104D15408A6812032A43ED
:10AE2C000E4DA84208D00E4DA84205D00D4DA8429B
:10AE3C0002D00D4DA84204D10C4D2B404D69AD01F3
:10AE4C002B434360C4614B680364026230BDC0464F
:10AE5C00FFEFFFFFFF8CFFFEFFDFFFFF002C014029
:10AE6C00004001400044014000480140FFBFFFFF8B
:10AE7C0030B5026A036A124C234003624368446D86
:10AE8C00104D2C400D682C430F4D15408A68120450
:10AE9C002A430E4DA84208D00D4DA84205D00D4DA9
:10AEAC00A84202D00C4DA84204D1054D2B404D694F
:10AEBC002D022B43436044654B688365026230BDB1
:10AECC00FFFFFEFF8FFFFEFFFFFFFDFF002C014089
:10AEDC0000400140004401400048014030B5026A86
:10AEEC00036A134C234003624368446D114D2C409C
:10AEFC000D682D022C43104D15408A6812052A430B
:10AF0C000E4DA84208D00E4DA84205D00D4DA842BA
:10AF1C0002D00D4DA84204D10C4D2B404D69AD0211
:10AF2C002B43436044654B68C365026230BDC04629
:10AF3C00FFFFEFFFFF8FFFFEFFFFDFFF002C014045
:10AF4C00004001400044014000480140FFFFFBFF6E
:10AF5C0030B5036A046A0125AC4304628469EF3599
:10AF6C00AC43120122430A24A3430B4382610362C4
:10AF7C0030BD000030B5036A046A1025AC4304628E
:10AF8C008469054D2C4012032243A024A3430901DC
:10AF9C0019438261016230BDFF0FFFFF8368034AD2
:10AFAC0013400B4307210B43836070478FFFCFFF88
:10AFBC00704770477047704770B504000368DE68CF
:10AFCC001D69AA070ED5B2070CD5032252421A618D
:10AFDC000123037703689B699B0757D0FFF7E9FFB1
:10AFEC00002323776B0712D5730710D5236805222E
:10AFFC0052421A610223237723689A69C0239B006B
:10B00C001A4249D02000FFF7D4FF002323772B07E7
:10B01C0010D533070ED52368092252421A61042336
:10B02C0023772368DB699B073DD02000FFF7C1FF26
:10B03C0000232377EB0612D5F30610D523681122D3
:10B04C0052421A61082323772368DA69C0239B00D4
:10B05C001A422FD02000FFF7ACFF00232377EB0719
:10B06C0001D5F3072DD482239B011D4201D0330659
:10B07C002FD4EB0501D5330632D46B0601D57306FC
:10B08C0035D4AB0601D5B30639D470BDFFF790FFAC
:10B09C002000FFF78FFFA3E72000FFF789FF2000B8
:10B0AC00FFF788FFB1E72000FFF782FF2000FFF7D2
:10B0BC0081FFBDE72000FFF77BFF2000FFF77AFF41
:10B0CC00CBE72368022252421A61200003F0EAFD0A
:10B0DC00C9E723680E4A1A61200000F0CEFBC8E7CE
:10B0EC0023680C4A1A61200000F0C8FBC5E72368EE
:10B0FC00412252421A612000FFF75DFFC1E723682D
:10B10C00212252421A61200000F0B6FBBDE7C04676
:10B11C007FDFFFFFFFFEFFFF0368244A904206D04B
:10B12C008022D205904202D0214A904203D1702253
:10B13C0093434A6813431D4A904212D08022D20591
:10B14C0090420ED01A4A90420BD01A4A904208D024
:10B15C00194A904205D0194A904202D0184A90429E
:10B16C0003D1184A1340CA681343802293434A6997
:10B17C00134303608B68C3620B6883620B4B98426A
:10B18C0008D00D4B984205D00C4B984202D00C4B7A
:10B19C00984201D10B690363012343610269134295
:10B1AC0003D003690122934303617047002C0140D3
:10B1BC0000040040002000400040014000440140D9
:10B1CC0000480140FFFCFFFF70B5041E2AD03D2350
:10B1DC00C35C002B20D03D2502236355210001C9FF
:10B1EC00FFF79AFF01234822A3540A3AA3540132D1
:10B1FC00A3540132A3540132A3540132A35401329B
:10B20C00A3540132A3540132A3540132A35401328A
:10B21C00A3546355002070BD3C330022C254FDF78B
:10B22C0027FAD8E70120F6E770B5041E2AD03D2393
:10B23C00C35C002B20D03D2502236355210001C99E
:10B24C00FFF76AFF01234822A3540A3AA3540132A0
:10B25C00A3540132A3540132A3540132A35401323A
:10B26C00A3540132A3540132A3540132A35401322A
:10B27C00A3546355002070BD3C330022C254FDF72B
:10B28C0035FAD8E70120F6E770B5036A026A102494
:10B29C00A243026242688469174D2C400D682D024E
:10B2AC0025432024A3438C6824012343134CA04240
:10B2BC0019D0124CA04208D0114CA04205D0114C10
:10B2CC00A04202D0104CA04207D1104C14404A6945
:10B2DC00920022438C69A6003243426085614A6821
:10B2EC008263036270BD8024A3431C00CB681B01E6
:10B2FC0023434024A343DCE7FF8CFFFE002C0140DA
:10B30C00004001400044014000480140FFF3FFFFB2
:10B31C0070B504000D003C23C35C012B00D192E0FE
:10B32C003C230121C154142A00D987E09200474BD9
:10B33C009B589F4629000068FFF7D0FC2268936950
:10B34C0008210B4393612268936904398B43936101
:10B35C002268936929690B43936100206FE02900EF
:10B36C000068FFF791FF2268916980231B010B4352
:10B37C0093612268936936490B40936121688B690C
:10B38C002A69120213438B61002058E029000068DF
:10B39C00FFF7EAFC2268D36908210B43D3612268CA
:10B3AC00D36904398B43D3612268D36929690B4370
:10B3BC00D361002043E029000068FFF71FFD2268DD
:10B3CC00D16980231B010B43D3612268D3692049C7
:10B3DC000B40D3612168CB692A6912021343CB61FC
:10B3EC0000202CE029000068FFF742FD2268536D15
:10B3FC0008210B4353652268536D04398B43536505
:10B40C002268536D29690B435365002017E029000E
:10B41C000068FFF763FD2268516D80231B010B430D
:10B42C0053652268536D0A490B40536521684B6D77
:10B43C002A69120213434B65002000E001203C23D3
:10B44C000022E25470BD0220FCE7C046F40A010859
:10B45C00FFFBFFFF30B58468034D2C401B021343E8
:10B46C000B432343836030BDFF00FFFF10B5040086
:10B47C003C23C35C012B00D178E03C230122C25455
:10B48C0001330132C2540268936839480340936017
:10B49C000B68602B50D02AD8402B58D00CD9502B8D
:10B4AC0023D1CA6849682068FFF752FD50212068F3
:10B4BC00FFF774FD002005E0202B0ED009D9302BAE
:10B4CC000BD001203D230122E254013B0022E25427
:10B4DC0010BD002B01D0102B05D119002068FFF7EF
:10B4EC005DFD0020EEE70120ECE70120EAE7802279
:10B4FC005201934236D08022920193420DD1CB68F7
:10B50C004A6889682068FFF7A5FF22689168802344
:10B51C00DB010B4393600020D4E7702B24D1CB6864
:10B52C004A6889682068FFF795FF2268936877213D
:10B53C000B4393600020C5E7CA6849682068FFF791
:10B54C0019FD60212068FFF729FD0020BAE7CA68C1
:10B55C0049682068FFF7FCFC40212068FFF71EFDBE
:10B56C000020AFE70020ADE70120ABE70220AFE7FA
:10B57C008800CEFF70B5026893682D4C23404C6850
:10B58C0023432C4C23400C68234393604B68502B73
:10B59C0033D00BD9602B37D0702B44D10B698A6810
:10B5AC00C9680068FFF756FF002010E0402B0FD051
:10B5BC0001D901200BE0202B2DD003D9302B30D119
:10B5CC00002004E0002B28D0102B28D1002070BDC7
:10B5DC000B68052B29D003681E6A1A6A0124A24342
:10B5EC001A620568AC69F02294430B691B01234372
:10B5FC00AB6103681E620020E9E70A69896800688C
:10B60C00FFF7A6FC0020E2E70A6989680068FFF7EB
:10B61C00B1FC0020DBE70020D9E70020D7E70120B0
:10B62C00D5E70120D3E70120D1E70120CFE7C046C1
:10B63C008FFFCFFFF8FFFEFF10B504003C23C35C67
:10B64C00012B22D03C230122C25401330132C254BB
:10B65C00FFF790FF002810D12268D36840218B435C
:10B66C00D3602268D3680A490B40D3603D23012282
:10B67C00E254013B0022E25410BD3D230122E2546E
:10B68C00013B0022E2540120F6E70220F4E7C04619
:10B69C00FFBFFFFF10B51F23194001248C40036A24
:10B6AC00A3430362036A8A401343036210BD000084
:10B6BC0010B50400002937D13E23C35C013B5A1E50
:10B6CC009341DBB2002B00D083E0002957D13E33ED
:10B6DC000222E25401222068FFF7DCFF2368404A73
:10B6EC00934208D03F4A934205D03F4A934202D03E
:10B6FC003E4A934204D1596C802212020A435A6486
:10B70C002368374A934256D08022D205934252D0B6
:10B71C00374A93424FD0334A93424CD01A68012196
:10B72C000A431A60002055E004290CD0082911D0D6
:10B73C000C2916D010291BD04323C35C013B5A1E85
:10B74C009341DBB2BEE73F23C35C013B5A1E9341DE
:10B75C00DBB2B7E74023C35C013B5A1E9341DBB21B
:10B76C00B0E74123C35C013B5A1E9341DBB2A9E70E
:10B77C004223C35C013B5A1E9341DBB2A2E704296E
:10B78C0009D008290BD00C290DD010290FD0432338
:10B79C000222E2549EE73F230222E2549AE740231E
:10B7AC000222E25496E741230222E25492E742231A
:10B7BC000222E2548EE79A680E490A40062A0AD001
:10B7CC0007398A4209D01A6801210A431A600020FD
:10B7DC0000E0012010BD0020FCE70020FAE7C04685
:10B7EC00002C014000400140004401400048014051
:10B7FC00000400400700010030B53C23C35C012B62
:10B80C0030D03C230122C25401330132C2540268AD
:10B81C0053689468144DAA421FD07025AB430D6831
:10B82C002B4353600368104A934209D08022D205FF
:10B83C00934205D00D4A934202D00D4A934204D153
:10B84C00802294438A6814439C603D230122C25495
:10B85C00013B0022C254002030BD064D2B404D68E8
:10B86C002B43DAE70220F7E7002C014000040040EC
:10B87C0000400140FFFF0FFF70477047704700000A
:10B88C0030B5EFF31084012282F3108801680B6845
:10B89C00124D2B400B6084F31088EFF3108182F370
:10B8AC001088026893680E4C2340936081F31088D3
:10B8BC00C36E012B06D08C232022C2500023C366FA
:10B8CC00436730BDEFF3108183F31088026813686F
:10B8DC001024A343136081F31088ECE7DFFEFFFF15
:10B8EC00FEFFFFEFF8B5040001688368026913439B
:10B8FC0042691343C26913430A68AA4802401343BE
:10B90C000B6022685368A8490B40E1680B435360F5
:10B91C00A1692268A54B9A4201D0236A1943936806
:10B92C00A34803400B4393602268D36A0F218B43D7
:10B93C00616A0B43D36222689E4B9A420ED09E4B97
:10B94C009A4248D09D4B9A4200D17BE09C4B9A4244
:10B95C007AD0964B9A424FD010230BE0994B596DED
:10B96C0003230B40022B5FD031D8002B5ED0012B70
:10B97C005ED103338D498A4270D0E0698022120275
:10B98C00904200D1B4E0042B00D1FDE000D9E5E0F9
:10B99C00002B00D1F1E0022B00D0DDE08A48636A75
:10B9AC005B008A4A995AFAF7B9FB63685B08C018BE
:10B9BC006168FAF7B3FB0200103A854B9A4200D942
:10B9CC00EDE023680004000CD8600020CCE0032BD1
:10B9DC0030D10533CEE77B4B596D0C230B40082B34
:10B9EC002AD005D8002B29D0042BC3D01023C1E7B3
:10B9FC000C2B25D1043BBDE7724B5B6DC0210901BB
:10BA0C000B40802109018B4220D007D8002B1FD07E
:10BA1C008021C9008B421DD10423ABE7C021090151
:10BA2C008B4219D10823A5E70223A3E70023A1E742
:10BA3C0010239FE710239DE702239BE7002399E740
:10BA4C00102397E7002395E7002393E7022391E760
:10BA5C0000238FE710238DE710238BE7042B43D0B3
:10BA6C0034D8002B39D0022B2ED1574D636A5B0092
:10BA7C00564A9F5A39002800FAF750FB6668730043
:10BA8C009B19834200D982E03303834200D280E0C9
:10BA9C003A00002328000021FAF72EFD050E0B02B8
:10BAAC002B430202700800218018594132000023F8
:10BABC00FAF722FD474BC218474B9A4200D96AE06D
:10BACC002368D86000204FE001204DE0082B02D104
