:020000040800F2
:106000000090002039C90008B16A0008C16A000880
:106010000000000000000000000000000000000080
:10602000000000000000000000000000D16A00082D
:106030000000000000000000D36A0008D56A0008D4
:1060400089C9000889C9000889C9000889C90008E8
:1060500089C9000889C9000829BD000841BD000898
:1060600089C9000855BD000889C9000889C9000808
:1060700089C9000871BD000889C9000889C90008DC
:1060800089C9000889C9000889C9000889C90008A8
:1060900089C9000889C9000889C9000889C9000898
:1060A00089C9000889C9000889C9000889C9000888
:0C60B00089C9000889C9000889C90008D6
:1060BC000023C25C0133002AFBD1581E704700003C
:1060CC0003B47146490840004900095E49008E44FA
:1060DC0003BC7047002243088B4274D303098B42E4
:1060EC005FD3030A8B4244D3030B8B4228D3030C9C
:1060FC008B420DD3FF22090212BA030C8B4202D33E
:10610C001212090265D0030B8B4219D300E0090A65
:10611C00C30B8B4201D3CB03C01A5241830B8B426E
:10612C0001D38B03C01A5241430B8B4201D34B0357
:10613C00C01A5241030B8B4201D30B03C01A5241BC
:10614C00C30A8B4201D3CB02C01A5241830A8B4241
:10615C0001D38B02C01A5241430A8B4201D34B022A
:10616C00C01A5241030A8B4201D30B02C01A52418E
:10617C00CDD2C3098B4201D3CB01C01A5241830942
:10618C008B4201D38B01C01A524143098B4201D37C
:10619C004B01C01A524103098B4201D30B01C01AA7
:1061AC005241C3088B4201D3CB00C01A5241830821
:1061BC008B4201D38B00C01A524143088B4201D34E
:1061CC004B00C01A5241411A00D2014652411046AE
:1061DC007047FFE701B5002000F0F0F802BDC046A3
:1061EC000029F7D076E7704703460B437FD4002293
:1061FC0043088B4274D303098B425FD3030A8B424F
:10620C0044D3030B8B4228D3030C8B420DD3FF22B8
:10621C00090212BA030C8B4202D31212090265D086
:10622C00030B8B4219D300E0090AC30B8B4201D339
:10623C00CB03C01A5241830B8B4201D38B03C01A80
:10624C005241430B8B4201D34B03C01A5241030BF7
:10625C008B4201D30B03C01A5241C30A8B4201D3A8
:10626C00CB02C01A5241830A8B4201D38B02C01A53
:10627C005241430A8B4201D34B02C01A5241030ACA
:10628C008B4201D30B02C01A5241CDD2C3098B42AF
:10629C0001D3CB01C01A524183098B4201D38B012C
:1062AC00C01A524143098B4201D34B01C01A5241CF
:1062BC0003098B4201D30B01C01A5241C3088B4214
:1062CC0001D3CB00C01A524183088B4201D38B00FF
:1062DC00C01A524143088B4201D34B00C01A5241A1
:1062EC00411A00D201465241104670475DE0CA0F78
:1062FC0000D04942031000D34042534000229C4638
:10630C0003098B422DD3030A8B4212D3FC22890141
:10631C0012BA030A8B420CD3890192118B4208D317
:10632C00890192118B4204D389013AD0921100E079
:10633C008909C3098B4201D3CB01C01A524183098D
:10634C008B4201D38B01C01A524143098B4201D3BA
:10635C004B01C01A524103098B4201D30B01C01AE5
:10636C005241C3088B4201D3CB00C01A524183085F
:10637C008B4201D38B00C01A5241D9D243088B42B5
:10638C0001D34B00C01A5241411A00D20146634658
:10639C0052415B10104601D34042002B00D54942BC
:1063AC00704763465B1000D3404201B5002000F0FB
:1063BC0005F802BD0029F8D016E770477047C046B3
:1063CC008446100062468C461900634600E0C046C5
:1063DC001FB509F043FC002801D40021C8421FBDA1
:1063EC0010B509F085FB4042013010BD10B509F025
:1063FC0035FC002801DB002010BD012010BDC0467B
:10640C0010B509F02BFC002801DD002010BD012087
:10641C0010BDC04610B509F0B1FB002801DC00200E
:10642C0010BD012010BDC04610B509F0A7FB002817
:10643C0001DA002010BD012010BDC04684460800C2
:10644C006146FFE71FB508F0A7FA002801D4002128
:10645C00C8421FBD10B508F02FFA4042013010BDE4
:10646C0010B508F099FA002801DB002010BD0120BE
:10647C0010BDC04610B508F08FFA002801DD0020D1
:10648C0010BD012010BDC04610B508F03DFA002823
:10649C0001DC002010BD012010BDC04610B508F075
:1064AC0033FA002801DA002010BD012010BDC046CF
:1064BC00002B11D1002A0FD1002900D1002802D0C5
:1064CC000021C943080007B4024802A140180290F9
:1064DC0003BDC046E9FEFFFF03B4684601B5029850
:1064EC0007F0FAFD019B9E4602B00CBC7047C046FB
:1064FC001C2101231B04984201D3000C10391B0AE8
:10650C00984201D3000A08391B09984201D30009AB
:10651C00043902A2105C40187047C0460403020202
:10652C0001010101000000000000000010B500296D
:10653C0003D1FFF7DDFF203002E00800FFF7D8FFA2
:10654C0010BDC0460448054B10B5834203D0044B24
:10655C00002B00D0984710BD900100209001002026
:10656C000000000006480749091A8B10C90FC9180A
:10657C0010B5491003D0044B002B00D0984710BD28
:10658C0090010020900100200000000010B5074C85
:10659C002378002B09D1FFF7D5FF054B002B02D038
:1065AC00044800E000BF0123237010BD90010020BF
:1065BC0000000000A8FE0008054B10B5002B03D00E
:1065CC000449054800E000BFFFF7CCFF10BDC046F2
:1065DC000000000094010020A8FE000882B0054ACB
:1065EC00916B012319439163926B13400193019BAF
:1065FC0002B0704700100240F0B5DE4657464E46DA
:10660C004546E0B58BB005AC14220021200006F005
:10661C00B7FC4A4B596B202211435963596B0A4002
:10662C000192019A5A6B012632435A635A6B3240DB
:10663C000292029A5A6B022188460A435A635A6B99
:10664C000A400392039A5A6B06318A460A435A63EC
:10665C005B6B0B400493049BA023DB059B46002241
:10666C007831180001F082FB354F00223549380093
:10667C0001F07CFB802101220902584601F076FBD7
:10668C00314B994600220621180001F06FFB0423C0
:10669C000593434663600025A560E66025612100F3
:1066AC002A4801F0A9FA2A4B05936660A560434677
:1066BC00E3602100584601F09FFA224B0593666077
:1066CC00A560E5602100380001F096FA80231B01DB
:1066DC0005936560A6602100380001F08DFA8023D7
:1066EC005B01059384239B0398466360A66021009D
:1066FC00380001F081FA8023DB0105936560A56009
:10670C002100380001F078FA062305936660A56035
:10671C00E5602100484601F06FFA53460593434665
:10672C006360A6602100484601F066FA0BB0F0BC2D
:10673C00BB46B246A946A046F0BDC046001002407A
:10674C000004005007240000000C005000140050FE
:10675C008080000072B6FEE700B58BB024220021C9
:10676C0001A806F00DFC0D480D4B036000F04AFB30
:10677C0000280ED101A9002301934B608B60CB60E4
:10678C000B610648102200F0A1FB002803D10BB0CE
:10679C0000BDFFF7DFFFFFF7DDFFC0469C040020C4
:1067AC000074004010B51048104B036082235B004E
:1067BC00436000238360E022D200C2600361436126
:1067CC00802292008261F93AFF3AC261036243620D
:1067DC0083620721C1620363426301F061FC0028FC
:1067EC0000D110BDFFF7B6FF380400200030014087
:1067FC0010B51748174B0360174B43600023836099
:10680C00C36003610C2242618361C3610362436212
:10681C00836202F0ADFC002811D10D48002102F07A
:10682C002FFD00280DD10A48002102F04FFD002851
:10683C0009D1074802F002FD002806D110BDFFF770
:10684C0089FFFFF787FFFFF785FFFFF783FFC04640
:10685C00080200200038014080841E0000B589B079
:10686C001022002104A806F08BFB0C22002101A8A9
:10687C0006F086FB1548164B03603F23436000234C
:10688C008360C722C26003614361836101F04CFEE7
:10689C00002814D180235B0104930C4804A901F057
:1068AC0093FF00280DD101A9002301934B608B604D
:1068BC00064802F049F9002805D109B000BDFFF7E0
:1068CC0049FFFFF747FFFFF745FFC04634030020A1
:1068DC00002C014000B589B01422002103A806F059
:1068EC004FFB0C220021684606F04AFB154880231A
:1068FC00DB05036000234360836001225242C260C7
:10690C000361836101F010FE002814D103A9072351
:10691C00039319334B600B4802F03CF800280CD160
:10692C006946002300930293064802F00DF90028F3
:10693C0005D109B000BDFFF70DFFFFF70BFFFFF707
:10694C0009FFC046E802002000B58BB00C220021E4
:10695C0007A806F015FB1C220021684606F010FB68
:10696C0019481A4B03600323436000238360184AC1
:10697C00C26003618033836101F006FE00281CD1E4
:10698C0007A94023079340338B600F4802F0DCF8D3
:10699C00002814D1694660230093503B01930023D7
:1069AC00029304930848002201F060FE002808D1ED
:1069BC00054800F09FF90BB000BDFFF7CBFEFFF7C9
:1069CC00C9FEFFF7C7FEC0469C0200200004004031
:1069DC00FFFF000010B592B004AC3822002120005B
:1069EC0006F0CEFA10220021684606F0C9FA802083
:1069FC00800001F049FA0123049380235B02059384
:106A0C0002230B9301330C9300230D9310330E933D
:106A1C0080239B020F93A0231B0510938023DB057F
:106A2C001193200000F0F6FA00281BD168460723CA
:106A3C000093053B0193002302930393022100F082
:106A4C00D7FD002810D1094AD16880235B050B4380
:106A5C00D3608022A0219205C904054800F036FDC0
:106A6C0012B010BDFFF776FEFFF774FE0010024067
:106A7C000400050010B501F0BDFAFFF7ABFFFFF7FE
:106A8C00BBFDFFF7ABFDFFF767FEFFF78BFEFFF7D4
:106A9C00AFFEFFF7E3FEFFF71DFFFFF755FF05F015
:106AAC009BF8FEE710B5024806F000F9FEE7C04679
:106ABC0018FF000810B5024806F0F8F8FEE7C046CB
:106ACC0024FF00087047704710B501F0A7FA10BDFD
:106ADC0000B583B0144B196C012211431964196C65
:106AEC000A400092009ADA6B802149050A43DA6366
:106AFC00DB6B0B400193019B0520002202214042DD
:106B0C0001F038FA022000220221404201F032FA50
:106B1C0001F0B2FA022001F0A5FAC020C00001F089
:106B2C00B3FA03B000BDC0460010024010B588B0E7
:106B3C0004001422002103A806F022FA2268104B4C
:106B4C009A4201D008B010BD0E4BDA6B802189053A
:106B5C000A43DA63DA6B0A400192019A596B0122FB
:106B6C00114359635B6B1A400292029B03A92023C9
:106B7C0003931D3B4B60A020C00501F03DF8E1E7FD
:106B8C00007400400010024030B589B0040014229B
:106B9C00002103A806F0F4F92268294B9A4201D08F
:106BAC0009B030BD274B1A6C80256D012A431A643D
:106BBC001A6C2A400192019A596B022211435963B3
:106BCC005B6B13400293029B03A9382303934A6027
:106BDC00CA601D4801F010F81C481D4B03601023BF
:106BEC00436000238360C360802202614361836140
:106BFC00C361056201F0F0F800281BD1134BA365AB
:106C0C009C621448144B036011234360013B836066
:106C1C000023C3608022026143618361C3618023CE
:106C2C005B01036201F0D8F8002806D1094B6365BB
:106C3C009C62B5E7FFF78EFDE0E7FFF78BFDF5E70C
:106C4C00003001400010024000040050DC03002022
:106C5C0008000240800300201C00024010B590B0D8
:106C6C0004003422002103A806F08AF92368144A90
:106C7C00934205D08022D205934217D010B010BD9C
:106C8C0080239B03039303A800F092FD00280AD1F4
:106C9C000C4B1A6C802109010A431A641B6C0B40C3
:106CAC000193019BEAE7FFF755FDF1E7054AD16B2C
:106CBC0001231943D163D26B13400293029BDDE78E
:106CCC00002C01400010024082B00268074B9A422F
:106CDC0001D002B07047064AD16B02231943D1632D
:106CEC00D26B13400193019BF3E7C04600040040B4
:106CFC000010024010B586B004001422002101A837
:106D0C0006F03EF922680D4B9A4201D006B010BD38
:106D1C000B4A516B012319435163526B1A40009279
:106D2C00009A01A9402201923E3A4A60CA600B6166
:106D3C00A020C00500F060FFE8E7C046000400405A
:106D4C000010024010B594B00400142200210FA8CA
:106D5C0006F016F93422002102A806F011F9226877
:106D6C00244B9A4201D014B010BD0123029302A807
:106D7C0000F01EFD002836D11F4B1A6C8021C90172
:106D8C000A431A641A6C0A400092009A596B012249
:106D9C00114359635B6B13400193019B0FA9802333
:106DAC009B000F93FF3BFF3B4B608A60CA600A61FC
:106DBC00A020C00500F020FF1048114B03603323C6
:106DCC004360233B83600023C360802202614361E4
:106DDC008361C361036200F0FFFF002806D1074BFB
:106DEC00E3679C62BFE7FFF7B5FCC5E7FFF7B2FCB2
:106DFC00F5E7C0460038014000100240AC0100200D
:106E0C004400024010B5041E0ED00379002B07D0AD
:106E1C00022323710023236101332371002010BD51
:106E2C004371FFF783FEF3E70120F8E730B5002844
:106E3C002ED04379012B2DD00123437102220271F4
:106E4C0005682C680E320A40934023432B600029BE
:106E5C0010D1026811683E230B40022B05D0012390
:106E6C00037100234371002030BD536801210B4393
:106E7C005360F4E704682168F8239B03194002234C
:106E8C0093409942EBD16368022213436360E6E7B7
:106E9C000120E9E70220E7E710B582B00024019455
:106EAC00002811D000680190002908D101998A1896
:106EBC0008320192019A1360002002B010BD0199B2
:106ECC008A1814320192F5E70120F6E7F8B50400B0
:106EDC000D001600002800D192E0002900D191E0AD
:106EEC004379012B00D18FE00123437101330371EE
:106EFC000B68042B2ED02B69012B00D174E0206879
:106F0C00C16B102232400723934099432B68AE6823
:106F1C003343EE68334393400B43C36320680368E9
:106F2C008021C90191408B43036020680168374B75
:106F3C00934099436B6893400B430360206803684C
:106F4C00C02191408B4303600123237100236371A3
:106F5C000020F8BD01F06EF80700002E14D0236855
:106F6C005A6B002A3DDA01F065F8C01B0128F6D9EE
:106F7C0023685B6B002BF2DA23690822134323612D
:106F8C00032323710320E4E72268536B1B0410D501
:106F9C0001F050F8C01B0128F6D923685B6B1B0469
:106FAC00F2D52369082213432361032323710320A1
:106FBC00CFE7AB6913642068826C1023334014490B
:106FCC0099408A43E96999400A4382642068C26CFB
:106FDC00FF2199408A43296A99400B001343C364EB
:106FEC0089E7AA695A64E6E72068816B102232406F
:106FFC001E33934099436B6993400B4383637EE745
:10700C000120A6E70120A4E70220A2E7FE0F000062
:10701C00FF03000070B582B0041E00D131E203689A
:10702C00DB0739D5C14A916838230B40D16803225C
:10703C000A40102B26D0082B26D0636880225202DF
:10704C0093427FD0A022D202934200D181E0B74B71
:10705C001A68B7490A401A601A68B6490A401A6099
:10706C006368002B00D180E000F0E4FF0500AF4B1B
:10707C001B689B0310D400F0DDFF401B6428F6D97D
:10708C000320FFE1032AD6D1A84B1B689B0303D531
:10709C006368002B00D1F7E123689B0731D5A34A25
:1070AC00916838230B40D16803220A40102B6AD018
:1070BC00002B6BD19D4A1268520503D5E268002A59
:1070CC0000D1E3E1994842689B490A406169090291
:1070DC000A434260002B0DD1036898490B4021698B
:1070EC000B4303600368DB0A07221A40944BD3401E
:1070FC00944A1360944B186800F050FF002800D09D
:10710C00C6E123681B0700D481E0884B9A683823BA
:10711C001340182B73D0A369002B00D1B4E0834A21
:10712C00136E01210B43136600F084FF05007F4BA7
:10713C001B6E9B076BD400F07DFF401B0228F6D919
:10714C0003209FE1794A116880235B020B43136093
:10715C0086E7764B19688022D2020A431A601968B6
:10716C00802252020A431A607AE700F063FF05009E
:10717C006E4B1B689B038FD500F05CFF401B642893
:10718C00F6D903207EE1022A92D193E7E368002B23
:10719C0022D0664A136869490B4021690B4313607E
:1071AC00116880235B000B43136000F043FF050064
:1071BC005E4B1B685B0506D400F03CFF401B0228AD
:1071CC00F6D903205EE159494B685B4A134062696A
:1071DC00120213434B6094E7544A13685B490B400B
:1071EC00136000F027FF0500504B1B685B0588D52A
:1071FC0000F020FF401B0228F6D9032042E14B4B44
:10720C001B6E9B0703D5A369002B00D142E12368B9
:10721C005B0700D4A2E0454B9A6838231340202B1F
:10722C0045D0424BDB6BDB004AD4404BDA6B802100
:10723C0049050A43DA63DB6B0B400193019B012583
:10724C00434B1B68DB053DD5A368012B4ED0052BAA
:10725C0052D0364BDA6D01218A43DA65DA6D03318F
:10726C008A43DA65A368002B50D000F0E3FE0600D9
:10727C002E4BDB6D9B076FD400F0DCFE801B354B77
:10728C009842F5D90320FDE0284A136E01218B4367
:10729C00136600F0CFFE0500244B1B6E9B07B6D582
:1072AC0000F0C8FE401B0228F6D90320EAE01F4B71
:1072BC00DB6D9B0752D5A368002B4FD10120E1E079
:1072CC000025BDE7224A116880235B000B43136045
:1072DC0000F0B0FE06001E4B1B68DB05B4D400F0BA
:1072EC00A9FE801B0228F6D90320CBE00F4AD36DF0
:1072FC0001210B43D365B5E70C4BDA6D04210A432E
:10730C00DA65DA6D03390A43DA65ABE700F092FE11
:10731C000600064BDB6D9B071ED500F08BFE801B19
:10732C000C4B9842F5D90320ACE0C046001002404B
:10733C00FFFFFEFFFFFFFBFFFF80FFFFFFC7FFFF0D
:10734C000024F4000800002004000020FFFEFFFFD2
:10735C000070004088130000012D1ED0E369002B43
:10736C0000D199E0544A916838220A40102A60D022
:10737C00022B18D0504A136850490B40136000F090
:10738C0059FE04004C4B1B689B014BD500F052FE80
:10739C00001B0228F6D9032074E0474AD36B4849F6
:1073AC000B40D363DAE7444A136844490B4013603B
:1073BC0000F040FE0500404B1B689B0106D500F019
:1073CC0039FE401B0228F6D903205BE03A4AD36809
:1073DC003C491940236A606A0343A06A00020343D4
:1073EC00E06A0343206B0343606B03430B43D3609E
:1073FC00116880235B040B431360D16880235B0509
:10740C000B43D36000F016FE04002B4B1B689B0152
:10741C0006D400F00FFE001B0228F6D9032031E041
:10742C0000202FE0244AD36827490B40D36000206A
:10743C0028E0012B32D0204BDA6803231340216A59
:10744C008B422DD170231340616A8B422AD1FE21CD
:10745C00C9011140A36A1B02994225D1F8239B0351
:10746C001340E16A8B4221D1E0231B051340216BB1
:10747C008B421DD1520F5207636B9A421AD10020D6
:10748C0000E0012002B070BD0120FBE70120F9E70C
:10749C000120F7E70120F5E70020F3E70120F1E7F1
:1074AC000120EFE70120EDE70120EBE70120E9E700
:1074BC000120E7E70120E5E700100240FFFFFFFE97
:1074CC00FFFFFFEF8C80C111FCFFFEEEF0B589B021
:1074DC0003000091019203A902224A600132CA60A2
:1074EC0000228A60802676050640000C0F3202408E
:1074FC00A0204003101880020D4D6F6B01249440A6
:10750C0022003A436A631A04120C03921B0DFF22E9
:10751C0013400B6100F070FB002E07D1AB680549DE
:10752C000B40009C01990C431C43AC6009B0F0BDAE
:10753C0000100240FFFFFF8810B52A4B9B683822D1
:10754C001A4207D1274B1A68D20A07231340264840
:10755C00D84010BD234B9A6838231340082B3BD0DE
:10756C00204B9A6838231340102B0DD01D4B9A6872
:10757C0038231340202B31D01A4B9A6838231340F0
:10758C00182B26D00020E4E7164AD1680D3B0B409F
:10759C00D2681209072111400131032B0FD0124878
:1075AC00FEF798FD0F4BDA68120A7F2313405843FD
:1075BC000C4BD968490F0131FEF78CFDC9E70B481C
:1075CC00FEF788FD074BDA68120A7F2313405843F5
:1075DC00EEE7FA20C001BCE70448BAE780200002BD
:1075EC00B7E7C046001002400024F400001BB700AF
:1075FC0070B504000D00002800D1AAE0574B1A68A2
:10760C00072313408B4221D323689A070ED55B07BF
:10761C0005D5534A9168E023DB010B439360504A34
:10762C00936850490B40A1680B4393602368DB07B8
:10763C0054D56368012B20D0022B3BD0002B3FD1BB
:10764C00474A126852051CD401206AE0434A136869
:10765C0007218B432B43136000F0ECFC06003F4BDF
:10766C001A6807231340AB42CED000F0E3FC801B1A
:10767C003D4A9042F3D9032053E0394A12689203F1
:10768C0069D537498A680720824313438B6000F021
:10769C00D1FC0600324B9B6838221A406368DB0031
:1076AC009A421BD000F0C6FC801B2F4B9842F1D99C
:1076BC00032036E02A4A12689201E2D4012030E01D
:1076CC00032B05D0264AD26D9207DAD4012028E08C
:1076DC00234A126E9207D4D4012022E01F4B1A6861
:1076EC0007231340AB421DD823685B0706D51C4A01
:1076FC0093681E490B40E1680B439360FFF71CFF36
:10770C00174B9A68120A0F231340194A9B009A5878
:10771C001F231340D840174B1860174B186800F004
:10772C003DFC70BD0D4A136807218B432B4313603E
:10773C0000F080FC0600094B1A6807231340AB428B
:10774C00D2D000F077FC801B074B9842F3D9032072
:10775C00E7E70120E5E70120E3E7C046002002400F
:10776C0000100240FFF0FFFF88130000FF8FFFFFA7
:10777C00D81501080800002004000020014B1868EF
:10778C007047C0460800002010B5FFF7F7FF064B06
:10779C009A68120B07231340044A9B009A581F2324
:1077AC001340D84010BDC04600100240B815010867
:1077BC00F0B583B0040003689B0362D5814BDB6B8F
:1077CC00DB001ED47F4BDA6B802149050A43DA6358
:1077DC00DB6B0B400193019B01267B4A11688023D4
:1077EC005B000B43136000F025FC0500764B1B6817
:1077FC00DB0508D400F01EFC401B0228F6D903253B
:10780C0002E00026E9E70025002D23D16D4BD96D50
:10781C00C02292000B001340114212D0226B9A42EC
:10782C000DD0684AD36D69490B40D06D8021490257
:10783C000143D165D16D66480140D165D365DB0745
:10784C0010D4002D06D15F4AD36D60490B40216BDB
:10785C000B43D365012E15D15A4AD36B5D490B40AE
:10786C00D3630FE000F0E6FB0700564BDB6D9B0784
:10787C00E7D400F0DFFBC01B574B9842F5D903252A
:10788C00DFE700252368DB0706D54E4A536D03213D
:10789C008B4361680B43536523689B0706D5494AA4
:1078AC00536D0C218B43A1680B4353652368DB0696
:1078BC0006D5444A536D49490B40E1680B43536567
:1078CC0023689B0506D53F4A536D45490B40A1697A
:1078DC000B43536523685B0506D53A4A536D414902
:1078EC000B40E1690B43536523689B0606D5354A6B
:1078FC00536D3D490B4021690B43536523685B0471
:10790C000BD5304A536D9B009B08216A0B43536582
:10791C00226A8023DB059A4239D023681B0306D5E3
:10792C00284A536D40218B43616A0B43536523688E
:10793C009B020BD5234A536D2C490B40A16A0B4378
:10794C005365A26A8023DB039A4227D023685B022B
:10795C000BD51C4A536D26490B40E16A0B4353650A
:10796C00E26A80235B049A421FD023681B050BD567
:10797C00144A536D1F490B4061690B43536562698F
:10798C008023DB019A4215D0280003B0F0BD0D4ACC
:10799C00D16880235B020B43D360BEE7094AD168F0
:1079AC0080235B040B43D360D0E7064AD1680B43BA
:1079BC00D360DAE7034AD16880235B020B43D360C0
:1079CC00E2E7C0460010024000700040FFFCFFFFE1
:1079DC00FFFFFEFFFFFFFFEF88130000FFF3FFFF29
:1079EC00FFFFF3FFFFFFCFFFFFCFFFFFFFFFBFFF47
:1079FC00FFFFFFFEFF3FFFFF30B5054C616901251E
:107A0C00294361610260BFF36F8F436030BDC04694
:107A1C0000200240084B5B69002B01DB0020704703
:107A2C00054B064A9A60064A9A605B69002B01DB9B
:107A3C000020F4E70120F2E7002002402301674513
:107A4C00AB89EFCD70B5040000F0F4FA0500144BCF
:107A5C001B69DB0308D5631CF9D000F0EBFA401B63
:107A6C00A042F4D303201AE00D490A690D4B16000D
:107A7C001E400D4808611A420CD1094B1B695B036F
:107A8C000CD5631CF9D000F0D5FA401BA042F4D3FE
:107A9C00032004E0054B5E60012000E0002070BD77
:107AAC0000200240FAC30000FBC30000B004002019
:107ABC00F8B507000C0015001E00144B1B78012BA9
:107ACC0022D0124B01221A7000225A60FA20800038
:107ADC00FFF7B8FF00280DD1012F0FD0290020008F
:107AEC0008F0E8F9FA208000FFF7ACFF084A536968
:107AFC00BB435361054B00221A70F8BD2A003300BA
:107B0C002000FFF779FFEDE70220F6E7B004002034
:107B1C000020024010B5FA208000FFF793FF064BBF
:107B2C005969802212060A435A615B69002B01DBFA
:107B3C00012010BD0020FCE700200240034A5369DD
:107B4C0003438020400218435061704700200240DC
:107B5C00044A536904480340C9001943034B0B43BF
:107B6C00536170470020024007E0FFFF0200010054
:107B7C0070B504000E001E4B1B78012B36D01C4B2D
:107B8C0001221A7000225A60FA208000FFF75AFF77
:107B9C00002827D1042363602368042B14D001230D
:107BAC005B423360A568A368E2689B18AB4214D9AA
:107BBC0060682900FFF7CCFFFA208000FFF742FF36
:107BCC00002809D10135EEE70430FFF7B7FFFA20A2
:107BDC008000FFF737FF05E03560064A5369022144
:107BEC008B435361024B00221A7070BD0220FCE7DC
:107BFC00B004002000200240F0B5002359E0866854
:107C0C005F000324BC40A643CC68BC403443846072
:107C1C00446894434E683609012232409A4022430C
:107C2C00426056E0DE080836B600375805321A4076
:107C3C0092000F249440A7430C69944022003A43CD
:107C4C00325059E0032600E00026A64034003C43A5
:107C5C00424E1832920094513768EA433E00AE43CC
:107C6C004C68E40201D53E002E433C4C266067680C
:107C7C003E0016404C68A40201D53E002E43374C02
:107C8C0066608426A7593E0016404C68A40301D5B3
:107C9C003E002E43314C8427E6518026A6593240B3
:107CAC004C68E40301D52A0032432C4D80242A5120
:107CBC0001330C682200DA404ED001229A40250094
:107CCC0015401442F4D04E6803243440013C012C7E
:107CDC0095D94C6803222240032A08D0C4685E0060
:107CEC000322B24094438A68B2402243C2604C687B
:107CFC0003222240022A95D004685E00032217005A
:107D0C00B740BC434F683A40B240224302604C68D3
:107D1C00C02292021442CBD09A0814001834A4004A
:107D2C000E4EA75903241C40E4000F26A640B7436F
:107D3C00A026F605B04287D0094EB04208D0094EB5
:107D4C00B04207D0084EB04200D17BE705267CE755
:107D5C0001267AE7022678E7F0BDC04600180240FB
:107D6C000004005000080050000C0050002A01D004
:107D7C00816170478162FCE710B50400036C9B08BD
:107D8C00094A944663449B0043640368FF201840EF
:107D9C0008381421FEF79EF9044BA3641F231840E6
:107DAC001E3B8340E36410BD00820010800802403B
:107DBC0042683F231340064A9A1892000265054A0E
:107DCC004265013B03221A400123934083657047AF
:107DDC003F8200104009024070B5041E4DD005686A
:107DEC00274BE8181421FEF775F980002064252331
:107DFC000222E2542B68234A13402B6021680A6844
:107E0C00A368E06803432069034360690343A069E6
:107E1C000343E0690343206A034313430B602000D0
:107E2C00FFF7AAFFA2688023DB019A4218D0616891
:107E3C00626C3F230B401360A36CE26C5A60636866
:107E4C00013B032B0FD9002323656365A365002336
:107E5C00E36325220121A154013AA354002070BDF3
:107E6C0000236360E3E72000FFF7A2FF236D0022ED
:107E7C001A60636DA26D5A60E9E70120EFE7C04616
:107E8C00F8FFFDBF0F80FFFF10B5104A13681049B3
:107E9C000B400343136080239B00984201D00020C9
:107EAC0010BD0C4B1B685800C01840000A49FEF767
:107EBC0011F90130054B5B695B0503D5002803D034
:107ECC000138F7E70020EBE70320E9E700700040FA
:107EDC00FFF9FFFF0800002040420F0070B500289A
:107EEC0011DB8308134DC0339B005C5903221040F7
:107EFC00C000FC3216008640B44389010A4082401F
:107F0C0022435A5170BD0F230340083B9B08063394
:107F1C009B00094A944663445C6803221040C000ED
:107F2C00FC3215008540AC4389010A408240224353
:107F3C005A60E7E700E100E000ED00E00138802343
:107F4C005B0498420FD2094A50600948036A1B022D
:107F5C001B0AC02109060B430362002393600733FD
:107F6C001360002070470120FCE7C04610E000E0E1
:107F7C0000ED00E010B5FFF7B1FF10BD002805DBE8
:107F8C001F22024001239340014A13607047C046F0
:107F9C0000E100E010B5FFF7D1FF10BD10B50400F3
:107FAC00114B1978002901D1012010BDFA20800055
:107FBC00FEF790F801000D4B1868FEF78BF8FFF7F1
:107FCC00E9FF00280DD1032C01D90120EDE7013088
:107FDC00002221004042FFF7CDFF054B1C60002022
:107FEC00E3E70120E1E7C046000000200800002084
:107FFC000400002010B5084A116880235B000B4375
:10800C0013600220FFF7CAFF041E02D001242000D7
:10801C0010BDFEF75DFDFAE700200240034B1B7814
:10802C00034A11685B1813607047C04600000020BB
:10803C00CC040020014B18687047C046CC040020CB
:10804C0070B50400FFF7F6FF0500631C02D0044B6B
:10805C001B78E418FFF7EEFF401BA042FAD370BD6B
:10806C0000000020034A136802218B430343136072
:10807C007047C04630000140024A136801218B430F
:10808C001360704730000140034A136803490B40EA
:10809C00034313607047C04600000140FFF9FFFF27
:1080AC0070B5041E00D178E0436A002B07D14268FA
:1080BC000533FF339A4205D00023C36102E000234D
:1080CC00036143610023A3625D33E35C002B5AD050
:1080DC005D230222E2542268136840218B43136013
:1080EC00E368E022D200934254D90022F021090126
:1080FC008B4205D0E021C9008B4201D00023A36242
:10810C006368822149000B40A16884200002014071
:10811C000B432069022101400B4360690121084097
:10812C000343A0698025AD0028400343E56938204E
:10813C0028400343256A802028400343A06A8025F9
:10814C00AD012840256803432B60608B042303405A
:10815C00656A102028400343656B082028400343C0
:10816C00E068F0252D012840034320681343436049
:10817C002268D3690A480340D361002323665D3328
:10818C00E154002070BD5C330022E2542000FEF765
:10819C00FBFC9DE780225201A8E70120F2E7C046D4
:1081AC00FFF7FFFF30B5056A036A012293430362B0
:1081BC0042688369194C23400C681C4302239D437D
:1081CC008B682B43164DA84208D0164DA84205D0FB
:1081DC00154DA84202D0154DA84206D10825AB4337
:1081EC001D00CB682B430425AB430D4DA84208D092
:1081FC000C4DA84205D00C4DA84202D00B4DA84204
:10820C0005D10B4D2A404D6915438A692A434260BA
:10821C0084614A684263036230BDC0468CFFFEFF36
:10822C00002C014000400140004401400048014046
:10823C00FFFCFFFF30B5046A036A184A134003625F
:10824C004268C369164D2B400D681D43154B1C40ED
:10825C008B681B022343144CA04209D0134CA04240
:10826C000DD0134CA0420AD0124CA0420FD106E004
:10827C00114C1C40CB681B022343104C2340104C68
:10828C0022404C69240114438A6912012243426042
:10829C00C5614A68C263036230BDC046FFFEFFFF82
:1082AC008CFFFEFFFFFDFFFF002C01400040014052
:1082BC000044014000480140FFF7FFFFFFFBFFFFB8
:1082CC00FFCFFFFF30B5046A036A134A1340036201
:1082DC004368C269114D2A400D682D021543104A9E
:1082EC0014408A68120322430E4CA04208D00E4C54
:1082FC00A04205D00D4CA04202D00D4CA04204D19E
:10830C000C4C1C404B699B0123434360C5614B687B
:10831C000364026230BDC046FFEFFFFFFF8CFFFE1F
:10832C00FFDFFFFF002C01400040014000440140F2
:10833C0000480140FFBFFFFF30B5046A036A124AD0
:10834C00134003624368426D104D2A400D6815437B
:10835C000F4A14408A68120422430E4CA04208D0E3
:10836C000D4CA04205D00D4CA04202D00C4CA042AA
:10837C0004D1054C1C404B691B02234343604565EB
:10838C004B688365026230BDFFFFFEFF8FFFFEFF6F
:10839C00FFFFFDFF002C0140004001400044014064
:1083AC000048014030B5046A036A134A1340036263
:1083BC004368426D114D2A400D682D021543104A39
:1083CC0014408A68120522430E4CA04208D00E4C71
:1083DC00A04205D00D4CA04202D00D4CA04204D1BD
:1083EC000C4C1C404B699B022343436045654B6816
:1083FC00C365026230BDC046FFFFEFFFFF8FFFFE7B
:10840C00FFFFDFFF002C0140004001400044014011
:10841C0000480140FFFFFBFF30B5036A046A0125E9
:10842C00AC4304628469EF35AC43120122430A2445
:10843C00A3430B438261036230BD000030B5036A75
:10844C00046A1025AC4304628469054D2C40120368
:10845C002243A024A343090119438261016230BD68
:10846C00FF0FFFFF8368034A13400B43072213439C
:10847C00836070478FFFCFFF0368244A904206D079
:10848C008022D205904202D0214A904203D1702220
:10849C0093434A6813431D4A904212D08022D2055E
:1084AC0090420ED01A4A90420BD01A4A904208D0F1
:1084BC00194A904205D0194A904202D0184A90426B
:1084CC0003D1184A1A40CB681343802293434A695C
:1084DC00134303608B68C3620B6883620B4B984237
:1084EC0008D00D4B984205D00C4B984202D00C4B47
:1084FC00984201D10B690363012343610269134262
:10850C0003D003690122934303617047002C01409F
:10851C0000040040002000400040014000440140A5
:10852C0000480140FFFCFFFF70B5041E2AD03D231C
:10853C00C35C002B20D03D2502236355210001C9CB
:10854C00FFF79AFF01234822A3540A3AA35401329D
:10855C00A3540132A3540132A3540132A354013267
:10856C00A3540132A3540132A3540132A354013257
:10857C00A3546355002070BD3C330022C254FEF757
:10858C006DFBD8E70120F6E770B5041E2AD03D2319
:10859C00C35C002B20D03D2502236355210001C96B
:1085AC00FFF76AFF01234822A3540A3AA35401326D
:1085BC00A3540132A3540132A3540132A354013207
:1085CC00A3540132A3540132A3540132A3540132F7
:1085DC00A3546355002070BD3C330022C254FEF7F7
:1085EC0073FBD8E70120F6E770B5026A036A102422
:1085FC00A343036244688369164D2B400D682D021A
:10860C001D4320239A438B681B011343124A90424B
:10861C0009D0124A90420ED0114A90420BD0114A06
:10862C00904210D107E0802293431E00CB681B01BF
:10863C003343403A93430C4A14404A699200224314
:10864C008C69A4001443446085614A6882630362A8
:10865C0070BDC046FF8CFFFE002C01400040014065
:10866C000044014000480140FFF3FFFF70B50400D7
:10867C000D003C23C35C012B00D192E03C23012173
:10868C00C154142A00D987E09200474B9B589F464F
:10869C0000682900FFF786FD2268936908210B43C7
:1086AC0093612268936904398B43936122689369BF
:1086BC0029690B43936100206FE000682900FFF7E4
:1086CC0093FF2268916980231B010B4393612268FD
:1086DC00936936490B40936121688B692A691202B0
:1086EC0013438B61002058E000682900FFF7A2FDBE
:1086FC002268D36908210B43D3612268D3690439FA
:10870C008B43D3612268D36929690B43D361002061
:10871C0043E000682900FFF7D5FD2268D16980236A
:10872C001B010B43D3612268D36920490B40D361F1
:10873C002168CB692A6912021343CB6100202CE01B
:10874C0000682900FFF7F8FD2268536D08210B43E0
:10875C0053652268536D04398B4353652268536DFE
:10876C0029690B435365002017E000682900FFF7C7
:10877C0019FE2268516D80231B010B43536522683F
:10878C00536D0A490B40536521684B6D2A691202DF
:10879C0013434B65002000E001203C230022E254EF
:1087AC0070BD0220FCE7C046B4140108FFFBFFFFBC
:1087BC0030B58468034D2C401B0213430B432343F9
:1087CC00836030BDFF00FFFF10B504000B003C229E
:1087DC00825C012A00D177E03C22012181540132D4
:1087EC000131815401688A68384802408A601968EE
:1087FC0060294FD023D8402957D011D8202904D034
:10880C000AD8002901D0102904D12068FFF72AFECC
:10881C0000202AE0012028E03029F6D0012024E0B5
:10882C0050290AD15968DA682068FFF7F5FD2068ED
:10883C005021FFF717FE002017E0012015E08022E1
:10884C00520191423CD080229201914214D0702965
:10885C0038D199685A68DB682068FFF7A9FF22684D
:10886C00936877210B43936000203D230122E2544F
:10887C00013B0022E25410BD99685A68DB682068FD
:10888C00FFF796FF226891688023DB010B4393600E
:10889C000020EAE75968DA682068FFF7CFFD206806
:1088AC006021FFF7DFFD0020DFE75968DA682068F8
:1088BC00FFF7B2FD20684021FFF7D4FD0020D4E77C
:1088CC000020D2E70120D0E70220D4E78800CEFFB9
:1088DC0070B50B000468A1682C4A11405A680A4311
:1088EC002B490A4019680A43A2605A68502A31D0B1
:1088FC000BD9602A35D0702A44D1D9689A681B6983
:10890C000068FFF755FF002070BD402A0DD02FD80E
:10891C00202A2FD005D8002A2ED0102A2ED10020A4
:10892C00F2E7302A2CD10020EEE71A68052A2BD06A
:10893C000268146A116A0125A943116201688A69E7
:10894C00EF35AA431B691B0113438B6103681C623F
:10895C000020D9E799681A690068FFF75DFD0020CF
:10896C00D2E799681A690068FFF768FD0020CBE729
:10897C000120C9E70020C7E70020C5E70120C3E7B5
:10898C000120C1E70120BFE70120BDE78FFFCFFF2A
:10899C00F8FFFEFF10B504003C23C35C012B22D072
:1089AC003C230122C25401330132C254FFF790FF21
:1089BC00002810D12268D36840218B43D3602268F1
:1089CC00D3680A490B40D3603D230122E254013B9A
:1089DC000022E25410BD3D230122E254013B00224F
:1089EC00E2540120F6E70220F4E7C046FFBFFFFF88
:1089FC0010B51F23194001248C40036AA343036262
:108A0C00036A8A401343036210BD000010B50400D2
:108A1C00102926D88B00444AD3589F463E23C35C6A
:108A2C00013B5A1E9341DBB221E03F23C35C013B67
:108A3C005A1E9341DBB21AE04023C35C013B5A1E21
:108A4C009341DBB213E04123C35C013B5A1E9341BB
:108A5C00DBB20CE04223C35C013B5A1E9341DBB2F8
:108A6C0005E04323E35C013B5A1E9341DBB2002B30
:108A7C0054D1102917D88B002C4AD3589F463E232B
:108A8C000222E25412E03F230222E2540EE0402381
:108A9C000222E2540AE041230222E25406E042237D
:108AAC000222E25402E043230222E2542068012213
:108ABC00FFF79EFF23681E4A934208D01D4A93423B
:108ACC0005D01D4A934202D01C4A934204D1596CE2
:108ADC00802212020A435A642368154A93420FD02B
:108AEC008022D20593420BD0154A934208D0114AEA
:108AFC00934205D01A6801210A431A6000200EE047
:108B0C009A6810490A40062A0AD007398A4209D0C5
:108B1C001A6801210A431A60002000E0012010BDF0
:108B2C000020FCE70020FAE7081501084C150108A5
:108B3C00002C01400040014000440140004801402D
:108B4C00000400400700010030B53C23C35C012B3E
:108B5C0030D03C230122C25401330132C25402688A
:108B6C0053689568144CA2421FD07024A3430C6820
:108B7C00234353600368104A934209D08022D205E4
:108B8C00934205D00D4A934202D00D4A934204D130
:108B9C00802295438A682A439A603D230122C2545D
:108BAC00013B0022C254002030BD064C23404C68CF
:108BBC002343DAE70220F7E7002C014000040040D1
:108BCC0000400140FFFF0FFF30B5EFF3108401228E
:108BDC0082F3108801680B68124D2B400B6084F3F4
:108BEC001088EFF3108182F31088026893680E4CA2
:108BFC002340936081F31088C36E012B06D08C2325
:108C0C002022C2500023C366436730BDEFF31081AE
:108C1C0083F31088026813681024A343136081F354
:108C2C001088ECE7DFFEFFFFFEFFFFEFF8B5040056
:108C3C0083680269134342691343C2691343016891
:108C4C000A68A848024013430B6022685368A6497F
:108C5C000B40E1680B435360A1692268A34B9A4215
:108C6C0001D0236A19439368A14803400B439360D6
:108C7C002268D36A0F218B43616A0B43D36223684A
:108C8C009C4A934222D09C4A934230D09B4A9342B6
:108C9C0064D09B4A934263D0944A934238D01022BA
:108CAC0092498B4266D0E06980231B02984200D126
:108CBC00A7E0042A00D1F9E000D9D6E0002A00D1BF
:108CCC00DAE0022A00D0CEE08E48D9E08E4A516D0F
:108CDC0003220A40022A33D005D8002A32D0012AB6
:108CEC0032D10332DCE7032A30D10532D8E7864A89
:108CFC00516D0C220A40082A2AD005D8002A29D006
:108D0C00042ACDD01022CBE70C2A25D1043AC7E790
:108D1C007D4A526DC02109010A40802109018A4215
:108D2C0020D007D8002A1FD08021C9008A421DD12B
:108D3C000422B5E7C02109018A4219D10822AFE704
:108D4C000222ADE70022ABE71022A9E71022A7E729
:108D5C000222A5E70022A3E71022A1E700229FE749
:108D6C0000229DE702229BE7002299E7102297E759
:108D7C00102295E7042A40D007D8002A0CD0022AEA
:108D8C0001D1604D0EE00120A2E0082A02D180251D
:108D9C002D0207E001209BE0FEF7F6FC0500002DFC
:108DAC0000D186E0626A594B5200D75A390028002C
:108DBC00FDF790F9666873009B1983427BD83303E7
:108DCC0083427AD33A00002328000021FDF770FB80
:108DDC00050E0B022B43020270080021801859412A
:108DEC0032000023FDF764FB494BC218494B9A42F1
:108DFC0065D82368D86000206AE0FEF79DFB05006B
:108E0C00CDE7042A2CD007D8002A09D0022A01D198
:108E1C003C4809E001205BE0082A05D0012057E01E
:108E2C00FEF7B2FC00284CD0626A384B5200D15A83
:108E3C00FDF750F9400061684B08C018FDF74AF97E
:108E4C000200103A344B9A423DD882B20F239A4317
:108E5C004008083B034013432268D360002037E0EE
:108E6C00FEF76AFBDEE7012032E0082A02D18020FF
:108E7C00000205E001202BE0FEF786FC002824D040
:108E8C00626A224B5200D15AFDF724F961684B08F3
:108E9C00C018FDF71FF90200103A1F4B9A4216D862
:108EAC0023680004000CD860002011E0FEF744FB9E
:108EBC00E4E700200CE001200AE0012008E001209A
:108ECC0006E0002004E0012002E0002000E0012088
:108EDC0001236A22A352023AA35200236367A367B9
:108EEC00F8BDC046F369FFCFFFCFFFFF0080004005
:108EFC00FFF4FF11003801400044004000480040DE
:108F0C00004C00400024F4000010024090150108B1
:108F1C0000FDFFFFFFFC0F00EFFF0000836A1B0743
:108F2C0006D5026853682C490B40816B0B43536088
:108F3C00836ADB0706D50268536828490B40C16A6F
:108F4C000B435360836A9B0706D502685368244918
:108F5C000B40016B0B435360836A5B0706D50268B9
:108F6C00536820490B40416B0B435360836ADB060B
:108F7C0006D5026893681C490B40C16B0B43936088
:108F8C00836A9B0606D50268936818490B40016CEE
:108F9C000B439360836A5B060BD5026853681449D4
:108FAC000B40416C0B435360426C80235B039A4231
:108FBC000AD0836A1B0606D5026853680D490B401C
:108FCC00C16C0B4353607047026853680A490B40ED
:108FDC00816C0B435360ECE7FF7FFFFFFFFFFDFF4E
:108FEC00FFFFFEFFFFFFFBFFFFEFFFFFFFDFFFFFBA
:108FFC00FFFFEFFFFFFFF7FFFFFF9FFFF8B5CE4628
:10900C00474680B506000D0017009946089B984608
:10901C003368DC692C40641B63425C41BC4233D135
:10902C0043460133F4D0FFF705F84B46C01A4045D0
:10903C002FD84346002B2ED0326813685B07E7D538
:10904C00802DE5D0402DE3D0D3691B0710D4D36914
:10905C001B05DDD580231B0113623000FFF7B4FD27
:10906C0090232022F2500C3B0022F25403200CE0FF
:10907C00082414623000FFF7A7FD9023F4500C3B3A
:10908C000022F254012000E00020C0BCB946B046DA
:10909C00F8BD0320F9E70320F7E7000030B583B0F3
:1090AC00040090230022C250FEF7C4FF0500236881
:1090BC001B681B0710D423681B685B072BD4202369
:1090CC008822A3500432A3500023E3662367083A96
:1090DC00A354002003B030BD8021234B0093030028
:1090EC00002289032000FFF789FF0028E3D0EFF36B
:1090FC001081012383F31088226813688020834336
:10910C00136081F3108888232022E250043B002254
:10911C00E2547D38DEE78021134B00932B000022B4
:10912C00C9032000FFF76AFF0028C8D0EFF31080B6
:10913C00012282F3108821680B680C4D2B400B60C8
:10914C0080F31088EFF3108082F3108821688B680D
:10915C0093438B6080F310888C231F32E250083BC2
:10916C000022E2540320B5E7FFFFFF01DFFEFFFF03
:10917C0010B5041E35D08823C358002B27D0882364
:10918C002422E2502268136801218B431360A36AE6
:10919C00002B22D12000FFF749FD012816D02268B0
:1091AC00536811490B4053602268936822218B430A
:1091BC009360226893681A390B4393602268136892
:1091CC0007390B4313602000FFF768FF10BD843391
:1091DC000022C254FDF7B6FDD1E72000FFF79EFE3A
:1091EC00D8E70120F2E7C046FFB7FFFFF8B504004F
:1091FC00436E002B05D101336A228352023A83520B
:10920C00F8BD026895686D0E07231D409268520FD9
:10921C001340084FF85CC000074EF15CFCF7E4FF0C
:10922C006A23E052785DC000715DFCF7DDFF6823B6
:10923C00E052E5E7B0150108A815010870B5040067
:10924C008423C35C012B19D084250120605588260A
:10925C002423A35122681368116881431160802272
:10926C00920513436266226813602000FFF7BEFF6D
:10927C002023A35100236355002070BD0220FCE77E
:10928C00F8B504000A008423C35C012B1BD0842591
:10929C000120605588262423A35123681F68196870
:1092AC008143196020688368DB00D9081143816011
:1092BC002000FFF79BFF23681F602023A35100238E
:1092CC0063550020F8BD0220FCE70000F8B504004F
:1092DC000B008422825C012A1BD08425012060555E
:1092EC0088262422A25122681768116881431160D4
:1092FC002268916808480140194391602000FFF7EB
:10930C0075FF23681F602023A351002363550020A1
:10931C00F8BD0220FCE7C046FFFFFFF1014B024AFB
:10932C009A60704700ED00E00060000810B5030083
:10933C000C4A0D49521A0D490968002907D00B49EE
:10934C000868C318934206D8084A136010BD074931
:10935C0007480860F3E703F07FFE0C23036001204D
:10936C004042F3E70090002000040000D0040020ED
:10937C00506500200120704710B503F06DFE1623D8
:10938C0003600120404210BD10B501214942FFF796
:10939C00F3FFFEE770B50C001600002504E000E0BA
:1093AC0000BF207001350134B542F8DB300070BDD0
:1093BC0001204042704780239B014B600020704786
:1093CC000120704700207047806800E0006800288A
:1093DC0002D003898B42F9D1704710B58369DB79D0
:1093EC005BB2002B02DB00F0A7F910BD00F0E2FA33
:1093FC00FBE770B505000C008969002909D04068AD
:10940C00EFF3108672B601F0FCF886F31088002397
:10941C00A3612868EFF3108572B6210001F0F1F812
:10942C0085F3108870BD70B504004568018928006B
:10943C00FFF7CAFF002806D128000830210001F0F0
:10944C00E0F8002070BD01204042FBE710B5837AA4
:10945C00102B07D0002B02D000F02DFA10BD00F01D
:10946C0039F9FBE701204042F8E7030014300A7C8D
:10947C00F02A08D08A721A7ECA725B7E0B730B714B
:10948C008B7C4B717047703AF4E70000F0B5C64620
:10949C0000B504000023984615E043460233DB0078
:1094AC00E3185F6825E02068EFF3108572B601F0D1
:1094BC0099F885F31088E0611EE0234801F002F969
:1094CC0001239C46E0444346002BE6DD80BCB846B5
:1094DC00F0BD0C30EFF3108672B6290001F091F854
:1094EC0086F3108803E029002000FFF782FF002399
:1094FC00E361E369002BD6D0E369002BDDD03B6838
:10950C0038009847061EDBD0E5692422002128008C
:10951C0003F036FDAE6143460233DB00E3181B7AE1
:10952C00AB712800FFF759FF0028DCD1A98A200075
:10953C00FFF74AFF002802D0037E002BC9D0290078
:10954C002000FFF756FFD2E738FF000870B50C007B
:10955C00FFF78BFF051E0DD02000FFF777FF061ECF
:10956C000AD128684368A16998470023A361E36185
:10957C00300070BD0426FBE70226F9E770B5050044
:10958C000C000B7C102B0BD0FFF7E0FF06008023A8
:10959C005B4203432372E379DB0721D5300070BDB6
:1095AC00898AFFF711FF061E02D0037E002B05D01F
:1095BC0021002800FFF71DFF0026EFE720000A30EE
:1095CC0021001031032203F07CFD30000C30EFF34E
:1095DC00108572B6210001F014F885F31088EBE7C2
:1095EC0021002800FFF705FFD8E710B50389CB81D0
:1095FC004068FFF7C3FF10BD10B54369002B08D0BE
:10960C000C30EFF3108472B600F0ECFF84F310888A
:10961C0010BD0020FCE710B5FFF705FF10BD30B5FD
:10962C000024002C02DD0120404230BDA51CED00C1
:10963C0045196D68002D01D00134F2E70234E400C5
:10964C0000194160027243720020EEE770B504000D
:10965C000E0015002022002103F092FC26606560AC
:10966C0070BD000030B5C469037C002B20D1C389C8
:10967C00174A934218D0858A154A95421BD1144A31
:10968C0093421BD02023C35C002B1AD022783F239B
:10969C00100098430300802816D1413B1340402210
:1096AC0013430B70002030BD828A3F2AE7D9E2E7D2
:1096BC0001204042F7E701204042F4E701204042FC
:1096CC00F1E701204042EEE701204042EBE7C046C3
:1096DC00CDCD000070B504008569037B2B71837CB4
:1096EC006B71E91DFFF7BEFF002804DB2023E35C50
:1096FC001B18AB71002070BD10B50023CB56002B8E
:10970C0012DB002484728279C2720474427402796E
:10971C000273437983740B785B0608D4054BC381C1
:10972C000B788382012010BD01204042FBE7012011
:10973C004042F8E7CDCDFFFF70B5040085692E1DC2
:10974C002B7903716B794371E91DFFF7D5FF002865
:10975C000FDBC31CF318E361AB791B1A2022A35453
:10976C00002807D1EB791F321A4080235B42134348
:10977C00EB7170BD0020FCE7022808D004280BD048
:10978C0000280DD100230B70013313707047012397
:10979C000B7000231370F9E701230B701370F5E7BE
:1097AC0002230B701370F1E710B51C00164B984296
:1097BC0004D0FF2817D80123137001E00023137085
:1097CC00114B994212D0FF2915D80123237013781D
:1097DC001B0122781343102B10D0112B10D0012B0E
:1097EC0010D100200DE002231370E9E79842EAD073
:1097FC0000232370EBE702232370E8E7022000E04C
:10980C00042010BD0620FCE7CDCD0000F0B583B0E0
:10981C0005000E004C1C837AA02B3CD000232A7C24
:10982C00F02A3AD01901802252420A4332709A0728
:10983C0004D5EA7A7270F41C2A7BB270002B04D027
:10984C006B7C2370AB7C63700234E889A98A6B460D
:10985C00DF1D06333A00FFF7A7FF3378034333705D
:10986C003B78002B02D0EB89237001346B46073315
:10987C001B78022B15D06B4606331B78002B02D0BD
:10988C00AB8A237001346B4606331B78022B0DD048
:10989C00A01B03B0F0BD0223C1E701221343DBB2CE
:1098AC00C0E7EB891B0A23700134E4E7AB8A1B0A7F
:1098BC0023700134ECE770B50400856903792B71D2
:1098CC0043796B71E91DFFF7A1FF002804DB20230E
:1098DC00E35C1B18AB71002070BD0000F0B583B0C9
:1098EC0004000D0001312B78372218009043020040
:1098FC00802859D11B097D3A1A4098072BD5A021F5
:10990C00A1726978E172E91CAE782673002A2BD01B
:10991C00DB0727D5F02323740B7863748F1C4B78EB
:10992C00A3742B786A46D61D0620184006323100E7
:10993C00FFF722FF3278002A1ED11D4BE3813B003A
:10994C006A4606321278002A22D1194AA2821800DD
:10995C00401B03B0F0BD8020A072A679E672267978
:10996C002673D3E7A023D6E780232374A3796374EB
:10997C006379A3740F00D4E77B1C3978E181022A48
:10998C00DED17A788BB212021343E381BB1CD7E78A
:10999C00581C1978A182022ADAD15978A28A0902B4
:1099AC000A43A282981CD3E701204042D1E7C0466B
:1099BC00CDCDFFFF70B5040085692E1D2B79037189
:1099CC006B794371E91DFFF789FF002807DBC31C86
:1099DC00F618E661AB791B1A2022A354002070BD47
:1099EC000300827A102A2BD0002A07D1C289154B8A
:1099FC009A4201D0002017E0012015E0A02A14D0D3
:109A0C00027CF02A13D00120DA890E498A4203D055
:109A1C00FF2A0ED8012140189B8A0A498B420AD092
:109A2C00FF2B0BD80123C01870470520ECE703204F
:109A3C00EAE70221EFE78A42F6D1F1E70223F2E7E7
:109A4C000020F1E7CDCD0000F0B5D6464F46464696
:109A5C00C0B591469A468468C768066945693B68F3
:109A6C009C46012398466346424693433B603B68C1
:109A7C009C46822398466346424693433B6053463A
:109A8C007B604B46002B28D0CC466346FB603B6882
:109A9C009C464B46002B24D08122634613433B60EB
:109AAC0032680127BA43326032687F37BA4332607A
:109ABC0053467360002916D00800F0603368002903
:109ACC0013D081221343336023681D42FCD06560A0
:109ADC00E0BCBA46B146A846F0BD19339C46844456
:109AEC00D3E70122D9E71830E7E70122EAE7F0B51E
:109AFC00C56804692E680127BE432E602E687F3727
:109B0C00BE432E606B60002A1BD01600EE602E68E0
:109B1C00002A19D0832232432A6022680125AA43E5
:109B2C00226022687F35AA432260636000290DD031
:109B3C000800E060236800290AD0812213432360C7
:109B4C00F0BD06001936E1E70322E4E71830F0E730
:109B5C000122F3E710B50268136840210B43136030
:109B6C0001684B68012213434B6001684B68022467
:109B7C0023434B60C1680B6893430B6001690B680E
:109B8C0093430B6003680C33C268936003680C3317
:109B9C000269936010BD0000F0B5DE4657464E4694
:109BAC004546E0B583B0040089469046344B02002C
:109BBC0023CB23C21B68136000254BE0009B237052
:109BCC0061802571A260E060013180239B00994285
:109BDC0028DA8B1C7B432B4A9342F5D92A4A9342B1
:109BEC0020D8019A5208D218EA404046121AD017CF
:109BFC001218424025483818C61780197040244E58
:109C0C00B4466344DE179B1973408600B346584430
:109C1C004000C018A3689342D0D8D5D1E3688342E2
:109C2C00D2D9CBE7009B013B0093009B002B10DBB0
:109C3C00009B991CC80F401840104844FCF74AFA86
:109C4C000700144B9842EDD9134B984201D80021D0
:109C5C00BBE70135022D05DC0127AF4001971F231F
:109C6C000093E2E72379022B07D0200003B0F0BC6D
:109C7C00BB46B246A946A046F0BD01332371F4E7BA
:109C8C00F8FE0008FFE0F5050065CD1D00EE85FF30
:109C9C00005D1EEE3F420F00C0E1E40084B010B541
:109CAC0003AC0391049205932379032B0FD003ACDF
:109CBC002378991C4B101818FCF70CFA63880233A4
:109CCC0058432379D84010BC08BC04B01847022272
:109CDC002271ECE730B583B0050000230093013B03
:109CEC000193104C02E0104B9C4664440F4B9C4279
:109CFC0014D9680800192900FCF7ECF90100400898
:109D0C000019FCF7E7F9401BC317C0185840019A1B
:109D1C008242E8D9009401900028E4D1009803B065
:109D2C0030BDC04680D1F008C0F2FCFFFFE0F50565
:109D3C0070B582B00400080015001E006B46D91DDA
:109D4C00087063681A689B889362012300222000C4
:109D5C00FFF77AFE33002A0000212000FFF774FE83
:109D6C0063681A689B889361002002B070BD70B55F
:109D7C0082B00400080015001E006B46D91D087047
:109D8C0063681A689B889362012300222000FFF706
:109D9C005BFE3300002229002000FFF755FE6368AC
:109DAC001A689B889361002002B070BD10B51C30FE
:109DBC00EFF3108472B600F015FC84F3108810BD1C
:109DCC0010B53E23C154436E5B681A689B8893623E
:109DDC0001003E31406E02230A00FFF788FE10BDE1
:109DEC0010B580235B420B433E2143543F23C254A6
:109DFC00436E5B681A689B88936201003E31406E2B
:109E0C0002230022FFF773FE10BD000010B582B0D4
:109E1C0004006B46FF22DA717023C356002B0ADB59
:109E2C00E03A1A40012393400E4880228350BFF33E
:109E3C004F8FBFF36F8F637D022BFCD8606E0123B5
:109E4C006A460732FFF774FF7023E356002B05DBDD
:109E5C001F221A4001239340024A13606B46D879A3
:109E6C0002B010BD00E100E010B582B004000800A3
:109E7C006B46DA717023E356002B0ADB1F221A4063
:109E8C00012393400F4980228B50BFF34F8FBFF3B8
:109E9C006F8F637D022BFCD8802149420143C9B2EC
:109EAC00606E01236A460732FFF761FF7023E356A9
:109EBC00002B05DB1F221A4001239340014A13603B
:109ECC0002B010BD00E100E0F0B5C64600B582B0AE
:109EDC0006000F009046056948084019FCF7FAF88F
:109EEC0084B2013CA4B24346580840194146FCF7E1
:109EFC00F1F885B2013DADB2E2B20C213000FFF7B2
:109F0C00B3FF220A0D213000FFF7AEFFEAB20E219B
:109F1C003000FFF7A9FF2A0A0F213000FFF7A4FF3A
:109F2C00B16805480195009443463A0000F0CAFB1D
:109F3C0002B080BCB846F0BD4CFF0008F0B5C64678
:109F4C0000B506000F0015000C21FFF75FFF04B2EF
:109F5C000D213000FFF75AFF00020443A3B29846CC
:109F6C000E213000FFF752FF04B20F213000FFF733
:109F7C004DFF00020443A4B230694346591C4B10F8
:109F8C001818FCF7A7F838603369611C4810C01822
:109F9C00FCF7A0F8286080BCB846F0BDF0B5D646FA
:109FAC004F464646C0B586B006000D0090461F00D1
:109FBC000E9C10AB1B785BB299468368002B29D0A2
:109FCC00EFF3108A72B6280000F00CFB8AF31088AD
:109FDC007063B561B24B3360B24B73607766B46635
:109FEC000F9BF36670234A46F254B168AE4800F0FA
:109FFC0069FB002C0BD02368A2889A620220FEF722
:10A00C001FF82368A2889A610220FEF719F800272E
:10A01C00FF250EE0A54B8360D2E77B1CDBB20A2F39
:10A02C0014D81F002C0000E00027002000F0EAFBF1
:10A03C00250000213000FFF7E9FE04000138C0B212
:10A04C00FD28F1D8A542E8D00027EEE7B168984882
:10A05C002A0000F037FB357300230D22AA425B4126
:10A06C0033750F2D00D811E1733201213000FFF749
:10A07C00FBFEB46800213000FFF7C8FE02008D4BD8
:10A08C002100180000F01EFB102235213000FFF7D4
:10A09C00EBFE43469868FFF71DFE0200306102ACF0
:10A0AC00854D29002000FFF777FD059B0093029951
:10A0BC00039A049B2800FFF7F1FD050031697F48E6
:10A0CC002A0000F0FFFA3561227832213000FFF7C8
:10A0DC00CBFE6588A27830213000FFF7C5FE2379CE
:10A0EC001B012A0A1A43D2B231213000FFF7BCFE01
:10A0FC0032213000FFF78AFE050030213000FFF7D7
:10A10C0085FE070031213000FFF780FE03006C4C08
:10A11C003A002900200000F0D5FA33213000FFF777
:10A12C0075FE0100674B180000F0CCFA10223321A9
:10A13C003000FFF799FE36213000FFF767FE010073
:10A14C00614B180000F0BEFA012201213000FFF72C
:10A15C008BFE36213000FFF759FE01005B4B1800D7
:10A16C0000F0B0FA00213000FFF750FE0100584B10
:10A17C00180000F0A7FA02213000FFF747FE0E236B
:10A18C00034001221A43D2B243469B7B012B00D1E0
:10A19C0083E010231A4302213000FFF765FE43468B
:10A1AC001A780B213000FFF75FFE43461A7B1A2109
:10A1BC003000FFF759FE43465A7B1B213000FFF756
:10A1CC0053FE43461A7C05213000FFF74DFE4346F3
:10A1DC001A8A120A06213000FFF746FE43469A7C83
:10A1EC0007213000FFF740FE43465A8A120A082125
:10A1FC003000FFF739FE43461A7D09213000FFF786
:10A20C0033FE43469A6859683000FFF75DFE3F22E3
:10A21C0016213000FFF728FE424608324346191D2E
:10A22C003000FFF78BFE43469A685968294800F0C6
:10A23C0049FA0B213000FFF7E9FD05001A21300027
:10A24C00FFF7E4FD07001B213000FFF7DFFD0300E3
:10A25C00214C3A002900200000F034FAB468102197
:10A26C003000FFF7D3FD02001C4B2100180000F05A
:10A27C0029FA01237375DA2211213000FFF7F4FD5E
:10A28C0006B0E0BCBA46B146A846F0BD144B3361EB
:10A29C001448290000F016FA6DE71F337AE7C04620
:10A2AC00B99D000811A300087CFF000874FF00088A
:10A2BC008CFF0008A4FF00080024F400CCFF000869
:10A2CC00F0FF0008180001082C00010844000108E8
:10A2DC006C000108BC000108E00001080C01010839
:10A2EC00005A62029000010810B5437D013BDBB2BD
:10A2FC00012B00D910BD032343751021FFF760FD1E
:10A30C00F8E7000070B50400436C01334364283057
:10A31C00EFF3108572B600F074F985F31088702392
:10A32C00E356002B0ADB1F221A40012393400C49F1
:10A33C0080228B50BFF34F8FBFF36F8F637D012B48
:10A34C000AD07023E356002B05DB1F221A40012391
:10A35C009340034A136070BD2000FFF7C5FFF0E780
:10A36C0000E100E070B50400437D032B11D0042BF9
:10A37C0000D1CDE0052B00D1D5E0637D062B00D1BB
:10A38C00EAE0072B00D111E1A168954800F09AF999
:10A39C0070BD3C33C35C426E5268116892888A610E
:10A3AC002322190091433CD008210A001A4019427B
:10A3BC0003D0826C013282640422D90605D50821AF
:10A3CC000A43D2B2E16C0131E164590716D5202160
:10A3DC000A43D2B2216D01312165217D002910D1B2
:10A3EC00590605D504210A43D2B2616D013161656C
:10A3FC0059B200290CDB002A13D00FE0002AEFD051
:10A40C00EBE70423637516212000FFF7E9FCBFE797
:10A41C0008210A43D2B2A16D0131A165217D002929
:10A42C0019D19A071ED43C22A25C002A41D09B066B
:10A43C0029D43D23E35C002B30D0002A66D00223C4
:10A44C006375E36E1A6812699B881342A0D12000D1
:10A45C00FFF74AFF9CE70423637517212000FFF7E1
:10A46C00BFFC95E705236375636BD91C1422DA7066
:10A47C00636E5B681A689B889362606E04230A00A3
:10A48C00FFF735FB84E73C230022E254383B63752D
:10A49C00033217212000FFF7A3FC79E73D3301229B
:10A4AC00E254393B6375F93211212000FFF798FC17
:10A4BC006EE7A36A002B0ED13D23E35C002BBCD0CE
:10A4CC003D230022E254393B6375DA32112120001E
:10A4DC00FFF786FC5CE720002830EFF3108572B69E
:10A4EC0000F080F885F31088A063C11C9523C3701D
:10A4FC008E3B6375636E5B681A689B889362837985
:10A50C000433606E0022FFF7F2FA41E7012397E76C
:10A51C00436E5B681A689B88936103234375102113
:10A52C00FFF74EFC34E701334375426B9379FD2BF7
:10A53C0008D8002B00D120E70732406E0021FFF72E
:10A54C00D6FA25E7036E0133036604234375032211
:10A55C001621FFF745FC1BE7636E5B681A689B8846
:10A56C009361A069EFF3108672B600F03BF805001A
:10A57C0086F31088002815D020001C30616BEFF397
:10A58C00108672B600F03DF886F310886563236C74
:10A59C000133236404236375032216212000FFF783
:10A5AC001FFCF5E6E36D0133E365F3E7636E5B686F
:10A5BC001A689B889361A069A16BEFF3108572B642
:10A5CC0000F01FF885F310880023A3633C330122AD
:10A5DC00E254393B637510212000FFF7F1FBD7E6FD
:10A5EC002001010803008268002A08D00068016875
:10A5FC001960013A9A60002A00D15A607047002015
:10A60C00FCE783685A1C8260002B05D043681960F4
:10A61C00416000230B6070470160F9E710B5002220
:10A62C0009E0064BDB691B06FBD50478034B9C62E7
:10A63C00013292B201308A42F3D310BD003801408E
:10A64C0070B50C000389CB810B7C102B03D18B696B
:10A65C000733CB6170BD4068FEF707FFA569043571
:10A66C002000FFF7BDF903302D18E561F2E7F8B5CE
:10A67C0006004068EFF3108472B6FFF7B3FF0500D5
:10A68C0084F3108800281BD03068EFF3108772B663
:10A69C00FFF7A8FF040087F31088002806D02422B7
:10A6AC00002102F06DFCA5612000F8BD7068EFF38D
:10A6BC00108672B62900FFF7A4FF86F31088F3E723
:10A6CC000400F1E70FB470B582B03F4B1B68002B50
:10A6DC004DD01B78002B4AD03C4B5B681B689B68A9
:10A6EC00002B49D0EFF3108172B6384B5B681A68B7
:10A6FC009268092A45D95B689B68092B41D9344B70
:10A70C001C68002C44D000221A6081F3108807AB1F
:10A71C000193E0692025625DA221891A8018069AAE
:10A72C0002F074FB635DA122D21A904200DD10008E
:10A73C001B182022A354EFF3108572B6E369A25CB8
:10A74C009B18013B1B780A2B05D0A12A03D0204B68
:10A75C001B68002B35D0EFF3108672B61D48210014
:10A76C00FFF74FFF86F3108885F3108804E007A9E4
:10A77C000191069802F012FB02B070BC08BC04B048
:10A78C001847154A13680133136081F31088F3E7F7
:10A79C0081F310880D4B5868FFF769FF041EEBD04E
:10A7AC000E4B19681030062202F08BFC0748210072
:10A7BC00FFF746FFE36940221A7020233F3AE25428
:10A7CC00A5E7034B1C60CFE7F00400200C00002031
:10A7DC00D8040020E0040020DC040020EC0400205D
:10A7EC0010B5054B58600548016005490A60180012
:10A7FC00FEF711FF10BDC0460C000020EC04002039
:10A80C00F004002010B5144B1968144B1A689142CF
:10A81C0005D0134B5B681B689B68092B13D8104B36
:10A82C005B685B69002B16D0EFF3108472B60D4891
:10A83C00FFF7D8FE010084F3108800280BD00848DD
:10A84C00FEF7D3FEEBE70848FFF73CFF024B034A49
:10A85C0012681A60E3E710BDD4040020DC04002069
:10A86C000C000020E00400204001010810B5080095
:10A87C00140091B2FFF7D2FE200010BDF0B5DE46F9
:10A88C0057464E464546E0B583B06F4B1B889B46FA
:10A89C006E4B1B8801936E4C9A22520000212000B3
:10A8AC0002F06EFB6B4B238083235B006380083BC1
:10A8BC002373E1235B022361636101235B422383E6
:10A8CC001533A383C827E783133B99461F334A46A6
:10A8DC00E254614D200026300232290002F0F1FBD7
:10A8EC00092363850C26E685B3339A462386668650
:10A8FC0050339846C83B4246E2520233053AFF3A7F
:10A90C00E25220007630053A290002F0DAFB7A2375
:10A91C000A22E2520333E75401335246E2527A3BA5
:10A92C003C3AA35202320A21FF31A152023249466B
:10A93C00A1520232FF31A1520232A35202324146DD
:10A94C00A1520232A6520A322039A1520232A65228
:10A95C0002321831A1520232A352AA335932FF32B9
:10A96C00E2520233EE3AFF3AE25401220533E2544A
:10A97C000B333A4AE2500433394AE250394BE35133
:10A98C00D423394AE2500433384AE2500433384A6B
:10A99C00E2500433374AE2500433374AE25004336E
:10A9AC00364AE25023002933FF336A681A602A8939
:10A9BC009A8020002F30FF300422002102F0E0FAB0
:10A9CC002F4B9B450AD0224B1B79002B2BD103B06C
:10A9DC00F0BCBB46B246A946A046F0BD83235B0043
:10A9EC00019A9A4215D0019B1B0A012BEBD11849F5
:10A9FC0015480B00020031CA31C331CA31C331CA08
:10AA0C0031C311CA11C302230B710533FF334B80C1
:10AA1C00D9E70F4C802252000B49200002F051FB69
:10AA2C0001232371CFE7174803220021040002F011
:10AA3C00A7FA053CBC230022E25028330E4AE25010
:10AA4C00043B0C4AE250C2E700F8010802F8010886
:10AA5C00F4040020CDCDFFFF08FF0008A086010004
:10AA6C00400D030000127A000000484200409C4553
:10AA7C000AD7A33C0024F4C90024F44917B7513970
:10AA8C00CDCD0000F904002070B58AB005000E0091
:10AA9C0001235B420993154B0340022205920232BB
:10AAAC000692D80A07905B18DA0A121A08925B050C
:10AABC0001D001320892FCF7ADFF041E10D0FDF757
:10AACC0029F80443079B0A48029409990191089AB2
:10AADC00009232002900FFF7F5FD20000AB070BD8E
:10AAEC0009A905A8FDF744F80400E8E7FFFFFFF704
:10AAFC0058010108F0B5C64600B580461400073170
:10AB0C00CE08FCF787FF070000251DE0E90063185D
:10AB1C00625C587800020243987800040243DB78A8
:10AB2C001B061A430B1DE018E35C47783F023B43BE
:10AB3C0087783F043B43C07800060343414401201F
:10AB4C00FCF7B6FF07000135002F01D1B542DDDB64
:10AB5C00FCF7E0FF384380BCB846F0BD10B580214F
:10AB6C0009010F48FFF790FFC0B200280FD10D4A22
:10AB7C00802149000A48FFF7BDFFC0B200280AD166
:10AB8C00802109484900FFF79DFD002010BD0748B2
:10AB9C00FFF798FDEBE70648FFF794FD0120F5E77A
:10ABAC0000F80108F4040020AC0101088C01010834
:10ABBC00D8010108F0B5D6464F464646C0B582B01E
:10ABCC00F348FFF77FFD0120FFF71CFEF14CF24824
:10ABDC00F24B0093230002220021FFF773FDF04893
:10ABEC00F04B0093230002220221FFF76BFDEE4D88
:10ABFC00EE48EF4B00932B0001220421FFF762FD7E
:10AC0C00EC48ED4B00932B0001220521FFF75AFD78
:10AC1C00EA4FEB48EB4B00933B0001220721FFF777
:10AC2C0051FDE94B98461800FFF74CFD0120FFF74A
:10AC3C00E9FDE648E64B00932B0001220C21FFF7BF
:10AC4C0041FDE44EE448E54B00933300042210210F
:10AC5C00FFF738FDE248E34B009333000422142144
:10AC6C00FFF730FDE04EE148E14B00933300022248
:10AC7C001821FFF727FDDF48DF4B00932B00012243
:10AC8C001A21FFF71FFDDD48DD4B00932300022244
:10AC9C001C21FFF717FDDB48DB4B0093230002223E
:10ACAC001E21FFF70FFDD948D94B00932B00012231
:10ACBC002021FFF707FD4046FFF704FD0120FFF7B9
:10ACCC00A1FDD448D44B00933B0001222421FFF773
:10ACDC00F9FCD248D24B0093330003222621FFF714
:10ACEC00F1FCD048D04B0093230002222A21FFF71D
:10ACFC00E9FC4046FFF7E6FC0120FFF783FDCB4B58
:10AD0C00CB48CC4A009204222C21FFF7DBFCCA4C26
:10AD1C00CA48CB4B0093230014223021FFF7D2FCFE
:10AD2C00C848C94B0093230014224421FFF7CAFCE6
:10AD3C00C648C74B0093230014225821FFF7C2FCCE
:10AD4C00C448FFF7BFFC0120FFF75CFDC24B1B6B37
:10AD5C00002BFBD1A44BC148C14A0092032276219F
:10AD6C00FFF7B0FC8B4CBF48BF4B00932300022273
:10AD7C007A21FFF7A7FC8C4DBC48BD4B00932B00F0
:10AD8C0001227C21FFF79EFCBA48BB4B00932B00A1
:10AD9C0001227D21FFF796FCA74EB848B84B0093D3
:10ADAC00330018227E21FFF78DFCB648B64B00937A
:10ADBC00330018229621FFF785FCA64B9946180004
:10ADCC00FFF780FC0120FFF71DFDB048B04B00934E
:10ADDC0023000222AE21FFF775FCAE48AE4B009368
:10ADEC002B000122B021FFF76DFC744CAB48AC4B2F
:10ADFC00009323000122B121FFF764FCA948AA4B60
:10AE0C00009323000122B221FFF75CFCA748A84B5A
:10AE1C00009323000122B521FFF754FC6A4F380040
:10AE2C00FFF750FC0120FFF7EDFCA24BA248A34A10
:10AE3C00009298460422BC21FFF744FC654EA048C2
:10AE4C00A04B009333000422C021FFF73BFC9E482B
:10AE5C009E4B009333000422C421FFF733FC9C4823
:10AE6C009C4B009333000422C821FFF72BFC3800C5
:10AE7C00FFF728FC0120FFF7C5FC974C9748984B2F
:10AE8C009A46009323000422D421FFF71BFC95481B
:10AE9C005346009323000422D821FFF713FC924859
:10AEAC005346009323000422DC21FFF70BFC802186
:10AEBC008E488F4B0093434604224900FFF702FC57
:10AECC0082218C488C4B0093230004224900FFF70D
:10AEDC00F9FB4846FFF7F6FB0120FFF793FC8421B2
:10AEEC008648874B00932B0001224900FFF7EAFBB1
:10AEFC003800FFF7E7FB0120FFF784FC8148FFF7E0
:10AF0C00E1FB0A218048814B00932B000122FF3189
:10AF1C00FFF7D8FB86217E487E4B009343460422E4
:10AF2C004900FFF7CFFB88217B487C4B0093230023
:10AF3C0004224900FFF7C6FB8A217948794B00931C
:10AF4C00230004224900FFF7BDFB3800FFF7BAFBD2
:10AF5C000120FFF757FC92217348744B0093330088
:10AF6C0004224900FFF7AEFB714B94217148724AE1
:10AF7C0000920A224900FFF7A5FB3800FFF7A2FB5D
:10AF8C000120FFF73FFC344B1B6B002BFBD1D5E0B2
:10AF9C00F80101080C020108100201084402010822
:10AFAC00580201088C0201089C020108A002010849
:10AFBC00D4020108100301084403010868030108C6
:10AFCC006C030108A0030108C8030108D0030108A1
:10AFDC000404010824040108280401086004010881
:10AFEC0080040108B8040108DC040108E00401082D
:10AFFC001C050108300501086805010888050108D1
:10B00C00C8050108E00501082006010840060108F2
:10B01C007C06010894060108C4060108F80601081C
:10B02C0030070108540701088C070108AC07010818
:10B03C00B0070108E4070108080801081008010816
:10B04C004408010880080108B4080108F408010844
:10B05C002809010874090108C80600207C090108A8
:10B06C00B8090108DC090108180A01083C0A0108A2
:10B07C00700A0108980A0108CC0A0108F00A0108B4
:10B08C00240B0108400B0108740B0108900B0108FC
:10B09C00C40B0108F00B0108200C0108400C01083E
:10B0AC00740C0108900C0108C00C0108E40C010898
:10B0BC00140D0108280D01082C0D01085C0D010868
:10B0CC00700D0108A40D0108B80D0108EC0D010864
:10B0DC00000E0108380E01084C0E0108500E010834
:10B0EC00CC030108840E0108B80E0108EC0E01080F
:10B0FC001C0F0108300F0108640F0108780F0108BC
:10B10C00A80F0108CC0F0108141001084810010801
:10B11C006410010894100108AC100108DC1001083F
:10B12C00F010010820110108341101086811010800
:10B13C00781101087C110108B011010802B0E0BCC3
:10B14C00BA46B146A846F0BDBFF34F8F034B044A35
:10B15C00DA60BFF34F8FC046FDE7C04600ED00E05C
:10B16C000400FA0570B586B001AA0F4B70CB70C203
:10B17C0011001A680A601B790B7100230DE00B4A51
:10B18C009A18157829095A0001AC615C81540F2179
:10B19C0029400132615C815401330B2BEFDD00231C
:10B1AC00037606B070BDC046BC1101089075FF1F38
:10B1BC00F0B5DE4657464E464546E0B585B081466D
:10B1CC000E0093469846002B09D02B4B1B689A46D1
:10B1DC002A4F0024002303935346029326E0284B66
:10B1EC001B689A46274FF4E763001B199B00FB185A
:10B1FC005B6826E0019268468088B446DC44E245F0
:10B20C0003DC614502DD614600E011008DB2A8420D
:10B21C000BD0801A80B2019D491BC9B24546002D46
:10B22C0020D0921B4244984703900134029B9C42CD
:10B23C001ADA4B46002BD7D063001B199B00FB1866
:10B24C009B68002BF1D0620012199200B918BA5AFF
:10B25C009246498851189642CCD301968E42CADD4B
:10B26C000191C8E74246DEE7039805B0F0BCBB4647
:10B27C00B246A946A046F0BD2C000020400000209C
:10B28C00280000203400002070B5084D2800FFF77E
:10B29C0069FF074B0749084C2A00200001F010FDFC
:10B2AC0006482100FFF70EFA70BDC0468C06002040
:10B2BC00D0110108D811010828060020F41101084A
:10B2CC0070B50C000389CB810B7C102B03D18B69DF
:10B2DC000733CB6170BD4068FEF7C7F8A56904352C
:10B2EC002000FEF77DFB03302D18E561F2E770B509
:10B2FC0005000C008969002909D04068EFF310861D
:10B30C0072B6FFF77EF986F310880023A3612868D4
:10B31C00EFF3108572B62100FFF773F985F31088EF
:10B32C0070BD0000F0B5DE4657464E464546E0B5CA
:10B33C0085B05248FEF760F9041E1AD0C56910306A
:10B34C00062221000A3101F0BCFE4C482100FFF717
:10B35C00B7FF2023E35C012B12D0042B02D92B78EE
:10B36C00102B29D04648FFF7ADF946482100FFF7CE
:10B37C00BEFF05B0F0BCBB46B246A946A046F0BD28
:10B38C002A78002AE9D1E36980321A70E0693E4DCF
:10B39C000130290001F08DFE2800FAF789FE0130FA
:10B3AC002023E05435482100FEF71FF9374A117964
:10B3BC007F230B401371DCE76F78AB781B021F43C4
:10B3CC0001F00CFB060039003148FAF70DFF0100C3
:10B3DC003000FAF709FFEB782A7991462B4A127B59
:10B3EC0090462022A25CAA18002111706A1D924678
:10B3FC000604360C1D00C3462648029242460192B2
:10B40C004A4600923A003100FFF75CF9454504D8F2
:10B41C004D46C14500D94546EDB2AB4506D01B4A59
:10B42C00117980235B420B4313719BE716485146FD
:10B43C0001F0AEFD0028F2D0FCF7FCFD0500FCF796
:10B44C00F9FD401BB042FAD3E36980221A70E0691F
:10B45C000D4D0130290001F02CFE2800FAF728FED2
:10B46C0001302023E05405482100FEF7BEF8074ABE
:10B47C0011797F230B4013717BE7C046B400002089
:10B48C0040120108A806002028060020F404002021
:10B49C00FFFFFF7F04120108F0B5D6464F46464623
:10B4AC00C0B582B08148FEF7A7F8041E28D0804BA7
:10B4BC001B795BB2002B29DBC569103006222100F9
:10B4CC000A3101F0FEFD79482100FFF7F9FE2B78D7
:10B4DC00002B03D12022A25C042A21D0202B5CD08B
:10B4EC00012B04D11F33E35C042B00D1BDE02023DE
:10B4FC00E15C7048FFF7E6F86F482100FFF7F7FEB4
:10B50C0002B0E0BCBA46B146A846F0BD2023C15CEF
:10B51C006A48FFF7D7F868482100FFF7E8FEEFE725
:10B52C006F78AB781B021F43ED78FB2D00DDFB25FC
:10B53C00EBB298460023424639000020FFF738FE54
:10B54C00061E0ED02A005E483900FFF7BBF8E269F0
:10B55C0080235B4233431370434601332022A354B0
:10B56C009EE0584E80239B01994680234A46F25018
:10B57C00BFF34F8FBFF36F8FE06901302A004C4946
:10B58C00791801F09EFD4B4633600023424639008A
:10B59C000120FFF70DFE0600D4E72022A25C032A4F
:10B5AC009ED96E78AB781B021E43033AD3B29846F1
:10B5BC0003352B00424631000020FFF7F9FD071E32
:10B5CC0049D041483B0042463100FFF77BF820232D
:10B5DC000122E254E269A03B3B43137060E001920C
:10B5EC006B469B8840463018824203DC0A0081423D
:10B5FC0000DD020091B28B421BD0324B9946802366
:10B60C009B019A4680214B4650465850BFF34F8FB2
:10B61C00BFF36F8F019B1B041B0C991B6918120441
:10B62C00120CD21A2248181801F04BFD4B46524608
:10B63C001A600137254B1B68BB420EDDBB00244A48
:10B64C009918D25A49885118B242C8D801968E42DC
:10B65C00C6DD0191C4E70027ECE72B004246310020
:10B66C000120FFF7A5FD0700ABE76E78AB781B0256
:10B67C001E43ED78FB2D00DDFB25EFB2E0690130B8
:10B68C00144971182A0001F01CFD13482A003100DE
:10B69C00FFF718F8E36980221A7001372023E7546A
:10B6AC0002482100FDF7A1FF2AE7C04698000020C0
:10B6BC00F4040020C8120108A80600205412010846
:10B6CC007012010800E100E088120108300000202F
:10B6DC005800002018160108AC120108F8B5DE4617
:10B6EC0057464E464546E0B59148FDF785FF041E8A
:10B6FC0000D10DE1C6691030062221000A3101F09B
:10B70C00E0FC8C482100FFF7DBFD33782F2B0ED0AB
:10B71C003078202820D0002800D0FFE02023E35CE4
:10B72C00012B00D0FAE0E76901370026B5E0824B27
:10B73C00998D0131DA8D88182023E35C9842E7DC7F
:10B74C00701C711801F00AFCE36920221A707A4B04
:10B75C00DB8D0133A354DBE72023E35C002BDAD031
:10B76C000136E3690133994600239846002013E023
:10B77C00ABB2002B00D179E0EBB29A46398833009A
:10B78C0052460020FFF714FD00281AD02D042D0C72
:10B79C00761901239C46E044002869D14346042BCA
:10B7AC002DDC43469F00654BFF187D88002D5BD038
:10B7BC002023E35CE269B21A9B1A9D42D8DD1D007E
:10B7CC00D6E75F4B9B468023594680229201CA5094
:10B7DC00BFF34F8FBFF36F8F3888574BC0182A04B5
:10B7EC00120C310001F06DFC5B46802292011A6054
:10B7FC003988330052460120FFF7DAFCC6E70027F0
:10B80C0002E06B8899440137002833D1042F31DCD6
:10B81C00BD004C4BED186A88002A2BD0D2B2298877
:10B82C0000230020FFF7C4FC0028EAD1444B9846C3
:10B83C0080239B019A46802342465146D150BFF348
:10B84C004F8FBFF36F8F29886A883B4BC9184846C6
:10B85C0001F037FC434652461A60AA782988002327
:10B86C000120FFF7A5FCCCE70027CDE70027CBE7AD
:10B87C000027C9E7E1694B465B1A2022A3548023B9
:10B88C005B4203430B70E169A25C711A2E48FEF710
:10B89C0019FF39E06B88FF18013600282DD1042ED2
:10B8AC002BDCB500294BED186A88002A25D0D2B2C2
:10B8BC00298800230020FFF77BFC0028EAD1204BCD
:10B8CC00984680239B019946802342464946D15095
:10B8DC00BFF34F8FBFF36F8F29886A88164BC91837
:10B8EC00380001F0EEFB43464A461A60AA782988D4
:10B8FC0000230120FFF75CFCCCE7E269BF1A202390
:10B90C00E754A03B0343137009482100FDF76DFE7B
:10B91C00F0BCBB46B246A946A046F8BD2023E15C6C
:10B92C000B48FEF7CFFE0B482100FFF7E0FCEFE7DA
:10B93C007C00002098000020F40400202405002046
:10B94C0000E100E038050020E41201084C0500205D
:10B95C00FC120108A8060020F8B54648FDF74CFE7D
:10B96C00041E21D0C5691030062221000A3101F0D5
:10B97C00A8FB40482100FFF7A3FC2B782F2B14D0F9
:10B98C00002B03D12022A25C062A33D0202B02D11B
:10B99C00E15C05294FD82023E15C3748FEF792FE85
:10B9AC0036482100FFF7A3FCF8BD2022A25C092A2F
:10B9BC00E6D16878AB781B021843EB781B0418436C
:10B9CC002B791B0618436979AB791B021943EB7968
:10B9DC001B0419432B7A1B061943FFF755F8202338
:10B9EC000122E254002803D17F32E3691A7039E056
:10B9FC008122FAE76E78AB781B021E43EB781B04AE
:10BA0C001E432B791B061E436D79FB2D00DDFB2598
:10BA1C00EFB2E06901302A00310001F052FB184806
:10BA2C002A003100FEF74EFEE36980221A700137BE
:10BA3C002023E75416E06878AB781B021843EB78A8
:10BA4C001B0418432B791B0618430539C9B26A1D10
:10BA5C00FFF750F820230122E254002807D17F324F
:10BA6C00E3691A7003482100FDF7BFFD9CE78122B2
:10BA7C00F6E7C0466000002034130108A806002039
:10BA8C001C13010810B50E48FDF7C5FD0D48FDF758
:10BA9C00C2FD0D48FDF7BFFD0C48FDF7BCFDFFF7DF
:10BAAC00F3FB0B4B1C680B4B1B68E4180A4B1B6815
:10BABC00E418FCF7BFFA201800F062FF10BDC04676
:10BACC007C0000209800002060000020B4000020C2
