:020000040800F2
:1000000000900020893D00082507000835070008FA
:1000100000000000000000000000000000000000E0
:10002000000000000000000000000000450700087C
:100030000000000000000000470700084907000812
:10004000D93D0008D93D0008D93D0008D93D000838
:10005000D93D0008D93D0008D93D0008D93D000828
:10006000D93D0008D93D0008D93D0008D93D000818
:10007000D93D0008D93D0008D93D0008D93D000808
:10008000D93D0008D93D0008D93D0008D93D0008F8
:10009000D93D0008D93D0008D93D0008D93D0008E8
:1000A000D93D0008D93D0008D93D0008D93D0008D8
:0C00B000D93D0008D93D0008D93D0008EA
:1000BC000023C25C0133002AFBD1581E704700009C
:1000CC0002B4714649084900095C49008E4402BCDF
:1000DC007047C04603B47146490840004900095EA8
:1000EC0049008E4403BC7047002243088B4274D3F2
:1000FC0003098B425FD3030A8B4244D3030B8B421D
:10010C0028D3030C8B420DD3FF22090212BA030C25
:10011C008B4202D31212090265D0030B8B4219D306
:10012C0000E0090AC30B8B4201D3CB03C01A524126
:10013C00830B8B4201D38B03C01A5241430B8B426E
:10014C0001D34B03C01A5241030B8B4201D30B0357
:10015C00C01A5241C30A8B4201D3CB02C01A52417E
:10016C00830A8B4201D38B02C01A5241430A8B4241
:10017C0001D34B02C01A5241030A8B4201D30B022A
:10018C00C01A5241CDD2C3098B4201D3CB01C01A44
:10019C00524183098B4201D38B01C01A524143094E
:1001AC008B4201D34B01C01A524103098B4201D33C
:1001BC000B01C01A5241C3088B4201D3CB00C01AA9
:1001CC00524183088B4201D38B00C01A5241430821
:1001DC008B4201D34B00C01A5241411A00D2014646
:1001EC00524110467047FFE701B5002000F0F0F8CF
:1001FC0002BDC0460029F7D076E7704703460B4393
:10020C007FD4002243088B4274D303098B425FD303
:10021C00030A8B4244D3030B8B4228D3030C8B422F
:10022C000DD3FF22090212BA030C8B4202D3121215
:10023C00090265D0030B8B4219D300E0090AC30BEA
:10024C008B4201D3CB03C01A5241830B8B4201D397
:10025C008B03C01A5241430B8B4201D34B03C01A80
:10026C005241030B8B4201D30B03C01A5241C30AF8
:10027C008B4201D3CB02C01A5241830A8B4201D369
:10028C008B02C01A5241430A8B4201D34B02C01A53
:10029C005241030A8B4201D30B02C01A5241CDD2F8
:1002AC00C3098B4201D3CB01C01A524183098B4243
:1002BC0001D38B01C01A524143098B4201D34B012C
:1002CC00C01A524103098B4201D30B01C01A52418F
:1002DC00C3088B4201D3CB00C01A524183088B4216
:1002EC0001D38B00C01A524143088B4201D34B00FF
:1002FC00C01A5241411A00D2014652411046704771
:10030C005DE0CA0F00D04942031000D34042534075
:10031C0000229C4603098B422DD3030A8B4212D335
:10032C00FC22890112BA030A8B420CD38901921167
:10033C008B4208D3890192118B4204D389013AD0A4
:10034C00921100E08909C3098B4201D3CB01C01A79
:10035C00524183098B4201D38B01C01A524143098C
:10036C008B4201D34B01C01A524103098B4201D37A
:10037C000B01C01A5241C3088B4201D3CB00C01AE7
:10038C00524183088B4201D38B00C01A5241D9D2FF
:10039C0043088B4201D34B00C01A5241411A00D280
:1003AC000146634652415B10104601D34042002B7C
:1003BC0000D54942704763465B1000D3404201B5FB
:1003CC00002000F005F802BD0029F8D016E77047B0
:1003DC007047C046002B11D1002A0FD1002900D143
:1003EC00002802D00021C943080007B4024802A12A
:1003FC004018029003BDC046D9FFFFFF03B4684606
:10040C0001B5029804F0C8FE019B9E4602B00CBCDC
:10041C007047C04610B5002903D100F007F8203012
:10042C0002E0080000F002F810BDC0461C210123B8
:10043C001B04984201D3000C10391B0A984201D3BB
:10044C00000A08391B09984201D30009043902A299
:10045C00105C40187047C046040302020101010100
:10046C0000000000000000000448054B10B583425A
:10047C0003D0044B002B00D0984710BD0C0100207A
:10048C000C0100200000000006480749091A8B10D7
:10049C00C90FC91810B5491003D0044B002B00D05C
:1004AC00984710BD0C0100200C010020000000003A
:1004BC0010B5074C2378002B09D1FFF7D5FF054B5E
:1004CC00002B02D0044800E000BF0123237010BDB4
:1004DC000C010020000000003C530008054B10B537
:1004EC00002B03D00449054800E000BFFFF7CCFF08
:1004FC0010BDC04600000000100100203C53000855
:10050C0070B5102692B03822002104A803F0E2FE48
:10051C0032000021684603F0DDFE8020800001F0EF
:10052C00D3FC80235B000793002308930D93802357
:10053C009B020F9380239B041093C023022540221F
:10054C00DB0504A8049509920B950C950E96119356
:10055C0000F04EFE002801D072B6FEE70723029091
:10056C000390290068460093019501F0D7F8002804
:10057C0001D072B6FEE78023074A5B05D168802064
:10058C000B43D360A0218022C9049205800001F0A6
:10059C0053F812B070BDC04600100240F0B50125F2
:1005AC000826022789B001F037FDFFF7A9FF1422B6
:1005BC00002103A803F08EFE8021A0204D4B0902E0
:1005CC005A6BC0052A435A635A6B00242A40009286
:1005DC00009A5A6B32435A635A6B32400192019A19
:1005EC005A6B3A435A635B6B2A003B400293029B63
:1005FC0001F064FC002206213F4801F05FFC8021E1
:10060C002A003E48890001F059FC8023A0209B0061
:10061C0003A9C0050393069504970594079401F06C
:10062C0029FB8022A020120203A9C0050392049585
:10063C000594069701F01EFB06232F48049503A989
:10064C00802503930594069401F014FB11232B4889
:10065C00AD0003A9049303950594069401F00AFBDD
:10066C002748284B8460036082235B004360E023AF
:10067C00DB00C3600723046144618561C6610462C9
:10068C0044628462C3620463466300F03BFAA04296
:10069C0001D072B6FEE71C4C1C4BA06023601C4BB7
:1006AC00E06063600C232061A061E0612062606205
:1006BC00A0622000636101F06BFF011E01D072B6D5
:1006CC00FEE7200001F0E2FF011E01D072B6FEE74A
:1006DC00200001F0FBFF002801D072B6FEE72000DD
:1006EC0001F0B6FF002801D072B6FEE703F034FA31
:1006FC00FEE7C04600100240000C00500004005001
:10070C00BC010020003001402801002000380140CD
:10071C0080841E0072B6FEE710B5024803F082FC1E
:10072C00FEE7C0469F53000810B5024803F07AFC60
:10073C00FEE7C046AB5300087047704710B501F098
:10074C007FFC10BD07B501210A4BC0201A6CC000FC
:10075C000A431A641A6C0A4080210092009ADA6BE0
:10076C0049050A43DA63DB6B0B400193019B01F0F3
:10077C008BFC07BD0010024010B5040088B0142299
:10078C00002103A803F0A6FD0F4B22689A4219D151
:10079C0080210E4B49011A6C0D480A431A641A6CDD
:1007AC000A400192019A0222596B114359635B6B07
:1007BC0003A913400293029B3823049203930692DD
:1007CC0001F058FA08B010BD003001400010024092
:1007DC0000040050074B026810B59A4208D1064A33
:1007EC000649136C06480B401364382101F0F4FAE7
:1007FC0010BDC0460030014000100240FFEFFFFF6B
:10080C000004005010B5040094B01422002102A87A
:10081C0003F060FD3422002107A803F05BFD164BAA
:10082C0022689A4226D1012307A8079301F034F8D5
:10083C00002801D0FFF76EFF8021104BC9011A6C04
:10084C000F480A431A641A6C0A400092009A02225A
:10085C00596B114359635B6B02A913400193019BC4
:10086C00402302933F3B049305930023039206938A
:10087C0001F000FA14B010BD003801400010024025
:10088C0000040050074B026810B59A4208D1064A82
:10089C000649136C06480B401364402101F09CFA86
:1008AC0010BDC0460038014000100240FFBFFFFFE2
:1008BC0000040050F0B50E0085B01500040001F0E6
:1008CC00CBFBAD192D1A01F0C7FB8027254B0190EE
:1008DC001B685B011B0D6B43039322689368180024
:1008EC0038403B4232D0731CF8D001F0B5FB019B71
:1008FC00C01AA8422CD3E02123685A688A435A6054
:10090C0082226168520091420CD18021A2680902B6
:10091C008A4203D08021C9008A4203D140211A683F
:10092C008A431A608021A26A89018A4206D1196819
:10093C000D480140196019680A431A60230001220E
:10094C005D331A70002303205C34237005B0F0BDB6
:10095C00039B002B00D02B00039A1D00013A03923D
:10096C00BBE7C0460C000020FFDFFFFFF0B51D0009
:10097C00002385B0170002AAD37004000E0001F00A
:10098C006BFBED192D1A01F067FB232223680090F5
:10099C0001932A4B1B6853431B0D6B43039302AB10
:1009AC002168DA1C8B681800304033423BD0C023DE
:1009BC00DB009E4204D1019B1B7BDBB213701378CE
:1009CC007B1CEFD001F048FB009BC01AA8422CD333
:1009DC00E02123685A688A435A6082226168520077
:1009EC0091420CD18021A26809028A4203D0802155
:1009FC00C9008A4203D140211A688A431A608021B7
:100A0C00A26A89018A4206D119680D480140196011
:100A1C0019680A431A60230001225D331A700023FF
:100A2C0003205C34237005B0F0BD039B002B00D079
:100A3C002B00039A1D00013A0392B0E70C00002032
:100A4C00FFDFFFFFF8B582231700426804000E0099
:100A5C005B009A420DD1802283681202934203D02C
:100A6C008022D200934204D14021226813688B4328
:100A7C0013603A0031002000FFF71CFF051E05D063
:100A8C002023226E03251343236616E0822362681B
:100A9C005B009A4211D18022A3681202934203D0C8
:100AAC008022D200934208D1C0213B0032002000AA
:100ABC00C900FFF75BFF0028E2D12800F8BD70B534
:100ACC0013000D0016000A00C02149010400FFF7B5
:100ADC004DFF002805D020230320226E13432366EC
:100AEC0070BD320029002000FFF7E4FE0028F2D18F
:100AFC00C02133002A002000C900FFF737FF00286F
:100B0C00EED0E8E7F8B504000120002C67D0636A4A
:100B1C00002B65D1822261685200914200D0E361C2
:100B2C0000232500A3625D352B78DAB2002B05D1AA
:100B3C0023005C3320001A70FFF71EFE02234022B4
:100B4C002B702168E6680B689343E0220B60D2009F
:100B5C000023964248D9F02218001201964200D088
:100B6C00A36282228427636852001340A2683F026A
:100B7C003A40022713432269A5693A4013430122E4
:100B8C00676917403B438027BF002F403B43E76911
:100B9C00373217403B43276A4832174080223B4389
:100BAC00A76A920117403B43102708220B60636A27
:100BBC002D0C3B40676B17403B43F0273F013E40F9
:100BCC003343042635402B4303434B60CB69084821
:100BDC0003400020CB61012320665D342370F8BDF7
:100BEC000023236163619BE780204001B6E7C04688
:100BFC00FFF7FFFF70B504000120002C10D025007A
:100C0C00022340215D352B702268200013685C3470
:100C1C008B431360FFF7DEFD0020606028702070AE
:100C2C0070BDF0B585B0009303005C3316001A78E4
:100C3C0004000D000227012A00D182E001221A7063
:100C4C0001F00AFA230001905D331A78D7B2012A19
:100C5C0000D0A6E0002D71D0002E6FD002321A7099
:100C6C000023A21D23662364A563A687E6870232B0
:100C7C009387D3878022A1682365E36412022368DB
:100C8C00914208D140211A688A431A60802219685F
:100C9C00D2010A431A6040221968114202D1196824
:100CAC000A431A60E021E0686268C90088424BD9A7
:100CBC00002A01D0012E07D12A880235DA60E38F91
:100CCC00A563013B9BB2E3870225E38F002B19D16F
:100CDC002000019A0099FFF7F2FE00285ED1A3686C
:100CEC00002B06D103932368DA6803929B68039365
:100CFC00039B226E002A21D1230001215D331700B2
:100D0C0019701BE0226893682B4209D0A36B1988D9
:100D1C000233D160A363E38F013B9BB2E387D4E73B
:100D2C0001F09AF9019BC01A009B9842CDD3013374
:100D3C00CBD02300012203275D331A7000235C34CF
:100D4C002370380005B0F0BD002A01D0012E08D167
:100D5C002A781A73A36B0133A363E38F013B9BB215
:100D6C00E3870225E38F002BB2D023689A682A42CE
:100D7C000AD0A26B12781A73A36B0133A363E38FAF
:100D8C00013B9BB2E387EDE701F066F9019BC01ACA
:100D9C00009B9842E6D30133E4D0CAE720232366B4
:100DAC009DE70227CAE70000F7B51E0003005C337D
:100DBC0017001A7804000D000220012A1BD0012212
:100DCC001A7001F049F9230001905D331B786168BA
:100DDC00DAB2012B09D0822302205B00994207D1A1
:100DEC00A368002B04D1042A02D1002D04D10120C8
:100DFC0000235C342370FEBD002FF8D0002EF6D0FB
:100E0C0023005D331A78042A01D005221A702200BF
:100E1C000023083223662764D687A21DD687E022DA
:100E2C00E068E3642365A5632368E687A687D200A0
:100E3C00904235D95A68604F3A405A6040221F6838
:100E4C00174202D11F683A431A60E022D200904246
:100E5C0061D9002901D0012E07D12A880235DA6028
:100E6C00E38FA563013B9BB2E387012502272E008C
:100E7C00E38F002B19D123000833DB8F002B14D107
:100E8C002000019A0899FFF71AFE002800D08EE086
:100E9C00236E002BABD1230001225D331A70A7E720
:100EAC0080225F6852013A43C7E7206883683B425F
:100EBC000ED0E38F002B0BD0012D08D1A36B1A8819
:100ECC000233C260A363E38F013B9BB2E38700252F
:100EDC0083681900314033420ED022000832D38F80
:100EEC00002B09D00D00C068236C188002332364DA
:100EFC00D38F013B9BB2D38701F0AEF8019BC01A94
:100F0C00089B9842B4D30133B2D0230001225D3345
:100F1C0003201A706CE7002901D0012E08D12A7821
:100F2C001A73A36B0133A363E38F013B9BB2E3877B
:100F3C00012502272E00E38F002B04D12300083358
:100F4C00DB8F002B9CD023689A683A420FD0E28F3B
:100F5C00002A0CD0012D09D1A26B12781A73A36B45
:100F6C000133A363E38F013B9BB2E3870025236826
:100F7C009A681100314032420FD022000832D08FD3
:100F8C0000280AD00D001B7B206C0370236C0133EE
:100F9C002364D38F013B9BB2D38701F05DF8019B97
:100FAC00C01A089B9842C6D30133C4D0ADE72023A6
:100FBC00012023666CE7C046FFEFFFFFF0B506008B
:100FCC0087B0049103935D36337804001700DDB2CB
:100FDC00012B00D0AAE004334268FF339A420ED1B1
:100FEC008368002B0BD104333370039B0A000093EE
:100FFC003B00FFF7D9FE0500280007B0F0BD230029
:10100C005C331A78012A00D192E001221A7001F0A7
:10101C0023F8049B0590002B77D0002F75D0042368
:10102C0033700023049A23662264A21DD7870232F0
:10103C00D787E022E168A363A387E387E364236592
:10104C00D200236891422FD95A683A4802405A601C
:10105C008022A0681202904207D140201A68824375
:10106C001A601A68344802401A604022186810420C
:10107C0002D1186802431A60E0232700DB0008370E
:10108C00994225D9FB8F002B25D0012123689A6822
:10109C000A423ED0DA68236C1A8002332364FB8F39
:1010AC00013B9BB2FB87EDE780225868520102435B
:1010BC00CDE7012123689A680A421AD01B7B226C67
:1010CC001370236C5B182364FB8F013B9BB2FB8773
:1010DC00FB8F002BEDD12000059A0399FFF7B2FC92
:1010EC00002820D1236E002B0FD101221D0032705D
:1010FC000BE000F0B1FF059BC01A039B9842E7D3AD
:10110C000133E5D001230325337000235C342370B5
:10111C0072E700F0A1FF059BC01A039B9842B1D364
:10112C000133AFD0EEE720232366DBE70225ECE7A3
:10113C00022561E7FFEFFFFFFFBFFFFF70B500F077
:10114C008BFF802380260500244C5B002268F60070
:10115C0013432360236833422BD08023DB0163606D
:10116C0000F07AFF002305003826A360A368334201
:10117C0026D180235B002360236000F06DFF802666
:10118C000500B60423681A00324033421FD1802375
:10119C005B01E36001235B42A2612362104A114BA5
:1011AC001A60114B186800F00FFF431E9841C0B233
:1011BC0005E000F051FF401B0228CBD9032070BD85
:1011CC0000F04AFF094B401B9842CFD9F6E700F0DC
:1011DC0043FF401B0228D5D9F0E7C046001002405F
:1011EC000024F4000C0000200800002088130000EC
:1011FC00F0B5040085B0002802D1012005B0F0BD87
:10120C000368DB0710D423689B075CD423681B0797
:10121C0000D5C1E023685B0700D5F2E0E369002B41
:10122C0000D079E10020E9E73822AF4DAB681340DC
:10123C00EA68102B09D1D3439B0708D12B689B0379
:10124C00E1D56368002BDED1D7E7082BF6D08022DE
:10125C0063685202934211D12A6813432B6000F049
:10126C00FBFE80270600BF022B683B42CBD100F06F
:10127C00F3FE801B6428F7D90320BFE7A021C90225
:10128C008B4208D180232968DB020B432B602B682F
:10129C001A432A60E3E72A6894490A402A602A68BC
:1012AC0093490A402A60002BD9D100F0D5FE802743
:1012BC000600BF022B683B42A5D000F0CDFE801B80
:1012CC006428F7D9D8E73822874DAB681340EA6811
:1012DC00102B28D103210A40022A26D12A68520554
:1012EC0003D5E268002A00D187E769686269814802
:1012FC00120201400A436A60002B0CD12B687E4A13
:10130C007E491340226913432B602B687C4A9B0453
:10131C005B0FDA400A607B4B186800F055FE002822
:10132C0000D173E769E7002BD8D0E368002B20D0FD
:10133C002B68714A802713402269FF0013432B60EE
:10134C0080232A685B0013432B6000F085FE0600A7
:10135C002B683B4207D06A68636966491B020A40E6
:10136C0013436B6052E700F077FE801B0228EFD925
:10137C0082E72B68644A802713402B6000F06CFED8
:10138C000600FF002B683B4200D13FE700F064FEF3
:10139C00801B0228F6D96FE73822534DAB681340F7
:1013AC00182B08D12B6E9B0700D433E7A369002BB5
:1013BC0000D02FE721E7A2690123002A10D02A6E62
:1013CC00022713432B6600F047FE06002B6E3B42B0
:1013DC0000D01FE700F040FE801B0228F6D94BE737
:1013EC002A6E02279A432A6600F036FE06002B6E00
:1013FC003B4200D10EE700F02FFE801B0228F6D9ED
:10140C003AE73822384DAB681340202B08D1EB6DEE
:10141C009B0700D402E7A368002B00D0FEE6ECE6A5
:10142C0080220021EB6B52050091134208D1EB6B2B
:10143C001343EB63EB6B13400393039B0123009368
:10144C008027324E7F0033683B4215D0A368012BB6
:10145C0022D1EA6D1343EB6500F0FEFD0227060076
:10146C00EB6D3B4238D0009B012B00D0D6E6EB6BEA
:10147C00274A1340EB63D1E633683B43336000F0FB
:10148C00EBFD019033683B42E0D100F0E5FD019BA0
:10149C00C01A0228F6D9EFE6EA6D052B05D1013BFF
:1014AC001343EB65EA6D0123D4E701218A43EA6516
:1014BC00EA6D03318A43EA65002BCDD100F0CCFDF7
:1014CC0002270600EB6D3B42CDD000F0C5FD114B61
:1014DC00801B9842F6D9CFE600F0BEFD0D4B801B69
:1014EC009842BDD9C8E6C04600100240FFFFFEFF7F
:1014FC00FFFFFBFFFF80FFFFFFC7FFFF0C0000207B
:10150C000024F40008000020FFFEFFFF00700040E4
:10151C00FFFFFFEF881300003821434DAA680A40F3
:10152C00102A53D0414A022B3AD12B688027134002
:10153C002B6000F091FD0600BF042B683B4229D1C3
:10154C00616A236AEA680B43394980260A401343CF
:10155C00E26AB6041343226B1343626B1343A26A11
:10156C0012021343EB6080232A685B0413432B6045
:10157C008023EA685B051343EB6000F06DFD04000B
:10158C002B68334200D04DE600F066FD001B0228AC
:10159C00F6D971E600F060FD801B0228CDD96BE610
:1015AC002B68802613402B6000F056FD0400B60417
:1015BC002B68334204D1EB681E4A1340EB6031E6D2
:1015CC0000F04AFD001B0228F2D955E6012B00D190
:1015DC0013E60322E868216A02408A4200D00CE636
:1015EC007022616A02408A4200D006E6FE21A26A9D
:1015FC00C90101401202914200D0FEE5F822E16AD5
:10160C00920302408A4200D0F7E5E022216B1205DA
:10161C0002408A4200D0F0E5636B400F4007C01ACD
:10162C00431E9841C0B2E9E500100240FFFFFFFEE7
:10163C008C80C111FCFFFEEE0223F0B587B0029343
:10164C00013304930023040000030393000F0133C0
:10165C0083400E4D17006A6B0E0013436B63A3B2ED
:10166C000193230DDBB20593A0235B03C01880020A
:10167C0001A900F0FFFAE40005D4AB68044A13405A
:10168C003B433343AB6007B0F0BDC0460010024093
:10169C00FFFFFF88382370B51D4CA2681A4205D194
:1016AC0023681C489B045B0FD84070BDA2681A408D
:1016BC00082A27D0A2681A40102A17D1E368E168DB
:1016CC00DB43E5684906490F6F322D0A013115409D
:1016DC009B0709D11048FEF707FDE1686843490FE5
:1016EC000131FEF701FDE0E70A48F4E7A2681A4071
:1016FC00202A09D0A26800201340182BD5D1FA203B
:10170C00C001D2E70448D0E780200002CDE7C046F4
:10171C00001002400024F400001BB700F7B50400D1
:10172C000D00002801D10120FEBD0727484E33686B
:10173C003B408B422AD3226893073BD4D20748D430
:10174C00072733683B40AB420AD93368BB432B4372
:10175C00336000F081FC019033683B40AB4268D1B0
:10176C0023683C4D5B076CD4FFF794FFAB683A4998
:10177C001B051B0F9B005B581F210B40D840374AA1
:10178C00374B1060186800F01FFCCDE73368BB4383
:10179C000B43336000F060FC019033683B40AB427C
:1017AC00C9D000F059FC019BC01A2E4B9842F4D9B9
:1017BC000320B9E72749530704D5E0238868DB01E8
:1017CC0003438B608B6828480340A06803438B60FD
:1017DC00B4E760681F4F032829D8FEF771FC20027C
:1017EC001C243B689B039ED50722BB689343034391
:1017FC00BB6000F031FC01903823BA681A40636872
:10180C00DB009A429CD000F027FC019BC01A154BC0
:10181C009842F1D9CCE73B689B01E5D483E73B6860
:10182C005B05E1D47FE73B6E9B07DDD47BE7FB6D6B
:10183C00FAE700F011FC019BC01A0A4B98428BD9B5
:10184C00B6E7AB68094A1340E2681343AB608BE719
:10185C000020024000100240645800080C000020D8
:10186C000800002088130000FFF0FFFFFF8FFFFF30
:10187C00064B07499B68074A5B045B0F9B005B5850
:10188C001F2110680B40D8407047C0460010024022
:10189C00445800080C000020F0B50368040085B023
:1018AC0000209B0352D58022704D5205EB6B0090AB
:1018BC00134208D1EB6B1343EB63EB6B13400393B5
:1018CC00039B012300938027694E7F0033683B43C1
:1018DC00336000F0C1FB019033683B4228D0EA6DC5
:1018EC00C02311009B00634E19401A4219D0236B80
:1018FC008B4216D08022EB6DE86D19005202024328
:10190C00EA65EA6D5C4831400240EA65E965DB074F
:10191C0007D500F0A1FB07000222EB6D134200D1AA
:10192C009CE0EB6D226B334013430020EB6506E02B
:10193C0000F092FB019BC01A0228CDD90320009B1A
:10194C00012B03D1EB6B4D4A1340EB632368DA0791
:10195C0006D5032545494A6DAA4365682A434A655D
:10196C009A0706D50C2541494A6DAA43A5682A4316
:10197C004A65DA0606D53D49414D4A6D2A40E5686F
:10198C002A434A659A0506D538493E4D4A6D2A4088
:10199C00A5692A434A655A0506D534493A4D4A6D1C
:1019AC002A40E5692A434A659A0606D52F49374DE0
:1019BC004A6D2A4025692A434A655A040FD52B499A
:1019CC00256A4A6D920092082A434A658022D20504
:1019DC00954204D18022CD6852022A43CA601A0370
:1019EC0006D5402521494A6DAA43656A2A434A65B2
:1019FC009A020FD51D49264E4A6DA56A32402A43DC
:101A0C004A658022D203954204D18022CD685204CB
:101A1C002A43CA605A020DD5144D1E4E696DE26AF6
:101A2C00314011436965802149048A4202D1E96839
:101A3C000A43EA601B050FD50C4A6169536D164CBD
:101A4C0023400B4353658023DB01994204D180234F
:101A5C00D1685B020B43D36005B0F0BD00F0FCFA1B
:101A6C000E4BC01B984200D856E767E700100240A7
:101A7C0000700040FFFCFFFFFFFFFEFFFFFFFFEFCA
:101A8C00FFF3FFFFFFFFF3FFFFFFCFFFFFCFFFFFD2
:101A9C00FFFFBFFFFFFFFFFEFF3FFFFF88130000AC
:101AAC000020054B5A69824205DA044A9A60044ABE
:101ABC009A605869C00F70470020024023016745A7
:101ACC00AB89EFCDF8B5040000F0C6FA802706000C
:101ADC007F02144D2B693B4216D12A69124B11001F
:101AEC001248194028611A4217D18027FF022B692E
:101AFC00180038403B420FD0631CF8D000F0ACFA11
:101B0C00801BA042F3D306E0631CE3D000F0A4FAE0
:101B1C00801BA042DDD30320F8BD054B012059608A
:101B2C00FAE7C04600200240FAC30000FBC30000E5
:101B3C0020020020F7B5174E0193337804000D00F6
:101B4C0002200092012B1ED00123FA2033700023B7
:101B5C0080007360FFF7B6FF002812D10E4F012CE6
:101B6C0012D17B6923437B61009B2B60BFF36F8F8A
:101B7C00019B6B60FA208000FFF7A4FF7B69A343F5
:101B8C007B6100233370FEBD2800009903F0DCFB61
:101B9C00F0E7C0462002002000200240FA2010B5D9
:101BAC008000FFF78FFF8022044B120659690A430D
:101BBC005A615869C043C00F10BDC0460020024096
:101BCC00044A05485369C90003401943034B0B43AE
:101BDC00536170470020024007E0FFFF0200010044
:101BEC00F7B5214F05003B7802240191012B1AD047
:101BFC000123FA203B70002380007B60FFF762FF1B
:101C0C00041E0ED104236B602B68042B0DD1FA201B
:101C1C00164A174B516980000B435361FFF752FF73
:101C2C00040000233B702000FEBD0123019A5B429F
:101C3C001360AE68AB68EA689B18B3420CD968684D
:101C4C003100FFF7BDFFFA208000FFF73BFF0028B3
:101C5C0008D00400019B1E600221044A53698B4387
:101C6C005361DEE70136E5E7200200200020024048
:101C7C00040001000023F0B585B00A681400DC40B4
:101C8C0001D105B0F0BD012514009D402C400094FD
:101C9C002A4200D191E04A685F00944603226446D0
:101CAC0022400324BC40E4430194541E012C2ED842
:101CBC008668019C2640CC68BC40344384604468F0
:101CCC000126AC4325006446240934409C402C4337
:101CDC004460C568019C25408C68BC402C43C460A2
:101CEC00022A16D107250F261D40AD00AE40DC0898
:101CFC00A40004190294246A03962600039CA643AC
:101D0C0034000E69AE402643029C266201E0032A91
:101D1C00DFD1BA400468019D25402A43C0240260EB
:101D2C006246A402224248D0254A03259C08A400FE
:101D3C00A4180F221D40ED00AA40A027266EFF0517
:101D4C0096430022B8420CD01E4F0132B84208D044
:101D5C001D4F0132B84204D01C4F0332B84200D19F
:101D6C00023AAA40674632432266154C009A26680E
:101D7C00009DD2433543FF0201D435001540674620
:101D8C0025606668009D3543BF0201D435001540BF
:101D9C00674665600E4C009DE66F3543BF0301D46A
:101DAC00350015406746E5670A4C009EE56F2E43EB
:101DBC00FF0301D415402E00E66701335DE7C046F2
:101DCC00001802400004005000080050000C0050A5
:101DDC000818024004180240F0B500230F0085B02B
:101DEC003A00DA4001D105B0F0BD01229A4014004E
:101DFC0001923C40174253D02A4903259A0892007D
:101E0C0052180F211D40ED00A940166E02910E4094
:101E1C000396A0260021F605B0420FD022498C462D
:101E2C00012160450AD021498C460221604505D02C
:101E3C001F498C460521604500D10239A940039DFC
:101E4C00A94212D11B4E1749F56FA543F5671A4EDF
:101E5C00F56FA543F5674D68A5434D600D68A54327
:101E6C000D60116E029CA1431166032459008C4035
:101E7C0007210F26194089008E40026801992243E0
:101E8C000260DA0892008218156AB54315628268FE
:101E9C00A243826042688A434260C268A243C26025
:101EAC0001339DE700180240000400500008005068
:101EBC00000C00500418024008180240002A01D0FF
:101ECC00816170478162FCE710B5114C11492368A0
:101EDC0002000B4003432360802300209B009A42A6
:101EEC000ED10D4B0D49186806235843FEF7FCF82C
:101EFC008022431CD200616908001040114200D1BD
:101F0C0010BD002B01D0013BF5E70320F8E7C046DC
:101F1C0000700040FFF9FFFF0C00002040420F0052
:101F2C0010B5FF2403220B0021000240D200914087
:101F3C009B012340C943934000280ADBC0240B4A71
:101F4C00800880008018A40002590A4013430351F2
:101F5C0010BD0F2210400838054A800880008018F8
:101F6C00C26911401943C161F2E7C04600E100E0CB
:101F7C0000ED00E0002809DB1F2318401E3B8340C6
:101F8C00034AD367BFF34F8FBFF36F8F7047C046C1
:101F9C0004E100E08022431E5204012093420DD242
:101FAC00C021074A07485360036A09061B021B0A33
:101FBC000B43036200200723906013607047C046F8
:101FCC0010E000E000ED00E070B5104B0500197852
:101FDC00002901D1012070BDFA208000FEF784F8A1
:101FEC000B4C01002068FEF77FF8FFF7D3FF041EAF
:101FFC00F0D1032DEED80200012029004042FFF75A
:10200C008FFF044B20001D60E5E7C0460400002054
:10201C000C000020080000208023084A5B00116897
:10202C0010B50B4300201360FFF7CEFF041E03D145
:10203C00FEF788FB200010BD0124FBE700200240C6
:10204C00034A044B11681B785B1813607047C04639
:10205C003C02002004000020014B18687047C04669
:10206C003C02002070B50400FFF7F6FF0500631C6E
:10207C0002D0044B1B78E418FFF7EEFF401BA04284
:10208C00FAD370BD04000020034A044913680B40C6
:10209C00034313607047C04600000140FFF9FFFF87
:1020AC0030B5EFF31084012282F310880168134DD0
:1020BC000B682B400B6084F31088EFF3108182F3D4
:1020CC00108802680E4C93682340936081F310884B
:1020DC00C36E012B0AD1EFF3108183F31088102407
:1020EC0002681368A343136081F310880300202255
:1020FC008C331A600023C366436730BDDFFEFFFFDD
:10210C00FEFFFFEF70B505000120002D19D02E0049
:10211C0024230024883633602B681A6882431A60A3
:10212C0028001C605C609C60FEF7ACFB2B00200060
:10213C0090331C60043B34601C60EC662C67843567
:10214C002C7070BDF8B504002569A26823682A4379
:10215C0065691968C0692A43734D024329400A43D3
:10216C001A605A687149A5690A40E1680A437049C6
:10217C005A608B4201D0226A15439A686D4E3240E8
:10218C002A430F259A60DA6AAA43656A2A43DA62FF
:10219C00694A934225D1694B5A6D03231A40802317
:1021AC001B02022A00D1BBE0032A00D1B2E0012AB3
:1021BC0000D1A8E0984200D17DE0FFF759FB002840
:1021CC0045D0626A5E4B5200D15AFDF78DFF6568AF
:1021DC006B08C0182900FDF787FF0200594B103A15
:1021EC0064E0594A934212D10C22544B5B6D13405C
:1021FC00082B00D192E005D8002B00D081E0802381
:10220C001B02D7E70C2B00D182E0012020E04F4AC3
:10221C009342F4D04E4A9342F1D08B42F5D1C02276
:10222C008021464B12015B6D090113408B4215D086
:10223C0004D8002B07D1FFF71BFB06E09342E4D137
:10224C00802636020BE0FFF725FA061E07D1002088
:10225C00404BA36600236367A367F8BD3E4E626ADA
:10226C00374B5200D75A30003900FDF73DFF03239E
:10227C0065686B438342C8D82B038342C5D30023C4
:10228C003A0030001900FEF7A5F80027060E0B02E5
:10229C00334302026E0892197B41100019002A0088
:1022AC003B00FEF797F82D4BC2182D4B9A42ACD839
:1022BC002368D860CBE7FFF7DBFA0028C7D0626A47
:1022CC001F4B5200D15AFDF70FFF656840006B0899
:1022DC00C0182900FDF708FF02001A4B103A9A4269
:1022EC0000D992E70F23020000079A4393B2400FE4
:1022FC0022680343D360AAE71748E0E7FFF7CAF95F
:10230C005DE780231B029842F8D1FFF7C3F9D4E7AD
:10231C0080231B029842D2D0180052E780231B0264
:10232C009842E9D00C484CE7F369FFCFFFCFFFFF91
:10233C0000800040FFF4FF11003801400010024003
:10234C001A580008EFFF000000440040004800400D
:10235C00004C0040010001000024F40000FDFFFFD0
:10236C00FFFC0F00836A30B51A0706D50168284CAC
:10237C004A682240846B22434A60DA0706D501681A
:10238C00244C4A682240C46A22434A609A0706D504
:10239C000168214C4A682240046B22434A605A0768
:1023AC0006D501681D4C4A682240446B22434A60A2
:1023BC00DA0606D501681A4C8A682240C46B22439F
:1023CC008A609A0606D50168164C8A682240046C0D
:1023DC0022438A605A0610D50168134D4A68446C32
:1023EC002A4022434A6080225203944205D14A6813
:1023FC000E4C2240846C22434A601B0606D50268B0
:10240C000B4953680B40C16C0B43536030BDC04645
:10241C00FF7FFFFFFFFFFDFFFFFFFEFFFFFFFBFF47
:10242C00FFEFFFFFFFDFFFFFFFFFEFFFFFFF9FFF50
:10243C00FFFFF7FFF7B504000D00170000932268AB
:10244C00D3692B405B1B59424B41BB4201D000204E
:10245C0026E0089B0133F3D0FFF7FEFD009BC01A6A
:10246C00089B98422DD8002B2BD023681A68520752
:10247C00E5D52A004021403A8A43E0D0DA690826A3
:10248C0011003140019132420BD020001E62FFF747
:10249C0007FE230090331E60002301208434237038
:1024AC00FEBD8022D96912011142C8D01A622000E7
:1024BC00FFF7F6FD2300202290331A60019B843431
:1024CC0023700320ECE70000030073B50026040022
:1024DC0090331E60FFF7C0FD236805001B681B07C7
:1024EC001FD58021284B3200009389030300200064
:1024FC00FFF7A0FFB04214D0EFF31081012383F358
:10250C0010888020226813688343136081F310883D
:10251C002300202288331A60032000238434237084
:10252C0076BD260023688C361B685B0723D580217B
:10253C00154B0022009320002B00C903FFF77AFFF4
:10254C00002818D0EFF31080012282F31088216844
:10255C000E4D0B682B400B6080F31088EFF310804E
:10256C0082F3108821688B6893438B6080F310880A
:10257C0020233360D0E723002022002088331A6008
:10258C003260E0662067C8E7FFFFFF01DFFEFFFF58
:10259C0070B5041E01D1012070BD050088352B6873
:1025AC00002B04D1020084321370FEF72BF9242384
:1025BC00012122682B6013688B431360A36A002BE4
:1025CC0002D02000FFF7CEFE2000FFF7BBFD012854
:1025DC00E1D0236809495A6820000A4022215A6038
:1025EC009A688A439A60082299680A439A60012281
:1025FC0019680A431A60FFF767FFCDE7FFB7FFFFC3
:10260C00F7B50700436E04006A37002B04D1012094
:10261C00388068342080F7BD03680B4E9A689B683D
:10262C000A4D5B0FF05CE95CC0000192FDF7E6FD22
:10263C00019B38801B015B0FF05CE95CC000FDF76F
:10264C00DDFD80B2E5E7C0463A5800083258000874
:10265C0070B504008434227803000220012A11D0C2
:10266C001D002422012688352A601A68116810681A
:10267C00B0431060044801400020586620231160CC
:10268C002B60207070BDC046FFFFFFDFF8B5050062
:10269C0084350B0029780222012915D0060001216E
:1026AC000468883622323260276822688A432260A6
:1026BC00A168C900C9081943A160FFF7A1FF202335
:1026CC000022276033602A701000F8BDF8B50500B1
:1026DC0084350A0029780223012915D0060001212E
:1026EC000468883622333360276823688B43236061
:1026FC00A168064B19401143A160FFF781FF20230D
:10270C002760336000232B701800F8BDFFFFFFF12A
:10271C00704700000B490C4A0300521A0B4910B5C4
:10272C000868002801D10A480860C318934206D9EA
:10273C0001F026FE0C2303600120404210BD0B600B
:10274C00FCE7C0460004000000900020400200207E
:10275C008829002070B50E0014000025A54201DB6D
:10276C00200070BD00E000BF70550135F6E7012078
:10277C004042704780239B0100204B607047012032
:10278C0070470020704770B50C008969050000295E
:10279C0004D0406800F02BFE0023A36128682100C0
:1027AC0000F025FE70BD0A7C03001430F02A00D125
:1027BC00703A8A721A7ECA725B7E0B730B718B7CB9
:1027CC004B717047F8B504004669E369002B09D1D9
:1027DC00206800F0FFFDE061002803D11A4800F0EA
:1027EC0047FEF8BD300033689847071EF9D0E569FD
:1027FC0024220021280001F06DFDAF61237E28000A
:10280C00AB71FB797F2B0CD900F0F2F9002803D1C6
:10281C00AB8AA068002807D129002000FFF7B3FF7E
:10282C000EE000F0F7F8F1E702899A4201D0006857
:10283C00F0E7037E002BEFD129000C3000F0D7FD20
:10284C000023E361C1E7C046BD53000870B50D001D
:10285C00FFF7A9FF0424061E03D0AB7A102B02D17C
:10286C000224200070BD2800002B0AD100F0A2F831
:10287C00041EF5D13068A96943689847AC61EC61D6
:10288C00EFE700F043F9F3E770B50B7C06000C00A2
:10289C00102B1FD18B8A8568002D04D121003000AC
:1028AC00FFF771FF13E02A899A4201D02D68F3E7F4
:1028BC002B7E002BF2D120002100032210310A3094
:1028CC0001F093FD280021000C3000F090FD002554
:1028DC00280070BDFFF7BAFF80235B4203432372CD
:1028EC00E3790500DB07F3D421003000FFF74BFF41
:1028FC00EEE710B503894068CB81FFF7C5FF10BD2B
:10290C004269030010B5101E03D00C33180000F000
:10291C0061FD10BD0100406810B50B898468002C66
:10292C0004D1083000F063FD200010BD22899A42CA
:10293C0001D02468F3E701204042F6E710B504000B
:10294C004069002803D161612276637610BD0120B5
:10295C004042FBE770B504000E0015000021182260
:10296C00083001F0B7FC2660656070BD030030B51F
:10297C00C569007C002817D1DC890D4A944210D11E
:10298C00013830BD0133DB7F002B0DD02B783F227B
:10299C001C009443802C07D11340013213430B705D
:1029AC00EFE79C8A9442EDD001204042E9E7C04613
:1029BC00CDCD000070B58569037BE91D2B71837C3F
:1029CC0004006B71FFF7D2FF431C03D000200134CD
:1029DC00E37FAB7170BD00000B7810B57F2B02D973
:1029EC000120404210BD0024030082798472C2721F
:1029FC00427402790474027342790A3382740A783D
:102A0C005206EDD4024A9A800B7883820120E9E7C2
:102A1C00CDCDFFFF70B5856904002B79E91D0371DD
:102A2C006B794371FFF7D8FF431C07D02B000020B4
:102A3C000833E361AB790134013BE37770BD0000EF
:102A4C00827AF0B5A03A53425A41037C5200F02BE3
:102A5C0001D1EF3B1A43802314015B4223430B70DB
:102A6C00040002230A341A420AD063784B70A2780D
:102A7C00CB1C8A70427C1A70827C5A70023302E042
:102A8C004B1C002AF6D1A2881D4F0025868ABA421B
:102A9C0004D0FF359542AD416D420135BE421FD188
:102AAC00184E92195642724152002E011643013EA5
:102ABC000627102E01D8144FBF570E783E430E70C8
:102ACC00002D04D0A6881E70022D0FD00133002AD1
:102ADC0004D0848A1C70022A0DD00133581AF0BD20
:102AEC00FF22B242924152420132DEE7A488240A0C
:102AFC005C700233EBE7828A120A5A700233EDE7FC
:102B0C00CDCD00003332FFFFA458000870B58569A5
:102B1C000379E91D2B71437904006B71FFF790FF6A
:102B2C00002804DB0134E37F1B180020AB7170BD5F
:102B3C000B783722F0B51C0094432200802C51D125
:102B4C0004001D090A349B0622D5A02383724B78FE
:102B5C0063708A78CB1CA270A022ED0700D550328E
:102B6C0002741A7842745A780233062582740A78F1
:102B7C002A40022A18D0042A23D0002A23D11B4A27
:102B8C00A28001221C788482022A25D0013316E00F
:102B9C0086798272667007794B1CA770AF07DBD100
:102BAC00027446744279E0E7002201261D78A58064
:102BBC00022E0BD00133002AE4D10C4A8282581A1F
:102BCC00F0BD0122F1E702221600EFE75E78023336
:102BDC0036023543A580EEE75A78023312021443CD
:102BEC008482ECE701204042EAE7C046CDCDFFFFEE
:102BFC0070B5856904002B79E91D03716B794371FC
:102C0C00FFF796FF002807DB2B180733E361AB793E
:102C1C0001341B1A0020E37770BD000010B5837AD5
:102C2C0001000020102B06D0CA89834204D1124B1C
:102C3C00D0184342584110BD0520A02B04D00B7C6A
:102C4C000238F02B00D002380C4CA24205D0FF23E6
:102C5C0093429B415B420133C018898AA14203D144
:102C6C00A242E8D1022304E0FF238B429B415B424A
:102C7C000133C018DFE7C0463332FFFFCDCD000073
:102C8C00F0B58DB00A920200394B0991040023CBA8
:102C9C0023C200251B682E00136001235B420393A3
:102CAC000193059504950123B3401F270893099BB5
:102CBC0078100130C018B91CFDF716FA2D4B98424C
:102CCC0017D92D4B984216D82C4BC318DA179B18D2
:102CDC0053400A225A4300239C46089B07925B08E8
:102CEC0042000B9301239C44802312189B009C45AB
:102CFC0013D1013FDBD20136032ED4D1022D00D1EA
:102D0C0035002000059B25712370049B6380019B7B
:102D1C00A360039BE3600DB0F0BD194B9A42E1D95F
:102D2C00184B9A42E5D80B9B0A999B18F3405B1AF7
:102D3C00D9175B184B40144902935118CB17C9187B
:102D4C005940079BCB1806930299019B994204D3D7
:102D5C00C8D1039B06999942C4D2FBB20593634632
:102D6C009BB20493069BF5B20393029B0193B9E7C4
:102D7C008C5300083F420F00C0E1E40000EE85FFD9
:102D8C00FFE0F5050065CD1D005D1EEE84B070B54D
:102D9C00D4B2060005AD0591032C00D1013C297875
:102DAC004810013080190231FDF79EF96B8802330F
:102DBC005843E04070BC08BC04B01847F7B5012775
:102DCC000500002643080F4C01937F42019B29000C
:102DDC001819FDF789F9010040080019FDF784F96D
:102DEC00431BDA179B185340BB4203D2854207D0D2
:102DFC001F002600044BE418044B9C42E6D134001F
:102E0C002000FEBD80D1F008C0F2FCFFC0D3F2055B
:102E1C0010B51C3000F0DEFA10BD10B5283000F0F3
:102E2C00E6FA10BD73B504001D006B460800D91DF1
:102E3C006368087016001A689B88206893620123E7
:102E4C0001225B42FDF7EDFE0123AAB2310020689E
:102E5C005B42FEF7B3F863681A689B88936173BD95
:102E6C0073B504001D006B460800D91D636808701B
:102E7C0016001A689B8820689362012301225B422A
:102E8C00FDF7CFFE0123AAB2310020685B42FDF7AB
:102E9C00C8FE63681A689B88936173BD13B56B4653
:102EAC00DC1DFF2322002370806BFE3BFFF7BAFF73
:102EBC00207816BD07B513006A46D37180230732FC
:102ECC001943806B7F3BFFF7CBFF07BDF0B506695D
:102EDC000400480885B080190F000392FDF704F92F
:102EEC00039B013885B2580819008019FDF7FCF8CE
:102EFC00013886B2EAB220000C21FFF7DBFF20007C
:102F0C002A0A0D21FFF7D6FF2000F2B20E21FFF79F
:102F1C00D1FF2000320A0F21FFF7CCFF019600955C
:102F2C003A000348039BA16800F0A2FA05B0F0BD7B
:102F3C00D1530008F0B50F0085B00C211600050028
:102F4C00FFF7ACFF0D2101902800FFF7A7FF0E2122
:102F5C0004002800FFF7A2FF0F2102902800FFF7C2
:102F6C009DFF019B2102194389B22B69013103900A
:102F7C004810C018FDF7B8F8039B38601902029B83
:102F8C00194389B22B6901314810C018FDF7ACF810
:102F9C00306005B0F0BD0000F0B504000800A16879
:102FAC0089B015000E9E002901D1A249A160A24A48
:102FBC00A0612260A14AA2486260A363E66300F0AC
:102FCC0057FA002E0BD03368B28802209A62FFF7B2
:102FDC0049F83368B28802209A61FFF743F800235E
:102FEC00FF26029300212000FFF758FF0300013B4E
:102FFC00DBB200270390FD2B00D90FE1864200D0F5
:10300C000CE1029B5F1CFFB20B2B00D006E13200DF
:10301C00A1688C4800F02CFA00220D231100B34259
:10302C005241267322750F2E00D8FDE0802220001D
:10303C000131FFF73FFF00212000A668FFF72EFFAC
:10304C00814B02003100180000F012FA10223521D9
:10305C002000FFF72FFFA868FFF7B0FE04AF0200B7
:10306C007A4920613800FFF70BFE079B7E88049994
:10307C00059A00937548069BFFF788FE0290029A0A
:10308C007348216900F0F4F9029B3A7823613221EC
:10309C002000FFF70FFFF2B230212000FFF70AFFEC
:1030AC003B79320A1B011A43D2B231212000FFF7BF
:1030BC0001FF32212000FFF7F1FE30210600200035
:1030CC00FFF7ECFE312107002000FFF7E7FE3A0086
:1030DC00030031005F4800F0CBF933212000FFF7EB
:1030EC00DDFE5D4B0100180000F0C2F91022332107
:1030FC002000FFF7DFFE36212000FFF7CFFE574BF5
:10310C000100180000F0B4F9012220001100FFF7B3
:10311C00D1FE36212000FFF7C1FE514B01001800F3
:10312C0000F0A6F900212000FFF7B8FE4D4B01007E
:10313C00180000F09DF902212000FFF7AFFE0E23CE
:10314C00AA7B18400233012A00D110330122184304
:10315C00024302212000FFF7ADFE20002A780B214C
:10316C00FFF7A8FE20002A7B1A21FFF7A3FE200000
:10317C006A7B1B21FFF79EFE20002A7C0521FFF7AE
:10318C0099FE2A8A20000621120AFFF793FE2000DE
:10319C00AA7C0721FFF78EFE6A8A20000821120AFA
:1031AC00FFF788FE20002A7D0921FFF783FE20000F
:1031BC00AA686968FFF78AFE20003F221621FFF7F4
:1031CC0079FE2A002000291D0832FFF7B3FEAA68F9
:1031DC006968254800F04CF90B212000FFF75EFED2
:1031EC001A2106002000FFF759FE1B2107002000C2
:1031FC00FFF754FE1D4D03003A003100280000F08B
:10320C0037F910212000A568FFF748FE184B020083
:10321C002900180000F02CF909B0F0BD002000F0D6
:10322C00BBF9039E0297DDE6124B31001248236175
:10323C007FE7C046F65300081D2E0008272E000815
:10324C00FC5300080C540008225400080024F4001D
:10325C00495400086B54000892540008A554000807
:10326C00BA540008E05400082E55000850550008C8
:10327C007B550008005A620203550008F8B510216E
:10328C000400FFF70BFEDC230500184237D00307C0
:10329C000BD54A48A16800F0EBF8237D002B04D035
:1032AC00042216212000FFF705FEEB060BD544483F
:1032BC00A16800F0DDF8237D002B04D00822162134
:1032CC002000FFF7F7FD6B060BD53E48A16800F018
:1032DC00CFF8237D002B04D0042217212000FFF708
:1032EC00E9FD2B060BD53848A16800F0C1F8237D09
:1032FC00002B04D0082217212000FFF7DBFDAB07C1
:10330C0022D5A06900F066F8061E44D00323021DE6
:10331C001421A06BFFF786FDB379FD2B34D8142153
:10332C00A06BF21DFFF77EFD002703221621200063
:10333C00FFF7C0FD002F2AD02448A16800F098F8B0
:10334C003100A06900F053F8270034373B78002B8C
:10335C0029D1A36A002B16D02000283000F03AF8AF
:10336C0083790600021D9521A06B0333FFF778FDCE
:10337C00AD0615D5032217212000FFF79BFD310068
:10338C00A06900F034F8F8BD01277F42CDE720009A
:10339C0031001C30D6E70E48A16800F069F8D3E77D
:1033AC0001233B70EBE7AD06EDD50322172120007E
:1033BC00FFF780FD00233B70E5E7C0468F55000802
:1033CC00A8550008C2550008D9550008F355000847
:1033DC000C56000882680300101E07D01868013ACA
:1033EC0001689A601960002A00D15A60704783689E
:1033FC005A1C8260002B05D0436819600023416081
:10340C000B6070470160F9E770B506004068FFF784
:10341C00E1FF051E08D03068FFF7DCFF041E06D163
:10342C0029007068FFF7E3FF0024200070BD242200
:10343C00002100F04FFFA561F7E7000070B50B4BC2
:10344C0004001A89C281027C102A03D180690730DA
:10345C00E06170BD01005868FFF7A5F92000A5696F
:10346C00FFF7DCFB043503302818F1E710000020CF
:10347C000FB43A4BF7B51B68002B02D01B78002B0E
:10348C0008D109A90898019100F044FEF7BC08BCCA
:10349C0004B01847324B5A6812689268002AF5D06B
:1034AC00EFF3108272B6596808688068092803D94E
:1034BC0049688968092906D82A490B6801330B60C9
:1034CC0082F31088E2E7284D2C68002C2CD00023C6
:1034DC002B6082F31088A22109AB0193671CFA7F41
:1034EC00E069891A8018089A00F04CFEA123FA7F33
:1034FC009B1A834200DD0300D218FA77EFF3108693
:10350C0072B6FA7FE3699B18013B1B780A2B04D037
:10351C00A12A02D02B68002B1DD021001348FFF7E5
:10352C0066FF86F31088B1E782F310885868FFF7BE
:10353C006BFF041EAAD00E4B06221968103000F047
:10354C0054FF2000FFF77AFF4022E3691A70631CD6
:10355C003F3ADA77BFE72C60E3E7C0466002002011
:10356C00100000204C0200204802002050020020D5
:10357C005C020020054B10B55860054801600549F8
:10358C0018000A60FFF7C6F910BDC04610000020F5
:10359C005C0200206002002070B50F4D0F4E2968B0
:1035AC0032680F4C914209D063681B689B68092BE9
:1035BC0004D90C48FFF75CFF33682B6063685B69C8
:1035CC00002B08D00848FFF705FF011E03D0200090
:1035DC00FFF78FF9F2E770BD440200204C02002087
:1035EC00100000202A5600085002002070B500235D
:1035FC008026100095B2064A9CB2A54200D870BD38
:10360C00D4693442FCD0CC5C01339462F4E7C046FC
:10361C00003801408C22F8B51A4C1B4B1B4E002174
:10362C00920020001D88378800F054FE184B0122B0
:10363C002360FE232373E1235B0223616361012377
:10364C0020005B422383134B1349E361631CDA773D
:10365C002630023200F0C9FE092363850F4B9F42CE
:10366C000ED12D0A012D0BD18B223100920020009E
:10367C0000F0BBFE032200210948257100F02AFE50
:10368C00F8BDC0466402002002F8010800F80108E9
:10369C00CDCD00011400C8009C530008CDCD000016
:1036AC0069020020F0B50D00174B04000340D90A45
:1036BC005B19DA0A5B05581E8341521AD218012392
:1036CC008BB05B4205930333069302330793089147
:1036DC000992FEF7E5F906AF061E04D1380005A9DC
:1036EC00FEF77EFA0600FEF759FA059B0643029692
:1036FC000193FB682A00009321000448BB68FFF784
:10370C00B7FE30000BB0F0BDFFFFFFF741560008CD
:10371C00F7B50731CB08160001900093FEF7C0F9FE
:10372C00340005000027002D02D1009B9F4203DBD3
:10373C00FEF734FA2843FEBD6278237812021A434E
:10374C00A37821791B041343E278012012061A4353
:10375C00637901371B020B43A17909041943E379FF
:10376C001B060B430199891B0919FEF7E3F9083471
:10377C000500D8E7802110B50E480901FFF792FF2C
:10378C00002802D00C48FFF773FE8B210B4A094826
:10379C008900FFF7BDFF041E06D18B210848890064
:1037AC00FFF766FE200010BD0648FFF761FE0124FE
:1037BC00F8E7C04600F801087256000864020020C1
:1037CC0092560008BE5600084278037812021A433B
:1037DC008378C0781B04134300061843704700001D
:1037EC00816970B50400064D002904D06868FFF7A4
:1037FC00FEFD0023A36128682100FFF7F8FD70BDD2
:10380C001405002070B503890C00CB810B7C102BA8
:10381C0003D188690730E06170BD4068FEF7C3FFD3
:10382C002000A569FFF7FAF9043503302818F2E7F0
:10383C00F0B5174887B0FFF76DF81648FFF76AF830
:10384C0001AC1548FFF766F811221449200000F06E
:10385C00CCFD134B0F261A001249134D0878013179
:10386C0007093040E75D205C1F7058700233A94295
:10387C00F4D100230D4C137620000D4B0D4900F0B4
:10388C00DBFB21000C48FFF7F3FD07B0F0BDC04691
:10389C002C00002048000020640000200E57000877
:1038AC00F80400209075FF1F9C75FF1F94040020E6
:1038BC00DC560008E456000801570008F7B5974F8E
:1038CC00FB79002B03D00023FB71FFF753FF7A79B0
:1038DC00002A0DD0924B1968924B13430B60BFF327
:1038EC004F8F914B914ADA60BFF34F8FC046FDE783
:1038FC008F4E3000FFF704F8041E25D0010006227D
:10390C00C5690A31103000F070FD21003000FFF75E
:10391C0079FF631C0093DB7F012B4ED12B78002B9E
:10392C004BD18022E369834D1A70E0692900013084
:10393C0000F053FD2800FCF7BBFB631C0130D8776B
:10394C0021003000FEF7D5FF7B4B18000093FEF7EB
:10395C00D7FF041E00D184E001000622C5690A319C
:10396C00103000F042FD21000098FFF74BFF621C65
:10397C002B780192D17F002B26D104296BD1AB7807
:10398C006E78ED781B021E43FB2D00DDFB25E069F4
:10399C002A00B919013000F028FD2A0031006748CF
:1039AC00FFF766FD8022E36901351A70631CDD7731
:1039BC0021000098FEF79DFF53E06148FFF758FD8A
:1039CC002000FFF70DFFBFE7202B2AD1032942D996
:1039DC008C20AE786B7836021E43331C80008642F6
:1039EC0000D9031C0339CAB20192B2189BB28242AD
:1039FC0001D98C22920091B28B4206D0991B0331D3
:103A0C00F818D21A691800F0F0FC019A31004D48F0
:103A1C00FFF72EFD0122631CDA77E3697F321A70FF
:103A2C00C6E7012B17D1042915D1EE78FB2E00DD4A
:103A3C00FB26A9786B780902E0691943424B3200E6
:103A4C00C918013000F0D1FC8022E36901361A70EC
:103A5C00631CDE77ACE73D48FFF70AFD2000FFF75B
:103A6C00BFFE3B4B18000093FEF74AFF041E53D0D9
:103A7C000100C56906220A31103000F0B6FC2100A5
:103A8C000098FFF7BFFE2B78671CFE7F2F2B14D1FD
:103A9C00092E3AD1681CFFF797FE0600681DFFF748
:103AAC0093FE01003000FFF7FDFD0123FB77431E61
:103ABC009841E3698030187015E0002B18D1062E60
:103ACC0023D1681CFFF780FE6D790100FB2D00DD12
:103ADC00FB25E0692A00013000F087FC8022E369B5
:103AEC0001351A70FD7721000098FEF702FF13E0F4
:103AFC00202B0AD1052E08D9681C053EFFF764FE61
:103B0C006A1DF1B2FFF704FECFE712483100FFF750
:103B1C00AFFC2000FFF764FEF7BDC0466402002036
:103B2C00AC0000200000CDCD00ED00E00400FA0553
:103B3C006400002094040020480000203257000844
:103B4C001F57000848570008B85800085F5700086E
:103B5C002C0000207B570008F0B56E4887B000F0B1
:103B6C0061FAFFF757FD6C4A6C4ED37F6C4F05938F
:103B7C00336819686B4BCB1858424341BB716A4B85
:103B8C00994201D00023D377684B694A18006949E0
:103B9C000393FFF7EFFC684B684D19002A0003985C
:103BAC0004930024FEF7D6FE822149006143644B46
:103BBC002800C9180134FFF71AFC1E2CF4D100247C
:103BCC00242161435F4B0498C9180134FFF70FFCA3
:103BDC001E2CF5D15C495D4C5D4B009120002900F9
:103BEC005C4AFFF7D9F9BB79002B0AD1E1225202CA
:103BFC0011002000FFF76AF93F2216212000FFF781
:103C0C0059F921003B7B3A7A0398FEF797FEFFF7B0
:103C1C000FFE3B795049002B00D050493368504877
:103C2C001A6800F099F94F4C2368A2889A61FEF744
:103C3C0013FA0600BD79FEF70FFAC823801B002D7E
:103C4C0000D0643B984208D9FEF706FA2368A28894
:103C5C00196906000A424ED19A61BB79002B1CD11E
:103C6C00002D19D1FEF7F8F9FA239B00984214D9CC
:103C7C00E12339697A695B02994201D18A4208D001
:103C8C00324D2800FFF722F93F2216212800FFF7BA
:103C9C0011F9059A7B1DDA770125BB79002B2CD104
:103CAC00FEF7DAF9FA23DB00984226D92E4B2F487F
:103CBC001E682F4B1D682F4B1A689B889362A28835
:103CCC0023689A6200F0AEF92B4B18684023016808
:103CDC00CA691A42FCD0FEF715FA1D4B1868FCF79E
:103CEC0089FFFDF72BFA01204042FEF743F986F3DA
:103CFC000888A847FEE79A62AFE71448FFF7BEFAB8
:103D0C000398FEF75FFDFFF7D9FD0020FFF744FC99
:103D1C0091E7C046B357000869020020AC000020B0
:103D2C0064020020FFFF32320100CDCD14050020CB
:103D3C00880200208A02002074050020B8090020A7
:103D4C00C4090020800500209000002034050020CC
:103D5C008000002070020020A75700089757000829
:103D6C00CB5700089C00002000600008E8570008B2
:103D7C0004600008A4000020980000200D4885462F
:103D8C00FEF7C6FC0C480D490D4A002302E0D4583E
:103D9C00C4500433C4188C42F9D30A4A0A4C002389
:103DAC0001E013600432A242FBD300F0EFFAFCF7FF
:103DBC00F5FBFEE700900020040000200C01002021
:103DCC00F85A00080C01002088290020FEE70000AA
:103DDC00002310B504000360436083608181436657
:103DEC00C281036143618361190008225C3000F0D9
:103DFC0071FA0B4B246263620A4BA3620A4BE362B7
:103E0C000A4B23630A4B9C4205D00A4B9C4202D0BE
:103E1C00094B9C4203D12000583000F0DBFA10BD56
:103E2C0089400008B1400008E9400008154100082D
:103E3C003C280020A42800200C29002010B5034A9F
:103E4C000349044800F06CF810BDC046B0000020D7
:103E5C006D4F0008C000002041680B4B10B50400EA
:103E6C00994201D001F07CF8A168084B994202D02C
:103E7C00200001F075F8E168054B994202D0200052
:103E8C0001F06EF810BDC0463C280020A42800208C
:103E9C000C29002010B5094B094A04211A60094865
:103EAC000022FFF795FF012209210748FFF790FF39
:103EBC00022212210548FFF78BFF10BD7429002048
:103ECC00493E00083C280020A42800200C29002092
:103EDC0010B5024800F07FFA10BDC0467D290020C5
:103EEC0010B5024800F078FA10BDC0467D290020BC
:103EFC0010B50400FFF7ECFF236A002B02D0FFF78C
:103F0C00EFFF10BD044B2362044B1B68002BF6D152
:103F1C00FFF7C0FFF3E7C046653E00087429002098
:103F2C00F7B51400002600900191A5686768013F61
:103F3C0004D52468002CF8D13000FEBDAB89012BD0
:103F4C0008D90E22AB5E013304D029000098019BE6
:103F5C00984706436835EAE70FB407B5054904AB43
:103F6C00086804CB8168019300F0D4FC03B008BC52
:103F7C0004B01847BC000020036A70B505000E00A1
:103F8C008468002B01D1FFF7B3FF636EDB0705D408
:103F9C00A3899B0502D4A06D00F01DFAA3891B0711
:103FAC0002D52369002B1FD12100280000F038F91D
:103FBC00002819D001256D42636EDB0705D4A38957
:103FCC009B0502D4A06D00F007FA280070BD0136E5
:103FDC00A360002B04DAA269934216DB0A2914D0E1
:103FEC0023685A1C22601970A3683178013B0029A0
:103FFC00EDD1A360002B0FDA220028000A3100F06B
:10400C00CDF80130D6D00A25D6E72200280000F0E2
:10401C00C5F80130E8D1CDE723685A1C22600A228A
:10402C001A70F0E710B5034B01001868FFF7A4FFF6
:10403C0010BDC046BC0000200EB410B500249DB0CD
:10404C00029006900A481FAB07900490094804CBD5
:10405C000590094802A9006801934C6600F02EFBFC
:10406C00029B1C701DB010BC08BC03B01847C046A6
:10407C00FFFFFF7F0802FFFFBC00002070B50C00A3
:10408C000E25495F00F054F9002803DB636D1B1803
:10409C00636570BDA389024A1340A381F9E7C0464A
:1040AC00FFEFFFFFF8B51F008B8905000C00160011
:1040BC00DB0505D50E23C95E0022022300F024F98E
:1040CC00A389054A28001340A38132000E23E15E28
:1040DC003B0000F041F9F8BDFFEFFFFF70B50C009D
:1040EC000E25495F00F010F90C22A35E421C03D18F
:1040FC00044A1340A38170BD802252011343A38153
:10410C006065F8E7FFEFFFFF10B50E23C95E00F006
:10411C00E9F810BD0B0010B503490200086881686E
:10412C0000F0F8FB10BDC046BC00002070B50600C6
:10413C00140008001A009AB0002C05DA8B23012019
:10414C00336040421AB070BD8223694600259B0043
:10415C008B81199500900490AC4200D0651E012310
:10416C005B42CB8130001E9B8D604D6100F0A6FA46
:10417C00431C01DA8B233360002CE3D00022009B1C
:10418C001A70DFE713B5044C009313000A0001000A
:10419C002068FFF7CBFF16BDBC000020F8B5060069
:1041AC000D001400002804D0036A002B01D1FFF786
:1041BC009FFEA369A360A3891B0702D52369002B6B
:1041CC0009D12100300000F02BF8002803D0012584
:1041DC006D422800F8BD23692068EFB2C01A6369EC
:1041EC00EDB2834205DC2100300000F0B9FE00285E
:1041FC00EDD1A3680130013BA36023685A1C2260F7
:10420C001F706369834204D0A389DB07E1D50A2DB3
:10421C00DFD12100300000F0A3FE0028D9D0D6E772
:10422C002B4B70B5050018680C00002804D0036AED
:10423C00002B01D1FFF75CFE0C22A35E1A0722D4DF
:10424C00DA0607D409222A60373201201343A381EE
:10425C00404270BD5A0713D5616B002908D023006A
:10426C004433994202D0280000F0C8F8002363635D
:10427C002422A38993430022626022691BB222602C
:10428C0008221343A3812269002A07D19A0501D57C
:10429C001B0603D52100280000F0B8FE0C23E25EBB
:1042AC00012113000B400A420CD00023A360636968
:1042BC005B42A361002023698342CAD11306C8D58F
:1042CC004023C2E7910700D46369A360F2E7C046BC
:1042DC00BC00002003008218934200D17047197073
:1042EC000133F9E7002370B5064D040008002B607C
:1042FC00FEF73DFA431C03D12B68002B00D0236042
:10430C0070BDC0467829002070B50400080011006B
:10431C001A000023054D2B60FEF733FA431C03D122
:10432C002B68002B00D0236070BDC046782900207C
:10433C0070B50400080011001A000023054D2B6015
:10434C00FEF708FA431C03D12B68002B00D0236026
:10435C0070BDC0467829002070B50400080011001B
:10436C001A000023054D2B60FFF740F9431C03D1C5
:10437C002B68002B00D0236070BDC046782900202C
:10438C00014B18687047C046BC00002070B5002671
:10439C000C4C0D4D641BA410A64209D1002600F054
:1043AC00C7FF0A4C0A4D641BA410A64205D170BD70
:1043BC00B300EB5898470136EEE7B300EB5898473B
:1043CC000136F2E7F05A0008F05A0008F45A0008D7
:1043DC00F05A000870477047704703000A780131A3
:1043EC001A700133002AF9D17047002310B59A4294
:1043FC0000D110BDCC5CC4540133F8E770B5050096
:10440C000C1E10D0043C2368002B00DAE4182800A2
:10441C0000F0E0F81D4A1368002B05D163601460AE
:10442C00280000F0DFF870BDA34208D920682118DD
:10443C008B42F3D119685B6809182160EEE71A000A
:10444C005B68002B01D0A342F9D911685018A04227
:10445C000BD120680918501811608342E0D11868FC
:10446C005B68411811605360DAE7A04202D90C2353
:10447C002B60D5E7206821188B4203D119685B6843
:10448C000918216063605460CAE7C0468429002083
:10449C0070B50F4E0D0031680400002902D100F0F8
:1044AC0025FE30602900200000F020FE431C03D1C3
:1044BC0001256D42280070BD0323C51C9D43A842F5
:1044CC00F8D0291A200000F011FE0130F2D1EFE7EC
:1044DC0080290020F7B50322CB1C93430833050039
:1044EC001F000C2B34D20C27B94233D8280000F013
:1044FC0071F8374E33681C00002C2FD1390028007E
:10450C00FFF7C6FF0400431C5FD134680094009B86
:10451C00002B4AD1002C52D023682800E3180099B4
:10452C00019300F0E3FD019B834248D123682800EE
:10453C00FF1A3900FFF7ACFF013040D02368DB19BC
:10454C00236033685A68002A33D1009B336019E02A
:10455C00002BC9DA0C232B600020FEBD2168C91B7F
:10456C0020D40B290AD9E2192760A34204D1326066
:10457C0063681160536005E05A60F9E76268A34212
:10458C000ED13260280000F02DF8200007220B30ED
:10459C00231D9043C21A9842DFD01B1AA350DCE7AC
:1045AC005A60EFE723006468A6E7009C63680093F9
:1045BC00ADE71A005B68A342FBD10023DAE70C23BA
:1045CC0028002B6000F00EF8C6E70760DAE7C0465B
:1045DC008429002010B50248FFF7FDFE10BDC0462F
:1045EC007C29002010B50248FFF7F6FE10BDC0462E
:1045FC007C290020F0B58E6885B01F000C003300BC
:10460C0002900392BE4254D80C22885E9022D200B3
:10461C0010422CD00322096923685B1A0193636949
:10462C005343019ADD0FED187B1C6D109B182A006B
:10463C00AB4201D91D001A00400527D51100029884
:10464C00FFF748FF061E2AD0019A2169FFF7CDFE1D
:10465C00A289194B1A4080231343A381019B266125
:10466C00F618266065613E00ED1A3B00A5601F0040
:10467C003A000399206800F002FD0020A3689B1B00
:10468C00A3602368DB19236005B0F0BD029800F02D
:10469C004AFD061EE2D121690298FFF7AFFE0C23FA
:1046AC000120029A40421360A28934331343A38140
:1046BC00EAE73E00DCE7C0467FFBFFFFF0B59FB0AA
:1046CC0002901C008B890E0015001B0611D50B697E
:1046DC00002B0ED14021FFF7FDFE30603061002829
:1046EC0005D10C23029A136001204042D4E04023F0
:1046FC0073610023292102AA52180B9320331370E3
:10470C00013102AA10335218137005942C0023782F
:10471C00002B01D0252B48D1671BAC420BD03B00A2
:10472C002A0031000298FFF765FF013000D1AEE09E
:10473C000B9BDB190B932378002B00D1A7E00122F4
:10474C00532100235242079202AA5218651C069369
:10475C000993089313701C93554F29780522380040
:10476C0000F0D6FC6C1C069906AB00281FD1CA06BB
:10477C0004D55327202202A8C01902700A0704D5B9
:10478C0053272B2202A8C01902702A782A2A15D086
:10479C002C0000200A27DA682178651C3039092999
:1047AC0050D9002811D009920FE00134AFE7012352
:1047BC00C01B83400B4325000693CDE7059A101DC3
:1047CC0012680590002A37DBDA6022782E2A0CD189
:1047DC0062782A2A3BD1059A0234111D1268059180
:1047EC00002A01DA012252425A60324D032228007B
:1047FC00217800F08DFC06AF002806D04023401B2A
:10480C008340069A013413430693217806222A48E2
:10481C00651C397600F07CFC00283FD0274B002B20
:10482C0029D10722059B07339343083305930B9B30
:10483C0003995B180B9369E75242DA6002220A4330
:10484C000692C2E77A432C0001205218A4E70022FA
:10485C000A205A601100130001342278651C303A8A
:10486C00092A03D9002BC0D00791BEE741432C0085
:10487C0001238918F1E705AA009239003200104B88
:10488C00029800E000BF0390039B0133CFD1B389A2
:10489C000B985B0600D527E71FB0F0BD05AA009268
:1048AC0039003200064B029800F0C4F9EBE7C04621
:1048BC00F7570008FD5700080158000800000000D9
:1048CC0001460008936810B5013B9360002B04DA95
:1048DC009469A34207DB0A2905D01368581C1060A1
:1048EC001970080010BDFFF759FC0100F9E7F8B585
:1048FC0006000F001400D518AC4201D1002007E0CF
:10490C0021783A003000FFF7DDFF0134431CF3D16E
:10491C00F8BD0000F0B59FB00D0016001C00029011
:10492C00002804D0036A002B01D1FFF7E1FA6B6E6B
:10493C00DB0705D4AB899B0502D4A86DFFF74BFDB3
:10494C00AB891B0702D52B69002B13D129000298C8
:10495C00FFF766FC00280DD06B6EDB0703D501203A
:10496C0040421FB0F0BDAB899B05F8D4A86DFFF792
:10497C0033FDF4E70023292102AA52180B932033AC
:10498C001370013102AA10335218137005943400BD
:10499C002378002B01D0252B48D1A71BB4420BD078
:1049AC003B00320029000298FFF7A1FF013000D133
:1049BC00AEE00B9BDB190B932378002B00D1A7E007
:1049CC000122532100235242079202AA5218661C5C
:1049DC0006930993089313701C93594F3178052251
:1049EC00380000F095FB741C069906AB00281FD10B
:1049FC00CA0604D55327202202A8C01902700A0740
:104A0C0004D553272B2202A8C019027032782A2A07
:104A1C0015D0340000200A27DA682178661C30395A
:104A2C00092950D9002811D009920FE00134AFE7C1
:104A3C000123C01B83400B4326000693CDE7059A48
:104A4C00101D12680590002A37DBDA6022782E2AB6
:104A5C000CD162782A2A3BD1059A0234111D1268B6
:104A6C000591002A01DA012252425A60354E032286
:104A7C003000217800F04CFB06AF002806D0402314
:104A8C00801B8340069A0134134306932178062237
:104A9C002D48661C397600F03BFB002847D02B4B89
:104AAC00002B29D10722059B073393430833059329
:104ABC000B9B03995B180B9369E75242DA60022255
:104ACC000A430692C2E77A43340001205218A4E745
:104ADC0000220A205A601100130001342278661C4F
:104AEC00303A092A03D9002BC0D00791BEE74143C5
:104AFC00340001238918F1E705AA009239002A0035
:104B0C00134B029800E000BF0390039B0133CFD1FD
:104B1C006B6EDB0705D4AB899B0502D4A86DFFF740
:104B2C005BFCAB895B0600D519E70B9819E705AA66
:104B3C00009239002A00064B029800F07BF8E3E75C
:104B4C00F7570008FD570008015800080000000046
:104B5C00FB480008F7B5160001938A680B690C0036
:104B6C000090934200DA1300220033604332127833
:104B7C00002A01D00133336023689B0602D53368C9
:104B8C00023333602268062315001D401A4227D0D9
:104B9C00230043331B785A1E93412268920630D46B
:104BAC00220001990098089D4332A847013025D076
:104BBC000622236800251340042B05D13368E568D1
:104BCC00ED1AEB43DB171D40A3682269934201DD0C
:104BDC009B1AED180026B54220D1002010E00135BB
:104BEC00E36832689B1AAB42D2DD220001230199A3
:104BFC000098089F1932B8470130F0D1012040428B
:104C0C00FEBD3020E1184331087021005A1C45319B
:104C1C000978A218433202331170C1E72200012334
:104C2C0001990098089F1A32B8470130E6D0013636
:104C3C00D1E70000F0B58BB006920A00433207931F
:104C4C00059003920A7E0C00109B782A09D8622AE0
:104C5C000BD8002A00D1BAE07A490491582A00D125
:104C6C008EE0250042352A7022E0100063381528AA
:104C7C00F7D8FBF72FFA16001F00F6FFF6FFF6FF2A
:104C8C00F6FF1F00F6FFF6FFF6FFF6FF9F0036005B
:104C9C007E00F6FFF6FFB000F6FF3600F6FFF6FFDB
:104CAC00820025001A684235111D196013682B709B
:104CBC0001239EE018680968021D0D060BD50668D5
:104CCC001A60002E03DA2D23039A764213705D4B83
:104CDC000A27049318E006681A604906F1D536B223
:104CEC00EFE70868196840C9050602D4400600D5EC
:104CFC00B6B21960534B0A2704936F2A00D1023FB6
:104D0C002300002243331A706368A360002B06DB78
:104D1C0004212268039D8A43226033430CD0039DF7
:104D2C0030003900FBF766FA049B013D5B5C2B708D
:104D3C00330006009F42F3D9082F09D12368DB0703
:104D4C0006D5626823699A4202DC3023013D2B7040
:104D5C00039B5B1B2361079B210000930598069B1B
:104D6C0009AAFFF7F7FE013048D1012040420BB0F1
:104D7C00F0BD202209680A4322607822324904914E
:104D8C00210045310A701968226840C9100602D406
:104D9C00500600D5B6B21960D30702D520231343B1
:104DAC002360002E01D01027AAE72022236893430A
:104DBC002360F8E71A680D68101D496918601368BC
:104DCC002E0601D5196002E06D06FBD51980002373
:104DDC00039D2361BFE71A68111D19601568002136
:104DEC002800626800F094F9002801D0401B606034
:104DFC00636823610023039A1370ACE72A002369CC
:104E0C0006990598079DA8470130AED023689B07EB
:104E1C0015D4099BE0689842A9DA1800A7E722008C
:104E2C00012306990598079E1932B04701309CD092
:104E3C000135E368099A9B1AAB42F0DCE9E70025DF
:104E4C00F7E7C046085800080E570008F7B50C22C3
:104E5C008B5E05000C001A075AD44A68002A02DC43
:104E6C000A6C002A4FDDE76A002F4CD0002280210B
:104E7C002E682A601A0049010A400B4234D0626D38
:104E8C00A3895B0706D56368D21A636B002B01D02C
:104E9C00236CD21A00232800E76A216AB8470C2336
:104EAC00E25E431C06D129681D292ED82B4BCB4022
:104EBC00DB072AD50023636023692360D20405D560
:104ECC00431C02D12B68002B00D16065616B2E60F6
:104EDC00002918D023004433994202D02800FFF750
:104EEC008DFA002363630EE001232800216AB84782
:104EFC000200431CC4D12B68002BC1D01D2B01D048
:104F0C00162B1DD12E60002021E0402313431BE003
:104F1C000E69002EF7D00F680E60BA1B01920022AA
:104F2C009B0700D14A69A260019B002BEBDDA36AB1
:104F3C0032001F002800019B216AB847002807DCBB
:104F4C004023A28913431BB20120A3814042FEBD22
:104F5C00019B36181B1A0193E6E7C046010040205E
:104F6C000B6970B505000C00002B02D10025280040
:104F7C0070BD002804D0036A002B01D1FEF7B8FFE6
:104F8C000C22A35E002BF1D0626ED20704D49B05D9
:104F9C0002D4A06DFFF71FFA28002100FFF756FF7F
:104FAC00636E0500DB07E2D4A3899B05DFD4A06DFB
:104FBC00FFF712FADBE70000F0B50E001D000E2320
:104FCC00C95E140097B000290CDAB2898023110055
:104FDC0019401A4214D18023DB0000202960236081
:104FEC0017B0F0BD6A4600F05DF80028EDDBF02349
:104FFC0001991B021940044BC9184B425941EAE76D
:10500C0000214023E9E7C04600E0FFFFF7B5022688
:10501C008B8905000C00334206D0230047332360F4
:10502C00236101236361F7BD6A4601ABFFF7C4FF3F
:10503C00009F28003900FFF74DFA0C22A35E0028D0
:10504C0006D19A05EFD4032293431E43A681E4E7CD
:10505C0080221343A381019B206020616761002B98
:10506C00E1D028000E23E15E00F02EF80028DAD003
:10507C000323A2899A43023B1343A381D3E710B5C0
:10508C00884202D98B18984208D300239A4207D041
:10509C00CC5CC4540133F9E78B5C8354013AFBD2EA
:1050AC0010BD0000002370B5064D0400080011006F
:1050BC002B60FDF75FFB431C03D12B68002B00D04A
:1050CC00236070BD78290020002370B5064D0400C4
:1050DC0008002B60FDF753FB431C03D12B68002BFE
:1050EC0000D0236070BDC04678290020002370B525
:1050FC00064D040008002B60FDF70CFB431C03D18C
:10510C002B68002B00D0236070BDC046782900208E
:10511C00C9B28218904201D10020704703788B42AB
:10512C00FBD00130F6E7F7B506000C00150000299E
:10513C0005D11100FFF7CEF904002000FEBD002AB6
:10514C0003D1FFF75BF92C00F7E700F01CF8070020
:10515C00854202D84308AB42EFD329003000FFF759
:10516C00B9F90190002801D1019CE6E72A00BD4263
:10517C0000D93A0021000198FFF737F921003000DF
:10518C00FFF73CF9F0E70B1F1B68181F002B01DA27
:10519C000B58C01870470000F0B557464E464546B0
:1051AC00DE46E0B504000D009246994683B08B4272
:1051BC0030D82DD049465046FBF72CF92900060073
:1051CC002000FBF727F9331A9846203B34D49B4632
:1051DC0053465A46934042461F00534693401E0086
:1051EC00AF423BD8AF4200D179E05B46A41BBD4136
:1051FC00002B00DA76E000220023009201930123B9
:10520C005A4693400193012342469340009329E070
:10521C008242CFD900220023009201930C9B002BD9
:10522C0001D01C605D600098019903B0F0BCBB46D6
:10523C00B246A946A046F0BD42469B4620239B1A87
:10524C005246DA40414613004A468A40170042460D
:10525C001F43534693401E00AF42C3D90022002384
:10526C00009201934346002BD8D0FB0772081A43D7
:10527C0046467B080EE0AB4201D1A2420CD8A41AE0
:10528C009D41012024196D410021013E24184D41FE
:10529C00002E06D0AB42EED9013E24196D41002EF2
:1052AC00F8D1009801995B4600196941002B24DB69
:1052BC002B005A464646D3402A001C00F2405B465F
:1052CC001500002B2ADB26009E40330026004746A3
:1052DC00BE403200801A9941009001919EE7A34292
:1052EC00BCD882E74246202300219B1A0022009161
:1052FC0001920122DA40019285E7424620239B1A53
:10530C002A0046469A402300F340464613432A009F
:10531C001C00F2405B461500002BD4DA20234246D9
:10532C002F009B1B97402600DE403B003343CDE70C
:10533C00F8B5C046F8BC08BC9E467047F8B5C046E8
:08534C00F8BC08BC9E46704746
:1053540080220C4B30B55C69D20222435A61EFF3D0
:10536400108272B64C1CFF34401A0D68455004314B
:10537400A142FAD18021490218690842FCD182F382
:08538400108830BD002002403A
:10538C000000000000000000FFFFFFFFFFFFFFFF19
:10539C008000004E4D495F48616E646C6572004838
:1053AC006172644661756C745F48616E646C6572A1
:1053BC0000573A2072783A206E6F2066726565202D
:1053CC00706B740A00443A2025733A20736574207C
:1053DC006261756420726174653A202575202575AB
:1053EC0020282575202575290A00636463746C00D8
:1053FC00493A2025733A20696E69742E2E2E0A00C4
:10540C00493A2025733A2076657273696F6E3A209B
:10541C00253032780A00493A2025733A2076657295
:10542C0073696F6E20616674657220736F66742089
:10543C0072657365743A20253032780A00493A2037
:10544C00636463746C3A20737973636C6B20256CA2
:10545C00642C2061637475616C3A2025640A0049E0
:10546C003A20706C6C5F6E3A20253032782C206DAF
:10547C006C3A20253032782C206F645F6D683A20AE
:10548C00253032780A00493A20706C6C5F63747274
:10549C006C3A20253032780A00493A20636C6B5FF5
:1054AC007374617475733A20253032780A00493A66
:1054BC0020636C6B5F7374617475732061667465C3
:1054CC00722073656C65637420706C6C3A202530A7
:1054DC0032780A00493A2076657273696F6E2061E2
:1054EC00667465722073656C65637420706C6C3ABD
:1054FC0020253032780A00493A2066616C6C626172
:10550C00636B20746F20636463746C2D6231206D47
:10551C006F64756C652C207665723A202530327874
:10552C000A00443A20636463746C3A206765742003
:10553C006261756420726174653A20256C75202552
:10554C006C750A00443A20636463746C3A20676596
:10555C00742066696C746572286D293A2025303286
:10556C00782028253032782025303278290A0044DA
:10557C003A2025733A20666C6167733A20253032E5
:10558C00780A00453A2025733A204249545F464C2C
:10559C0041475F52585F4C4F53540A00573A2025ED
:1055AC00733A204249545F464C41475F52585F451D
:1055BC0052524F520A00443A2025733A2042495421
:1055CC005F464C41475F54585F43440A00453A20BC
:1055DC0025733A204249545F464C41475F54585F0B
:1055EC004552524F520A00453A2025733A207278A0
:1055FC00206672616D65206C656E206572720A00A2
:10560C00453A2025733A206765742072782C206EF9
:10561C006F2066726565206672616D650A00233ABB
:10562C0020646267206C6F73743A202564202D3ED1
:10563C002025640A00443A206E766D2065726173F1
:10564C00653A2025303878202B25303878202825CD
:10565C0064202564292C20253038782C2072657420
:10566C003A2025640A00493A20636F6E663A206638
:10567C0061696C656420746F206572617365206666
:10568C006C6173680A00493A20636F6E663A207346
:10569C0061766520746F20666C6173682073756326
:1056AC006365737365642C2073697A653A2025648D
:1056BC000A00453A20636F6E663A20736176652066
:1056CC00746F20666C617368206572726F720A0069
:1056DC0065313166663135004D3A20636463616D26
:1056EC002028626C293B20533A2025733B205357CA
:1056FC003A20257300493A20696E666F3A2025736B
:10570C000A003031323334353637383961626364EC
:10571C00656600443A207031207365723A206967DF
:10572C006E6F72650A00443A206373612072656182
:10573C00643A20253034782025640A00443A2063EA
:10574C0073612077726974653A202530347820258E
:10575C00640A00573A206373613A2077726F6E6760
:10576C0020636D642C206C656E3A2025640A00570A
:10577C003A206E766D3A2077726F6E6720636D6497
:10578C002C206C656E3A2025640A006C6F616420D5
:10579C0066726F6D20666C6173680075736520644A
:1057AC00656661756C74000A737461727420617043
:1057BC00705F6D61696E2028626C292E2E2E00623E
:1057CC006C20636F6E663A2025732C20626C5F61CF
:1057DC007267733A202530386C780A006A756D70E0
:1057EC0020746F206170702E2E2E00232D302B20F4
:1057FC0000686C4C006566674546470030313233B3
:10580C0034353637383941424344454600000100AF
:10581C0002000400060008000A000C001000200022
:10582C00400080000001080402040801010101018C
:10583C000103070100000000000000000000000050
:10584C000000000000000000010000000200000049
:10585C000300000004000000000000000000000035
:10586C00000000000000000000000000000000002C
:10587C000000000000000000010000000200000019
:10588C0003000000040000000600000007000000F8
:10589C0008000000090000000006060606060606C1
:1058AC00060606060606060204000000CDCD000121
:1058BC000000000000000000FE00000000C201001B
:1058CC0000C20100FFFF00001400C800010000002E
:1058DC000000800000000900000000000000000033
:1058EC0000000000000000000000000000000000AC
:1058FC00000000000000000000000000000000009C
:10590C00000000000000000000000000000000008B
:10591C00000000000000000000000000000000007B
:10592C00000000000000000000000000000000006B
:10593C00000000000000000000000000000000005B
:10594C00000000000000000000000000000000004B
:10595C00000000000000000000000000000000003B
:10596C00000000000000000000000000000000002B
:10597C00000000000000000000000000000000001B
:10598C00000000000000000000000000000000000B
:10599C0000000000000000000000000000000000FB
:1059AC0000000000000000000000000000000000EB
:1059BC0000000000000000000000000000000000DB
:1059CC0000000000000000000000000000000000CB
:1059DC0000000000000000000000000000000000BB
:1059EC0000000000000000000000000000000000AB
:1059FC00000000000000000000000000000000009B
:105A0C00000000000000000000000000000000008A
:105A1C00000000000000000000000000000000007A
:105A2C00000000000000000000000000000000006A
:105A3C00000000000000000000000000000000005A
:105A4C00000000000000000000000000000000004A
:105A5C00000000000000000000000000000000003A
:105A6C00000000000000000000000000000000002A
:105A7C00000000000000000000000000000000001A
:105A8C00000000000000000000000000000000000A
:105A9C0000000000000000000000000000000000FA
:105AAC0000000000000000000000000000000000EA
:105ABC0000000000000000000000000000000000DA
:105ACC0000000000000000000000000000000000CA
