:020000040800F2
:1000000000900020793B00083507000845070008EC
:1000100000000000000000000000000000000000E0
:10002000000000000000000000000000550700086C
:1000300000000000000000005707000859070008F2
:10004000C93B0008C93B0008C93B0008C93B000880
:10005000C93B0008C93B0008C93B0008C93B000870
:10006000C93B0008C93B0008C93B0008C93B000860
:10007000C93B0008C93B0008C93B0008C93B000850
:10008000C93B0008C93B0008C93B0008C93B000840
:10009000C93B0008C93B0008C93B0008C93B000830
:1000A000C93B0008C93B0008C93B0008C93B000820
:0C00B000C93B0008C93B0008C93B000820
:1000BC000023C25C0133002AFBD1581E704700009C
:1000CC0002B4714649084900095C49008E4402BCDF
:1000DC007047C04603B47146490840004900095EA8
:1000EC0049008E4403BC7047002243088B4274D3F2
:1000FC0003098B425FD3030A8B4244D3030B8B421D
:10010C0028D3030C8B420DD3FF22090212BA030C25
:10011C008B4202D31212090265D0030B8B4219D306
:10012C0000E0090AC30B8B4201D3CB03C01A524126
:10013C00830B8B4201D38B03C01A5241430B8B426E
:10014C0001D34B03C01A5241030B8B4201D30B0357
:10015C00C01A5241C30A8B4201D3CB02C01A52417E
:10016C00830A8B4201D38B02C01A5241430A8B4241
:10017C0001D34B02C01A5241030A8B4201D30B022A
:10018C00C01A5241CDD2C3098B4201D3CB01C01A44
:10019C00524183098B4201D38B01C01A524143094E
:1001AC008B4201D34B01C01A524103098B4201D33C
:1001BC000B01C01A5241C3088B4201D3CB00C01AA9
:1001CC00524183088B4201D38B00C01A5241430821
:1001DC008B4201D34B00C01A5241411A00D2014646
:1001EC00524110467047FFE701B5002000F0F0F8CF
:1001FC0002BDC0460029F7D076E7704703460B4393
:10020C007FD4002243088B4274D303098B425FD303
:10021C00030A8B4244D3030B8B4228D3030C8B422F
:10022C000DD3FF22090212BA030C8B4202D3121215
:10023C00090265D0030B8B4219D300E0090AC30BEA
:10024C008B4201D3CB03C01A5241830B8B4201D397
:10025C008B03C01A5241430B8B4201D34B03C01A80
:10026C005241030B8B4201D30B03C01A5241C30AF8
:10027C008B4201D3CB02C01A5241830A8B4201D369
:10028C008B02C01A5241430A8B4201D34B02C01A53
:10029C005241030A8B4201D30B02C01A5241CDD2F8
:1002AC00C3098B4201D3CB01C01A524183098B4243
:1002BC0001D38B01C01A524143098B4201D34B012C
:1002CC00C01A524103098B4201D30B01C01A52418F
:1002DC00C3088B4201D3CB00C01A524183088B4216
:1002EC0001D38B00C01A524143088B4201D34B00FF
:1002FC00C01A5241411A00D2014652411046704771
:10030C005DE0CA0F00D04942031000D34042534075
:10031C0000229C4603098B422DD3030A8B4212D335
:10032C00FC22890112BA030A8B420CD38901921167
:10033C008B4208D3890192118B4204D389013AD0A4
:10034C00921100E08909C3098B4201D3CB01C01A79
:10035C00524183098B4201D38B01C01A524143098C
:10036C008B4201D34B01C01A524103098B4201D37A
:10037C000B01C01A5241C3088B4201D3CB00C01AE7
:10038C00524183088B4201D38B00C01A5241D9D2FF
:10039C0043088B4201D34B00C01A5241411A00D280
:1003AC000146634652415B10104601D34042002B7C
:1003BC0000D54942704763465B1000D3404201B5FB
:1003CC00002000F005F802BD0029F8D016E77047B0
:1003DC007047C046002B11D1002A0FD1002900D143
:1003EC00002802D00021C943080007B4024802A12A
:1003FC004018029003BDC046D9FFFFFF03B4684606
:10040C0001B5029804F07CFD019B9E4602B00CBC29
:10041C007047C04610B5002903D100F007F8203012
:10042C0002E0080000F002F810BDC0461C210123B8
:10043C001B04984201D3000C10391B0A984201D3BB
:10044C00000A08391B09984201D30009043902A299
:10045C00105C40187047C046040302020101010100
:10046C0000000000000000000448054B10B583425A
:10047C0003D0044B002B00D0984710BDE80000209F
:10048C00E80000200000000006480749091A8B10FC
:10049C00C90FC91810B5491003D0044B002B00D05C
:1004AC00984710BDE8000020E80000200000000084
:1004BC0010B5074C2378002B09D1FFF7D5FF054B5E
:1004CC00002B02D0044800E000BF0123237010BDB4
:1004DC00E800002000000000A4500008054B10B5F7
:1004EC00002B03D00449054800E000BFFFF7CCFF08
:1004FC0010BDC04600000000EC000020A450000815
:10050C0070B5102692B03822002104A803F096FD95
:10051C0032000021684603F091FD8020800001F03C
:10052C00DBFC80235B000793002308930D9380234F
:10053C009B020F9380239B041093C023022540221F
:10054C00DB0504A8049509920B950C950E96119356
:10055C0000F056FE002801D072B6FEE70723029089
:10056C000390290068460093019501F0DFF80028FC
:10057C0001D072B6FEE78023064A5B05D1680648B7
:10058C000B43D360A0218022C904920501F05CF8D2
:10059C0012B070BD0010024004000500F0B58BB025
:1005AC0001F042FDFFF7ACFF1422002105A803F077
:1005BC0045FD202101250826514B02275A6BA0200E
:1005CC000A435A635A6BC0050A4080210192019A72
:1005DC005A6B09022A435A635A6B00242A4002922E
:1005EC00029A5A6B32435A635A6B32400392039A03
:1005FC005A6B3A435A635B6B2A003B400493049B4F
:10060C0001F064FC002206213E4801F05FFC8021D1
:10061C002A003D48890001F059FC04233B4805A9F8
:10062C000593089506970794099401F02BFB8023FA
:10063C00A0201B0205A9C0050593069507940897F1
:10064C0001F020FB06232F48069505A9802505936C
:10065C000794089401F016FB11232B48AD0005A953
:10066C00069305950794089401F00CFB2848294B38
:10067C008460036082235B004360E023DB00C36083
:10068C000723046144618561C6610462446284622B
:10069C00C3620463466300F03DFAA04201D072B617
:1006AC00FEE71D4C1D4BA06023601D4BE06063609A
:1006BC000C232061A061E06120626062A0622000D6
:1006CC00636101F06DFF011E01D072B6FEE72000E0
:1006DC0001F0E4FF011E01D072B6FEE7200001F02C
:1006EC00FDFF002801D072B6FEE7200001F0B8FF34
:1006FC00002801D072B6FEE703F02AF9FEE7C046E7
:10070C0000100240000C0050000400500014005077
:10071C009801002000300140040100200038014005
:10072C0080841E0072B6FEE710B5024803F072FB1F
:10073C00FEE7C0460451000810B5024803F06AFBFE
:10074C00FEE7C046105100087047704710B501F025
:10075C007FFC10BD07B501210A4BC0201A6CC000EC
:10076C000A431A641A6C0A4080210092009ADA6BD0
:10077C0049050A43DA63DB6B0B400193019B01F0E3
:10078C008BFC07BD0010024010B5040088B0142289
:10079C00002103A803F052FC0F4B22689A4219D196
:1007AC0080210E4B49011A6C0D480A431A641A6CCD
:1007BC000A400192019A0222596B114359635B6BF7
:1007CC0003A913400293029B3823049203930692CD
:1007DC0001F058FA08B010BD003001400010024082
:1007EC0000040050074B026810B59A4208D1064A23
:1007FC000649136C06480B401364382101F0F4FAD7
:10080C0010BDC0460030014000100240FFEFFFFF5A
:10081C000004005010B5040094B01422002102A86A
:10082C0003F00CFC3422002107A803F007FC174B43
:10083C0022689A4228D1012307A8079301F034F8C3
:10084C00002801D0FFF76EFF8021114BC9011A6CF3
:10085C00A0200A431A641A6CC0050A400092009A40
:10086C000122596B114359635B6B02A9134001932D
:10087C00019B80239B000293FF3BFF3B039304925D
:10088C000592069201F0FEF914B010BD003801403B
:10089C0000100240084B026810B59A420AD1074A70
:1008AC000749136CA0200B40802113648900C005FC
:1008BC0001F09AFA10BDC046003801400010024009
:1008CC00FFBFFFFFF0B50E0085B01500040001F06E
:1008DC00CBFBAD192D1A01F0C7FB8027254B0190DE
:1008EC001B685B011B0D6B43039322689368180014
:1008FC0038403B4232D0731CF8D001F0B5FB019B61
:10090C00C01AA8422CD3E02123685A688A435A6043
:10091C0082226168520091420CD18021A2680902A6
:10092C008A4203D08021C9008A4203D140211A682F
:10093C008A431A608021A26A89018A4206D1196809
:10094C000D480140196019680A431A6023000122FE
:10095C005D331A70002303205C34237005B0F0BDA6
:10096C00039B002B00D02B00039A1D00013A03922D
:10097C00BBE7C0460C000020FFDFFFFFF0B51D00F9
:10098C00002385B0170002AAD37004000E0001F0FA
:10099C006BFBED192D1A01F067FB232223680090E5
:1009AC0001932A4B1B6853431B0D6B43039302AB00
:1009BC002168DA1C8B681800304033423BD0C023CE
:1009CC00DB009E4204D1019B1B7BDBB213701378BE
:1009DC007B1CEFD001F048FB009BC01AA8422CD323
:1009EC00E02123685A688A435A6082226168520067
:1009FC0091420CD18021A26809028A4203D0802145
:100A0C00C9008A4203D140211A688A431A608021A6
:100A1C00A26A89018A4206D119680D480140196001
:100A2C0019680A431A60230001225D331A700023EF
:100A3C0003205C34237005B0F0BD039B002B00D069
:100A4C002B00039A1D00013A0392B0E70C00002022
:100A5C00FFDFFFFFF8B582231700426804000E0089
:100A6C005B009A420DD1802283681202934203D01C
:100A7C008022D200934204D14021226813688B4318
:100A8C0013603A0031002000FFF71CFF051E05D053
:100A9C002023226E03251343236616E0822362680B
:100AAC005B009A4211D18022A3681202934203D0B8
:100ABC008022D200934208D1C0213B00320020009A
:100ACC00C900FFF75BFF0028E2D12800F8BD70B524
:100ADC0013000D0016000A00C02149010400FFF7A5
:100AEC004DFF002805D020230320226E13432366DC
:100AFC0070BD320029002000FFF7E4FE0028F2D17F
:100B0C00C02133002A002000C900FFF737FF00285E
:100B1C00EED0E8E7F8B504000120002C67D0636A3A
:100B2C00002B65D1822261685200914200D0E361B2
:100B3C0000232500A3625D352B78DAB2002B05D19A
:100B4C0023005C3320001A70FFF71EFE02234022A4
:100B5C002B702168E6680B689343E0220B60D2008F
:100B6C000023964248D9F02218001201964200D078
:100B7C00A36282228427636852001340A2683F025A
:100B8C003A40022713432269A5693A4013430122D4
:100B9C00676917403B438027BF002F403B43E76901
:100BAC00373217403B43276A4832174080223B4379
:100BBC00A76A920117403B43102708220B60636A17
:100BCC002D0C3B40676B17403B43F0273F013E40E9
:100BDC003343042635402B4303434B60CB69084811
:100BEC0003400020CB61012320665D342370F8BDE7
:100BFC000023236163619BE780204001B6E7C04678
:100C0C00FFF7FFFF70B504000120002C10D0250069
:100C1C00022340215D352B702268200013685C3460
:100C2C008B431360FFF7DEFD00206060287020709E
:100C3C0070BDF0B585B0009303005C3316001A78D4
:100C4C0004000D000227012A00D182E001221A7053
:100C5C0001F00AFA230001905D331A78D7B2012A09
:100C6C0000D0A6E0002D71D0002E6FD002321A7089
:100C7C000023A21D23662364A563A687E6870232A0
:100C8C009387D3878022A1682365E36412022368CB
:100C9C00914208D140211A688A431A60802219684F
:100CAC00D2010A431A6040221968114202D1196814
:100CBC000A431A60E021E0686268C90088424BD997
:100CCC00002A01D0012E07D12A880235DA60E38F81
:100CDC00A563013B9BB2E3870225E38F002B19D15F
:100CEC002000019A0099FFF7F2FE00285ED1A3685C
:100CFC00002B06D103932368DA6803929B68039355
:100D0C00039B226E002A21D1230001215D331700A1
:100D1C0019701BE0226893682B4209D0A36B1988C9
:100D2C000233D160A363E38F013B9BB2E387D4E72B
:100D3C0001F09AF9019BC01A009B9842CDD3013364
:100D4C00CBD02300012203275D331A7000235C34BF
:100D5C002370380005B0F0BD002A01D0012E08D157
:100D6C002A781A73A36B0133A363E38F013B9BB205
:100D7C00E3870225E38F002BB2D023689A682A42BE
:100D8C000AD0A26B12781A73A36B0133A363E38F9F
:100D9C00013B9BB2E387EDE701F066F9019BC01ABA
:100DAC00009B9842E6D30133E4D0CAE720232366A4
:100DBC009DE70227CAE70000F7B51E0003005C336D
:100DCC0017001A7804000D000220012A1BD0012202
:100DDC001A7001F049F9230001905D331B786168AA
:100DEC00DAB2012B09D0822302205B00994207D191
:100DFC00A368002B04D1042A02D1002D04D10120B8
:100E0C0000235C342370FEBD002FF8D0002EF6D0EA
:100E1C0023005D331A78042A01D005221A702200AF
:100E2C000023083223662764D687A21DD687E022CA
:100E3C00E068E3642365A5632368E687A687D20090
:100E4C00904235D95A68604F3A405A6040221F6828
:100E5C00174202D11F683A431A60E022D200904236
:100E6C0061D9002901D0012E07D12A880235DA6018
:100E7C00E38FA563013B9BB2E387012502272E007C
:100E8C00E38F002B19D123000833DB8F002B14D1F7
:100E9C002000019A0899FFF71AFE002800D08EE076
:100EAC00236E002BABD1230001225D331A70A7E710
:100EBC0080225F6852013A43C7E7206883683B424F
:100ECC000ED0E38F002B0BD0012D08D1A36B1A8809
:100EDC000233C260A363E38F013B9BB2E38700251F
:100EEC0083681900314033420ED022000832D38F70
:100EFC00002B09D00D00C068236C188002332364CA
:100F0C00D38F013B9BB2D38701F0AEF8019BC01A83
:100F1C00089B9842B4D30133B2D0230001225D3335
:100F2C0003201A706CE7002901D0012E08D12A7811
:100F3C001A73A36B0133A363E38F013B9BB2E3876B
:100F4C00012502272E00E38F002B04D12300083348
:100F5C00DB8F002B9CD023689A683A420FD0E28F2B
:100F6C00002A0CD0012D09D1A26B12781A73A36B35
:100F7C000133A363E38F013B9BB2E3870025236816
:100F8C009A681100314032420FD022000832D08FC3
:100F9C0000280AD00D001B7B206C0370236C0133DE
:100FAC002364D38F013B9BB2D38701F05DF8019B87
:100FBC00C01A089B9842C6D30133C4D0ADE7202396
:100FCC00012023666CE7C046FFEFFFFFF0B506007B
:100FDC0087B0049103935D36337804001700DDB2BB
:100FEC00012B00D0AAE004334268FF339A420ED1A1
:100FFC008368002B0BD104333370039B0A000093DE
:10100C003B00FFF7D9FE0500280007B0F0BD230018
:10101C005C331A78012A00D192E001221A7001F097
:10102C0023F8049B0590002B77D0002F75D0042358
:10103C0033700023049A23662264A21DD7870232E0
:10104C00D787E022E168A363A387E387E364236582
:10105C00D200236891422FD95A683A4802405A600C
:10106C008022A0681202904207D140201A68824365
:10107C001A601A68344802401A60402218681042FC
:10108C0002D1186802431A60E0232700DB000837FE
:10109C00994225D9FB8F002B25D0012123689A6812
:1010AC000A423ED0DA68236C1A8002332364FB8F29
:1010BC00013B9BB2FB87EDE780225868520102434B
:1010CC00CDE7012123689A680A421AD01B7B226C57
:1010DC001370236C5B182364FB8F013B9BB2FB8763
:1010EC00FB8F002BEDD12000059A0399FFF7B2FC82
:1010FC00002820D1236E002B0FD101221D0032704D
:10110C000BE000F0B1FF059BC01A039B9842E7D39C
:10111C000133E5D001230325337000235C342370A5
:10112C0072E700F0A1FF059BC01A039B9842B1D354
:10113C000133AFD0EEE720232366DBE70225ECE793
:10114C00022561E7FFEFFFFFFFBFFFFF70B500F067
:10115C008BFF802380260500244C5B002268F60060
:10116C0013432360236833422BD08023DB0163605D
:10117C0000F07AFF002305003826A360A3683342F1
:10118C0026D180235B002360236000F06DFF802656
:10119C000500B60423681A00324033421FD1802365
:1011AC005B01E36001235B42A2612362104A114B95
:1011BC001A60114B186800F00FFF431E9841C0B223
:1011CC0005E000F051FF401B0228CBD9032070BD75
:1011DC0000F04AFF094B401B9842CFD9F6E700F0CC
:1011EC0043FF401B0228D5D9F0E7C046001002404F
:1011FC000024F4000C0000200800002088130000DC
:10120C00F0B5040085B0002802D1012005B0F0BD76
:10121C000368DB0710D423689B075CD423681B0787
:10122C0000D5C1E023685B0700D5F2E0E369002B31
:10123C0000D079E10020E9E73822AF4DAB681340CC
:10124C00EA68102B09D1D3439B0708D12B689B0369
:10125C00E1D56368002BDED1D7E7082BF6D08022CE
:10126C0063685202934211D12A6813432B6000F039
:10127C00FBFE80270600BF022B683B42CBD100F05F
:10128C00F3FE801B6428F7D90320BFE7A021C90215
:10129C008B4208D180232968DB020B432B602B681F
:1012AC001A432A60E3E72A6894490A402A602A68AC
:1012BC0093490A402A60002BD9D100F0D5FE802733
:1012CC000600BF022B683B42A5D000F0CDFE801B70
:1012DC006428F7D9D8E73822874DAB681340EA6801
:1012EC00102B28D103210A40022A26D12A68520544
:1012FC0003D5E268002A00D187E7696862698148F2
:10130C00120201400A436A60002B0CD12B687E4A02
:10131C007E491340226913432B602B687C4A9B0443
:10132C005B0FDA400A607B4B186800F055FE002812
:10133C0000D173E769E7002BD8D0E368002B20D0ED
:10134C002B68714A802713402269FF0013432B60DE
:10135C0080232A685B0013432B6000F085FE060097
:10136C002B683B4207D06A68636966491B020A40D6
:10137C0013436B6052E700F077FE801B0228EFD915
:10138C0082E72B68644A802713402B6000F06CFEC8
:10139C000600FF002B683B4200D13FE700F064FEE3
:1013AC00801B0228F6D96FE73822534DAB681340E7
:1013BC00182B08D12B6E9B0700D433E7A369002BA5
:1013CC0000D02FE721E7A2690123002A10D02A6E52
:1013DC00022713432B6600F047FE06002B6E3B42A0
:1013EC0000D01FE700F040FE801B0228F6D94BE727
:1013FC002A6E02279A432A6600F036FE06002B6EF0
:10140C003B4200D10EE700F02FFE801B0228F6D9DC
:10141C003AE73822384DAB681340202B08D1EB6DDE
:10142C009B0700D402E7A368002B00D0FEE6ECE695
:10143C0080220021EB6B52050091134208D1EB6B1B
:10144C001343EB63EB6B13400393039B0123009358
:10145C008027324E7F0033683B4215D0A368012BA6
:10146C0022D1EA6D1343EB6500F0FEFD0227060066
:10147C00EB6D3B4238D0009B012B00D0D6E6EB6BDA
:10148C00274A1340EB63D1E633683B43336000F0EB
:10149C00EBFD019033683B42E0D100F0E5FD019B90
:1014AC00C01A0228F6D9EFE6EA6D052B05D1013BEF
:1014BC001343EB65EA6D0123D4E701218A43EA6506
:1014CC00EA6D03318A43EA65002BCDD100F0CCFDE7
:1014DC0002270600EB6D3B42CDD000F0C5FD114B51
:1014EC00801B9842F6D9CFE600F0BEFD0D4B801B59
:1014FC009842BDD9C8E6C04600100240FFFFFEFF6F
:10150C00FFFFFBFFFF80FFFFFFC7FFFF0C0000206A
:10151C000024F40008000020FFFEFFFF00700040D4
:10152C00FFFFFFEF881300003821434DAA680A40E3
:10153C00102A53D0414A022B3AD12B6880271340F2
:10154C002B6000F091FD0600BF042B683B4229D1B3
:10155C00616A236AEA680B43394980260A401343BF
:10156C00E26AB6041343226B1343626B1343A26A01
:10157C0012021343EB6080232A685B0413432B6035
:10158C008023EA685B051343EB6000F06DFD0400FB
:10159C002B68334200D04DE600F066FD001B02289C
:1015AC00F6D971E600F060FD801B0228CDD96BE600
:1015BC002B68802613402B6000F056FD0400B60407
:1015CC002B68334204D1EB681E4A1340EB6031E6C2
:1015DC0000F04AFD001B0228F2D955E6012B00D180
:1015EC0013E60322E868216A02408A4200D00CE626
:1015FC007022616A02408A4200D006E6FE21A26A8D
:10160C00C90101401202914200D0FEE5F822E16AC4
:10161C00920302408A4200D0F7E5E022216B1205CA
:10162C0002408A4200D0F0E5636B400F4007C01ABD
:10163C00431E9841C0B2E9E500100240FFFFFFFED7
:10164C008C80C111FCFFFEEE0223F0B587B0029333
:10165C00013304930023040000030393000F0133B0
:10166C0083400E4D17006A6B0E0013436B63A3B2DD
:10167C000193230DDBB20593A0235B03C0188002FA
:10168C0001A900F0FFFAE40005D4AB68044A13404A
:10169C003B433343AB6007B0F0BDC0460010024083
:1016AC00FFFFFF88382370B51D4CA2681A4205D184
:1016BC0023681C489B045B0FD84070BDA2681A407D
:1016CC00082A27D0A2681A40102A17D1E368E168CB
:1016DC00DB43E5684906490F6F322D0A013115408D
:1016EC009B0709D11048FEF7FFFCE1686843490FDE
:1016FC000131FEF7F9FCE0E70A48F4E7A2681A406A
:10170C00202A09D0A26800201340182BD5D1FA202A
:10171C00C001D2E70448D0E780200002CDE7C046E4
:10172C00001002400024F400001BB700F7B50400C1
:10173C000D00002801D10120FEBD0727484E33685B
:10174C003B408B422AD3226893073BD4D20748D420
:10175C00072733683B40AB420AD93368BB432B4362
:10176C00336000F081FC019033683B40AB4268D1A0
:10177C0023683C4D5B076CD4FFF794FFAB683A4988
:10178C001B051B0F9B005B581F210B40D840374A91
:10179C00374B1060186800F01FFCCDE73368BB4373
:1017AC000B43336000F060FC019033683B40AB426C
:1017BC00C9D000F059FC019BC01A2E4B9842F4D9A9
:1017CC000320B9E72749530704D5E0238868DB01D8
:1017DC0003438B608B6828480340A06803438B60ED
:1017EC00B4E760681F4F032829D8FEF769FC200274
:1017FC001C243B689B039ED50722BB689343034381
:10180C00BB6000F031FC01903823BA681A40636861
:10181C00DB009A429CD000F027FC019BC01A154BB0
:10182C009842F1D9CCE73B689B01E5D483E73B6850
:10183C005B05E1D47FE73B6E9B07DDD47BE7FB6D5B
:10184C00FAE700F011FC019BC01A0A4B98428BD9A5
:10185C00B6E7AB68094A1340E2681343AB608BE709
:10186C0000200240001002405C5500080C000020D3
:10187C000800002088130000FFF0FFFFFF8FFFFF20
:10188C00064B07499B68074A5B045B0F9B005B5840
:10189C001F2110680B40D8407047C0460010024012
:1018AC003C5500080C000020F0B50368040085B01E
:1018BC0000209B0352D58022704D5205EB6B00909B
:1018CC00134208D1EB6B1343EB63EB6B13400393A5
:1018DC00039B012300938027694E7F0033683B43B1
:1018EC00336000F0C1FB019033683B4228D0EA6DB5
:1018FC00C02311009B00634E19401A4219D0236B70
:10190C008B4216D08022EB6DE86D19005202024317
:10191C00EA65EA6D5C4831400240EA65E965DB073F
:10192C0007D500F0A1FB07000222EB6D134200D19A
:10193C009CE0EB6D226B334013430020EB6506E01B
:10194C0000F092FB019BC01A0228CDD90320009B0A
:10195C00012B03D1EB6B4D4A1340EB632368DA0781
:10196C0006D5032545494A6DAA4365682A434A654D
:10197C009A0706D50C2541494A6DAA43A5682A4306
:10198C004A65DA0606D53D49414D4A6D2A40E5685F
:10199C002A434A659A0506D538493E4D4A6D2A4078
:1019AC00A5692A434A655A0506D534493A4D4A6D0C
:1019BC002A40E5692A434A659A0606D52F49374DD0
:1019CC004A6D2A4025692A434A655A040FD52B498A
:1019DC00256A4A6D920092082A434A658022D205F4
:1019EC00954204D18022CD6852022A43CA601A0360
:1019FC0006D5402521494A6DAA43656A2A434A65A2
:101A0C009A020FD51D49264E4A6DA56A32402A43CB
:101A1C004A658022D203954204D18022CD685204BB
:101A2C002A43CA605A020DD5144D1E4E696DE26AE6
:101A3C00314011436965802149048A4202D1E96829
:101A4C000A43EA601B050FD50C4A6169536D164CAD
:101A5C0023400B4353658023DB01994204D180233F
:101A6C00D1685B020B43D36005B0F0BD00F0FCFA0B
:101A7C000E4BC01B984200D856E767E70010024097
:101A8C0000700040FFFCFFFFFFFFFEFFFFFFFFEFBA
:101A9C00FFF3FFFFFFFFF3FFFFFFCFFFFFCFFFFFC2
:101AAC00FFFFBFFFFFFFFFFEFF3FFFFF881300009C
:101ABC000020054B5A69824205DA044A9A60044AAE
:101ACC009A605869C00F7047002002402301674597
:101ADC00AB89EFCDF8B5040000F0C6FA80270600FC
:101AEC007F02144D2B693B4216D12A69124B11000F
:101AFC001248194028611A4217D18027FF022B691E
:101B0C00180038403B420FD0631CF8D000F0ACFA00
:101B1C00801BA042F3D306E0631CE3D000F0A4FAD0
:101B2C00801BA042DDD30320F8BD054B012059607A
:101B3C00FAE7C04600200240FAC30000FBC30000D5
:101B4C00FC010020F7B5174E0193337804000D000B
:101B5C0002200092012B1ED00123FA2033700023A7
:101B6C0080007360FFF7B6FF002812D10E4F012CD6
:101B7C0012D17B6923437B61009B2B60BFF36F8F7A
:101B8C00019B6B60FA208000FFF7A4FF7B69A343E5
:101B9C007B6100233370FEBD2800009903F088FAA6
:101BAC00F0E7C046FC01002000200240FA2010B5EE
:101BBC008000FFF78FFF8022044B120659690A43FD
:101BCC005A615869C043C00F10BDC0460020024086
:101BDC00044A05485369C90003401943034B0B439E
:101BEC00536170470020024007E0FFFF0200010034
:101BFC00F7B5214F05003B7802240191012B1AD037
:101C0C000123FA203B70002380007B60FFF762FF0A
:101C1C00041E0ED104236B602B68042B0DD1FA200B
:101C2C00164A174B516980000B435361FFF752FF63
:101C3C00040000233B702000FEBD0123019A5B428F
:101C4C001360AE68AB68EA689B18B3420CD968683D
:101C5C003100FFF7BDFFFA208000FFF73BFF0028A3
:101C6C0008D00400019B1E600221044A53698B4377
:101C7C005361DEE70136E5E7FC010020002002405D
:101C8C00040001000023F0B585B00A681400DC40A4
:101C9C0001D105B0F0BD012514009D402C400094ED
:101CAC002A4200D191E04A685F00944603226446C0
:101CBC0022400324BC40E4430194541E012C2ED832
:101CCC008668019C2640CC68BC40344384604468E0
:101CDC000126AC4325006446240934409C402C4327
:101CEC004460C568019C25408C68BC402C43C46092
:101CFC00022A16D107250F261D40AD00AE40DC0888
:101D0C00A40004190294246A03962600039CA6439B
:101D1C0034000E69AE402643029C266201E0032A81
:101D2C00DFD1BA400468019D25402A43C0240260DB
:101D3C006246A402224248D0254A03259C08A400EE
:101D4C00A4180F221D40ED00AA40A027266EFF0507
:101D5C0096430022B8420CD01E4F0132B84208D034
:101D6C001D4F0132B84204D01C4F0332B84200D18F
:101D7C00023AAA40674632432266154C009A2668FE
:101D8C00009DD2433543FF0201D435001540674610
:101D9C0025606668009D3543BF0201D435001540AF
:101DAC00674665600E4C009DE66F3543BF0301D45A
:101DBC00350015406746E5670A4C009EE56F2E43DB
:101DCC00FF0301D415402E00E66701335DE7C046E2
:101DDC00001802400004005000080050000C005095
:101DEC000818024004180240F0B500230F0085B01B
:101DFC003A00DA4001D105B0F0BD01229A4014003E
:101E0C0001923C40174253D02A4903259A0892006C
:101E1C0052180F211D40ED00A940166E02910E4084
:101E2C000396A0260021F605B0420FD022498C461D
:101E3C00012160450AD021498C460221604505D01C
:101E4C001F498C460521604500D10239A940039DEC
:101E5C00A94212D11B4E1749F56FA543F5671A4ECF
:101E6C00F56FA543F5674D68A5434D600D68A54317
:101E7C000D60116E029CA1431166032459008C4025
:101E8C0007210F26194089008E40026801992243D0
:101E9C000260DA0892008218156AB54315628268EE
:101EAC00A243826042688A434260C268A243C26015
:101EBC0001339DE700180240000400500008005058
:101ECC00000C00500418024008180240002A01D0EF
:101EDC00816170478162FCE710B5114C1149236890
:101EEC0002000B4003432360802300209B009A4296
:101EFC000ED10D4B0D49186806235843FEF7F4F824
:101F0C008022431CD200616908001040114200D1AC
:101F1C0010BD002B01D0013BF5E70320F8E7C046CC
:101F2C0000700040FFF9FFFF0C00002040420F0042
:101F3C0010B5FF2403220B0021000240D200914077
:101F4C009B012340C943934000280ADBC0240B4A61
:101F5C00800880008018A40002590A4013430351E2
:101F6C0010BD0F2210400838054A800880008018E8
:101F7C00C26911401943C161F2E7C04600E100E0BB
:101F8C0000ED00E0002809DB1F2318401E3B8340B6
:101F9C00034AD367BFF34F8FBFF36F8F7047C046B1
:101FAC0004E100E08022431E5204012093420DD232
:101FBC00C021074A07485360036A09061B021B0A23
:101FCC000B43036200200723906013607047C046E8
:101FDC0010E000E000ED00E070B5104B0500197842
:101FEC00002901D1012070BDFA208000FEF77CF899
:101FFC000B4C01002068FEF777F8FFF7D3FF041EA7
:10200C00F0D1032DEED80200012029004042FFF749
:10201C008FFF044B20001D60E5E7C0460400002044
:10202C000C000020080000208023084A5B00116887
:10203C0010B50B4300201360FFF7CEFF041E03D135
:10204C00FEF788FB200010BD0124FBE700200240B6
:10205C00034A044B11681B785B1813607047C04629
:10206C001802002004000020014B18687047C0467D
:10207C001802002070B50400FFF7F6FF0500631C82
:10208C0002D0044B1B78E418FFF7EEFF401BA04274
:10209C00FAD370BD04000020034A044913680B40B6
:1020AC00034313607047C04600000140FFF9FFFF77
:1020BC0030B5EFF31084012282F310880168134DC0
:1020CC000B682B400B6084F31088EFF3108182F3C4
:1020DC00108802680E4C93682340936081F310883B
:1020EC00C36E012B0AD1EFF3108183F310881024F7
:1020FC0002681368A343136081F310880300202245
:10210C008C331A600023C366436730BDDFFEFFFFCC
:10211C00FEFFFFEF70B505000120002D19D02E0039
:10212C0024230024883633602B681A6882431A6093
:10213C0028001C605C609C60FEF7ACFB2B00200050
:10214C0090331C60043B34601C60EC662C67843557
:10215C002C7070BDF8B504002569A26823682A4369
:10216C0065691968C0692A43734D024329400A43C3
:10217C001A605A687149A5690A40E1680A437049B6
:10218C005A608B4201D0226A15439A686D4E3240D8
:10219C002A430F259A60DA6AAA43656A2A43DA62EF
:1021AC00694A934225D1694B5A6D03231A40802307
:1021BC001B02022A00D1BBE0032A00D1B2E0012AA3
:1021CC0000D1A8E0984200D17DE0FFF759FB002830
:1021DC0045D0626A5E4B5200D15AFDF785FF6568A7
:1021EC006B08C0182900FDF77FFF0200594B103A0D
:1021FC0064E0594A934212D10C22544B5B6D13404C
:10220C00082B00D192E005D8002B00D081E0802370
:10221C001B02D7E70C2B00D182E0012020E04F4AB3
:10222C009342F4D04E4A9342F1D08B42F5D1C02266
:10223C008021464B12015B6D090113408B4215D076
:10224C0004D8002B07D1FFF71BFB06E09342E4D127
:10225C00802636020BE0FFF725FA061E07D1002078
:10226C00404BA36600236367A367F8BD3E4E626ACA
:10227C00374B5200D75A30003900FDF735FF032396
:10228C0065686B438342C8D82B038342C5D30023B4
:10229C003A0030001900FEF79DF80027060E0B02DD
:1022AC00334302026E0892197B41100019002A0078
:1022BC003B00FEF78FF82D4BC2182D4B9A42ACD831
:1022CC002368D860CBE7FFF7DBFA0028C7D0626A37
:1022DC001F4B5200D15AFDF707FF656840006B0891
:1022EC00C0182900FDF700FF02001A4B103A9A4261
:1022FC0000D992E70F23020000079A4393B2400FD4
:10230C0022680343D360AAE71748E0E7FFF7CAF94E
:10231C005DE780231B029842F8D1FFF7C3F9D4E79D
:10232C0080231B029842D2D0180052E780231B0254
:10233C009842E9D00C484CE7F369FFCFFFCFFFFF81
:10234C0000800040FFF4FF110038014000100240F3
:10235C0012550008EFFF0000004400400048004008
:10236C00004C0040010001000024F40000FDFFFFC0
:10237C00FFFC0F00836A30B51A0706D50168284C9C
:10238C004A682240846B22434A60DA0706D501680A
:10239C00244C4A682240C46A22434A609A0706D5F4
:1023AC000168214C4A682240046B22434A605A0758
:1023BC0006D501681D4C4A682240446B22434A6092
:1023CC00DA0606D501681A4C8A682240C46B22438F
:1023DC008A609A0606D50168164C8A682240046CFD
:1023EC0022438A605A0610D50168134D4A68446C22
:1023FC002A4022434A6080225203944205D14A6803
:10240C000E4C2240846C22434A601B0606D502689F
:10241C000B4953680B40C16C0B43536030BDC04635
:10242C00FF7FFFFFFFFFFDFFFFFFFEFFFFFFFBFF37
:10243C00FFEFFFFFFFDFFFFFFFFFEFFFFFFF9FFF40
:10244C00FFFFF7FFF7B504000D001700009322689B
:10245C00D3692B405B1B59424B41BB4201D000203E
:10246C0026E0089B0133F3D0FFF7FEFD009BC01A5A
:10247C00089B98422DD8002B2BD023681A68520742
:10248C00E5D52A004021403A8A43E0D0DA69082693
:10249C0011003140019132420BD020001E62FFF737
:1024AC0007FE230090331E60002301208434237028
:1024BC00FEBD8022D96912011142C8D01A622000D7
:1024CC00FFF7F6FD2300202290331A60019B843421
:1024DC0023700320ECE70000030073B50026040012
:1024EC0090331E60FFF7C0FD236805001B681B07B7
:1024FC001FD58021284B3200009389030300200054
:10250C00FFF7A0FFB04214D0EFF31081012383F347
:10251C0010888020226813688343136081F310882D
:10252C002300202288331A60032000238434237074
:10253C0076BD260023688C361B685B0723D580216B
:10254C00154B0022009320002B00C903FFF77AFFE4
:10255C00002818D0EFF31080012282F31088216834
:10256C000E4D0B682B400B6080F31088EFF310803E
:10257C0082F3108821688B6893438B6080F31088FA
:10258C0020233360D0E723002022002088331A60F8
:10259C003260E0662067C8E7FFFFFF01DFFEFFFF48
:1025AC0070B5041E01D1012070BD050088352B6863
:1025BC00002B04D1020084321370FEF72BF9242374
:1025CC00012122682B6013688B431360A36A002BD4
:1025DC0002D02000FFF7CEFE2000FFF7BBFD012844
:1025EC00E1D0236809495A6820000A4022215A6028
:1025FC009A688A439A60082299680A439A60012271
:10260C0019680A431A60FFF767FFCDE7FFB7FFFFB2
:10261C00F7B50700436E04006A37002B04D1012084
:10262C00388068342080F7BD03680B4E9A689B682D
:10263C000A4D5B0FF05CE95CC0000192FDF7DEFD1A
:10264C00019B38801B015B0FF05CE95CC000FDF75F
:10265C00D5FD80B2E5E7C046325500082A55000882
:10266C0070B504008434227803000220012A11D0B2
:10267C001D002422012688352A601A68116810680A
:10268C00B0431060044801400020586620231160BC
:10269C002B60207070BDC046FFFFFFDFF8B5050052
:1026AC0084350B0029780222012915D0060001215E
:1026BC000468883622323260276822688A43226096
:1026CC00A168C900C9081943A160FFF7A1FF202325
:1026DC000022276033602A701000F8BDF8B50500A1
:1026EC0084350A0029780223012915D0060001211E
:1026FC000468883622333360276823688B43236051
:10270C00A168064B19401143A160FFF781FF2023FC
:10271C002760336000232B701800F8BDFFFFFFF11A
:10272C00704700000B490C4A0300521A0B4910B5B4
:10273C000868002801D10A480860C318934206D9DA
:10274C0001F0D2FC0C2303600120404210BD0B6051
:10275C00FCE7C04600040000009000201C02002092
:10276C006029002070B50E0014000025A54201DB85
:10277C00200070BD00E000BF70550135F6E7012068
:10278C004042704780239B0100204B607047012022
:10279C0070470020704770B50C008969050000294E
:1027AC0004D0406800F0E3FA0023A36128682100FC
:1027BC0000F0DDFA70BD0A7C03001430F02A00D161
:1027CC00703A8A721A7ECA725B7E0B730B718B7CA9
:1027DC004B717047F8B504004669E369002B09D1C9
:1027EC00206800F0B7FAE061002803D11A4801F024
:1027FC0011FBF8BD300033689847071EF9D0E56926
:10280C0024220021280001F019FCAF61237E28004E
:10281C00AB71FB797F2B0CD900F099F9002803D10F
:10282C00AB8AA068002807D129002000FFF7B3FF6E
:10283C000EE000F0E0F8F1E702899A4201D000685E
:10284C00F0E7037E002BEFD129000C3000F08FFA5B
:10285C000023E361C1E7C0462251000870B50D00AA
:10286C00FFF7A9FF0424061E03D0AB7A102B02D16C
:10287C000224200070BD2800002B0AD100F08FF834
:10288C00041EF5D13068A96943689847AC61EC61C6
:10289C00EFE700F004F9F3E770B50B7C06000C00D1
:1028AC00102B1FD18B8A8568002D04D1210030009C
:1028BC00FFF771FF13E02A899A4201D02D68F3E7E4
:1028CC002B7E002BF2D120002100032210310A3084
:1028DC0001F03FFC280021000C3000F048FA0025E4
:1028EC00280070BDFFF7BAFF80235B4203432372BD
:1028FC00E3790500DB07F3D421003000FFF74BFF31
:10290C00EEE710B503894068CB81FFF7C5FF10BD1A
:10291C004269030010B5101E03D00C33180000F0F0
:10292C0019FA10BD0100406810B50B898468002CA1
:10293C0004D1083000F01BFA200010BD22899A4205
:10294C0001D02468F3E701204042F6E710B50400FB
:10295C004069002803D161612276637610BD0120A5
:10296C004042FBE770B504000E0015000021182250
:10297C00083001F063FB2660656070BD037C002BA2
:10298C000AD1C3897F2B07D8828A7F2A04D80B707F
:10299C00838A02204B70704701204042FBE770B5E0
:1029AC008569037BE91D2B71837C04006B71FFF738
:1029BC00E5FF431C04D000200134E37F0233AB71EC
:1029CC0070BD0B7810B57F2B02D90120404210BD91
:1029DC00002482798472C272427402790474027384
:1029EC00427982740A78C2814B7883825BB2A342AB
:1029FC00EBDB0220EBE770B5856904002B79E91D50
:102A0C0003716B794371FFF7DCFF431C07D02B007C
:102A1C0000200933E361AB790134023BE37770BDED
:102A2C00837A10B5A03B5A425341027C5B00F02ADA
:102A3C0001D1EF3A134380221C01524222430A7007
:102A4C00040002220A3413420AD06378CA1C4B7069
:102A5C00A3788B70437C1370837C5370023202E03A
:102A6C004A1C002BF6D1A3881370A488531CFF2C8E
:102A7C0006D9240A5470931C02220C7822430A7043
:102A8C00828A1A70828A581CFF2A06D9120A5A7036
:102A9C00981C01230A7813430B70401A10BD70B5B3
:102AAC0085690379E91D2B71437904006B71FFF77C
:102ABC00B7FF002804DB0134E37F1B180020AB7147
:102ACC0070BD0B783722F0B51C009443802C3BD1A1
:102ADC0002001D090A329B061ED5A02383724B7877
:102AEC0053708C78CB1C9470A024ED0700D5503417
:102AFC0004741C7844745C78023384741D7895805B
:102B0C000C78A40714D45C1C227882820B78DB0727
:102B1C0014D4631C581AF0BD8679847256700779E8
:102B2C004B1C9770AF07DFD1047446744479E4E70B
:102B3C009C1C5B781B021D439580E5E7A31C647805
:102B4C00240222438282E5E701204042E3E770B58C
:102B5C00856904002B79E91D03716B794371FFF7CB
:102B6C00B0FF002807DB2B180733E361AB79013486
:102B7C001B1A0020E37770BD837A01000020102B14
:102B8C0017D00230002B14D00330A02B04D00B7CB8
:102B9C000238F02B00D00238FF23CA8993429241AD
:102BAC00524201328218888A83428041404201306D
:102BBC0080187047F0B58DB00A920200394B09911C
:102BCC00040023CB23C200251B682E0013600123B5
:102BDC005B4203930193059504950123B3401F2792
:102BEC000893099B78100130C018B91CFDF77CFACA
:102BFC002D4B984217D92D4B984216D82C4BC318F5
:102C0C00DA179B1853400A225A4300239C46089B10
:102C1C0007925B0842000B9301239C4480231218FB
:102C2C009B009C4513D1013FDBD20136032ED4D13E
:102C3C00022D00D135002000059B25712370049BCB
:102C4C006380019BA360039BE3600DB0F0BD194B47
:102C5C009A42E1D9184B9A42E5D80B9B0A999B18DA
:102C6C00F3405B1AD9175B184B4014490293511867
:102C7C00CB17C9185940079BCB1806930299019B97
:102C8C00994204D3C8D1039B06999942C4D2FBB292
:102C9C00059363469BB20493069BF5B20393029B88
:102CAC000193B9E7F45000083F420F00C0E1E40083
:102CBC0000EE85FFFFE0F5050065CD1D005D1EEE05
:102CCC0084B070B5D4B2060005AD0591032C00D1CB
:102CDC00013C29784810013080190231FDF704FAC3
:102CEC006B8802335843E04070BC08BC04B01847F2
:102CFC00F7B50127050000264308124C01937F42CB
:102D0C00019B29001819FDF7EFF9802301005B02E4
:102D1C00984200D30C4948080019FDF7E5F9431B0C
:102D2C00DA179B185340BB4203D2854207D01F00D1
:102D3C002600064BE418064B9C42E1D134002000DF
:102D4C00FEBDC04680D1F008FFFF0000C0F2FCFFC2
:102D5C00C0D3F20582680300101E07D01868013A30
:102D6C0001689A601960002A00D15A607047836824
:102D7C005A1C8260002B05D0436819600023416007
:102D8C000B6070470160F9E710B51430FFF7E2FFF4
:102D9C0010BD10B52030FFF7EAFF10BD73B504006D
:102DAC001D006B460800D91D6368087016001A6870
:102DBC009B8820689362012301225B42FDF739FF57
:102DCC000123AAB2310020685B42FEF7FFF863686A
:102DDC001A689B88936173BD73B504001D006B4624
:102DEC000800D91D6368087016001A689B88206853
:102DFC009362012301225B42FDF71BFF0123AAB260
:102E0C00310020685B42FDF714FF63681A689B88E9
:102E1C00936173BD13B56B46DC1DFF232200237039
:102E2C00406DFE3BFFF7BAFF207816BD07B51300C7
:102E3C006A46D371802307321943406D7F3BFFF7FD
:102E4C00CBFF07BDF0B5C5680600480885B0401932
:102E5C000F000392FDF748F9441E022C00D2022405
:102E6C0080235B029C4200D3174C039B58084019EB
:102E7C001900FDF739F9451E022D00D202258023D9
:102E8C005B029D4200D3104D3000E2B20C21FFF7E3
:102E9C00CDFFA2B230000D21120AFFF7C7FF3000A0
:102EAC00EAB20E21FFF7C2FFAAB230000F21120ABC
:102EBC00FFF7BCFF019500943A00039BB1680348EF
:102ECC0000F042FF05B0F0BDFFFF000035510008D7
:102EDC00F0B50F0085B00C2116000500FFF79AFF26
:102EEC000D2101902800FFF795FF0E21040028000A
:102EFC00FFF790FF0F2102902800FFF78BFF019B3B
:102F0C002102194389B2EB68013103904810C018B3
:102F1C00FDF7EAF8039B38601902029B194389B24A
:102F2C00EB6801314810C018FDF7DEF8306005B0D1
:102F3C00F0BD0000F0B5040087B00D0000220121A7
:102F4C00FFF774FF00212000A668FFF763FF414BD9
:102F5C0002003100180000F0F7FE2800FFF7C8FE51
:102F6C0002AE0200E0603C493000FFF723FE059BF7
:102F7C0075880299039A00933748049BFFF7A0FECB
:102F8C000700E2683B00A168344800F0DDFE200039
:102F9C003278E7603221FFF749FF2000EAB2302196
:102FAC00FFF744FF33792A0A1B011A43D2B22000DF
:102FBC003121FFF73BFF32212000A768FFF72AFFE2
:102FCC00302105002000FFF725FF312106002000ED
:102FDC00FFF720FF03002A0039000093204833003C
:102FEC0000F0B2FE33212000A568FFF713FF1D4B44
:102FFC0002002900180000F0A7FE10222000332147
:10300C00FFF714FF36212000A568FFF703FF164BCE
:10301C0002002900180000F097FE01222000110088
:10302C00FFF704FF36212000A568FFF7F3FE0F4BD6
:10303C0002002900180000F087FE00212000A5687E
:10304C00FFF7E8FE0A4B02002900180000F07CFE96
:10305C0007B0F0BD5C5100080024F4007D5100085D
:10306C009D510008C8510008DF510008F8510008B4
:10307C001C520008F7B504000800A16815000029CF
:10308C0001D15949A160594A63652260584A2061AF
:10309C006260584800F058FE00212000FFF7BAFE8D
:1030AC00554E02003070A168544800F04DFE367841
:1030BC0033000A3B062B06D95148A16800F044FEA8
:1030CC0001204042FEBD00230D21B1425B414D4A1F
:1030DC001370102E00D083E0802220000C39FFF7F3
:1030EC00A5FE2000A968FFF725FF3200352120003E
:1030FC00FFF79CFE02212000FFF78CFE0E23AA7B1B
:10310C0018400233012A00D1103301221843024324
:10311C0002212000FFF78AFE2A780B212000FFF7FE
:10312C0085FE2A7B1A212000FFF780FE6A7B1B217B
:10313C002000FFF77BFE2A7C05212000FFF776FE9E
:10314C002A8A06212000120AFFF770FEAA7C0721AA
:10315C002000FFF76BFE6A8A08212000120AFFF795
:10316C0065FE2A7D09212000FFF760FEAA686968C8
:10317C002000FFF767FE112216212000FFF756FEF4
:10318C002A00291D20000832FFF7A2FEAB686A68EE
:10319C00A1681D4800F0D8FD0B212000A768FFF79F
:1031AC0039FE1A2105002000FFF734FE1B21060012
:1031BC002000FFF72FFE03002A003900009313486C
:1031CC00330000F0C1FD10212000A568FFF722FE9E
:1031DC000F4B02002900180000F0B6FD002071E72B
:1031EC000C4BE36086E7C0463D520008952D000865
:1031FC009F2D000843520008210200205352000862
:10320C006E5200082002002084520008A3520008CD
:10321C00CB520008005A620270470000F8B510212A
:10322C000400FFF7F7FD1C230500184217D0030715
:10323C0002D5A36B0133A363EB0602D5E36B013319
:10324C00E3636B0702D5236C01332364474B1B7874
:10325C00002B04D02C2216212000FFF7E7FD3F2D78
:10326C0012D96B0602D5636C013363642B0602D54D
:10327C00A36C0133A3643D4B1B78002B04D00C22B0
:10328C0017212000FFF7D2FDAB0725D52069FFF7EA
:10329C0061FD061E51D00323021D1421606DFFF742
:1032AC007DFDB379FD2B3CD81421606DF21DFFF729
:1032BC0075FD0027032216212000FFF7B7FD002F14
:1032CC0032D0A1682A4800F03FFD31002069FFF799
:1032DC004EFD236D01332365E36A002B37D1236A3E
:1032EC00002B1DD020002030FFF734FD8379021D08
:1032FC00033306009521606DFFF76EFD636B0133A0
:10330C006363AD0621D5172120000322FFF78EFD44
:10331C0031002000FFF780FF31002069FFF727FD07
:10332C00F8BD01277F42C5E7200031001430FFF7BC
:10333C001EFD236B01332363CEE70E48A16800F01A
:10334C0003FDE36C0133E364C6E7E662E4E7AD0634
:10335C00E6D5032217212000FFF768FD2000E16A63
:10336C00FFF75AFF0023E362DAE7C0462002002091
:10337C00DF520008F85200088A22F8B5154C164B9B
:10338C00164E9200002120001D88378800F056FE52
:10339C00134B01222360FE232373E1235B02236181
:1033AC00636101235B4223830E4BE361631CDA7779
:1033BC000D4B9F420DD12D0A95420AD131000B4A7B
:1033CC00200000F0C6FE032200210948257100F000
:1033DC0035FEF8BD2402002002F8010800F80108AF
:1033EC00CDCD00011400C800CDCD00002502000099
:1033FC0029020020F0B5012603001B4A8BB076424F
:10340C0004000D0005961340104205D1174800F03A
:10341C0001FD30000BB0F0BDD90A5B19DA0A5B056F
:10342C00581E8341521AD21802230693DB180793B5
:10343C0008910992FEF73CFB06AF061E04D138003A
:10344C0005A9FEF7D5FB0600FEF7B0FB059B06436E
:10345C0002960193FB682A0000932100BB68044884
:10346C0000F072FCD5E7C046FFFFFFF716530008CB
:10347C0037530008F7B50731CB08160001900093BD
:10348C00FEF716FB340005000027002D02D1009B2F
:10349C009F4203DBFEF78AFB2843FEBD627823784C
:1034AC0012021A43A37821791B041343E2780120FA
:1034BC0012061A43637901371B020B43A1790904E5
:1034CC001943E3791B060B430199891B0919FEF774
:1034DC0039FB08340500D8E7802110B50D480901E7
:1034EC00FFF788FFC0B2002802D00B4800F092FC16
:1034FC000A4A0B490748FFF7BDFF041E05D10948CE
:10350C00074900F021FC200010BD074800F082FCA8
:10351C000124F8E700F801086D530008240200208C
:10352C00250200008C530008B85300084278037839
:10353C0012021A438378C0781B0413430006184305
:10354C0070470000816970B50400064D002904D055
:10355C006868FFF70CFC0023A36128682100FFF7C3
:10356C0006FC70BDCC04002070B503890C00CB8127
:10357C000B7C102B03D188690730E06170BD40686B
:10358C00FFF719F92000A569FFF7F6FA04350330A7
:10359C002818F2E7F0B5174887B0FFF7C3F91648BB
:1035AC00FFF7C0F901AC1548FFF7BCF9112214491B
:1035BC00200000F0CEFD134B0F261A001249134DBC
:1035CC000878013107093040E75D205C1F705870A6
:1035DC000233A942F4D100230D4C137620000D4B7D
:1035EC000D4900F021FC21000C4800F0ADFB07B0A8
:1035FC00F0BDC046100000202C0000204800002028
:10360C0008540008B00400209075FF1F9C75FF1F24
:10361C004C040020D5530008DD530008FB53000870
:10362C00F7B59D4EF379002B03D00023F371FFF710
:10363C0053FF7279002A0DD0984B1968984B13439D
:10364C000B60BFF34F8F974B974ADA60BFF34F8FE6
:10365C00C046FDE7954D2800FFF75AF9041E1CD013
:10366C00010006220A31103000F073FD671C2100A6
:10367C002800FFF779FFFB7F002B00D083E08C4BF9
:10368C00E0691900009300F05CFD0098FCF710FD58
:10369C002100F8772800FFF734F9864F3800FFF740
:1036AC0037F9041E3CD0C56901002B780A31009310
:1036BC007F23009A103013402B70062200F049FD36
:1036CC0021003800FFF750FF2B78671CF97F002B87
:1036DC0060D1042900D0A3E0AB786A781B02ED78A6
:1036EC0013430193FB2D00DDFB25019BE069F118D1
:1036FC002A00013000F02DFD2A006F48019900F0DE
:10370C0023FB0022E36901351A70FD776B461B78A9
:10371C005BB2002B00DA86E021006648FFF7F1F877
:10372C00664B18000093FFF7F3F8041E00D19DE0E0
:10373C00C56901002B780A3101937F23019A10305F
:10374C0013402B70062200F004FD21000098FFF7B7
:10375C000BFF2B78671CFE7F2F2B68D1092E00D016
:10376C0092E0681CFFF7E2FE0600681DFFF7DEFE24
:10377C0001003000FFF73EFE0123421E9041FB7713
:10378C00E369187069E04E4800F044FB2000FFF735
:10379C00D9FE82E7202B2AD1032941D98A20AF7880
:1037AC006B783F021F433B1C8000874200D9031CEF
:1037BC000339CAB20192BA189BB2824201D98A2249
:1037CC00920091B28B4206D0D91B0331F018D21A59
:1037DC00691800F0BEFC019A39003A4800F0B4FABE
:1037EC000122631CDA770022E3691A708EE7012B41
:1037FC0016D1042914D1EE78FB2E00DDFB26A97816
:10380C006B780902E06919432F4B3200C91801305B
:10381C0000F09FFC0022E36901361A70FE7775E711
:10382C002A4800F091FA2000FFF78CFE78E7002B75
:10383C001DD1062E28D1681CFFF778FE6D7901008A
:10384C00FB2D00DDFB25E0692A00013000F081FC36
:10385C000022E36901351A70FD776B461B795BB268
:10386C00002B15DB21000098FFF74BF8F7BD202B40
:10387C000AD1052E08D9681C053EFFF757FE6A1DB4
:10388C00F1B2FFF7F7FD77E73100114800F05CFA71
:10389C002000FFF757FEE9E72402002088000020F3
:1038AC000000CDCD00ED00E00400FA05480000203A
:1038BC004C0400202C0000202B5400081000002089
:1038CC0019540008415400089C550008585400082D
:1038DC0074540008F8B5194B0E00DB7F1500184F17
:1038EC00002B1AD01748FFF735FA041E15D0FA2D05
:1038FC0000DDFA253B7B3100237100236371AB1C87
:10390C00A3714023E371373B2A002372E01800F0C7
:10391C0020FC21000C48FFF73CFA002380240B4AC2
:10392C00A8B299B2884201D82800F8BDD1692142C9
:10393C00FCD0F15C01339162F3E7C0462902002010
:10394C00240200208C090020EC04002000380140E7
:10395C00F0B56E4885B000F05DFAFFF70DFD6C4ACE
:10396C006C4FD37F6C4C03933B6819686B4BCB1833
:10397C0058424341A3716A4B994201D00023D3773B
:10398C008026684DB600AE620220FEF773FBAE6176
:10399C003220FEF76FFB644B644E0193644B320094
:1039AC001800019902930025FEF7DCFF82214900E3
:1039BC006943604B3000C9180135FFF7D8F91E2D4B
:1039CC00F4D10025242169435B4B0198C9180135BA
:1039DC00FFF7CDF91E2DF5D1584D594B310028006C
:1039EC00584AFFF747FBA379002B0AD1E122520278
:1039FC0011002800FFF726FA112216212800FFF7E4
:103A0C0015FA2900237B227A0298FEF79FFFFFF715
:103A1C00C1FD23794C49002B00D04C493B684C48E4
:103A2C001A6800F091F94B4E3368B2889A61FEF730
:103A3C001BFB0500A779FEF717FBC823401B002FC3
:103A4C0000D0643B984208D9FEF70EFB3368B2886D
:103A5C00196905000A424ED19A61A379002B1CD139
:103A6C00002F19D1FEF700FBFA239B00984214D9C2
:103A7C00E123216962695B02994201D18A4208D033
:103A8C002E4F3800FFF7DEF9112216213800FFF710
:103A9C00CDF9039A631DDA770127A379002B2CD17A
:103AAC00FEF7E2FAFA23DB00984226D92A4B2B4880
:103ABC001D682B4B1C682B4B1A689B889362B28831
:103ACC0033689A6200F0A6F9274B18684023016806
:103ADC00CA691A42FCD0FEF71DFB194B1868FDF79A
:103AEC0091F8FDF733FB01204042FEF74BFA85F3CA
:103AFC000888A047FEE79A62AFE71048FFF78EFBF5
:103B0C000B48FEF767FEFFF78BFD94E7AC540008FB
:103B1C00290200208800002024020020FFFF3232FE
:103B2C000100CDCD00040050480500208C09002078
:103B3C00CC0400209809002054050020EC0400203F
:103B4C006400002030020020A054000890540008AB
:103B5C00C45400087800002000600008E1540008FC
:103B6C000460000880000020740000200D48854689
:103B7C00FEF7D6FD0C480D490D4A002302E0D4583F
:103B8C00C4500433C4188C42F9D30A4A0A4C00239B
:103B9C0001E013600432A242FBD300F0ABFAFCF755
:103BAC00FDFCFEE70090002004000020E80000204F
:103BBC00D4570008E80000205C290020FEE7000034
:103BCC00002310B504000360436083608181436669
:103BDC00C281036143618361190008225C3000F0EB
:103BEC002DFA0B4B246263620A4BA3620A4BE3620D
:103BFC000A4B23630A4B9C4205D00A4B9C4202D0D1
:103C0C00094B9C4203D12000583000F097FA10BDAC
:103C1C00793E0008A13E0008D93E0008053F000887
:103C2C001028002078280020E028002010B5034A36
:103C3C000349044800F06CF810BDC0468C0000200D
:103C4C00D54C00089C00002041680B4B10B50400BB
:103C5C00994201D001F038F8A168084B994202D082
:103C6C00200001F031F8E168054B994202D02000A8
:103C7C0001F02AF810BDC04610280020782800203A
:103C8C00E028002010B5094B094A04211A600948A4
:103C9C000022FFF795FF012209210748FFF790FF4B
:103CAC00022212210548FFF78BFF10BD4829002086
:103CBC00393C00081028002078280020E02800203B
:103CCC0010B5024800F03BFA10BDC0465129002047
:103CDC0010B5024800F034FA10BDC046512900203E
:103CEC0010B50400FFF7ECFF236A002B02D0FFF79E
:103CFC00EFFF10BD044B2362044B1B68002BF6D165
:103D0C00FFF7C0FFF3E7C046553C000848290020E8
:103D1C00F7B51400002600900191A5686768013F73
:103D2C0004D52468002CF8D13000FEBDAB89012BE2
:103D3C0008D90E22AB5E013304D029000098019BF8
:103D4C00984706436835EAE70FB407B5054904AB55
:103D5C00086804CB8168019300F090FC03B008BCA8
:103D6C0004B0184798000020036A70B505000E00D7
:103D7C008468002B01D1FFF7B3FF636EDB0705D41A
:103D8C00A3899B0502D4A06D00F0D9F9A3891B0768
:103D9C0002D52369002B1FD12100280000F0F4F874
:103DAC00002819D001256D42636EDB0705D4A38969
:103DBC009B0502D4A06D00F0C3F9280070BD01363C
:103DCC00A360002B04DAA269934216DB0A2914D0F3
:103DDC0023685A1C22601970A3683178013B0029B2
:103DEC00EDD1A360002B0FDA220028000A3100F07D
:103DFC0089F80130D6D00A25D6E72200280000F039
:103E0C0081F80130E8D1CDE723685A1C22600A22E0
:103E1C001A70F0E710B5034B01001868FFF7A4FF08
:103E2C0010BDC046980000200EB410B500249DB003
:103E3C00029006900A481FAB07900490094804CBE7
:103E4C000590094802A9006801934C6600F0EAFA53
:103E5C00029B1C701DB010BC08BC03B01847C046B8
:103E6C00FFFFFF7F0802FFFF9800002070B50C00D9
:103E7C000E25495F00F010F9002803DB636D1B1859
:103E8C00636570BDA389024A1340A381F9E7C0465C
:103E9C00FFEFFFFFF8B51F008B8905000C00160023
:103EAC00DB0505D50E23C95E0022022300F0E0F8E5
:103EBC00A389054A28001340A38132000E23E15E3A
:103ECC003B0000F0FDF8F8BDFFEFFFFF70B50C00F4
:103EDC000E25495F00F0CCF80C22A35E421C03D1E6
:103EEC00044A1340A38170BD802252011343A38165
:103EFC006065F8E7FFEFFFFF10B50E23C95E00F019
:103F0C00A5F810BDF8B506000D001400002804D06B
:103F1C00036A002B01D1FFF7E3FEA369A360A38919
:103F2C001B0702D52369002B09D12100300000F0BA
:103F3C002BF8002803D001256D422800F8BD236919
:103F4C002068EFB2C01A6369EDB2834205DC210030
:103F5C00300000F0B9FE0028EDD1A3680130013B20
:103F6C00A36023685A1C22601F706369834204D0CB
:103F7C00A389DB07E1D50A2DDFD12100300000F049
:103F8C00A3FE0028D9D0D6E72B4B70B505001868D6
:103F9C000C00002804D0036A002B01D1FFF7A0FE0F
:103FAC000C22A35E1A0722D4DA0607D409222A604F
:103FBC00373201201343A381404270BD5A0713D5F9
:103FCC00616B002908D023004433994202D02800A9
:103FDC0000F0C8F8002363632422A38993430022D2
:103FEC00626022691BB2226008221343A3812269FA
:103FFC00002A07D19A0501D51B0603D521002800FC
:10400C0000F0B8FE0C23E25E012113000B400A42C3
:10401C000CD00023A36063695B42A3610020236979
:10402C008342CAD11306C8D54023C2E7910700D4F6
:10403C006369A360F2E7C046980000200300821871
:10404C00934200D1704719700133F9E7002370B522
:10405C00064D040008002B60FEF791FB431C03D1B6
:10406C002B68002B00D0236070BDC0464C2900206B
:10407C0070B50400080011001A000023054D2B60D8
:10408C00FEF787FB431C03D12B68002B00D0236069
:10409C0070BDC0464C29002070B50400080011000A
:1040AC001A000023054D2B60FEF75CFB431C03D16B
:1040BC002B68002B00D0236070BDC0464C2900201B
:1040CC0070B50400080011001A000023054D2B6088
:1040DC00FFF700FC431C03D12B68002B00D023609E
:1040EC0070BDC0464C290020014B18687047C04673
:1040FC009800002070B500260C4C0D4D641BA410CC
:10410C00A64209D1002600F0C7FF0A4C0A4D641BD9
:10411C00A410A64205D170BDB300EB5898470136E8
:10412C00EEE7B300EB5898470136F2E7CC5700089E
:10413C00CC570008D0570008CC5700087047704780
:10414C00704703000A7801311A700133002AF9D143
:10415C007047002310B59A4200D110BDCC5CC454FA
:10416C000133F8E770B505000C1E10D0043C236831
:10417C00002B00DAE418280000F0E0F81D4A136860
:10418C00002B05D163601460280000F0DFF870BDCF
:10419C00A34208D9206821188B42F3D119685B68B7
:1041AC0009182160EEE71A005B68002B01D0A342CE
:1041BC00F9D911685018A0420BD120680918501871
:1041CC0011608342E0D118685B684118116053603C
:1041DC00DAE7A04202D90C232B60D5E7206821181E
:1041EC008B4203D119685B680918216063605460C5
:1041FC00CAE7C0465829002070B50F4E0D00316833
:10420C000400002902D100F025FE306029002000B6
:10421C0000F020FE431C03D101256D42280070BD27
:10422C000323C51C9D43A842F8D0291A200000F096
:10423C0011FE0130F2D1EFE754290020F7B503222B
:10424C00CB1C9343083305001F000C2B34D20C27D6
:10425C00B94233D8280000F071F8374E33681C008F
:10426C00002C2FD139002800FFF7C6FF0400431C97
:10427C005FD134680094009B002B4AD1002C52D0A3
:10428C0023682800E3180099019300F0E3FD019BDB
:10429C00834248D123682800FF1A3900FFF7ACFF8E
:1042AC00013040D02368DB19236033685A68002A38
:1042BC0033D1009B336019E0002BC9DA0C232B603F
:1042CC000020FEBD2168C91B20D40B290AD9E21994
:1042DC002760A34204D1326063681160536005E02B
:1042EC005A60F9E76268A3420ED13260280000F0F0
:1042FC002DF8200007220B30231D9043C21A984240
:10430C00DFD01B1AA350DCE75A60EFE72300646888
:10431C00A6E7009C63680093ADE71A005B68A342B4
:10432C00FBD10023DAE70C2328002B6000F00EF8F9
:10433C00C6E70760DAE7C0465829002010B50248E6
:10434C00FFF7FDFE10BDC0465029002010B50248F5
:10435C00FFF7F6FE10BDC04650290020F0B58E6860
:10436C0085B01F000C00330002900392BE4254D85B
:10437C000C22885E9022D20010422CD003220969B4
:10438C0023685B1A019363695343019ADD0FED189F
:10439C007B1C6D109B182A00AB4201D91D001A0022
:1043AC00400527D511000298FFF748FF061E2AD0BA
:1043BC00019A2169FFF7CDFEA289194B1A4080237F
:1043CC001343A381019B2661F618266065613E00AC
:1043DC00ED1A3B00A5601F003A000399206800F01D
:1043EC0002FD0020A3689B1BA3602368DB192360DC
:1043FC0005B0F0BD029800F04AFD061EE2D121691D
:10440C000298FFF7AFFE0C230120029A4042136082
:10441C00A28934331343A381EAE73E00DCE7C046AC
:10442C007FFBFFFFF0B59FB002901C008B890E0044
:10443C0015001B0611D50B69002B0ED14021FFF77F
:10444C00FDFE30603061002805D10C23029A136008
:10445C0001204042D4E0402373610023292102AAA9
:10446C0052180B9320331370013102AA10335218D7
:10447C00137005942C002378002B01D0252B48D1E8
:10448C00671BAC420BD03B002A0031000298FFF7AF
:10449C0065FF013000D1AEE00B9BDB190B93237849
:1044AC00002B00D1A7E00122532100235242079296
:1044BC0002AA5218651C06930993089313701C9357
:1044CC00554F29780522380000F0D6FC6C1C069953
:1044DC0006AB00281FD1CA0604D55327202202A8F8
:1044EC00C01902700A0704D553272B2202A8C01941
:1044FC0002702A782A2A15D02C0000200A27DA68A4
:10450C002178651C3039092950D9002811D009921D
:10451C000FE00134AFE70123C01B83400B432500A0
:10452C000693CDE7059A101D12680590002A37DB1B
:10453C00DA6022782E2A0CD162782A2A3BD1059A8D
:10454C000234111D12680591002A01DA012252422F
:10455C005A60324D03222800217800F08DFC06AF02
:10456C00002806D04023401B8340069A0134134395
:10457C000693217806222A48651C397600F07CFCCB
:10458C0000283FD0274B002B29D10722059B07334E
:10459C009343083305930B9B03995B180B9369E7C3
:1045AC005242DA6002220A430692C2E77A432C0096
:1045BC0001205218A4E700220A205A6011001300AF
:1045CC0001342278651C303A092A03D9002BC0D05B
:1045DC000791BEE741432C0001238918F1E705AA96
:1045EC00009239003200104B029800E000BF03909B
:1045FC00039B0133CFD1B3890B985B0600D527E71A
:10460C001FB0F0BD05AA009239003200064B02988B
:10461C0000F0C4F9EBE7C046F0540008F65400086B
:10462C00FA5400080000000069430008936810B5B4
:10463C00013B9360002B04DA9469A34207DB0A293F
:10464C0005D01368581C10601970080010BDFFF7D6
:10465C0059FC0100F9E7F8B506000F001400D51855
:10466C00AC4201D1002007E021783A003000FFF77E
:10467C00DDFF0134431CF3D1F8BD0000F0B59FB051
:10468C000D0016001C000290002804D0036A002BB9
:10469C0001D1FFF725FB6B6EDB0705D4AB899B05BE
:1046AC0002D4A86DFFF74BFDAB891B0702D52B6914
:1046BC00002B13D129000298FFF766FC00280DD0BF
:1046CC006B6EDB0703D5012040421FB0F0BDAB89F8
:1046DC009B05F8D4A86DFFF733FDF4E700232921DF
:1046EC0002AA52180B9320331370013102AA103313
:1046FC0052181370059434002378002B01D0252B0D
:10470C0048D1A71BB4420BD03B00320029000298C1
:10471C00FFF7A1FF013000D1AEE00B9BDB190B932F
:10472C002378002B00D1A7E0012253210023524211
:10473C00079202AA5218661C0693099308931370E9
:10474C001C93594F31780522380000F095FB741CEE
:10475C00069906AB00281FD1CA0604D55327202280
:10476C0002A8C01902700A0704D553272B2202A8ED
:10477C00C019027032782A2A15D0340000200A277A
:10478C00DA682178661C3039092950D9002811D0F3
:10479C0009920FE00134AFE70123C01B83400B43A8
:1047AC0026000693CDE7059A101D12680590002A85
:1047BC0037DBDA6022782E2A0CD162782A2A3BD198
:1047CC00059A0234111D12680591002A01DA0122A2
:1047DC0052425A60354E03223000217800F04CFBD7
:1047EC0006AF002806D04023801B8340069A013474
:1047FC0013430693217806222D48661C397600F067
:10480C003BFB002847D02B4B002B29D10722059BC3
:10481C0007339343083305930B9B03995B180B9356
:10482C0069E75242DA6002220A430692C2E77A43EF
:10483C00340001205218A4E700220A205A6011000B
:10484C00130001342278661C303A092A03D9002B54
:10485C00C0D00791BEE74143340001238918F1E72A
:10486C0005AA009239002A00134B029800E000BF01
:10487C000390039B0133CFD16B6EDB0705D4AB895F
:10488C009B0502D4A86DFFF75BFCAB895B0600D5DA
:10489C0019E70B9819E705AA009239002A00064B74
:1048AC00029800F07BF8E3E7F0540008F654000897
:1048BC00FA5400080000000063460008F7B5160023
:1048CC0001938A680B690C000090934200DA130084
:1048DC002200336043321278002A01D00133336056
:1048EC0023689B0602D533680233336022680623A3
:1048FC0015001D401A4227D0230043331B785A1E43
:10490C0093412268920630D4220001990098089DA8
:10491C004332A847013025D00622236800251340D6
:10492C00042B05D13368E568ED1AEB43DB171D400A
:10493C00A3682269934201DD9B1AED180026B5424B
:10494C0020D1002010E00135E36832689B1AAB429D
:10495C00D2DD2200012301990098089F1932B84733
:10496C000130F0D101204042FEBD3020E11843312E
:10497C00087021005A1C45310978A21843320233C1
:10498C001170C1E72200012301990098089F1A3287
:10499C00B8470130E6D00136D1E70000F0B58BB056
:1049AC0006920A0043320793059003920A7E0C008C
:1049BC00109B782A09D8622A0BD8002A00D1BAE0B9
:1049CC007A490491582A00D18EE0250042352A708C
:1049DC0022E0100063381528F7D8FBF77BFB160094
:1049EC001F00F6FFF6FFF6FFF6FF1F00F6FFF6FFBF
:1049FC00F6FFF6FF9F0036007E00F6FFF6FFB000D4
:104A0C00F6FF3600F6FFF6FF820025001A684235E5
:104A1C00111D196013682B7001239EE0186809683A
:104A2C00021D0D060BD506681A60002E03DA2D2325
:104A3C00039A764213705D4B0A27049318E00668BC
:104A4C001A604906F1D536B2EFE70868196840C913
:104A5C00050602D4400600D5B6B21960534B0A279E
:104A6C0004936F2A00D1023F2300002243331A70B3
:104A7C006368A360002B06DB04212268039D8A4334
:104A8C00226033430CD0039D30003900FBF7B2FB9E
:104A9C00049B013D5B5C2B70330006009F42F3D9F5
:104AAC00082F09D12368DB0706D5626823699A426F
:104ABC0002DC3023013D2B70039B5B1B2361079BA6
:104ACC00210000930598069B09AAFFF7F7FE013019
:104ADC0048D1012040420BB0F0BD202209680A43A6
:104AEC002260782232490491210045310A701968FC
:104AFC00226840C9100602D4500600D5B6B219601F
:104B0C00D30702D5202313432360002E01D0102796
:104B1C00AAE72022236893432360F8E71A680D68FC
:104B2C00101D4969186013682E0601D5196002E042
:104B3C006D06FBD519800023039D2361BFE71A681E
:104B4C00111D1960156800212800626800F094F9A5
:104B5C00002801D0401B6060636823610023039A26
:104B6C001370ACE72A00236906990598079DA8479E
:104B7C000130AED023689B0715D4099BE06898429E
:104B8C00A9DA1800A7E72200012306990598079EC9
:104B9C001932B04701309CD00135E368099A9B1A51
:104BAC00AB42F0DCE9E70025F7E7C0460155000809
:104BBC0008540008F7B50C228B5E05000C001A0790
:104BCC005AD44A68002A02DC0A6C002A4FDDE76AD4
:104BDC00002F4CD0002280212E682A601A00490137
:104BEC000A400B4234D0626DA3895B0706D563681B
:104BFC00D21A636B002B01D0236CD21A002328002D
:104C0C00E76A216AB8470C23E25E431C06D1296887
:104C1C001D292ED82B4BCB40DB072AD500236360F4
:104C2C0023692360D20405D5431C02D12B68002BC9
:104C3C0000D16065616B2E60002918D023004433CD
:104C4C00994202D02800FFF78DFA002363630EE02F
:104C5C0001232800216AB8470200431CC4D12B68E9
:104C6C00002BC1D01D2B01D0162B1DD12E60002086
:104C7C0021E0402313431BE00E69002EF7D00F6890
:104C8C000E60BA1B019200229B0700D14A69A260F8
:104C9C00019B002BEBDDA36A32001F002800019B57
:104CAC00216AB847002807DC4023A28913431BB2B2
:104CBC000120A3814042FEBD019B36181B1A0193B3
:104CCC00E6E7C046010040200B6970B505000C00FA
:104CDC00002B02D10025280070BD002804D0036AE7
:104CEC00002B01D1FEF7FCFF0C22A35E002BF1D0B0
:104CFC00626ED20704D49B0502D4A06DFFF71FFA95
:104D0C0028002100FFF756FF636E0500DB07E2D495
:104D1C00A3899B05DFD4A06DFFF712FADBE7000037
:104D2C00F0B50E001D000E23C95E140097B00029CB
:104D3C000CDAB2898023110019401A4214D1802355
:104D4C00DB0000202960236017B0F0BD6A4600F03C
:104D5C005DF80028EDDBF02301991B021940044B90
:104D6C00C9184B425941EAE700214023E9E7C04604
:104D7C0000E0FFFFF7B502268B8905000C003342DB
:104D8C0006D0230047332360236101236361F7BD01
:104D9C006A4601ABFFF7C4FF009F28003900FFF7FC
:104DAC004DFA0C22A35E002806D19A05EFD40322FB
:104DBC0093431E43A681E4E780221343A381019B06
:104DCC00206020616761002BE1D028000E23E15E9A
:104DDC0000F02EF80028DAD00323A2899A43023B74
:104DEC001343A381D3E710B5884202D98B1898429C
:104DFC0008D300239A4207D0CC5CC4540133F9E7A2
:104E0C008B5C8354013AFBD210BD0000002370B5BB
:104E1C00064D0400080011002B60FDF7B3FC431C89
:104E2C0003D12B68002B00D0236070BD4C290020CF
:104E3C00002370B5064D040008002B60FDF7A7FC9D
:104E4C00431C03D12B68002B00D0236070BDC046DF
:104E5C004C290020002370B5064D040008002B607F
:104E6C00FDF760FC431C03D12B68002B00D02360A2
:104E7C0070BDC0464C290020C9B28218904201D1A5
:104E8C000020704703788B42FBD00130F6E7F7B572
:104E9C0006000C001500002905D11100FFF7CEF912
:104EAC0004002000FEBD002A03D1FFF75BF92C00A3
:104EBC00F7E700F01CF80700854202D84308AB4224
:104ECC00EFD329003000FFF7B9F90190002801D188
:104EDC00019CE6E72A00BD4200D93A002100019866
:104EEC00FFF737F921003000FFF73CF9F0E70B1F13
:104EFC001B68181F002B01DA0B58C01870470000F4
:104F0C00F0B557464E464546DE46E0B504000D006A
:104F1C009246994683B08B4230D82DD049465046A4
:104F2C00FBF778FA290006002000FBF773FA331A16
:104F3C009846203B34D49B4653465A4693404246AF
:104F4C001F00534693401E00AF423BD8AF4200D1E6
:104F5C0079E05B46A41BBD41002B00DA76E0002211
:104F6C0000230092019301235A469340019301239D
:104F7C0042469340009329E08242CFD9002200237D
:104F8C00009201930C9B002B01D01C605D6000987B
:104F9C00019903B0F0BCBB46B246A946A046F0BD91
:104FAC0042469B4620239B1A5246DA404146130048
:104FBC004A468A40170042461F43534693401E0000
:104FCC00AF42C3D900220023009201934346002B29
:104FDC00D8D0FB0772081A4346467B080EE0AB425A
:104FEC0001D1A2420CD8A41A9D41012024196D4173
:104FFC000021013E24184D41002E06D0AB42EED9C3
:10500C00013E24196D41002EF8D1009801995B46A0
:10501C0000196941002B24DB2B005A464646D3402D
:10502C002A001C00F2405B461500002B2ADB2600F0
:10503C009E40330026004746BE403200801A9941FC
:10504C00009001919EE7A342BCD882E74246202300
:10505C0000219B1A0022009101920122DA40019258
:10506C0085E7424620239B1A2A0046469A40230095
:10507C00F340464613432A001C00F2405B461500E1
:10508C00002BD4DA202342462F009B1B974026008E
:10509C00DE403B003343CDE7F8B5C046F8BC08BC56
:1050AC009E467047F8B5C046F8BC08BC9E46704793
:1050BC0080220C4B30B55C69D20222435A61EFF36B
:1050CC00108272B64C1CFF34401A0D6845500431E6
:1050DC00A142FAD18021490218690842FCD182F31D
:0850EC00108830BD00200240D5
:1050F4000000000000000000FFFFFFFFFFFFFFFFB4
:105104004E4D495F48616E646C657200486172641B
:105114004661756C745F48616E646C657200573AE1
:105124002072783A206E6F206672656520706B7409
:1051340000443A2025733A207365742062617564D3
:1051440020726174653A20256C7520256C752028C1
:105154002575202575290A00493A2025733A2076B9
:10516400657273696F6E2028636C6B3A206F73638A
:10517400293A20253032780A00493A2025733A200A
:10518400737973636C6B20256C752C206163747563
:10519400616C3A20256C750A00493A2025733A203F
:1051A400706C6C5F6E3A20253032782C206D6C3A2E
:1051B40020253032782C206F645F6D683A202530CA
:1051C40032780A00493A2025733A20706C6C5F6388
:1051D40074726C3A20253032780A00493A202573DB
:1051E4003A20636C6B5F7374617475733A20253075
:1051F40032780A00493A2025733A20636C6B5F7356
:1052040074617475732028636C6B3A20706C6C291C
:105214003A20253032780A00493A2025733A20761C
:10522400657273696F6E2028636C6B3A20706C6CC6
:10523400293A20253032780A00636463746C00498B
:105244003A2025733A20696E69742E2E2E0A00497D
:105254003A2025733A206368697020766572736911
:105264006F6E3A20253032780A00453A2025733A89
:105274002076657273696F6E206572726F720A00B0
:10528400443A2025733A206765742062617564206E
:10529400726174653A20256C7520256C750A00448A
:1052A4003A2025733A206765742066696C746572C8
:1052B400286D293A2025303278202825303278206C
:1052C40025303278290A00443A2025733A20666C46
:1052D4006167733A20253032780A00453A202573F5
:1052E4003A207278206672616D65206C656E206567
:1052F40072720A00453A2025733A20676574207259
:10530400782C206E6F2066726565206672616D650B
:105314000A00453A206E766D2065726173653A2005
:1053240061766F69642065726173696E6720736565
:105334006C6600443A206E766D2065726173653A3E
:10534400202530386C78202B2530386C782028259F
:105354006C6420256C64292C202530386C782C2032
:105364007265743A2025640A00493A20636F6E66B8
:105374003A206661696C656420746F20657261739C
:105384006520666C61736800493A20636F6E663A03
:10539400207361766520746F20666C617368207376
:1053A40075636365737365642C2073697A653A2049
:1053B40025640A00453A20636F6E663A207361766D
:1053C4006520746F20666C617368206572726F72F9
:1053D4000038316463313537004D3A2063647374A7
:1053E40065702028626C293B20533A2025733B20AA
:1053F40053573A20257300493A20696E666F3A2064
:1054040025730A0030313233343536373839616226
:105414006364656600443A207031207365723A20F3
:1054240069676E6F726500443A2063736120726528
:1054340061643A20253034782025640A00443A20F7
:105444006373612077726974653A2025303478205B
:1054540025640A00573A206373613A2077726F6EAD
:105464006720636D642C206C656E3A2025640A0005
:10547400573A206E766D3A2077726F6E6720636DAF
:10548400642C206C656E3A2025640A006C6F61649C
:105494002066726F6D20666C617368007573652099
:1054A40064656661756C74000A737461727420615A
:1054B40070705F6D61696E2028626C292E2E2E003B
:1054C400626C20636F6E663A2025732C20626C5FD9
:1054D400617267733A202530386C780A006A756DFA
:1054E4007020746F206170702E2E2E00232D302BAF
:1054F4002000686C4C0065666745464700303132D1
:105504003334353637383941424344454600010087
:1055140002000400060008000A000C00100020002D
:105524004000800000010804020408010101010197
:10553400010307010000000000000000000000005B
:105544000000000000000000010000000200000054
:105554000300000004000000000000000000000040
:105564000000000000000000000000000000000037
:105574000000000000000000010000000200000024
:105584000300000004000000060000000700000003
:105594000800000009000000CDCD0001000000005B
:1055A40000000000FE00000000C2010000C2010073
:1055B400FFFF00001400C80001000000000000000C
:1055C40000000000000000000000000000000000D7
:1055D40000000000000000000000000000000000C7
:1055E40000000000000000000000000000000000B7
:1055F40000000000000000000000000000000000A7
:105604000000000000000000000000000000000096
:105614000000000000000000000000000000000086
:105624000000000000000000000000000000000076
:105634000000000000000000000000000000000066
:105644000000000000000000000000000000000056
:105654000000000000000000000000000000000046
:105664000000000000000000000000000000000036
:105674000000000000000000000000000000000026
:105684000000000000000000000000000000000016
:105694000000000000000000000000000000000006
:1056A40000000000000000000000000000000000F6
:1056B40000000000000000000000000000000000E6
:1056C40000000000000000000000000000000000D6
:1056D40000000000000000000000000000000000C6
:1056E40000000000000000000000000000000000B6
:1056F40000000000000000000000000000000000A6
:105704000000000000000000000000000000000095
:105714000000000000000000000000000000000085
:105724000000000000000000000000000000000075
:105734000000000000000000000000000000000065
:105744000000000000000000000000000000000055
:105754000000000000000000000000000000000045
:105764000000000000000000000000000000000035
:105774000000000000000000000000000000000025
:105784000000000000000000000000000000000015
:105794000000000000000000000000000000000005
:1057A40000000000000000000000000000000000F5
:1057B40000000000000000000000000000000000E5
:0857C40048F7FF7F010000001F
:0457CC00E9040008E4
:0457D000BD0400080C
:1057D40001000000040000000024F40000000000A8
:1057E400CC040020080000000000000000000000BD
:1057F400000000000000000000000000CC040020B5
:10580400050000000000000000000000000000008F
:105814000000000000000000CC0400200100000093
:105824000000000000000000000000000000000074
:10583400980100206C00002000000050008000004F
:1058440004010020000C005002000000000C005075
:10585400040000000000002000000000030000001D
:10586400102800209C0000200000000010280020C8
:1058740078280020E028002000000000000000003C
:105884000000000000000000000000000000000014
:105894000000000000000000000000000000000004
:1058A40000000000000000000000000000000000F4
:0458B40000000000F0
:0400000508003B793B
:00000001FF
