:020000040800F2
:1060000000200020A5AA00082969000839690008B5
:106010000000000000000000000000000000000080
:1060200000000000000000000000000049690008B6
:1060300000000000000000004B6900084D690008E6
:10604000F5AA0008F5AA0008F5AA0008F5AA0008B4
:10605000F5AA0008F5AA0008F5AA00085569000885
:10606000000000006169000871690008F5AA0008D5
:10607000F5AA0008F5AA0008F5AA0008F5AA000884
:10608000F5AA0008F5AA0008F5AA0008F5AA000874
:1060900000000000F5AA0008F5AA0008F5AA00080B
:1060A000F5AA0008F5AA0008F5AA0008F5AA000854
:0C60B000F5AA0008F5AA00080000000096
:1060BC0010B5064C2378002B07D1054B002B02D0D2
:1060CC00044800E000BF0123237010BD1401002020
:1060DC000000000008C30008044B10B5002B03D0CF
:1060EC000349044800E000BF10BDC046000000009A
:1060FC001801002008C300080023C25C0133002AE9
:10610C00FBD1581E7047000003B47146490840008B
:10611C004900095E49008E4403BC704700224308C5
:10612C008B4274D303098B425FD3030A8B4244D353
:10613C00030B8B4228D3030C8B420DD3FF22090295
:10614C0012BA030C8B4202D31212090265D0030B54
:10615C008B4219D300E0090AC30B8B4201D3CB034A
:10616C00C01A5241830B8B4201D38B03C01A52418C
:10617C00430B8B4201D34B03C01A5241030B8B428E
:10618C0001D30B03C01A5241C30A8B4201D3CB0279
:10619C00C01A5241830A8B4201D38B02C01A52415E
:1061AC00430A8B4201D34B02C01A5241030A8B4261
:1061BC0001D30B02C01A5241CDD2C3098B4201D379
:1061CC00CB01C01A524183098B4201D38B01C01AF7
:1061DC00524143098B4201D34B01C01A524103096E
:1061EC008B4201D30B01C01A5241C3088B4201D31D
:1061FC00CB00C01A524183088B4201D38B00C01ACA
:10620C00524143088B4201D34B00C01A5241411AF0
:10621C0000D20146524110467047FFE701B50020FD
:10622C0000F0F0F802BDC0460029F7D076E77047C1
:10623C0003460B437FD4002243088B4274D30309DB
:10624C008B425FD3030A8B4244D3030B8B4228D37C
:10625C00030C8B420DD3FF22090212BA030C8B42A2
:10626C0002D31212090265D0030B8B4219D300E042
:10627C00090AC30B8B4201D3CB03C01A5241830BC7
:10628C008B4201D38B03C01A5241430B8B4201D377
:10629C004B03C01A5241030B8B4201D30B03C01AA0
:1062AC005241C30A8B4201D3CB02C01A5241830A1A
:1062BC008B4201D38B02C01A5241430A8B4201D349
:1062CC004B02C01A5241030A8B4201D30B02C01A73
:1062DC005241CDD2C3098B4201D3CB01C01A5241DA
:1062EC0083098B4201D38B01C01A524143098B4263
:1062FC0001D34B01C01A524103098B4201D30B014C
:10630C00C01A5241C3088B4201D3CB00C01A524170
:10631C0083088B4201D38B00C01A524143088B4235
:10632C0001D34B00C01A5241411A00D201465241CE
:10633C00104670475DE0CA0F00D04942031000D3ED
:10634C004042534000229C4603098B422DD3030A42
:10635C008B4212D3FC22890112BA030A8B420CD352
:10636C00890192118B4208D3890192118B4204D37B
:10637C0089013AD0921100E08909C3098B4201D3FB
:10638C00CB01C01A524183098B4201D38B01C01A35
:10639C00524143098B4201D34B01C01A52410309AC
:1063AC008B4201D30B01C01A5241C3088B4201D35B
:1063BC00CB00C01A524183088B4201D38B00C01A08
:1063CC005241D9D243088B4201D34B00C01A5241DF
:1063DC00411A00D20146634652415B10104601D36C
:1063EC004042002B00D54942704763465B1000D3F6
:1063FC00404201B5002000F005F802BD0029F8D09C
:10640C0016E770477047C046002B11D1002A0FD1F8
:10641C00002900D1002802D00021C943080007B48C
:10642C00024802A14018029003BDC046D9FFFFFFED
:10643C0003B4684601B5029800F034F8019B9E46FF
:10644C0002B00CBC7047C046F0B5CE46474680B58E
:10645C00070099463B0C9C4613041B0C1D000E00B8
:10646C0061460004140C000C45434B4360436143EC
:10647C00C0182C0C20188C46834203D980235B0255
:10648C009846C444494679437243030C63442D0433
:10649C002D0CC918000440198918C0BCB946B04667
:1064AC00F0BDC046F0B557464E464546DE46E0B513
:1064BC0004000D009246994683B08B4230D82DD003
:1064CC004946504600F0BAF829000600200000F0BA
:1064DC00B5F8331A9846203B9B4633D45A4653465C
:1064EC00934042461F00534693401E00AF423AD899
:1064FC00AF4200D178E05B46A41BBD41002B00DA13
:10650C0075E0002200230092019301235A46934028
:10651C000193012342469340009328E08242CFD955
:10652C0000220023009201930C9B002B01D01C60D5
:10653C005D600098019903B0F0BCBB46B246A94619
:10654C00A046F0BD424620239B1A5246DA404146F3
:10655C0013004A468A40170042461F435346934055
:10656C001E00AF42C4D9002200230092019343467F
:10657C00002BD9D0FB0772081A4346467B080EE065
:10658C00AB4201D1A2420CD8A41A9D41012024197E
:10659C006D410021013E24184D41002E06D0AB4226
:1065AC00EED9013E24196D41002EF8D100980199C5
:1065BC005B4600196941002B24DB2B005A464446EC
:1065CC00D3402A00E2401C005B461500002B2ADB5E
:1065DC0026009E40330026004746BE403200801AFB
:1065EC009941009001919FE7A342BCD883E74246B2
:1065FC00202300219B1A0022009101920122DA40F3
:10660C00019286E7424620239B1A2A0046469A406E
:10661C002300F340444613432A00E2401C005B462F
:10662C001500002BD4DA42462F0020232600974079
:10663C009B1ADE403B003343CDE7C04610B5002922
:10664C0003D100F007F8203002E0080000F002F857
:10665C0010BDC0461C2101231B04984201D3000C21
:10666C0010391B0A984201D3000A08391B099842B9
:10667C0001D30009043902A2105C40187047C046CF
:10668C0004030202010101010000000000000000EF
:10669C00F0B5DE4657464E464546E0B589B0142265
:1066AC00002103A804F055FA3B4B5A6B02273A43DE
:1066BC005A635A6B3A400092009A596B0422114368
:1066CC005963596B0A400192019A5A6B01252A436E
:1066DC005A635B6B2B400293029B304B9B46002210
:1066EC008121180001F066F88023DB019A462C4BBF
:1066FC00984600225146180001F05CF8A026F605D9
:10670C0001222021300001F055F8C0235B0199468D
:10671C0000221900300001F04DF8812303930495F9
:10672C0000240594069403A9584600F087FF5346AD
:10673C00039304950594069403A9404600F07EFF4C
:10674C0080231B02039384239B030493059503A9C5
:10675C00404600F073FF202303930495059406979D
:10676C0003A9300000F06AFF4B460393049505948F
:10677C00069403A9300000F061FF002201210720DC
:10678C0001F050F9072001F07DF909B0F0BCBB46CF
:10679C00B246A946A046F0BD0010024000040050CD
:1067AC000008005000B583B00D4A916B01231943CA
:1067BC009163926B13400193019B002201210920EC
:1067CC0001F030F9092001F05DF9002201210A20C5
:1067DC0001F028F90A2001F055F903B000BDC046BC
:1067EC000010024072B6FEE710B51048104B036063
:1067FC0082235B00436000238360E022D200C260EE
:10680C0003614361802292008261C361036243622F
:10681C008362FA3AFF3AC26203630833436301F0BE
:10682C0037FB002800D110BDFFF7DCFFE80100208A
:10683C000038004010B51748174B0360E1235B028A
:10684C00436000238360C36003610C224261836157
:10685C00C36103624362836202F0E8F8002811D13D
:10686C0000210C4802F068F900280DD100210948DC
:10687C0002F088F9002809D1064802F03DF90028F9
:10688C0006D110BDFFF7AEFFFFF7ACFFFFF7AAFF75
:10689C00FFF7A8FF4C0200200038014000B593B070
:1068AC003822002104A804F054F910220021684673
:1068BC0004F04FF98020800001F08AF80223049341
:1068CC00FE33079300230893402209920B9304A8EC
:1068DC0000F026F900280DD1072300930023019323
:1068EC00029303930021684600F0D2FB002803D1E9
:1068FC0013B000BDFFF776FFFFF774FF10B501F082
:10690C0015F9FFF7CBFFFFF7C3FEFFF76DFFFFF79E
:10691C0049FFFFF78FFF04F05BF8FEE710B5024864
:10692C0004F0ACF9FEE7C0465CC3000810B50248A1
:10693C0004F0A4F9FEE7C04668C30008704770472E
:10694C0010B501F007F910BD10B58020000200F061
:10695C0039FF10BD10B5024800F0D4FF10BDC04681
:10696C003001002010B5024800F0CCFF10BDC0462D
:10697C008C01002082B00A4B196C0122114319645E
:10698C00196C0A400092009ADA6B802149050A437F
:10699C00DA63DB6B0B400193019B02B07047C0467E
:1069AC0000100240F0B5C64600B588B004001422B1
:1069BC00002103A804F0CDF8314B22689A4203D091
:1069CC0008B080BCB846F0BD2E4BD96B8020C001FE
:1069DC000143D963DA6B02400192019A5A6B012789
:1069EC003A435A635B6B3B400293029B092303932C
:1069FC00022604960696A023DB05984603A91800E8
:106A0C0000F01CFE102303930496002505950696B2
:106A1C00079703A9404600F011FE1B481B4B03606F
:106A2C00122343608560C5606E33036145618561E7
:106A3C00C561056200F00EFF00281BD1124BA36547
:106A4C009C621348134B036013234360033B836026
:106A5C000023C3608022026143618361C361802390
:106A6C005B01036200F0F6FE002806D1084B63655B
:106A7C009C62A5E7FFF7B6FEE0E7FFF7B3FEF5E78C
:106A8C000038004000100240300100200800024095
:106A9C008C0100201C00024010B592B0040014229E
:106AAC0000210DA804F055F82822002103A804F0B9
:106ABC0050F82268174B9A4201D012B010BD012336
:106ACC00039303A800F0C4FB00281FD1124B196CD0
:106ADC008020C001014319641A6C02400192019A92
:106AEC00596B0222114359635B6B1A400292029B51
:106AFC0040230D932E3B0E93113B0F9300231093C9
:106B0C0011930DA9054800F099FDD6E7FFF76AFE31
:106B1C00DCE7C04600380140001002400004005081
:106B2C0070B582B0041E00D131E20368DB0739D5A1
:106B3C00C14A916838230B40D16803220A40102BBC
:106B4C0026D0082B26D063688022520293427FD035
:106B5C00A022D202934200D181E0B74B1A68B74908
:106B6C000A401A601A68B6490A401A606368002B1A
:106B7C0000D180E000F0FAFF0500AF4B1B689B03CF
:106B8C0010D400F0F3FF401B6428F6D90320FFE17A
:106B9C00032AD6D1A84B1B689B0303D56368002B33
:106BAC0000D1F7E123689B0731D5A34A93683821BC
:106BBC000B40D16803220A40102B6AD0002B6BD1FA
:106BCC009D4A1268520503D5E268002A00D1E3E120
:106BDC00994842689B490A40616909020A4342602C
:106BEC00002B0DD1036898490B4021690B430360BE
:106BFC000368DB0A07221A40944BD340944A136073
:106C0C00944B186800F066FF002800D0C6E123689A
:106C1C001B0700D481E0884B9A6838231340182B4B
:106C2C0073D0A369002B00D1B4E0834A136E012109
:106C3C000B43136600F09AFF05007F4B1B6E9B07FE
:106C4C006BD400F093FF401B0228F6D903209FE180
:106C5C00794A116880235B020B43136086E7764BFD
:106C6C0019688022D2020A431A60196880225202E3
:106C7C000A431A607AE700F079FF05006E4B1B6837
:106C8C009B038FD500F072FF401B6428F6D90320BC
:106C9C007EE1022A92D193E7E368002B22D0664A68
:106CAC00136869490B4021690B43136011688023F9
:106CBC005B000B43136000F059FF05005E4B1B6833
:106CCC005B0506D400F052FF401B0228F6D90320C6
:106CDC005EE159494B685B4A1340626912021343E7
:106CEC004B6094E7544A13685B490B40136000F007
:106CFC003DFF0500504B1B685B0588D500F036FF47
:106D0C00401B0228F6D9032042E14B4B1B6E9B071C
:106D1C0003D5A369002B00D142E123685B0700D4A3
:106D2C00A2E0454B9A6838231340202B45D0424BA8
:106D3C00DB6BDB004AD4404AD16B80204005014319
:106D4C00D163D36B03400193019B0125434B1B681B
:106D5C00DB053DD5A368012B4ED0052B52D0364B0D
:106D6C00DA6D01218A43DA65DA6D03318A43DA651B
:106D7C00A368002B50D000F0F9FE06002E4BDB6D03
:106D8C009B076FD400F0F2FE801B354B9842F5D96F
:106D9C000320FDE0284A136E01218B43136600F09B
:106DAC00E5FE0500244B1B6E9B07B6D500F0DEFEFE
:106DBC00401B0228F6D90320EAE01F4BDB6D9B0732
:106DCC0052D5A368002B4FD10120E1E00025BDE78F
:106DDC00224A116880235B000B43136000F0C6FE4F
:106DEC0006001E4B1B68DB05B4D400F0BFFE801BF5
:106DFC000228F6D90320CBE00F4AD36D01210B43B7
:106E0C00D365B5E70C4BDA6D04210A43DA65DA6D0C
:106E1C0003390A43DA65ABE700F0A8FE0600064B1F
:106E2C00DB6D9B071ED500F0A1FE801B0C4B98421E
:106E3C00F5D90320ACE0C04600100240FFFFFEFF76
:106E4C00FFFFFBFFFF80FFFFFFC7FFFF0024F400E5
:106E5C000800002004000020FFFEFFFF007000402F
:106E6C0088130000012D1ED0E369002B00D199E09E
:106E7C00544A916838220A40102A60D0022B18D04C
:106E8C00504A136850490B40136000F06FFE040029
:106E9C004C4B1B689B014BD500F068FE001B022875
:106EAC00F6D9032074E0474AD36B48490B40D363AF
:106EBC00DAE7444A136844490B40136000F056FE6D
:106ECC000500404B1B689B0106D500F04FFE401B94
:106EDC000228F6D903205BE03A4AD3683C491940B2
:106EEC00236A606A0343A06A00020343E06A034317
:106EFC00206B0343606B03430B43D3601168802307
:106F0C005B040B431360D16880235B050B43D36098
:106F1C0000F02CFE04002B4B1B689B0106D400F0E8
:106F2C0025FE001B0228F6D9032031E000202FE0BB
:106F3C00244AD36827490B40D360002028E0012B5A
:106F4C0032D0204BDA6803231340216A8B422DD1B7
:106F5C0070231340616A8B422AD1FE21C901114072
:106F6C00A36A1B02994225D1F8239B031340E16AC3
:106F7C008B4221D1E0231B051340216B8B421DD189
:106F8C00520F5207636B9A421AD1002000E0012085
:106F9C0002B070BD0120FBE70120F9E70120F7E703
:106FAC000120F5E70020F3E70120F1E70120EFE7EE
:106FBC000120EDE70120EBE70120E9E70120E7E7FD
:106FCC000120E5E700100240FFFFFFFEFFFFFFEF8F
:106FDC008C80C111FCFFFEEE10B52A4B9B68382249
:106FEC001A4207D1274B1A68D20A072313402648A6
:106FFC00D84010BD234B9A6838231340082B3BD044
:10700C00204B9A6838231340102B0DD01D4B9A68D7
:10701C0038231340202B31D01A4B9A683823134055
:10702C00182B26D00020E4E7164AD1680D3B0B4004
:10703C00D2681209072111400131032B0FD01248DD
:10704C00FFF76CF80F4BDA68120A7F231340584392
:10705C000C4BD968490F0131FFF760F8C9E70B48B1
:10706C00FFF75CF8074BDA68120A7F23134058438A
:10707C00EEE7FA20C001BCE70448BAE78020000222
:10708C00B7E7C046001002400024F40000127A005A
:10709C0070B504000D00002800D1AAE0574B1A6807
:1070AC00072313408B4221D323689A070ED55B0725
:1070BC0005D5534A9168E023DB010B439360504A9A
:1070CC00936850490B40A1680B4393602368DB071E
:1070DC0054D56368012B20D0022B3BD0002B3FD121
:1070EC00474A126852051CD401206AE0434A1368CF
:1070FC0007218B432B43136000F038FD06003F4BF8
:10710C001A6807231340AB42CED000F02FFD801B32
:10711C003D4A9042F3D9032053E0394A1268920356
:10712C0069D537498A680720824313438B6000F086
:10713C001DFD0600324B9B6838221A406368DB0049
:10714C009A421BD000F012FD801B2F4B9842F1D9B4
:10715C00032036E02A4A12689201E2D4012030E082
:10716C00032B05D0264AD26D9207DAD4012028E0F1
:10717C00234A126E9207D4D4012022E01F4B1A68C6
:10718C0007231340AB421DD823685B0706D51C4A66
:10719C0093681E490B40E1680B439360FFF71CFF9B
:1071AC00174B9A68120A0F2313409B00184A9A58DF
:1071BC001F231340D840174B1860174B186800F06A
:1071CC0089FC70BD0D4A136807218B432B43136058
:1071DC0000F0CCFC0600094B1A6807231340AB42A5
:1071EC00D2D000F0C3FC801B074B9842F3D903208C
:1071FC00E7E70120E5E70120E3E7C0460020024075
:10720C0000100240FFF0FFFF88130000FF8FFFFF0C
:10721C00A4C300080800002004000020014B1868DB
:10722C007047C0460800002010B5FFF7F7FF064B6B
:10723C009A68120B072313409B00044A9A581F2389
:10724C001340D84010BDC04600100240E4C30008F3
:10725C00F0B583B0040003689B0362D56D4BDB6B08
:10726C00DB001ED46B4AD16B802040050143D163F7
:10727C00D36B03400193019B0126674A116880235D
:10728C005B000B43136000F071FC0500624B1B6844
:10729C00DB0508D400F06AFC401B0228F6D9032554
:1072AC0002E00026E9E70025002D23D1594BD96DCA
:1072BC00C02292000B001340114210D0626A9A4215
:1072CC000DD0544AD36D55490B40D06D80214902E5
:1072DC000143D165D16D52480140D165D365DB07BF
:1072EC0010D4002D06D14B4AD36D4C490B40616A2A
:1072FC000B43D365012E15D1464AD36B49490B403C
:10730C00D3630FE000F032FC0700424BDB6D9B07B0
:10731C00E7D400F02BFCC01B434B9842F5D9032556
:10732C00DFE700252368DB0706D53A4A536D0321B6
:10733C008B4361680B4353652368DB0606D5354ADE
:10734C00536D3A490B40A1680B43536523689B0569
:10735C0006D5304A536D36490B4061690B43536572
:10736C0023685B0506D52B4A536D32490B40A16946
:10737C000B43536523689B0606D5264A536D2E494D
:10738C000B40E1680B43536523685B040BD5214A22
:10739C00536D9B009B08E1690B4353658023DB0510
:1073AC00E2699A4220D023689B020BD5194A536D8F
:1073BC0022490B40216A0B4353658023DB03226A6D
:1073CC009A4218D023681B050BD5124A536D1C49E1
:1073DC000B4021690B43536522698023DB019A42E0
:1073EC0010D0280003B0F0BD0A4AD16880235B029C
:1073FC000B43D360D7E7074AD16880235B040B4368
:10740C00D360DFE7034AD16880235B020B43D36070
:10741C00E7E7C0460010024000700040FFFCFFFF91
:10742C00FFFFFEFFFFFFFFEF88130000FFF3FFFFDE
:10743C00FFFFF3FFFFFFCFFFFFCFFFFFFFFFBFFFFC
:10744C00FF3FFFFF30B5054C6169012529436161A0
:10745C000260BFF36F8F436030BDC0460020024016
:10746C00084B5B69002B01DB00207047054B064A7B
:10747C009A60064A9A605B69002B01DB0020F4E7F6
:10748C000120F2E70020024023016745AB89EFCDD4
:10749C00064B5969802212060A435A615B69002B1C
:1074AC0001DB012070470020FCE7C04600200240B1
:1074BC0070B5050000F05AFB4419134B1B69DB0334
:1074CC0005D500F053FBA042F7D3032070BD0E4945
:1074DC000A690E4B14001C400D4808611A4203D077
:1074EC000C4B5C600120F1E700F040FB4519064BAA
:1074FC001B695B0305D500F039FBA842F7D30320C9
:10750C00E4E70020E2E7C04600200240FAC3000096
:10751C00FBC30000DC020020F8B507000C001500CE
:10752C001E00144B1B78012B22D0124B01221A7017
:10753C0000225A60FA208000FFF7BAFF00280DD114
:10754C00012F0FD02900200004F0E4FEFA20800067
:10755C00FFF7AEFF084A5369BB435361054B00224A
:10756C001A70F8BD2A0033002000FFF76BFFEDE71F
:10757C000220F6E7DC02002000200240034A536997
:10758C0003438020400218435061704700200240A2
:10759C00044A536904480340C9001943034B194377
:1075AC00516170470020024007E0FFFF020001001C
:1075BC0070B504000E001F4B1B78012B37D01D4BF0
:1075CC0001221A7000225A60FA208000FFF770FF27
:1075DC00002828D1042363602368042B15D00123D1
:1075EC005B423360A568A368E26894466344AB428F
:1075FC0014D929006068FFF7CBFFFA208000FFF751
:10760C0057FF002809D10135EDE70430FFF7B6FF2D
:10761C00FA208000FFF74CFF05E03560064A5369FD
:10762C0002218B435361034B00221A7070BD022060
:10763C00FCE7C046DC02002000200240F0B500232D
:10764C005AE084685F000326BE40B4432600CC6831
:10765C00BC4034438460446894434A681609012250
:10766C0032409A402243426056E0DC080834A400C1
:10767C00265805321A4092000F279740BE430F69D7
:10768C0097403A00324322505AE0032600E000268D
:10769C00A64034003C43434E183292009451346857
:1076AC00EA432600AE434F68FF0201D52C43260067
:1076BC003C4C26606468260016404F68BF0201D51A
:1076CC002C432600374C66608426A45926001640AD
:1076DC004F68BF0301D52C432600324C8427E6515A
:1076EC008026A45922404E68F60301D52A00224375
:1076FC002C4D80242A5101330C682200DA404FD0E3
:10770C0001229A40250015401442F4D003244E68FF
:10771C003440013C012C94D903224C682240032AAA
:10772C0009D0C2685E000324B440A24314008A68E6
:10773C00B2402243C26003224C682240022A94D0F9
:10774C0004685E0003221700B740BC434F683A4000
:10775C00B24022430260C02292024C681442CAD04A
:10776C009A0814001834A4000E4EA75903241C4088
:10777C00E4000F26A640B743A026F605B04286D0FB
:10778C00094EB04208D0094EB04207D0084EB04264
:10779C0000D17AE705267BE7012679E7022677E711
:1077AC00F0BDC04600180240000400500008005014
:1077BC00000C0050002A01D0816170478162FCE707
:1077CC007047704710B50400094BDB68184204D1B0
:1077DC00074B1B69234205D110BD054BD860FFF741
:1077EC00EFFFF5E7024B1C612000FFF7EAFFF3E720
:1077FC000018024010B50400036C9B08094A94461B
:10780C0063449B004364FF2023681840083814210C
:10781C00FEF784FC044BA3641F2318401E3B8340DB
:10782C00E36410BD00820010800802403F234268D0
:10783C001340064A9A1892000265054A4265013BBC
:10784C0003221A4001239340836570473F82001046
:10785C004009024070B5041E4DD00568274BE8184E
:10786C001421FEF75BFC8000206425230222E254E5
:10787C002B68234A13402B6021680A68A368E068D0
:10788C0003432069034360690343A0690343E06930
:10789C000343206A034313430B602000FFF7AAFF46
:1078AC008023DB01A2689A4218D0626C3F23616886
:1078BC000B401360A36CE26C5A606368013B032BB2
:1078CC000FD9002323656365A3650023E363252299
:1078DC000121A154013AA354002070BD0023636020
:1078EC00E3E72000FFF7A2FF236D00221A60636D0F
:1078FC00A26D5A60E9E70120EFE7C046F8FFFDBF33
:10790C000F80FFFF70B5314B1968046825681C2384
:10791C00026C134004229A40114216D06A0714D507
:10792C0023689B0603D42368042293432360274CCB
:10793C0063681C21026C114004228A40134363606B
:10794C00036B002B00D0984770BD02229A40114265
:10795C001CD0AA071AD523689B0606D423680A22D2
:10796C00934323602523093AC254184C63681C21A5
:10797C00026C114002228A401343636024230022CC
:10798C00C254C36A002BDFD09847DDE708229A4027
:10799C001142D9D02B07D7D523680E2293432360ED
:1079AC000A4C62681C21036C194001231D008D4098
:1079BC002A436260C3632522835423330022C254BA
:1079CC00436B002BC0D09847BEE7C0460000024076
:1079DC0010B5104A136810490B4003431360802301
:1079EC009B00984201D0002010BD0C4B1B68580026
:1079FC00C01840000A49FEF791FB0130054B5B694A
:107A0C005B0503D5002803D00138F7E70020EBE72E
:107A1C000320E9E700700040FFF9FFFF0800002099
:107A2C0040420F0070B5002811DB8308134EC033A1
:107A3C009B009D5903242040C000FF221400844069
:107A4C00A54389010A4082402A439A5170BD0F23F5
:107A5C000340083B9B0806339B00094A9446634449
:107A6C005C6803221040C000FC3215008540AC431A
:107A7C0089010A40824022435A60E7E700E100E0B6
:107A8C0000ED00E0002805DB1F2318401E3B83405F
:107A9C00014A13607047C04600E100E001388023C2
:107AAC005B0498420FD2094A50600948036A1B02D2
:107ABC001B0AC02109060B430362002393600733A2
:107ACC001360002070470120FCE7C04610E000E086
:107ADC0000ED00E010B50400114B1978002901D11C
:107AEC00012010BDFA208000FEF718FB01000D4BA1
:107AFC001868FEF713FBFFF7D1FF00280DD1032CFC
:107B0C0001D90120EDE70130002221004042FFF7AE
:107B1C0089FF054B1C600020E3E70120E1E7C0462C
:107B2C0000000020080000200400002010B5084AC6
:107B3C00116880235B000B4313600020FFF7CAFF22
:107B4C00041E02D00124200010BDFEF713FFFAE73B
:107B5C0000200240034B1B78034A11685B1813602A
:107B6C007047C04600000020F8020020014B186846
:107B7C007047C046F802002070B50400FFF7F6FF0E
:107B8C000500631C02D0044B1B78E418FFF7EEFFD2
:107B9C00401BA042FAD370BD00000020F0B5D646C1
:107BAC004F464646C0B582B006000D0090461F00F9
:107BBC00FFF7DCFF0A9B181A8146B944FFF7D6FF82
:107BCC0082462E4B1B685B011B0D4A4653430193A7
:107BDC0033689C682C40641B63425C41444545D02F
:107BEC007B1CF5D0FFF7C2FF5346C01A48450BD299
:107BFC004B46002B08D0019A002A00D04A46019B24
:107C0C00013B01939146E3E732685368E0218B43D3
:107C1C00536082235B0072689A420CD080239B01D4
:107C2C00B26A9A4216D05D230122F254013B002223
:107C3C00F25403201BE0B36880221202934203D05B
:107C4C008022D2009342E9D13268136840218B43E1
:107C5C001360E3E73268136809490B40136032681C
:107C6C00116880239B010B431360DCE7002002B0FA
:107C7C00E0BCBA46B146A846F0BDC046080000209C
:107C8C00FFDFFFFFF0B5DE4657464E464546E0B5F2
:107C9C0083B007000D00160098466B460022DA7080
:107CAC00FFF764FF0C9B181A40448146FFF75EFFF8
:107CBC0082463B689B46364B1A6893009A18D30051
:107CCC009B1A1B0D4A465343019302E04346013372
:107CDC0011D13B689C682C40B44250D0C023DB00CF
:107CEC009D42F3D1002EF1D15B461B7BDBB26A4681
:107CFC00D370D378EAE7FFF739FF5346C01A4845EB
:107D0C000BD24B46002B08D0019A002A00D04A46D1
:107D1C00019B013B01939146DBE73A685368E021F4
:107D2C008B43536082235B007A689A420CD0802389
:107D3C009B01BA6A9A4216D05D230122FA54013B88
:107D4C000022FA5403201BE0BB68802212029342EB
:107D5C0003D08022D2009342E9D13A6813684021C3
:107D6C008B431360E3E73A6813680A490B401360CE
:107D7C003A68116880239B010B431360DCE70020F9
:107D8C0003B0F0BCBB46B246A946A046F0BDC04607
:107D9C0008000020FFDFFFFF70B582B004000D006B
:107DAC001600C02100922B0000224901FFF76AFF48
:107DBC00002818D100962B00002280212000FFF70C
:107DCC00EDFE002816D1C02100962B000022C90020
:107DDC002000FFF757FF00280AD0236E2022134300
:107DEC002366032004E0236E202213432366032022
:107DFC0002B070BD236E2022134323660320F7E7E5
:107E0C0070B582B004000D00160082235B0042683E
:107E1C009A420FD000962B00002280212000FFF701
:107E2C00BDFE002815D182235B0062689A4216D0F1
:107E3C0002B070BD836880221202934203D080226C
:107E4C00D2009342E6D12268136840218B43136021
:107E5C00E0E7236E2022134323660320E8E7A368A0
:107E6C0080221202934203D08022D2009342DFD1AF
:107E7C00C02100962B000022C9002000FFF702FF52
:107E8C000028D5D0236E2022134323660320CFE78E
:107E9C0070B5041E00D178E0436A002B07D105337E
:107EAC00FF3342689A4205D00023C36102E00023ED
:107EBC00036143610023A3625D33E35C002B5AD062
:107ECC005D230222E2542268136840218B43136025
:107EDC00E368E022D200934254D90022F021090138
:107EEC008B4205D0E021C9008B4201D00023A36254
:107EFC0082235B0061680B4084210902A068014069
:107F0C000B430221206901400B43012160690840A9
:107F1C00034380208000A569284003433820E5698D
:107F2C00284003438020256A284003438020800199
:107F3C00A56A2840034320680360608B0423034038
:107F4C001020656A284003430820656B28400343D2
:107F5C00F0200001E5682840034320681343436088
:107F6C002268D3690A480340D361002323665D333A
:107F7C00E154002070BD5C330022E2542000FEF777
:107F8C0011FD9DE780225201A8E70120F2E7C046CF
:107F9C00FFF7FFFFF0B5CE4600B584B004000191A9
:107FAC0091461D005C23C35C012B00D1C9E05C230E
:107FBC000122C254FFF7DAFD06005D23E35CDFB259
:107FCC00012B00D0A9E00199002900D1A6E04B4675
:107FDC00002B00D1A2E05D230322E2540023236690
:107FEC00A1634A46A287E28723644422A352023249
:107FFC00A3522365E36480231B02A2689A421ED01D
:10800C0023681A68520603D41A6840210A431A607E
:10801C00E023DB00E2689A4239D96368002B02D076
:10802C004B46012B20D12368A26B1288DA60A36B1C
:10803C000233A363E38F013B9BB2E38714E0226816
:10804C00136840218B431360226811688023DB0185
:10805C000B431360D4E7FFF789FD801BA84201D3C3
:10806C006B1C66D1002D66D0E18F89B200293CD003
:10807C0023689A689207EED5A26B1288DA60A36B1C
:10808C000233A363E38F013B9BB2E387ECE76368A6
:10809C00002B02D04B46012B14D1A36B1B7822680A
:1080AC001373A36B0133A363E38F013B9BB2E38791
:1080BC0008E0FFF75BFD801BA84201D36B1C3CD191
:1080CC00002D3CD0E18F89B200290ED023689A682C
:1080DC009207EED5A26B12781A73A36B0133A363CC
:1080EC00E38F013B9BB2E387ECE7320029002000D1
:1080FC00FFF752FE002801D020232366A368002B33
:10810C0006D103932368DA6803929B680393039B5D
:10811C00236E002B02D1002700E002275D230122F1
:10812C00E254013B0022E254380004B080BCB94652
:10813C00F0BD0327F2E70327F0E70327EEE7032759
:10814C00ECE70227F0E70000F0B583B004000091E3
:10815C0001921E00089D5C23C35C012B00D116E12B
:10816C005C230122C254FFF701FD07005D23E35C91
:10817C00D9B26268012B0BD082235B009A4200D0EB
:10818C00ECE0A368002B00D0F1E0042900D0F0E073
:10819C00009B002B00D1EEE0019B002B00D1ECE00A
:1081AC00002E00D1EBE05D23E35C042B02D05D23B9
:1081BC000522E25400232366019A22644622A65229
:1081CC00023AA652009AA263E687A687E364236567
:1081DC00E023DB00E2689A4223D9226853686D4998
:1081EC000B40536023681A68520603D41A68402166
:1081FC000A431A60E023DB00E2689A4254D96368B0
:10820C00002B01D0012E0AD12368A26B1288DA60F0
:10821C00A36B0233A363E38F013B9BB2E38701267D
:10822C002EE02268516880235B010B435360D9E731
:10823C00A26B1288DA60A36B0233A363E38F013B5A
:10824C009BB2E387002623689A68D20710D5462292
:10825C00A25A92B2002A0BD0DB68226C1380236CDA
:10826C00023323644622A35A013B9BB2A35201263C
:10827C00FFF77CFCC01BA84202D36B1C00D080E033
:10828C00E38F9BB2002B04D14633E35A9BB2002BF5
:10829C0059D023689A689207D5D5E28F92B2002AFA
:1082AC00D1D0012ECFD1C3E76368002B01D0012EB2
:1082BC000AD1A36B1B7822681373A36B0133A363DE
:1082CC00E38F013B9BB2E38701261DE023689A688C
:1082DC00D20710D54622A25A92B2002A0BD01B7B91
:1082EC00226C1370236C013323644622A35A013B86
:1082FC009BB2A3520126FFF739FCC01BA84201D345
:10830C006B1C40D1002D40D0E38F9BB2002B04D1CD
:10831C004633E35A9BB2002B15D023689A68920718
:10832C00D4D5E28F92B2002AD0D0012ECED1A26B3E
:10833C0012781A73A36B0133A363E38F013B9BB2D7
:10834C00E3870026C2E73A0029002000FFF724FD4E
:10835C00002804D020232366012000E002205D23A6
:10836C000122E254013B0022E25403B0F0BD022092
:10837C00F5E70220F3E70120F1E70120EFE7012008
:10838C00EDE70320EBE70320E9E70320E7E7022012
:10839C00EBE7C046FFEFFFFFF0B5C64600B584B073
:1083AC000400039190461D0082235B0042689A42B0
:1083BC0045D05C23E35C012B00D1BDE05C230122A2
:1083CC00E254FFF7D3FB07005D23E35CDEB2012B25
:1083DC0000D09DE00399002900D19AE04346002B80
:1083EC0000D196E05D230422E2540023236621642D
:1083FC0040324146A1520232A152A363A387E387C4
:10840C00E3642365E023DB00E2689A4224D9226806
:10841C0053684A490B40536080231B02A2689A425E
:10842C0021D023681A68520603D41A6840210A43E3
:10843C001A60E023DB00E2689A4228D945E08368A1
:10844C00002BB6D15D330422C254009543460A007A
:10845C00FFF77AFE060062E02268516880235B0118
:10846C000B435360D8E72268136840218B43136099
:10847C002268136832490B401360D2E7FFF776FB92
:10848C00C01BA84201D36B1C4ED1002D4ED04623ED
:10849C00E15A89B200292DD023689A68D207EDD50C
:1084AC001B7B226C1370236C013323644622A35A6A
:1084BC00013B9BB2A352EAE7FFF758FBC01BA84253
:1084CC0001D36B1C34D1002D34D04623E15A89B230
:1084DC0000290FD023689A68D207EDD5DB68226C8F
:1084EC001380236C023323644622A35A013B9BB2B4
:1084FC00A352EAE73A0029002000FFF781FC00288C
:10850C0001D020232366236E002B02D1002600E02D
:10851C0002265D230122E254013B0022E25430008A
:10852C0004B080BCB846F0BD0326F2E70326F0E7A2
:10853C000326EEE70326ECE70226F0E7FFEFFFFF4A
:10854C00FFBFFFFFF8B5040001688368026913439D
:10855C0042691343C26913430A689A4802401343A1
:10856C000B602268536898490B40E1680B435360D9
:10857C00A1692268954B9A4201D0236A19439368EA
:10858C00934803400B4393602268D36A0F218B43BB
:10859C00616A0B43D36222688E4B9A4233D08E4B66
:1085AC009A4261D0894B9A423ED0102387498A4225
:1085BC0064D0E06980221202904200D1A8E0042B22
:1085CC0000D1F1E000D9D9E0002B00D1E5E0022B7D
:1085DC0000D0D1E08148636A5B00814A995AFDF76B
:1085EC009DFD63685B08C0186168FDF797FD02008C
:1085FC00103A7C4B9A4200D9E1E023680004000C4D
:10860C00D8600020C0E0784B596D03230B40022B3F
:10861C0022D005D8002B21D0012B21D10333C5E763
:10862C00032B1FD10533C1E76F4B5B6DC0210901D3
:10863C000B40802109018B4218D007D8002B17D092
:10864C008021C9008B4215D10423AFE7C021090159
:10865C008B4211D10823A9E70223A7E70023A5E742
:10866C001023A3E71023A1E700239FE702239DE734
:10867C0000239BE7102399E7102397E7042B43D0A3
:10868C0034D8002B39D0022B2ED1544D636A5B00A9
:10869C00534A9F5A39002800FDF740FD6668730065
:1086AC009B19834200D982E03303834200D280E0DD
:1086BC003A00002328000021FDF7A6FE050E0B0250
:1086CC002B4302027008002180185941320000230C
:1086DC00FDF79AFE454BC218454B9A4200D96AE009
:1086EC002368D86000204FE001204DE0082B02D118
:1086FC0080252D02CAE7012046E0FEF795FD050016
:10870C00002DC3D100203FE0FEF766FC0500F7E723
:10871C00042B2ED023D8002B25D0022B1DD12F4873
:10872C00636A5B002E4A995AFDF7F8FC40006368B7
:10873C005B08C0186168FDF7F1FC0200103A294B88
:10874C009A423AD882B20F239A434008083B184009
:10875C0010432368D860002016E0012014E0082B99
:10876C00DED0012010E0FEF75FFD0028D8D10020FC
:10877C000AE0FEF731FCF8E7012005E0082B02D1F6
:10878C008020000227E7012001236A22A352023A2B
:10879C00A352002323676367F8BDFEF745FD00284D
:1087AC0000D018E70020EFE7FEF716FCF7E70120F2
:1087BC00EAE70120E8E70120E6E70120E4E70120F1
:1087CC00E2E7C046F369FFCFFFCFFFFF0080004018
:1087DC00FFF4FF1100380140004400400024F40075
:1087EC007CC30008EFFF00000010024000FDFFFFFB
:1087FC00FFFC0F00836ADB0706D5026853682C491F
:10880C000B40C16A0B435360836A9B0706D5026811
:10881C00536828490B40016B0B435360836A5B0719
:10882C0006D50268536824490B40416B0B435360D7
:10883C00836A1B0706D50268536820490B40816B7D
:10884C000B435360836ADB0606D5026893681C49A8
:10885C000B40C16B0B439360836A9B0606D5026881
:10886C00936818490B40016C0B439360836A5B0659
:10887C000BD50268536814490B40416C0B43536091
:10888C0080235B03426C9A420AD0836A1B0606D58E
:10889C00026853680D490B40C16C0B435360704721
:1088AC00026853680A490B40816C0B435360ECE738
:1088BC00FFFFFDFFFFFFFEFFFFFFFBFFFF7FFFFF43
:1088CC00FFEFFFFFFFDFFFFFFFFFEFFFFFFFF7FFF4
:1088DC00FFFF9FFFF8B5CE46474680B506000D005A
:1088EC0017009946089B98463368DC692C40641B3A
:1088FC0063425C41BC4257D143460133F4D0FFF78D
:10890C0035F94B46C01A40452ED84346002B2BD088
:10891C0033681A685207E7D5DA691205E4D5802264
:10892C0012011A62EFF31080012282F31088316871
:10893C000B68204C23400B6080F31088EFF3108001
:10894C0082F3108831688B6893438B6080F31088B6
:10895C0020238332B3500432B3500432B35060330B
:10896C000022F254032020E0EFF31080012282F366
:10897C00108831680B680F4C23400B6080F3108813
:10898C00EFF3108082F3108831688B6893438B600F
:10899C0080F3108820238332B3500432B3506033F9
:1089AC000022F254032000E00020C0BCB946B046BF
:1089BC00F8BDC0465FFEFFFF30B583B004008C23CA
:1089CC000022C250FFF7D2F8050022681268130784
:1089DC000FD423681B685B0718D420238422A35070
:1089EC000432A3500023E366083AA354002003B0DA
:1089FC0030BD80210C4B0093030000228903200022
:108A0C00FFF768FF0028E4D00320F0E78021064B35
:108A1C0000932B000022C9032000FFF75BFF002806
:108A2C00DBD00320E3E7C046FFFFFF0110B5041EB7
:108A3C0035D08423C358002B27D084232422E25022
:108A4C002268136801218B4313602000FFF77AFD25
:108A5C00012819D0A36A002B1DD122685368114933
:108A6C000B4053602268936822218B4393602268E9
:108A7C0093681A390B4393602268136807390B43C8
:108A8C0013602000FFF798FF10BD80330022C25402
:108A9C00FEF702F8D1E72000FFF7ACFEDDE701207E
:108AAC00F2E7C046FFB7FFFFF8B50400436E002B9A
:108ABC0005D101336A228352023A8352F8BD02680F
:108ACC0095686D0E07231D409268520F1340084F96
:108ADC00F85CC000074EF15CFDF7AAFB6A23E0527C
:108AEC00785DC000715DFDF7A3FB6823E052E5E7FC
:108AFC009CC3000894C3000870B58023C35C012B91
:108B0C0015D0802401260655842524234351026860
:108B1C0013681168B1431160064A13400022426683
:108B2C0001680B60202343510255002070BD0220C8
:108B3C00FCE7C046FFFFFFDFF8B504000A00802306
:108B4C00C35C012B1BD08025012060558426242377
:108B5C00A35123681F6819688143196020688368D2
:108B6C00DB00D908114381602000FFF79DFF2368CB
:108B7C001F602023A351002363550020F8BD022061
:108B8C00FCE70000F8B504000B008022825C012A8F
:108B9C001BD080250120605584262422A2512268F6
:108BAC001768116881431160226891680848014078
:108BBC00194391602000FFF777FF23681F60202383
:108BCC00A351002363550020F8BD0220FCE7C046EA
:108BDC00FFFFFFF1014B024A9A60704700ED00E085
:108BEC0000600008F0B5CE46474680B583B080469D
:108BFC000E00002301930025994601277F4228E0AF
:108C0C00002D08D104234A461A43914603E0012360
:108C1C004A461A439146484603B0C0BCB946B046D2
:108C2C00F0BD011D300000F09DFB0700002F28D087
:108C3C00206883682900984702234A461A439146C4
:108C4C00019A551C337C0F218B43F02BE3D1002A66
:108C5C00E1DB01AB2A003100404600F07DFA041E36
:108C6C00CED0006803689847051ED0D0B37A002B8D
:108C7C00D7D05B06DAD4011D300000F0A1FC070050
:108C8C00D4E72068C36829009847D9E770B5060077
:108C9C000C000B7C002B07D05A0609D50F229343EE
:108CAC00F02B05D0022508E0FFF79CFF050004E03F
:108CBC0021003000FFF796FF050080235B422B4319
:108CCC006372237ADB0701D5280070BD3068EFF39F
:108CDC00108672B6210000F09CFF86F31088F3E733
:108CEC0010B58B7D002B03D01723CB56002B05DB47
:108CFC000389CB814068FFF7C9FF10BD0B7C1A07B5
:108D0C00F6D5082293430B74F2E7F0B583B0050057
:108D1C00009101921E006B461A780F239A436B4602
:108D2C001A700068EFF3108772B600F063FF04004E
:108D3C0087F31088002815D01722002101F009FFB5
:108D4C004023E37526763E3BA375009B23616B465F
:108D5C009B88A382280028302100FFF7C1FF002048
:108D6C0003B0F0BD01204042FAE710B54369002B77
:108D7C0008D00C30EFF3108472B600F03BFF84F394
:108D8C00108810BD0020FCE770B5050006002836E1
:108D9C003000FFF7EAFF041E10D0837A0F229343B2
:108DAC008372C38A012B0AD0254A934223D02548CB
:108DBC0000F03CFF2868210000F02BFF70BD7F33D2
:108DCC00C375027BC17A280000F04FFA00280FD03F
:108DDC00837823760223A3752000103021000A31FA
:108DEC00062201F0ADFE21003000FFF779FFE5E728
:108DFC00FF232376EEE7027BC17A280000F035FAD8
:108E0C00002811D0237E83708023E3757F3BA375EC
:108E1C002000103021000A31062201F091FE2100C1
:108E2C003000FFF75DFFC9E7E37A6B73227BAA730F
:108E3C00227EEA73227BE17A280000F016FAE3E73F
:108E4C000220000004C40008F0B5D6464F46464642
:108E5C00C0B50600002398460BE043460333DB0005
:108E6C00F3185F68ABE07C4800F0E0FE01239C4601
:108E7C00E0444346002BF0DD3000FFF785FFE0BCFB
:108E8C00BA46B146A846F0BD201D290000F0A2FA52
:108E9C0000281CD1A98A300000F0CBF9002802D0A0
:108EAC00037E002B09D03068EFF3108972B62900CD
:108EBC0000F0AFFE89F310887FE00C30EFF31089DF
:108ECC0072B6290000F0A5FE89F3108875E03068B1
:108EDC00EFF3108972B6290000F09BFE89F310881D
:108EEC006BE001327F231A408270A98A300000F0B7
:108EFC00A0F9824600281CD0037E002B19D1072331
:108F0C00EB56002B0ADB50460C30EFF3108972B68F
:108F1C00290000F07EFE89F310884EE04B469B78CA
:108F2C006A89A98909041143EA893000FFF7EDFE2B
:108F3C00E9E73068EFF3108972B6290000F069FE9A
:108F4C0089F3108839E03068EFF3108972B6290084
:108F5C0000F05FFE89F310882FE0A98A300000F042
:108F6C0068F9002802D0037E002B09D03068EFF39B
:108F7C00108972B6290000F04CFE89F310881CE0B1
:108F8C000C30EFF3108972B6290000F042FE89F321
:108F9C00108812E03068EFF3108972B6290000F0E7
:108FAC0038FE89F3108808E03068EFF3108972B648
:108FBC00290000F02EFE89F31088002C47D133686D
:108FCC009B68002B00D14EE738007B689847041E45
:108FDC0000D14BE73068EFF3108972B600F00AFE4F
:108FEC00050089F310881722002101F0B2FD4346D9
:108FFC000333DB00F3181B7AAB71E2790723E356DA
:10900C00002B00DB40E75306CED4201D290000F0D6
:10901C0079FB0028BED1AB7A1B079ED52A7BE97A57
:10902C00300000F022F9814600288CD0E979827852
:10903C007F230B409A4200D153E73068EFF310893D
:10904C0072B6290000F0E5FD89F31088B5E7210020
:10905C003800BB689847B2E718C4000810B500F098
:10906C00F1F810BD30B50024002C02DD0120404287
:10907C0030BDE51CED0045196D68002D01D00134A3
:10908C00F2E70334E40000194160027243720020DD
:10909C00EEE770B504000D004422002101F059FDEB
:1090AC002560E46220002830FFF7D8FF002206E09C
:1090BC0053009B18E318FF21197199710132032A8F
:1090CC00F6DD70BDF0B5C64600B5060088461F1E1D
:1090DC0002D001235B423B600024002C05DD002AFA
:1090EC0027D1002080BCB846F0BDE51CED007519F9
:1090FC006B68002B02D02B7A434501D00134ECE78E
:10910C00281DEFE7230008339B00F31859680B0C5C
:10911C00434501D001340DE0090AC9B200230022F5
:10912C003000FFF7CFFF0028F4D0002FDAD03C60DE
:10913C00D8E70024002CE5DD002F01D000233B6094
:10914C00736A190AC9B2002300223000FFF7BAFF74
:10915C00C8E7012040427047F0B583B006000C0010
:10916C0017001D00097C0F239943F02901D0A02979
:10917C002BD1A0293DD0637C1B02A17C19433A0062
:10918C003000FFF7E6FF002D00D0286000284ADBF6
:10919C0000284CDA736A190AC9B200230022300085
:1091AC00FFF790FF051E0DD01022A25608231A407F
:1091BC00883B1343A3720379E372437923732371BE
:1091CC00A37C6371280003B0F0BD617C00230022F6
:1091DC00FFF778FF051EF5D020000A302100103172
:1091EC00032201F0ADFC6B7923732371A37C6371B3
:1091FC00E8E7617C01AB01223000FFF763FF051E3D
:10920C00E0D0237CA3720379E37243792373237137
:10921C00019B002B05DB08339B00F6183379637137
:10922C00D0E7A37CFBE7002FB2D00025CAE70025CE
:10923C00C8E7006900E00068002802D003898B426F
:10924C00F9D1704770B50400456801892800FFF713
:10925C00F0FF002806D128001030210000F0D9FCC6
:10926C00002070BD01204042FBE770B582B00500C4
:10927C00002400E00134032C0BDC63001B19EB18F9
:10928C001B798B42F6D163001B19EB185B79934267
:10929C00F0D1042C21D0002C05D160000019281825
:1092AC00043002B070BD66003619AE1904360322C4
:1092BC00310001A801F044FC013C600000192D189C
:1092CC00043503222900300001F03AFC032201A9E5
:1092DC00280001F035FC2800E3E70020E1E700005E
:1092EC0070B50B0001001731847D027C002A2BD154
:1092FC00C2891B4DAA4218D0868A194DAE4226D17E
:10930C00174DAA4226D0002C05D0C27D1F25160071
:10931C00AE43802E0DD040221A70FC2C1DD8581C48
:10932C00220001F00DFC601C70BD858A3F2DE7D931
:10933C00E2E752B21F210A4060210A431A70013C35
:10934C00E4B201001831E8E701204042ECE70120CB
:10935C004042E9E701204042E6E701204042E3E7D2
:10936C00CDCD000010B50C00037B0B70837C4B70D3
:10937C000331FFF7B5FF002801DBA070002010BD02
:10938C00F8B506000F00100017300023F356002B21
:10939C0018DB002595729479D47215745474117974
:1093AC001173537993747B1E937533785B060CD4CD
:1093BC00074BD38133789382711C7A1E01F0C0FB6A
:1093CC000020F8BD01204042FBE701204042F8E7B5
:1093DC00CDCDFFFF10B50A0003780B7143784B71AC
:1093EC0081780330FFF7CCFF10BD0000072831D87F
:1093FC0080001A4B1B589F4600230B7001331370CF
:10940C000020704700230B70023313700020F8E724
:10941C0001230B70002313700020F2E702230B7062
:10942C00002313700020ECE701230B701370002055
:10943C00E7E701230B70013313700020E1E70223EF
:10944C000B70013B13700020DBE702230B701370D1
:10945C000020D6E701204042D3E7C0462CC40008C8
:10946C0010B51C001C4B984204D0FF2815D80123C2
:10947C00137001E000231370174B994210D0FF2991
:10948C0013D80123237013781B0122781343222B4A
:10949C001CD89B00114AD3589F4602231370EBE74C
:1094AC009842ECD000232370EDE702232370EAE707
:1094BC00002000E0022010BD0320FCE70420FAE7A6
:1094CC000520F8E70620F6E70720F4E701204042E4
:1094DC00F1E70120EFE7C046CDCD00004CC40008F9
:1094EC00F0B583B005000C004E1C837A0F22934319
:1094FC00A02B56D000222B7C0F218B43F03B5942E2
:10950C004B4113431901802252420A43227002221A
:10951C001A4204D0EA7A6270E61C2A7BA270002BF5
:10952C0004D06B7C3370AB7C737002362B7C1B07C6
:10953C0006D52378082213432370EB793370013658
:10954C006B46DF1DA98AE88906333A00FFF788FFCE
:10955C002378034323703B78002B02D0EB893370C4
:10956C0001366B4607331B78022B1CD06B46063337
:10957C001B78002B02D0AB8A337001366B46063356
:10958C001B78022B14D0341BAA7DA318FD2B14DCE2
:10959C0029001731300001F0D3FAA87D201803B050
:1095AC00F0BD0D3AA7E7EB891B0A33700136DDE7F6
:1095BC00AB8A1B0A33700136E5E701204042EEE727
:1095CC0010B50C0003790B7043794B700331FFF726
:1095DC0087FF002801DBA070002010BDF0B5CE463F
:1095EC00474680B583B005008946140001302B78BE
:1095FC003F221F009743802F00D07EE0373A1A405D
:10960C001B09032119408C469E0746D5002A42D0DF
:10961C00A820A0726878E072E81CA97821736146D2
:10962C0000294AD0DB0743D510235B42002A42D0E5
:10963C0008210B43237403786374871C4378A37449
:10964C00002A02D03B78E37101372B786A46D61D8D
:10965C000720184006323100FFF7C8FE3278002A86
:10966C0035D1274BE3813B006A4606321278002A3B
:10967C0038D1234AA28219004D1B4B465D1BEAB21E
:10968C00A2752000173001F05BFA002003B0C0BCBB
:10969C00B946B046F0BDA020BBE7002A06D088260C
:1096AC00A672A179E17221792173B8E73E00F7E740
:1096BC0060235B42BAE70021BBE7002A00D0882771
:1096CC002774A37963746379A3740700B8E77B1CD0
:1096DC003978E181022AC7D17A7812021143E181EB
:1096EC000133C1E7591C1878A082022AC4D15B78D7
:1096FC001B021843A0820131BEE701204042C5E79E
:10970C00CDCDFFFF10B50A0003780B7143784B7178
:10971C0081780330FFF762FF10BDF0B5C64600B587
:10972C0082B0456B0B1D98468C7903346B46DF1D5C
:10973C0095233B706B68998818680022FEF73AF8FD
:10974C00012676423300012239002868FEF722FCFC
:10975C00A2B2330041462868FEF71CFC6B6899885E
:10976C0018680122FEF726F802B080BCB846F0BD9E
:10977C0010B5406900F03EFA10BD10B5183000F07D
:10978C0039FA10BD10B5406900F043FA10BD10B5A0
:10979C00243000F03EFA10BDF0B5CE46474680B5F9
:1097AC0083B005000C00476B0B1D9946142398469B
:1097BC006B464246DA717B68998818680022FDF77F
:1097CC00F9FF0126764233000122694607313868D9
:1097DC00FEF7E0FB3300032249463868FEF7DCFD58
:1097EC007B68998818680122FDF7E4FF6D6BE71D13
:1097FC00A4796B464246DA716B6899881868002226
:10980C00FDF7D8FF33000122694607312868FEF7BF
:10981C00C1FBA2B2330039002868FEF7BDFD6B68AE
:10982C00998818680122FDF7C5FF03B0C0BCB94682
:10983C00B046F0BD70B582B0FF236A46D371446B5D
:10984C00961D91716368998818680022FDF7B2FF24
:10985C0001256D422B00012231002068FEF79AFB96
:10986C002B000122694607312068FEF795FD6368DD
:10987C00998818680122FDF79DFF6B46D87902B0D4
:10988C0070BDF0B585B06B46DD1DDA71446B80237D
:10989C005B420B430F276F443B70636899881868D1
:1098AC000022FDF787FF01267642330001223900A2
:1098BC002068FEF76FFB3300012229002068FEF7B9
:1098CC0069FB6368998818680122FDF773FF05B07E
:1098DC00F0BD0000F0B5C64600B582B006000F0022
:1098EC0090464808194B9C466044FCF717FC84B220
:1098FC00013CA4B243465808144B9C466044414674
:10990C00FCF70CFC85B2013DADB2E2B20C2130008B
:10991C00FFF7B7FF220A0D213000FFF7B2FFEAB2C2
:10992C000E213000FFF7ADFF2A0A0F213000FFF7A0
:10993C00A8FF31690195009443463A00044800F0B1
:10994C0075F902B080BCB846F0BDC046005A620240
:10995C00D8C40008F0B5C64600B506009046069C73
:10996C000269002A23D07161514A3260514A7260F7
:10997C00514AB260514AF2607363B4633169504822
:10998C0000F054F9002C0FD0A18800222068FDF7BC
:10999C0011FF0220FEF7F0F8A18820680122FDF7E4
:1099AC0009FF0220FEF7E8F80027FF250EE0454AE4
:1099BC000261D8E77B1CDBB20A2F14D81F002C00E5
:1099CC0000E00027002000F0CDF925000021300038
:1099DC00FFF730FF04000138C0B2FD28F1D8A542D2
:1099EC00E8D00027EEE72A003169374800F01EF96D
:1099FC0002213000FFF71EFF40B20E220240012070
:109A0C00024352B243469B7B012B4FD010231A4387
:109A1C0002213000FFF735FF43461A780B21300046
:109A2C00FFF72FFF43461A7B1A213000FFF729FF5F
:109A3C0043465A7B1B213000FFF723FF43461A7C19
:109A4C0005213000FFF71DFF43461A8A120A062132
:109A5C003000FFF716FF43469A7C07213000FFF7D2
:109A6C0010FF43465A8A120A08213000FFF709FFFB
:109A7C0043461A7D09213000FFF703FF43469A68DD
:109A8C0059683000FFF726FF3F2216213000FFF700
:109A9C00F8FE346910213000FFF7CCFE02002100E3
:109AAC000A4800F0C3F880BCB846F0BD1F33AEE7DF
:109ABC007D97000887970008919700089B970008EE
:109ACC0008C5000800C5000818C5000830C5000806
:109ADC0070B504001021FFF7ADFE0500030729D473
:109AEC00EB0631D46B0639D42B0641D4AB0749D4E1
:109AFC003023E35C002B18D1636A002B15D02000B7
:109B0C00243000F077F8050001002000FFF705FE77
:109B1C0010212000FFF78EFE83064CD43023012247
:109B2C00E2542900606900F074F83023E35C002BE8
:109B3C0047D170BD21692A4800F078F8042216211B
:109B4C002000FFF79EFECBE72169264800F06EF857
:109B5C00082216212000FFF794FEC3E72169224852
:109B6C0000F064F8042217212000FFF78AFEBBE7FF
:109B7C0021691E4800F05AF8082217212000FFF72F
:109B8C0080FEB3E7606900F035F8051E0ED00100C9
:109B9C002000FFF701FE032216212000FFF771FEC3
:109BAC0020001830290000F034F8A1E72169104892
:109BBC0000F03CF89CE7032217212000FFF761FE20
:109BCC00AFE710212000FFF735FE8306B1D5032245
:109BDC0017212000FFF755FE30230022E254A8E79E
:109BEC0044C5000860C500087CC5000894C5000881
:109BFC00B0C5000803008268002A08D0006801681C
:109C0C001960013A9A60002A00D15A60704700200E
:109C1C00FCE783685A1C8260002B05D043681960EE
:109C2C00416000230B6070470160F9E70FB430B559
:109C3C0083B03D4B1B68002B42D01B78002B3FD0D0
:109C4C003A4B5B681B689B68002B3ED0EFF310838C
:109C5C0072B6364A526812689268092A3AD9344A5E
:109C6C001468002C3DD00021116083F3108807ABE1
:109C7C000193A27DA221891A200017308018069A20
:109C8C0001F0F4F8A37DA122D21A904200DD10005D
:109C9C001818A075EFF3108572B6A27D531EE31849
:109CAC00DB7D0A2B05D0A12A03D0214B1B68002B8E
:109CBC0036D021001F48FFF7ACFF85F3108804E075
:109CCC0007A90191069801F08FF803B030BC08BCCD
:109CDC0004B0184718490A6801320A6083F31088E7
:109CEC00F3E783F31088114B5B681868EFF310856A
:109CFC0072B6FFF77FFF040085F310880028E4D0CC
:109D0C001722002100F025FF4023E3753F3BA3758C
:109D1C000A4B196820001030062200F011FFA6E74C
:109D2C00034B1C60C9E7C046000300200C00002058
:109D3C001C0300200C03002004030020FC02002064
:109D4C0010B5054B58600548016005490A601800BC
:109D5C00FFF784F910BDC0460C000020FC02002067
:109D6C0000030020F8B50500224B1968224B1A6835
:109D7C00914227D0214B5B681B689B68092B21D92A
:109D8C001F48FFF753FF1C4B1A681A4B1A6019E057
:109D9C00EFF3108472B61B48FFF72CFF84F3108886
:109DAC00194B186012E0184C216800260E72134BE8
:109DBC005B681868EFF3108772B6FFF72AFF87F31A
:109DCC0010882660104B1B68002BE1D00E4B1968D5
:109DDC0000290DD0094B5B68DB69002B08D00124EE
:109DEC000C720648FEF77CFF0442DCD0002DE9D152
:109DFC00F8BDC04608030020040300200C0000201E
:109E0C00D0C500080C0300201803002070B50D000D
:109E1C001400013801280ED890B20021884210D9C4
:109E2C00094B1B681B68DA691206F9D56A5C9A62E1
:109E3C00013189B2F2E700F059FE092303600124D5
:109E4C006442200070BDC0468400002070B52D4BCC
:109E5C001D882D4B1E882D4C38220021200000F02F
:109E6C0078FE2B4B23800623FF336380073B237341
:109E7C00E1235B022361636101235B42238315337E
:109E8C00A383B433E383A83B0122E25420002630A1
:109E9C000232204900F054FE092363851E4B9D427B
:109EAC0007D01D4B9D4211D0184B1B79002B22D192
:109EBC0070BD0623FF339E42F3D1144C3622114958
:109ECC00200000F03DFE01232371EDE7360A012E40
:109EDC00EAD10E490B480B00020031CA31C331CA1A
:109EEC0031C331CA31C311CA11C302230B7106230A
:109EFC00FF334B80D8E7054803220021053000F0E2
:109F0C0028FED5E700F8000802F80008200300201E
:109F1C00CDCDFFFF58C30008CDCD000070B58AB081
:109F2C0005000E0001235B420993154B03400222EE
:109F3C00059202320692D90A07919B19DA0A521A33
:109F4C0008925B0501D001320892FDF789FA041ED4
:109F5C0010D0FDF79DFA0443079B0294099A0192D5
:109F6C00089A0092320029000648FFF75FFE200095
:109F7C000AB070BD09A905A8FDF71AFB0400E8E7B3
:109F8C00FFFFFFF7E8C50008F0B5C64600B50700AF
:109F9C0090460731CD08FDF763FA0400002609E06E
:109FAC00F300F91843441A685B680120FDF7B4FA12
:109FBC0004000136002C01D1AE42F1DBFDF768FA4A
:109FCC00204380BCB846F0BD10B5802109010E4875
:109FDC00FFF7A4FFC0B200280DD10C4A36210A4865
:109FEC00FFF7D2FFC0B2002809D136210848FFF78D
:109FFC001DFE002010BD0748FFF718FEEDE70648D0
:10A00C00FFF714FE0120F5E700F8000820030020FC
:10A01C003CC600081CC6000868C60008F0B5C64659
:10A02C0000B582B05748FFF701FE0120FFF79AFEFA
:10A03C00554D564B00932B00022200215448FFF73C
:10A04C00F5FD544B00932B00022202215248FFF7DE
:10A05C00EDFD524C524B0093230001220421514838
:10A06C00FFF7E4FD504F514B00933B0001220521BB
:10A07C004F48FFF7DBFD4F4B00933B0001220721BC
:10A08C004D48FFF7D3FD4D4E3000FFF7CFFD0120BB
:10A09C00FFF768FE4A4B0093230001220C2149482C
:10A0AC00FFF7C4FD484B9846484B009343460422A7
:10A0BC0010214748FFF7BAFD464B00934346042254
:10A0CC0014214548FFF7B2FD444B9846444B00938E
:10A0DC004346022218214348FFF7A8FD424B009348
:10A0EC00230001221A214148FFF7A0FD404B0093A9
:10A0FC002B0002221C213F48FFF798FD3E4B00939A
:10A10C002B0002221E213D48FFF790FD3C4B009393
:10A11C002300012220213B48FFF788FD3000FFF788
:10A12C0085FD0120FFF71EFE374B00933B000122FB
:10A13C0024213648FFF77AFD354B00934346032222
:10A14C0026213448FFF772FD334B00932B0002227B
:10A15C002A213248FFF76AFD3000FFF767FD012026
:10A16C00FFF700FE2E48FFF761FD2E4B00932300F6
:10A17C00012236212C48FFF759FD02B080BCB846AD
:10A18C00F0BDC04688C600089CC60008D4C60008AE
:10A19C00A0C600081CC70008E8C600082CC70008A9
:10A1AC0064C7000830C70008A0C70008D8C700085B
:10A1BC00A4C7000820C80008ECC7000848C800085D
:10A1CC0084C8000850C80008A4C80008E0C80008EB
:10A1DC00A8C8000838C9000800C900085CC90008F4
:10A1EC0098C9000860C90008E4C90008ACC9000897
:10A1FC0044CA000804CA00089CCA00085CCA0008CB
:10A20C00F8CA0008BCCA000840CB000810CB0008F4
:10A21C00ACCB000874CB000808CC0008D0CB0008ED
:10A22C0028CC0008A4CC000870CC000830B587B04E
:10A23C0001AA0F4B32CB32C211001A680A601B798B
:10A24C000B7100230DE00B4A9A18157829095A0056
:10A25C0001AC615C81540F2129400132615C815455
:10A26C0001330B2BEFDD0023037607B030BDC04666
:10A27C00F0CC00089075FF1FF0B5DE4657464E46F1
:10A28C004546E0B585B081460E0093469846002BB6
:10A29C000CD02D4F4346002B0AD02C4B1B689A46F2
:10A2AC000024002303935346029327E0284FF1E741
:10A2BC00284B1B689A46F3E763001B199B00FB189D
:10A2CC005B6826E0019268468088B446DC44E2452F
:10A2DC0003DC614502DD614600E011008DB2A8424D
:10A2EC000BD0801A80B2019D491BC9B24546002D86
:10A2FC0020D0921B4244984703900134029B9C420D
:10A30C001ADA4B46002BD7D063001B199B00FB18A5
:10A31C009B68002BF1D0620012199200B918BA5A3E
:10A32C009246498851189642CCD301968E42CADD8A
:10A33C000191C8E74246DEE7039805B0F0BCBB4686
:10A34C00B246A946A046F0BD5C0300205C03002089
:10A35C00580300205803002070B5084D2800FFF763
:10A36C0065FF074C074B2A000749200000F0FEFC54
:10A37C0021000648FFF75AFC70BDC0466003002060
:10A38C007C03002004CD00080CCD000828CD00086B
:10A39C00F0B5DE4657464E464546E0B585B04E48CC
:10A3AC00FEF7E3FC041E10D0C38A012B14D0837D6E
:10A3BC00042B02D9C37D102B2BD04848FFF736FC59
:10A3CC00474B18682100FFF724FC05B0F0BCBB46D6
:10A3DC00B246A946A046F0BD7F33C375414D183037
:10A3EC00290000F0E3FC2800FBF786FE0130A07585
:10A3FC002000103021000A31062200F0A1FB2100C0
:10A40C003548FEF76DFC384A11797F230B401371E8
:10A41C00DBE7038B994600F06BFC0500494633489B
:10A42C00FBF706FF01002800FBF702FFA37EE27E8C
:10A43C0090462D4A177BA27DA2180021D1751C22B3
:10A44C009246A24405042D0C1E00BB4652460292B5
:10A45C000197424600924A4629002548FFF7E6FB41
:10A46C00BE4204D84646B84500D93E1CF6B2B345A8
:10A47C0006D01D4A117980235B420B4313719CE774
:10A48C005146184800F09AFC0028F2D0FDF76EFBFC
:10A49C000600FDF76BFB801BA842FAD38023E37503
:10A4AC00104D20001830290000F080FC2800FBF72C
:10A4BC0023FE0130A0752000103021000A31062245
:10A4CC0000F03EFB21000448FEF70AFC064A117915
:10A4DC007F230B40137178E73000002074CD000807
:10A4EC00E00300207C03002020030020FFFFFF7FFF
:10A4FC0038CD0008F0B5CE46474680B583B06848E5
:10A50C00FEF733FC041E30D0664B1B795BB2002B7C
:10A51C0030DBC38A042B37D0C27D202A5ED0822246
:10A52C005200934200D0B1E0278BA57EFB2D00DDBD
:10A53C00FB25EEB2200018305B4979182A0000F098
:10A54C00FFFA2A0039005948FFF770FB8023E375A6
:10A55C000136A6752000103021000A31062200F0C9
:10A56C00EFFA21004E48FEF7BBFB03B0C0BCB94666
:10A57C00B046F0BD817D4E48FFF758FB4D4B186837
:10A58C002100FFF746FBF0E7038B9846857EFB2DF9
:10A59C0000DDFB25EFB200233A0041460020FFF717
:10A5AC006BFE061E0BD02A0041464348FFF73EFBCC
:10A5BC00802040420643E6750137A775CAE72000A4
:10A5CC0018302A003749414400F0BAFA00233A0007
:10A5DC0041460120FFF750FE0600E4E7877D032F7C
:10A5EC009DD9058B033FFFB21A2398468044EFF3A5
:10A5FC00108972B643463A0029000020FFF73CFE52
:10A60C00061E39D089F3108833003A0029002B48F4
:10A61C00FFF70CFB0123A375802040420643E6752F
:10A62C0098E701926B469B88E819824203DC0A008A
:10A63C00814200DD020091B28B420BD0019B1804C9
:10A64C00000C411B41441204120C121A154BC01879
:10A65C0000F076FA01361A4B1B68B3420EDDB300DC
:10A66C00184A9918D25A498851189542D9D301954C
:10A67C008D42D7DD0191D5E70026ECE743463A0041
:10A68C0029000120FFF7F8FD0600BBE7A17D0E486D
:10A69C00FFF7CCFA074B18682100FFF7BAFA64E70A
:10A6AC004C00002020030020B8CC0008E0CD0008AE
:10A6BC0088CD0008E0030020A4CD0008BCCD000824
:10A6CC002C00002028000020FCCD0008F8B52C48F8
:10A6DC00FEF74BFB041E50D0C38A2A4A934211D07A
:10A6EC00062B1CD0C37D202B02D1817D05292CD8B3
:10A6FC00A17D2548FFF79AFA244B18682100FFF733
:10A70C0088FA3AE0C1698069FFF708FC0123A37558
:10A71C00002802D17F33E37524E08123FBE78769AE
:10A72C00057FFB2D00DDFB25EEB2200018302A0042
:10A73C00390000F005FA2A0039001548FFF776FABF
:10A74C008023E3750136A6750CE00539C9B2020009
:10A75C001C328069FFF718FC0123A37500280DD16A
:10A76C007F33E3752000103021000A31062200F0FF
:10A77C00E7F921000248FEF7B3FAF8BD8123F0E7B0
:10A78C0068000020092F000030CE0008E0030020F4
:10A79C0018CE000810B50C48FEF760FC0B48FEF70D
:10A7AC005DFC0B48FEF75AFCFFF7D6FD094B1C6805
:10A7BC00094B18682418094B18682418FDF7D6F9AA
:10A7CC00201800F065FA10BD4C0000206800002035
:10A7DC00300000209075FF1F9475FF1F9875FF1FA8
:10A7EC0010B50F4BDB79002B0AD10D4B5B79002B8D
:10A7FC000CD1FFF7CDFDFFF77DFEFFF767FF10BD16
:10A80C00074B0022DA71FFF7DFFBEEE7BFF34F8F48
:10A81C00044B054ADA60BFF34F8FC046FDE7C046D4
:10A82C002003002000ED00E00400FA0510B50A4BEF
:10A83C005A1EFF3A09495918094800F093F9802328
:10A84C009B0004E09A000749074888500433902283
:10A85C0092009342F6DB10BD801D002000F7FFFF35
:10A86C004CCE000880140020CDCDABAB70B582B0BF
:10A87C0080239B009022920093421BDA9C000E4A8C
:10A88C00A41822680D498A4201D10433F2E70C4D19
:10A89C000C4BEE1800922B00320021000A4800F0FD
:10A8AC0061F9236800932B00320021000748FFF761
:10A8BC00BDF9FEE702B070BD80140020CDCDABAB6E
:10A8CC00801C002000F8FFFF74CE0008A0CE00080A
:10A8DC0030B583B019491A48FEF7DBFB002408E0B9
:10A8EC0063011B19D900174BC9181748FFF791F9C9
:10A8FC000134042CF4DD00240AE023011B199B0015
:10A90C001B199900114BC9180C48FFF782F9013437
:10A91C00092CF2DD0E4C0F4D0F4B00930F4B220008
:10A92C0009492800FFF716F822000C3A2378127A0E
:10A93C0029000348FEF796FB03B030BD2414002019
:10A94C00E0030020240400204C0900205C090020B6
:10A95C002C03002030140020A0000020A8000020B0
:10A96C0010B5184B1B78002B1ED1002810D00128D5
:10A97C001BD0144B01221A70134B99881868FCF7E2
:10A98C0019FF124B998818680122FCF713FF0BE092
:10A99C000D4B998818680022FCF70CFF0B4B99881B
:10A9AC0018680122FCF706FF10BD074B9988186840
:10A9BC000122FCF7FFFE054B998818680022FCF772
:10A9CC00F9FEF1E7580900209000002088000020D3
:10A9DC00F8B5274800F052F9FFF728FFFFF736FAD1
:10A9EC00244CA11C22002448FFF7AAF9FFF770FFA2
:10A9FC00FFF7D0FE243C2379002B35D01F4920488B
:10AA0C0000F0B0F81F4B1B79002B2FD01B491E48B0
:10AA1C00FFF70CF91D48FFF709F9FFF7FFFA0020C3
:10AA2C00FFF79EFFFFF722FF1948FFF751F8124876
:10AA3C00FEF70AFAFFF7D4FE124F3626BA5D012450
:10AA4C0022408021A025ED0549012800FCF7B2FE2B
:10AA5C00BA5D52082240802109012800FCF7AAFEA9
:10AA6C000020FFF77FF9DDE70A49C8E70949CEE77F
:10AA7C00ECCE000844030020E0030020DCCE0008EC
:10AA8C000CCF00082003002024CF000840CF000882
:10AA9C0030140020D0CE00080D488546FEF79AF8F9
:10AAAC000C480D490D4A002302E0D458C45004331D
:10AABC00C4188C42F9D30A4A0A4C002301E01360F3
:10AACC000432A242FBD300F017F8FBF717FFFEE7A6
:10AADC00002000200000002014010020F4D0000809
:10AAEC001401002080140020FEE70000014B1868C0
:10AAFC007047C046B000002070B500260C4D0D4CC0
:10AB0C00641BA410A64209D1002601F0F7FB0A4DE4
:10AB1C000A4C641BA410A64205D170BDB300EB58BF
:10AB2C0098470136EEE7B300EB5898470136F2E749
:10AB3C00ECD00008ECD00008ECD00008F0D00008F5
:10AB4C00002310B59A4200D110BDCC5CC454013323
:10AB5C00F8E703008218934200D170471970013353
:10AB6C00F9E700000FB40B4B13B51C68002C05D093
:10AB7C00A369002B02D1200000F09EFB05AB200046
:10AB8C00049AA168019300F02DFF16BC08BC04B018
:10AB9C001847C046B000002070B505000E00002814
:10ABAC0004D08369002B01D100F086FBAB69AC6843
:10ABBC00002B02D1280000F07FFB2D4B9C4222D1B0
:10ABCC006C68636EDB0705D4A3899B0502D4A06D6A
:10ABDC0000F023FCA3891B0702D52369002B29D184
:10ABEC002100280000F0A4F9002823D001256D4293
:10ABFC00636EDB0705D4A3899B0502D4A06D00F01E
:10AC0C000DFC280070BD1B4B9C4201D1AC68D8E7F1
:10AC1C00194B9C42D5D1EC68D3E70136A360002BCD
:10AC2C0004DAA2699A4216DC0A2914D023685A1C49
:10AC3C0022601970A3683178013B0029EDD1A36023
:10AC4C00002B0FDA280022000A3100F01BF90A252C
:10AC5C00431CCDD1CAE72200280000F013F9431C95
:10AC6C00E8D1C3E70A2523685A1C22601D70BFE790
:10AC7C0070D0000890D0000850D0000810B5034BDD
:10AC8C0001001868FFF788FF10BDC046B000002017
:10AC9C00114B70B51D680400AB6B002B16D118203E
:10ACAC0000F02AFC021EA86304D142210B4B0C4875
:10ACBC0000F0B6F90B4B002103600B4B43600B4BC0
:10ACCC0083600B2383810120106151610022AB6BE7
:10ACDC001C615A6170BDC046B00000207CCF0008DA
:10ACEC0093CF00080E33CDAB34126DE6ECDE0500CD
:10ACFC00164B10B51C68A36B002B16D1182000F056
:10AD0C00FBFB021EA06304D14E21114B114800F035
:10AD1C0087F9114B00210360104B4360104B83608B
:10AD2C000B238381012010615161A46B0D4A2069B2
:10AD3C0061690D4BFBF788FB0122002380185941F8
:10AD4C00206161614800400810BDC046B000002081
:10AD5C007CCF000893CF00080E33CDAB34126DE6D8
:10AD6C00ECDE05002D7F954C2DF451580EB400B53A
:10AD7C000B499CB01DAB02900690079104910948B9
:10AD8C00094904CB0591006802A9019300F002FD6A
:10AD9C000023029A13701CB008BC03B01847C046BD
:10ADAC00FFFFFF7FB00000200802FFFF03000A78BE
:10ADBC0001311A700133002AF9D170470A7830B585
:10ADCC00002A0CD130BD9A4208D10123CC5C002C56
:10ADDC00F8D0C55CA54201D10133F7E70130037807
:10ADEC00002BF0D11800EDE7094B70B51C6805007D
:10ADFC000E00002C05D0A369002B02D1200000F01E
:10AE0C005BFA33002A002000A16800F0EBFD70BD56
:10AE1C00B000002030B5140005001A009BB0002CC7
:10AE2C0005DA8B230360012040421BB030BD822326
:10AE3C0068469B0083810023009104919C4200D0C2
:10AE4C00631E02930593012369465B42CB81280064
:10AE5C001E9B00F09FFC431C01DA8B232B60002C03
:10AE6C00E3D00023009A1370DFE7000007B50093CE
:10AE7C0013000A00010002480068FFF7CBFF0EBD6B
:10AE8C00B0000020F8B505000E001400002804D016
:10AE9C008369002B01D100F00FFA224B9C422ED17A
:10AEAC006C68A369A360A3891B0732D52369002BA7
:10AEBC002FD023682269F7B2981A6369F6B28342DD
:10AECC0005DC2100280000F055F9002827D1A368E3
:10AEDC000130013BA36023685A1C22601F70636918
:10AEEC00834204D0A389DB0707D50A2E05D12100A4
:10AEFC00280000F03FF9002811D13000F8BD0A4BB2
:10AF0C009C4201D1AC68CCE7084B9C42C9D1EC689F
:10AF1C00C7E72100280000F00BF80028C9D0012653
:10AF2C007642EAE770D0000890D0000850D00008B4
:10AF3C00374B70B51D6806000C00002D05D0AB69B1
:10AF4C00002B02D1280000F0B7F9324B9C420FD1F4
:10AF5C006C680C23E25E93B211072DD4D90611D480
:10AF6C0009230120336037331343A381404270BD62
:10AF7C00294B9C4201D1AC68EBE7284B9C42E8D1B1
:10AF8C00EC68E6E75B0713D5616B002908D023005A
:10AF9C004433994202D0300000F0B8FA00236363C6
:10AFAC002422A3899343A381002363602369236034
:10AFBC000823A2891343A3812369002B0BD1A02161
:10AFCC008022A389890092000B40934203D0210078
:10AFDC00300000F04DFA0C22A35E01201A0099B249
:10AFEC00024003420FD00022A26062695242A26169
:10AFFC00002022698242BAD10A06B8D540221343F6
:10B00C00A3810138B3E7880700D46269A260EFE737
:10B01C00B000002070D0000890D0000850D000087C
:10B02C0030B514001A00094B05001B6885B0D868B0
:10B03C00074B002C01D1074B1C00019300912B00F6
:10B04C000549029400F0B8F900F0FAFFB0000020B6
:10B05C0011D000084CD000081ED00008F7B58B8921
:10B06C0005000C001A075FD44A68002A04DC0A6C3D
:10B07C00002A01DC0020FEBDE76A002FFAD0002276
:10B08C0080212E682A601A0049010A400B4234D0F4
:10B09C00606DA3895B0706D56368C01A636B002BD0
:10B0AC0001D0236CC01A0200216A00232800E76A31
:10B0BC00B847A189431C06D12B681D2B31D82C4ACB
:10B0CC00DA40D3072DD50023636023692360CB04BA
:10B0DC0005D5431C02D12B68002B00D16065616B38
:10B0EC002E600029C6D023004433994202D0280098
:10B0FC0000F00CFA00206063BDE701232800216AF0
:10B10C00B847431CC5D12B68002BC2D01D2B01D0D6
:10B11C00162B01D12E60ADE74023A2891343A381E6
:10B12C00A9E740230B43FAE70F69002FA2D00A6866
:10B13C000F60D21B019200229B0700D14A69A260CA
:10B14C00019B002B00DC95E73A002800019B216A4B
:10B15C00A66AB047002806DC40230120A2894042A1
:10B16C001343A38187E7019B3F181B1A0193E7E761
:10B17C00010040200B6970B505000C00002B02D1BA
:10B18C000025280070BD002804D08369002B01D154
:10B19C0000F092F8144B9C421BD16C680C22A35EFD
:10B1AC00002BEDD0626ED20704D49B0502D4A06DA7
:10B1BC0000F033F928002100FFF750FF636E050003
:10B1CC00DB07DED4A3899B05DBD4A06D00F026F948
:10B1DC00D7E7064B9C4201D1AC68DFE7044B9C429D
:10B1EC00DCD1EC68DAE7C04670D0000890D00008DB
:10B1FC0050D00008002310B5040003604360836046
:10B20C00818143661900C281036143618361082215
:10B21C005C30FFF79EFC054B24626362044BA36217
:10B22C00044BE362044B236310BDC0468DBF000882
:10B23C00B5BF0008EDBF000819C0000810B50249E1
:10B24C0000F0CAF810BDC04681B1000870B5682581
:10B25C004A1E55430E002900743100F0C3F9041E38
:10B26C0008D000212A00016046600C30A0606832D2
:10B27C00FFF76FFC200070BD10B5024800F0CDF850
:10B28C0010BDC0466D14002010B5024800F0C6F881
:10B29C0010BDC0466D14002010B5024800F0BDF87A
:10B2AC0010BDC0466E14002010B5024800F0B6F870
:10B2BC0010BDC0466E14002013B50400FFF7ECFF60
:10B2CC00A369002B02D0FFF7EFFF13BDA364E36467
:10B2DC002365134B134A1B68A2620193A34201D14D
:10B2EC000123A361200000F01FF86060200000F033
:10B2FC001BF8A060200000F017F800220421E06089
:10B30C006068FFF777FF01220921A068FFF772FF41
:10B31C0002221221E068FFF76DFF0123A361D2E73F
:10B32C0078CF000849B20008F8B50700FFF7A4FF72
:10B33C001F4B1E68B369002B02D13000FFF7BCFF16
:10B34C004836B4687368013B04D53368002B22D0AF
:10B35C003668F6E70C22A55E002D1AD12000154B9D
:10B36C005830E360656600F057F8FFF78DFF20005A
:10B37C00082229002560A560656025616561A561CD
:10B38C005C30FFF7E6FB6563A563A564E56420000C
:10B39C00F8BD6834D7E704213800FFF757FF041EC7
:10B3AC003060D5D1FFF770FF0C233B60EFE7C04650
:10B3BC0078CF00080100FFFF0EB403B5010003AB0A
:10B3CC00044804CB0068019300F00CFB02B008BCED
:10B3DC0003B01847B0000020F7B5040006000027A2
:10B3EC00019148346368A5680093009B013B00936E
:10B3FC0004D52468002CF5D13800FEBDAB89012B97
:10B40C0008D90E22AB5E013304D029003000019B19
:10B41C00984707436835E8E7704770477047000066
:10B42C0070B50E001D000E23C95E140096B00029E5
:10B43C0008DA0C22B35E00222A601B0611D480238A
:10B44C00DB000FE06A4600F015FE0028F1DBF0236C
:10B45C0001991B021940054BC9184B4259412960EF
:10B46C00EDE740230020236016B070BD00E0FFFF25
:10B47C00F7B502268B8905000C00334206D0230059
:10B48C0047332360236101236361F7BD6A4601AB37
:10B49C00FFF7C6FF00990700280000F0A3F800286A
:10B4AC0008D10C22A35E9A05EFD4032293431E43CA
:10B4BC00A681E4E70F4BAB628023A2892060134383
:10B4CC00A381009B20616361019B002B0DD02800A0
:10B4DC000E23E15E00F0E0FD002806D00322A389D4
:10B4EC0093431A0001231343A381A0890743A78127
:10B4FC00CBE7C04649B2000810B5034B01001868F1
:10B50C0000F070F810BDC046B000002070B505000A
:10B51C00002910D00C1F2368002B00DAE418280037
:10B52C0000F0FEFD1D4A1368002B05D1636014600A
:10B53C00280000F0FDFD70BDA34208D921686018F9
:10B54C008342F3D118685B6841182160EEE71A005A
:10B55C005B68002B01D0A342F9D911685018A042A6
:10B56C000BD120680918501811608342E0D118687B
:10B57C005B68411811605360DAE7A04202D90C23D2
:10B58C002B60D5E721686018834203D118685B688B
:10B59C004118216063605460CAE7C04670140020F3
:10B5AC0070B50F4E0D0031680400002902D100F077
:10B5BC00D5FC30602900200000F0D0FC431C0AD0E0
:10B5CC000323C51C9D43A84207D0291A200000F074
:10B5DC00C5FC431C01D101256D42280070BDC0463D
:10B5EC0074140020F7B50322CB1C934308330600D8
:10B5FC001F000C2B32D20C27B94231D8300000F08E
:10B60C008FFD324D2B681C00002C2ED139003000E0
:10B61C00FFF7C6FF0400431C1ED12C682500002D2B
:10B62C004AD123682900E3183000019300F096FCFE
:10B63C00019B834243D123680337FF1A03239F43A3
:10B64C0008370C2F00D20C2739003000FFF7A8FF69
:10B65C00431C34D02368DF19276013E0002BCBDAAE
:10B66C000C23002533602800FEBD2268D11B20D49A
:10B67C000B2917D9E2192760A34211D12A606368FC
:10B68C00116053603000250000F052FD07220B358D
:10B69C00231D9543EA1A9D42E5D05B1BA350E2E7BC
:10B6AC005A60ECE76268A34201D12A60EAE75A606B
:10B6BC00E8E723006468A7E72C006D68AFE70C236C
:10B6CC003000336000F034FDCDE7C046701400202C
:10B6DC00F0B58E6885B007000C00039201939E4272
:10B6EC003CD890238A89DB001A4234D0096923683C
:10B6FC0060695B1A029303234343DD0FED18019B32
:10B70C00029801331B186D10AB4200D91D00530574
:10B71C0032D529003800FFF765FF061E09D10C232E
:10B72C003B6040230120A28940421343A38105B012
:10B73C00F0BD029A2169FFF703FAA389144A1A4053
:10B74C0080231343A381029B2661F6182660656152
:10B75C00019EED1AA560019B9E4200D9019E32000C
:10B76C000399206800F0C9FCA36800209B1BA36010
:10B77C0023689E192660DAE72A00380000F0E0FC06
:10B78C00061EE0D138002169FFF7C0FEC7E7C046AE
:10B79C007FFBFFFFF0B5A1B003901D008B890F005C
:10B7AC0016001B0611D50B69002B0ED14021FFF79B
:10B7BC0019FF38603861002805D10C23039A013831
:10B7CC00136021B0F0BD40237B61002308AC6361A2
:10B7DC00203363761033A376079535002B78002B36
:10B7EC0001D0252B47D1AB1B0593B5420CD03200B1
:10B7FC0039000398FFF76CFF431C00D1AEE062697F
:10B80C00059B9446634463612B78002B00D1A5E023
:10B81C00012200235242626004A9543252186E1C59
:10B82C002360E360A3601370A3650522317854484C
:10B83C0000F058FC751C00281FD12268D30604D5D3
:10B84C00532304A95B1820211970130704D5532323
:10B85C0004A95B182B21197033782A2B16D03500CC
:10B86C0000210A20E3682A786E1C303A092A4ED946
:10B87C00002911D117E00135B0E7414B2268C01AFD
:10B88C000123834013432E002360CEE7079B191D31
:10B89C001B680791002B01DB0B9304E05B42E36018
:10B8AC000223134323602B782E2B0AD16B782A2B7F
:10B8BC0035D1079B02351A1D1B680792002B2BDB19
:10B8CC000993304E03223000297800F00BFC00283D
:10B8DC0006D04023801B834022680135134323602C
:10B8EC002978062228486E1C217600F0FBFB0028E4
:10B8FC003CD0264B002B25D10722079B07339343C3
:10B90C00083307936369049A9B18636165E74343A3
:10B91C00350001219B18A6E701235B42D0E70023E9
:10B92C000A201A000135636029786E1C3039092908
:10B93C0003D9002BC5D00992C3E74243350001233C
:10B94C005218F1E707AB00933A002100104B039813
:10B95C0000E000BF0490049B0133D3D1BB890D9848
:10B96C005B0600D42DE7012040422AE707AB009389
:10B97C003A002100064B039800F0DEF9EAE7C046D6
:10B98C00B0D00008B6D00008BAD000080000000003
:10B99C00DDB60008936810B5013B9360002B04DA08
:10B9AC009469A34207DB0A2905D01368581C106060
:10B9BC001970080010BDFFF765FA0100F9E7F8B53A
:10B9CC0006000F001400D518AC4201D1002007E08E
:10B9DC0021783A003000FFF7DDFF0134431CF3D12E
:10B9EC00F8BD0000F0B5A1B006000C001F000392DA
:10B9FC00002804D08369002B01D1FFF75DFC8E4B2E
:10BA0C009C421CD17468636EDB0705D4A3899B052B
:10BA1C0002D4A06DFFF701FDA3891B0702D5236992
:10BA2C00002B1DD121003000FFF782FA002817D01F
:10BA3C00636EDB070DD50120404221B0F0BD7F4B7A
:10BA4C009C4201D1B468DEE77D4B9C42DBD1F468AB
:10BA5C00D9E7A3899B05EED4A06DFFF7DFFCEAE7DD
:10BA6C00002308AD6B6120336B761033AB760797F0
:10BA7C00039F3B78002B01D0252B4ED1039BFB1A47
:10BA8C000593039B9F420DD0059B21003000039A28
:10BA9C00FFF795FF431C00D1B5E06A69059B9446FE
:10BAAC0063446B613B78002B00D1ACE001227B1C22
:10BABC000393002352426A6004A9543252182B603B
:10BACC00EB60AB601370AB65039B052219785D4886
