:020000040800F2
:1060000000900020F9F1000891840008A1840008A4
:106010000000000000000000000000000000000080
:10602000000000000000000000000000B184000833
:106030000000000000000000B3840008B5840008E0
:1060400049F2000849F2000849F2000849F2000844
:1060500049F2000849F20008BD840008C78400081E
:1060600049F20008D5840008E584000849F20008D8
:1060700049F20008F584000849F2000849F20008D6
:1060800049F2000849F2000849F2000849F2000804
:1060900049F2000849F2000849F2000849F20008F4
:1060A00049F2000849F2000849F2000849F20008E4
:0C60B00049F2000849F2000849F200081B
:1060BC0010B5064C2378002B07D1054B002B02D0D2
:1060CC00044800E000BF0123237010BD88010020AC
:1060DC00000000005C0B0108044B10B5002B03D032
:1060EC000349044800E000BF10BDC046000000009A
:1060FC008C0100205C0B01080023C25C0133002AD8
:10610C00FBD1581E7047000003B47146490840008B
:10611C004900095E49008E4403BC704700224308C5
:10612C008B4274D303098B425FD3030A8B4244D353
:10613C00030B8B4228D3030C8B420DD3FF22090295
:10614C0012BA030C8B4202D31212090265D0030B54
:10615C008B4219D300E0090AC30B8B4201D3CB034A
:10616C00C01A5241830B8B4201D38B03C01A52418C
:10617C00430B8B4201D34B03C01A5241030B8B428E
:10618C0001D30B03C01A5241C30A8B4201D3CB0279
:10619C00C01A5241830A8B4201D38B02C01A52415E
:1061AC00430A8B4201D34B02C01A5241030A8B4261
:1061BC0001D30B02C01A5241CDD2C3098B4201D379
:1061CC00CB01C01A524183098B4201D38B01C01AF7
:1061DC00524143098B4201D34B01C01A524103096E
:1061EC008B4201D30B01C01A5241C3088B4201D31D
:1061FC00CB00C01A524183088B4201D38B00C01ACA
:10620C00524143088B4201D34B00C01A5241411AF0
:10621C0000D20146524110467047FFE701B50020FD
:10622C0000F0F0F802BDC0460029F7D076E77047C1
:10623C0003460B437FD4002243088B4274D30309DB
:10624C008B425FD3030A8B4244D3030B8B4228D37C
:10625C00030C8B420DD3FF22090212BA030C8B42A2
:10626C0002D31212090265D0030B8B4219D300E042
:10627C00090AC30B8B4201D3CB03C01A5241830BC7
:10628C008B4201D38B03C01A5241430B8B4201D377
:10629C004B03C01A5241030B8B4201D30B03C01AA0
:1062AC005241C30A8B4201D3CB02C01A5241830A1A
:1062BC008B4201D38B02C01A5241430A8B4201D349
:1062CC004B02C01A5241030A8B4201D30B02C01A73
:1062DC005241CDD2C3098B4201D3CB01C01A5241DA
:1062EC0083098B4201D38B01C01A524143098B4263
:1062FC0001D34B01C01A524103098B4201D30B014C
:10630C00C01A5241C3088B4201D3CB00C01A524170
:10631C0083088B4201D38B00C01A524143088B4235
:10632C0001D34B00C01A5241411A00D201465241CE
:10633C00104670475DE0CA0F00D04942031000D3ED
:10634C004042534000229C4603098B422DD3030A42
:10635C008B4212D3FC22890112BA030A8B420CD352
:10636C00890192118B4208D3890192118B4204D37B
:10637C0089013AD0921100E08909C3098B4201D3FB
:10638C00CB01C01A524183098B4201D38B01C01A35
:10639C00524143098B4201D34B01C01A52410309AC
:1063AC008B4201D30B01C01A5241C3088B4201D35B
:1063BC00CB00C01A524183088B4201D38B00C01A08
:1063CC005241D9D243088B4201D34B00C01A5241DF
:1063DC00411A00D20146634652415B10104601D36C
:1063EC004042002B00D54942704763465B1000D3F6
:1063FC00404201B5002000F005F802BD0029F8D09C
:10640C0016E770477047C0468446100062468C46BB
:10641C001900634600E0C0461FB501F06DFC002872
:10642C0001D40021C8421FBD10B501F0BDFB404294
:10643C00013010BD10B501F05FFC002801DB00201D
:10644C0010BD012010BDC04610B501F055FC002850
:10645C0001DD002010BD012010BDC04610B501F0BB
:10646C00E5FB002801DC002010BD012010BDC0465A
:10647C0010B501F0DBFB002801DA002010BD012073
:10648C0010BDC046844608006146FFE71FB500F00A
:10649C0087FC002801D40021C8421FBD10B500F0B4
:1064AC0013FC4042013010BD10B500F079FC0028FF
:1064BC0001DB002010BD012010BDC04610B500F05E
:1064CC006FFC002801DD002010BD012010BDC0466E
:1064DC0010B500F01FFC002801DC002010BD0120CD
:1064EC0010BDC04610B500F015FC002801DA0020E4
:1064FC0010BD012010BDC046002B11D1002A0FD1B8
:10650C00002900D1002802D00021C943080007B49B
:10651C00024802A14018029003BDC046E9FEFFFFED
:10652C0003B4684601B5029800F04CF8019B9E46F6
:10653C0002B00CBC7047C046F0B5CE46474680B59D
:10654C00070099463B0C9C4613041B0C1D000E00C7
:10655C0061460004140C000C45434B4360436143FB
:10656C00C0182C0C20188C46834203D980235B0264
:10657C009846C444494679437243030C63442D0442
:10658C002D0CC918000440198918C0BCB946B04676
:10659C00F0BDC0469E2110B5C905041CFFF7A2FF33
:1065AC00002803D1201C00F013FF10BD9E21201CDD
:1065BC00C90500F05FFD00F00BFF80231B069C4615
:1065CC006044F2E7F0B557464E464546DE46E0B528
:1065DC0004000D009246994683B08B4230D82DD0E2
:1065EC004946504601F0B8FC29000600200001F095
:1065FC00B3FC331A9846203B9B4633D45A46534639
:10660C00934042461F00534693401E00AF423AD877
:10661C00AF4200D178E05B46A41BBD41002B00DAF1
:10662C0075E0002200230092019301235A46934007
:10663C000193012342469340009328E08242CFD934
:10664C0000220023009201930C9B002B01D01C60B4
:10665C005D600098019903B0F0BCBB46B246A946F8
:10666C00A046F0BD424620239B1A5246DA404146D2
:10667C0013004A468A40170042461F435346934034
:10668C001E00AF42C4D9002200230092019343465E
:10669C00002BD9D0FB0772081A4346467B080EE044
:1066AC00AB4201D1A2420CD8A41A9D41012024195D
:1066BC006D410021013E24184D41002E06D0AB4205
:1066CC00EED9013E24196D41002EF8D100980199A4
:1066DC005B4600196941002B24DB2B005A464446CB
:1066EC00D3402A00E2401C005B461500002B2ADB3D
:1066FC0026009E40330026004746BE403200801ADA
:10670C009941009001919FE7A342BCD883E7424690
:10671C00202300219B1A0022009101920122DA40D1
:10672C00019286E7424620239B1A2A0046469A404D
:10673C002300F340444613432A00E2401C005B460E
:10674C001500002BD4DA42462F0020232600974058
:10675C009B1ADE403B003343CDE7C046F0B5C6463E
:10676C0043025B0A4E0245004F00DA00C40F9C4600
:10677C00700A904600B52D0E3F0EC90FB6098C421B
:10678C004BD0EA1B002A36DD002F61D0FF2D00D143
:10679C00ADE08023DB041E431B2A00DCD3E0012088
:1067AC004346181A430100D48CE080018709380055
:1067BC0001F0B4FB05388740854200DCB6E02D1AA9
:1067CC00B3483840430704D00F230340042B00D0B8
:1067DC000430430100D478E06A1CFE2D65D08001A2
:1067EC00430A9C46D2B26346D0051843E4072043C3
:1067FC0080BCB846F0BD002A35D07A1B002D00D0E5
:10680C00AFE04346002B00D1A7E0531E012A00D174
:10681C002FE1FF2A69D01A00AAE0E91B002970DDDC
:10682C00002F37D0FF2D62D08023DB041E431B29A1
:10683C0000DCB0E001204044430143D50135FF2D7D
:10684C0033D00123934A0340400810401843B9E762
:10685C00002E00D183E0511E012A00D1D8E0FF2A7E
:10686C0045D00A0098E7FE276A1C174200D086E044
:10687C00002D00D0B7E04346002B00D1F3E00022FE
:10688C00002EB0D0981B430100D4FAE043460C0014
:10689C00F01A97E7002E00D1C8E04A1E012900D15A
:1068AC00AEE0FF2923D01100C1E70023FF229C4654
:1068BC0099E7FE216A1C114277D0FF2AF5D015000A
:1068CC0046447008430700D07EE7C308FF2D0ED066
:1068DC005B025B0A9C46EAB285E7002E07D0802259
:1068EC00D203134203D0104201D10C000300002B41
:1068FC00DBD08020C00318434002430A9C46FF2291
:10690C0071E70029D5D07A1B002D60D14346002BAE
:10691C0024D0531E012A73D0FF2AE7D01A001B2A59
:10692C0000DC85E001203D00801985E720233A003A
:10693C00451B38000135EA405D1BA840431E9841B9
:10694C00002510433EE7202330009B1A310098406D
:10695C00D140431E9841084322E70C000300150068
:10696C00B4E7FF2FC1D080234046DB041843804698
:10697C001B2A51DD01200C003D00301A12E7434662
:10698C009F1B7B012BD4002F00D010E70023002489
:10699C0000229C4627E7202332003000CA40591AB7
:1069AC008840431E9841104345E7002D4AD1434689
:1069BC00002B63D00022002E00D114E7300040449D
:1069CC00430100D47EE7324B013518407AE7FF2FA4
:1069DC008CD080234146DB04194388469FE743460D
:1069EC000C00F71AE3E64246002A00D075E7002EA9
:1069FC0000D07AE78023DB0300249C46FF22F2E6DA
:106A0C00300040440125430100D45BE7022518E720
:106A1C0043460125981BC5E6202344464046D440F6
:106A2C009A1A9040431E98412043A4E70D004DE76D
:106A3C00202341464046D1409A1A9040431E98412B
:106A4C00084370E74246002A00D14FE7002E00D1E0
:106A5C004DE78022D203134200D148E7104200D008
:106A6C0045E7030043E7002E90D00C00844600223B
:106A7C00B9E643460C00F01A013593E68446002231
:106A8C00B1E6002800D01DE7002300249C46AAE6AE
:106A9C00FFFFFFFBFFFFFF7DF0B54F464646D64696
:106AAC004502C0B547000C1C6D0A3F0EC60F002FE7
:106ABC0000D170E0FF2F00D175E0EB008025ED04D4
:106ACC001D43002399469A467F3F6002430A98462D
:106ADC0063001B0EE40F002B4ED0FF2B46D042461A
:106AEC00D0008022D2040243904600227F3B31002A
:106AFC00FF1A4B466140C9B213430F2B00D9B5E0C6
:106B0C006E489B00C3589F46002398462600454676
:106B1C0092465346022B00D189E0032B00D19EE014
:106B2C00012B18D03B007F33002B69DD6A0704D0A2
:106B3C000F222A40042A00D004352A0103D5604BC9
:106B4C001D403B008033FE2B00DD70E0AD016D0A73
:106B5C00D8B202E00E0000200025C0052843F6073D
:106B6C003043E0BCBA46B146A846F0BD4346002BC4
:106B7C003FD10222FF3F03E04346002B2DD10122DF
:106B8C0031004B466140C9B213430F2B34D84D48EA
:106B9C009B00C3589F46002D13D104239946033BF9
:106BAC0000279A4691E7002D05D108239946063B0C
:106BBC00FF279A4689E70C239946093BFF279A46FB
:106BCC0083E7280001F0AAF97627431F9D40002394
:106BDC007F4299469A463F1A77E7404601F09EF964
:106BEC004246431F9A4076235B4290461B1A002272
:106BFC007DE7FF2303227AE70E00FF200025ACE798
:106C0C000120C01A1B28A6DC9E372A00BD40C240BA
:106C1C006B1E9D4115436B0704D00F232B40042B97
:106C2C0000D004356B0144D50120002595E7FF20E9
:106C3C00002592E780250026FF20ED038DE7002339
:106C4C0098468020C003054209D04346034206D132
:106C5C00454605436D022600FF206D0A7DE7802026
:106C6C00C00305436D02FF206D0A76E742466B01B7
:106C7C005001834219D21B220025013F01261C0022
:106C8C006D005B00002C01DB984201D81B1A3543C8
:106C9C00013A002AF3D15A1E93411D433B007F3326
:106CAC000E00002B00DD41E7AAE71A2201251B1A72
:106CBC00E4E7AD0100206D0A4FE7C046C40B0108A4
:106CCC00FFFFFFF7040C010870B5420045024E02AD
:106CDC004C00C30F6D0A0120120E760A240EC90F48
:106CEC00FF2A06D0FF2C03D0A24201D1B54206D018
:106CFC0070BD002DFCD1FF2CFAD1002EF8D18B42A7
:106D0C0006D00120002AF3D12800431E9841EFE75A
:106D1C000020EDE770B5420045024E024C00C30F57
:106D2C006D0A120E760A240EC80FFF2A1BD0FF2CF8
:106D3C000ED0002A1BD1002C01D1002E1CD0002D0E
:106D4C000CD083421CD00221581E0840013870BD63
:106D5C00002E22D1002AF4D1002DF2D10028F6D138
:106D6C0001204042F3E7002D17D1FF2CF0D0002C6E
:106D7C00E7D1002EE5D1E6E70020002DE7D0E2E7D1
:106D8C00A24205DCEADBB54202D8E7D30020DEE7FD
:106D9C004342584140000138D9E702204042D6E72F
:106DAC0070B5420045024E024C00C30F6D0A120E24
:106DBC00760A240EC80FFF2A0BD0FF2C0DD0002A08
:106DCC001FD1002C16D1002E14D10020002D10D074
:106DDC0009E0002D0CD1FF2C13D1002E08D1002A74
:106DEC0008D0834212D00221581E0840013800E01E
:106DFC00022070BD002DF4D10028FAD101204042B0
:106E0C00F7E7002CEDD1002EEBD1ECE7A24205DC2C
:106E1C00F2DBB54202D8EFD30020EAE743425841F7
:106E2C0040000138E5E7C046F0B54F464646D64629
:106E3C0044024500C0B5640A0F1C2D0EC60F002D70
:106E4C0000D18DE0FF2D00D192E0002380209946E7
:106E5C009A46E400C00404437F3D7802430A9846F6
:106E6C007B001B0EFF0F002B00D170E0FF2B00D11D
:106E7C0086E04246D00080227F3BED180023D204EE
:106E8C00024390469C4631004B467940681C0F2BC0
:106E9C001CD8764A9B00D3589F4639004446E2469C
:106EAC005346022B0FD0032B00D1D7E0012B37D147
:106EBC0000200024C0052043C9070843E0BCBA46A3
:106ECC00B146A846F0BDFF200024F3E7260C2404AD
:106EDC00220C44462404240C434627001B0C574325
:106EEC0074435A435E4312193B0C9B189C4203D9C2
:106EFC0080225202944666443F041A043F0CD21975
:106F0C009401671EBC411B0C920E9B1914439B01F0
:106F1C001C431B0100D49BE0012362081C4014435A
:106F2C0002007F32002A64DD630704D00F23234064
:106F3C00042B00D00434230103D502004C4B8032C7
:106F4C001C40FE2ABFDCA401640AD0B2B2E743465F
:106F5C00002B3DD14A4601331A4391469C4692E799
:106F6C00002C29D104239946033B00259A4674E74B
:106F7C00002C1BD108239946063BFF259A466CE74B
:106F8C004346FF35002B0BD102234A461A43914648
:106F9C009C4678E753463100022B00D083E792E7FA
:106FAC0003234A461A4391469C466CE70C239946A8
:106FBC00093BFF259A4650E7200000F0AFFF7625ED
:106FCC00431F9C4000236D4299469A462D1A44E774
:106FDC00404600F0A3FF4246431F9A4000232D1A5F
:106FEC0090469C46763D4EE780240021FF20E4032A
:106FFC0060E701239B1A1B2B00DD59E722009E3012
:10700C00DA4084401300621E94411C43630704D091
:10701C000F232340042B00D0043463011AD5012024
:10702C00002447E78020C003044209D043460342B2
:10703C0006D14446044364023900FF20640A39E750
:10704C008020C003044364023100FF20640A31E74E
:10705C00280065E7A4010020640A2BE78020C00308
:10706C0004436402FF20640A24E7C046440C010870
:10707C00FFFFFFF7F8B5CE46474643025B0A4E02C8
:10708C00DA009446720A914645004A0080B52D0EEE
:10709C001F00C40F120EC90FB609FF2A5BD00120C6
:1070AC0041408C4239D0A81A00285ADD002A6AD0F7
:1070BC00FF2D00D1D9E08022D20416431B2800DC1E
:1070CC00E9E001206346181A430100D4B4E08001C2
:1070DC008709380000F022FF05388740854200DC24
:1070EC00CCE02D1AB5483840430704D00F23034099
:1070FC00042B00D00430430100D4A0E06A1CFE2D08
:10710C0000D18DE08001470AD2B2D0053843E407A4
:10711C002043C0BCB946B046F8BDA81A804600282A
:10712C0045DD002A70D0FF2D00D19EE08023DB04CA
:10713C001E4343461B2B00DCD2E00120604443017C
:10714C007AD50135FF2D6BD001239D4A03404008B1
:10715C0010401843C8E7002E20D08C4223D02800C2
:10716C00FF38002839D0571B002D00D09DE0634616
:10717C00002B00D1DBE07B1E012F00D10DE1FF2F96
:10718C0071D01F0098E0002E00D1A7E0421E01280C
:10719C0000D1E6E0FF2868D010008FE701204140C5
:1071AC00A14200D07FE7FF2040428046A8444046E1
:1071BC00002838D0511B002D00D1AEE0FF2A00D1A1
:1071CC00DFE080236046DB04184384461B2900DC87
:1071DC00D9E0012015008019B1E7FE206A1C10428D
:1071EC0071D1002D00D0A6E06346002B00D1D9E070
:1071FC000022002E00D188E7981B430100D4E1E067
:10720C0063460C00F01A6FE7002E00D1B7E00200C5
:10721C00013A012800D19CE0FF2826D0904688E74F
:10722C00FF22002771E7FE206A1C104264D0FF2A5F
:10723C00F6D0150066447008430700D056E7C30823
:10724C00FF2D12D05B025F0AEAB25EE76246002AAB
:10725C0000D196E0002E08D08022D203134204D035
:10726C004846104201D10C004B46002BD8D0802749
:10727C00FF031F437F02FF227F0A46E720233A00C9
:10728C00451B38000135EA405D1BA840431E984160
:10729C000025104328E720231B1A32009E40C240D1
:1072AC003000431E984110430CE7FF2ADBD08023AB
:1072BC006046DB04184384461B2F56DD01200C006E
:1072CC001500301A00E763469F1B7B013DD4002F4D
:1072DC0000D0FEE600240022002716E70500AFE7E9
:1072EC00320043464146DA4020235B1A9E40300070
:1072FC00431E9841104321E7002DA7D16346002B74
:10730C0059D00022002E00D1FFE63000604443012A
:10731C0092D52A4B013518408EE76346002B47D097
:10732C004B1E012915D0FF292BD019004EE70C005C
:10733C004B463D0084E76246002A8BD1002E92D149
:10734C0080270024FF22FF03DFE663460C00F71AB8
:10735C00BFE6300060440125430100D46CE70225F0
:10736C00F2E663460125981BAEE620236446604690
:10737C00FC40DF1BB840431E984120439FE70500AB
:10738C005EE74B4671E7202365466046CD40591AAF
:10739C008840431E984128431CE763460C00012596
:1073AC00F01A91E6002E95D00C004F460022ACE668
:1073BC004B460D0044E74F460022A6E6FFFFFFFBBD
:1073CC00FFFFFF7D002800D036E7002400279CE655
:1073DC0041024200C30F490A0020120E7E2A03DD2F
:1073EC009D2A02DD094A9818704780200004014349
:1073FC00952A07DC9620821AD1404842002BF3D103
:10740C000800F1E7963A9140F7E7C046FFFFFF7F8F
:10741C00F8B5002813D0C317C6185E40C40F30004F
:10742C0000F07CFD9E2305001B1A962B0FDC082810
:10743C0001DD083DAE407602760AD8B202E00024A7
:10744C0000200026C0053043E4072043F8BD992BEB
:10745C000CDD05223100121AD1400A000100300067
:10746C001B318840411E884102431600052D12DC59
:10747C0031000D4F3940720709D00F2030400428DD
:10748C0005D004314A0102D59F2339405B1B890189
:10749C004E0AD8B2D6E76A1F96403100024F3940E7
:1074AC007207F4D0E9E7C046FFFFFFFB70B5051E7D
:1074BC000ED000F033FD9E2304001B1A962B0CDC1F
:1074CC00082801DD083CA5406D026D0AD8B201E028
:1074DC0000200025C005284370BD992B09DD020052
:1074EC0029001B3291404A1E91410522121AD540A7
:1074FC000D43052C12DC29000C4E31406A0709D0D3
:10750C000F202840042805D004314A0102D59F23BE
:10751C0031401B1B89014D0AD8B2DBE7621F954035
:10752C002900024E31406A07F4D0E9E7FFFFFFFB68
:10753C00F0B54F464646D6460D000400C0B51F00B8
:10754C0011002803620F400A10437A00520DE30029
:10755C003C039146640AFA0F4F0F6E002743924684
:10756C00B846760DED0FC900954200D199E04C4616
:10757C00341BA446002C00DC7CE04A46002A00D1D7
:10758C00B8E0C54A964200D11CE180223C001204AE
:10759C001443A0466246382A00DD61E11F2A00DD53
:1075AC00CCE164462022121B444694400F00A146B5
:1075BC0064469140E7404C464A1E91413C4342464A
:1075CC0021436446E240801A5C1AA3429B415F420D
:1075DC00C71B3B0200D4D0E07F027F0A002F00D1F2
:1075EC00FFE0380000F09AFC01000839202322004B
:1075FC005B1A8F40DA408C401743B14200DAFFE04F
:10760C00891B4B1C1F2B00DDA8E020223900D21A4D
:10761C00200094409140D840621E9441DF400026E7
:10762C0001430C43630709D00F232340042B05D0DF
:10763C00231DA342A44164423F191C003B0200D409
:10764C009EE0954B01369E4200D1B7E0934AE40888
:10765C0017407B0771057F0223433F0B4A0D120530
:10766C003A43ED072A4318001100E0BCBA46B14674
:10767C00A846F0BD002C4BD04C46A41BA446002EB3
:10768C0000D023E104001C4300D1AFE16246541E3C
:10769C00012A00D115E2804DAC4500D1C8E1A446C9
:1076AC001BE14A46B21A9446002A00DCACE04A467A
:1076BC00002A43D0784A964200D1AFE180223C00A8
:1076CC0012041443A0466246382A67DC1F2A00DCE9
:1076DC005FE14746203AD7406246202A05D06446EF
:1076EC004022121B4446944021434A1E91410C00F7
:1076FC003C4357E03A000A4300D105E12200013A2D
:10770C00012C00D182E1644CA4455BD0944641E746
:10771C00634C771C274200D0C4E004001C43002EAD
:10772C0000D069E1002C00D1BFE144460C4300D0ED
:10773C00D0E14207DB081343C00829E03A000A43B2
:10774C0000D170E162466446013A012C00D1E0E0C0
:10775C00514CA44500D161E19446B4E73A001F397D
:10776C00CA401100202B03D04022D31A9F403C4327
:10777C00631E9C41002700260C43630700D053E78F
:10778C00B446E4087B072343F808434A94451DD0CC
:10779C006246070352053F0B520D60E744460C430B
:1077AC00621E9441E4189C429B415F423F183B028D
:1077BC00E3D5394B01369E4200D0B5E032000027AC
:1077CC0000234CE74207DB081343C0081A000243AE
:1077DC0000D1E1E180273F0307433F032E4A3F0BD3
:1077EC003DE7200000F09AFB010018311F2900DC56
:1077FC00FCE60838844027000024B14200DBFFE699
:10780C00264A761A17400DE7002A2FD04A46921BBB
:10781C009446002E00D1ADE01F4A914500D10FE1F6
:10782C008022120410436246382A00DD0FE11F2A21
:10783C0000DD80E1644620221E00121B6746040016
:10784C0093409440FE405A1E9341F84034431C43ED
:10785C00804464188C42BF417F424E464744A6E7A1
:10786C0042460A4311004A1E9141ADE60C4C721C73
:10787C00224200D0A1E002001A43002E00D0FAE010
:10788C00002A00D145E13A000A4300D046E1420704
:10789C00DB081343C0087BE7FF070000FFFF7FFFF7
:1078AC00FE07000047465C1AC21BA342BF417F4241
:1078BC00B94617004A46BF1A3A0200D58DE023009C
:1078CC003B4300D08AE60020002561E7B44CA1457B
:1078DC0000D1ADE08024240420436446382C3DDCE8
:1078EC0062461F2C00DDB7E020251E002D1B040076
:1078FC00AB40AC40D640D04042465D1EAB41344319
:10790C00121A904623432CE04207DB081343C008AD
:10791C003BE75C189C429B4140445B42C7180126E4
:10792C003B0200D429E702269E4A63081740012235
:10793C0014401C43FB071C437F0873E64446203A63
:10794C00D4406246202A05D067464022D21B4746C7
:10795C00974039434A1E9141214335E60343581E53
:10796C008341CC1AA142BF4143467F4255464E4605
:10797C00DF1B2EE602001A4300D1BDE062466446CE
:10798C00013A012C00D1E5E0854CA44558D0944631
:10799C0049E764462022121B444694400F00A1463E
:1079AC0064469140E7404C464A1E91413C43424656
:1079BC000C436146CA408018F4E6794CA24200D1CF
:1079CC00FDE6591899429B4140445F42C719FC0798
:1079DC00490816000C437F08CFE6CC1AA142BF41E0
:1079EC0043467F42181A5546C71BF7E5C9087B0763
:1079FC0055460B43F808C8E6002C00D081E04346FE
:107A0C000B4315D1802000250003E3E65C1AA3424A
:107A1C009B41C71B5B420126FF1ADAE54207DB08D4
:107A2C001343C008D2E64207DB081343C008ACE698
:107A3C0043464246C9085B0755460B43D008C5E68A
:107A4C00434642465B07C9080B43D008BEE60343D6
:107A5C001C00631E9C41FCE60200203CE24014002A
:107A6C006246202A03D04025AD1AA8400343581E75
:107A7C008341234375E7002AE2D03A000A43CDD074
:107A8C004207DB0813438022C0081203104206D0C1
:107A9C00FC08144203D12000CB087A0713435A0F79
:107AAC00DB005207DB08134390E643460B4300D13F
:107ABC0009E743464246C9085B0755460B43D008C5
:107ACC0066E6CC1AA14289413F1A49425546012625
:107ADC007F1A7EE542465C1A871AA34292415242B3
:107AEC00BF1A3A023DD5CC1AA142894143464942BC
:107AFC001F1A55467F1A95E57B07C9080B43F808F2
:107B0C0043E64446DB080C4330D142071343C0081C
:107B1C005CE67B07C9080B43F80839E65C189C4205
:107B2C009B4140445B42C7183B0200D425E61D4BE9
:107B3C0001261F4021E60400203AD4406246202A48
:107B4C0004D040226646921B904003435A1E934138
:107B5C001C437EE65C188C428941404449424718DC
:107B6C00DDE623003B4300D1ADE606E644072343A4
:107B7C008024C0082403204208D04246D60826425E
:107B8C0004D155463000CB0851070B435A0FDB008C
:107B9C00DB085207134319E60023014A1F005EE578
:107BAC00FF070000FFFF7FFFF0B54E464546DE465F
:107BBC0057469046E0B517001A03120B0500844691
:107BCC0019480E034C0091465A00DB0F9B46360BAE
:107BDC00640DC90F520D844219D0824210D001207D
:107BEC0094420ED14E450CD10120C44509D15945C2
:107BFC0017D0002C05D130002843431E984100E0DB
:107C0C000120F0BCBB46B246A946A046F0BD3300ED
:107C1C0001202B43F5D1A242F3D14B463B43F0D18B
:107C2C00E2E70020EDE7C046FF070000F0B547464D
:107C3C00CE460400180016001B031B0B2D4D4A00EA
:107C4C00994680B543000F03A446B0463F0B520D36
:107C5C00C90F5B0DC00FAA4221D0AB4213D0002A32
:107C6C0022D13C43002B02D14D462E4322D0002C76
:107C7C0010D0814222D00220013908400138C0BC0A
:107C8C00B946B046F0BD4D462E4329D1002AF0D15D
:107C9C003C43EED10028F2D101204042EFE73D00F9
:107CAC0025431DD19342EED0002BE2D14C46264306
:107CBC00DFD1E0E70020002CE1D0DCE79A420ADCBF
:107CCC00E8DB4F45D7D80ED000204F45D7D200293E
:107CDC00E2D00800D3E74342584140000138CEE7D8
:107CEC0002204042CBE7C445C5D80020C445C6D2CB
:107CFC00EDE7C046FF070000F0B54746CE4604004E
:107D0C00180016001B031B0B2C4D4A00994680B51E
:107D1C0043000F03A446B0463F0B520DC90F5B0D39
:107D2C00C00FAA420DD0AB4210D0002A27D13C4341
:107D3C00002B11D14D462E430ED10020002C15D016
:107D4C000EE03D00254310D1934218D14D462E43F1
:107D5C000BD1002A02D13C43002C0BD0814214D011
:107D6C00022001390840013800E00220C0BCB946AD
:107D7C00B046F0BD0028F9D101204042F6E7002BB7
:107D8C00ECD14C462643E9D1EAE79A4204DD434262
:107D9C00584140000138E9E79A42EBDB4F45DFD808
:107DAC0006D000204F45E1D20029E5D00800DDE7E0
:107DBC00C445D5D80020C445D8D2F5E7FF0700004C
:107DCC000A0030B5134C530009030500090B0020C1
:107DDC005B0DD20FA34204DD0F48834202DD0F4B33
:107DEC00D01830BD8020400301430D48C01A1F2815
:107DFC0008DD0C48C31AD9400B005842002AF0D1B8
:107E0C001800EEE7084CC540A446634499400B00AB
:107E1C002B43F2E7FE0300001D040000FFFFFF7F71
:107E2C003304000013040000EDFBFFFF70B50028C5
:107E3C0016D0C317C5185D40C40F280000F06EF8AB
:107E4C00114A121A0A2816DC03002E0015339E4024
:107E5C000B23181AC54052052D032D0B530D03E0AF
:107E6C0000240023002500261B052B43E407234395
:107E7C003000190070BD0B38854052052D030026CB
:107E8C002D0B530DF0E7C0461E04000070B54300E7
:107E9C004602C40FFE201B0E591C750A08420CD05A
:107EAC00E022920094466D07360B63441B05334366
:107EBC00E40723432800190070BD002B14D1002DBA
:107ECC001BD0280000F02AF80A281CDC0B232E00FB
:107EDC001B1ADE40030015339D400E4A3603121A5E
:107EEC005205360B530DE1E7002D09D08022360BDD
:107EFC001203094B6D071643D8E700230026D5E77C
:107F0C000026054BD2E703000B3B9D402E000025BD
:107F1C00E3E7C04689030000FF0700001C21012392
:107F2C001B04984201D3000C10391B0A984201D350
:107F3C00000A08391B09984201D30009043902A22E
:107F4C00105C40187047C046040302020101010195
:107F5C00000000000000000010B5002903D1FFF75D
:107F6C00DDFF203002E00800FFF7D8FF10BDC0464F
:107F7C00F0B5DE4657464E464546E0B58BB014226A
:107F8C00002105A807F0A2F94C4B596B2022114394
:107F9C005963596B0A400192019A5A6B012422438E
:107FAC005A635A6B22400292029A5A6B02218A46F9
:107FBC000A435A635A6B0A400392039A5A6B06316E
:107FCC0088460A435A635B6B0B400493049BA023C3
:107FDC00DB05994600227831180001F06AFB384B1A
:107FEC009B46384E00221900300001F062FB8021C4
:107FFC0001220902484601F05CFB334F00220621A6
:10800C00380001F056FB314B05930694002507957B
:10801C005346089305A9484601F086FA5B4605933A
:10802C0006940795089505A9300001F07DFA802388
:10803C001B0105930695079405A9300001F074FA0D
:10804C0080235B010593224B99460693079405A95F
:10805C00300001F069FA8023DB0105930695079542
:10806C0005A9300001F060FA0623059306940795E4
:10807C00089505A9380001F057FA434605934B467D
:10808C000693079405A9380001F04EFA002202214C
:10809C00062001F0B7FC062001F0E4FC00220221CE
:1080AC00072001F0AFFC072001F0DCFC0BB0F0BCAA
:1080BC00BB46B246A946A046F0BDC04600100240E1
:1080CC000726000000040050000C005080800000C7
:1080DC000000211000B583B00D4A916B01231943A8
:1080EC009163926B13400193019B002202210920A2
:1080FC0001F088FC092001F0B5FC002202210A20C5
:10810C0001F080FC0A2001F0ADFC03B000BDC046BC
:10811C000010024072B6FEE700B58BB0242200219D
:10812C0001A807F0D3F80D480D4B036000F048FB95
:10813C0000280ED10023019302930393049305931B
:10814C00102201A9054800F097FB002803D10BB0C1
:10815C0000BDFFF7DFFFFFF7DDFFC046A4010020E5
:10816C000074004010B51048104B036082235B0074
:10817C00436000238360E022D200C260036143614C
:10818C00802292008261F93AFF3AC2610362436233
:10819C0083620721C1620363426301F07BFE002806
:1081AC0000D110BDFFF7B6FF700200200030014077
:1081BC0010B51748174B0360E1235B0243600023A3
:1081CC008360C36003610C2242618361C3610362FB
:1081DC004362836203F0A8FD002811D100210C48F2
:1081EC0003F034FE00280DD10021094803F054FEA1
:1081FC00002809D1064803F009FE002806D110BD5D
:10820C00FFF788FFFFF786FFFFF784FFFFF782FF7A
:10821C00B80300200038014000B595B010220021B1
:10822C0010A807F053F80C2200210DA807F04EF807
:10823C0034220021684607F049F81B481B4B0360A9
:10824C003F23436000238360C722C2600361436104
:10825C00836102F051FF00281DD180235B01109334
:10826C0010A9114803F092F8002816D100230D93A1
:10827C000E930F930DA90C4803F026FA00280ED18B
:10828C00002307930B936946074803F05DFA002817
:10829C0007D115B000BDFFF73DFFFFF73BFFFFF720
:1082AC0039FFFFF737FFC046D4020020002C0140F5
:1082BC0000B589B01422002103A807F007F80C229E
:1082CC000021684607F002F815488023DB0503609F
:1082DC0000234360836001225242C26003618361C8
:1082EC0002F00AFF002814D10723039319330493D7
:1082FC0003A90B4803F008F900280CD100230093C4
:10830C0002936946064803F0DFF9002805D109B04D
:10831C0000BDFFF7FFFEFFF7FDFEFFF7FBFEC046BB
:10832C002003002000B58BB00C22002107A806F01A
:10833C00CDFF1C220021684606F0C8FF19481A4BD5
:10834C0003600323436000238360184AC260036107
:10835C008033836102F000FF00281CD14023079377
:10836C004033099307A90F4803F0AEF9002814D144
:10837C0060230093503B019300230293049300224B
:10838C006946084802F05CFF002808D1054800F057
:10839C00BDF90BB000BDFFF7BDFEFFF7BBFEFFF74D
:1083AC00B9FEC0466C03002000040040FFFF000033
:1083BC0000B5A1B03822002112A806F087FF1022C8
:1083CC0000210EA806F082FF3422002101A806F03D
:1083DC007DFF8020800001F0EBFA012312938023B3
:1083EC005B0213930223199301331A9300231B93FB
:1083FC0010331C9380239B021D9380239B041E939C
:10840C008023DB051F9312A800F0D2FA002818D1A4
:10841C0007230E93053B0F93002310931193022116
:10842C000EA800F081FD00280DD1094B019300230B
:10843C0002930B9301A800F057FE002805D121B040
:10844C0000BDFFF767FEFFF765FEFFF763FEC04652
:10845C000100200010B501F059FBFFF7A9FFFFF751
:10846C0087FDFFF737FEFFF757FEFFF77BFEFFF7A1
:10847C009FFEFFF7D1FEFFF71BFFFFF753FF06F040
:10848C00C7F8FEE710B5024806F0B4FFFEE7C04699
:10849C00840C010810B5024806F0ACFFFEE7C0469C
:1084AC00900C01087047704710B501F043FB10BDEC
:1084BC0010B5082001F004F910BD10B58020400162
:1084CC0001F0FEF810BD000010B5024801F00AFAE8
:1084DC0010BDC046B801002010B5024801F002FAE8
:1084EC0010BDC0461402002010B5024802F0F6FC84
:1084FC0010BDC046D402002000B583B0144B196CDB
:10850C00012211431964196C0A400092009ADA6B2B
:10851C00802149050A43DA63DB6B0B400193019B15
:10852C00052000220221404201F06CFA02200022B8
:10853C000221404201F066FA01F02AFB022001F010
:10854C001DFBC020C00001F02BFB03B000BDC046DA
:10855C000010024010B588B004001422002103A8BA
:10856C0006F0B4FE2268104B9A4201D008B010BD40
:10857C000E4BD96B802080050143D963DA6B024026
:10858C000192019A596B0122114359635B6B1A409A
:10859C000292029B202303931D3B0493A02003A96A
:1085AC00C00500F0C1FFE1E700740040001002407C
:1085BC0010B588B004001422002103A806F086FE32
:1085CC00294B22689A4201D008B010BD274B196C78
:1085DC0080204001014319641A6C02400192019AF7
:1085EC00596B0222114359635B6B13400293029B3C
:1085FC00382303930492069203A91D4800F094FFBC
:10860C001C481D4B03601023436000238360C36030
:10861C008022026143618361C361036201F0BCF893
:10862C0000281BD1134BA3659C621448144B0360A8
:10863C0011234360013B83600023C36080220261ED
:10864C0043618361C36180235B01036201F0A4F881
:10865C00002806D1094B63659C62B5E7FFF75AFD0C
:10866C00E0E7FFF757FDF5E700300140001002404E
:10867C0000040050B8010020080002401402002041
:10868C001C00024000B583B00368134A934205D026
:10869C008022D205934214D003B000BD0F4A116C56
:1086AC008020000101431164136C03400093009B74
:1086BC00002201210D2001F0A5F90D2001F0D2F9C5
:1086CC00EAE7064AD16B01231943D163D26B1340FD
:1086DC000193019BE0E7C046002C014000100240D2
:1086EC0082B00268074B9A4201D002B07047064A2A
:1086FC00D16B02231943D163D26B13400193019BBD
:10870C00F3E7C046000400400010024010B586B0EC
:10871C0004001422002101A806F0D8FD22680D4B9C
:10872C009A4201D006B010BD0B4A516B012319437C
:10873C005163526B1A400092009A402201923E3AC9
:10874C00029204920593A02001A9C00500F0ECFE52
:10875C00E8E7C046000400400010024010B588B0A5
:10876C0004001422002103A806F0B0FD2268124B6D
:10877C009A4201D008B010BD104B196C8020C0017A
:10878C00014319641A6C02400192019A596B01223F
:10879C00114359635B6B13400293029B80239B0034
:1087AC000393EF3BFF3B049305920792A02003A990
:1087BC00C00500F0B9FEDDE70038014000100240B2
:1087CC0010B5041E0ED00379002B07D002232371A1
:1087DC000023236101332371002010BD4371FFF787
:1087EC00B9FEF3E70120F8E730B54379012B2BD024
:1087FC00012343710222027105682A6810240C407F
:10880C00A34013432B60002910D1026811683E234A
:10881C000B40022B05D00123037100234371002070
:10882C0030BD536801210B435360F4E704682268A0
:10883C00F8239B031A4002238B409A42EBD16368C6
:10884C00022213436360E6E70220E9E710B582B029
:10885C000024019400680190002908D101998A181C
:10886C0008320192019A1360002002B010BD0199E8
:10887C008A1814320192F5E7F8B504000D001600C1
:10888C004379012B00D18DE0012343710133037136
:10889C000B68042B30D02B69012B00D175E02068BC
:1088AC00C36B10223240072191408B4319002B6877
:1088BC00AE683343EE68334393400B43C363206885
:1088CC0003688021C90191408B43036020680368D1
:1088DC00354991408B4319006B6893400B430360FF
:1088EC0020680368C02191408B43036001232371EE
:1088FC00002363710020F8BD002A0FD023685B6B46
:10890C00002B26DA01F022F90128F7D92369082275
:10891C0013432361032323710320ECE701F016F9C1
:10892C00070023685B6B1B040CD501F00FF9C01B0F
:10893C000128F6D9236908221343236103232371E9
:10894C000320D8E7012001F007F92368AA691A640B
:10895C0005E0012001F000F92368AA695A64206837
:10896C00826C10233340114999408A43E96999403C
:10897C000A4382642068C26CFF2199408A43296AA9
:10898C0099400B001343C36485E72068836B102266
:10899C0032401F2191408B4319006B6993400B436C
:1089AC0083637CE70220A6E7FE0F0000FF030000B4
:1089BC0070B582B0041E00D134E20368DB0739D5F0
:1089CC00C14A916838230B40D16803220A40102B0E
:1089DC0026D0082B26D063688022520293427FD087
:1089EC00A022D202934200D181E0B74B1A68B7495A
:1089FC000A401A601A68B6490A401A606368002B6C
:108A0C0000D180E001F0A2F80500AF4B1B689B037E
:108A1C0010D401F09BF8401B6428F6D9032002E225
:108A2C00032AD6D1A84B1B689B0303D56368002B84
:108A3C0000D1FAE123689B0731D5A34A936838210A
:108A4C000B40D16803220A40102B6AD0002B6BD14B
:108A5C009D4A1268520503D5E268002A00D1E6E16E
:108A6C00994842689B490A40616909020A4342607D
:108A7C00002B0DD1036898490B4021690B4303600F
:108A8C000368DB0A07221A40944BD340944A1360C4
:108A9C00944B186801F00EF8002800D0C9E1236847
:108AAC001B0700D481E0884B9A6838231340182B9D
:108ABC0073D0A369002B00D1B4E0834A136E01215B
:108ACC000B43136601F042F805007F4B1B6E9B07AE
:108ADC006BD401F03BF8401B0228F6D90320A2E12D
:108AEC00794A116880235B020B43136086E7764B4F
:108AFC0019688022D2020A431A6019688022520235
:108B0C000A431A607AE701F021F805006E4B1B68E6
:108B1C009B038FD501F01AF8401B6428F6D903206B
:108B2C0081E1022A92D193E7E368002B22D0664AB6
:108B3C00136869490B4021690B431360116880234A
:108B4C005B000B43136001F001F805005E4B1B68E2
:108B5C005B0506D400F0FAFF401B0228F6D903206F
:108B6C0061E159494B685B4A134062691202134335
:108B7C004B6094E7544A13685B490B40136000F058
:108B8C00E5FF0500504B1B685B0588D500F0DEFF48
:108B9C00401B0228F6D9032045E14B4B1B6E9B076B
:108BAC0003D5A369002B00D145E123685B0700D4F2
:108BBC00A2E0454B9A6838231340202B45D0424BFA
:108BCC00DB6BDB004AD4404AD16B8020400501436B
:108BDC00D163D36B03400193019B0125434B1B686D
:108BEC00DB053DD5A368012B4ED0052B52D0364B5F
:108BFC00DA6D01218A43DA65DA6D03318A43DA656D
:108C0C00A368002B50D000F0A1FF06002E4BDB6DAB
:108C1C009B076FD400F09AFF801B354B9842F5D917
:108C2C00032000E1284A136E01218B43136600F0E8
:108C3C008DFF0500244B1B6E9B07B6D500F086FFFD
:108C4C00401B0228F6D90320EDE01F4BDB6D9B0780
:108C5C0052D5A368002B4FD10120E4E00025BDE7DD
:108C6C00224A116880235B000B43136000F06EFFF7
:108C7C0006001E4B1B68DB05B4D400F067FF801B9D
:108C8C000228F6D90320CEE00F4AD36D01210B4305
:108C9C00D365B5E70C4BDA6D04210A43DA65DA6D5E
:108CAC0003390A43DA65ABE700F050FF0600064BC8
:108CBC00DB6D9B071ED500F049FF801B0C4B9842C7
:108CCC00F5D90320AFE0C04600100240FFFFFEFFC5
:108CDC00FFFFFBFFFF80FFFFFFC7FFFF0024F40037
:108CEC000800002004000020FFFEFFFF0070004081
:108CFC0088130000012D26D0E369002B00D19CE0E5
:108D0C00564A916838220A40102A63D0022B20D090
:108D1C00524B1A6852490A401A60DA6803218A4396
:108D2C00DA60DA684F490A40DA6000F00FFF04009D
:108D3C004A4B1B689B014BD500F008FF001B022817
:108D4C00F6D903206FE0454AD36B47490B40D363F8
:108D5C00D2E7424A136842490B40136000F0F6FE1A
:108D6C0005003E4B1B689B0106D500F0EFFE401B37
:108D7C000228F6D9032056E0384AD3683B491940FB
:108D8C00236A606A0343A06A00020343E06A034358
:108D9C00206B0343606B03430B43D3601168802348
:108DAC005B040B431360D16880235B050B43D360DA
:108DBC0000F0CCFE0400294B1B689B0106D400F08C
:108DCC00C5FE001B0228F6D903202CE000202AE067
:108DDC00002028E0012B32D0204BDA68032313400B
:108DEC00216A8B422DD170231340616A8B422AD1A8
:108DFC00FE21C9011140A36A1B02994225D1F82317
:108E0C009B031340E16A8B4221D1E0231B051340E5
:108E1C00216B8B421DD1520F5207636B9A421AD1B0
:108E2C00002000E0012002B070BD0120FBE7012012
:108E3C00F9E70120F7E70120F5E70020F3E701202F
:108E4C00F1E70120EFE70120EDE70120EBE701203E
:108E5C00E9E70120E7E70120E5E7C0460010024002
:108E6C00FFFFFFFEFFFFFEEEFFFFFFEF8C80C11147
:108E7C0010B52A4B9B6838221A4207D1274B1A6827
:108E8C00D20A072313402648D84010BD234B9A68BA
:108E9C0038231340082B3BD0204B9A6838231340BF
:108EAC00102B0DD01D4B9A6838231340202B31D03A
:108EBC001A4B9A6838231340182B26D00020E4E76D
:108ECC00164AD1680D3B0B40D2681209072111409C
:108EDC000131032B0FD01248FDF720F90F4BDA6844
:108EEC00120A7F23134058430C4BD968490F0131A8
:108EFC00FDF714F9C9E70B48FDF710F9074BDA68D1
:108F0C00120A7F2313405843EEE7FA20C001BCE756
:108F1C000448BAE780200002B7E7C04600100240C0
:108F2C000024F400001BB70070B504000D000028ED
:108F3C0000D1AAE0574B1A68072313408B4221D368
:108F4C0023689A070ED55B0705D5534A9168E02331
:108F5C00DB010B439360504A936850490B40A16866
:108F6C000B4393602368DB0754D56368012B20D037
:108F7C00022B3BD0002B3FD1474A126852051CD420
:108F8C0001206AE0434A136807218B432B4313608B
:108F9C0000F0DCFD06003F4B1A6807231340AB4280
:108FAC00CED000F0D3FD801B3D4A9042F3D9032074
:108FBC0053E0394A1268920369D537498A68072009
:108FCC00824313438B6000F0C1FD0600324B9B685B
:108FDC0038221A406368DB009A421BD000F0B6FDC1
:108FEC00801B2F4B9842F1D9032036E02A4A126895
:108FFC009201E2D4012030E0032B05D0264AD26D39
:10900C009207DAD4012028E0234A126E9207D4D4B6
:10901C00012022E01F4B1A6807231340AB421DD8D6
:10902C0023685B0706D51C4A93681E490B40E16810
:10903C000B439360FFF71CFF174B9A68120A0F2320
:10904C0013409B00184A9A581F231340D840174BC3
:10905C001860174B186800F02DFD70BD0D4A136891
:10906C0007218B432B43136000F070FD0600094B66
:10907C001A6807231340AB42D2D000F067FD801B67
:10908C00074B9842F3D90320E7E70120E5E70120DD
:10909C00E3E7C0460020024000100240FFF0FFFF53
:1090AC0088130000FF8FFFFF1C0D01080800002033
:1090BC0004000020014B18687047C04608000020CF
:1090CC0010B5FFF7F7FF064B9A68120B07231340F6
:1090DC009B00044A9A581F231340D84010BDC04629
:1090EC00001002405C0D0108F0B583B00400036869
:1090FC009B0362D5814BDB6BDB001ED47F4AD16BAB
:10910C00802040050143D163D36B03400193019B45
:10911C0001267B4A116880235B000B43136000F02F
:10912C0015FD0500764B1B68DB0508D400F00EFD21
:10913C00401B0228F6D9032502E00026E9E70025AA
:10914C00002D23D16D4BD96DC02292000B00134022
:10915C00114210D0226B9A420DD0684AD36D6949E6
:10916C000B40D06D802149020143D165D16D664819
:10917C000140D165D365DB0710D4002D06D15F4AC1
:10918C00D36D60490B40216B0B43D365012E15D178
:10919C005A4AD36B5D490B40D3630FE000F0D6FC09
:1091AC000700564BDB6D9B07E7D400F0CFFCC01BD0
:1091BC00574B9842F5D90325DFE700252368DB07D9
:1091CC0006D54E4A536D03218B4361680B4353659F
:1091DC0023689B0706D5494A536D0C218B43A16824
:1091EC000B4353652368DB0606D5444A536D494946
:1091FC000B40E1680B43536523689B0506D53F4A3A
:10920C00536D45490B40A1690B43536523685B05BE
:10921C0006D53A4A536D41490B40E1690B435365FE
:10922C0023689B0606D5354A536D3D490B40216991
:10923C000B43536523685B040BD5304A536D9B007D
:10924C009B08216A0B4353658023DB05226A9A42F3
:10925C0039D023681B0306D5284A536D40218B4314
:10926C00616A0B43536523689B020BD5234A536DEC
:10927C002C490B40A16A0B4353658023DB03A26A84
:10928C009A4227D023685B020BD51C4A536D2649A2
:10929C000B40E16A0B43536580235B04E26A9A42FC
:1092AC001FD023681B050BD5144A536D1F490B4067
:1092BC0061690B43536562698023DB019A4215D0C7
:1092CC00280003B0F0BD0D4AD16880235B020B432C
:1092DC00D360BEE7094AD16880235B040B43D3609B
:1092EC00D0E7064AD1680B43D360DAE7034AD1686A
:1092FC0080235B020B43D360E2E7C04600100240C0
:10930C0000700040FFFCFFFFFFFFFEFFFFFFFFEFC1
:10931C0088130000FFF3FFFFFFFFF3FFFFFFCFFFFA
:10932C00FFCFFFFFFFFFBFFFFFFFFFFEFF3FFFFF72
:10933C0030B5054C61690125294361610260BFF3B9
:10934C006F8F436030BDC04600200240084B5B6904
:10935C00002B01DB00207047054B064A9A60064A39
:10936C009A605B69002B01DB0020F4E70120F2E737
:10937C000020024023016745AB89EFCD064B5969AC
:10938C00802212060A435A615B69002B01DB012023
:10939C0070470020FCE7C0460020024070B5050075
:1093AC0000F0D4FB4419134B1B69DB0305D500F00B
:1093BC00CDFBA042F7D3032070BD0E490A690E4BBA
:1093CC0014001C400D4808611A4203D00C4B5C6021
:1093DC000120F1E700F0BAFB4519064B1B695B0352
:1093EC0005D500F0B3FBA842F7D30320E4E7002037
:1093FC00E2E7C04600200240FAC30000FBC30000B5
:10940C0048040020F8B507000C0015001E00144B92
:10941C001B78012B22D0124B01221A7000225A60A9
:10942C00FA208000FFF7BAFF00280DD1012F0FD0D2
:10943C002900200007F098FBFA208000FFF7AEFF10
:10944C00084A5369BB435361054B00221A70F8BD9F
:10945C002A0033002000FFF76BFFEDE70220F6E750
:10946C004804002000200240034A53690343802033
:10947C00400218435061704700200240044A53696F
:10948C0004480340C9001943034B19435161704709
:10949C000020024007FEFFFF0200010070B504002F
:1094AC000E001F4B1B78012B37D01D4B01221A705D
:1094BC0000225A60FA208000FFF770FF002828D1A4
:1094CC00042363602368042B15D001235B423360B3
:1094DC00A568A368E26894466344AB4214D929009A
:1094EC006068FFF7CBFFFA208000FFF757FF0028DA
:1094FC0009D10135EDE70430FFF7B6FFFA20800003
:10950C00FFF74CFF05E03560064A536902218B4397
:10951C005361034B00221A7070BD0220FCE7C04659
:10952C004804002000200240F0B5CE46474680B5E6
:10953C00002336E0032600E00026A64034003C431E
:10954C00544E1832920094518022B458EA432600AB
:10955C00AE434F68FF0301D52C4326004D4C8027AA
:10956C00E6518426A459260016404F68BF0301D546
:10957C002C432600474C8427E651246826001640CD
:10958C004F68FF0201D52C432600424C26606468CC
:10959C0022404E68B60201D52A0022433D4C62603F
:1095AC0001330C682200DA406FD001229A4025006A
:1095BC0015401442F4D04C68661E012E03D9112CB0
:1095CC0001D0122C12D184685F000326BE40B44334
:1095DC002600CC68BC4034438460446894434A6899
:1095EC001609012232409A4022434260C4685F004F
:1095FC000326BE40F2439446B44326008C68BC401C
:10960C003443C4604A68022A01D0122A10D1DE0801
:10961C000836B2009146145807221A4092000F26C1
:10962C009640B4430E699640320022434C46225079
:10963C0004686246144003224E683240BA4022430A
:10964C0002604A68D200ABD59A0814001834A40002
:10965C00104EA75903241C40E4000F26A640B74324
:10966C00A026F605B04200D166E70B4EB04208D0FA
:10967C000A4EB04207D00A4EB04200D15AE7052636
:10968C005BE7012659E7022657E7C0BCB946B0464E
:10969C00F0BDC04600180240000400500008005005
:1096AC00000C005003690B4201D0012070470020D0
:1096BC00FCE7002A01D0816170478162FCE77047AA
:1096CC0010B50400094BDB68184204D1074B1B6929
:1096DC00234205D110BD054BD860FFF7F0FFF5E72D
:1096EC00024B1C61200004F0EBFFF3E70018024072
:1096FC00F0B5846CC56C6560046D002C02D0446DB3
:10970C00856D65600B4F7C681C26056C2E40012511
:10971C00B5402C437C60046863608368102B04D0D4
:10972C00036899600368DA60F0BD03689A600368A7
:10973C00D960F9E70000024010B50400036C9B08E7
:10974C00094A944663449B004364FF2023681840F5
:10975C0008381421FCF7E2FC044BA3641F231840C7
:10976C001E3B8340E36410BD008200108008024061
:10977C003F2342681340064A9A1892000265054A34
:10978C004265013B03221A400123934083657047D5
:10979C003F8200104009024070B5041E4DD0056890
:1097AC00274BE8181421FCF7B9FC80002064252312
:1097BC000222E2542B68234A13402B6021680A686A
:1097CC00A368E06803432069034360690343A0690D
:1097DC000343E0690343206A034313430B602000F7
:1097EC00FFF7AAFF8023DB01A2689A4218D0626CB3
:1097FC003F2361680B401360A36CE26C5A60636892
:10980C00013B032B0FD9002323656365A36500235C
:10981C00E36325220121A154013AA354002070BD19
:10982C0000236360E3E72000FFF7A2FF236D002213
:10983C001A60636DA26D5A60E9E70120EFE7C0463C
:10984C00F8FFFDBF0F80FFFF70B504002420205CE3
:10985C00012845D02420012525540130205C012805
:10986C0006D08023E3635C3B0022E254012070BDF0
:10987C002430013525540020E06325682868012632
:10988C00B04328602000FFF733FF236B002B1CD064
:10989C00226813680E210B431360636C1A68D203A1
:1098AC0004D51968802252000A431A60236D002BDC
:1098BC0004D01968802252000A431A602268136887
:1098CC0001210B4313600020D1E7226813680421A7
:1098DC008B4313602268136806310B431360DCE77B
:1098EC000220C4E770B5314B1968046825681C2345
:1098FC00026C134004229A40114216D06A0714D508
:10990C0023689B0603D42368042293432360274CCB
:10991C0063681C21026C114004228A40134363606B
:10992C00036B002B00D0984770BD02229A40114265
:10993C001CD0AA071AD523689B0606D423680A22D2
:10994C00934323602523093AC254184C63681C21A5
:10995C00026C114002228A401343636024230022CC
:10996C00C254C36A002BDFD09847DDE708229A4027
:10997C001142D9D02B07D7D523680E2293432360ED
:10998C000A4C62681C21036C194001231D008D4098
:10999C002A436260C3632522835423330022C254BA
:1099AC00436B002BC0D09847BEE7C0460000024076
:1099BC0010B5104A136810490B4003431360802301
:1099CC009B00984201D0002010BD0C4B1B68580026
:1099DC00C01840000A49FCF7A1FB0130054B5B693C
:1099EC005B0503D5002803D00138F7E70020EBE72F
:1099FC000320E9E700700040FFF9FFFF080000209A
:109A0C0040420F0070B5002811DB8308134EC033A1
:109A1C009B009D5903242040C000FF221400844069
:109A2C00A54389010A4082402A439A5170BD0F23F5
:109A3C000340083B9B0806339B00094A9446634449
:109A4C005C6803221040C000FC3215008540AC431A
:109A5C0089010A40824022435A60E7E700E100E0B6
:109A6C0000ED00E0002805DB1F2318401E3B83405F
:109A7C00014A13607047C04600E100E001388023C2
:109A8C005B0498420FD2094A50600948036A1B02D2
:109A9C001B0AC02109060B430362002393600733A2
:109AAC001360002070470120FCE7C04610E000E086
:109ABC0000ED00E010B50400114B1978002901D11C
:109ACC00012010BDFA208000FCF728FB01000D4B93
:109ADC001868FCF723FBFFF7D1FF00280DD1032CEE
:109AEC0001D90120EDE70130002221004042FFF7AF
:109AFC0089FF054B1C600020E3E70120E1E7C0462D
:109B0C0000000020080000200400002010B5084AC6
:109B1C00116880235B000B4313600220FFF7CAFF20
:109B2C00041E02D00124200010BDFEF7E5FCFAE76C
:109B3C0000200240034B1B78034A11685B1813602A
:109B4C007047C0460000002064040020014B1868D8
:109B5C007047C0466404002070B50400FFF7F6FFA0
:109B6C000500631C02D0044B1B78E418FFF7EEFFD2
:109B7C00401BA042FAD370BD00000020034A1368BA
:109B8C0002218B43034313607047C04630000140F1
:109B9C00024A136801218B43136070473000014067
:109BAC00034A136803490B40034313607047C046D4
:109BBC0000000140FFF9FFFFF0B5D6464F46464680
:109BCC00C0B582B006000D0090461F00FFF7BEFF27
:109BDC000A9B181A8146B944FFF7B8FF82462E4BF0
:109BEC001B685B011B0D4A465343019333689C6809
:109BFC002C40641B63425C41444545D07B1CF5D032
:109C0C00FFF7A4FF5346C01A48450BD24B46002B16
:109C1C0008D0019A002A00D04A46019B013B0193CF
:109C2C009146E3E732685368E0218B43536082230B
:109C3C005B0072689A420CD080239B01B26A9A42F4
:109C4C0016D05D230122F254013B0022F254032072
:109C5C001BE0B36880221202934203D08022D20010
:109C6C009342E9D13268136840218B431360E3E7D8
:109C7C003268136809490B401360326811688023FD
:109C8C009B010B431360DCE7002002B0E0BCBA463A
:109C9C00B146A846F0BDC04608000020FFDFFFFF1C
:109CAC00F0B5D6464F464646C0B582B007000D000B
:109CBC0016009846FFF74AFF0A9B181A4044814643
:109CCC00FFF744FF8246334B1A6893009A18D3006F
:109CDC009B1A1B0D4A465343019302E04346013342
:109CEC000CD13B689C682C40B4424BD0C022D200B3
:109CFC009542F3D1002EF1D11B7BEFE7FFF726FF46
:109D0C005346C01A48450BD24B46002B08D0019A3B
:109D1C00002A00D04A46019B013B01939146E0E7A3
:109D2C003A685368E0218B43536082235B007A6866
:109D3C009A420CD080239B01BA6A9A4216D05D23BA
:109D4C000122FA54013B0022FA5403201BE0BB68A9
:109D5C0080221202934203D08022D2009342E9D196
:109D6C003A68136840218B431360E3E73A68136841
:109D7C0009490B4013603A68116880239B010B431F
:109D8C001360DCE7002002B0E0BCBA46B146A8463E
:109D9C00F0BDC04608000020FFDFFFFF70B582B0A9
:109DAC0004000D001600C02100922B000022490176
:109DBC00FFF776FF002818D100962B000022802197
:109DCC002000FFF7F9FE002816D1C02100962B00C9
:109DDC000022C9002000FFF763FF00280AD0236E81
:109DEC00202213432366032004E0236E2022134316
:109DFC002366032002B070BD236E2022134323661A
:109E0C000320F7E770B582B004000D001600822322
:109E1C005B0042689A420FD000962B0000228021F2
:109E2C002000FFF7C9FE002815D182235B00626871
:109E3C009A4216D002B070BD8368802212029342FF
:109E4C0003D08022D2009342E6D1226813684021CD
:109E5C008B431360E0E7236E202213432366032019
:109E6C00E8E7A36880221202934203D08022D2003A
:109E7C009342DFD1C02100962B000022C9002000A4
:109E8C00FFF70EFF0028D5D0236E20221343236644
:109E9C000320CFE770B5041E00D178E0436A002B95
:109EAC0007D10533FF3342689A4205D00023C361C2
:109EBC0002E00023036143610023A3625D33E35C92
:109ECC00002B5AD05D230222E254226813684021F1
:109EDC008B431360E368E022D200934254D90022F2
:109EEC00F02109018B4205D0E021C9008B4201D041
:109EFC000023A36282235B0061680B40842109026A
:109F0C00A06801400B430221206901400B43012151
:109F1C0060690840034380208000A5692840034302
:109F2C003820E569284003438020256A28400343F4
:109F3C0080208001A56A2840034320680360608B61
:109F4C00042303401020656A284003430820656BF6
:109F5C0028400343F0200001E568284003432068B3
:109F6C00134343602268D3690A480340D36100233A
:109F7C0023665D33E154002070BD5C330022E25453
:109F8C002000FEF715FB9DE780225201A8E7012077
:109F9C00F2E7C046FFF7FFFFF0B5CE4600B584B040
:109FAC000400019191461D005C23C35C012B00D180
:109FBC00C9E05C230122C254FFF7C8FD06005D23F3
:109FCC00E35CDFB2012B00D0A9E00199002900D19C
:109FDC00A6E04B46002B00D1A2E05D230322E25405
:109FEC0000232366A1634A46A287E28723644422A6
:109FFC00A3520232A3522365E36480231B02A2689E
:10A00C009A421ED023681A68520603D41A6840215B
:10A01C000A431A60E023DB00E2689A4239D963688C
:10A02C00002B02D04B46012B20D12368A26B128847
:10A03C00DA60A36B0233A363E38F013B9BB2E3872C
:10A04C0014E02268136840218B4313602268116866
:10A05C008023DB010B431360D4E7FFF777FD801BF4
:10A06C00A84201D36B1C66D1002D66D0E18F89B25A
:10A07C0000293CD023689A689207EED5A26B12880F
:10A08C00DA60A36B0233A363E38F013B9BB2E387DC
:10A09C00ECE76368002B02D04B46012B14D1A36B69
:10A0AC001B7822681373A36B0133A363E38F013B0B
:10A0BC009BB2E38708E0FFF749FD801BA84201D360
:10A0CC006B1C3CD1002D3CD0E18F89B200290ED005
:10A0DC0023689A689207EED5A26B12781A73A36B59
:10A0EC000133A363E38F013B9BB2E387ECE73200C0
:10A0FC0029002000FFF752FE002801D02023236600
:10A10C00A368002B06D103932368DA6803929B683B
:10A11C000393039B236E002B02D1002700E0022740
:10A12C005D230122E254013B0022E254380004B0CA
:10A13C0080BCB946F0BD0327F2E70327F0E70327FD
:10A14C00EEE70327ECE70227F0E70000F0B583B059
:10A15C000400009101921E00089D5C23C35C012B3E
:10A16C0000D116E15C230122C254FFF7EFFC07007B
:10A17C005D23E35CD9B26268012B0BD082235B00B8
:10A18C009A4200D0ECE0A368002B00D0F1E0042947
:10A19C0000D0F0E0009B002B00D1EEE0019B002BE7
:10A1AC0000D1ECE0002E00D1EBE05D23E35C042B4E
:10A1BC0002D05D230522E25400232366019A226417
:10A1CC004622A652023AA652009AA263E687A687B6
:10A1DC00E3642365E023DB00E2689A4223D922681A
:10A1EC0053686D490B40536023681A68520603D4B8
:10A1FC001A6840210A431A60E023DB00E2689A42A5
:10A20C0054D96368002B01D0012E0AD12368A26BAC
:10A21C001288DA60A36B0233A363E38F013B9BB21A
:10A22C00E38701262EE02268516880235B010B43F3
:10A23C005360D9E7A26B1288DA60A36B0233A36375
:10A24C00E38F013B9BB2E387002623689A68D20711
:10A25C0010D54622A25A92B2002A0BD0DB68226C8F
:10A26C001380236C023323644622A35A013B9BB216
:10A27C00A3520126FFF76AFCC01BA84202D36B1C39
:10A28C0000D080E0E38F9BB2002B04D14633E35A1D
:10A29C009BB2002B59D023689A689207D5D5E28FD0
:10A2AC0092B2002AD1D0012ECFD1C3E76368002B24
:10A2BC0001D0012E0AD1A36B1B7822681373A36BF8
:10A2CC000133A363E38F013B9BB2E38701261DE0BF
:10A2DC0023689A68D20710D54622A25A92B2002A55
:10A2EC000BD01B7B226C1370236C0133236446222E
:10A2FC00A35A013B9BB2A3520126FFF727FCC01BBC
:10A30C00A84201D36B1C40D1002D40D0E38F9BB2EF
:10A31C00002B04D14633E35A9BB2002B15D0236893
:10A32C009A689207D4D5E28F92B2002AD0D0012E2F
:10A33C00CED1A26B12781A73A36B0133A363E38F94
:10A34C00013B9BB2E3870026C2E73A0029002000BC
:10A35C00FFF724FD002804D020232366012000E011
:10A36C0002205D230122E254013B0022E25403B09F
:10A37C00F0BD0220F5E70220F3E70120F1E7012010
:10A38C00EFE70120EDE70320EBE70320E9E70320EB
:10A39C00E7E70220EBE7C046FFEFFFFFF0B5C6464C
:10A3AC0000B584B00400039190461D0082235B002D
:10A3BC0042689A4245D05C23E35C012B00D1BDE09E
:10A3CC005C230122E254FFF7C1FB07005D23E35C31
:10A3DC00DEB2012B00D09DE00399002900D19AE058
:10A3EC004346002B00D196E05D230422E254002367
:10A3FC002366216440324146A1520232A152A3632A
:10A40C00A387E387E3642365E023DB00E2689A42D9
:10A41C0024D9226853684A490B40536080231B029D
:10A42C00A2689A4221D023681A68520603D41A688B
:10A43C0040210A431A60E023DB00E2689A4228D9E3
:10A44C0045E08368002BB6D15D330422C2540095DD
:10A45C0043460A00FFF77AFE060062E02268516864
:10A46C0080235B010B435360D8E7226813684021BB
:10A47C008B4313602268136832490B401360D2E798
:10A48C00FFF764FBC01BA84201D36B1C4ED1002DFF
:10A49C004ED04623E15A89B200292DD023689A6800
:10A4AC00D207EDD51B7B226C1370236C0133236414
:10A4BC004622A35A013B9BB2A352EAE7FFF746FBA5
:10A4CC00C01BA84201D36B1C34D1002D34D04623C1
:10A4DC00E15A89B200290FD023689A68D207EDD5CA
:10A4EC00DB68226C1380236C023323644622A35A4C
:10A4FC00013B9BB2A352EAE73A0029002000FFF788
:10A50C0081FC002801D020232366236E002B02D16E
:10A51C00002600E002265D230122E254013B0022CA
:10A52C00E254300004B080BCB846F0BD0326F2E71C
:10A53C000326F0E70326EEE70326ECE70226F0E716
:10A54C00FFEFFFFFFFBFFFFF70B504005C23C35C90
:10A55C00012B00D189E05C230120E0540133E35C42
:10A56C00DDB2012B7BD100297AD0002A78D05C3364
:10A57C000230E05400232366A163A287E2872364A0
:10A58C002365E3644422A3520232A35280231B02AC
:10A59C00A2689A4239D0636D354A1A63636D354AA5
:10A5AC00DA62636D344A5A63636D00229A632268DF
:10A5BC00536832490B405360E023DB00E2689A4257
:10A5CC0005D8636D9A698023DB009A4229D02268F2
:10A5DC000C32E38F9BB2A16B606DFFF735F900284D
:10A5EC0035D123681A68520603D41A6840210A43ED
:10A5FC001A602268536820210B4353602268536809
:10A60C001E390B43536005002AE022681368402171
:10A61C008B431360226811688023DB010B431360AA
:10A62C00B9E7E38FDB0707D4226853680B4053600C
:10A63C00E38F5B08E387CAE7226851688023DB015C
:10A64C000B435360E38F5B080133E387BFE7236E53
:10A65C001022134323665D230F3AE25400E00225D7
:10A66C005C230022E254280070BD0225FBE7C046A3
:10A67C0057AA00089BAA000879AA0008FFBFFFFF91
:10A68C0070B504005C20205C012800D102E15C2044
:10A69C00012525540130205CC6B2656801280BD019
:10A6AC0082204000854200D0E5E0A068002800D060
:10A6BC00E6E0042E00D0E5E0002900D1E4E0002A19
:10A6CC0000D1E3E0002B00D1E2E05D20205C042807
:10A6DC0002D05D200525255400202066A163A387A8
:10A6EC00E38722644422A3520232A352E064206521
:10A6FC002268536868490B405360E023DB00E26832
:10A70C009A4253D92268536864490B4053605D23C5
:10A71C00E35C042B00D191E0A36D614A1A63A36D35
:10A72C00604ADA62A36D604A5A63A36D00229A6391
:10A73C0021680C314623E35A9BB2226CA06DFFF7C3
:10A74C0083F8002800D080E02268536801210B4375
:10A75C005360626D00231363626DD362626D536349
:10A76C00626D93635D33E35C042B77D0636D4D4A6C
:10A77C00DA6222680C32E38F9BB2A16B606DFFF73B
:10A78C0063F800286ED123681A68520603D41A683D
:10A79C0040210A431A602268536820210B435360FE
:10A7AC00226853681E390B43536065E02268516878
:10A7BC0080235B010B435360636D9A698023DB003C
:10A7CC009A4218D0A36D9A698023DB009A429ED1DD
:10A7DC002268536831490B4053604623E35ADB0728
:10A7EC0020D42268536831490B4053604622A35A47
:10A7FC005B08A3528BE7A38FDB0708D4226853684E
:10A80C002B490B405360E38F5B08E387DAE7226840
:10A81C0051688023DB010B435360E38F5B080133EA
:10A82C00E387CFE72268516880239B010B43536079
:10A83C004622A35A5B080133A35268E7A36D1D4A55
:10A84C001A63A36D1C4ADA626CE7236E1022134361
:10A85C0023665D230F3AE25401200DE0636D164A26
:10A86C00DA6286E7236E1022134323665D230F3AC8
:10A87C00E254012000E002205C230022E25470BD6F
:10A88C000220F9E70220F7E70120F5E70120F3E7C2
:10A89C000120F1E70220F2E7FF9FFFFFFFEFFFFF30
:10A8AC006FAA000899AB000879AA0008FFDFFFFF28
:10A8BC00FFBFFFFF63AA00080FAB000870B50400D0
:10A8CC008368002B04D182204000656885425ED0ED
:10A8DC005C20205C012800D1A8E05C2001252554D7
:10A8EC000130255CEEB2012D00D099E0002900D199
:10A8FC0097E0002A00D194E003352554002020660F
:10A90C0021644421625202316252E0642065A087C6
:10A91C00E08780221202934244D022685368444953
:10A92C000B405360E023DB00E2689A4245D9226871
:10A93C00536840490B405360A36D3F4A1A63A36DA3
:10A94C003E4ADA62A36D3E4A5A63A36D00229A63B3
:10A95C0021680C314623E35A9BB2226CA06DFEF7A2
:10A96C0073FF002854D123681A68520603D41A685E
:10A97C0040210A431A602268536820210B4353601C
:10A98C00226853681F390B435360060049E05D335E
:10A99C000138FF38E05413000A002000FFF770FE66
:10A9AC00060041E02268136806398B431360226865
:10A9BC00136824490B401360AFE722685168802369
:10A9CC005B010B435360A36D9A698023DB009A42B1
:10A9DC00B2D12268536817490B4053604623E35A9F
:10A9EC00DB0709D42268536811490B405360462297
:10A9FC00A35A5B08A3529FE72268516880239B01EE
:10AA0C000B4353604622A35A5B080133A35293E7CE
:10AA1C00236E1022134323665D230F3AE25400E0A9
:10AA2C0002265C230022E254300070BD0226FBE7B4
:10AA3C00FFDFFFFFFFEFFFFF63AA00080FAB00086B
:10AA4C0079AA0008FFBFFFFF704710B5806AFFF7B7
:10AA5C00FBFF10BD704710B5806AFFF7FBFF10BD00
:10AA6C00704710B5806AFFF7FBFF10BD10B5806A08
:10AA7C000268536803218B435360036E1022134307
:10AA8C0003665D230F3AC25403F048FE10BD30B587
:10AA9C0083B00500846AFFF759F802002B681B6825
:10AAAC009B0625D421684B68202083434B6021688A
:10AABC004B681E3883434B6064212000FFF76EF90E
:10AACC00002803D0236E202213432366A368002B97
:10AADC0006D101932368DA6801929B680193019B6C
:10AAEC000023E3875D330122E254236E002B04D153
:10AAFC00200003F00BFE03B030BD200003F00EFE6F
:10AB0C00F9E770B50500846AFFF720F802002B689E
:10AB1C001B689B0622D421684B68202083434B6022
:10AB2C00A368002B04D10533FF336168994223D00D
:10AB3C0021684B68012083434B6064212000FFF7A0
:10AB4C0061F9002801D02023236646230022E2521B
:10AB5C0017330132E254236E002B13D12523626D7F
:10AB6C00D35C022B07D02523A26DD35C022B02D021
:10AB7C00200003F0C3FD70BD21684B681D38834372
:10AB8C004B60DAE7200003F0C9FDF4E770B505006F
:10AB9C00846AFEF7DBFF2B681B689B060DD525230B
:10ABAC00626DD35C022B07D02523A26DD35C022BE4
:10ABBC0002D0200003F09AFD70BD2268536820215A
:10ABCC008B435360020044312000FFF7E7F8002864
:10ABDC0003D0236E2022134323662268536803217B
:10ABEC008B4353600023E3874622A3525D33453ADF
:10ABFC00E254236E002BD2D0200003F08FFDDBE754
:10AC0C0030B5036A012293430362036A4268846984
:10AC1C00184D2C400D682C430225AB438D682B43FB
:10AC2C00154DA84208D0154DA84205D0144DA84288
:10AC3C0002D0144DA84205D10825AB43CD682B4357
:10AC4C000425AB430C4DA84208D00C4DA84205D0AE
:10AC5C000B4DA84202D00B4DA84205D10A4D2A40FB
:10AC6C004D692A438D692A43426084614A68426374
:10AC7C00036230BD8CFFFEFF002C01400040014000
:10AC8C000044014000480140FFFCFFFF70B5036A1F
:10AC9C00194A13400362036A4268C469174D2C4079
:10ACAC000E682643164C23408C6824022343154C13
:10ACBC00A04219D0134CA04208D0134CA04205D08E
:10ACCC00124CA04202D0124CA04207D1114C14409D
:10ACDC004A69120122438C6925012A434260C661EC
:10ACEC004A68C263036270BD0B4C1C40CB681B02EC
:10ACFC0023430A4C2340DDE7FFFEFFFF8CFFFEFFE2
:10AD0C00FFFDFFFF002C01400040014000440140CA
:10AD1C0000480140FFCFFFFFFFF7FFFFFFFBFFFFE6
:10AD2C0030B5036A134A13400362026A4368C4696C
:10AD3C00114D2C400D682D022C43104D15408A6886
:10AD4C0012032A430E4DA84208D00E4DA84205D03E
:10AD5C000D4DA84202D00D4DA84204D10C4D2B40F4
:10AD6C004D69AD012B434360C4614B6803640262BF
:10AD7C0030BDC046FFEFFFFFFF8CFFFEFFDFFFFF84
:10AD8C00002C0140004001400044014000480140BB
:10AD9C00FFBFFFFF30B5036A124A13400362026A19
:10ADAC004368446D104D2C400D682C430F4D1540DD
:10ADBC008A6812042A430E4DA84208D00D4DA842B1
:10ADCC0005D00D4DA84202D00C4DA84204D1054D22
:10ADDC002B404D692D022B43436044654B688365C2
:10ADEC00026230BDFFFFFEFF8FFFFEFFFFFFFDFF86
:10ADFC00002C01400040014000440140004801404B
:10AE0C0030B5036A134A13400362026A4368446D07
:10AE1C00114D2C400D682D022C43104D15408A68A5
:10AE2C0012052A430E4DA84208D00E4DA84205D05B
:10AE3C000D4DA84202D00D4DA84204D10C4D2B4013
:10AE4C004D69AD022B43436044654B68C365026298
:10AE5C0030BDC046FFFFEFFFFF8FFFFEFFFFDFFFA0
:10AE6C00002C0140004001400044014000480140DA
:10AE7C00FFFFFBFF30B5036A046A0125AC43046293
:10AE8C008469EF35AC43120122430A24A3430B43DC
:10AE9C008261036230BD000030B5036A1024A34305
:10AEAC0003628469036A054D2C4012032243A024DB
:10AEBC00A343090119438261016230BDFF0FFFFFFB
:10AECC008368034A13400B4307210B43836070478D
:10AEDC008FFFCFFF704770477047704710B5040065
:10AEEC0003681A6992070FD5DA6892070CD503220A
:10AEFC0052421A610123037703689B699B076AD04E
:10AF0C00FFF7E9FF0023237723681A69520712D54C
:10AF1C00DA6852070FD5052252421A6102232377B1
:10AF2C0023689A69C0239B001A425AD02000FFF76D
:10AF3C00D2FF0023237723681A69120710D5DA6829
:10AF4C0012070DD5092252421A6104232377236874
:10AF5C00DB699B074CD02000FFF7BDFF0023237754
:10AF6C0023681A69D20612D5DA68D2060FD51122D7
:10AF7C0052421A61082323772368DA69C0239B00A5
:10AF8C001A423CD02000FFF7A6FF0023237723684A
:10AF9C001A69D20702D5DA68D20737D423681A693E
:10AFAC00120602D5DA68120637D423681A69D2055C
:10AFBC0002D5DA68120637D423681A69520602D50C
:10AFCC00DA68520636D423681A69920602D5DA6812
:10AFDC00920636D410BDFFF77DFF2000FFF77CFFF3
:10AFEC0090E72000FFF776FF2000FFF775FFA0E742
:10AFFC002000FFF76FFF2000FFF76EFFAEE7200089
:10B00C00FFF768FF2000FFF767FFBEE702225242FE
:10B01C001A61200003F0D2FEC0E7812252421A616D
:10B02C00200000F0F8FBC0E7094A1A61200000F08C
:10B03C00F3FBC1E7412252421A612000FFF74DFF9A
:10B04C00C1E7212252421A61200000F0E3FBC1E764
:10B05C00FFFEFFFF0368214A904206D08022D205F2
:10B06C00904202D01E4A904203D1702293434A6808
:10B07C0013431A4A904212D08022D20590420ED02D
:10B08C00174A90420BD0174A904208D0164A904269
:10B09C0005D0164A904202D0154A904203D1154A67
:10B0AC001340CA681343802293434A6913430360D5
:10B0BC008B68C3620B688362084B984208D00A4BBA
:10B0CC00984205D0094B984202D0094B984201D1C5
:10B0DC000B690363012343617047C046002C014098
:10B0EC0000040040002000400040014000440140AA
:10B0FC0000480140FFFCFFFF70B5041E2AD03D2321
:10B10C00C35C002B20D03D2502236355210001C9CF
:10B11C00FFF7A0FF01234822A3540A3AA35401329B
:10B12C00A3540132A3540132A3540132A35401326B
:10B13C00A3540132A3540132A3540132A35401325B
:10B14C00A3546355002070BD3C330022C254FDF75C
:10B15C0099FAD8E70120F6E770B5041E2AD03D23F2
:10B16C00C35C002B20D03D2502236355210001C96F
:10B17C00FFF770FF01234822A3540A3AA35401326B
:10B18C00A3540132A3540132A3540132A35401320B
:10B19C00A3540132A3540132A3540132A3540132FB
:10B1AC00A3546355002070BD3C330022C254FDF7FC
:10B1BC0097FAD8E70120F6E770B5036A102293439B
:10B1CC000362036A42688469174D2C400D682D0296
:10B1DC0025432024A3438C6824012343134CA04211
:10B1EC0019D0124CA04208D0114CA04205D0114CE1
:10B1FC00A04202D0104CA04207D1104C14404A6916
:10B20C00920022438C69A6003243426085614A68F1
:10B21C008263036270BD8024A3431C00CB681B01B6
:10B22C0023434024A343DCE7FF8CFFFE002C0140AA
:10B23C00004001400044014000480140FFF3FFFF83
:10B24C0070B504000D003C23C35C012B00D18AE0D7
:10B25C003C230121C154142A16D89200434B9B580D
:10B26C009F4629000068FFF7CBFC226893690821F0
:10B27C000B4393612268936904398B439361226871
:10B28C00936929690B4393613C230022E25400200B
:10B29C0070BD29000068FFF78FFF22689169802339
:10B2AC001B010B4393612268936931490B409361F5
:10B2BC0021688B692A69120213438B61E4E7290028
:10B2CC000068FFF7E3FC2268D36908210B43D361C4
:10B2DC002268D36904398B43D3612268D369296905
:10B2EC000B43D361D0E729000068FFF719FD2268F2
:10B2FC00D16980231B010B43D3612268D3691C499C
:10B30C000B40D3612168CB692A6912021343CB61CC
:10B31C00BAE729000068FFF73DFD2268536D08214C
:10B32C000B4353652268536D04398B435365226874
:10B33C00536D29690B435365A6E729000068FFF795
:10B34C005FFD2268516D80231B010B4353652268FE
:10B35C00536D07490B40536521684B6D2A691202E6
:10B36C0013434B6590E7022092E7C046A40C0108FA
:10B37C00FFFBFFFF30B58468034D2C401B021343C9
:10B38C000B432343836030BDFF00FFFF10B5040067
:10B39C003C23C35C012B66D03C230122C2540133F5
:10B3AC000132C254026893683048034093600B68C2
:10B3BC00602B44D024D8402B4BD00BD9502B0ED122
:10B3CC00CA6849682068FFF755FD50212068FFF7CF
:10B3DC0077FD04E0202B0ED009D9302B0BD03D2368
:10B3EC000122E254013B0022E254002010BD002B4C
:10B3FC0001D0102BF3D119002068FFF761FDEEE7A7
:10B40C00702B10D0802292019342E8D1CB684A680D
:10B41C0089682068FFF7AEFF226891688023DB0102
:10B42C000B439360DBE7CB684A6889682068FFF7B9
:10B43C00A1FF2268936877210B439360CFE7CA681A
:10B44C0049682068FFF728FD60212068FFF738FD68
:10B45C00C5E7CA6849682068FFF70CFD40212068E1
:10B46C00FFF72EFDBBE70220C0E7C0468800CEFFE9
:10B47C0070B502689368224C23404C682343214CDE
:10B48C0023400C68234393604B68602B2CD00CD862
:10B49C00402B14D0502B06D10A6989680068FFF73D
:10B4AC00E9FC002028E0002026E0702B23D10B695A
:10B4BC008A68C9680068FFF75DFF00201CE00B6814
:10B4CC00052B1AD003681E6A1A6A0124A2431A6259
:10B4DC000568AC69F02294430B691B012343AB61F3
:10B4EC0003681E62002007E00A6989680068FFF79C
:10B4FC00D3FC002000E0002070BD0120FCE7C0461A
:10B50C008FFFCFFFF8FFFEFF10B504003C23C35C98
:10B51C00012B22D03C230122C25401330132C254EC
:10B52C00FFF7A6FF002810D12268D36840218B4377
:10B53C00D3602268D3680A490B40D3603D230122B3
:10B54C00E254013B0022E25410BD3D230122E2549F
:10B55C00013B0022E2540120F6E70220F4E7C0464A
:10B56C00FFBFFFFF10B51F23194001248C40036A55
:10B57C00A3430362036A8A401343036210BD0000B5
:10B58C0010B50400002937D13E23C35C013B5A1E81
:10B59C009341DBB2002B00D083E0002957D13E331E
:10B5AC000222E25401222068FFF7DCFF2368404AA4
:10B5BC00934208D03F4A934205D03F4A934202D06F
:10B5CC003E4A934204D1596C802212020A435A64B7
:10B5DC002368374A934256D08022D205934252D0E8
:10B5EC00374A93424FD0334A93424CD01A680121C8
:10B5FC000A431A60002055E004290CD0082911D008
:10B60C000C2916D010291BD04323C35C013B5A1EB6
:10B61C009341DBB2BEE73F23C35C013B5A1E93410F
:10B62C00DBB2B7E74023C35C013B5A1E9341DBB24C
:10B63C00B0E74123C35C013B5A1E9341DBB2A9E73F
:10B64C004223C35C013B5A1E9341DBB2A2E704299F
:10B65C0009D008290BD00C290DD010290FD0432369
:10B66C000222E2549EE73F230222E2549AE740234F
:10B67C000222E25496E741230222E25492E742234B
:10B68C000222E2548EE79A680E490A40062A0AD032
:10B69C0007398A4209D01A6801210A431A6000202E
:10B6AC0000E0012010BD0020FCE70020FAE7C046B6
:10B6BC00002C014000400140004401400048014082
:10B6CC00000400400700010030B53C23C35C012B93
:10B6DC0030D03C230122C25401330132C2540268DF
:10B6EC0053689468144DAA421FD07025AB430D6863
:10B6FC002B4353600368104A934209D08022D20531
:10B70C00934205D00D4A934202D00D4A934204D184
:10B71C00802294438A6814439C603D230122C254C6
:10B72C00013B0022C254002030BD064D2B404D6819
:10B73C002B43DAE70220F7E7002C0140000400401D
:10B74C0000400140FFFF0FFF10B53C23C35C012BF1
:10B75C0044D03C230122C254214BCA6813408A684E
:10B76C001343204A13404A6813431F4A13400A6884
:10B77C0013431E4A13400A6913431D4A13404A6976
:10B78C0013431C4A13400A6B13431B4A13408A6928
:10B79C00120413430268194CA24208D0174CA2425F
:10B7AC000AD053643C230022C254002010BD144C18
:10B7BC002340CC692343F1E7124C23408C6A2405C7
:10B7CC002343114C23400C6A2343104C23404C6AF6
:10B7DC0023430F4C2340C96A0B43E2E70220E5E701
:10B7EC00FFFCFFFFFFFBFFFFFFF7FFFFFFEFFFFF7C
:10B7FC00FFDFFFFFFFBFFFFFFFFFF0FF002C01404B
:10B80C00FFFFFFEFFFFF0FFFFFFFFFFEFFFFFFFD3F
:10B81C00FFFFFFDF7047704770470000F8B504006A
:10B82C00016883680269134342691343C269134375
:10B83C00426E1A430B68AB48034013430B602268FB
:10B84C005368A9490B40E1680B435360A169226816
:10B85C00A64B9A4201D0236A19439368A44803402B
:10B86C000B4393602268D36A0F218B43616A0B43AD
:10B87C00D36222689F4B9A420ED09F4B9A4248D07B
:10B88C009E4B9A4200D17BE09D4B9A427AD0974BCB
:10B89C009A424FD010230BE09A4B596D03230B4067
:10B8AC00022B5FD031D8002B5ED0012B5ED103333D
:10B8BC008E498A4270D0E06980221202904200D1F7
:10B8CC00B4E0042B00D100E100D9E8E0002B00D15A
:10B8DC00F4E0022B00D0E0E08B48636A5B008B4AFB
:10B8EC00995AFAF71BFC63685B08C0186168FAF791
:10B8FC0015FC0004000C0200103A854B9A4200D94A
:10B90C00EEE02368D8600020CFE0032B30D1053364
:10B91C00CEE77C4B596D0C230B40082B2AD005D855
:10B92C00002B29D0042BC3D01023C1E70C2B25D11D
:10B93C00043BBDE7734B5B6DC02109010B408021BB
:10B94C0009018B4220D007D8002B1FD08021C900C1
:10B95C008B421DD10423ABE7C02109018B4219D1C5
:10B96C000823A5E70223A3E70023A1E710239FE701
:10B97C0010239DE702239BE7002399E7102397E709
:10B98C00002395E7002393E7022391E700238FE739
:10B99C0010238DE710238BE7042B43D034D8002BD6
:10B9AC0039D0022B2ED1584D636A5B00574A9F5AEF
:10B9BC0039002800FAF7B2FB666873009B198342C2
:10B9CC0000D985E03303834200D283E03A000023A0
:10B9DC0028000021FAF790FD050E0B022B43020202
:10B9EC00700800218018594132000023FAF784FDB9
:10B9FC00484BC218484B9A4200D96DE02368D86076
:10BA0C00002052E0012050E0082B02D180252D02AD
:10BA1C00CAE7012049E0FDF753FB0500002DC3D117
:10BA2C00002042E0FDF724FA0500F7E7042B31D0A3
:10BA3C0026D8002B28D0022B20D13348636A5B0018
:10BA4C00324A995AFAF76AFB400063685B08C018DF
:10BA5C006168FAF763FB83B20004000C0100103933
:10BA6C002B4A91423AD80F2293431A0040080723DD
:10BA7C00184010432368D860002016E0012014E021
:10BA8C00082BDBD0012010E0FDF71AFB0028D5D1E4
:10BA9C0000200AE0FDF7ECF9F8E7012005E0082B9F
:10BAAC0002D18020000218E7012001236A22A35250
:10BABC00023AA352002323676367F8BDFDF700FB2E
:10BACC00002800D009E70020EFE7FDF7D1F9F7E7F0
